{
	"data": {
		"bytecode": {
			"linkReferences": {},
			"object": "608060405234801561000f575f80fd5b50615a83806200001e5f395ff3fe608060405234801561000f575f80fd5b5060043610610029575f3560e01c8063966751901461002d575b5f80fd5b61004061003b36600461582b565b610056565b60405161004d9190615932565b60405180910390f35b60605f80516020615a0e8339815191528260048151811061007957610079615989565b60200260200101518787604681811061009457610094615989565b9050602002013508826029815181106100af576100af615989565b6020026020010181815250506100d35f80516020615a2e83398151915260066154f0565b82602a815181106100e6576100e6615989565b60209081029190910101525f80516020615a0e83398151915282602a8151811061011257610112615989565b60200260200101518360278151811061012d5761012d615989565b60200260200101510982602a8151811061014957610149615989565b60209081029190910101525f80516020615a0e833981519152805f80516020615a0e8339815191528888606a81811061018457610184615989565b905060200201355f80516020615a0e833981519152806101a6576101a6615975565b86602a815181106101b9576101b9615989565b6020026020010151876029815181106101d4576101d4615989565b602002602001015108095f80516020615a0e8339815191528086602a8151811061020057610200615989565b60200260200101515f80516020615a2e833981519152098660288151811061022a5761022a615989565b6020026020010151080961024b905f80516020615a0e8339815191526159b1565b5f80516020615a0e833981519152808989606b81811061026d5761026d615989565b905060200201355f80516020615a0e8339815191528061028f5761028f615975565b5f80516020615a0e8339815191528c8c605e8181106102b0576102b0615989565b90506020020135896003815181106102ca576102ca615989565b602002602001015109886029815181106102e6576102e6615989565b602002602001015108095f80516020615a0e833981519152808b8b605f81811061031257610312615989565b905060200201358860038151811061032c5761032c615989565b6020026020010151098760288151811061034857610348615989565b60200260200101510809088260288151811061036657610366615989565b60209081029190910101525f80516020615a0e8339815191528260058151811061039257610392615989565b60200260200101515f80516020615a0e833981519152806103b5576103b5615975565b5f80516020615a0e833981519152856026815181106103d6576103d6615989565b6020026020010151866028815181106103f1576103f1615989565b6020026020010151095f80516020615a0e8339815191528660058151811061041b5761041b615989565b60200260200101515f80516020615a0e8339815191528061043e5761043e615975565b5f80516020615a0e8339815191528960268151811061045f5761045f615989565b60200260200101518a60228151811061047a5761047a615989565b60200260200101510989601f8151811061049657610496615989565b60200260200101510809080982601f815181106104b5576104b5615989565b60209081029190910101525f80516020615a0e833981519152826004815181106104e1576104e1615989565b6020026020010151878760388181106104fc576104fc615989565b90506020020135088260228151811061051757610517615989565b60200260200101818152505061053b5f80516020615a2e83398151915260086154f0565b8260288151811061054e5761054e615989565b60209081029190910101525f80516020615a0e8339815191528260268151811061057a5761057a615989565b60200260200101515f80516020615a0e8339815191528061059d5761059d615975565b5f80516020615a0e8339815191528989606d8181106105be576105be615989565b905060200201355f80516020615a0e833981519152806105e0576105e0615975565b5f80516020615a0e8339815191528860288151811061060157610601615989565b60200260200101518960278151811061061c5761061c615989565b6020026020010151098860228151811061063857610638615989565b60200260200101510809610659905f80516020615a0e8339815191526159b1565b5f80516020615a0e8339815191528a8a606e81811061067a5761067a615989565b905060200201355f80516020615a0e8339815191528061069c5761069c615975565b5f80516020615a0e8339815191528d8d60608181106106bd576106bd615989565b905060200201358a6003815181106106d7576106d7615989565b602002602001015109896022815181106106f3576106f3615989565b6020026020010151080908098260228151811061071257610712615989565b60209081029190910101525f80516020615a0e833981519152805f80516020615a0e8339815191528888606f81811061074d5761074d615989565b905060200201355f80516020615a0e83398151915261076c91906159b1565b5f80516020615a0e8339815191528a8a606f81811061078d5761078d615989565b905060200201358b8b606f8181106107a7576107a7615989565b905060200201350908846021815181106107c3576107c3615989565b6020026020010151095f80516020615a0e833981519152846005815181106107ed576107ed615989565b60200260200101515f80516020615a0e8339815191528061081057610810615975565b5f80516020615a0e833981519152808c8c606f81811061083257610832615989565b905060200201355f80516020615a0e83398151915261085191906159b1565b6001088860258151811061086757610867615989565b6020026020010151095f80516020615a0e8339815191528860058151811061089157610891615989565b60200260200101515f80516020615a0e833981519152806108b4576108b4615975565b8a6022815181106108c7576108c7615989565b60200260200101518b601f815181106108e2576108e2615989565b6020026020010151080908090882601f8151811061090257610902615989565b60209081029190910101525f80516020615a0e8339815191528260048151811061092e5761092e615989565b60200260200101515f80516020615a0e8339815191528061095157610951615975565b8888605381811061096457610964615989565b905060200201355f80516020615a0e8339815191528061098657610986615975565b8660028151811061099957610999615989565b60200260200101518b8b60528181106109b4576109b4615989565b90506020020135090808826022815181106109d1576109d1615989565b60209081029190910101525f80516020615a0e833981519152826022815181106109fd576109fd615989565b60200260200101515f80516020615a0e83398151915280610a2057610a20615975565b5f80516020615a0e83398151915285600381518110610a4157610a41615989565b60200260200101515f80516020615a0e83398151915280610a6457610a64615975565b8b8b6040818110610a7757610a77615989565b905060200201355f80516020615a0e83398151915280610a9957610a99615975565b89600281518110610aac57610aac615989565b60200260200101518e8e6051818110610ac757610ac7615989565b905060200201350908088989606f818110610ae457610ae4615989565b90506020020135090982602781518110610b0057610b00615989565b60209081029190910101525f80516020615a0e83398151915282602681518110610b2c57610b2c615989565b60200260200101515f80516020615a0e83398151915280610b4f57610b4f615975565b84602781518110610b6257610b62615989565b60200260200101515f80516020615a0e833981519152610b8291906159b1565b5f80516020615a0e8339815191528087600481518110610ba457610ba4615989565b60200260200101518c8c6073818110610bbf57610bbf615989565b90506020020135085f80516020615a0e8339815191528089600381518110610be957610be9615989565b60200260200101518e8e6071818110610c0457610c04615989565b90506020020135088d8d6070818110610c1f57610c1f615989565b905060200201350909080982602781518110610c3d57610c3d615989565b60209081029190910101525f80516020615a0e83398151915286866073818110610c6957610c69615989565b905060200201355f80516020615a0e833981519152610c8891906159b1565b87876071818110610c9b57610c9b615989565b905060200201350882602881518110610cb657610cb6615989565b60209081029190910101525f80516020615a0e83398151915282600581518110610ce257610ce2615989565b60200260200101515f80516020615a0e83398151915280610d0557610d05615975565b5f80516020615a0e83398151915285602881518110610d2657610d26615989565b602002602001015186602581518110610d4157610d41615989565b6020026020010151095f80516020615a0e83398151915286600581518110610d6b57610d6b615989565b60200260200101515f80516020615a0e83398151915280610d8e57610d8e615975565b88602781518110610da157610da1615989565b60200260200101515f80516020615a0e83398151915280610dc457610dc4615975565b8a600581518110610dd757610dd7615989565b60200260200101518b601f81518110610df257610df2615989565b6020026020010151090809080982601f81518110610e1257610e12615989565b60209081029190910101525f80516020615a0e83398151915282600581518110610e3e57610e3e615989565b60200260200101515f80516020615a0e83398151915280610e6157610e61615975565b5f80516020615a0e83398151915285602681518110610e8257610e82615989565b60200260200101515f80516020615a0e83398151915280610ea557610ea5615975565b5f80516020615a0e8339815191528c8c6072818110610ec657610ec6615989565b905060200201355f80516020615a0e833981519152610ee591906159b1565b8d8d6071818110610ef857610ef8615989565b905060200201350888602881518110610f1357610f13615989565b6020026020010151090985601f81518110610f3057610f30615989565b6020026020010151080982601f81518110610f4d57610f4d615989565b60209081029190910101525f80516020615a0e833981519152805f80516020615a0e83398151915288886074818110610f8857610f88615989565b905060200201355f80516020615a0e833981519152610fa791906159b1565b5f80516020615a0e8339815191528a8a6074818110610fc857610fc8615989565b905060200201358b8b6074818110610fe257610fe2615989565b90506020020135090884602181518110610ffe57610ffe615989565b6020026020010151095f80516020615a0e8339815191528460058151811061102857611028615989565b60200260200101515f80516020615a0e8339815191528061104b5761104b615975565b5f80516020615a0e833981519152808c8c607481811061106d5761106d615989565b905060200201355f80516020615a0e83398151915261108c91906159b1565b600108886025815181106110a2576110a2615989565b60200260200101510987601f815181106110be576110be615989565b602002602001015108090882601f815181106110dc576110dc615989565b60209081029190910101525f80516020615a0e8339815191528260228151811061110857611108615989565b60200260200101515f80516020615a0e8339815191528061112b5761112b615975565b5f80516020615a0e8339815191528560038151811061114c5761114c615989565b60200260200101515f80516020615a0e8339815191528061116f5761116f615975565b8b8b604181811061118257611182615989565b905060200201355f80516020615a0e833981519152806111a4576111a4615975565b896002815181106111b7576111b7615989565b60200260200101516012090808898960748181106111d7576111d7615989565b905060200201350909826022815181106111f3576111f3615989565b60209081029190910101525f80516020615a0e8339815191528260268151811061121f5761121f615989565b60200260200101515f80516020615a0e8339815191528061124257611242615975565b8460228151811061125557611255615989565b60200260200101515f80516020615a0e83398151915261127591906159b1565b5f80516020615a0e833981519152808760048151811061129757611297615989565b60200260200101518c8c60788181106112b2576112b2615989565b90506020020135085f80516020615a0e83398151915280896003815181106112dc576112dc615989565b60200260200101518e8e60768181106112f7576112f7615989565b90506020020135088d8d607581811061131257611312615989565b90506020020135090908098260228151811061133057611330615989565b60209081029190910101525f80516020615a0e8339815191528686607881811061135c5761135c615989565b905060200201355f80516020615a0e83398151915261137b91906159b1565b8787607681811061138e5761138e615989565b9050602002013508826027815181106113a9576113a9615989565b60209081029190910101525f80516020615a0e833981519152826005815181106113d5576113d5615989565b60200260200101515f80516020615a0e833981519152806113f8576113f8615975565b5f80516020615a0e8339815191528560278151811061141957611419615989565b60200260200101518660258151811061143457611434615989565b6020026020010151095f80516020615a0e8339815191528660058151811061145e5761145e615989565b60200260200101515f80516020615a0e8339815191528061148157611481615975565b8860228151811061149457611494615989565b60200260200101515f80516020615a0e833981519152806114b7576114b7615975565b8a6005815181106114ca576114ca615989565b60200260200101518b601f815181106114e5576114e5615989565b6020026020010151090809080982601f8151811061150557611505615989565b60209081029190910101525f80516020615a0e8339815191528260058151811061153157611531615989565b60200260200101515f80516020615a0e8339815191528061155457611554615975565b5f80516020615a0e8339815191528560268151811061157557611575615989565b60200260200101515f80516020615a0e8339815191528061159857611598615975565b5f80516020615a0e8339815191528c8c60778181106115b9576115b9615989565b905060200201355f80516020615a0e8339815191526115d891906159b1565b8d8d60768181106115eb576115eb615989565b90506020020135088860278151811061160657611606615989565b6020026020010151090985601f8151811061162357611623615989565b6020026020010151080982601f8151811061164057611640615989565b60209081029190910101525f80516020615a0e833981519152805f80516020615a0e8339815191528888607981811061167b5761167b615989565b905060200201355f80516020615a0e83398151915261169a91906159b1565b5f80516020615a0e8339815191528a8a60798181106116bb576116bb615989565b905060200201358b8b60798181106116d5576116d5615989565b905060200201350908846021815181106116f1576116f1615989565b6020026020010151095f80516020615a0e8339815191528460058151811061171b5761171b615989565b60200260200101515f80516020615a0e8339815191528061173e5761173e615975565b5f80516020615a0e833981519152808c8c607981811061176057611760615989565b905060200201355f80516020615a0e83398151915261177f91906159b1565b6001088860258151811061179557611795615989565b60200260200101510987601f815181106117b1576117b1615989565b602002602001015108090882601f815181106117cf576117cf615989565b60209081029190910101525f80516020615a0e833981519152826002815181106117fb576117fb615989565b60200260200101518787604681811061181657611816615989565b90506020020135098260218151811061183157611831615989565b60209081029190910101525f80516020615a0e8339815191528260038151811061185d5761185d615989565b60200260200101515f80516020615a0e8339815191528061188057611880615975565b8460028151811061189357611893615989565b60200260200101515f80516020615a0e833981519152806118b6576118b6615975565b5f80516020615a0e8339815191528b8b60558181106118d7576118d7615989565b905060200201355f80516020615a0e833981519152806118f9576118f9615975565b8d8d604781811061190c5761190c615989565b90506020020135600160801b09088760218151811061192d5761192d615989565b60200260200101510809088260228151811061194b5761194b615989565b60209081029190910101525f80516020615a0e833981519152808360048151811061197857611978615989565b60200260200101515f80516020615a0e8339815191528061199b5761199b615975565b898960568181106119ae576119ae615989565b905060200201355f80516020615a0e833981519152806119d0576119d0615975565b876002815181106119e3576119e3615989565b60200260200101515f80516020615a0e83398151915280611a0657611a06615975565b8d8d6055818110611a1957611a19615989565b905060200201358a602181518110611a3357611a33615989565b6020026020010151080908085f80516020615a0e83398151915284602281518110611a6057611a60615989565b602002602001015189896079818110611a7b57611a7b615989565b90506020020135090982602181518110611a9757611a97615989565b60209081029190910101525f80516020615a0e83398151915282602681518110611ac357611ac3615989565b60200260200101515f80516020615a0e83398151915280611ae657611ae6615975565b84602181518110611af957611af9615989565b60200260200101515f80516020615a0e833981519152611b1991906159b1565b5f80516020615a0e8339815191528087600481518110611b3b57611b3b615989565b60200260200101518c8c607d818110611b5657611b56615989565b90506020020135085f80516020615a0e8339815191528089600381518110611b8057611b80615989565b60200260200101518e8e607b818110611b9b57611b9b615989565b90506020020135088d8d607a818110611bb657611bb6615989565b905060200201350909080982602181518110611bd457611bd4615989565b60209081029190910101525f80516020615a0e8339815191528686607d818110611c0057611c00615989565b905060200201355f80516020615a0e833981519152611c1f91906159b1565b8787607b818110611c3257611c32615989565b905060200201350882602281518110611c4d57611c4d615989565b60209081029190910101525f80516020615a0e83398151915282600581518110611c7957611c79615989565b60200260200101515f80516020615a0e83398151915280611c9c57611c9c615975565b5f80516020615a0e83398151915285602281518110611cbd57611cbd615989565b602002602001015186602581518110611cd857611cd8615989565b6020026020010151095f80516020615a0e83398151915286600581518110611d0257611d02615989565b60200260200101515f80516020615a0e83398151915280611d2557611d25615975565b88602181518110611d3857611d38615989565b60200260200101515f80516020615a0e83398151915280611d5b57611d5b615975565b8a600581518110611d6e57611d6e615989565b60200260200101518b601f81518110611d8957611d89615989565b6020026020010151090809080982601f81518110611da957611da9615989565b6020908102919091010152611eca5f80516020615a0e8339815191528084602681518110611dd957611dd9615989565b60200260200101515f80516020615a0e83398151915280611dfc57611dfc615975565b5f80516020615a0e8339815191528b8b607c818110611e1d57611e1d615989565b905060200201355f80516020615a0e833981519152611e3c91906159b1565b8c8c607b818110611e4f57611e4f615989565b905060200201350887602281518110611e6a57611e6a615989565b6020026020010151090984601f81518110611e8757611e87615989565b60200260200101510883602481518110611ea357611ea3615989565b602002602001015186866010818110611ebe57611ebe615989565b90506020020135615555565b82601f81518110611edd57611edd615989565b60209081029190910101525f80516020615a0e83398151915282601f81518110611f0957611f09615989565b60200260200101515f80516020615a0e83398151915280611f2c57611f2c615975565b5f80516020615a0e83398151915289896060818110611f4d57611f4d615989565b905060200201355f80516020615a0e83398151915280611f6f57611f6f615975565b5f80516020615a0e8339815191528c8c605f818110611f9057611f90615989565b9050602002013589601d81518110611faa57611faa615989565b60200260200101510888600781518110611fc657611fc6615989565b6020026020010151090885600781518110611fe357611fe3615989565b6020026020010151090882601d8151811061200057612000615989565b60209081029190910101525f80516020615a0e8339815191528260148151811061202c5761202c615989565b60200260200101518360118151811061204757612047615989565b6020026020010151098260148151811061206357612063615989565b60209081029190910101525f80516020615a0e83398151915282601b8151811061208f5761208f615989565b60200260200101515f80516020615a0e833981519152806120b2576120b2615975565b846019815181106120c5576120c5615989565b60200260200101515f80516020615a0e833981519152806120e8576120e8615975565b866016815181106120fb576120fb615989565b60200260200101518760148151811061211657612116615989565b602002602001015109090982601f8151811061213457612134615989565b60209081029190910101525f80516020615a0e833981519152805f80516020615a0e83398151915284601f8151811061216f5761216f615989565b60200260200101515f80516020615a0e8339815191528061219257612192615975565b8a8a60578181106121a5576121a5615989565b905060200201355f80516020615a0e833981519152806121c7576121c7615975565b88601d815181106121da576121da615989565b6020026020010151896007815181106121f5576121f5615989565b60200260200101510908095f80516020615a0e833981519152805f80516020615a0e83398151915287601c8151811061223057612230615989565b60200260200101518860158151811061224b5761224b615989565b6020026020010151095f80516020615a0e8339815191528860128151811061227557612275615989565b60200260200101518960088151811061229057612290615989565b60200260200101510908866008815181106122ad576122ad615989565b60200260200101510908836008815181106122ca576122ca615989565b602002602001015109826012815181106122e6576122e6615989565b60200260200101818152505081601e8151811061230557612305615989565b60200260200101515f80516020615a0e83398151915261232591906159b1565b8260158151811061233857612338615989565b6020026020010181815250508160208151811061235757612357615989565b60200260200101515f80516020615a0e83398151915261237791906159b1565b82601d8151811061238a5761238a615989565b60209081029190910101525f80516020615a0e833981519152805f80516020615a0e833981519152808989603e8181106123c6576123c6615989565b9050602002013586601d815181106123e0576123e0615989565b6020026020010151095f80516020615a0e8339815191528a8a603d81811061240a5761240a615989565b905060200201358760158151811061242457612424615989565b602002602001015109085f80516020615a0e8339815191528560098151811061244f5761244f615989565b60200260200101515f80516020615a0e8339815191528061247257612472615975565b5f80516020615a0e8339815191528c8c603e81811061249357612493615989565b9050602002013589601a815181106124ad576124ad615989565b6020026020010151095f80516020615a0e8339815191528d8d603d8181106124d7576124d7615989565b905060200201358a6017815181106124f1576124f1615989565b6020026020010151090809088360078151811061251057612510615989565b60200260200101510982601e8151811061252c5761252c615989565b60209081029190910101525f80516020615a0e833981519152805f80516020615a0e833981519152808989606e81811061256857612568615989565b9050602002013586601d8151811061258257612582615989565b6020026020010151095f80516020615a0e8339815191528a8a606d8181106125ac576125ac615989565b90506020020135876015815181106125c6576125c6615989565b602002602001015109085f80516020615a0e833981519152856009815181106125f1576125f1615989565b60200260200101515f80516020615a0e8339815191528061261457612614615975565b5f80516020615a0e8339815191528c8c606e81811061263557612635615989565b9050602002013589601a8151811061264f5761264f615989565b6020026020010151095f80516020615a0e8339815191528d8d606d81811061267957612679615989565b905060200201358a60178151811061269357612693615989565b60200260200101510908090883601e815181106126b2576126b2615989565b60200260200101510882601e815181106126ce576126ce615989565b60209081029190910101525f80516020615a0e833981519152805f80516020615a0e833981519152808989607081811061270a5761270a615989565b9050602002013586601d8151811061272457612724615989565b6020026020010151095f80516020615a0e8339815191528a8a606f81811061274e5761274e615989565b905060200201358760158151811061276857612768615989565b602002602001015109085f80516020615a0e8339815191528560098151811061279357612793615989565b60200260200101515f80516020615a0e833981519152806127b6576127b6615975565b5f80516020615a0e8339815191528c8c60708181106127d7576127d7615989565b9050602002013589601a815181106127f1576127f1615989565b6020026020010151095f80516020615a0e8339815191528d8d606f81811061281b5761281b615989565b905060200201358a60178151811061283557612835615989565b6020026020010151090809085f80516020615a0e83398151915284601e8151811061286257612862615989565b60200260200101518560078151811061287d5761287d615989565b6020026020010151090882601e8151811061289a5761289a615989565b60209081029190910101525f80516020615a0e833981519152805f80516020615a0e83398151915280898960758181106128d6576128d6615989565b9050602002013586601d815181106128f0576128f0615989565b6020026020010151095f80516020615a0e8339815191528a8a607481811061291a5761291a615989565b905060200201358760158151811061293457612934615989565b602002602001015109085f80516020615a0e8339815191528560098151811061295f5761295f615989565b60200260200101515f80516020615a0e8339815191528061298257612982615975565b5f80516020615a0e8339815191528c8c60758181106129a3576129a3615989565b9050602002013589601a815181106129bd576129bd615989565b6020026020010151095f80516020615a0e8339815191528d8d60748181106129e7576129e7615989565b905060200201358a601781518110612a0157612a01615989565b6020026020010151090809085f80516020615a0e83398151915284601e81518110612a2e57612a2e615989565b602002602001015185600781518110612a4957612a49615989565b6020026020010151090882601e81518110612a6657612a66615989565b60209081029190910101525f80516020615a0e833981519152805f80516020615a0e833981519152808989607a818110612aa257612aa2615989565b9050602002013586601d81518110612abc57612abc615989565b6020026020010151095f80516020615a0e8339815191528a8a6079818110612ae657612ae6615989565b9050602002013587601581518110612b0057612b00615989565b602002602001015109085f80516020615a0e83398151915285600981518110612b2b57612b2b615989565b60200260200101515f80516020615a0e83398151915280612b4e57612b4e615975565b5f80516020615a0e8339815191528c8c607a818110612b6f57612b6f615989565b9050602002013589601a81518110612b8957612b89615989565b6020026020010151095f80516020615a0e8339815191528d8d6079818110612bb357612bb3615989565b905060200201358a601781518110612bcd57612bcd615989565b6020026020010151090809085f80516020615a0e83398151915284601e81518110612bfa57612bfa615989565b602002602001015185600781518110612c1557612c15615989565b6020026020010151090882601e81518110612c3257612c32615989565b60209081029190910101525f80516020615a0e83398151915282601b81518110612c5e57612c5e615989565b60200260200101515f80516020615a0e83398151915280612c8157612c81615975565b84601981518110612c9457612c94615989565b602002602001015185601481518110612caf57612caf615989565b6020026020010151090982601981518110612ccc57612ccc615989565b6020908102919091010152612d4c60015f80516020615a0e83398151915284601881518110612cfd57612cfd615989565b60200260200101515f80516020615a0e833981519152612d1d91906159b1565b85600681518110612d3057612d30615989565b60200260200101510886866011818110611ebe57611ebe615989565b82602081518110612d5f57612d5f615989565b60209081029190910101525f80516020615a0e83398151915282602081518110612d8b57612d8b615989565b602002602001015183601781518110612da657612da6615989565b60200260200101510982602181518110612dc257612dc2615989565b6020908102919091010152612e4260015f80516020615a0e83398151915284601881518110612df357612df3615989565b60200260200101515f80516020615a0e833981519152612e1391906159b1565b85601381518110612e2657612e26615989565b60200260200101510886866012818110611ebe57611ebe615989565b82602281518110612e5557612e55615989565b60209081029190910101525f80516020615a0e83398151915282602281518110612e8157612e81615989565b602002602001015183601a81518110612e9c57612e9c615989565b60200260200101510982602481518110612eb857612eb8615989565b6020908102919091010152612f3860015f80516020615a0e83398151915284600681518110612ee957612ee9615989565b60200260200101515f80516020615a0e833981519152612f0991906159b1565b85601881518110612f1c57612f1c615989565b60200260200101510886866013818110611ebe57611ebe615989565b82602581518110612f4b57612f4b615989565b6020908102919091010152612fcb60015f80516020615a0e83398151915284601381518110612f7c57612f7c615989565b60200260200101515f80516020615a0e833981519152612f9c91906159b1565b85601881518110612faf57612faf615989565b60200260200101510886866014818110611ebe57611ebe615989565b82602681518110612fde57612fde615989565b60209081029190910101525f80516020615a0e8339815191528260268151811061300a5761300a615989565b60200260200101518360258151811061302557613025615989565b6020026020010151098260278151811061304157613041615989565b60209081029190910101525f80516020615a0e8339815191528260188151811061306d5761306d615989565b60200260200101518360208151811061308857613088615989565b602002602001015109826028815181106130a4576130a4615989565b60209081029190910101525f80516020615a0e83398151915280836028815181106130d1576130d1615989565b6020026020010151846017815181106130ec576130ec615989565b60200260200101510961310c905f80516020615a0e8339815191526159b1565b5f80516020615a0e8339815191528460208151811061312d5761312d615989565b60200260200101518560158151811061314857613148615989565b602002602001015109088260178151811061316557613165615989565b60209081029190910101525f80516020615a0e8339815191528260188151811061319157613191615989565b6020026020010151836022815181106131ac576131ac615989565b602002602001015109826018815181106131c8576131c8615989565b60209081029190910101525f80516020615a0e83398151915280836018815181106131f5576131f5615989565b602002602001015184601a8151811061321057613210615989565b602002602001015109613230905f80516020615a0e8339815191526159b1565b5f80516020615a0e8339815191528460228151811061325157613251615989565b602002602001015185601d8151811061326c5761326c615989565b6020026020010151090882601a8151811061328957613289615989565b60209081029190910101525f80516020615a0e833981519152826006815181106132b5576132b5615989565b6020026020010151836025815181106132d0576132d0615989565b6020026020010151096132f0905f80516020615a0e8339815191526159b1565b8260208151811061330357613303615989565b60209081029190910101525f80516020615a0e8339815191528260138151811061332f5761332f615989565b60200260200101518360268151811061334a5761334a615989565b6020026020010151098260138151811061336657613366615989565b60209081029190910101525f80516020615a0e833981519152808360138151811061339357613393615989565b6020026020010151846025815181106133ae576133ae615989565b6020026020010151096133ce905f80516020615a0e8339815191526159b1565b5f80516020615a0e833981519152846026815181106133ef576133ef615989565b60200260200101518560208151811061340a5761340a615989565b602002602001015109088260228151811061342757613427615989565b60209081029190910101525f80516020615a0e833981519152805f80516020615a0e8339815191528888604581811061346257613462615989565b905060200201358560228151811061347c5761347c615989565b6020026020010151095f80516020615a0e833981519152808a8a60438181106134a7576134a7615989565b9050602002013587601a815181106134c1576134c1615989565b6020026020010151095f80516020615a0e8339815191528b8b60408181106134eb576134eb615989565b905060200201358860178151811061350557613505615989565b60200260200101510908085f80516020615a0e8339815191528460098151811061353157613531615989565b60200260200101515f80516020615a0e8339815191528061355457613554615975565b5f80516020615a0e8339815191528b8b604581811061357557613575615989565b905060200201358860278151811061358f5761358f615989565b6020026020010151095f80516020615a0e833981519152808d8d60438181106135ba576135ba615989565b905060200201358a6024815181106135d4576135d4615989565b6020026020010151095f80516020615a0e8339815191528e8e60408181106135fe576135fe615989565b905060200201358b60218151811061361857613618615989565b602002602001015109080809088260258151811061363857613638615989565b60209081029190910101525f80516020615a0e8339815191528260288151811061366457613664615989565b60200260200101518360158151811061367f5761367f615989565b60200260200101510961369f905f80516020615a0e8339815191526159b1565b826015815181106136b2576136b2615989565b60209081029190910101525f80516020615a0e833981519152826018815181106136de576136de615989565b602002602001015183601d815181106136f9576136f9615989565b602002602001015109613719905f80516020615a0e8339815191526159b1565b8260188151811061372c5761372c615989565b60209081029190910101525f80516020615a0e8339815191528260138151811061375857613758615989565b60200260200101518360208151811061377357613773615989565b602002602001015109613793905f80516020615a0e8339815191526159b1565b826013815181106137a6576137a6615989565b60209081029190910101525f80516020615a0e833981519152805f80516020615a0e83398151915280898960458181106137e2576137e2615989565b90506020020135866013815181106137fc576137fc615989565b6020026020010151095f80516020615a0e833981519152808b8b604381811061382757613827615989565b905060200201358860188151811061384157613841615989565b6020026020010151095f80516020615a0e8339815191528c8c604081811061386b5761386b615989565b905060200201358960158151811061388557613885615989565b60200260200101510908085f80516020615a0e833981519152856009815181106138b1576138b1615989565b6020026020010151866025815181106138cc576138cc615989565b60200260200101510908836007815181106138e9576138e9615989565b60200260200101510982601d8151811061390557613905615989565b60209081029190910101525f80516020615a0e833981519152805f80516020615a0e8339815191528888604481811061394057613940615989565b905060200201358560228151811061395a5761395a615989565b6020026020010151095f80516020615a0e833981519152808a8a604281811061398557613985615989565b9050602002013587601a8151811061399f5761399f615989565b6020026020010151095f80516020615a0e8339815191528b8b60418181106139c9576139c9615989565b90506020020135886017815181106139e3576139e3615989565b60200260200101510908085f80516020615a0e83398151915284600981518110613a0f57613a0f615989565b60200260200101515f80516020615a0e83398151915280613a3257613a32615975565b5f80516020615a0e8339815191528b8b6044818110613a5357613a53615989565b9050602002013588602781518110613a6d57613a6d615989565b6020026020010151095f80516020615a0e833981519152808d8d6042818110613a9857613a98615989565b905060200201358a602481518110613ab257613ab2615989565b6020026020010151095f80516020615a0e8339815191528e8e6041818110613adc57613adc615989565b905060200201358b602181518110613af657613af6615989565b6020026020010151090808090882601781518110613b1657613b16615989565b60209081029190910101525f80516020615a0e833981519152805f80516020615a0e8339815191528089896044818110613b5257613b52615989565b9050602002013586601381518110613b6c57613b6c615989565b6020026020010151095f80516020615a0e833981519152808b8b6042818110613b9757613b97615989565b9050602002013588601881518110613bb157613bb1615989565b6020026020010151095f80516020615a0e8339815191528c8c6041818110613bdb57613bdb615989565b9050602002013589601581518110613bf557613bf5615989565b60200260200101510908085f80516020615a0e83398151915285600981518110613c2157613c21615989565b602002602001015186601781518110613c3c57613c3c615989565b6020026020010151090883601d81518110613c5957613c59615989565b60200260200101510882601381518110613c7557613c75615989565b60209081029190910101525f80516020615a0e83398151915282601b81518110613ca157613ca1615989565b602002602001015183601481518110613cbc57613cbc615989565b60200260200101510982601481518110613cd857613cd8615989565b60209081029190910101525f80516020615a0e8339815191528083601481518110613d0557613d05615989565b602002602001015184601381518110613d2057613d20615989565b6020026020010151095f80516020615a0e833981519152805f80516020615a0e83398151915286601981518110613d5957613d59615989565b602002602001015187601e81518110613d7457613d74615989565b60200260200101510986601281518110613d9057613d90615989565b60200260200101510885600881518110613dac57613dac615989565b6020026020010151090882601281518110613dc957613dc9615989565b60200260200101818152505060017f30644e72e131a029b85045b68181585d97816a916871ca8d3c208c16d87cfd4583600c81518110613e0b57613e0b615989565b6020026020010184600d81518110613e2557613e25615989565b602002602001018281525082815250505081601281518110613e4957613e49615989565b602002602001015182600e81518110613e6457613e64615989565b602002602001018181525050613e7b82600c615603565b5f80516020615a0e83398151915282600881518110613e9c57613e9c615989565b602002602001015183600881518110613eb757613eb7615989565b60200260200101510982601381518110613ed357613ed3615989565b60209081029190910101525f80516020615a0e83398151915282601f81518110613eff57613eff615989565b602002602001015183601381518110613f1a57613f1a615989565b60200260200101510982601581518110613f3657613f36615989565b60209081029190910101525f80516020615a0e83398151915282600781518110613f6257613f62615989565b602002602001015183600781518110613f7d57613f7d615989565b60200260200101510982601781518110613f9957613f99615989565b60209081029190910101525f80516020615a0e83398151915282601781518110613fc557613fc5615989565b602002602001015183601781518110613fe057613fe0615989565b60200260200101510982601881518110613ffc57613ffc615989565b60209081029190910101525f80516020615a0e8339815191528260188151811061402857614028615989565b60200260200101518360188151811061404357614043615989565b60200260200101510982601a8151811061405f5761405f615989565b60209081029190910101525f80516020615a0e83398151915282601a8151811061408b5761408b615989565b602002602001015183601a815181106140a6576140a6615989565b60200260200101510982601b815181106140c2576140c2615989565b60209081029190910101525f80516020615a0e83398151915282601b815181106140ee576140ee615989565b602002602001015183601b8151811061410957614109615989565b60200260200101510982601d8151811061412557614125615989565b60209081029190910101525f80516020615a0e8339815191528260178151811061415157614151615989565b602002602001015183601d8151811061416c5761416c615989565b60200260200101510982601e8151811061418857614188615989565b60200260200101818152505085855f8181106141a6576141a6615989565b90506020020135868660018181106141c0576141c0615989565b9050602002013583600e815181106141da576141da615989565b6020026020010184600f815181106141f4576141f4615989565b6020908102919091010191909152525f80516020615a0e833981519152808360078151811061422557614225615989565b602002602001015184601e8151811061424057614240615989565b6020026020010151098360158151811061425c5761425c615989565b6020026020010151098260108151811061427857614278615989565b60200260200101818152505061428f82600c615642565b858560028181106142a2576142a2615989565b90506020020135868660038181106142bc576142bc615989565b9050602002013583600e815181106142d6576142d6615989565b6020026020010184600f815181106142f0576142f0615989565b6020908102919091010191909152525f80516020615a0e83398151915282601e8151811061432057614320615989565b60200260200101518360158151811061433b5761433b615989565b6020026020010151098260108151811061435757614357615989565b60200260200101818152505061436e82600c615642565b8585600481811061438157614381615989565b905060200201358686600581811061439b5761439b615989565b9050602002013583600e815181106143b5576143b5615989565b6020026020010184600f815181106143cf576143cf615989565b6020908102919091010191909152525f80516020615a0e833981519152808360078151811061440057614400615989565b602002602001015184601d8151811061441b5761441b615989565b6020026020010151098360158151811061443757614437615989565b6020026020010151098260108151811061445357614453615989565b60200260200101818152505061446a82600c615642565b8585600681811061447d5761447d615989565b905060200201358686600781811061449757614497615989565b9050602002013583600e815181106144b1576144b1615989565b6020026020010184600f815181106144cb576144cb615989565b6020908102919091010191909152525f80516020615a0e83398151915282601d815181106144fb576144fb615989565b60200260200101518360158151811061451657614516615989565b6020026020010151098260108151811061453257614532615989565b60200260200101818152505061454982600c615642565b5f80516020615a0e8339815191528260198151811061456a5761456a615989565b60200260200101518360088151811061458557614585615989565b602002602001015109826019815181106145a1576145a1615989565b602002602001018181525050858560088181106145c0576145c0615989565b90506020020135868660098181106145da576145da615989565b9050602002013583600e815181106145f4576145f4615989565b6020026020010184600f8151811061460e5761460e615989565b6020908102919091010191909152525f80516020615a0e8339815191528260188151811061463e5761463e615989565b60200260200101518360198151811061465957614659615989565b6020026020010151098260108151811061467557614675615989565b60200260200101818152505061468c82600c615642565b5f80516020615a0e83398151915282601a815181106146ad576146ad615989565b602002602001015183601b815181106146c8576146c8615989565b60200260200101510982601e815181106146e4576146e4615989565b60209081029190910101525f80516020615a0e8339815191528260188151811061471057614710615989565b602002602001015183601e8151811061472b5761472b615989565b60200260200101510982601f8151811061474757614747615989565b60209081029190910101525f80516020615a0e8339815191528260178151811061477357614773615989565b602002602001015183601f8151811061478e5761478e615989565b602002602001015109826020815181106147aa576147aa615989565b6020026020010181815250508585600a8181106147c9576147c9615989565b905060200201358686600b8181106147e3576147e3615989565b9050602002013583600e815181106147fd576147fd615989565b6020026020010184600f8151811061481757614817615989565b6020908102919091010191909152525f80516020615a0e833981519152808360078151811061484857614848615989565b60200260200101518460208151811061486357614863615989565b6020026020010151098360158151811061487f5761487f615989565b6020026020010151098260108151811061489b5761489b615989565b6020026020010181815250506148b282600c615642565b8585600c8181106148c5576148c5615989565b905060200201358686600d8181106148df576148df615989565b9050602002013583600e815181106148f9576148f9615989565b6020026020010184600f8151811061491357614913615989565b6020908102919091010191909152525f80516020615a0e8339815191528260078151811061494357614943615989565b60200260200101518360148151811061495e5761495e615989565b6020026020010151098260108151811061497a5761497a615989565b60200260200101818152505061499182600c615642565b8585600e8181106149a4576149a4615989565b905060200201358686600f8181106149be576149be615989565b9050602002013583600e815181106149d8576149d8615989565b6020026020010184600f815181106149f2576149f2615989565b602002602001018281525082815250505081601481518110614a1657614a16615989565b602002602001015182601081518110614a3157614a31615989565b602002602001018181525050614a4882600c615642565b85856010818110614a5b57614a5b615989565b9050602002013586866011818110614a7557614a75615989565b9050602002013583600e81518110614a8f57614a8f615989565b6020026020010184600f81518110614aa957614aa9615989565b6020908102919091010191909152525f80516020615a0e83398151915282602081518110614ad957614ad9615989565b602002602001015183601581518110614af457614af4615989565b60200260200101510982601081518110614b1057614b10615989565b602002602001018181525050614b2782600c615642565b85856012818110614b3a57614b3a615989565b9050602002013586866013818110614b5457614b54615989565b9050602002013583600e81518110614b6e57614b6e615989565b6020026020010184600f81518110614b8857614b88615989565b6020908102919091010191909152525f80516020615a0e8339815191528083600781518110614bb957614bb9615989565b602002602001015184601f81518110614bd457614bd4615989565b60200260200101510983601581518110614bf057614bf0615989565b60200260200101510982601081518110614c0c57614c0c615989565b602002602001018181525050614c2382600c615642565b5f80516020615a0e83398151915282601881518110614c4457614c44615989565b602002602001015183601b81518110614c5f57614c5f615989565b60200260200101510982601481518110614c7b57614c7b615989565b60209081029190910101525f80516020615a0e83398151915282601781518110614ca757614ca7615989565b602002602001015183601481518110614cc257614cc2615989565b60200260200101510982602081518110614cde57614cde615989565b6020026020010181815250507f2ccd061090b604dfd498b13be8582b4845885f78e5f21958afdb66c43d531cc67f26ff44177d0cd2b5f16eea872d5a038c810058380b6e79e22fc0acde011597ca83600e81518110614d3f57614d3f615989565b6020026020010184600f81518110614d5957614d59615989565b6020908102919091010191909152525f80516020615a0e8339815191528083600781518110614d8a57614d8a615989565b602002602001015184602081518110614da557614da5615989565b60200260200101510983601581518110614dc157614dc1615989565b60200260200101510982601081518110614ddd57614ddd615989565b602002602001018181525050614df482600c615642565b7f144db2a929f0858153baf614d5bdd6c38bb20112e16dedf1b06059fb781789557f1de5acff4db61a1678d93e560fd48e4f8249392c0e2431c567bed61b67ef85f883600e81518110614e4957614e49615989565b6020026020010184600f81518110614e6357614e63615989565b6020908102919091010191909152525f80516020615a0e83398151915282602081518110614e9357614e93615989565b602002602001015183601581518110614eae57614eae615989565b60200260200101510982601081518110614eca57614eca615989565b602002602001018181525050614ee182600c615642565b7f03e1e272f39d3711b00fc0c25ca22ae55ba2859b57a64b61f5db599518c02ea17f037d965a4a481d31ed348a473f77cfa7195f9ddf89a090860a81b72ce238a6b283600e81518110614f3657614f36615989565b6020026020010184600f81518110614f5057614f50615989565b6020908102919091010191909152525f80516020615a0e83398151915282601b81518110614f8057614f80615989565b602002602001015183601581518110614f9b57614f9b615989565b60200260200101510982601081518110614fb757614fb7615989565b602002602001018181525050614fce82600c615642565b5f80516020615a0e83398151915282601881518110614fef57614fef615989565b602002602001015183601a8151811061500a5761500a615989565b6020026020010151098260208151811061502657615026615989565b60209081029190910101525f80516020615a0e8339815191528260178151811061505257615052615989565b60200260200101518360208151811061506d5761506d615989565b6020026020010151098260218151811061508957615089615989565b6020026020010181815250507f2691e18cbbef75012a178c19867f83ae474340123b29a9dc8480d8ee97281e8c7f13f576026cccfedbd91a2318c29b258634e4b74d9f5d6c49fc598cb6f4f3497b83600e815181106150ea576150ea615989565b6020026020010184600f8151811061510457615104615989565b6020908102919091010191909152525f80516020615a0e833981519152808360078151811061513557615135615989565b60200260200101518460218151811061515057615150615989565b6020026020010151098360158151811061516c5761516c615989565b6020026020010151098260108151811061518857615188615989565b60200260200101818152505061519f82600c615642565b7f1687e2dce8c8969473015ab9f452649c3fd2f418e949ac81f3e708d54b2787a87f10444780ce25bc0466468da858270215dd9d662a53bb2d44b8510361b4207a9983600e815181106151f4576151f4615989565b6020026020010184600f8151811061520e5761520e615989565b6020908102919091010191909152525f80516020615a0e8339815191528260218151811061523e5761523e615989565b60200260200101518360158151811061525957615259615989565b6020026020010151098260108151811061527557615275615989565b60200260200101818152505061528c82600c615642565b7f2b2a56d6eb93b6117385603f59cb0cc8617bdf5c1109e888e13d61e4c4e335a67f1ad9ee5b40a8090ad1942526ae4b47a08066b5dcc8f11d704e3917fe4dd7c69e83600e815181106152e1576152e1615989565b6020026020010184600f815181106152fb576152fb615989565b6020908102919091010191909152525f80516020615a0e8339815191528260208151811061532b5761532b615989565b60200260200101518360158151811061534657615346615989565b6020026020010151098260108151811061536257615362615989565b60200260200101818152505061537982600c615642565b5f80516020615a0e8339815191528260178151811061539a5761539a615989565b602002602001015183601a815181106153b5576153b5615989565b602002602001015109826021815181106153d1576153d1615989565b6020026020010181815250507f130b0af8cb2226d79cdbe8c26420b915ed3f9aa76e849b369f5961b83c11e7b07f217a16827bf5635bea2191712d8b913324160913266c8a902321f74198a2731a83600e8151811061543257615432615989565b6020026020010184600f8151811061544c5761544c615989565b6020908102919091010191909152525f80516020615a0e833981519152808360078151811061547d5761547d615989565b60200260200101518460218151811061549857615498615989565b602002602001015109836015815181106154b4576154b4615989565b602002602001015109826010815181106154d0576154d0615989565b6020026020010181815250506154e782600c615642565b50949350505050565b5f6154f9615794565b6155016157b2565b60208083528281018190526040830181905260608301869052608083018590525f80516020615a0e83398151915260a08401525f908260c08560055afa905080615549575f80fd5b50519150505b92915050565b5f805f80516020615a0e83398151915283850990508085146155a95760405162461bcd60e51b8152602060048201526008602482015267191a5d8819985a5b60c21b60448201526064015b60405180910390fd5b835f036155e35760405162461bcd60e51b8152602060048201526008602482015267646976207a65726f60c01b60448201526064016155a0565b6155fa5f80516020615a0e833981519152846159c4565b95945050505050565b8161560f8260026159e3565b8151811061561f5761561f615989565b6020026020010151600103615632575050565b61563e8282600161569f565b5050565b5f8061564f8360206159f6565b61565a9060206159e3565b90505f6156688260406159e3565b9050604085820160608160075afa925082615681575f80fd5b604085830160808160065afa925082615698575f80fd5b5050505050565b805f036156f2575f8383815181106156b9576156b9615989565b60209081029190910101525f836156d18460016159e3565b815181106156e1576156e1615989565b602002602001018181525050505050565b5f6156fe8360206159f6565b6157099060206159e3565b92505f606061571884826159f6565b61572290866159e3565b61572c91906159b1565b9050604085820160608160075afa915081615745575f80fd5b838114615698576157576060826159b1565b90506040602082018601606083880160075afa915081615775575f80fd5b604085820160806020820160065afa91508161578f575f80fd5b615745565b6040518060c001604052806006906020820280368337509192915050565b60405180602001604052806001906020820280368337509192915050565b5f8083601f8401126157e0575f80fd5b5081356001600160401b038111156157f6575f80fd5b6020830191508360208260051b8501011115615810575f80fd5b9250929050565b634e487b7160e01b5f52604160045260245ffd5b5f805f805f6060868803121561583f575f80fd5b85356001600160401b0380821115615855575f80fd5b61586189838a016157d0565b909750955060209150878201358181111561587a575f80fd5b6158868a828b016157d0565b90965094505060408801358181111561589d575f80fd5b8801601f81018a136158ad575f80fd5b8035828111156158bf576158bf615817565b8060051b604051601f19603f830116810181811086821117156158e4576158e4615817565b60405291825284820193508281018501918c831115615901575f80fd5b928501925b8284101561591f57833585529385019392850192615906565b8096505050505050509295509295909350565b602080825282518282018190525f9190848201906040850190845b818110156159695783518352928401929184019160010161594d565b50909695505050505050565b634e487b7160e01b5f52601260045260245ffd5b634e487b7160e01b5f52603260045260245ffd5b634e487b7160e01b5f52601160045260245ffd5b8181038181111561554f5761554f61599d565b5f826159de57634e487b7160e01b5f52601260045260245ffd5b500690565b8082018082111561554f5761554f61599d565b808202811582820484141761554f5761554f61599d56fe30644e72e131a029b85045b68181585d2833e84879b9709143e1f593f000000109226b6e22c6f0ca64ec26aad4c86e715b5f898e5e963f25870e56bbe533e9a2a2646970667358221220bcc836344916aea014583db06e27e9353c06c2d60e3e008e20c01b1035ca378464736f6c63430008180033",
			"opcodes": "PUSH1 0x80 PUSH1 0x40 MSTORE CALLVALUE DUP1 ISZERO PUSH2 0xF JUMPI PUSH0 DUP1 REVERT JUMPDEST POP PUSH2 0x5A83 DUP1 PUSH3 0x1E PUSH0 CODECOPY PUSH0 RETURN INVALID PUSH1 0x80 PUSH1 0x40 MSTORE CALLVALUE DUP1 ISZERO PUSH2 0xF JUMPI PUSH0 DUP1 REVERT JUMPDEST POP PUSH1 0x4 CALLDATASIZE LT PUSH2 0x29 JUMPI PUSH0 CALLDATALOAD PUSH1 0xE0 SHR DUP1 PUSH4 0x96675190 EQ PUSH2 0x2D JUMPI JUMPDEST PUSH0 DUP1 REVERT JUMPDEST PUSH2 0x40 PUSH2 0x3B CALLDATASIZE PUSH1 0x4 PUSH2 0x582B JUMP JUMPDEST PUSH2 0x56 JUMP JUMPDEST PUSH1 0x40 MLOAD PUSH2 0x4D SWAP2 SWAP1 PUSH2 0x5932 JUMP JUMPDEST PUSH1 0x40 MLOAD DUP1 SWAP2 SUB SWAP1 RETURN JUMPDEST PUSH1 0x60 PUSH0 DUP1 MLOAD PUSH1 0x20 PUSH2 0x5A0E DUP4 CODECOPY DUP2 MLOAD SWAP2 MSTORE DUP3 PUSH1 0x4 DUP2 MLOAD DUP2 LT PUSH2 0x79 JUMPI PUSH2 0x79 PUSH2 0x5989 JUMP JUMPDEST PUSH1 0x20 MUL PUSH1 0x20 ADD ADD MLOAD DUP8 DUP8 PUSH1 0x46 DUP2 DUP2 LT PUSH2 0x94 JUMPI PUSH2 0x94 PUSH2 0x5989 JUMP JUMPDEST SWAP1 POP PUSH1 0x20 MUL ADD CALLDATALOAD ADDMOD DUP3 PUSH1 0x29 DUP2 MLOAD DUP2 LT PUSH2 0xAF JUMPI PUSH2 0xAF PUSH2 0x5989 JUMP JUMPDEST PUSH1 0x20 MUL PUSH1 0x20 ADD ADD DUP2 DUP2 MSTORE POP POP PUSH2 0xD3 PUSH0 DUP1 MLOAD PUSH1 0x20 PUSH2 0x5A2E DUP4 CODECOPY DUP2 MLOAD SWAP2 MSTORE PUSH1 0x6 PUSH2 0x54F0 JUMP JUMPDEST DUP3 PUSH1 0x2A DUP2 MLOAD DUP2 LT PUSH2 0xE6 JUMPI PUSH2 0xE6 PUSH2 0x5989 JUMP JUMPDEST PUSH1 0x20 SWAP1 DUP2 MUL SWAP2 SWAP1 SWAP2 ADD ADD MSTORE PUSH0 DUP1 MLOAD PUSH1 0x20 PUSH2 0x5A0E DUP4 CODECOPY DUP2 MLOAD SWAP2 MSTORE DUP3 PUSH1 0x2A DUP2 MLOAD DUP2 LT PUSH2 0x112 JUMPI PUSH2 0x112 PUSH2 0x5989 JUMP JUMPDEST PUSH1 0x20 MUL PUSH1 0x20 ADD ADD MLOAD DUP4 PUSH1 0x27 DUP2 MLOAD DUP2 LT PUSH2 0x12D JUMPI PUSH2 0x12D PUSH2 0x5989 JUMP JUMPDEST PUSH1 0x20 MUL PUSH1 0x20 ADD ADD MLOAD MULMOD DUP3 PUSH1 0x2A DUP2 MLOAD DUP2 LT PUSH2 0x149 JUMPI PUSH2 0x149 PUSH2 0x5989 JUMP JUMPDEST PUSH1 0x20 SWAP1 DUP2 MUL SWAP2 SWAP1 SWAP2 ADD ADD MSTORE PUSH0 DUP1 MLOAD PUSH1 0x20 PUSH2 0x5A0E DUP4 CODECOPY DUP2 MLOAD SWAP2 MSTORE DUP1 PUSH0 DUP1 MLOAD PUSH1 0x20 PUSH2 0x5A0E DUP4 CODECOPY DUP2 MLOAD SWAP2 MSTORE DUP9 DUP9 PUSH1 0x6A DUP2 DUP2 LT PUSH2 0x184 JUMPI PUSH2 0x184 PUSH2 0x5989 JUMP JUMPDEST SWAP1 POP PUSH1 0x20 MUL ADD CALLDATALOAD PUSH0 DUP1 MLOAD PUSH1 0x20 PUSH2 0x5A0E DUP4 CODECOPY DUP2 MLOAD SWAP2 MSTORE DUP1 PUSH2 0x1A6 JUMPI PUSH2 0x1A6 PUSH2 0x5975 JUMP JUMPDEST DUP7 PUSH1 0x2A DUP2 MLOAD DUP2 LT PUSH2 0x1B9 JUMPI PUSH2 0x1B9 PUSH2 0x5989 JUMP JUMPDEST PUSH1 0x20 MUL PUSH1 0x20 ADD ADD MLOAD DUP8 PUSH1 0x29 DUP2 MLOAD DUP2 LT PUSH2 0x1D4 JUMPI PUSH2 0x1D4 PUSH2 0x5989 JUMP JUMPDEST PUSH1 0x20 MUL PUSH1 0x20 ADD ADD MLOAD ADDMOD MULMOD PUSH0 DUP1 MLOAD PUSH1 0x20 PUSH2 0x5A0E DUP4 CODECOPY DUP2 MLOAD SWAP2 MSTORE DUP1 DUP7 PUSH1 0x2A DUP2 MLOAD DUP2 LT PUSH2 0x200 JUMPI PUSH2 0x200 PUSH2 0x5989 JUMP JUMPDEST PUSH1 0x20 MUL PUSH1 0x20 ADD ADD MLOAD PUSH0 DUP1 MLOAD PUSH1 0x20 PUSH2 0x5A2E DUP4 CODECOPY DUP2 MLOAD SWAP2 MSTORE MULMOD DUP7 PUSH1 0x28 DUP2 MLOAD DUP2 LT PUSH2 0x22A JUMPI PUSH2 0x22A PUSH2 0x5989 JUMP JUMPDEST PUSH1 0x20 MUL PUSH1 0x20 ADD ADD MLOAD ADDMOD MULMOD PUSH2 0x24B SWAP1 PUSH0 DUP1 MLOAD PUSH1 0x20 PUSH2 0x5A0E DUP4 CODECOPY DUP2 MLOAD SWAP2 MSTORE PUSH2 0x59B1 JUMP JUMPDEST PUSH0 DUP1 MLOAD PUSH1 0x20 PUSH2 0x5A0E DUP4 CODECOPY DUP2 MLOAD SWAP2 MSTORE DUP1 DUP10 DUP10 PUSH1 0x6B DUP2 DUP2 LT PUSH2 0x26D JUMPI PUSH2 0x26D PUSH2 0x5989 JUMP JUMPDEST SWAP1 POP PUSH1 0x20 MUL ADD CALLDATALOAD PUSH0 DUP1 MLOAD PUSH1 0x20 PUSH2 0x5A0E DUP4 CODECOPY DUP2 MLOAD SWAP2 MSTORE DUP1 PUSH2 0x28F JUMPI PUSH2 0x28F PUSH2 0x5975 JUMP JUMPDEST PUSH0 DUP1 MLOAD PUSH1 0x20 PUSH2 0x5A0E DUP4 CODECOPY DUP2 MLOAD SWAP2 MSTORE DUP13 DUP13 PUSH1 0x5E DUP2 DUP2 LT PUSH2 0x2B0 JUMPI PUSH2 0x2B0 PUSH2 0x5989 JUMP JUMPDEST SWAP1 POP PUSH1 0x20 MUL ADD CALLDATALOAD DUP10 PUSH1 0x3 DUP2 MLOAD DUP2 LT PUSH2 0x2CA JUMPI PUSH2 0x2CA PUSH2 0x5989 JUMP JUMPDEST PUSH1 0x20 MUL PUSH1 0x20 ADD ADD MLOAD MULMOD DUP9 PUSH1 0x29 DUP2 MLOAD DUP2 LT PUSH2 0x2E6 JUMPI PUSH2 0x2E6 PUSH2 0x5989 JUMP JUMPDEST PUSH1 0x20 MUL PUSH1 0x20 ADD ADD MLOAD ADDMOD MULMOD PUSH0 DUP1 MLOAD PUSH1 0x20 PUSH2 0x5A0E DUP4 CODECOPY DUP2 MLOAD SWAP2 MSTORE DUP1 DUP12 DUP12 PUSH1 0x5F DUP2 DUP2 LT PUSH2 0x312 JUMPI PUSH2 0x312 PUSH2 0x5989 JUMP JUMPDEST SWAP1 POP PUSH1 0x20 MUL ADD CALLDATALOAD DUP9 PUSH1 0x3 DUP2 MLOAD DUP2 LT PUSH2 0x32C JUMPI PUSH2 0x32C PUSH2 0x5989 JUMP JUMPDEST PUSH1 0x20 MUL PUSH1 0x20 ADD ADD MLOAD MULMOD DUP8 PUSH1 0x28 DUP2 MLOAD DUP2 LT PUSH2 0x348 JUMPI PUSH2 0x348 PUSH2 0x5989 JUMP JUMPDEST PUSH1 0x20 MUL PUSH1 0x20 ADD ADD MLOAD ADDMOD MULMOD ADDMOD DUP3 PUSH1 0x28 DUP2 MLOAD DUP2 LT PUSH2 0x366 JUMPI PUSH2 0x366 PUSH2 0x5989 JUMP JUMPDEST PUSH1 0x20 SWAP1 DUP2 MUL SWAP2 SWAP1 SWAP2 ADD ADD MSTORE PUSH0 DUP1 MLOAD PUSH1 0x20 PUSH2 0x5A0E DUP4 CODECOPY DUP2 MLOAD SWAP2 MSTORE DUP3 PUSH1 0x5 DUP2 MLOAD DUP2 LT PUSH2 0x392 JUMPI PUSH2 0x392 PUSH2 0x5989 JUMP JUMPDEST PUSH1 0x20 MUL PUSH1 0x20 ADD ADD MLOAD PUSH0 DUP1 MLOAD PUSH1 0x20 PUSH2 0x5A0E DUP4 CODECOPY DUP2 MLOAD SWAP2 MSTORE DUP1 PUSH2 0x3B5 JUMPI PUSH2 0x3B5 PUSH2 0x5975 JUMP JUMPDEST PUSH0 DUP1 MLOAD PUSH1 0x20 PUSH2 0x5A0E DUP4 CODECOPY DUP2 MLOAD SWAP2 MSTORE DUP6 PUSH1 0x26 DUP2 MLOAD DUP2 LT PUSH2 0x3D6 JUMPI PUSH2 0x3D6 PUSH2 0x5989 JUMP JUMPDEST PUSH1 0x20 MUL PUSH1 0x20 ADD ADD MLOAD DUP7 PUSH1 0x28 DUP2 MLOAD DUP2 LT PUSH2 0x3F1 JUMPI PUSH2 0x3F1 PUSH2 0x5989 JUMP JUMPDEST PUSH1 0x20 MUL PUSH1 0x20 ADD ADD MLOAD MULMOD PUSH0 DUP1 MLOAD PUSH1 0x20 PUSH2 0x5A0E DUP4 CODECOPY DUP2 MLOAD SWAP2 MSTORE DUP7 PUSH1 0x5 DUP2 MLOAD DUP2 LT PUSH2 0x41B JUMPI PUSH2 0x41B PUSH2 0x5989 JUMP JUMPDEST PUSH1 0x20 MUL PUSH1 0x20 ADD ADD MLOAD PUSH0 DUP1 MLOAD PUSH1 0x20 PUSH2 0x5A0E DUP4 CODECOPY DUP2 MLOAD SWAP2 MSTORE DUP1 PUSH2 0x43E JUMPI PUSH2 0x43E PUSH2 0x5975 JUMP JUMPDEST PUSH0 DUP1 MLOAD PUSH1 0x20 PUSH2 0x5A0E DUP4 CODECOPY DUP2 MLOAD SWAP2 MSTORE DUP10 PUSH1 0x26 DUP2 MLOAD DUP2 LT PUSH2 0x45F JUMPI PUSH2 0x45F PUSH2 0x5989 JUMP JUMPDEST PUSH1 0x20 MUL PUSH1 0x20 ADD ADD MLOAD DUP11 PUSH1 0x22 DUP2 MLOAD DUP2 LT PUSH2 0x47A JUMPI PUSH2 0x47A PUSH2 0x5989 JUMP JUMPDEST PUSH1 0x20 MUL PUSH1 0x20 ADD ADD MLOAD MULMOD DUP10 PUSH1 0x1F DUP2 MLOAD DUP2 LT PUSH2 0x496 JUMPI PUSH2 0x496 PUSH2 0x5989 JUMP JUMPDEST PUSH1 0x20 MUL PUSH1 0x20 ADD ADD MLOAD ADDMOD MULMOD ADDMOD MULMOD DUP3 PUSH1 0x1F DUP2 MLOAD DUP2 LT PUSH2 0x4B5 JUMPI PUSH2 0x4B5 PUSH2 0x5989 JUMP JUMPDEST PUSH1 0x20 SWAP1 DUP2 MUL SWAP2 SWAP1 SWAP2 ADD ADD MSTORE PUSH0 DUP1 MLOAD PUSH1 0x20 PUSH2 0x5A0E DUP4 CODECOPY DUP2 MLOAD SWAP2 MSTORE DUP3 PUSH1 0x4 DUP2 MLOAD DUP2 LT PUSH2 0x4E1 JUMPI PUSH2 0x4E1 PUSH2 0x5989 JUMP JUMPDEST PUSH1 0x20 MUL PUSH1 0x20 ADD ADD MLOAD DUP8 DUP8 PUSH1 0x38 DUP2 DUP2 LT PUSH2 0x4FC JUMPI PUSH2 0x4FC PUSH2 0x5989 JUMP JUMPDEST SWAP1 POP PUSH1 0x20 MUL ADD CALLDATALOAD ADDMOD DUP3 PUSH1 0x22 DUP2 MLOAD DUP2 LT PUSH2 0x517 JUMPI PUSH2 0x517 PUSH2 0x5989 JUMP JUMPDEST PUSH1 0x20 MUL PUSH1 0x20 ADD ADD DUP2 DUP2 MSTORE POP POP PUSH2 0x53B PUSH0 DUP1 MLOAD PUSH1 0x20 PUSH2 0x5A2E DUP4 CODECOPY DUP2 MLOAD SWAP2 MSTORE PUSH1 0x8 PUSH2 0x54F0 JUMP JUMPDEST DUP3 PUSH1 0x28 DUP2 MLOAD DUP2 LT PUSH2 0x54E JUMPI PUSH2 0x54E PUSH2 0x5989 JUMP JUMPDEST PUSH1 0x20 SWAP1 DUP2 MUL SWAP2 SWAP1 SWAP2 ADD ADD MSTORE PUSH0 DUP1 MLOAD PUSH1 0x20 PUSH2 0x5A0E DUP4 CODECOPY DUP2 MLOAD SWAP2 MSTORE DUP3 PUSH1 0x26 DUP2 MLOAD DUP2 LT PUSH2 0x57A JUMPI PUSH2 0x57A PUSH2 0x5989 JUMP JUMPDEST PUSH1 0x20 MUL PUSH1 0x20 ADD ADD MLOAD PUSH0 DUP1 MLOAD PUSH1 0x20 PUSH2 0x5A0E DUP4 CODECOPY DUP2 MLOAD SWAP2 MSTORE DUP1 PUSH2 0x59D JUMPI PUSH2 0x59D PUSH2 0x5975 JUMP JUMPDEST PUSH0 DUP1 MLOAD PUSH1 0x20 PUSH2 0x5A0E DUP4 CODECOPY DUP2 MLOAD SWAP2 MSTORE DUP10 DUP10 PUSH1 0x6D DUP2 DUP2 LT PUSH2 0x5BE JUMPI PUSH2 0x5BE PUSH2 0x5989 JUMP JUMPDEST SWAP1 POP PUSH1 0x20 MUL ADD CALLDATALOAD PUSH0 DUP1 MLOAD PUSH1 0x20 PUSH2 0x5A0E DUP4 CODECOPY DUP2 MLOAD SWAP2 MSTORE DUP1 PUSH2 0x5E0 JUMPI PUSH2 0x5E0 PUSH2 0x5975 JUMP JUMPDEST PUSH0 DUP1 MLOAD PUSH1 0x20 PUSH2 0x5A0E DUP4 CODECOPY DUP2 MLOAD SWAP2 MSTORE DUP9 PUSH1 0x28 DUP2 MLOAD DUP2 LT PUSH2 0x601 JUMPI PUSH2 0x601 PUSH2 0x5989 JUMP JUMPDEST PUSH1 0x20 MUL PUSH1 0x20 ADD ADD MLOAD DUP10 PUSH1 0x27 DUP2 MLOAD DUP2 LT PUSH2 0x61C JUMPI PUSH2 0x61C PUSH2 0x5989 JUMP JUMPDEST PUSH1 0x20 MUL PUSH1 0x20 ADD ADD MLOAD MULMOD DUP9 PUSH1 0x22 DUP2 MLOAD DUP2 LT PUSH2 0x638 JUMPI PUSH2 0x638 PUSH2 0x5989 JUMP JUMPDEST PUSH1 0x20 MUL PUSH1 0x20 ADD ADD MLOAD ADDMOD MULMOD PUSH2 0x659 SWAP1 PUSH0 DUP1 MLOAD PUSH1 0x20 PUSH2 0x5A0E DUP4 CODECOPY DUP2 MLOAD SWAP2 MSTORE PUSH2 0x59B1 JUMP JUMPDEST PUSH0 DUP1 MLOAD PUSH1 0x20 PUSH2 0x5A0E DUP4 CODECOPY DUP2 MLOAD SWAP2 MSTORE DUP11 DUP11 PUSH1 0x6E DUP2 DUP2 LT PUSH2 0x67A JUMPI PUSH2 0x67A PUSH2 0x5989 JUMP JUMPDEST SWAP1 POP PUSH1 0x20 MUL ADD CALLDATALOAD PUSH0 DUP1 MLOAD PUSH1 0x20 PUSH2 0x5A0E DUP4 CODECOPY DUP2 MLOAD SWAP2 MSTORE DUP1 PUSH2 0x69C JUMPI PUSH2 0x69C PUSH2 0x5975 JUMP JUMPDEST PUSH0 DUP1 MLOAD PUSH1 0x20 PUSH2 0x5A0E DUP4 CODECOPY DUP2 MLOAD SWAP2 MSTORE DUP14 DUP14 PUSH1 0x60 DUP2 DUP2 LT PUSH2 0x6BD JUMPI PUSH2 0x6BD PUSH2 0x5989 JUMP JUMPDEST SWAP1 POP PUSH1 0x20 MUL ADD CALLDATALOAD DUP11 PUSH1 0x3 DUP2 MLOAD DUP2 LT PUSH2 0x6D7 JUMPI PUSH2 0x6D7 PUSH2 0x5989 JUMP JUMPDEST PUSH1 0x20 MUL PUSH1 0x20 ADD ADD MLOAD MULMOD DUP10 PUSH1 0x22 DUP2 MLOAD DUP2 LT PUSH2 0x6F3 JUMPI PUSH2 0x6F3 PUSH2 0x5989 JUMP JUMPDEST PUSH1 0x20 MUL PUSH1 0x20 ADD ADD MLOAD ADDMOD MULMOD ADDMOD MULMOD DUP3 PUSH1 0x22 DUP2 MLOAD DUP2 LT PUSH2 0x712 JUMPI PUSH2 0x712 PUSH2 0x5989 JUMP JUMPDEST PUSH1 0x20 SWAP1 DUP2 MUL SWAP2 SWAP1 SWAP2 ADD ADD MSTORE PUSH0 DUP1 MLOAD PUSH1 0x20 PUSH2 0x5A0E DUP4 CODECOPY DUP2 MLOAD SWAP2 MSTORE DUP1 PUSH0 DUP1 MLOAD PUSH1 0x20 PUSH2 0x5A0E DUP4 CODECOPY DUP2 MLOAD SWAP2 MSTORE DUP9 DUP9 PUSH1 0x6F DUP2 DUP2 LT PUSH2 0x74D JUMPI PUSH2 0x74D PUSH2 0x5989 JUMP JUMPDEST SWAP1 POP PUSH1 0x20 MUL ADD CALLDATALOAD PUSH0 DUP1 MLOAD PUSH1 0x20 PUSH2 0x5A0E DUP4 CODECOPY DUP2 MLOAD SWAP2 MSTORE PUSH2 0x76C SWAP2 SWAP1 PUSH2 0x59B1 JUMP JUMPDEST PUSH0 DUP1 MLOAD PUSH1 0x20 PUSH2 0x5A0E DUP4 CODECOPY DUP2 MLOAD SWAP2 MSTORE DUP11 DUP11 PUSH1 0x6F DUP2 DUP2 LT PUSH2 0x78D JUMPI PUSH2 0x78D PUSH2 0x5989 JUMP JUMPDEST SWAP1 POP PUSH1 0x20 MUL ADD CALLDATALOAD DUP12 DUP12 PUSH1 0x6F DUP2 DUP2 LT PUSH2 0x7A7 JUMPI PUSH2 0x7A7 PUSH2 0x5989 JUMP JUMPDEST SWAP1 POP PUSH1 0x20 MUL ADD CALLDATALOAD MULMOD ADDMOD DUP5 PUSH1 0x21 DUP2 MLOAD DUP2 LT PUSH2 0x7C3 JUMPI PUSH2 0x7C3 PUSH2 0x5989 JUMP JUMPDEST PUSH1 0x20 MUL PUSH1 0x20 ADD ADD MLOAD MULMOD PUSH0 DUP1 MLOAD PUSH1 0x20 PUSH2 0x5A0E DUP4 CODECOPY DUP2 MLOAD SWAP2 MSTORE DUP5 PUSH1 0x5 DUP2 MLOAD DUP2 LT PUSH2 0x7ED JUMPI PUSH2 0x7ED PUSH2 0x5989 JUMP JUMPDEST PUSH1 0x20 MUL PUSH1 0x20 ADD ADD MLOAD PUSH0 DUP1 MLOAD PUSH1 0x20 PUSH2 0x5A0E DUP4 CODECOPY DUP2 MLOAD SWAP2 MSTORE DUP1 PUSH2 0x810 JUMPI PUSH2 0x810 PUSH2 0x5975 JUMP JUMPDEST PUSH0 DUP1 MLOAD PUSH1 0x20 PUSH2 0x5A0E DUP4 CODECOPY DUP2 MLOAD SWAP2 MSTORE DUP1 DUP13 DUP13 PUSH1 0x6F DUP2 DUP2 LT PUSH2 0x832 JUMPI PUSH2 0x832 PUSH2 0x5989 JUMP JUMPDEST SWAP1 POP PUSH1 0x20 MUL ADD CALLDATALOAD PUSH0 DUP1 MLOAD PUSH1 0x20 PUSH2 0x5A0E DUP4 CODECOPY DUP2 MLOAD SWAP2 MSTORE PUSH2 0x851 SWAP2 SWAP1 PUSH2 0x59B1 JUMP JUMPDEST PUSH1 0x1 ADDMOD DUP9 PUSH1 0x25 DUP2 MLOAD DUP2 LT PUSH2 0x867 JUMPI PUSH2 0x867 PUSH2 0x5989 JUMP JUMPDEST PUSH1 0x20 MUL PUSH1 0x20 ADD ADD MLOAD MULMOD PUSH0 DUP1 MLOAD PUSH1 0x20 PUSH2 0x5A0E DUP4 CODECOPY DUP2 MLOAD SWAP2 MSTORE DUP9 PUSH1 0x5 DUP2 MLOAD DUP2 LT PUSH2 0x891 JUMPI PUSH2 0x891 PUSH2 0x5989 JUMP JUMPDEST PUSH1 0x20 MUL PUSH1 0x20 ADD ADD MLOAD PUSH0 DUP1 MLOAD PUSH1 0x20 PUSH2 0x5A0E DUP4 CODECOPY DUP2 MLOAD SWAP2 MSTORE DUP1 PUSH2 0x8B4 JUMPI PUSH2 0x8B4 PUSH2 0x5975 JUMP JUMPDEST DUP11 PUSH1 0x22 DUP2 MLOAD DUP2 LT PUSH2 0x8C7 JUMPI PUSH2 0x8C7 PUSH2 0x5989 JUMP JUMPDEST PUSH1 0x20 MUL PUSH1 0x20 ADD ADD MLOAD DUP12 PUSH1 0x1F DUP2 MLOAD DUP2 LT PUSH2 0x8E2 JUMPI PUSH2 0x8E2 PUSH2 0x5989 JUMP JUMPDEST PUSH1 0x20 MUL PUSH1 0x20 ADD ADD MLOAD ADDMOD MULMOD ADDMOD MULMOD ADDMOD DUP3 PUSH1 0x1F DUP2 MLOAD DUP2 LT PUSH2 0x902 JUMPI PUSH2 0x902 PUSH2 0x5989 JUMP JUMPDEST PUSH1 0x20 SWAP1 DUP2 MUL SWAP2 SWAP1 SWAP2 ADD ADD MSTORE PUSH0 DUP1 MLOAD PUSH1 0x20 PUSH2 0x5A0E DUP4 CODECOPY DUP2 MLOAD SWAP2 MSTORE DUP3 PUSH1 0x4 DUP2 MLOAD DUP2 LT PUSH2 0x92E JUMPI PUSH2 0x92E PUSH2 0x5989 JUMP JUMPDEST PUSH1 0x20 MUL PUSH1 0x20 ADD ADD MLOAD PUSH0 DUP1 MLOAD PUSH1 0x20 PUSH2 0x5A0E DUP4 CODECOPY DUP2 MLOAD SWAP2 MSTORE DUP1 PUSH2 0x951 JUMPI PUSH2 0x951 PUSH2 0x5975 JUMP JUMPDEST DUP9 DUP9 PUSH1 0x53 DUP2 DUP2 LT PUSH2 0x964 JUMPI PUSH2 0x964 PUSH2 0x5989 JUMP JUMPDEST SWAP1 POP PUSH1 0x20 MUL ADD CALLDATALOAD PUSH0 DUP1 MLOAD PUSH1 0x20 PUSH2 0x5A0E DUP4 CODECOPY DUP2 MLOAD SWAP2 MSTORE DUP1 PUSH2 0x986 JUMPI PUSH2 0x986 PUSH2 0x5975 JUMP JUMPDEST DUP7 PUSH1 0x2 DUP2 MLOAD DUP2 LT PUSH2 0x999 JUMPI PUSH2 0x999 PUSH2 0x5989 JUMP JUMPDEST PUSH1 0x20 MUL PUSH1 0x20 ADD ADD MLOAD DUP12 DUP12 PUSH1 0x52 DUP2 DUP2 LT PUSH2 0x9B4 JUMPI PUSH2 0x9B4 PUSH2 0x5989 JUMP JUMPDEST SWAP1 POP PUSH1 0x20 MUL ADD CALLDATALOAD MULMOD ADDMOD ADDMOD DUP3 PUSH1 0x22 DUP2 MLOAD DUP2 LT PUSH2 0x9D1 JUMPI PUSH2 0x9D1 PUSH2 0x5989 JUMP JUMPDEST PUSH1 0x20 SWAP1 DUP2 MUL SWAP2 SWAP1 SWAP2 ADD ADD MSTORE PUSH0 DUP1 MLOAD PUSH1 0x20 PUSH2 0x5A0E DUP4 CODECOPY DUP2 MLOAD SWAP2 MSTORE DUP3 PUSH1 0x22 DUP2 MLOAD DUP2 LT PUSH2 0x9FD JUMPI PUSH2 0x9FD PUSH2 0x5989 JUMP JUMPDEST PUSH1 0x20 MUL PUSH1 0x20 ADD ADD MLOAD PUSH0 DUP1 MLOAD PUSH1 0x20 PUSH2 0x5A0E DUP4 CODECOPY DUP2 MLOAD SWAP2 MSTORE DUP1 PUSH2 0xA20 JUMPI PUSH2 0xA20 PUSH2 0x5975 JUMP JUMPDEST PUSH0 DUP1 MLOAD PUSH1 0x20 PUSH2 0x5A0E DUP4 CODECOPY DUP2 MLOAD SWAP2 MSTORE DUP6 PUSH1 0x3 DUP2 MLOAD DUP2 LT PUSH2 0xA41 JUMPI PUSH2 0xA41 PUSH2 0x5989 JUMP JUMPDEST PUSH1 0x20 MUL PUSH1 0x20 ADD ADD MLOAD PUSH0 DUP1 MLOAD PUSH1 0x20 PUSH2 0x5A0E DUP4 CODECOPY DUP2 MLOAD SWAP2 MSTORE DUP1 PUSH2 0xA64 JUMPI PUSH2 0xA64 PUSH2 0x5975 JUMP JUMPDEST DUP12 DUP12 PUSH1 0x40 DUP2 DUP2 LT PUSH2 0xA77 JUMPI PUSH2 0xA77 PUSH2 0x5989 JUMP JUMPDEST SWAP1 POP PUSH1 0x20 MUL ADD CALLDATALOAD PUSH0 DUP1 MLOAD PUSH1 0x20 PUSH2 0x5A0E DUP4 CODECOPY DUP2 MLOAD SWAP2 MSTORE DUP1 PUSH2 0xA99 JUMPI PUSH2 0xA99 PUSH2 0x5975 JUMP JUMPDEST DUP10 PUSH1 0x2 DUP2 MLOAD DUP2 LT PUSH2 0xAAC JUMPI PUSH2 0xAAC PUSH2 0x5989 JUMP JUMPDEST PUSH1 0x20 MUL PUSH1 0x20 ADD ADD MLOAD DUP15 DUP15 PUSH1 0x51 DUP2 DUP2 LT PUSH2 0xAC7 JUMPI PUSH2 0xAC7 PUSH2 0x5989 JUMP JUMPDEST SWAP1 POP PUSH1 0x20 MUL ADD CALLDATALOAD MULMOD ADDMOD ADDMOD DUP10 DUP10 PUSH1 0x6F DUP2 DUP2 LT PUSH2 0xAE4 JUMPI PUSH2 0xAE4 PUSH2 0x5989 JUMP JUMPDEST SWAP1 POP PUSH1 0x20 MUL ADD CALLDATALOAD MULMOD MULMOD DUP3 PUSH1 0x27 DUP2 MLOAD DUP2 LT PUSH2 0xB00 JUMPI PUSH2 0xB00 PUSH2 0x5989 JUMP JUMPDEST PUSH1 0x20 SWAP1 DUP2 MUL SWAP2 SWAP1 SWAP2 ADD ADD MSTORE PUSH0 DUP1 MLOAD PUSH1 0x20 PUSH2 0x5A0E DUP4 CODECOPY DUP2 MLOAD SWAP2 MSTORE DUP3 PUSH1 0x26 DUP2 MLOAD DUP2 LT PUSH2 0xB2C JUMPI PUSH2 0xB2C PUSH2 0x5989 JUMP JUMPDEST PUSH1 0x20 MUL PUSH1 0x20 ADD ADD MLOAD PUSH0 DUP1 MLOAD PUSH1 0x20 PUSH2 0x5A0E DUP4 CODECOPY DUP2 MLOAD SWAP2 MSTORE DUP1 PUSH2 0xB4F JUMPI PUSH2 0xB4F PUSH2 0x5975 JUMP JUMPDEST DUP5 PUSH1 0x27 DUP2 MLOAD DUP2 LT PUSH2 0xB62 JUMPI PUSH2 0xB62 PUSH2 0x5989 JUMP JUMPDEST PUSH1 0x20 MUL PUSH1 0x20 ADD ADD MLOAD PUSH0 DUP1 MLOAD PUSH1 0x20 PUSH2 0x5A0E DUP4 CODECOPY DUP2 MLOAD SWAP2 MSTORE PUSH2 0xB82 SWAP2 SWAP1 PUSH2 0x59B1 JUMP JUMPDEST PUSH0 DUP1 MLOAD PUSH1 0x20 PUSH2 0x5A0E DUP4 CODECOPY DUP2 MLOAD SWAP2 MSTORE DUP1 DUP8 PUSH1 0x4 DUP2 MLOAD DUP2 LT PUSH2 0xBA4 JUMPI PUSH2 0xBA4 PUSH2 0x5989 JUMP JUMPDEST PUSH1 0x20 MUL PUSH1 0x20 ADD ADD MLOAD DUP13 DUP13 PUSH1 0x73 DUP2 DUP2 LT PUSH2 0xBBF JUMPI PUSH2 0xBBF PUSH2 0x5989 JUMP JUMPDEST SWAP1 POP PUSH1 0x20 MUL ADD CALLDATALOAD ADDMOD PUSH0 DUP1 MLOAD PUSH1 0x20 PUSH2 0x5A0E DUP4 CODECOPY DUP2 MLOAD SWAP2 MSTORE DUP1 DUP10 PUSH1 0x3 DUP2 MLOAD DUP2 LT PUSH2 0xBE9 JUMPI PUSH2 0xBE9 PUSH2 0x5989 JUMP JUMPDEST PUSH1 0x20 MUL PUSH1 0x20 ADD ADD MLOAD DUP15 DUP15 PUSH1 0x71 DUP2 DUP2 LT PUSH2 0xC04 JUMPI PUSH2 0xC04 PUSH2 0x5989 JUMP JUMPDEST SWAP1 POP PUSH1 0x20 MUL ADD CALLDATALOAD ADDMOD DUP14 DUP14 PUSH1 0x70 DUP2 DUP2 LT PUSH2 0xC1F JUMPI PUSH2 0xC1F PUSH2 0x5989 JUMP JUMPDEST SWAP1 POP PUSH1 0x20 MUL ADD CALLDATALOAD MULMOD MULMOD ADDMOD MULMOD DUP3 PUSH1 0x27 DUP2 MLOAD DUP2 LT PUSH2 0xC3D JUMPI PUSH2 0xC3D PUSH2 0x5989 JUMP JUMPDEST PUSH1 0x20 SWAP1 DUP2 MUL SWAP2 SWAP1 SWAP2 ADD ADD MSTORE PUSH0 DUP1 MLOAD PUSH1 0x20 PUSH2 0x5A0E DUP4 CODECOPY DUP2 MLOAD SWAP2 MSTORE DUP7 DUP7 PUSH1 0x73 DUP2 DUP2 LT PUSH2 0xC69 JUMPI PUSH2 0xC69 PUSH2 0x5989 JUMP JUMPDEST SWAP1 POP PUSH1 0x20 MUL ADD CALLDATALOAD PUSH0 DUP1 MLOAD PUSH1 0x20 PUSH2 0x5A0E DUP4 CODECOPY DUP2 MLOAD SWAP2 MSTORE PUSH2 0xC88 SWAP2 SWAP1 PUSH2 0x59B1 JUMP JUMPDEST DUP8 DUP8 PUSH1 0x71 DUP2 DUP2 LT PUSH2 0xC9B JUMPI PUSH2 0xC9B PUSH2 0x5989 JUMP JUMPDEST SWAP1 POP PUSH1 0x20 MUL ADD CALLDATALOAD ADDMOD DUP3 PUSH1 0x28 DUP2 MLOAD DUP2 LT PUSH2 0xCB6 JUMPI PUSH2 0xCB6 PUSH2 0x5989 JUMP JUMPDEST PUSH1 0x20 SWAP1 DUP2 MUL SWAP2 SWAP1 SWAP2 ADD ADD MSTORE PUSH0 DUP1 MLOAD PUSH1 0x20 PUSH2 0x5A0E DUP4 CODECOPY DUP2 MLOAD SWAP2 MSTORE DUP3 PUSH1 0x5 DUP2 MLOAD DUP2 LT PUSH2 0xCE2 JUMPI PUSH2 0xCE2 PUSH2 0x5989 JUMP JUMPDEST PUSH1 0x20 MUL PUSH1 0x20 ADD ADD MLOAD PUSH0 DUP1 MLOAD PUSH1 0x20 PUSH2 0x5A0E DUP4 CODECOPY DUP2 MLOAD SWAP2 MSTORE DUP1 PUSH2 0xD05 JUMPI PUSH2 0xD05 PUSH2 0x5975 JUMP JUMPDEST PUSH0 DUP1 MLOAD PUSH1 0x20 PUSH2 0x5A0E DUP4 CODECOPY DUP2 MLOAD SWAP2 MSTORE DUP6 PUSH1 0x28 DUP2 MLOAD DUP2 LT PUSH2 0xD26 JUMPI PUSH2 0xD26 PUSH2 0x5989 JUMP JUMPDEST PUSH1 0x20 MUL PUSH1 0x20 ADD ADD MLOAD DUP7 PUSH1 0x25 DUP2 MLOAD DUP2 LT PUSH2 0xD41 JUMPI PUSH2 0xD41 PUSH2 0x5989 JUMP JUMPDEST PUSH1 0x20 MUL PUSH1 0x20 ADD ADD MLOAD MULMOD PUSH0 DUP1 MLOAD PUSH1 0x20 PUSH2 0x5A0E DUP4 CODECOPY DUP2 MLOAD SWAP2 MSTORE DUP7 PUSH1 0x5 DUP2 MLOAD DUP2 LT PUSH2 0xD6B JUMPI PUSH2 0xD6B PUSH2 0x5989 JUMP JUMPDEST PUSH1 0x20 MUL PUSH1 0x20 ADD ADD MLOAD PUSH0 DUP1 MLOAD PUSH1 0x20 PUSH2 0x5A0E DUP4 CODECOPY DUP2 MLOAD SWAP2 MSTORE DUP1 PUSH2 0xD8E JUMPI PUSH2 0xD8E PUSH2 0x5975 JUMP JUMPDEST DUP9 PUSH1 0x27 DUP2 MLOAD DUP2 LT PUSH2 0xDA1 JUMPI PUSH2 0xDA1 PUSH2 0x5989 JUMP JUMPDEST PUSH1 0x20 MUL PUSH1 0x20 ADD ADD MLOAD PUSH0 DUP1 MLOAD PUSH1 0x20 PUSH2 0x5A0E DUP4 CODECOPY DUP2 MLOAD SWAP2 MSTORE DUP1 PUSH2 0xDC4 JUMPI PUSH2 0xDC4 PUSH2 0x5975 JUMP JUMPDEST DUP11 PUSH1 0x5 DUP2 MLOAD DUP2 LT PUSH2 0xDD7 JUMPI PUSH2 0xDD7 PUSH2 0x5989 JUMP JUMPDEST PUSH1 0x20 MUL PUSH1 0x20 ADD ADD MLOAD DUP12 PUSH1 0x1F DUP2 MLOAD DUP2 LT PUSH2 0xDF2 JUMPI PUSH2 0xDF2 PUSH2 0x5989 JUMP JUMPDEST PUSH1 0x20 MUL PUSH1 0x20 ADD ADD MLOAD MULMOD ADDMOD MULMOD ADDMOD MULMOD DUP3 PUSH1 0x1F DUP2 MLOAD DUP2 LT PUSH2 0xE12 JUMPI PUSH2 0xE12 PUSH2 0x5989 JUMP JUMPDEST PUSH1 0x20 SWAP1 DUP2 MUL SWAP2 SWAP1 SWAP2 ADD ADD MSTORE PUSH0 DUP1 MLOAD PUSH1 0x20 PUSH2 0x5A0E DUP4 CODECOPY DUP2 MLOAD SWAP2 MSTORE DUP3 PUSH1 0x5 DUP2 MLOAD DUP2 LT PUSH2 0xE3E JUMPI PUSH2 0xE3E PUSH2 0x5989 JUMP JUMPDEST PUSH1 0x20 MUL PUSH1 0x20 ADD ADD MLOAD PUSH0 DUP1 MLOAD PUSH1 0x20 PUSH2 0x5A0E DUP4 CODECOPY DUP2 MLOAD SWAP2 MSTORE DUP1 PUSH2 0xE61 JUMPI PUSH2 0xE61 PUSH2 0x5975 JUMP JUMPDEST PUSH0 DUP1 MLOAD PUSH1 0x20 PUSH2 0x5A0E DUP4 CODECOPY DUP2 MLOAD SWAP2 MSTORE DUP6 PUSH1 0x26 DUP2 MLOAD DUP2 LT PUSH2 0xE82 JUMPI PUSH2 0xE82 PUSH2 0x5989 JUMP JUMPDEST PUSH1 0x20 MUL PUSH1 0x20 ADD ADD MLOAD PUSH0 DUP1 MLOAD PUSH1 0x20 PUSH2 0x5A0E DUP4 CODECOPY DUP2 MLOAD SWAP2 MSTORE DUP1 PUSH2 0xEA5 JUMPI PUSH2 0xEA5 PUSH2 0x5975 JUMP JUMPDEST PUSH0 DUP1 MLOAD PUSH1 0x20 PUSH2 0x5A0E DUP4 CODECOPY DUP2 MLOAD SWAP2 MSTORE DUP13 DUP13 PUSH1 0x72 DUP2 DUP2 LT PUSH2 0xEC6 JUMPI PUSH2 0xEC6 PUSH2 0x5989 JUMP JUMPDEST SWAP1 POP PUSH1 0x20 MUL ADD CALLDATALOAD PUSH0 DUP1 MLOAD PUSH1 0x20 PUSH2 0x5A0E DUP4 CODECOPY DUP2 MLOAD SWAP2 MSTORE PUSH2 0xEE5 SWAP2 SWAP1 PUSH2 0x59B1 JUMP JUMPDEST DUP14 DUP14 PUSH1 0x71 DUP2 DUP2 LT PUSH2 0xEF8 JUMPI PUSH2 0xEF8 PUSH2 0x5989 JUMP JUMPDEST SWAP1 POP PUSH1 0x20 MUL ADD CALLDATALOAD ADDMOD DUP9 PUSH1 0x28 DUP2 MLOAD DUP2 LT PUSH2 0xF13 JUMPI PUSH2 0xF13 PUSH2 0x5989 JUMP JUMPDEST PUSH1 0x20 MUL PUSH1 0x20 ADD ADD MLOAD MULMOD MULMOD DUP6 PUSH1 0x1F DUP2 MLOAD DUP2 LT PUSH2 0xF30 JUMPI PUSH2 0xF30 PUSH2 0x5989 JUMP JUMPDEST PUSH1 0x20 MUL PUSH1 0x20 ADD ADD MLOAD ADDMOD MULMOD DUP3 PUSH1 0x1F DUP2 MLOAD DUP2 LT PUSH2 0xF4D JUMPI PUSH2 0xF4D PUSH2 0x5989 JUMP JUMPDEST PUSH1 0x20 SWAP1 DUP2 MUL SWAP2 SWAP1 SWAP2 ADD ADD MSTORE PUSH0 DUP1 MLOAD PUSH1 0x20 PUSH2 0x5A0E DUP4 CODECOPY DUP2 MLOAD SWAP2 MSTORE DUP1 PUSH0 DUP1 MLOAD PUSH1 0x20 PUSH2 0x5A0E DUP4 CODECOPY DUP2 MLOAD SWAP2 MSTORE DUP9 DUP9 PUSH1 0x74 DUP2 DUP2 LT PUSH2 0xF88 JUMPI PUSH2 0xF88 PUSH2 0x5989 JUMP JUMPDEST SWAP1 POP PUSH1 0x20 MUL ADD CALLDATALOAD PUSH0 DUP1 MLOAD PUSH1 0x20 PUSH2 0x5A0E DUP4 CODECOPY DUP2 MLOAD SWAP2 MSTORE PUSH2 0xFA7 SWAP2 SWAP1 PUSH2 0x59B1 JUMP JUMPDEST PUSH0 DUP1 MLOAD PUSH1 0x20 PUSH2 0x5A0E DUP4 CODECOPY DUP2 MLOAD SWAP2 MSTORE DUP11 DUP11 PUSH1 0x74 DUP2 DUP2 LT PUSH2 0xFC8 JUMPI PUSH2 0xFC8 PUSH2 0x5989 JUMP JUMPDEST SWAP1 POP PUSH1 0x20 MUL ADD CALLDATALOAD DUP12 DUP12 PUSH1 0x74 DUP2 DUP2 LT PUSH2 0xFE2 JUMPI PUSH2 0xFE2 PUSH2 0x5989 JUMP JUMPDEST SWAP1 POP PUSH1 0x20 MUL ADD CALLDATALOAD MULMOD ADDMOD DUP5 PUSH1 0x21 DUP2 MLOAD DUP2 LT PUSH2 0xFFE JUMPI PUSH2 0xFFE PUSH2 0x5989 JUMP JUMPDEST PUSH1 0x20 MUL PUSH1 0x20 ADD ADD MLOAD MULMOD PUSH0 DUP1 MLOAD PUSH1 0x20 PUSH2 0x5A0E DUP4 CODECOPY DUP2 MLOAD SWAP2 MSTORE DUP5 PUSH1 0x5 DUP2 MLOAD DUP2 LT PUSH2 0x1028 JUMPI PUSH2 0x1028 PUSH2 0x5989 JUMP JUMPDEST PUSH1 0x20 MUL PUSH1 0x20 ADD ADD MLOAD PUSH0 DUP1 MLOAD PUSH1 0x20 PUSH2 0x5A0E DUP4 CODECOPY DUP2 MLOAD SWAP2 MSTORE DUP1 PUSH2 0x104B JUMPI PUSH2 0x104B PUSH2 0x5975 JUMP JUMPDEST PUSH0 DUP1 MLOAD PUSH1 0x20 PUSH2 0x5A0E DUP4 CODECOPY DUP2 MLOAD SWAP2 MSTORE DUP1 DUP13 DUP13 PUSH1 0x74 DUP2 DUP2 LT PUSH2 0x106D JUMPI PUSH2 0x106D PUSH2 0x5989 JUMP JUMPDEST SWAP1 POP PUSH1 0x20 MUL ADD CALLDATALOAD PUSH0 DUP1 MLOAD PUSH1 0x20 PUSH2 0x5A0E DUP4 CODECOPY DUP2 MLOAD SWAP2 MSTORE PUSH2 0x108C SWAP2 SWAP1 PUSH2 0x59B1 JUMP JUMPDEST PUSH1 0x1 ADDMOD DUP9 PUSH1 0x25 DUP2 MLOAD DUP2 LT PUSH2 0x10A2 JUMPI PUSH2 0x10A2 PUSH2 0x5989 JUMP JUMPDEST PUSH1 0x20 MUL PUSH1 0x20 ADD ADD MLOAD MULMOD DUP8 PUSH1 0x1F DUP2 MLOAD DUP2 LT PUSH2 0x10BE JUMPI PUSH2 0x10BE PUSH2 0x5989 JUMP JUMPDEST PUSH1 0x20 MUL PUSH1 0x20 ADD ADD MLOAD ADDMOD MULMOD ADDMOD DUP3 PUSH1 0x1F DUP2 MLOAD DUP2 LT PUSH2 0x10DC JUMPI PUSH2 0x10DC PUSH2 0x5989 JUMP JUMPDEST PUSH1 0x20 SWAP1 DUP2 MUL SWAP2 SWAP1 SWAP2 ADD ADD MSTORE PUSH0 DUP1 MLOAD PUSH1 0x20 PUSH2 0x5A0E DUP4 CODECOPY DUP2 MLOAD SWAP2 MSTORE DUP3 PUSH1 0x22 DUP2 MLOAD DUP2 LT PUSH2 0x1108 JUMPI PUSH2 0x1108 PUSH2 0x5989 JUMP JUMPDEST PUSH1 0x20 MUL PUSH1 0x20 ADD ADD MLOAD PUSH0 DUP1 MLOAD PUSH1 0x20 PUSH2 0x5A0E DUP4 CODECOPY DUP2 MLOAD SWAP2 MSTORE DUP1 PUSH2 0x112B JUMPI PUSH2 0x112B PUSH2 0x5975 JUMP JUMPDEST PUSH0 DUP1 MLOAD PUSH1 0x20 PUSH2 0x5A0E DUP4 CODECOPY DUP2 MLOAD SWAP2 MSTORE DUP6 PUSH1 0x3 DUP2 MLOAD DUP2 LT PUSH2 0x114C JUMPI PUSH2 0x114C PUSH2 0x5989 JUMP JUMPDEST PUSH1 0x20 MUL PUSH1 0x20 ADD ADD MLOAD PUSH0 DUP1 MLOAD PUSH1 0x20 PUSH2 0x5A0E DUP4 CODECOPY DUP2 MLOAD SWAP2 MSTORE DUP1 PUSH2 0x116F JUMPI PUSH2 0x116F PUSH2 0x5975 JUMP JUMPDEST DUP12 DUP12 PUSH1 0x41 DUP2 DUP2 LT PUSH2 0x1182 JUMPI PUSH2 0x1182 PUSH2 0x5989 JUMP JUMPDEST SWAP1 POP PUSH1 0x20 MUL ADD CALLDATALOAD PUSH0 DUP1 MLOAD PUSH1 0x20 PUSH2 0x5A0E DUP4 CODECOPY DUP2 MLOAD SWAP2 MSTORE DUP1 PUSH2 0x11A4 JUMPI PUSH2 0x11A4 PUSH2 0x5975 JUMP JUMPDEST DUP10 PUSH1 0x2 DUP2 MLOAD DUP2 LT PUSH2 0x11B7 JUMPI PUSH2 0x11B7 PUSH2 0x5989 JUMP JUMPDEST PUSH1 0x20 MUL PUSH1 0x20 ADD ADD MLOAD PUSH1 0x12 MULMOD ADDMOD ADDMOD DUP10 DUP10 PUSH1 0x74 DUP2 DUP2 LT PUSH2 0x11D7 JUMPI PUSH2 0x11D7 PUSH2 0x5989 JUMP JUMPDEST SWAP1 POP PUSH1 0x20 MUL ADD CALLDATALOAD MULMOD MULMOD DUP3 PUSH1 0x22 DUP2 MLOAD DUP2 LT PUSH2 0x11F3 JUMPI PUSH2 0x11F3 PUSH2 0x5989 JUMP JUMPDEST PUSH1 0x20 SWAP1 DUP2 MUL SWAP2 SWAP1 SWAP2 ADD ADD MSTORE PUSH0 DUP1 MLOAD PUSH1 0x20 PUSH2 0x5A0E DUP4 CODECOPY DUP2 MLOAD SWAP2 MSTORE DUP3 PUSH1 0x26 DUP2 MLOAD DUP2 LT PUSH2 0x121F JUMPI PUSH2 0x121F PUSH2 0x5989 JUMP JUMPDEST PUSH1 0x20 MUL PUSH1 0x20 ADD ADD MLOAD PUSH0 DUP1 MLOAD PUSH1 0x20 PUSH2 0x5A0E DUP4 CODECOPY DUP2 MLOAD SWAP2 MSTORE DUP1 PUSH2 0x1242 JUMPI PUSH2 0x1242 PUSH2 0x5975 JUMP JUMPDEST DUP5 PUSH1 0x22 DUP2 MLOAD DUP2 LT PUSH2 0x1255 JUMPI PUSH2 0x1255 PUSH2 0x5989 JUMP JUMPDEST PUSH1 0x20 MUL PUSH1 0x20 ADD ADD MLOAD PUSH0 DUP1 MLOAD PUSH1 0x20 PUSH2 0x5A0E DUP4 CODECOPY DUP2 MLOAD SWAP2 MSTORE PUSH2 0x1275 SWAP2 SWAP1 PUSH2 0x59B1 JUMP JUMPDEST PUSH0 DUP1 MLOAD PUSH1 0x20 PUSH2 0x5A0E DUP4 CODECOPY DUP2 MLOAD SWAP2 MSTORE DUP1 DUP8 PUSH1 0x4 DUP2 MLOAD DUP2 LT PUSH2 0x1297 JUMPI PUSH2 0x1297 PUSH2 0x5989 JUMP JUMPDEST PUSH1 0x20 MUL PUSH1 0x20 ADD ADD MLOAD DUP13 DUP13 PUSH1 0x78 DUP2 DUP2 LT PUSH2 0x12B2 JUMPI PUSH2 0x12B2 PUSH2 0x5989 JUMP JUMPDEST SWAP1 POP PUSH1 0x20 MUL ADD CALLDATALOAD ADDMOD PUSH0 DUP1 MLOAD PUSH1 0x20 PUSH2 0x5A0E DUP4 CODECOPY DUP2 MLOAD SWAP2 MSTORE DUP1 DUP10 PUSH1 0x3 DUP2 MLOAD DUP2 LT PUSH2 0x12DC JUMPI PUSH2 0x12DC PUSH2 0x5989 JUMP JUMPDEST PUSH1 0x20 MUL PUSH1 0x20 ADD ADD MLOAD DUP15 DUP15 PUSH1 0x76 DUP2 DUP2 LT PUSH2 0x12F7 JUMPI PUSH2 0x12F7 PUSH2 0x5989 JUMP JUMPDEST SWAP1 POP PUSH1 0x20 MUL ADD CALLDATALOAD ADDMOD DUP14 DUP14 PUSH1 0x75 DUP2 DUP2 LT PUSH2 0x1312 JUMPI PUSH2 0x1312 PUSH2 0x5989 JUMP JUMPDEST SWAP1 POP PUSH1 0x20 MUL ADD CALLDATALOAD MULMOD MULMOD ADDMOD MULMOD DUP3 PUSH1 0x22 DUP2 MLOAD DUP2 LT PUSH2 0x1330 JUMPI PUSH2 0x1330 PUSH2 0x5989 JUMP JUMPDEST PUSH1 0x20 SWAP1 DUP2 MUL SWAP2 SWAP1 SWAP2 ADD ADD MSTORE PUSH0 DUP1 MLOAD PUSH1 0x20 PUSH2 0x5A0E DUP4 CODECOPY DUP2 MLOAD SWAP2 MSTORE DUP7 DUP7 PUSH1 0x78 DUP2 DUP2 LT PUSH2 0x135C JUMPI PUSH2 0x135C PUSH2 0x5989 JUMP JUMPDEST SWAP1 POP PUSH1 0x20 MUL ADD CALLDATALOAD PUSH0 DUP1 MLOAD PUSH1 0x20 PUSH2 0x5A0E DUP4 CODECOPY DUP2 MLOAD SWAP2 MSTORE PUSH2 0x137B SWAP2 SWAP1 PUSH2 0x59B1 JUMP JUMPDEST DUP8 DUP8 PUSH1 0x76 DUP2 DUP2 LT PUSH2 0x138E JUMPI PUSH2 0x138E PUSH2 0x5989 JUMP JUMPDEST SWAP1 POP PUSH1 0x20 MUL ADD CALLDATALOAD ADDMOD DUP3 PUSH1 0x27 DUP2 MLOAD DUP2 LT PUSH2 0x13A9 JUMPI PUSH2 0x13A9 PUSH2 0x5989 JUMP JUMPDEST PUSH1 0x20 SWAP1 DUP2 MUL SWAP2 SWAP1 SWAP2 ADD ADD MSTORE PUSH0 DUP1 MLOAD PUSH1 0x20 PUSH2 0x5A0E DUP4 CODECOPY DUP2 MLOAD SWAP2 MSTORE DUP3 PUSH1 0x5 DUP2 MLOAD DUP2 LT PUSH2 0x13D5 JUMPI PUSH2 0x13D5 PUSH2 0x5989 JUMP JUMPDEST PUSH1 0x20 MUL PUSH1 0x20 ADD ADD MLOAD PUSH0 DUP1 MLOAD PUSH1 0x20 PUSH2 0x5A0E DUP4 CODECOPY DUP2 MLOAD SWAP2 MSTORE DUP1 PUSH2 0x13F8 JUMPI PUSH2 0x13F8 PUSH2 0x5975 JUMP JUMPDEST PUSH0 DUP1 MLOAD PUSH1 0x20 PUSH2 0x5A0E DUP4 CODECOPY DUP2 MLOAD SWAP2 MSTORE DUP6 PUSH1 0x27 DUP2 MLOAD DUP2 LT PUSH2 0x1419 JUMPI PUSH2 0x1419 PUSH2 0x5989 JUMP JUMPDEST PUSH1 0x20 MUL PUSH1 0x20 ADD ADD MLOAD DUP7 PUSH1 0x25 DUP2 MLOAD DUP2 LT PUSH2 0x1434 JUMPI PUSH2 0x1434 PUSH2 0x5989 JUMP JUMPDEST PUSH1 0x20 MUL PUSH1 0x20 ADD ADD MLOAD MULMOD PUSH0 DUP1 MLOAD PUSH1 0x20 PUSH2 0x5A0E DUP4 CODECOPY DUP2 MLOAD SWAP2 MSTORE DUP7 PUSH1 0x5 DUP2 MLOAD DUP2 LT PUSH2 0x145E JUMPI PUSH2 0x145E PUSH2 0x5989 JUMP JUMPDEST PUSH1 0x20 MUL PUSH1 0x20 ADD ADD MLOAD PUSH0 DUP1 MLOAD PUSH1 0x20 PUSH2 0x5A0E DUP4 CODECOPY DUP2 MLOAD SWAP2 MSTORE DUP1 PUSH2 0x1481 JUMPI PUSH2 0x1481 PUSH2 0x5975 JUMP JUMPDEST DUP9 PUSH1 0x22 DUP2 MLOAD DUP2 LT PUSH2 0x1494 JUMPI PUSH2 0x1494 PUSH2 0x5989 JUMP JUMPDEST PUSH1 0x20 MUL PUSH1 0x20 ADD ADD MLOAD PUSH0 DUP1 MLOAD PUSH1 0x20 PUSH2 0x5A0E DUP4 CODECOPY DUP2 MLOAD SWAP2 MSTORE DUP1 PUSH2 0x14B7 JUMPI PUSH2 0x14B7 PUSH2 0x5975 JUMP JUMPDEST DUP11 PUSH1 0x5 DUP2 MLOAD DUP2 LT PUSH2 0x14CA JUMPI PUSH2 0x14CA PUSH2 0x5989 JUMP JUMPDEST PUSH1 0x20 MUL PUSH1 0x20 ADD ADD MLOAD DUP12 PUSH1 0x1F DUP2 MLOAD DUP2 LT PUSH2 0x14E5 JUMPI PUSH2 0x14E5 PUSH2 0x5989 JUMP JUMPDEST PUSH1 0x20 MUL PUSH1 0x20 ADD ADD MLOAD MULMOD ADDMOD MULMOD ADDMOD MULMOD DUP3 PUSH1 0x1F DUP2 MLOAD DUP2 LT PUSH2 0x1505 JUMPI PUSH2 0x1505 PUSH2 0x5989 JUMP JUMPDEST PUSH1 0x20 SWAP1 DUP2 MUL SWAP2 SWAP1 SWAP2 ADD ADD MSTORE PUSH0 DUP1 MLOAD PUSH1 0x20 PUSH2 0x5A0E DUP4 CODECOPY DUP2 MLOAD SWAP2 MSTORE DUP3 PUSH1 0x5 DUP2 MLOAD DUP2 LT PUSH2 0x1531 JUMPI PUSH2 0x1531 PUSH2 0x5989 JUMP JUMPDEST PUSH1 0x20 MUL PUSH1 0x20 ADD ADD MLOAD PUSH0 DUP1 MLOAD PUSH1 0x20 PUSH2 0x5A0E DUP4 CODECOPY DUP2 MLOAD SWAP2 MSTORE DUP1 PUSH2 0x1554 JUMPI PUSH2 0x1554 PUSH2 0x5975 JUMP JUMPDEST PUSH0 DUP1 MLOAD PUSH1 0x20 PUSH2 0x5A0E DUP4 CODECOPY DUP2 MLOAD SWAP2 MSTORE DUP6 PUSH1 0x26 DUP2 MLOAD DUP2 LT PUSH2 0x1575 JUMPI PUSH2 0x1575 PUSH2 0x5989 JUMP JUMPDEST PUSH1 0x20 MUL PUSH1 0x20 ADD ADD MLOAD PUSH0 DUP1 MLOAD PUSH1 0x20 PUSH2 0x5A0E DUP4 CODECOPY DUP2 MLOAD SWAP2 MSTORE DUP1 PUSH2 0x1598 JUMPI PUSH2 0x1598 PUSH2 0x5975 JUMP JUMPDEST PUSH0 DUP1 MLOAD PUSH1 0x20 PUSH2 0x5A0E DUP4 CODECOPY DUP2 MLOAD SWAP2 MSTORE DUP13 DUP13 PUSH1 0x77 DUP2 DUP2 LT PUSH2 0x15B9 JUMPI PUSH2 0x15B9 PUSH2 0x5989 JUMP JUMPDEST SWAP1 POP PUSH1 0x20 MUL ADD CALLDATALOAD PUSH0 DUP1 MLOAD PUSH1 0x20 PUSH2 0x5A0E DUP4 CODECOPY DUP2 MLOAD SWAP2 MSTORE PUSH2 0x15D8 SWAP2 SWAP1 PUSH2 0x59B1 JUMP JUMPDEST DUP14 DUP14 PUSH1 0x76 DUP2 DUP2 LT PUSH2 0x15EB JUMPI PUSH2 0x15EB PUSH2 0x5989 JUMP JUMPDEST SWAP1 POP PUSH1 0x20 MUL ADD CALLDATALOAD ADDMOD DUP9 PUSH1 0x27 DUP2 MLOAD DUP2 LT PUSH2 0x1606 JUMPI PUSH2 0x1606 PUSH2 0x5989 JUMP JUMPDEST PUSH1 0x20 MUL PUSH1 0x20 ADD ADD MLOAD MULMOD MULMOD DUP6 PUSH1 0x1F DUP2 MLOAD DUP2 LT PUSH2 0x1623 JUMPI PUSH2 0x1623 PUSH2 0x5989 JUMP JUMPDEST PUSH1 0x20 MUL PUSH1 0x20 ADD ADD MLOAD ADDMOD MULMOD DUP3 PUSH1 0x1F DUP2 MLOAD DUP2 LT PUSH2 0x1640 JUMPI PUSH2 0x1640 PUSH2 0x5989 JUMP JUMPDEST PUSH1 0x20 SWAP1 DUP2 MUL SWAP2 SWAP1 SWAP2 ADD ADD MSTORE PUSH0 DUP1 MLOAD PUSH1 0x20 PUSH2 0x5A0E DUP4 CODECOPY DUP2 MLOAD SWAP2 MSTORE DUP1 PUSH0 DUP1 MLOAD PUSH1 0x20 PUSH2 0x5A0E DUP4 CODECOPY DUP2 MLOAD SWAP2 MSTORE DUP9 DUP9 PUSH1 0x79 DUP2 DUP2 LT PUSH2 0x167B JUMPI PUSH2 0x167B PUSH2 0x5989 JUMP JUMPDEST SWAP1 POP PUSH1 0x20 MUL ADD CALLDATALOAD PUSH0 DUP1 MLOAD PUSH1 0x20 PUSH2 0x5A0E DUP4 CODECOPY DUP2 MLOAD SWAP2 MSTORE PUSH2 0x169A SWAP2 SWAP1 PUSH2 0x59B1 JUMP JUMPDEST PUSH0 DUP1 MLOAD PUSH1 0x20 PUSH2 0x5A0E DUP4 CODECOPY DUP2 MLOAD SWAP2 MSTORE DUP11 DUP11 PUSH1 0x79 DUP2 DUP2 LT PUSH2 0x16BB JUMPI PUSH2 0x16BB PUSH2 0x5989 JUMP JUMPDEST SWAP1 POP PUSH1 0x20 MUL ADD CALLDATALOAD DUP12 DUP12 PUSH1 0x79 DUP2 DUP2 LT PUSH2 0x16D5 JUMPI PUSH2 0x16D5 PUSH2 0x5989 JUMP JUMPDEST SWAP1 POP PUSH1 0x20 MUL ADD CALLDATALOAD MULMOD ADDMOD DUP5 PUSH1 0x21 DUP2 MLOAD DUP2 LT PUSH2 0x16F1 JUMPI PUSH2 0x16F1 PUSH2 0x5989 JUMP JUMPDEST PUSH1 0x20 MUL PUSH1 0x20 ADD ADD MLOAD MULMOD PUSH0 DUP1 MLOAD PUSH1 0x20 PUSH2 0x5A0E DUP4 CODECOPY DUP2 MLOAD SWAP2 MSTORE DUP5 PUSH1 0x5 DUP2 MLOAD DUP2 LT PUSH2 0x171B JUMPI PUSH2 0x171B PUSH2 0x5989 JUMP JUMPDEST PUSH1 0x20 MUL PUSH1 0x20 ADD ADD MLOAD PUSH0 DUP1 MLOAD PUSH1 0x20 PUSH2 0x5A0E DUP4 CODECOPY DUP2 MLOAD SWAP2 MSTORE DUP1 PUSH2 0x173E JUMPI PUSH2 0x173E PUSH2 0x5975 JUMP JUMPDEST PUSH0 DUP1 MLOAD PUSH1 0x20 PUSH2 0x5A0E DUP4 CODECOPY DUP2 MLOAD SWAP2 MSTORE DUP1 DUP13 DUP13 PUSH1 0x79 DUP2 DUP2 LT PUSH2 0x1760 JUMPI PUSH2 0x1760 PUSH2 0x5989 JUMP JUMPDEST SWAP1 POP PUSH1 0x20 MUL ADD CALLDATALOAD PUSH0 DUP1 MLOAD PUSH1 0x20 PUSH2 0x5A0E DUP4 CODECOPY DUP2 MLOAD SWAP2 MSTORE PUSH2 0x177F SWAP2 SWAP1 PUSH2 0x59B1 JUMP JUMPDEST PUSH1 0x1 ADDMOD DUP9 PUSH1 0x25 DUP2 MLOAD DUP2 LT PUSH2 0x1795 JUMPI PUSH2 0x1795 PUSH2 0x5989 JUMP JUMPDEST PUSH1 0x20 MUL PUSH1 0x20 ADD ADD MLOAD MULMOD DUP8 PUSH1 0x1F DUP2 MLOAD DUP2 LT PUSH2 0x17B1 JUMPI PUSH2 0x17B1 PUSH2 0x5989 JUMP JUMPDEST PUSH1 0x20 MUL PUSH1 0x20 ADD ADD MLOAD ADDMOD MULMOD ADDMOD DUP3 PUSH1 0x1F DUP2 MLOAD DUP2 LT PUSH2 0x17CF JUMPI PUSH2 0x17CF PUSH2 0x5989 JUMP JUMPDEST PUSH1 0x20 SWAP1 DUP2 MUL SWAP2 SWAP1 SWAP2 ADD ADD MSTORE PUSH0 DUP1 MLOAD PUSH1 0x20 PUSH2 0x5A0E DUP4 CODECOPY DUP2 MLOAD SWAP2 MSTORE DUP3 PUSH1 0x2 DUP2 MLOAD DUP2 LT PUSH2 0x17FB JUMPI PUSH2 0x17FB PUSH2 0x5989 JUMP JUMPDEST PUSH1 0x20 MUL PUSH1 0x20 ADD ADD MLOAD DUP8 DUP8 PUSH1 0x46 DUP2 DUP2 LT PUSH2 0x1816 JUMPI PUSH2 0x1816 PUSH2 0x5989 JUMP JUMPDEST SWAP1 POP PUSH1 0x20 MUL ADD CALLDATALOAD MULMOD DUP3 PUSH1 0x21 DUP2 MLOAD DUP2 LT PUSH2 0x1831 JUMPI PUSH2 0x1831 PUSH2 0x5989 JUMP JUMPDEST PUSH1 0x20 SWAP1 DUP2 MUL SWAP2 SWAP1 SWAP2 ADD ADD MSTORE PUSH0 DUP1 MLOAD PUSH1 0x20 PUSH2 0x5A0E DUP4 CODECOPY DUP2 MLOAD SWAP2 MSTORE DUP3 PUSH1 0x3 DUP2 MLOAD DUP2 LT PUSH2 0x185D JUMPI PUSH2 0x185D PUSH2 0x5989 JUMP JUMPDEST PUSH1 0x20 MUL PUSH1 0x20 ADD ADD MLOAD PUSH0 DUP1 MLOAD PUSH1 0x20 PUSH2 0x5A0E DUP4 CODECOPY DUP2 MLOAD SWAP2 MSTORE DUP1 PUSH2 0x1880 JUMPI PUSH2 0x1880 PUSH2 0x5975 JUMP JUMPDEST DUP5 PUSH1 0x2 DUP2 MLOAD DUP2 LT PUSH2 0x1893 JUMPI PUSH2 0x1893 PUSH2 0x5989 JUMP JUMPDEST PUSH1 0x20 MUL PUSH1 0x20 ADD ADD MLOAD PUSH0 DUP1 MLOAD PUSH1 0x20 PUSH2 0x5A0E DUP4 CODECOPY DUP2 MLOAD SWAP2 MSTORE DUP1 PUSH2 0x18B6 JUMPI PUSH2 0x18B6 PUSH2 0x5975 JUMP JUMPDEST PUSH0 DUP1 MLOAD PUSH1 0x20 PUSH2 0x5A0E DUP4 CODECOPY DUP2 MLOAD SWAP2 MSTORE DUP12 DUP12 PUSH1 0x55 DUP2 DUP2 LT PUSH2 0x18D7 JUMPI PUSH2 0x18D7 PUSH2 0x5989 JUMP JUMPDEST SWAP1 POP PUSH1 0x20 MUL ADD CALLDATALOAD PUSH0 DUP1 MLOAD PUSH1 0x20 PUSH2 0x5A0E DUP4 CODECOPY DUP2 MLOAD SWAP2 MSTORE DUP1 PUSH2 0x18F9 JUMPI PUSH2 0x18F9 PUSH2 0x5975 JUMP JUMPDEST DUP14 DUP14 PUSH1 0x47 DUP2 DUP2 LT PUSH2 0x190C JUMPI PUSH2 0x190C PUSH2 0x5989 JUMP JUMPDEST SWAP1 POP PUSH1 0x20 MUL ADD CALLDATALOAD PUSH1 0x1 PUSH1 0x80 SHL MULMOD ADDMOD DUP8 PUSH1 0x21 DUP2 MLOAD DUP2 LT PUSH2 0x192D JUMPI PUSH2 0x192D PUSH2 0x5989 JUMP JUMPDEST PUSH1 0x20 MUL PUSH1 0x20 ADD ADD MLOAD ADDMOD MULMOD ADDMOD DUP3 PUSH1 0x22 DUP2 MLOAD DUP2 LT PUSH2 0x194B JUMPI PUSH2 0x194B PUSH2 0x5989 JUMP JUMPDEST PUSH1 0x20 SWAP1 DUP2 MUL SWAP2 SWAP1 SWAP2 ADD ADD MSTORE PUSH0 DUP1 MLOAD PUSH1 0x20 PUSH2 0x5A0E DUP4 CODECOPY DUP2 MLOAD SWAP2 MSTORE DUP1 DUP4 PUSH1 0x4 DUP2 MLOAD DUP2 LT PUSH2 0x1978 JUMPI PUSH2 0x1978 PUSH2 0x5989 JUMP JUMPDEST PUSH1 0x20 MUL PUSH1 0x20 ADD ADD MLOAD PUSH0 DUP1 MLOAD PUSH1 0x20 PUSH2 0x5A0E DUP4 CODECOPY DUP2 MLOAD SWAP2 MSTORE DUP1 PUSH2 0x199B JUMPI PUSH2 0x199B PUSH2 0x5975 JUMP JUMPDEST DUP10 DUP10 PUSH1 0x56 DUP2 DUP2 LT PUSH2 0x19AE JUMPI PUSH2 0x19AE PUSH2 0x5989 JUMP JUMPDEST SWAP1 POP PUSH1 0x20 MUL ADD CALLDATALOAD PUSH0 DUP1 MLOAD PUSH1 0x20 PUSH2 0x5A0E DUP4 CODECOPY DUP2 MLOAD SWAP2 MSTORE DUP1 PUSH2 0x19D0 JUMPI PUSH2 0x19D0 PUSH2 0x5975 JUMP JUMPDEST DUP8 PUSH1 0x2 DUP2 MLOAD DUP2 LT PUSH2 0x19E3 JUMPI PUSH2 0x19E3 PUSH2 0x5989 JUMP JUMPDEST PUSH1 0x20 MUL PUSH1 0x20 ADD ADD MLOAD PUSH0 DUP1 MLOAD PUSH1 0x20 PUSH2 0x5A0E DUP4 CODECOPY DUP2 MLOAD SWAP2 MSTORE DUP1 PUSH2 0x1A06 JUMPI PUSH2 0x1A06 PUSH2 0x5975 JUMP JUMPDEST DUP14 DUP14 PUSH1 0x55 DUP2 DUP2 LT PUSH2 0x1A19 JUMPI PUSH2 0x1A19 PUSH2 0x5989 JUMP JUMPDEST SWAP1 POP PUSH1 0x20 MUL ADD CALLDATALOAD DUP11 PUSH1 0x21 DUP2 MLOAD DUP2 LT PUSH2 0x1A33 JUMPI PUSH2 0x1A33 PUSH2 0x5989 JUMP JUMPDEST PUSH1 0x20 MUL PUSH1 0x20 ADD ADD MLOAD ADDMOD MULMOD ADDMOD ADDMOD PUSH0 DUP1 MLOAD PUSH1 0x20 PUSH2 0x5A0E DUP4 CODECOPY DUP2 MLOAD SWAP2 MSTORE DUP5 PUSH1 0x22 DUP2 MLOAD DUP2 LT PUSH2 0x1A60 JUMPI PUSH2 0x1A60 PUSH2 0x5989 JUMP JUMPDEST PUSH1 0x20 MUL PUSH1 0x20 ADD ADD MLOAD DUP10 DUP10 PUSH1 0x79 DUP2 DUP2 LT PUSH2 0x1A7B JUMPI PUSH2 0x1A7B PUSH2 0x5989 JUMP JUMPDEST SWAP1 POP PUSH1 0x20 MUL ADD CALLDATALOAD MULMOD MULMOD DUP3 PUSH1 0x21 DUP2 MLOAD DUP2 LT PUSH2 0x1A97 JUMPI PUSH2 0x1A97 PUSH2 0x5989 JUMP JUMPDEST PUSH1 0x20 SWAP1 DUP2 MUL SWAP2 SWAP1 SWAP2 ADD ADD MSTORE PUSH0 DUP1 MLOAD PUSH1 0x20 PUSH2 0x5A0E DUP4 CODECOPY DUP2 MLOAD SWAP2 MSTORE DUP3 PUSH1 0x26 DUP2 MLOAD DUP2 LT PUSH2 0x1AC3 JUMPI PUSH2 0x1AC3 PUSH2 0x5989 JUMP JUMPDEST PUSH1 0x20 MUL PUSH1 0x20 ADD ADD MLOAD PUSH0 DUP1 MLOAD PUSH1 0x20 PUSH2 0x5A0E DUP4 CODECOPY DUP2 MLOAD SWAP2 MSTORE DUP1 PUSH2 0x1AE6 JUMPI PUSH2 0x1AE6 PUSH2 0x5975 JUMP JUMPDEST DUP5 PUSH1 0x21 DUP2 MLOAD DUP2 LT PUSH2 0x1AF9 JUMPI PUSH2 0x1AF9 PUSH2 0x5989 JUMP JUMPDEST PUSH1 0x20 MUL PUSH1 0x20 ADD ADD MLOAD PUSH0 DUP1 MLOAD PUSH1 0x20 PUSH2 0x5A0E DUP4 CODECOPY DUP2 MLOAD SWAP2 MSTORE PUSH2 0x1B19 SWAP2 SWAP1 PUSH2 0x59B1 JUMP JUMPDEST PUSH0 DUP1 MLOAD PUSH1 0x20 PUSH2 0x5A0E DUP4 CODECOPY DUP2 MLOAD SWAP2 MSTORE DUP1 DUP8 PUSH1 0x4 DUP2 MLOAD DUP2 LT PUSH2 0x1B3B JUMPI PUSH2 0x1B3B PUSH2 0x5989 JUMP JUMPDEST PUSH1 0x20 MUL PUSH1 0x20 ADD ADD MLOAD DUP13 DUP13 PUSH1 0x7D DUP2 DUP2 LT PUSH2 0x1B56 JUMPI PUSH2 0x1B56 PUSH2 0x5989 JUMP JUMPDEST SWAP1 POP PUSH1 0x20 MUL ADD CALLDATALOAD ADDMOD PUSH0 DUP1 MLOAD PUSH1 0x20 PUSH2 0x5A0E DUP4 CODECOPY DUP2 MLOAD SWAP2 MSTORE DUP1 DUP10 PUSH1 0x3 DUP2 MLOAD DUP2 LT PUSH2 0x1B80 JUMPI PUSH2 0x1B80 PUSH2 0x5989 JUMP JUMPDEST PUSH1 0x20 MUL PUSH1 0x20 ADD ADD MLOAD DUP15 DUP15 PUSH1 0x7B DUP2 DUP2 LT PUSH2 0x1B9B JUMPI PUSH2 0x1B9B PUSH2 0x5989 JUMP JUMPDEST SWAP1 POP PUSH1 0x20 MUL ADD CALLDATALOAD ADDMOD DUP14 DUP14 PUSH1 0x7A DUP2 DUP2 LT PUSH2 0x1BB6 JUMPI PUSH2 0x1BB6 PUSH2 0x5989 JUMP JUMPDEST SWAP1 POP PUSH1 0x20 MUL ADD CALLDATALOAD MULMOD MULMOD ADDMOD MULMOD DUP3 PUSH1 0x21 DUP2 MLOAD DUP2 LT PUSH2 0x1BD4 JUMPI PUSH2 0x1BD4 PUSH2 0x5989 JUMP JUMPDEST PUSH1 0x20 SWAP1 DUP2 MUL SWAP2 SWAP1 SWAP2 ADD ADD MSTORE PUSH0 DUP1 MLOAD PUSH1 0x20 PUSH2 0x5A0E DUP4 CODECOPY DUP2 MLOAD SWAP2 MSTORE DUP7 DUP7 PUSH1 0x7D DUP2 DUP2 LT PUSH2 0x1C00 JUMPI PUSH2 0x1C00 PUSH2 0x5989 JUMP JUMPDEST SWAP1 POP PUSH1 0x20 MUL ADD CALLDATALOAD PUSH0 DUP1 MLOAD PUSH1 0x20 PUSH2 0x5A0E DUP4 CODECOPY DUP2 MLOAD SWAP2 MSTORE PUSH2 0x1C1F SWAP2 SWAP1 PUSH2 0x59B1 JUMP JUMPDEST DUP8 DUP8 PUSH1 0x7B DUP2 DUP2 LT PUSH2 0x1C32 JUMPI PUSH2 0x1C32 PUSH2 0x5989 JUMP JUMPDEST SWAP1 POP PUSH1 0x20 MUL ADD CALLDATALOAD ADDMOD DUP3 PUSH1 0x22 DUP2 MLOAD DUP2 LT PUSH2 0x1C4D JUMPI PUSH2 0x1C4D PUSH2 0x5989 JUMP JUMPDEST PUSH1 0x20 SWAP1 DUP2 MUL SWAP2 SWAP1 SWAP2 ADD ADD MSTORE PUSH0 DUP1 MLOAD PUSH1 0x20 PUSH2 0x5A0E DUP4 CODECOPY DUP2 MLOAD SWAP2 MSTORE DUP3 PUSH1 0x5 DUP2 MLOAD DUP2 LT PUSH2 0x1C79 JUMPI PUSH2 0x1C79 PUSH2 0x5989 JUMP JUMPDEST PUSH1 0x20 MUL PUSH1 0x20 ADD ADD MLOAD PUSH0 DUP1 MLOAD PUSH1 0x20 PUSH2 0x5A0E DUP4 CODECOPY DUP2 MLOAD SWAP2 MSTORE DUP1 PUSH2 0x1C9C JUMPI PUSH2 0x1C9C PUSH2 0x5975 JUMP JUMPDEST PUSH0 DUP1 MLOAD PUSH1 0x20 PUSH2 0x5A0E DUP4 CODECOPY DUP2 MLOAD SWAP2 MSTORE DUP6 PUSH1 0x22 DUP2 MLOAD DUP2 LT PUSH2 0x1CBD JUMPI PUSH2 0x1CBD PUSH2 0x5989 JUMP JUMPDEST PUSH1 0x20 MUL PUSH1 0x20 ADD ADD MLOAD DUP7 PUSH1 0x25 DUP2 MLOAD DUP2 LT PUSH2 0x1CD8 JUMPI PUSH2 0x1CD8 PUSH2 0x5989 JUMP JUMPDEST PUSH1 0x20 MUL PUSH1 0x20 ADD ADD MLOAD MULMOD PUSH0 DUP1 MLOAD PUSH1 0x20 PUSH2 0x5A0E DUP4 CODECOPY DUP2 MLOAD SWAP2 MSTORE DUP7 PUSH1 0x5 DUP2 MLOAD DUP2 LT PUSH2 0x1D02 JUMPI PUSH2 0x1D02 PUSH2 0x5989 JUMP JUMPDEST PUSH1 0x20 MUL PUSH1 0x20 ADD ADD MLOAD PUSH0 DUP1 MLOAD PUSH1 0x20 PUSH2 0x5A0E DUP4 CODECOPY DUP2 MLOAD SWAP2 MSTORE DUP1 PUSH2 0x1D25 JUMPI PUSH2 0x1D25 PUSH2 0x5975 JUMP JUMPDEST DUP9 PUSH1 0x21 DUP2 MLOAD DUP2 LT PUSH2 0x1D38 JUMPI PUSH2 0x1D38 PUSH2 0x5989 JUMP JUMPDEST PUSH1 0x20 MUL PUSH1 0x20 ADD ADD MLOAD PUSH0 DUP1 MLOAD PUSH1 0x20 PUSH2 0x5A0E DUP4 CODECOPY DUP2 MLOAD SWAP2 MSTORE DUP1 PUSH2 0x1D5B JUMPI PUSH2 0x1D5B PUSH2 0x5975 JUMP JUMPDEST DUP11 PUSH1 0x5 DUP2 MLOAD DUP2 LT PUSH2 0x1D6E JUMPI PUSH2 0x1D6E PUSH2 0x5989 JUMP JUMPDEST PUSH1 0x20 MUL PUSH1 0x20 ADD ADD MLOAD DUP12 PUSH1 0x1F DUP2 MLOAD DUP2 LT PUSH2 0x1D89 JUMPI PUSH2 0x1D89 PUSH2 0x5989 JUMP JUMPDEST PUSH1 0x20 MUL PUSH1 0x20 ADD ADD MLOAD MULMOD ADDMOD MULMOD ADDMOD MULMOD DUP3 PUSH1 0x1F DUP2 MLOAD DUP2 LT PUSH2 0x1DA9 JUMPI PUSH2 0x1DA9 PUSH2 0x5989 JUMP JUMPDEST PUSH1 0x20 SWAP1 DUP2 MUL SWAP2 SWAP1 SWAP2 ADD ADD MSTORE PUSH2 0x1ECA PUSH0 DUP1 MLOAD PUSH1 0x20 PUSH2 0x5A0E DUP4 CODECOPY DUP2 MLOAD SWAP2 MSTORE DUP1 DUP5 PUSH1 0x26 DUP2 MLOAD DUP2 LT PUSH2 0x1DD9 JUMPI PUSH2 0x1DD9 PUSH2 0x5989 JUMP JUMPDEST PUSH1 0x20 MUL PUSH1 0x20 ADD ADD MLOAD PUSH0 DUP1 MLOAD PUSH1 0x20 PUSH2 0x5A0E DUP4 CODECOPY DUP2 MLOAD SWAP2 MSTORE DUP1 PUSH2 0x1DFC JUMPI PUSH2 0x1DFC PUSH2 0x5975 JUMP JUMPDEST PUSH0 DUP1 MLOAD PUSH1 0x20 PUSH2 0x5A0E DUP4 CODECOPY DUP2 MLOAD SWAP2 MSTORE DUP12 DUP12 PUSH1 0x7C DUP2 DUP2 LT PUSH2 0x1E1D JUMPI PUSH2 0x1E1D PUSH2 0x5989 JUMP JUMPDEST SWAP1 POP PUSH1 0x20 MUL ADD CALLDATALOAD PUSH0 DUP1 MLOAD PUSH1 0x20 PUSH2 0x5A0E DUP4 CODECOPY DUP2 MLOAD SWAP2 MSTORE PUSH2 0x1E3C SWAP2 SWAP1 PUSH2 0x59B1 JUMP JUMPDEST DUP13 DUP13 PUSH1 0x7B DUP2 DUP2 LT PUSH2 0x1E4F JUMPI PUSH2 0x1E4F PUSH2 0x5989 JUMP JUMPDEST SWAP1 POP PUSH1 0x20 MUL ADD CALLDATALOAD ADDMOD DUP8 PUSH1 0x22 DUP2 MLOAD DUP2 LT PUSH2 0x1E6A JUMPI PUSH2 0x1E6A PUSH2 0x5989 JUMP JUMPDEST PUSH1 0x20 MUL PUSH1 0x20 ADD ADD MLOAD MULMOD MULMOD DUP5 PUSH1 0x1F DUP2 MLOAD DUP2 LT PUSH2 0x1E87 JUMPI PUSH2 0x1E87 PUSH2 0x5989 JUMP JUMPDEST PUSH1 0x20 MUL PUSH1 0x20 ADD ADD MLOAD ADDMOD DUP4 PUSH1 0x24 DUP2 MLOAD DUP2 LT PUSH2 0x1EA3 JUMPI PUSH2 0x1EA3 PUSH2 0x5989 JUMP JUMPDEST PUSH1 0x20 MUL PUSH1 0x20 ADD ADD MLOAD DUP7 DUP7 PUSH1 0x10 DUP2 DUP2 LT PUSH2 0x1EBE JUMPI PUSH2 0x1EBE PUSH2 0x5989 JUMP JUMPDEST SWAP1 POP PUSH1 0x20 MUL ADD CALLDATALOAD PUSH2 0x5555 JUMP JUMPDEST DUP3 PUSH1 0x1F DUP2 MLOAD DUP2 LT PUSH2 0x1EDD JUMPI PUSH2 0x1EDD PUSH2 0x5989 JUMP JUMPDEST PUSH1 0x20 SWAP1 DUP2 MUL SWAP2 SWAP1 SWAP2 ADD ADD MSTORE PUSH0 DUP1 MLOAD PUSH1 0x20 PUSH2 0x5A0E DUP4 CODECOPY DUP2 MLOAD SWAP2 MSTORE DUP3 PUSH1 0x1F DUP2 MLOAD DUP2 LT PUSH2 0x1F09 JUMPI PUSH2 0x1F09 PUSH2 0x5989 JUMP JUMPDEST PUSH1 0x20 MUL PUSH1 0x20 ADD ADD MLOAD PUSH0 DUP1 MLOAD PUSH1 0x20 PUSH2 0x5A0E DUP4 CODECOPY DUP2 MLOAD SWAP2 MSTORE DUP1 PUSH2 0x1F2C JUMPI PUSH2 0x1F2C PUSH2 0x5975 JUMP JUMPDEST PUSH0 DUP1 MLOAD PUSH1 0x20 PUSH2 0x5A0E DUP4 CODECOPY DUP2 MLOAD SWAP2 MSTORE DUP10 DUP10 PUSH1 0x60 DUP2 DUP2 LT PUSH2 0x1F4D JUMPI PUSH2 0x1F4D PUSH2 0x5989 JUMP JUMPDEST SWAP1 POP PUSH1 0x20 MUL ADD CALLDATALOAD PUSH0 DUP1 MLOAD PUSH1 0x20 PUSH2 0x5A0E DUP4 CODECOPY DUP2 MLOAD SWAP2 MSTORE DUP1 PUSH2 0x1F6F JUMPI PUSH2 0x1F6F PUSH2 0x5975 JUMP JUMPDEST PUSH0 DUP1 MLOAD PUSH1 0x20 PUSH2 0x5A0E DUP4 CODECOPY DUP2 MLOAD SWAP2 MSTORE DUP13 DUP13 PUSH1 0x5F DUP2 DUP2 LT PUSH2 0x1F90 JUMPI PUSH2 0x1F90 PUSH2 0x5989 JUMP JUMPDEST SWAP1 POP PUSH1 0x20 MUL ADD CALLDATALOAD DUP10 PUSH1 0x1D DUP2 MLOAD DUP2 LT PUSH2 0x1FAA JUMPI PUSH2 0x1FAA PUSH2 0x5989 JUMP JUMPDEST PUSH1 0x20 MUL PUSH1 0x20 ADD ADD MLOAD ADDMOD DUP9 PUSH1 0x7 DUP2 MLOAD DUP2 LT PUSH2 0x1FC6 JUMPI PUSH2 0x1FC6 PUSH2 0x5989 JUMP JUMPDEST PUSH1 0x20 MUL PUSH1 0x20 ADD ADD MLOAD MULMOD ADDMOD DUP6 PUSH1 0x7 DUP2 MLOAD DUP2 LT PUSH2 0x1FE3 JUMPI PUSH2 0x1FE3 PUSH2 0x5989 JUMP JUMPDEST PUSH1 0x20 MUL PUSH1 0x20 ADD ADD MLOAD MULMOD ADDMOD DUP3 PUSH1 0x1D DUP2 MLOAD DUP2 LT PUSH2 0x2000 JUMPI PUSH2 0x2000 PUSH2 0x5989 JUMP JUMPDEST PUSH1 0x20 SWAP1 DUP2 MUL SWAP2 SWAP1 SWAP2 ADD ADD MSTORE PUSH0 DUP1 MLOAD PUSH1 0x20 PUSH2 0x5A0E DUP4 CODECOPY DUP2 MLOAD SWAP2 MSTORE DUP3 PUSH1 0x14 DUP2 MLOAD DUP2 LT PUSH2 0x202C JUMPI PUSH2 0x202C PUSH2 0x5989 JUMP JUMPDEST PUSH1 0x20 MUL PUSH1 0x20 ADD ADD MLOAD DUP4 PUSH1 0x11 DUP2 MLOAD DUP2 LT PUSH2 0x2047 JUMPI PUSH2 0x2047 PUSH2 0x5989 JUMP JUMPDEST PUSH1 0x20 MUL PUSH1 0x20 ADD ADD MLOAD MULMOD DUP3 PUSH1 0x14 DUP2 MLOAD DUP2 LT PUSH2 0x2063 JUMPI PUSH2 0x2063 PUSH2 0x5989 JUMP JUMPDEST PUSH1 0x20 SWAP1 DUP2 MUL SWAP2 SWAP1 SWAP2 ADD ADD MSTORE PUSH0 DUP1 MLOAD PUSH1 0x20 PUSH2 0x5A0E DUP4 CODECOPY DUP2 MLOAD SWAP2 MSTORE DUP3 PUSH1 0x1B DUP2 MLOAD DUP2 LT PUSH2 0x208F JUMPI PUSH2 0x208F PUSH2 0x5989 JUMP JUMPDEST PUSH1 0x20 MUL PUSH1 0x20 ADD ADD MLOAD PUSH0 DUP1 MLOAD PUSH1 0x20 PUSH2 0x5A0E DUP4 CODECOPY DUP2 MLOAD SWAP2 MSTORE DUP1 PUSH2 0x20B2 JUMPI PUSH2 0x20B2 PUSH2 0x5975 JUMP JUMPDEST DUP5 PUSH1 0x19 DUP2 MLOAD DUP2 LT PUSH2 0x20C5 JUMPI PUSH2 0x20C5 PUSH2 0x5989 JUMP JUMPDEST PUSH1 0x20 MUL PUSH1 0x20 ADD ADD MLOAD PUSH0 DUP1 MLOAD PUSH1 0x20 PUSH2 0x5A0E DUP4 CODECOPY DUP2 MLOAD SWAP2 MSTORE DUP1 PUSH2 0x20E8 JUMPI PUSH2 0x20E8 PUSH2 0x5975 JUMP JUMPDEST DUP7 PUSH1 0x16 DUP2 MLOAD DUP2 LT PUSH2 0x20FB JUMPI PUSH2 0x20FB PUSH2 0x5989 JUMP JUMPDEST PUSH1 0x20 MUL PUSH1 0x20 ADD ADD MLOAD DUP8 PUSH1 0x14 DUP2 MLOAD DUP2 LT PUSH2 0x2116 JUMPI PUSH2 0x2116 PUSH2 0x5989 JUMP JUMPDEST PUSH1 0x20 MUL PUSH1 0x20 ADD ADD MLOAD MULMOD MULMOD MULMOD DUP3 PUSH1 0x1F DUP2 MLOAD DUP2 LT PUSH2 0x2134 JUMPI PUSH2 0x2134 PUSH2 0x5989 JUMP JUMPDEST PUSH1 0x20 SWAP1 DUP2 MUL SWAP2 SWAP1 SWAP2 ADD ADD MSTORE PUSH0 DUP1 MLOAD PUSH1 0x20 PUSH2 0x5A0E DUP4 CODECOPY DUP2 MLOAD SWAP2 MSTORE DUP1 PUSH0 DUP1 MLOAD PUSH1 0x20 PUSH2 0x5A0E DUP4 CODECOPY DUP2 MLOAD SWAP2 MSTORE DUP5 PUSH1 0x1F DUP2 MLOAD DUP2 LT PUSH2 0x216F JUMPI PUSH2 0x216F PUSH2 0x5989 JUMP JUMPDEST PUSH1 0x20 MUL PUSH1 0x20 ADD ADD MLOAD PUSH0 DUP1 MLOAD PUSH1 0x20 PUSH2 0x5A0E DUP4 CODECOPY DUP2 MLOAD SWAP2 MSTORE DUP1 PUSH2 0x2192 JUMPI PUSH2 0x2192 PUSH2 0x5975 JUMP JUMPDEST DUP11 DUP11 PUSH1 0x57 DUP2 DUP2 LT PUSH2 0x21A5 JUMPI PUSH2 0x21A5 PUSH2 0x5989 JUMP JUMPDEST SWAP1 POP PUSH1 0x20 MUL ADD CALLDATALOAD PUSH0 DUP1 MLOAD PUSH1 0x20 PUSH2 0x5A0E DUP4 CODECOPY DUP2 MLOAD SWAP2 MSTORE DUP1 PUSH2 0x21C7 JUMPI PUSH2 0x21C7 PUSH2 0x5975 JUMP JUMPDEST DUP9 PUSH1 0x1D DUP2 MLOAD DUP2 LT PUSH2 0x21DA JUMPI PUSH2 0x21DA PUSH2 0x5989 JUMP JUMPDEST PUSH1 0x20 MUL PUSH1 0x20 ADD ADD MLOAD DUP10 PUSH1 0x7 DUP2 MLOAD DUP2 LT PUSH2 0x21F5 JUMPI PUSH2 0x21F5 PUSH2 0x5989 JUMP JUMPDEST PUSH1 0x20 MUL PUSH1 0x20 ADD ADD MLOAD MULMOD ADDMOD MULMOD PUSH0 DUP1 MLOAD PUSH1 0x20 PUSH2 0x5A0E DUP4 CODECOPY DUP2 MLOAD SWAP2 MSTORE DUP1 PUSH0 DUP1 MLOAD PUSH1 0x20 PUSH2 0x5A0E DUP4 CODECOPY DUP2 MLOAD SWAP2 MSTORE DUP8 PUSH1 0x1C DUP2 MLOAD DUP2 LT PUSH2 0x2230 JUMPI PUSH2 0x2230 PUSH2 0x5989 JUMP JUMPDEST PUSH1 0x20 MUL PUSH1 0x20 ADD ADD MLOAD DUP9 PUSH1 0x15 DUP2 MLOAD DUP2 LT PUSH2 0x224B JUMPI PUSH2 0x224B PUSH2 0x5989 JUMP JUMPDEST PUSH1 0x20 MUL PUSH1 0x20 ADD ADD MLOAD MULMOD PUSH0 DUP1 MLOAD PUSH1 0x20 PUSH2 0x5A0E DUP4 CODECOPY DUP2 MLOAD SWAP2 MSTORE DUP9 PUSH1 0x12 DUP2 MLOAD DUP2 LT PUSH2 0x2275 JUMPI PUSH2 0x2275 PUSH2 0x5989 JUMP JUMPDEST PUSH1 0x20 MUL PUSH1 0x20 ADD ADD MLOAD DUP10 PUSH1 0x8 DUP2 MLOAD DUP2 LT PUSH2 0x2290 JUMPI PUSH2 0x2290 PUSH2 0x5989 JUMP JUMPDEST PUSH1 0x20 MUL PUSH1 0x20 ADD ADD MLOAD MULMOD ADDMOD DUP7 PUSH1 0x8 DUP2 MLOAD DUP2 LT PUSH2 0x22AD JUMPI PUSH2 0x22AD PUSH2 0x5989 JUMP JUMPDEST PUSH1 0x20 MUL PUSH1 0x20 ADD ADD MLOAD MULMOD ADDMOD DUP4 PUSH1 0x8 DUP2 MLOAD DUP2 LT PUSH2 0x22CA JUMPI PUSH2 0x22CA PUSH2 0x5989 JUMP JUMPDEST PUSH1 0x20 MUL PUSH1 0x20 ADD ADD MLOAD MULMOD DUP3 PUSH1 0x12 DUP2 MLOAD DUP2 LT PUSH2 0x22E6 JUMPI PUSH2 0x22E6 PUSH2 0x5989 JUMP JUMPDEST PUSH1 0x20 MUL PUSH1 0x20 ADD ADD DUP2 DUP2 MSTORE POP POP DUP2 PUSH1 0x1E DUP2 MLOAD DUP2 LT PUSH2 0x2305 JUMPI PUSH2 0x2305 PUSH2 0x5989 JUMP JUMPDEST PUSH1 0x20 MUL PUSH1 0x20 ADD ADD MLOAD PUSH0 DUP1 MLOAD PUSH1 0x20 PUSH2 0x5A0E DUP4 CODECOPY DUP2 MLOAD SWAP2 MSTORE PUSH2 0x2325 SWAP2 SWAP1 PUSH2 0x59B1 JUMP JUMPDEST DUP3 PUSH1 0x15 DUP2 MLOAD DUP2 LT PUSH2 0x2338 JUMPI PUSH2 0x2338 PUSH2 0x5989 JUMP JUMPDEST PUSH1 0x20 MUL PUSH1 0x20 ADD ADD DUP2 DUP2 MSTORE POP POP DUP2 PUSH1 0x20 DUP2 MLOAD DUP2 LT PUSH2 0x2357 JUMPI PUSH2 0x2357 PUSH2 0x5989 JUMP JUMPDEST PUSH1 0x20 MUL PUSH1 0x20 ADD ADD MLOAD PUSH0 DUP1 MLOAD PUSH1 0x20 PUSH2 0x5A0E DUP4 CODECOPY DUP2 MLOAD SWAP2 MSTORE PUSH2 0x2377 SWAP2 SWAP1 PUSH2 0x59B1 JUMP JUMPDEST DUP3 PUSH1 0x1D DUP2 MLOAD DUP2 LT PUSH2 0x238A JUMPI PUSH2 0x238A PUSH2 0x5989 JUMP JUMPDEST PUSH1 0x20 SWAP1 DUP2 MUL SWAP2 SWAP1 SWAP2 ADD ADD MSTORE PUSH0 DUP1 MLOAD PUSH1 0x20 PUSH2 0x5A0E DUP4 CODECOPY DUP2 MLOAD SWAP2 MSTORE DUP1 PUSH0 DUP1 MLOAD PUSH1 0x20 PUSH2 0x5A0E DUP4 CODECOPY DUP2 MLOAD SWAP2 MSTORE DUP1 DUP10 DUP10 PUSH1 0x3E DUP2 DUP2 LT PUSH2 0x23C6 JUMPI PUSH2 0x23C6 PUSH2 0x5989 JUMP JUMPDEST SWAP1 POP PUSH1 0x20 MUL ADD CALLDATALOAD DUP7 PUSH1 0x1D DUP2 MLOAD DUP2 LT PUSH2 0x23E0 JUMPI PUSH2 0x23E0 PUSH2 0x5989 JUMP JUMPDEST PUSH1 0x20 MUL PUSH1 0x20 ADD ADD MLOAD MULMOD PUSH0 DUP1 MLOAD PUSH1 0x20 PUSH2 0x5A0E DUP4 CODECOPY DUP2 MLOAD SWAP2 MSTORE DUP11 DUP11 PUSH1 0x3D DUP2 DUP2 LT PUSH2 0x240A JUMPI PUSH2 0x240A PUSH2 0x5989 JUMP JUMPDEST SWAP1 POP PUSH1 0x20 MUL ADD CALLDATALOAD DUP8 PUSH1 0x15 DUP2 MLOAD DUP2 LT PUSH2 0x2424 JUMPI PUSH2 0x2424 PUSH2 0x5989 JUMP JUMPDEST PUSH1 0x20 MUL PUSH1 0x20 ADD ADD MLOAD MULMOD ADDMOD PUSH0 DUP1 MLOAD PUSH1 0x20 PUSH2 0x5A0E DUP4 CODECOPY DUP2 MLOAD SWAP2 MSTORE DUP6 PUSH1 0x9 DUP2 MLOAD DUP2 LT PUSH2 0x244F JUMPI PUSH2 0x244F PUSH2 0x5989 JUMP JUMPDEST PUSH1 0x20 MUL PUSH1 0x20 ADD ADD MLOAD PUSH0 DUP1 MLOAD PUSH1 0x20 PUSH2 0x5A0E DUP4 CODECOPY DUP2 MLOAD SWAP2 MSTORE DUP1 PUSH2 0x2472 JUMPI PUSH2 0x2472 PUSH2 0x5975 JUMP JUMPDEST PUSH0 DUP1 MLOAD PUSH1 0x20 PUSH2 0x5A0E DUP4 CODECOPY DUP2 MLOAD SWAP2 MSTORE DUP13 DUP13 PUSH1 0x3E DUP2 DUP2 LT PUSH2 0x2493 JUMPI PUSH2 0x2493 PUSH2 0x5989 JUMP JUMPDEST SWAP1 POP PUSH1 0x20 MUL ADD CALLDATALOAD DUP10 PUSH1 0x1A DUP2 MLOAD DUP2 LT PUSH2 0x24AD JUMPI PUSH2 0x24AD PUSH2 0x5989 JUMP JUMPDEST PUSH1 0x20 MUL PUSH1 0x20 ADD ADD MLOAD MULMOD PUSH0 DUP1 MLOAD PUSH1 0x20 PUSH2 0x5A0E DUP4 CODECOPY DUP2 MLOAD SWAP2 MSTORE DUP14 DUP14 PUSH1 0x3D DUP2 DUP2 LT PUSH2 0x24D7 JUMPI PUSH2 0x24D7 PUSH2 0x5989 JUMP JUMPDEST SWAP1 POP PUSH1 0x20 MUL ADD CALLDATALOAD DUP11 PUSH1 0x17 DUP2 MLOAD DUP2 LT PUSH2 0x24F1 JUMPI PUSH2 0x24F1 PUSH2 0x5989 JUMP JUMPDEST PUSH1 0x20 MUL PUSH1 0x20 ADD ADD MLOAD MULMOD ADDMOD MULMOD ADDMOD DUP4 PUSH1 0x7 DUP2 MLOAD DUP2 LT PUSH2 0x2510 JUMPI PUSH2 0x2510 PUSH2 0x5989 JUMP JUMPDEST PUSH1 0x20 MUL PUSH1 0x20 ADD ADD MLOAD MULMOD DUP3 PUSH1 0x1E DUP2 MLOAD DUP2 LT PUSH2 0x252C JUMPI PUSH2 0x252C PUSH2 0x5989 JUMP JUMPDEST PUSH1 0x20 SWAP1 DUP2 MUL SWAP2 SWAP1 SWAP2 ADD ADD MSTORE PUSH0 DUP1 MLOAD PUSH1 0x20 PUSH2 0x5A0E DUP4 CODECOPY DUP2 MLOAD SWAP2 MSTORE DUP1 PUSH0 DUP1 MLOAD PUSH1 0x20 PUSH2 0x5A0E DUP4 CODECOPY DUP2 MLOAD SWAP2 MSTORE DUP1 DUP10 DUP10 PUSH1 0x6E DUP2 DUP2 LT PUSH2 0x2568 JUMPI PUSH2 0x2568 PUSH2 0x5989 JUMP JUMPDEST SWAP1 POP PUSH1 0x20 MUL ADD CALLDATALOAD DUP7 PUSH1 0x1D DUP2 MLOAD DUP2 LT PUSH2 0x2582 JUMPI PUSH2 0x2582 PUSH2 0x5989 JUMP JUMPDEST PUSH1 0x20 MUL PUSH1 0x20 ADD ADD MLOAD MULMOD PUSH0 DUP1 MLOAD PUSH1 0x20 PUSH2 0x5A0E DUP4 CODECOPY DUP2 MLOAD SWAP2 MSTORE DUP11 DUP11 PUSH1 0x6D DUP2 DUP2 LT PUSH2 0x25AC JUMPI PUSH2 0x25AC PUSH2 0x5989 JUMP JUMPDEST SWAP1 POP PUSH1 0x20 MUL ADD CALLDATALOAD DUP8 PUSH1 0x15 DUP2 MLOAD DUP2 LT PUSH2 0x25C6 JUMPI PUSH2 0x25C6 PUSH2 0x5989 JUMP JUMPDEST PUSH1 0x20 MUL PUSH1 0x20 ADD ADD MLOAD MULMOD ADDMOD PUSH0 DUP1 MLOAD PUSH1 0x20 PUSH2 0x5A0E DUP4 CODECOPY DUP2 MLOAD SWAP2 MSTORE DUP6 PUSH1 0x9 DUP2 MLOAD DUP2 LT PUSH2 0x25F1 JUMPI PUSH2 0x25F1 PUSH2 0x5989 JUMP JUMPDEST PUSH1 0x20 MUL PUSH1 0x20 ADD ADD MLOAD PUSH0 DUP1 MLOAD PUSH1 0x20 PUSH2 0x5A0E DUP4 CODECOPY DUP2 MLOAD SWAP2 MSTORE DUP1 PUSH2 0x2614 JUMPI PUSH2 0x2614 PUSH2 0x5975 JUMP JUMPDEST PUSH0 DUP1 MLOAD PUSH1 0x20 PUSH2 0x5A0E DUP4 CODECOPY DUP2 MLOAD SWAP2 MSTORE DUP13 DUP13 PUSH1 0x6E DUP2 DUP2 LT PUSH2 0x2635 JUMPI PUSH2 0x2635 PUSH2 0x5989 JUMP JUMPDEST SWAP1 POP PUSH1 0x20 MUL ADD CALLDATALOAD DUP10 PUSH1 0x1A DUP2 MLOAD DUP2 LT PUSH2 0x264F JUMPI PUSH2 0x264F PUSH2 0x5989 JUMP JUMPDEST PUSH1 0x20 MUL PUSH1 0x20 ADD ADD MLOAD MULMOD PUSH0 DUP1 MLOAD PUSH1 0x20 PUSH2 0x5A0E DUP4 CODECOPY DUP2 MLOAD SWAP2 MSTORE DUP14 DUP14 PUSH1 0x6D DUP2 DUP2 LT PUSH2 0x2679 JUMPI PUSH2 0x2679 PUSH2 0x5989 JUMP JUMPDEST SWAP1 POP PUSH1 0x20 MUL ADD CALLDATALOAD DUP11 PUSH1 0x17 DUP2 MLOAD DUP2 LT PUSH2 0x2693 JUMPI PUSH2 0x2693 PUSH2 0x5989 JUMP JUMPDEST PUSH1 0x20 MUL PUSH1 0x20 ADD ADD MLOAD MULMOD ADDMOD MULMOD ADDMOD DUP4 PUSH1 0x1E DUP2 MLOAD DUP2 LT PUSH2 0x26B2 JUMPI PUSH2 0x26B2 PUSH2 0x5989 JUMP JUMPDEST PUSH1 0x20 MUL PUSH1 0x20 ADD ADD MLOAD ADDMOD DUP3 PUSH1 0x1E DUP2 MLOAD DUP2 LT PUSH2 0x26CE JUMPI PUSH2 0x26CE PUSH2 0x5989 JUMP JUMPDEST PUSH1 0x20 SWAP1 DUP2 MUL SWAP2 SWAP1 SWAP2 ADD ADD MSTORE PUSH0 DUP1 MLOAD PUSH1 0x20 PUSH2 0x5A0E DUP4 CODECOPY DUP2 MLOAD SWAP2 MSTORE DUP1 PUSH0 DUP1 MLOAD PUSH1 0x20 PUSH2 0x5A0E DUP4 CODECOPY DUP2 MLOAD SWAP2 MSTORE DUP1 DUP10 DUP10 PUSH1 0x70 DUP2 DUP2 LT PUSH2 0x270A JUMPI PUSH2 0x270A PUSH2 0x5989 JUMP JUMPDEST SWAP1 POP PUSH1 0x20 MUL ADD CALLDATALOAD DUP7 PUSH1 0x1D DUP2 MLOAD DUP2 LT PUSH2 0x2724 JUMPI PUSH2 0x2724 PUSH2 0x5989 JUMP JUMPDEST PUSH1 0x20 MUL PUSH1 0x20 ADD ADD MLOAD MULMOD PUSH0 DUP1 MLOAD PUSH1 0x20 PUSH2 0x5A0E DUP4 CODECOPY DUP2 MLOAD SWAP2 MSTORE DUP11 DUP11 PUSH1 0x6F DUP2 DUP2 LT PUSH2 0x274E JUMPI PUSH2 0x274E PUSH2 0x5989 JUMP JUMPDEST SWAP1 POP PUSH1 0x20 MUL ADD CALLDATALOAD DUP8 PUSH1 0x15 DUP2 MLOAD DUP2 LT PUSH2 0x2768 JUMPI PUSH2 0x2768 PUSH2 0x5989 JUMP JUMPDEST PUSH1 0x20 MUL PUSH1 0x20 ADD ADD MLOAD MULMOD ADDMOD PUSH0 DUP1 MLOAD PUSH1 0x20 PUSH2 0x5A0E DUP4 CODECOPY DUP2 MLOAD SWAP2 MSTORE DUP6 PUSH1 0x9 DUP2 MLOAD DUP2 LT PUSH2 0x2793 JUMPI PUSH2 0x2793 PUSH2 0x5989 JUMP JUMPDEST PUSH1 0x20 MUL PUSH1 0x20 ADD ADD MLOAD PUSH0 DUP1 MLOAD PUSH1 0x20 PUSH2 0x5A0E DUP4 CODECOPY DUP2 MLOAD SWAP2 MSTORE DUP1 PUSH2 0x27B6 JUMPI PUSH2 0x27B6 PUSH2 0x5975 JUMP JUMPDEST PUSH0 DUP1 MLOAD PUSH1 0x20 PUSH2 0x5A0E DUP4 CODECOPY DUP2 MLOAD SWAP2 MSTORE DUP13 DUP13 PUSH1 0x70 DUP2 DUP2 LT PUSH2 0x27D7 JUMPI PUSH2 0x27D7 PUSH2 0x5989 JUMP JUMPDEST SWAP1 POP PUSH1 0x20 MUL ADD CALLDATALOAD DUP10 PUSH1 0x1A DUP2 MLOAD DUP2 LT PUSH2 0x27F1 JUMPI PUSH2 0x27F1 PUSH2 0x5989 JUMP JUMPDEST PUSH1 0x20 MUL PUSH1 0x20 ADD ADD MLOAD MULMOD PUSH0 DUP1 MLOAD PUSH1 0x20 PUSH2 0x5A0E DUP4 CODECOPY DUP2 MLOAD SWAP2 MSTORE DUP14 DUP14 PUSH1 0x6F DUP2 DUP2 LT PUSH2 0x281B JUMPI PUSH2 0x281B PUSH2 0x5989 JUMP JUMPDEST SWAP1 POP PUSH1 0x20 MUL ADD CALLDATALOAD DUP11 PUSH1 0x17 DUP2 MLOAD DUP2 LT PUSH2 0x2835 JUMPI PUSH2 0x2835 PUSH2 0x5989 JUMP JUMPDEST PUSH1 0x20 MUL PUSH1 0x20 ADD ADD MLOAD MULMOD ADDMOD MULMOD ADDMOD PUSH0 DUP1 MLOAD PUSH1 0x20 PUSH2 0x5A0E DUP4 CODECOPY DUP2 MLOAD SWAP2 MSTORE DUP5 PUSH1 0x1E DUP2 MLOAD DUP2 LT PUSH2 0x2862 JUMPI PUSH2 0x2862 PUSH2 0x5989 JUMP JUMPDEST PUSH1 0x20 MUL PUSH1 0x20 ADD ADD MLOAD DUP6 PUSH1 0x7 DUP2 MLOAD DUP2 LT PUSH2 0x287D JUMPI PUSH2 0x287D PUSH2 0x5989 JUMP JUMPDEST PUSH1 0x20 MUL PUSH1 0x20 ADD ADD MLOAD MULMOD ADDMOD DUP3 PUSH1 0x1E DUP2 MLOAD DUP2 LT PUSH2 0x289A JUMPI PUSH2 0x289A PUSH2 0x5989 JUMP JUMPDEST PUSH1 0x20 SWAP1 DUP2 MUL SWAP2 SWAP1 SWAP2 ADD ADD MSTORE PUSH0 DUP1 MLOAD PUSH1 0x20 PUSH2 0x5A0E DUP4 CODECOPY DUP2 MLOAD SWAP2 MSTORE DUP1 PUSH0 DUP1 MLOAD PUSH1 0x20 PUSH2 0x5A0E DUP4 CODECOPY DUP2 MLOAD SWAP2 MSTORE DUP1 DUP10 DUP10 PUSH1 0x75 DUP2 DUP2 LT PUSH2 0x28D6 JUMPI PUSH2 0x28D6 PUSH2 0x5989 JUMP JUMPDEST SWAP1 POP PUSH1 0x20 MUL ADD CALLDATALOAD DUP7 PUSH1 0x1D DUP2 MLOAD DUP2 LT PUSH2 0x28F0 JUMPI PUSH2 0x28F0 PUSH2 0x5989 JUMP JUMPDEST PUSH1 0x20 MUL PUSH1 0x20 ADD ADD MLOAD MULMOD PUSH0 DUP1 MLOAD PUSH1 0x20 PUSH2 0x5A0E DUP4 CODECOPY DUP2 MLOAD SWAP2 MSTORE DUP11 DUP11 PUSH1 0x74 DUP2 DUP2 LT PUSH2 0x291A JUMPI PUSH2 0x291A PUSH2 0x5989 JUMP JUMPDEST SWAP1 POP PUSH1 0x20 MUL ADD CALLDATALOAD DUP8 PUSH1 0x15 DUP2 MLOAD DUP2 LT PUSH2 0x2934 JUMPI PUSH2 0x2934 PUSH2 0x5989 JUMP JUMPDEST PUSH1 0x20 MUL PUSH1 0x20 ADD ADD MLOAD MULMOD ADDMOD PUSH0 DUP1 MLOAD PUSH1 0x20 PUSH2 0x5A0E DUP4 CODECOPY DUP2 MLOAD SWAP2 MSTORE DUP6 PUSH1 0x9 DUP2 MLOAD DUP2 LT PUSH2 0x295F JUMPI PUSH2 0x295F PUSH2 0x5989 JUMP JUMPDEST PUSH1 0x20 MUL PUSH1 0x20 ADD ADD MLOAD PUSH0 DUP1 MLOAD PUSH1 0x20 PUSH2 0x5A0E DUP4 CODECOPY DUP2 MLOAD SWAP2 MSTORE DUP1 PUSH2 0x2982 JUMPI PUSH2 0x2982 PUSH2 0x5975 JUMP JUMPDEST PUSH0 DUP1 MLOAD PUSH1 0x20 PUSH2 0x5A0E DUP4 CODECOPY DUP2 MLOAD SWAP2 MSTORE DUP13 DUP13 PUSH1 0x75 DUP2 DUP2 LT PUSH2 0x29A3 JUMPI PUSH2 0x29A3 PUSH2 0x5989 JUMP JUMPDEST SWAP1 POP PUSH1 0x20 MUL ADD CALLDATALOAD DUP10 PUSH1 0x1A DUP2 MLOAD DUP2 LT PUSH2 0x29BD JUMPI PUSH2 0x29BD PUSH2 0x5989 JUMP JUMPDEST PUSH1 0x20 MUL PUSH1 0x20 ADD ADD MLOAD MULMOD PUSH0 DUP1 MLOAD PUSH1 0x20 PUSH2 0x5A0E DUP4 CODECOPY DUP2 MLOAD SWAP2 MSTORE DUP14 DUP14 PUSH1 0x74 DUP2 DUP2 LT PUSH2 0x29E7 JUMPI PUSH2 0x29E7 PUSH2 0x5989 JUMP JUMPDEST SWAP1 POP PUSH1 0x20 MUL ADD CALLDATALOAD DUP11 PUSH1 0x17 DUP2 MLOAD DUP2 LT PUSH2 0x2A01 JUMPI PUSH2 0x2A01 PUSH2 0x5989 JUMP JUMPDEST PUSH1 0x20 MUL PUSH1 0x20 ADD ADD MLOAD MULMOD ADDMOD MULMOD ADDMOD PUSH0 DUP1 MLOAD PUSH1 0x20 PUSH2 0x5A0E DUP4 CODECOPY DUP2 MLOAD SWAP2 MSTORE DUP5 PUSH1 0x1E DUP2 MLOAD DUP2 LT PUSH2 0x2A2E JUMPI PUSH2 0x2A2E PUSH2 0x5989 JUMP JUMPDEST PUSH1 0x20 MUL PUSH1 0x20 ADD ADD MLOAD DUP6 PUSH1 0x7 DUP2 MLOAD DUP2 LT PUSH2 0x2A49 JUMPI PUSH2 0x2A49 PUSH2 0x5989 JUMP JUMPDEST PUSH1 0x20 MUL PUSH1 0x20 ADD ADD MLOAD MULMOD ADDMOD DUP3 PUSH1 0x1E DUP2 MLOAD DUP2 LT PUSH2 0x2A66 JUMPI PUSH2 0x2A66 PUSH2 0x5989 JUMP JUMPDEST PUSH1 0x20 SWAP1 DUP2 MUL SWAP2 SWAP1 SWAP2 ADD ADD MSTORE PUSH0 DUP1 MLOAD PUSH1 0x20 PUSH2 0x5A0E DUP4 CODECOPY DUP2 MLOAD SWAP2 MSTORE DUP1 PUSH0 DUP1 MLOAD PUSH1 0x20 PUSH2 0x5A0E DUP4 CODECOPY DUP2 MLOAD SWAP2 MSTORE DUP1 DUP10 DUP10 PUSH1 0x7A DUP2 DUP2 LT PUSH2 0x2AA2 JUMPI PUSH2 0x2AA2 PUSH2 0x5989 JUMP JUMPDEST SWAP1 POP PUSH1 0x20 MUL ADD CALLDATALOAD DUP7 PUSH1 0x1D DUP2 MLOAD DUP2 LT PUSH2 0x2ABC JUMPI PUSH2 0x2ABC PUSH2 0x5989 JUMP JUMPDEST PUSH1 0x20 MUL PUSH1 0x20 ADD ADD MLOAD MULMOD PUSH0 DUP1 MLOAD PUSH1 0x20 PUSH2 0x5A0E DUP4 CODECOPY DUP2 MLOAD SWAP2 MSTORE DUP11 DUP11 PUSH1 0x79 DUP2 DUP2 LT PUSH2 0x2AE6 JUMPI PUSH2 0x2AE6 PUSH2 0x5989 JUMP JUMPDEST SWAP1 POP PUSH1 0x20 MUL ADD CALLDATALOAD DUP8 PUSH1 0x15 DUP2 MLOAD DUP2 LT PUSH2 0x2B00 JUMPI PUSH2 0x2B00 PUSH2 0x5989 JUMP JUMPDEST PUSH1 0x20 MUL PUSH1 0x20 ADD ADD MLOAD MULMOD ADDMOD PUSH0 DUP1 MLOAD PUSH1 0x20 PUSH2 0x5A0E DUP4 CODECOPY DUP2 MLOAD SWAP2 MSTORE DUP6 PUSH1 0x9 DUP2 MLOAD DUP2 LT PUSH2 0x2B2B JUMPI PUSH2 0x2B2B PUSH2 0x5989 JUMP JUMPDEST PUSH1 0x20 MUL PUSH1 0x20 ADD ADD MLOAD PUSH0 DUP1 MLOAD PUSH1 0x20 PUSH2 0x5A0E DUP4 CODECOPY DUP2 MLOAD SWAP2 MSTORE DUP1 PUSH2 0x2B4E JUMPI PUSH2 0x2B4E PUSH2 0x5975 JUMP JUMPDEST PUSH0 DUP1 MLOAD PUSH1 0x20 PUSH2 0x5A0E DUP4 CODECOPY DUP2 MLOAD SWAP2 MSTORE DUP13 DUP13 PUSH1 0x7A DUP2 DUP2 LT PUSH2 0x2B6F JUMPI PUSH2 0x2B6F PUSH2 0x5989 JUMP JUMPDEST SWAP1 POP PUSH1 0x20 MUL ADD CALLDATALOAD DUP10 PUSH1 0x1A DUP2 MLOAD DUP2 LT PUSH2 0x2B89 JUMPI PUSH2 0x2B89 PUSH2 0x5989 JUMP JUMPDEST PUSH1 0x20 MUL PUSH1 0x20 ADD ADD MLOAD MULMOD PUSH0 DUP1 MLOAD PUSH1 0x20 PUSH2 0x5A0E DUP4 CODECOPY DUP2 MLOAD SWAP2 MSTORE DUP14 DUP14 PUSH1 0x79 DUP2 DUP2 LT PUSH2 0x2BB3 JUMPI PUSH2 0x2BB3 PUSH2 0x5989 JUMP JUMPDEST SWAP1 POP PUSH1 0x20 MUL ADD CALLDATALOAD DUP11 PUSH1 0x17 DUP2 MLOAD DUP2 LT PUSH2 0x2BCD JUMPI PUSH2 0x2BCD PUSH2 0x5989 JUMP JUMPDEST PUSH1 0x20 MUL PUSH1 0x20 ADD ADD MLOAD MULMOD ADDMOD MULMOD ADDMOD PUSH0 DUP1 MLOAD PUSH1 0x20 PUSH2 0x5A0E DUP4 CODECOPY DUP2 MLOAD SWAP2 MSTORE DUP5 PUSH1 0x1E DUP2 MLOAD DUP2 LT PUSH2 0x2BFA JUMPI PUSH2 0x2BFA PUSH2 0x5989 JUMP JUMPDEST PUSH1 0x20 MUL PUSH1 0x20 ADD ADD MLOAD DUP6 PUSH1 0x7 DUP2 MLOAD DUP2 LT PUSH2 0x2C15 JUMPI PUSH2 0x2C15 PUSH2 0x5989 JUMP JUMPDEST PUSH1 0x20 MUL PUSH1 0x20 ADD ADD MLOAD MULMOD ADDMOD DUP3 PUSH1 0x1E DUP2 MLOAD DUP2 LT PUSH2 0x2C32 JUMPI PUSH2 0x2C32 PUSH2 0x5989 JUMP JUMPDEST PUSH1 0x20 SWAP1 DUP2 MUL SWAP2 SWAP1 SWAP2 ADD ADD MSTORE PUSH0 DUP1 MLOAD PUSH1 0x20 PUSH2 0x5A0E DUP4 CODECOPY DUP2 MLOAD SWAP2 MSTORE DUP3 PUSH1 0x1B DUP2 MLOAD DUP2 LT PUSH2 0x2C5E JUMPI PUSH2 0x2C5E PUSH2 0x5989 JUMP JUMPDEST PUSH1 0x20 MUL PUSH1 0x20 ADD ADD MLOAD PUSH0 DUP1 MLOAD PUSH1 0x20 PUSH2 0x5A0E DUP4 CODECOPY DUP2 MLOAD SWAP2 MSTORE DUP1 PUSH2 0x2C81 JUMPI PUSH2 0x2C81 PUSH2 0x5975 JUMP JUMPDEST DUP5 PUSH1 0x19 DUP2 MLOAD DUP2 LT PUSH2 0x2C94 JUMPI PUSH2 0x2C94 PUSH2 0x5989 JUMP JUMPDEST PUSH1 0x20 MUL PUSH1 0x20 ADD ADD MLOAD DUP6 PUSH1 0x14 DUP2 MLOAD DUP2 LT PUSH2 0x2CAF JUMPI PUSH2 0x2CAF PUSH2 0x5989 JUMP JUMPDEST PUSH1 0x20 MUL PUSH1 0x20 ADD ADD MLOAD MULMOD MULMOD DUP3 PUSH1 0x19 DUP2 MLOAD DUP2 LT PUSH2 0x2CCC JUMPI PUSH2 0x2CCC PUSH2 0x5989 JUMP JUMPDEST PUSH1 0x20 SWAP1 DUP2 MUL SWAP2 SWAP1 SWAP2 ADD ADD MSTORE PUSH2 0x2D4C PUSH1 0x1 PUSH0 DUP1 MLOAD PUSH1 0x20 PUSH2 0x5A0E DUP4 CODECOPY DUP2 MLOAD SWAP2 MSTORE DUP5 PUSH1 0x18 DUP2 MLOAD DUP2 LT PUSH2 0x2CFD JUMPI PUSH2 0x2CFD PUSH2 0x5989 JUMP JUMPDEST PUSH1 0x20 MUL PUSH1 0x20 ADD ADD MLOAD PUSH0 DUP1 MLOAD PUSH1 0x20 PUSH2 0x5A0E DUP4 CODECOPY DUP2 MLOAD SWAP2 MSTORE PUSH2 0x2D1D SWAP2 SWAP1 PUSH2 0x59B1 JUMP JUMPDEST DUP6 PUSH1 0x6 DUP2 MLOAD DUP2 LT PUSH2 0x2D30 JUMPI PUSH2 0x2D30 PUSH2 0x5989 JUMP JUMPDEST PUSH1 0x20 MUL PUSH1 0x20 ADD ADD MLOAD ADDMOD DUP7 DUP7 PUSH1 0x11 DUP2 DUP2 LT PUSH2 0x1EBE JUMPI PUSH2 0x1EBE PUSH2 0x5989 JUMP JUMPDEST DUP3 PUSH1 0x20 DUP2 MLOAD DUP2 LT PUSH2 0x2D5F JUMPI PUSH2 0x2D5F PUSH2 0x5989 JUMP JUMPDEST PUSH1 0x20 SWAP1 DUP2 MUL SWAP2 SWAP1 SWAP2 ADD ADD MSTORE PUSH0 DUP1 MLOAD PUSH1 0x20 PUSH2 0x5A0E DUP4 CODECOPY DUP2 MLOAD SWAP2 MSTORE DUP3 PUSH1 0x20 DUP2 MLOAD DUP2 LT PUSH2 0x2D8B JUMPI PUSH2 0x2D8B PUSH2 0x5989 JUMP JUMPDEST PUSH1 0x20 MUL PUSH1 0x20 ADD ADD MLOAD DUP4 PUSH1 0x17 DUP2 MLOAD DUP2 LT PUSH2 0x2DA6 JUMPI PUSH2 0x2DA6 PUSH2 0x5989 JUMP JUMPDEST PUSH1 0x20 MUL PUSH1 0x20 ADD ADD MLOAD MULMOD DUP3 PUSH1 0x21 DUP2 MLOAD DUP2 LT PUSH2 0x2DC2 JUMPI PUSH2 0x2DC2 PUSH2 0x5989 JUMP JUMPDEST PUSH1 0x20 SWAP1 DUP2 MUL SWAP2 SWAP1 SWAP2 ADD ADD MSTORE PUSH2 0x2E42 PUSH1 0x1 PUSH0 DUP1 MLOAD PUSH1 0x20 PUSH2 0x5A0E DUP4 CODECOPY DUP2 MLOAD SWAP2 MSTORE DUP5 PUSH1 0x18 DUP2 MLOAD DUP2 LT PUSH2 0x2DF3 JUMPI PUSH2 0x2DF3 PUSH2 0x5989 JUMP JUMPDEST PUSH1 0x20 MUL PUSH1 0x20 ADD ADD MLOAD PUSH0 DUP1 MLOAD PUSH1 0x20 PUSH2 0x5A0E DUP4 CODECOPY DUP2 MLOAD SWAP2 MSTORE PUSH2 0x2E13 SWAP2 SWAP1 PUSH2 0x59B1 JUMP JUMPDEST DUP6 PUSH1 0x13 DUP2 MLOAD DUP2 LT PUSH2 0x2E26 JUMPI PUSH2 0x2E26 PUSH2 0x5989 JUMP JUMPDEST PUSH1 0x20 MUL PUSH1 0x20 ADD ADD MLOAD ADDMOD DUP7 DUP7 PUSH1 0x12 DUP2 DUP2 LT PUSH2 0x1EBE JUMPI PUSH2 0x1EBE PUSH2 0x5989 JUMP JUMPDEST DUP3 PUSH1 0x22 DUP2 MLOAD DUP2 LT PUSH2 0x2E55 JUMPI PUSH2 0x2E55 PUSH2 0x5989 JUMP JUMPDEST PUSH1 0x20 SWAP1 DUP2 MUL SWAP2 SWAP1 SWAP2 ADD ADD MSTORE PUSH0 DUP1 MLOAD PUSH1 0x20 PUSH2 0x5A0E DUP4 CODECOPY DUP2 MLOAD SWAP2 MSTORE DUP3 PUSH1 0x22 DUP2 MLOAD DUP2 LT PUSH2 0x2E81 JUMPI PUSH2 0x2E81 PUSH2 0x5989 JUMP JUMPDEST PUSH1 0x20 MUL PUSH1 0x20 ADD ADD MLOAD DUP4 PUSH1 0x1A DUP2 MLOAD DUP2 LT PUSH2 0x2E9C JUMPI PUSH2 0x2E9C PUSH2 0x5989 JUMP JUMPDEST PUSH1 0x20 MUL PUSH1 0x20 ADD ADD MLOAD MULMOD DUP3 PUSH1 0x24 DUP2 MLOAD DUP2 LT PUSH2 0x2EB8 JUMPI PUSH2 0x2EB8 PUSH2 0x5989 JUMP JUMPDEST PUSH1 0x20 SWAP1 DUP2 MUL SWAP2 SWAP1 SWAP2 ADD ADD MSTORE PUSH2 0x2F38 PUSH1 0x1 PUSH0 DUP1 MLOAD PUSH1 0x20 PUSH2 0x5A0E DUP4 CODECOPY DUP2 MLOAD SWAP2 MSTORE DUP5 PUSH1 0x6 DUP2 MLOAD DUP2 LT PUSH2 0x2EE9 JUMPI PUSH2 0x2EE9 PUSH2 0x5989 JUMP JUMPDEST PUSH1 0x20 MUL PUSH1 0x20 ADD ADD MLOAD PUSH0 DUP1 MLOAD PUSH1 0x20 PUSH2 0x5A0E DUP4 CODECOPY DUP2 MLOAD SWAP2 MSTORE PUSH2 0x2F09 SWAP2 SWAP1 PUSH2 0x59B1 JUMP JUMPDEST DUP6 PUSH1 0x18 DUP2 MLOAD DUP2 LT PUSH2 0x2F1C JUMPI PUSH2 0x2F1C PUSH2 0x5989 JUMP JUMPDEST PUSH1 0x20 MUL PUSH1 0x20 ADD ADD MLOAD ADDMOD DUP7 DUP7 PUSH1 0x13 DUP2 DUP2 LT PUSH2 0x1EBE JUMPI PUSH2 0x1EBE PUSH2 0x5989 JUMP JUMPDEST DUP3 PUSH1 0x25 DUP2 MLOAD DUP2 LT PUSH2 0x2F4B JUMPI PUSH2 0x2F4B PUSH2 0x5989 JUMP JUMPDEST PUSH1 0x20 SWAP1 DUP2 MUL SWAP2 SWAP1 SWAP2 ADD ADD MSTORE PUSH2 0x2FCB PUSH1 0x1 PUSH0 DUP1 MLOAD PUSH1 0x20 PUSH2 0x5A0E DUP4 CODECOPY DUP2 MLOAD SWAP2 MSTORE DUP5 PUSH1 0x13 DUP2 MLOAD DUP2 LT PUSH2 0x2F7C JUMPI PUSH2 0x2F7C PUSH2 0x5989 JUMP JUMPDEST PUSH1 0x20 MUL PUSH1 0x20 ADD ADD MLOAD PUSH0 DUP1 MLOAD PUSH1 0x20 PUSH2 0x5A0E DUP4 CODECOPY DUP2 MLOAD SWAP2 MSTORE PUSH2 0x2F9C SWAP2 SWAP1 PUSH2 0x59B1 JUMP JUMPDEST DUP6 PUSH1 0x18 DUP2 MLOAD DUP2 LT PUSH2 0x2FAF JUMPI PUSH2 0x2FAF PUSH2 0x5989 JUMP JUMPDEST PUSH1 0x20 MUL PUSH1 0x20 ADD ADD MLOAD ADDMOD DUP7 DUP7 PUSH1 0x14 DUP2 DUP2 LT PUSH2 0x1EBE JUMPI PUSH2 0x1EBE PUSH2 0x5989 JUMP JUMPDEST DUP3 PUSH1 0x26 DUP2 MLOAD DUP2 LT PUSH2 0x2FDE JUMPI PUSH2 0x2FDE PUSH2 0x5989 JUMP JUMPDEST PUSH1 0x20 SWAP1 DUP2 MUL SWAP2 SWAP1 SWAP2 ADD ADD MSTORE PUSH0 DUP1 MLOAD PUSH1 0x20 PUSH2 0x5A0E DUP4 CODECOPY DUP2 MLOAD SWAP2 MSTORE DUP3 PUSH1 0x26 DUP2 MLOAD DUP2 LT PUSH2 0x300A JUMPI PUSH2 0x300A PUSH2 0x5989 JUMP JUMPDEST PUSH1 0x20 MUL PUSH1 0x20 ADD ADD MLOAD DUP4 PUSH1 0x25 DUP2 MLOAD DUP2 LT PUSH2 0x3025 JUMPI PUSH2 0x3025 PUSH2 0x5989 JUMP JUMPDEST PUSH1 0x20 MUL PUSH1 0x20 ADD ADD MLOAD MULMOD DUP3 PUSH1 0x27 DUP2 MLOAD DUP2 LT PUSH2 0x3041 JUMPI PUSH2 0x3041 PUSH2 0x5989 JUMP JUMPDEST PUSH1 0x20 SWAP1 DUP2 MUL SWAP2 SWAP1 SWAP2 ADD ADD MSTORE PUSH0 DUP1 MLOAD PUSH1 0x20 PUSH2 0x5A0E DUP4 CODECOPY DUP2 MLOAD SWAP2 MSTORE DUP3 PUSH1 0x18 DUP2 MLOAD DUP2 LT PUSH2 0x306D JUMPI PUSH2 0x306D PUSH2 0x5989 JUMP JUMPDEST PUSH1 0x20 MUL PUSH1 0x20 ADD ADD MLOAD DUP4 PUSH1 0x20 DUP2 MLOAD DUP2 LT PUSH2 0x3088 JUMPI PUSH2 0x3088 PUSH2 0x5989 JUMP JUMPDEST PUSH1 0x20 MUL PUSH1 0x20 ADD ADD MLOAD MULMOD DUP3 PUSH1 0x28 DUP2 MLOAD DUP2 LT PUSH2 0x30A4 JUMPI PUSH2 0x30A4 PUSH2 0x5989 JUMP JUMPDEST PUSH1 0x20 SWAP1 DUP2 MUL SWAP2 SWAP1 SWAP2 ADD ADD MSTORE PUSH0 DUP1 MLOAD PUSH1 0x20 PUSH2 0x5A0E DUP4 CODECOPY DUP2 MLOAD SWAP2 MSTORE DUP1 DUP4 PUSH1 0x28 DUP2 MLOAD DUP2 LT PUSH2 0x30D1 JUMPI PUSH2 0x30D1 PUSH2 0x5989 JUMP JUMPDEST PUSH1 0x20 MUL PUSH1 0x20 ADD ADD MLOAD DUP5 PUSH1 0x17 DUP2 MLOAD DUP2 LT PUSH2 0x30EC JUMPI PUSH2 0x30EC PUSH2 0x5989 JUMP JUMPDEST PUSH1 0x20 MUL PUSH1 0x20 ADD ADD MLOAD MULMOD PUSH2 0x310C SWAP1 PUSH0 DUP1 MLOAD PUSH1 0x20 PUSH2 0x5A0E DUP4 CODECOPY DUP2 MLOAD SWAP2 MSTORE PUSH2 0x59B1 JUMP JUMPDEST PUSH0 DUP1 MLOAD PUSH1 0x20 PUSH2 0x5A0E DUP4 CODECOPY DUP2 MLOAD SWAP2 MSTORE DUP5 PUSH1 0x20 DUP2 MLOAD DUP2 LT PUSH2 0x312D JUMPI PUSH2 0x312D PUSH2 0x5989 JUMP JUMPDEST PUSH1 0x20 MUL PUSH1 0x20 ADD ADD MLOAD DUP6 PUSH1 0x15 DUP2 MLOAD DUP2 LT PUSH2 0x3148 JUMPI PUSH2 0x3148 PUSH2 0x5989 JUMP JUMPDEST PUSH1 0x20 MUL PUSH1 0x20 ADD ADD MLOAD MULMOD ADDMOD DUP3 PUSH1 0x17 DUP2 MLOAD DUP2 LT PUSH2 0x3165 JUMPI PUSH2 0x3165 PUSH2 0x5989 JUMP JUMPDEST PUSH1 0x20 SWAP1 DUP2 MUL SWAP2 SWAP1 SWAP2 ADD ADD MSTORE PUSH0 DUP1 MLOAD PUSH1 0x20 PUSH2 0x5A0E DUP4 CODECOPY DUP2 MLOAD SWAP2 MSTORE DUP3 PUSH1 0x18 DUP2 MLOAD DUP2 LT PUSH2 0x3191 JUMPI PUSH2 0x3191 PUSH2 0x5989 JUMP JUMPDEST PUSH1 0x20 MUL PUSH1 0x20 ADD ADD MLOAD DUP4 PUSH1 0x22 DUP2 MLOAD DUP2 LT PUSH2 0x31AC JUMPI PUSH2 0x31AC PUSH2 0x5989 JUMP JUMPDEST PUSH1 0x20 MUL PUSH1 0x20 ADD ADD MLOAD MULMOD DUP3 PUSH1 0x18 DUP2 MLOAD DUP2 LT PUSH2 0x31C8 JUMPI PUSH2 0x31C8 PUSH2 0x5989 JUMP JUMPDEST PUSH1 0x20 SWAP1 DUP2 MUL SWAP2 SWAP1 SWAP2 ADD ADD MSTORE PUSH0 DUP1 MLOAD PUSH1 0x20 PUSH2 0x5A0E DUP4 CODECOPY DUP2 MLOAD SWAP2 MSTORE DUP1 DUP4 PUSH1 0x18 DUP2 MLOAD DUP2 LT PUSH2 0x31F5 JUMPI PUSH2 0x31F5 PUSH2 0x5989 JUMP JUMPDEST PUSH1 0x20 MUL PUSH1 0x20 ADD ADD MLOAD DUP5 PUSH1 0x1A DUP2 MLOAD DUP2 LT PUSH2 0x3210 JUMPI PUSH2 0x3210 PUSH2 0x5989 JUMP JUMPDEST PUSH1 0x20 MUL PUSH1 0x20 ADD ADD MLOAD MULMOD PUSH2 0x3230 SWAP1 PUSH0 DUP1 MLOAD PUSH1 0x20 PUSH2 0x5A0E DUP4 CODECOPY DUP2 MLOAD SWAP2 MSTORE PUSH2 0x59B1 JUMP JUMPDEST PUSH0 DUP1 MLOAD PUSH1 0x20 PUSH2 0x5A0E DUP4 CODECOPY DUP2 MLOAD SWAP2 MSTORE DUP5 PUSH1 0x22 DUP2 MLOAD DUP2 LT PUSH2 0x3251 JUMPI PUSH2 0x3251 PUSH2 0x5989 JUMP JUMPDEST PUSH1 0x20 MUL PUSH1 0x20 ADD ADD MLOAD DUP6 PUSH1 0x1D DUP2 MLOAD DUP2 LT PUSH2 0x326C JUMPI PUSH2 0x326C PUSH2 0x5989 JUMP JUMPDEST PUSH1 0x20 MUL PUSH1 0x20 ADD ADD MLOAD MULMOD ADDMOD DUP3 PUSH1 0x1A DUP2 MLOAD DUP2 LT PUSH2 0x3289 JUMPI PUSH2 0x3289 PUSH2 0x5989 JUMP JUMPDEST PUSH1 0x20 SWAP1 DUP2 MUL SWAP2 SWAP1 SWAP2 ADD ADD MSTORE PUSH0 DUP1 MLOAD PUSH1 0x20 PUSH2 0x5A0E DUP4 CODECOPY DUP2 MLOAD SWAP2 MSTORE DUP3 PUSH1 0x6 DUP2 MLOAD DUP2 LT PUSH2 0x32B5 JUMPI PUSH2 0x32B5 PUSH2 0x5989 JUMP JUMPDEST PUSH1 0x20 MUL PUSH1 0x20 ADD ADD MLOAD DUP4 PUSH1 0x25 DUP2 MLOAD DUP2 LT PUSH2 0x32D0 JUMPI PUSH2 0x32D0 PUSH2 0x5989 JUMP JUMPDEST PUSH1 0x20 MUL PUSH1 0x20 ADD ADD MLOAD MULMOD PUSH2 0x32F0 SWAP1 PUSH0 DUP1 MLOAD PUSH1 0x20 PUSH2 0x5A0E DUP4 CODECOPY DUP2 MLOAD SWAP2 MSTORE PUSH2 0x59B1 JUMP JUMPDEST DUP3 PUSH1 0x20 DUP2 MLOAD DUP2 LT PUSH2 0x3303 JUMPI PUSH2 0x3303 PUSH2 0x5989 JUMP JUMPDEST PUSH1 0x20 SWAP1 DUP2 MUL SWAP2 SWAP1 SWAP2 ADD ADD MSTORE PUSH0 DUP1 MLOAD PUSH1 0x20 PUSH2 0x5A0E DUP4 CODECOPY DUP2 MLOAD SWAP2 MSTORE DUP3 PUSH1 0x13 DUP2 MLOAD DUP2 LT PUSH2 0x332F JUMPI PUSH2 0x332F PUSH2 0x5989 JUMP JUMPDEST PUSH1 0x20 MUL PUSH1 0x20 ADD ADD MLOAD DUP4 PUSH1 0x26 DUP2 MLOAD DUP2 LT PUSH2 0x334A JUMPI PUSH2 0x334A PUSH2 0x5989 JUMP JUMPDEST PUSH1 0x20 MUL PUSH1 0x20 ADD ADD MLOAD MULMOD DUP3 PUSH1 0x13 DUP2 MLOAD DUP2 LT PUSH2 0x3366 JUMPI PUSH2 0x3366 PUSH2 0x5989 JUMP JUMPDEST PUSH1 0x20 SWAP1 DUP2 MUL SWAP2 SWAP1 SWAP2 ADD ADD MSTORE PUSH0 DUP1 MLOAD PUSH1 0x20 PUSH2 0x5A0E DUP4 CODECOPY DUP2 MLOAD SWAP2 MSTORE DUP1 DUP4 PUSH1 0x13 DUP2 MLOAD DUP2 LT PUSH2 0x3393 JUMPI PUSH2 0x3393 PUSH2 0x5989 JUMP JUMPDEST PUSH1 0x20 MUL PUSH1 0x20 ADD ADD MLOAD DUP5 PUSH1 0x25 DUP2 MLOAD DUP2 LT PUSH2 0x33AE JUMPI PUSH2 0x33AE PUSH2 0x5989 JUMP JUMPDEST PUSH1 0x20 MUL PUSH1 0x20 ADD ADD MLOAD MULMOD PUSH2 0x33CE SWAP1 PUSH0 DUP1 MLOAD PUSH1 0x20 PUSH2 0x5A0E DUP4 CODECOPY DUP2 MLOAD SWAP2 MSTORE PUSH2 0x59B1 JUMP JUMPDEST PUSH0 DUP1 MLOAD PUSH1 0x20 PUSH2 0x5A0E DUP4 CODECOPY DUP2 MLOAD SWAP2 MSTORE DUP5 PUSH1 0x26 DUP2 MLOAD DUP2 LT PUSH2 0x33EF JUMPI PUSH2 0x33EF PUSH2 0x5989 JUMP JUMPDEST PUSH1 0x20 MUL PUSH1 0x20 ADD ADD MLOAD DUP6 PUSH1 0x20 DUP2 MLOAD DUP2 LT PUSH2 0x340A JUMPI PUSH2 0x340A PUSH2 0x5989 JUMP JUMPDEST PUSH1 0x20 MUL PUSH1 0x20 ADD ADD MLOAD MULMOD ADDMOD DUP3 PUSH1 0x22 DUP2 MLOAD DUP2 LT PUSH2 0x3427 JUMPI PUSH2 0x3427 PUSH2 0x5989 JUMP JUMPDEST PUSH1 0x20 SWAP1 DUP2 MUL SWAP2 SWAP1 SWAP2 ADD ADD MSTORE PUSH0 DUP1 MLOAD PUSH1 0x20 PUSH2 0x5A0E DUP4 CODECOPY DUP2 MLOAD SWAP2 MSTORE DUP1 PUSH0 DUP1 MLOAD PUSH1 0x20 PUSH2 0x5A0E DUP4 CODECOPY DUP2 MLOAD SWAP2 MSTORE DUP9 DUP9 PUSH1 0x45 DUP2 DUP2 LT PUSH2 0x3462 JUMPI PUSH2 0x3462 PUSH2 0x5989 JUMP JUMPDEST SWAP1 POP PUSH1 0x20 MUL ADD CALLDATALOAD DUP6 PUSH1 0x22 DUP2 MLOAD DUP2 LT PUSH2 0x347C JUMPI PUSH2 0x347C PUSH2 0x5989 JUMP JUMPDEST PUSH1 0x20 MUL PUSH1 0x20 ADD ADD MLOAD MULMOD PUSH0 DUP1 MLOAD PUSH1 0x20 PUSH2 0x5A0E DUP4 CODECOPY DUP2 MLOAD SWAP2 MSTORE DUP1 DUP11 DUP11 PUSH1 0x43 DUP2 DUP2 LT PUSH2 0x34A7 JUMPI PUSH2 0x34A7 PUSH2 0x5989 JUMP JUMPDEST SWAP1 POP PUSH1 0x20 MUL ADD CALLDATALOAD DUP8 PUSH1 0x1A DUP2 MLOAD DUP2 LT PUSH2 0x34C1 JUMPI PUSH2 0x34C1 PUSH2 0x5989 JUMP JUMPDEST PUSH1 0x20 MUL PUSH1 0x20 ADD ADD MLOAD MULMOD PUSH0 DUP1 MLOAD PUSH1 0x20 PUSH2 0x5A0E DUP4 CODECOPY DUP2 MLOAD SWAP2 MSTORE DUP12 DUP12 PUSH1 0x40 DUP2 DUP2 LT PUSH2 0x34EB JUMPI PUSH2 0x34EB PUSH2 0x5989 JUMP JUMPDEST SWAP1 POP PUSH1 0x20 MUL ADD CALLDATALOAD DUP9 PUSH1 0x17 DUP2 MLOAD DUP2 LT PUSH2 0x3505 JUMPI PUSH2 0x3505 PUSH2 0x5989 JUMP JUMPDEST PUSH1 0x20 MUL PUSH1 0x20 ADD ADD MLOAD MULMOD ADDMOD ADDMOD PUSH0 DUP1 MLOAD PUSH1 0x20 PUSH2 0x5A0E DUP4 CODECOPY DUP2 MLOAD SWAP2 MSTORE DUP5 PUSH1 0x9 DUP2 MLOAD DUP2 LT PUSH2 0x3531 JUMPI PUSH2 0x3531 PUSH2 0x5989 JUMP JUMPDEST PUSH1 0x20 MUL PUSH1 0x20 ADD ADD MLOAD PUSH0 DUP1 MLOAD PUSH1 0x20 PUSH2 0x5A0E DUP4 CODECOPY DUP2 MLOAD SWAP2 MSTORE DUP1 PUSH2 0x3554 JUMPI PUSH2 0x3554 PUSH2 0x5975 JUMP JUMPDEST PUSH0 DUP1 MLOAD PUSH1 0x20 PUSH2 0x5A0E DUP4 CODECOPY DUP2 MLOAD SWAP2 MSTORE DUP12 DUP12 PUSH1 0x45 DUP2 DUP2 LT PUSH2 0x3575 JUMPI PUSH2 0x3575 PUSH2 0x5989 JUMP JUMPDEST SWAP1 POP PUSH1 0x20 MUL ADD CALLDATALOAD DUP9 PUSH1 0x27 DUP2 MLOAD DUP2 LT PUSH2 0x358F JUMPI PUSH2 0x358F PUSH2 0x5989 JUMP JUMPDEST PUSH1 0x20 MUL PUSH1 0x20 ADD ADD MLOAD MULMOD PUSH0 DUP1 MLOAD PUSH1 0x20 PUSH2 0x5A0E DUP4 CODECOPY DUP2 MLOAD SWAP2 MSTORE DUP1 DUP14 DUP14 PUSH1 0x43 DUP2 DUP2 LT PUSH2 0x35BA JUMPI PUSH2 0x35BA PUSH2 0x5989 JUMP JUMPDEST SWAP1 POP PUSH1 0x20 MUL ADD CALLDATALOAD DUP11 PUSH1 0x24 DUP2 MLOAD DUP2 LT PUSH2 0x35D4 JUMPI PUSH2 0x35D4 PUSH2 0x5989 JUMP JUMPDEST PUSH1 0x20 MUL PUSH1 0x20 ADD ADD MLOAD MULMOD PUSH0 DUP1 MLOAD PUSH1 0x20 PUSH2 0x5A0E DUP4 CODECOPY DUP2 MLOAD SWAP2 MSTORE DUP15 DUP15 PUSH1 0x40 DUP2 DUP2 LT PUSH2 0x35FE JUMPI PUSH2 0x35FE PUSH2 0x5989 JUMP JUMPDEST SWAP1 POP PUSH1 0x20 MUL ADD CALLDATALOAD DUP12 PUSH1 0x21 DUP2 MLOAD DUP2 LT PUSH2 0x3618 JUMPI PUSH2 0x3618 PUSH2 0x5989 JUMP JUMPDEST PUSH1 0x20 MUL PUSH1 0x20 ADD ADD MLOAD MULMOD ADDMOD ADDMOD MULMOD ADDMOD DUP3 PUSH1 0x25 DUP2 MLOAD DUP2 LT PUSH2 0x3638 JUMPI PUSH2 0x3638 PUSH2 0x5989 JUMP JUMPDEST PUSH1 0x20 SWAP1 DUP2 MUL SWAP2 SWAP1 SWAP2 ADD ADD MSTORE PUSH0 DUP1 MLOAD PUSH1 0x20 PUSH2 0x5A0E DUP4 CODECOPY DUP2 MLOAD SWAP2 MSTORE DUP3 PUSH1 0x28 DUP2 MLOAD DUP2 LT PUSH2 0x3664 JUMPI PUSH2 0x3664 PUSH2 0x5989 JUMP JUMPDEST PUSH1 0x20 MUL PUSH1 0x20 ADD ADD MLOAD DUP4 PUSH1 0x15 DUP2 MLOAD DUP2 LT PUSH2 0x367F JUMPI PUSH2 0x367F PUSH2 0x5989 JUMP JUMPDEST PUSH1 0x20 MUL PUSH1 0x20 ADD ADD MLOAD MULMOD PUSH2 0x369F SWAP1 PUSH0 DUP1 MLOAD PUSH1 0x20 PUSH2 0x5A0E DUP4 CODECOPY DUP2 MLOAD SWAP2 MSTORE PUSH2 0x59B1 JUMP JUMPDEST DUP3 PUSH1 0x15 DUP2 MLOAD DUP2 LT PUSH2 0x36B2 JUMPI PUSH2 0x36B2 PUSH2 0x5989 JUMP JUMPDEST PUSH1 0x20 SWAP1 DUP2 MUL SWAP2 SWAP1 SWAP2 ADD ADD MSTORE PUSH0 DUP1 MLOAD PUSH1 0x20 PUSH2 0x5A0E DUP4 CODECOPY DUP2 MLOAD SWAP2 MSTORE DUP3 PUSH1 0x18 DUP2 MLOAD DUP2 LT PUSH2 0x36DE JUMPI PUSH2 0x36DE PUSH2 0x5989 JUMP JUMPDEST PUSH1 0x20 MUL PUSH1 0x20 ADD ADD MLOAD DUP4 PUSH1 0x1D DUP2 MLOAD DUP2 LT PUSH2 0x36F9 JUMPI PUSH2 0x36F9 PUSH2 0x5989 JUMP JUMPDEST PUSH1 0x20 MUL PUSH1 0x20 ADD ADD MLOAD MULMOD PUSH2 0x3719 SWAP1 PUSH0 DUP1 MLOAD PUSH1 0x20 PUSH2 0x5A0E DUP4 CODECOPY DUP2 MLOAD SWAP2 MSTORE PUSH2 0x59B1 JUMP JUMPDEST DUP3 PUSH1 0x18 DUP2 MLOAD DUP2 LT PUSH2 0x372C JUMPI PUSH2 0x372C PUSH2 0x5989 JUMP JUMPDEST PUSH1 0x20 SWAP1 DUP2 MUL SWAP2 SWAP1 SWAP2 ADD ADD MSTORE PUSH0 DUP1 MLOAD PUSH1 0x20 PUSH2 0x5A0E DUP4 CODECOPY DUP2 MLOAD SWAP2 MSTORE DUP3 PUSH1 0x13 DUP2 MLOAD DUP2 LT PUSH2 0x3758 JUMPI PUSH2 0x3758 PUSH2 0x5989 JUMP JUMPDEST PUSH1 0x20 MUL PUSH1 0x20 ADD ADD MLOAD DUP4 PUSH1 0x20 DUP2 MLOAD DUP2 LT PUSH2 0x3773 JUMPI PUSH2 0x3773 PUSH2 0x5989 JUMP JUMPDEST PUSH1 0x20 MUL PUSH1 0x20 ADD ADD MLOAD MULMOD PUSH2 0x3793 SWAP1 PUSH0 DUP1 MLOAD PUSH1 0x20 PUSH2 0x5A0E DUP4 CODECOPY DUP2 MLOAD SWAP2 MSTORE PUSH2 0x59B1 JUMP JUMPDEST DUP3 PUSH1 0x13 DUP2 MLOAD DUP2 LT PUSH2 0x37A6 JUMPI PUSH2 0x37A6 PUSH2 0x5989 JUMP JUMPDEST PUSH1 0x20 SWAP1 DUP2 MUL SWAP2 SWAP1 SWAP2 ADD ADD MSTORE PUSH0 DUP1 MLOAD PUSH1 0x20 PUSH2 0x5A0E DUP4 CODECOPY DUP2 MLOAD SWAP2 MSTORE DUP1 PUSH0 DUP1 MLOAD PUSH1 0x20 PUSH2 0x5A0E DUP4 CODECOPY DUP2 MLOAD SWAP2 MSTORE DUP1 DUP10 DUP10 PUSH1 0x45 DUP2 DUP2 LT PUSH2 0x37E2 JUMPI PUSH2 0x37E2 PUSH2 0x5989 JUMP JUMPDEST SWAP1 POP PUSH1 0x20 MUL ADD CALLDATALOAD DUP7 PUSH1 0x13 DUP2 MLOAD DUP2 LT PUSH2 0x37FC JUMPI PUSH2 0x37FC PUSH2 0x5989 JUMP JUMPDEST PUSH1 0x20 MUL PUSH1 0x20 ADD ADD MLOAD MULMOD PUSH0 DUP1 MLOAD PUSH1 0x20 PUSH2 0x5A0E DUP4 CODECOPY DUP2 MLOAD SWAP2 MSTORE DUP1 DUP12 DUP12 PUSH1 0x43 DUP2 DUP2 LT PUSH2 0x3827 JUMPI PUSH2 0x3827 PUSH2 0x5989 JUMP JUMPDEST SWAP1 POP PUSH1 0x20 MUL ADD CALLDATALOAD DUP9 PUSH1 0x18 DUP2 MLOAD DUP2 LT PUSH2 0x3841 JUMPI PUSH2 0x3841 PUSH2 0x5989 JUMP JUMPDEST PUSH1 0x20 MUL PUSH1 0x20 ADD ADD MLOAD MULMOD PUSH0 DUP1 MLOAD PUSH1 0x20 PUSH2 0x5A0E DUP4 CODECOPY DUP2 MLOAD SWAP2 MSTORE DUP13 DUP13 PUSH1 0x40 DUP2 DUP2 LT PUSH2 0x386B JUMPI PUSH2 0x386B PUSH2 0x5989 JUMP JUMPDEST SWAP1 POP PUSH1 0x20 MUL ADD CALLDATALOAD DUP10 PUSH1 0x15 DUP2 MLOAD DUP2 LT PUSH2 0x3885 JUMPI PUSH2 0x3885 PUSH2 0x5989 JUMP JUMPDEST PUSH1 0x20 MUL PUSH1 0x20 ADD ADD MLOAD MULMOD ADDMOD ADDMOD PUSH0 DUP1 MLOAD PUSH1 0x20 PUSH2 0x5A0E DUP4 CODECOPY DUP2 MLOAD SWAP2 MSTORE DUP6 PUSH1 0x9 DUP2 MLOAD DUP2 LT PUSH2 0x38B1 JUMPI PUSH2 0x38B1 PUSH2 0x5989 JUMP JUMPDEST PUSH1 0x20 MUL PUSH1 0x20 ADD ADD MLOAD DUP7 PUSH1 0x25 DUP2 MLOAD DUP2 LT PUSH2 0x38CC JUMPI PUSH2 0x38CC PUSH2 0x5989 JUMP JUMPDEST PUSH1 0x20 MUL PUSH1 0x20 ADD ADD MLOAD MULMOD ADDMOD DUP4 PUSH1 0x7 DUP2 MLOAD DUP2 LT PUSH2 0x38E9 JUMPI PUSH2 0x38E9 PUSH2 0x5989 JUMP JUMPDEST PUSH1 0x20 MUL PUSH1 0x20 ADD ADD MLOAD MULMOD DUP3 PUSH1 0x1D DUP2 MLOAD DUP2 LT PUSH2 0x3905 JUMPI PUSH2 0x3905 PUSH2 0x5989 JUMP JUMPDEST PUSH1 0x20 SWAP1 DUP2 MUL SWAP2 SWAP1 SWAP2 ADD ADD MSTORE PUSH0 DUP1 MLOAD PUSH1 0x20 PUSH2 0x5A0E DUP4 CODECOPY DUP2 MLOAD SWAP2 MSTORE DUP1 PUSH0 DUP1 MLOAD PUSH1 0x20 PUSH2 0x5A0E DUP4 CODECOPY DUP2 MLOAD SWAP2 MSTORE DUP9 DUP9 PUSH1 0x44 DUP2 DUP2 LT PUSH2 0x3940 JUMPI PUSH2 0x3940 PUSH2 0x5989 JUMP JUMPDEST SWAP1 POP PUSH1 0x20 MUL ADD CALLDATALOAD DUP6 PUSH1 0x22 DUP2 MLOAD DUP2 LT PUSH2 0x395A JUMPI PUSH2 0x395A PUSH2 0x5989 JUMP JUMPDEST PUSH1 0x20 MUL PUSH1 0x20 ADD ADD MLOAD MULMOD PUSH0 DUP1 MLOAD PUSH1 0x20 PUSH2 0x5A0E DUP4 CODECOPY DUP2 MLOAD SWAP2 MSTORE DUP1 DUP11 DUP11 PUSH1 0x42 DUP2 DUP2 LT PUSH2 0x3985 JUMPI PUSH2 0x3985 PUSH2 0x5989 JUMP JUMPDEST SWAP1 POP PUSH1 0x20 MUL ADD CALLDATALOAD DUP8 PUSH1 0x1A DUP2 MLOAD DUP2 LT PUSH2 0x399F JUMPI PUSH2 0x399F PUSH2 0x5989 JUMP JUMPDEST PUSH1 0x20 MUL PUSH1 0x20 ADD ADD MLOAD MULMOD PUSH0 DUP1 MLOAD PUSH1 0x20 PUSH2 0x5A0E DUP4 CODECOPY DUP2 MLOAD SWAP2 MSTORE DUP12 DUP12 PUSH1 0x41 DUP2 DUP2 LT PUSH2 0x39C9 JUMPI PUSH2 0x39C9 PUSH2 0x5989 JUMP JUMPDEST SWAP1 POP PUSH1 0x20 MUL ADD CALLDATALOAD DUP9 PUSH1 0x17 DUP2 MLOAD DUP2 LT PUSH2 0x39E3 JUMPI PUSH2 0x39E3 PUSH2 0x5989 JUMP JUMPDEST PUSH1 0x20 MUL PUSH1 0x20 ADD ADD MLOAD MULMOD ADDMOD ADDMOD PUSH0 DUP1 MLOAD PUSH1 0x20 PUSH2 0x5A0E DUP4 CODECOPY DUP2 MLOAD SWAP2 MSTORE DUP5 PUSH1 0x9 DUP2 MLOAD DUP2 LT PUSH2 0x3A0F JUMPI PUSH2 0x3A0F PUSH2 0x5989 JUMP JUMPDEST PUSH1 0x20 MUL PUSH1 0x20 ADD ADD MLOAD PUSH0 DUP1 MLOAD PUSH1 0x20 PUSH2 0x5A0E DUP4 CODECOPY DUP2 MLOAD SWAP2 MSTORE DUP1 PUSH2 0x3A32 JUMPI PUSH2 0x3A32 PUSH2 0x5975 JUMP JUMPDEST PUSH0 DUP1 MLOAD PUSH1 0x20 PUSH2 0x5A0E DUP4 CODECOPY DUP2 MLOAD SWAP2 MSTORE DUP12 DUP12 PUSH1 0x44 DUP2 DUP2 LT PUSH2 0x3A53 JUMPI PUSH2 0x3A53 PUSH2 0x5989 JUMP JUMPDEST SWAP1 POP PUSH1 0x20 MUL ADD CALLDATALOAD DUP9 PUSH1 0x27 DUP2 MLOAD DUP2 LT PUSH2 0x3A6D JUMPI PUSH2 0x3A6D PUSH2 0x5989 JUMP JUMPDEST PUSH1 0x20 MUL PUSH1 0x20 ADD ADD MLOAD MULMOD PUSH0 DUP1 MLOAD PUSH1 0x20 PUSH2 0x5A0E DUP4 CODECOPY DUP2 MLOAD SWAP2 MSTORE DUP1 DUP14 DUP14 PUSH1 0x42 DUP2 DUP2 LT PUSH2 0x3A98 JUMPI PUSH2 0x3A98 PUSH2 0x5989 JUMP JUMPDEST SWAP1 POP PUSH1 0x20 MUL ADD CALLDATALOAD DUP11 PUSH1 0x24 DUP2 MLOAD DUP2 LT PUSH2 0x3AB2 JUMPI PUSH2 0x3AB2 PUSH2 0x5989 JUMP JUMPDEST PUSH1 0x20 MUL PUSH1 0x20 ADD ADD MLOAD MULMOD PUSH0 DUP1 MLOAD PUSH1 0x20 PUSH2 0x5A0E DUP4 CODECOPY DUP2 MLOAD SWAP2 MSTORE DUP15 DUP15 PUSH1 0x41 DUP2 DUP2 LT PUSH2 0x3ADC JUMPI PUSH2 0x3ADC PUSH2 0x5989 JUMP JUMPDEST SWAP1 POP PUSH1 0x20 MUL ADD CALLDATALOAD DUP12 PUSH1 0x21 DUP2 MLOAD DUP2 LT PUSH2 0x3AF6 JUMPI PUSH2 0x3AF6 PUSH2 0x5989 JUMP JUMPDEST PUSH1 0x20 MUL PUSH1 0x20 ADD ADD MLOAD MULMOD ADDMOD ADDMOD MULMOD ADDMOD DUP3 PUSH1 0x17 DUP2 MLOAD DUP2 LT PUSH2 0x3B16 JUMPI PUSH2 0x3B16 PUSH2 0x5989 JUMP JUMPDEST PUSH1 0x20 SWAP1 DUP2 MUL SWAP2 SWAP1 SWAP2 ADD ADD MSTORE PUSH0 DUP1 MLOAD PUSH1 0x20 PUSH2 0x5A0E DUP4 CODECOPY DUP2 MLOAD SWAP2 MSTORE DUP1 PUSH0 DUP1 MLOAD PUSH1 0x20 PUSH2 0x5A0E DUP4 CODECOPY DUP2 MLOAD SWAP2 MSTORE DUP1 DUP10 DUP10 PUSH1 0x44 DUP2 DUP2 LT PUSH2 0x3B52 JUMPI PUSH2 0x3B52 PUSH2 0x5989 JUMP JUMPDEST SWAP1 POP PUSH1 0x20 MUL ADD CALLDATALOAD DUP7 PUSH1 0x13 DUP2 MLOAD DUP2 LT PUSH2 0x3B6C JUMPI PUSH2 0x3B6C PUSH2 0x5989 JUMP JUMPDEST PUSH1 0x20 MUL PUSH1 0x20 ADD ADD MLOAD MULMOD PUSH0 DUP1 MLOAD PUSH1 0x20 PUSH2 0x5A0E DUP4 CODECOPY DUP2 MLOAD SWAP2 MSTORE DUP1 DUP12 DUP12 PUSH1 0x42 DUP2 DUP2 LT PUSH2 0x3B97 JUMPI PUSH2 0x3B97 PUSH2 0x5989 JUMP JUMPDEST SWAP1 POP PUSH1 0x20 MUL ADD CALLDATALOAD DUP9 PUSH1 0x18 DUP2 MLOAD DUP2 LT PUSH2 0x3BB1 JUMPI PUSH2 0x3BB1 PUSH2 0x5989 JUMP JUMPDEST PUSH1 0x20 MUL PUSH1 0x20 ADD ADD MLOAD MULMOD PUSH0 DUP1 MLOAD PUSH1 0x20 PUSH2 0x5A0E DUP4 CODECOPY DUP2 MLOAD SWAP2 MSTORE DUP13 DUP13 PUSH1 0x41 DUP2 DUP2 LT PUSH2 0x3BDB JUMPI PUSH2 0x3BDB PUSH2 0x5989 JUMP JUMPDEST SWAP1 POP PUSH1 0x20 MUL ADD CALLDATALOAD DUP10 PUSH1 0x15 DUP2 MLOAD DUP2 LT PUSH2 0x3BF5 JUMPI PUSH2 0x3BF5 PUSH2 0x5989 JUMP JUMPDEST PUSH1 0x20 MUL PUSH1 0x20 ADD ADD MLOAD MULMOD ADDMOD ADDMOD PUSH0 DUP1 MLOAD PUSH1 0x20 PUSH2 0x5A0E DUP4 CODECOPY DUP2 MLOAD SWAP2 MSTORE DUP6 PUSH1 0x9 DUP2 MLOAD DUP2 LT PUSH2 0x3C21 JUMPI PUSH2 0x3C21 PUSH2 0x5989 JUMP JUMPDEST PUSH1 0x20 MUL PUSH1 0x20 ADD ADD MLOAD DUP7 PUSH1 0x17 DUP2 MLOAD DUP2 LT PUSH2 0x3C3C JUMPI PUSH2 0x3C3C PUSH2 0x5989 JUMP JUMPDEST PUSH1 0x20 MUL PUSH1 0x20 ADD ADD MLOAD MULMOD ADDMOD DUP4 PUSH1 0x1D DUP2 MLOAD DUP2 LT PUSH2 0x3C59 JUMPI PUSH2 0x3C59 PUSH2 0x5989 JUMP JUMPDEST PUSH1 0x20 MUL PUSH1 0x20 ADD ADD MLOAD ADDMOD DUP3 PUSH1 0x13 DUP2 MLOAD DUP2 LT PUSH2 0x3C75 JUMPI PUSH2 0x3C75 PUSH2 0x5989 JUMP JUMPDEST PUSH1 0x20 SWAP1 DUP2 MUL SWAP2 SWAP1 SWAP2 ADD ADD MSTORE PUSH0 DUP1 MLOAD PUSH1 0x20 PUSH2 0x5A0E DUP4 CODECOPY DUP2 MLOAD SWAP2 MSTORE DUP3 PUSH1 0x1B DUP2 MLOAD DUP2 LT PUSH2 0x3CA1 JUMPI PUSH2 0x3CA1 PUSH2 0x5989 JUMP JUMPDEST PUSH1 0x20 MUL PUSH1 0x20 ADD ADD MLOAD DUP4 PUSH1 0x14 DUP2 MLOAD DUP2 LT PUSH2 0x3CBC JUMPI PUSH2 0x3CBC PUSH2 0x5989 JUMP JUMPDEST PUSH1 0x20 MUL PUSH1 0x20 ADD ADD MLOAD MULMOD DUP3 PUSH1 0x14 DUP2 MLOAD DUP2 LT PUSH2 0x3CD8 JUMPI PUSH2 0x3CD8 PUSH2 0x5989 JUMP JUMPDEST PUSH1 0x20 SWAP1 DUP2 MUL SWAP2 SWAP1 SWAP2 ADD ADD MSTORE PUSH0 DUP1 MLOAD PUSH1 0x20 PUSH2 0x5A0E DUP4 CODECOPY DUP2 MLOAD SWAP2 MSTORE DUP1 DUP4 PUSH1 0x14 DUP2 MLOAD DUP2 LT PUSH2 0x3D05 JUMPI PUSH2 0x3D05 PUSH2 0x5989 JUMP JUMPDEST PUSH1 0x20 MUL PUSH1 0x20 ADD ADD MLOAD DUP5 PUSH1 0x13 DUP2 MLOAD DUP2 LT PUSH2 0x3D20 JUMPI PUSH2 0x3D20 PUSH2 0x5989 JUMP JUMPDEST PUSH1 0x20 MUL PUSH1 0x20 ADD ADD MLOAD MULMOD PUSH0 DUP1 MLOAD PUSH1 0x20 PUSH2 0x5A0E DUP4 CODECOPY DUP2 MLOAD SWAP2 MSTORE DUP1 PUSH0 DUP1 MLOAD PUSH1 0x20 PUSH2 0x5A0E DUP4 CODECOPY DUP2 MLOAD SWAP2 MSTORE DUP7 PUSH1 0x19 DUP2 MLOAD DUP2 LT PUSH2 0x3D59 JUMPI PUSH2 0x3D59 PUSH2 0x5989 JUMP JUMPDEST PUSH1 0x20 MUL PUSH1 0x20 ADD ADD MLOAD DUP8 PUSH1 0x1E DUP2 MLOAD DUP2 LT PUSH2 0x3D74 JUMPI PUSH2 0x3D74 PUSH2 0x5989 JUMP JUMPDEST PUSH1 0x20 MUL PUSH1 0x20 ADD ADD MLOAD MULMOD DUP7 PUSH1 0x12 DUP2 MLOAD DUP2 LT PUSH2 0x3D90 JUMPI PUSH2 0x3D90 PUSH2 0x5989 JUMP JUMPDEST PUSH1 0x20 MUL PUSH1 0x20 ADD ADD MLOAD ADDMOD DUP6 PUSH1 0x8 DUP2 MLOAD DUP2 LT PUSH2 0x3DAC JUMPI PUSH2 0x3DAC PUSH2 0x5989 JUMP JUMPDEST PUSH1 0x20 MUL PUSH1 0x20 ADD ADD MLOAD MULMOD ADDMOD DUP3 PUSH1 0x12 DUP2 MLOAD DUP2 LT PUSH2 0x3DC9 JUMPI PUSH2 0x3DC9 PUSH2 0x5989 JUMP JUMPDEST PUSH1 0x20 MUL PUSH1 0x20 ADD ADD DUP2 DUP2 MSTORE POP POP PUSH1 0x1 PUSH32 0x30644E72E131A029B85045B68181585D97816A916871CA8D3C208C16D87CFD45 DUP4 PUSH1 0xC DUP2 MLOAD DUP2 LT PUSH2 0x3E0B JUMPI PUSH2 0x3E0B PUSH2 0x5989 JUMP JUMPDEST PUSH1 0x20 MUL PUSH1 0x20 ADD ADD DUP5 PUSH1 0xD DUP2 MLOAD DUP2 LT PUSH2 0x3E25 JUMPI PUSH2 0x3E25 PUSH2 0x5989 JUMP JUMPDEST PUSH1 0x20 MUL PUSH1 0x20 ADD ADD DUP3 DUP2 MSTORE POP DUP3 DUP2 MSTORE POP POP POP DUP2 PUSH1 0x12 DUP2 MLOAD DUP2 LT PUSH2 0x3E49 JUMPI PUSH2 0x3E49 PUSH2 0x5989 JUMP JUMPDEST PUSH1 0x20 MUL PUSH1 0x20 ADD ADD MLOAD DUP3 PUSH1 0xE DUP2 MLOAD DUP2 LT PUSH2 0x3E64 JUMPI PUSH2 0x3E64 PUSH2 0x5989 JUMP JUMPDEST PUSH1 0x20 MUL PUSH1 0x20 ADD ADD DUP2 DUP2 MSTORE POP POP PUSH2 0x3E7B DUP3 PUSH1 0xC PUSH2 0x5603 JUMP JUMPDEST PUSH0 DUP1 MLOAD PUSH1 0x20 PUSH2 0x5A0E DUP4 CODECOPY DUP2 MLOAD SWAP2 MSTORE DUP3 PUSH1 0x8 DUP2 MLOAD DUP2 LT PUSH2 0x3E9C JUMPI PUSH2 0x3E9C PUSH2 0x5989 JUMP JUMPDEST PUSH1 0x20 MUL PUSH1 0x20 ADD ADD MLOAD DUP4 PUSH1 0x8 DUP2 MLOAD DUP2 LT PUSH2 0x3EB7 JUMPI PUSH2 0x3EB7 PUSH2 0x5989 JUMP JUMPDEST PUSH1 0x20 MUL PUSH1 0x20 ADD ADD MLOAD MULMOD DUP3 PUSH1 0x13 DUP2 MLOAD DUP2 LT PUSH2 0x3ED3 JUMPI PUSH2 0x3ED3 PUSH2 0x5989 JUMP JUMPDEST PUSH1 0x20 SWAP1 DUP2 MUL SWAP2 SWAP1 SWAP2 ADD ADD MSTORE PUSH0 DUP1 MLOAD PUSH1 0x20 PUSH2 0x5A0E DUP4 CODECOPY DUP2 MLOAD SWAP2 MSTORE DUP3 PUSH1 0x1F DUP2 MLOAD DUP2 LT PUSH2 0x3EFF JUMPI PUSH2 0x3EFF PUSH2 0x5989 JUMP JUMPDEST PUSH1 0x20 MUL PUSH1 0x20 ADD ADD MLOAD DUP4 PUSH1 0x13 DUP2 MLOAD DUP2 LT PUSH2 0x3F1A JUMPI PUSH2 0x3F1A PUSH2 0x5989 JUMP JUMPDEST PUSH1 0x20 MUL PUSH1 0x20 ADD ADD MLOAD MULMOD DUP3 PUSH1 0x15 DUP2 MLOAD DUP2 LT PUSH2 0x3F36 JUMPI PUSH2 0x3F36 PUSH2 0x5989 JUMP JUMPDEST PUSH1 0x20 SWAP1 DUP2 MUL SWAP2 SWAP1 SWAP2 ADD ADD MSTORE PUSH0 DUP1 MLOAD PUSH1 0x20 PUSH2 0x5A0E DUP4 CODECOPY DUP2 MLOAD SWAP2 MSTORE DUP3 PUSH1 0x7 DUP2 MLOAD DUP2 LT PUSH2 0x3F62 JUMPI PUSH2 0x3F62 PUSH2 0x5989 JUMP JUMPDEST PUSH1 0x20 MUL PUSH1 0x20 ADD ADD MLOAD DUP4 PUSH1 0x7 DUP2 MLOAD DUP2 LT PUSH2 0x3F7D JUMPI PUSH2 0x3F7D PUSH2 0x5989 JUMP JUMPDEST PUSH1 0x20 MUL PUSH1 0x20 ADD ADD MLOAD MULMOD DUP3 PUSH1 0x17 DUP2 MLOAD DUP2 LT PUSH2 0x3F99 JUMPI PUSH2 0x3F99 PUSH2 0x5989 JUMP JUMPDEST PUSH1 0x20 SWAP1 DUP2 MUL SWAP2 SWAP1 SWAP2 ADD ADD MSTORE PUSH0 DUP1 MLOAD PUSH1 0x20 PUSH2 0x5A0E DUP4 CODECOPY DUP2 MLOAD SWAP2 MSTORE DUP3 PUSH1 0x17 DUP2 MLOAD DUP2 LT PUSH2 0x3FC5 JUMPI PUSH2 0x3FC5 PUSH2 0x5989 JUMP JUMPDEST PUSH1 0x20 MUL PUSH1 0x20 ADD ADD MLOAD DUP4 PUSH1 0x17 DUP2 MLOAD DUP2 LT PUSH2 0x3FE0 JUMPI PUSH2 0x3FE0 PUSH2 0x5989 JUMP JUMPDEST PUSH1 0x20 MUL PUSH1 0x20 ADD ADD MLOAD MULMOD DUP3 PUSH1 0x18 DUP2 MLOAD DUP2 LT PUSH2 0x3FFC JUMPI PUSH2 0x3FFC PUSH2 0x5989 JUMP JUMPDEST PUSH1 0x20 SWAP1 DUP2 MUL SWAP2 SWAP1 SWAP2 ADD ADD MSTORE PUSH0 DUP1 MLOAD PUSH1 0x20 PUSH2 0x5A0E DUP4 CODECOPY DUP2 MLOAD SWAP2 MSTORE DUP3 PUSH1 0x18 DUP2 MLOAD DUP2 LT PUSH2 0x4028 JUMPI PUSH2 0x4028 PUSH2 0x5989 JUMP JUMPDEST PUSH1 0x20 MUL PUSH1 0x20 ADD ADD MLOAD DUP4 PUSH1 0x18 DUP2 MLOAD DUP2 LT PUSH2 0x4043 JUMPI PUSH2 0x4043 PUSH2 0x5989 JUMP JUMPDEST PUSH1 0x20 MUL PUSH1 0x20 ADD ADD MLOAD MULMOD DUP3 PUSH1 0x1A DUP2 MLOAD DUP2 LT PUSH2 0x405F JUMPI PUSH2 0x405F PUSH2 0x5989 JUMP JUMPDEST PUSH1 0x20 SWAP1 DUP2 MUL SWAP2 SWAP1 SWAP2 ADD ADD MSTORE PUSH0 DUP1 MLOAD PUSH1 0x20 PUSH2 0x5A0E DUP4 CODECOPY DUP2 MLOAD SWAP2 MSTORE DUP3 PUSH1 0x1A DUP2 MLOAD DUP2 LT PUSH2 0x408B JUMPI PUSH2 0x408B PUSH2 0x5989 JUMP JUMPDEST PUSH1 0x20 MUL PUSH1 0x20 ADD ADD MLOAD DUP4 PUSH1 0x1A DUP2 MLOAD DUP2 LT PUSH2 0x40A6 JUMPI PUSH2 0x40A6 PUSH2 0x5989 JUMP JUMPDEST PUSH1 0x20 MUL PUSH1 0x20 ADD ADD MLOAD MULMOD DUP3 PUSH1 0x1B DUP2 MLOAD DUP2 LT PUSH2 0x40C2 JUMPI PUSH2 0x40C2 PUSH2 0x5989 JUMP JUMPDEST PUSH1 0x20 SWAP1 DUP2 MUL SWAP2 SWAP1 SWAP2 ADD ADD MSTORE PUSH0 DUP1 MLOAD PUSH1 0x20 PUSH2 0x5A0E DUP4 CODECOPY DUP2 MLOAD SWAP2 MSTORE DUP3 PUSH1 0x1B DUP2 MLOAD DUP2 LT PUSH2 0x40EE JUMPI PUSH2 0x40EE PUSH2 0x5989 JUMP JUMPDEST PUSH1 0x20 MUL PUSH1 0x20 ADD ADD MLOAD DUP4 PUSH1 0x1B DUP2 MLOAD DUP2 LT PUSH2 0x4109 JUMPI PUSH2 0x4109 PUSH2 0x5989 JUMP JUMPDEST PUSH1 0x20 MUL PUSH1 0x20 ADD ADD MLOAD MULMOD DUP3 PUSH1 0x1D DUP2 MLOAD DUP2 LT PUSH2 0x4125 JUMPI PUSH2 0x4125 PUSH2 0x5989 JUMP JUMPDEST PUSH1 0x20 SWAP1 DUP2 MUL SWAP2 SWAP1 SWAP2 ADD ADD MSTORE PUSH0 DUP1 MLOAD PUSH1 0x20 PUSH2 0x5A0E DUP4 CODECOPY DUP2 MLOAD SWAP2 MSTORE DUP3 PUSH1 0x17 DUP2 MLOAD DUP2 LT PUSH2 0x4151 JUMPI PUSH2 0x4151 PUSH2 0x5989 JUMP JUMPDEST PUSH1 0x20 MUL PUSH1 0x20 ADD ADD MLOAD DUP4 PUSH1 0x1D DUP2 MLOAD DUP2 LT PUSH2 0x416C JUMPI PUSH2 0x416C PUSH2 0x5989 JUMP JUMPDEST PUSH1 0x20 MUL PUSH1 0x20 ADD ADD MLOAD MULMOD DUP3 PUSH1 0x1E DUP2 MLOAD DUP2 LT PUSH2 0x4188 JUMPI PUSH2 0x4188 PUSH2 0x5989 JUMP JUMPDEST PUSH1 0x20 MUL PUSH1 0x20 ADD ADD DUP2 DUP2 MSTORE POP POP DUP6 DUP6 PUSH0 DUP2 DUP2 LT PUSH2 0x41A6 JUMPI PUSH2 0x41A6 PUSH2 0x5989 JUMP JUMPDEST SWAP1 POP PUSH1 0x20 MUL ADD CALLDATALOAD DUP7 DUP7 PUSH1 0x1 DUP2 DUP2 LT PUSH2 0x41C0 JUMPI PUSH2 0x41C0 PUSH2 0x5989 JUMP JUMPDEST SWAP1 POP PUSH1 0x20 MUL ADD CALLDATALOAD DUP4 PUSH1 0xE DUP2 MLOAD DUP2 LT PUSH2 0x41DA JUMPI PUSH2 0x41DA PUSH2 0x5989 JUMP JUMPDEST PUSH1 0x20 MUL PUSH1 0x20 ADD ADD DUP5 PUSH1 0xF DUP2 MLOAD DUP2 LT PUSH2 0x41F4 JUMPI PUSH2 0x41F4 PUSH2 0x5989 JUMP JUMPDEST PUSH1 0x20 SWAP1 DUP2 MUL SWAP2 SWAP1 SWAP2 ADD ADD SWAP2 SWAP1 SWAP2 MSTORE MSTORE PUSH0 DUP1 MLOAD PUSH1 0x20 PUSH2 0x5A0E DUP4 CODECOPY DUP2 MLOAD SWAP2 MSTORE DUP1 DUP4 PUSH1 0x7 DUP2 MLOAD DUP2 LT PUSH2 0x4225 JUMPI PUSH2 0x4225 PUSH2 0x5989 JUMP JUMPDEST PUSH1 0x20 MUL PUSH1 0x20 ADD ADD MLOAD DUP5 PUSH1 0x1E DUP2 MLOAD DUP2 LT PUSH2 0x4240 JUMPI PUSH2 0x4240 PUSH2 0x5989 JUMP JUMPDEST PUSH1 0x20 MUL PUSH1 0x20 ADD ADD MLOAD MULMOD DUP4 PUSH1 0x15 DUP2 MLOAD DUP2 LT PUSH2 0x425C JUMPI PUSH2 0x425C PUSH2 0x5989 JUMP JUMPDEST PUSH1 0x20 MUL PUSH1 0x20 ADD ADD MLOAD MULMOD DUP3 PUSH1 0x10 DUP2 MLOAD DUP2 LT PUSH2 0x4278 JUMPI PUSH2 0x4278 PUSH2 0x5989 JUMP JUMPDEST PUSH1 0x20 MUL PUSH1 0x20 ADD ADD DUP2 DUP2 MSTORE POP POP PUSH2 0x428F DUP3 PUSH1 0xC PUSH2 0x5642 JUMP JUMPDEST DUP6 DUP6 PUSH1 0x2 DUP2 DUP2 LT PUSH2 0x42A2 JUMPI PUSH2 0x42A2 PUSH2 0x5989 JUMP JUMPDEST SWAP1 POP PUSH1 0x20 MUL ADD CALLDATALOAD DUP7 DUP7 PUSH1 0x3 DUP2 DUP2 LT PUSH2 0x42BC JUMPI PUSH2 0x42BC PUSH2 0x5989 JUMP JUMPDEST SWAP1 POP PUSH1 0x20 MUL ADD CALLDATALOAD DUP4 PUSH1 0xE DUP2 MLOAD DUP2 LT PUSH2 0x42D6 JUMPI PUSH2 0x42D6 PUSH2 0x5989 JUMP JUMPDEST PUSH1 0x20 MUL PUSH1 0x20 ADD ADD DUP5 PUSH1 0xF DUP2 MLOAD DUP2 LT PUSH2 0x42F0 JUMPI PUSH2 0x42F0 PUSH2 0x5989 JUMP JUMPDEST PUSH1 0x20 SWAP1 DUP2 MUL SWAP2 SWAP1 SWAP2 ADD ADD SWAP2 SWAP1 SWAP2 MSTORE MSTORE PUSH0 DUP1 MLOAD PUSH1 0x20 PUSH2 0x5A0E DUP4 CODECOPY DUP2 MLOAD SWAP2 MSTORE DUP3 PUSH1 0x1E DUP2 MLOAD DUP2 LT PUSH2 0x4320 JUMPI PUSH2 0x4320 PUSH2 0x5989 JUMP JUMPDEST PUSH1 0x20 MUL PUSH1 0x20 ADD ADD MLOAD DUP4 PUSH1 0x15 DUP2 MLOAD DUP2 LT PUSH2 0x433B JUMPI PUSH2 0x433B PUSH2 0x5989 JUMP JUMPDEST PUSH1 0x20 MUL PUSH1 0x20 ADD ADD MLOAD MULMOD DUP3 PUSH1 0x10 DUP2 MLOAD DUP2 LT PUSH2 0x4357 JUMPI PUSH2 0x4357 PUSH2 0x5989 JUMP JUMPDEST PUSH1 0x20 MUL PUSH1 0x20 ADD ADD DUP2 DUP2 MSTORE POP POP PUSH2 0x436E DUP3 PUSH1 0xC PUSH2 0x5642 JUMP JUMPDEST DUP6 DUP6 PUSH1 0x4 DUP2 DUP2 LT PUSH2 0x4381 JUMPI PUSH2 0x4381 PUSH2 0x5989 JUMP JUMPDEST SWAP1 POP PUSH1 0x20 MUL ADD CALLDATALOAD DUP7 DUP7 PUSH1 0x5 DUP2 DUP2 LT PUSH2 0x439B JUMPI PUSH2 0x439B PUSH2 0x5989 JUMP JUMPDEST SWAP1 POP PUSH1 0x20 MUL ADD CALLDATALOAD DUP4 PUSH1 0xE DUP2 MLOAD DUP2 LT PUSH2 0x43B5 JUMPI PUSH2 0x43B5 PUSH2 0x5989 JUMP JUMPDEST PUSH1 0x20 MUL PUSH1 0x20 ADD ADD DUP5 PUSH1 0xF DUP2 MLOAD DUP2 LT PUSH2 0x43CF JUMPI PUSH2 0x43CF PUSH2 0x5989 JUMP JUMPDEST PUSH1 0x20 SWAP1 DUP2 MUL SWAP2 SWAP1 SWAP2 ADD ADD SWAP2 SWAP1 SWAP2 MSTORE MSTORE PUSH0 DUP1 MLOAD PUSH1 0x20 PUSH2 0x5A0E DUP4 CODECOPY DUP2 MLOAD SWAP2 MSTORE DUP1 DUP4 PUSH1 0x7 DUP2 MLOAD DUP2 LT PUSH2 0x4400 JUMPI PUSH2 0x4400 PUSH2 0x5989 JUMP JUMPDEST PUSH1 0x20 MUL PUSH1 0x20 ADD ADD MLOAD DUP5 PUSH1 0x1D DUP2 MLOAD DUP2 LT PUSH2 0x441B JUMPI PUSH2 0x441B PUSH2 0x5989 JUMP JUMPDEST PUSH1 0x20 MUL PUSH1 0x20 ADD ADD MLOAD MULMOD DUP4 PUSH1 0x15 DUP2 MLOAD DUP2 LT PUSH2 0x4437 JUMPI PUSH2 0x4437 PUSH2 0x5989 JUMP JUMPDEST PUSH1 0x20 MUL PUSH1 0x20 ADD ADD MLOAD MULMOD DUP3 PUSH1 0x10 DUP2 MLOAD DUP2 LT PUSH2 0x4453 JUMPI PUSH2 0x4453 PUSH2 0x5989 JUMP JUMPDEST PUSH1 0x20 MUL PUSH1 0x20 ADD ADD DUP2 DUP2 MSTORE POP POP PUSH2 0x446A DUP3 PUSH1 0xC PUSH2 0x5642 JUMP JUMPDEST DUP6 DUP6 PUSH1 0x6 DUP2 DUP2 LT PUSH2 0x447D JUMPI PUSH2 0x447D PUSH2 0x5989 JUMP JUMPDEST SWAP1 POP PUSH1 0x20 MUL ADD CALLDATALOAD DUP7 DUP7 PUSH1 0x7 DUP2 DUP2 LT PUSH2 0x4497 JUMPI PUSH2 0x4497 PUSH2 0x5989 JUMP JUMPDEST SWAP1 POP PUSH1 0x20 MUL ADD CALLDATALOAD DUP4 PUSH1 0xE DUP2 MLOAD DUP2 LT PUSH2 0x44B1 JUMPI PUSH2 0x44B1 PUSH2 0x5989 JUMP JUMPDEST PUSH1 0x20 MUL PUSH1 0x20 ADD ADD DUP5 PUSH1 0xF DUP2 MLOAD DUP2 LT PUSH2 0x44CB JUMPI PUSH2 0x44CB PUSH2 0x5989 JUMP JUMPDEST PUSH1 0x20 SWAP1 DUP2 MUL SWAP2 SWAP1 SWAP2 ADD ADD SWAP2 SWAP1 SWAP2 MSTORE MSTORE PUSH0 DUP1 MLOAD PUSH1 0x20 PUSH2 0x5A0E DUP4 CODECOPY DUP2 MLOAD SWAP2 MSTORE DUP3 PUSH1 0x1D DUP2 MLOAD DUP2 LT PUSH2 0x44FB JUMPI PUSH2 0x44FB PUSH2 0x5989 JUMP JUMPDEST PUSH1 0x20 MUL PUSH1 0x20 ADD ADD MLOAD DUP4 PUSH1 0x15 DUP2 MLOAD DUP2 LT PUSH2 0x4516 JUMPI PUSH2 0x4516 PUSH2 0x5989 JUMP JUMPDEST PUSH1 0x20 MUL PUSH1 0x20 ADD ADD MLOAD MULMOD DUP3 PUSH1 0x10 DUP2 MLOAD DUP2 LT PUSH2 0x4532 JUMPI PUSH2 0x4532 PUSH2 0x5989 JUMP JUMPDEST PUSH1 0x20 MUL PUSH1 0x20 ADD ADD DUP2 DUP2 MSTORE POP POP PUSH2 0x4549 DUP3 PUSH1 0xC PUSH2 0x5642 JUMP JUMPDEST PUSH0 DUP1 MLOAD PUSH1 0x20 PUSH2 0x5A0E DUP4 CODECOPY DUP2 MLOAD SWAP2 MSTORE DUP3 PUSH1 0x19 DUP2 MLOAD DUP2 LT PUSH2 0x456A JUMPI PUSH2 0x456A PUSH2 0x5989 JUMP JUMPDEST PUSH1 0x20 MUL PUSH1 0x20 ADD ADD MLOAD DUP4 PUSH1 0x8 DUP2 MLOAD DUP2 LT PUSH2 0x4585 JUMPI PUSH2 0x4585 PUSH2 0x5989 JUMP JUMPDEST PUSH1 0x20 MUL PUSH1 0x20 ADD ADD MLOAD MULMOD DUP3 PUSH1 0x19 DUP2 MLOAD DUP2 LT PUSH2 0x45A1 JUMPI PUSH2 0x45A1 PUSH2 0x5989 JUMP JUMPDEST PUSH1 0x20 MUL PUSH1 0x20 ADD ADD DUP2 DUP2 MSTORE POP POP DUP6 DUP6 PUSH1 0x8 DUP2 DUP2 LT PUSH2 0x45C0 JUMPI PUSH2 0x45C0 PUSH2 0x5989 JUMP JUMPDEST SWAP1 POP PUSH1 0x20 MUL ADD CALLDATALOAD DUP7 DUP7 PUSH1 0x9 DUP2 DUP2 LT PUSH2 0x45DA JUMPI PUSH2 0x45DA PUSH2 0x5989 JUMP JUMPDEST SWAP1 POP PUSH1 0x20 MUL ADD CALLDATALOAD DUP4 PUSH1 0xE DUP2 MLOAD DUP2 LT PUSH2 0x45F4 JUMPI PUSH2 0x45F4 PUSH2 0x5989 JUMP JUMPDEST PUSH1 0x20 MUL PUSH1 0x20 ADD ADD DUP5 PUSH1 0xF DUP2 MLOAD DUP2 LT PUSH2 0x460E JUMPI PUSH2 0x460E PUSH2 0x5989 JUMP JUMPDEST PUSH1 0x20 SWAP1 DUP2 MUL SWAP2 SWAP1 SWAP2 ADD ADD SWAP2 SWAP1 SWAP2 MSTORE MSTORE PUSH0 DUP1 MLOAD PUSH1 0x20 PUSH2 0x5A0E DUP4 CODECOPY DUP2 MLOAD SWAP2 MSTORE DUP3 PUSH1 0x18 DUP2 MLOAD DUP2 LT PUSH2 0x463E JUMPI PUSH2 0x463E PUSH2 0x5989 JUMP JUMPDEST PUSH1 0x20 MUL PUSH1 0x20 ADD ADD MLOAD DUP4 PUSH1 0x19 DUP2 MLOAD DUP2 LT PUSH2 0x4659 JUMPI PUSH2 0x4659 PUSH2 0x5989 JUMP JUMPDEST PUSH1 0x20 MUL PUSH1 0x20 ADD ADD MLOAD MULMOD DUP3 PUSH1 0x10 DUP2 MLOAD DUP2 LT PUSH2 0x4675 JUMPI PUSH2 0x4675 PUSH2 0x5989 JUMP JUMPDEST PUSH1 0x20 MUL PUSH1 0x20 ADD ADD DUP2 DUP2 MSTORE POP POP PUSH2 0x468C DUP3 PUSH1 0xC PUSH2 0x5642 JUMP JUMPDEST PUSH0 DUP1 MLOAD PUSH1 0x20 PUSH2 0x5A0E DUP4 CODECOPY DUP2 MLOAD SWAP2 MSTORE DUP3 PUSH1 0x1A DUP2 MLOAD DUP2 LT PUSH2 0x46AD JUMPI PUSH2 0x46AD PUSH2 0x5989 JUMP JUMPDEST PUSH1 0x20 MUL PUSH1 0x20 ADD ADD MLOAD DUP4 PUSH1 0x1B DUP2 MLOAD DUP2 LT PUSH2 0x46C8 JUMPI PUSH2 0x46C8 PUSH2 0x5989 JUMP JUMPDEST PUSH1 0x20 MUL PUSH1 0x20 ADD ADD MLOAD MULMOD DUP3 PUSH1 0x1E DUP2 MLOAD DUP2 LT PUSH2 0x46E4 JUMPI PUSH2 0x46E4 PUSH2 0x5989 JUMP JUMPDEST PUSH1 0x20 SWAP1 DUP2 MUL SWAP2 SWAP1 SWAP2 ADD ADD MSTORE PUSH0 DUP1 MLOAD PUSH1 0x20 PUSH2 0x5A0E DUP4 CODECOPY DUP2 MLOAD SWAP2 MSTORE DUP3 PUSH1 0x18 DUP2 MLOAD DUP2 LT PUSH2 0x4710 JUMPI PUSH2 0x4710 PUSH2 0x5989 JUMP JUMPDEST PUSH1 0x20 MUL PUSH1 0x20 ADD ADD MLOAD DUP4 PUSH1 0x1E DUP2 MLOAD DUP2 LT PUSH2 0x472B JUMPI PUSH2 0x472B PUSH2 0x5989 JUMP JUMPDEST PUSH1 0x20 MUL PUSH1 0x20 ADD ADD MLOAD MULMOD DUP3 PUSH1 0x1F DUP2 MLOAD DUP2 LT PUSH2 0x4747 JUMPI PUSH2 0x4747 PUSH2 0x5989 JUMP JUMPDEST PUSH1 0x20 SWAP1 DUP2 MUL SWAP2 SWAP1 SWAP2 ADD ADD MSTORE PUSH0 DUP1 MLOAD PUSH1 0x20 PUSH2 0x5A0E DUP4 CODECOPY DUP2 MLOAD SWAP2 MSTORE DUP3 PUSH1 0x17 DUP2 MLOAD DUP2 LT PUSH2 0x4773 JUMPI PUSH2 0x4773 PUSH2 0x5989 JUMP JUMPDEST PUSH1 0x20 MUL PUSH1 0x20 ADD ADD MLOAD DUP4 PUSH1 0x1F DUP2 MLOAD DUP2 LT PUSH2 0x478E JUMPI PUSH2 0x478E PUSH2 0x5989 JUMP JUMPDEST PUSH1 0x20 MUL PUSH1 0x20 ADD ADD MLOAD MULMOD DUP3 PUSH1 0x20 DUP2 MLOAD DUP2 LT PUSH2 0x47AA JUMPI PUSH2 0x47AA PUSH2 0x5989 JUMP JUMPDEST PUSH1 0x20 MUL PUSH1 0x20 ADD ADD DUP2 DUP2 MSTORE POP POP DUP6 DUP6 PUSH1 0xA DUP2 DUP2 LT PUSH2 0x47C9 JUMPI PUSH2 0x47C9 PUSH2 0x5989 JUMP JUMPDEST SWAP1 POP PUSH1 0x20 MUL ADD CALLDATALOAD DUP7 DUP7 PUSH1 0xB DUP2 DUP2 LT PUSH2 0x47E3 JUMPI PUSH2 0x47E3 PUSH2 0x5989 JUMP JUMPDEST SWAP1 POP PUSH1 0x20 MUL ADD CALLDATALOAD DUP4 PUSH1 0xE DUP2 MLOAD DUP2 LT PUSH2 0x47FD JUMPI PUSH2 0x47FD PUSH2 0x5989 JUMP JUMPDEST PUSH1 0x20 MUL PUSH1 0x20 ADD ADD DUP5 PUSH1 0xF DUP2 MLOAD DUP2 LT PUSH2 0x4817 JUMPI PUSH2 0x4817 PUSH2 0x5989 JUMP JUMPDEST PUSH1 0x20 SWAP1 DUP2 MUL SWAP2 SWAP1 SWAP2 ADD ADD SWAP2 SWAP1 SWAP2 MSTORE MSTORE PUSH0 DUP1 MLOAD PUSH1 0x20 PUSH2 0x5A0E DUP4 CODECOPY DUP2 MLOAD SWAP2 MSTORE DUP1 DUP4 PUSH1 0x7 DUP2 MLOAD DUP2 LT PUSH2 0x4848 JUMPI PUSH2 0x4848 PUSH2 0x5989 JUMP JUMPDEST PUSH1 0x20 MUL PUSH1 0x20 ADD ADD MLOAD DUP5 PUSH1 0x20 DUP2 MLOAD DUP2 LT PUSH2 0x4863 JUMPI PUSH2 0x4863 PUSH2 0x5989 JUMP JUMPDEST PUSH1 0x20 MUL PUSH1 0x20 ADD ADD MLOAD MULMOD DUP4 PUSH1 0x15 DUP2 MLOAD DUP2 LT PUSH2 0x487F JUMPI PUSH2 0x487F PUSH2 0x5989 JUMP JUMPDEST PUSH1 0x20 MUL PUSH1 0x20 ADD ADD MLOAD MULMOD DUP3 PUSH1 0x10 DUP2 MLOAD DUP2 LT PUSH2 0x489B JUMPI PUSH2 0x489B PUSH2 0x5989 JUMP JUMPDEST PUSH1 0x20 MUL PUSH1 0x20 ADD ADD DUP2 DUP2 MSTORE POP POP PUSH2 0x48B2 DUP3 PUSH1 0xC PUSH2 0x5642 JUMP JUMPDEST DUP6 DUP6 PUSH1 0xC DUP2 DUP2 LT PUSH2 0x48C5 JUMPI PUSH2 0x48C5 PUSH2 0x5989 JUMP JUMPDEST SWAP1 POP PUSH1 0x20 MUL ADD CALLDATALOAD DUP7 DUP7 PUSH1 0xD DUP2 DUP2 LT PUSH2 0x48DF JUMPI PUSH2 0x48DF PUSH2 0x5989 JUMP JUMPDEST SWAP1 POP PUSH1 0x20 MUL ADD CALLDATALOAD DUP4 PUSH1 0xE DUP2 MLOAD DUP2 LT PUSH2 0x48F9 JUMPI PUSH2 0x48F9 PUSH2 0x5989 JUMP JUMPDEST PUSH1 0x20 MUL PUSH1 0x20 ADD ADD DUP5 PUSH1 0xF DUP2 MLOAD DUP2 LT PUSH2 0x4913 JUMPI PUSH2 0x4913 PUSH2 0x5989 JUMP JUMPDEST PUSH1 0x20 SWAP1 DUP2 MUL SWAP2 SWAP1 SWAP2 ADD ADD SWAP2 SWAP1 SWAP2 MSTORE MSTORE PUSH0 DUP1 MLOAD PUSH1 0x20 PUSH2 0x5A0E DUP4 CODECOPY DUP2 MLOAD SWAP2 MSTORE DUP3 PUSH1 0x7 DUP2 MLOAD DUP2 LT PUSH2 0x4943 JUMPI PUSH2 0x4943 PUSH2 0x5989 JUMP JUMPDEST PUSH1 0x20 MUL PUSH1 0x20 ADD ADD MLOAD DUP4 PUSH1 0x14 DUP2 MLOAD DUP2 LT PUSH2 0x495E JUMPI PUSH2 0x495E PUSH2 0x5989 JUMP JUMPDEST PUSH1 0x20 MUL PUSH1 0x20 ADD ADD MLOAD MULMOD DUP3 PUSH1 0x10 DUP2 MLOAD DUP2 LT PUSH2 0x497A JUMPI PUSH2 0x497A PUSH2 0x5989 JUMP JUMPDEST PUSH1 0x20 MUL PUSH1 0x20 ADD ADD DUP2 DUP2 MSTORE POP POP PUSH2 0x4991 DUP3 PUSH1 0xC PUSH2 0x5642 JUMP JUMPDEST DUP6 DUP6 PUSH1 0xE DUP2 DUP2 LT PUSH2 0x49A4 JUMPI PUSH2 0x49A4 PUSH2 0x5989 JUMP JUMPDEST SWAP1 POP PUSH1 0x20 MUL ADD CALLDATALOAD DUP7 DUP7 PUSH1 0xF DUP2 DUP2 LT PUSH2 0x49BE JUMPI PUSH2 0x49BE PUSH2 0x5989 JUMP JUMPDEST SWAP1 POP PUSH1 0x20 MUL ADD CALLDATALOAD DUP4 PUSH1 0xE DUP2 MLOAD DUP2 LT PUSH2 0x49D8 JUMPI PUSH2 0x49D8 PUSH2 0x5989 JUMP JUMPDEST PUSH1 0x20 MUL PUSH1 0x20 ADD ADD DUP5 PUSH1 0xF DUP2 MLOAD DUP2 LT PUSH2 0x49F2 JUMPI PUSH2 0x49F2 PUSH2 0x5989 JUMP JUMPDEST PUSH1 0x20 MUL PUSH1 0x20 ADD ADD DUP3 DUP2 MSTORE POP DUP3 DUP2 MSTORE POP POP POP DUP2 PUSH1 0x14 DUP2 MLOAD DUP2 LT PUSH2 0x4A16 JUMPI PUSH2 0x4A16 PUSH2 0x5989 JUMP JUMPDEST PUSH1 0x20 MUL PUSH1 0x20 ADD ADD MLOAD DUP3 PUSH1 0x10 DUP2 MLOAD DUP2 LT PUSH2 0x4A31 JUMPI PUSH2 0x4A31 PUSH2 0x5989 JUMP JUMPDEST PUSH1 0x20 MUL PUSH1 0x20 ADD ADD DUP2 DUP2 MSTORE POP POP PUSH2 0x4A48 DUP3 PUSH1 0xC PUSH2 0x5642 JUMP JUMPDEST DUP6 DUP6 PUSH1 0x10 DUP2 DUP2 LT PUSH2 0x4A5B JUMPI PUSH2 0x4A5B PUSH2 0x5989 JUMP JUMPDEST SWAP1 POP PUSH1 0x20 MUL ADD CALLDATALOAD DUP7 DUP7 PUSH1 0x11 DUP2 DUP2 LT PUSH2 0x4A75 JUMPI PUSH2 0x4A75 PUSH2 0x5989 JUMP JUMPDEST SWAP1 POP PUSH1 0x20 MUL ADD CALLDATALOAD DUP4 PUSH1 0xE DUP2 MLOAD DUP2 LT PUSH2 0x4A8F JUMPI PUSH2 0x4A8F PUSH2 0x5989 JUMP JUMPDEST PUSH1 0x20 MUL PUSH1 0x20 ADD ADD DUP5 PUSH1 0xF DUP2 MLOAD DUP2 LT PUSH2 0x4AA9 JUMPI PUSH2 0x4AA9 PUSH2 0x5989 JUMP JUMPDEST PUSH1 0x20 SWAP1 DUP2 MUL SWAP2 SWAP1 SWAP2 ADD ADD SWAP2 SWAP1 SWAP2 MSTORE MSTORE PUSH0 DUP1 MLOAD PUSH1 0x20 PUSH2 0x5A0E DUP4 CODECOPY DUP2 MLOAD SWAP2 MSTORE DUP3 PUSH1 0x20 DUP2 MLOAD DUP2 LT PUSH2 0x4AD9 JUMPI PUSH2 0x4AD9 PUSH2 0x5989 JUMP JUMPDEST PUSH1 0x20 MUL PUSH1 0x20 ADD ADD MLOAD DUP4 PUSH1 0x15 DUP2 MLOAD DUP2 LT PUSH2 0x4AF4 JUMPI PUSH2 0x4AF4 PUSH2 0x5989 JUMP JUMPDEST PUSH1 0x20 MUL PUSH1 0x20 ADD ADD MLOAD MULMOD DUP3 PUSH1 0x10 DUP2 MLOAD DUP2 LT PUSH2 0x4B10 JUMPI PUSH2 0x4B10 PUSH2 0x5989 JUMP JUMPDEST PUSH1 0x20 MUL PUSH1 0x20 ADD ADD DUP2 DUP2 MSTORE POP POP PUSH2 0x4B27 DUP3 PUSH1 0xC PUSH2 0x5642 JUMP JUMPDEST DUP6 DUP6 PUSH1 0x12 DUP2 DUP2 LT PUSH2 0x4B3A JUMPI PUSH2 0x4B3A PUSH2 0x5989 JUMP JUMPDEST SWAP1 POP PUSH1 0x20 MUL ADD CALLDATALOAD DUP7 DUP7 PUSH1 0x13 DUP2 DUP2 LT PUSH2 0x4B54 JUMPI PUSH2 0x4B54 PUSH2 0x5989 JUMP JUMPDEST SWAP1 POP PUSH1 0x20 MUL ADD CALLDATALOAD DUP4 PUSH1 0xE DUP2 MLOAD DUP2 LT PUSH2 0x4B6E JUMPI PUSH2 0x4B6E PUSH2 0x5989 JUMP JUMPDEST PUSH1 0x20 MUL PUSH1 0x20 ADD ADD DUP5 PUSH1 0xF DUP2 MLOAD DUP2 LT PUSH2 0x4B88 JUMPI PUSH2 0x4B88 PUSH2 0x5989 JUMP JUMPDEST PUSH1 0x20 SWAP1 DUP2 MUL SWAP2 SWAP1 SWAP2 ADD ADD SWAP2 SWAP1 SWAP2 MSTORE MSTORE PUSH0 DUP1 MLOAD PUSH1 0x20 PUSH2 0x5A0E DUP4 CODECOPY DUP2 MLOAD SWAP2 MSTORE DUP1 DUP4 PUSH1 0x7 DUP2 MLOAD DUP2 LT PUSH2 0x4BB9 JUMPI PUSH2 0x4BB9 PUSH2 0x5989 JUMP JUMPDEST PUSH1 0x20 MUL PUSH1 0x20 ADD ADD MLOAD DUP5 PUSH1 0x1F DUP2 MLOAD DUP2 LT PUSH2 0x4BD4 JUMPI PUSH2 0x4BD4 PUSH2 0x5989 JUMP JUMPDEST PUSH1 0x20 MUL PUSH1 0x20 ADD ADD MLOAD MULMOD DUP4 PUSH1 0x15 DUP2 MLOAD DUP2 LT PUSH2 0x4BF0 JUMPI PUSH2 0x4BF0 PUSH2 0x5989 JUMP JUMPDEST PUSH1 0x20 MUL PUSH1 0x20 ADD ADD MLOAD MULMOD DUP3 PUSH1 0x10 DUP2 MLOAD DUP2 LT PUSH2 0x4C0C JUMPI PUSH2 0x4C0C PUSH2 0x5989 JUMP JUMPDEST PUSH1 0x20 MUL PUSH1 0x20 ADD ADD DUP2 DUP2 MSTORE POP POP PUSH2 0x4C23 DUP3 PUSH1 0xC PUSH2 0x5642 JUMP JUMPDEST PUSH0 DUP1 MLOAD PUSH1 0x20 PUSH2 0x5A0E DUP4 CODECOPY DUP2 MLOAD SWAP2 MSTORE DUP3 PUSH1 0x18 DUP2 MLOAD DUP2 LT PUSH2 0x4C44 JUMPI PUSH2 0x4C44 PUSH2 0x5989 JUMP JUMPDEST PUSH1 0x20 MUL PUSH1 0x20 ADD ADD MLOAD DUP4 PUSH1 0x1B DUP2 MLOAD DUP2 LT PUSH2 0x4C5F JUMPI PUSH2 0x4C5F PUSH2 0x5989 JUMP JUMPDEST PUSH1 0x20 MUL PUSH1 0x20 ADD ADD MLOAD MULMOD DUP3 PUSH1 0x14 DUP2 MLOAD DUP2 LT PUSH2 0x4C7B JUMPI PUSH2 0x4C7B PUSH2 0x5989 JUMP JUMPDEST PUSH1 0x20 SWAP1 DUP2 MUL SWAP2 SWAP1 SWAP2 ADD ADD MSTORE PUSH0 DUP1 MLOAD PUSH1 0x20 PUSH2 0x5A0E DUP4 CODECOPY DUP2 MLOAD SWAP2 MSTORE DUP3 PUSH1 0x17 DUP2 MLOAD DUP2 LT PUSH2 0x4CA7 JUMPI PUSH2 0x4CA7 PUSH2 0x5989 JUMP JUMPDEST PUSH1 0x20 MUL PUSH1 0x20 ADD ADD MLOAD DUP4 PUSH1 0x14 DUP2 MLOAD DUP2 LT PUSH2 0x4CC2 JUMPI PUSH2 0x4CC2 PUSH2 0x5989 JUMP JUMPDEST PUSH1 0x20 MUL PUSH1 0x20 ADD ADD MLOAD MULMOD DUP3 PUSH1 0x20 DUP2 MLOAD DUP2 LT PUSH2 0x4CDE JUMPI PUSH2 0x4CDE PUSH2 0x5989 JUMP JUMPDEST PUSH1 0x20 MUL PUSH1 0x20 ADD ADD DUP2 DUP2 MSTORE POP POP PUSH32 0x2CCD061090B604DFD498B13BE8582B4845885F78E5F21958AFDB66C43D531CC6 PUSH32 0x26FF44177D0CD2B5F16EEA872D5A038C810058380B6E79E22FC0ACDE011597CA DUP4 PUSH1 0xE DUP2 MLOAD DUP2 LT PUSH2 0x4D3F JUMPI PUSH2 0x4D3F PUSH2 0x5989 JUMP JUMPDEST PUSH1 0x20 MUL PUSH1 0x20 ADD ADD DUP5 PUSH1 0xF DUP2 MLOAD DUP2 LT PUSH2 0x4D59 JUMPI PUSH2 0x4D59 PUSH2 0x5989 JUMP JUMPDEST PUSH1 0x20 SWAP1 DUP2 MUL SWAP2 SWAP1 SWAP2 ADD ADD SWAP2 SWAP1 SWAP2 MSTORE MSTORE PUSH0 DUP1 MLOAD PUSH1 0x20 PUSH2 0x5A0E DUP4 CODECOPY DUP2 MLOAD SWAP2 MSTORE DUP1 DUP4 PUSH1 0x7 DUP2 MLOAD DUP2 LT PUSH2 0x4D8A JUMPI PUSH2 0x4D8A PUSH2 0x5989 JUMP JUMPDEST PUSH1 0x20 MUL PUSH1 0x20 ADD ADD MLOAD DUP5 PUSH1 0x20 DUP2 MLOAD DUP2 LT PUSH2 0x4DA5 JUMPI PUSH2 0x4DA5 PUSH2 0x5989 JUMP JUMPDEST PUSH1 0x20 MUL PUSH1 0x20 ADD ADD MLOAD MULMOD DUP4 PUSH1 0x15 DUP2 MLOAD DUP2 LT PUSH2 0x4DC1 JUMPI PUSH2 0x4DC1 PUSH2 0x5989 JUMP JUMPDEST PUSH1 0x20 MUL PUSH1 0x20 ADD ADD MLOAD MULMOD DUP3 PUSH1 0x10 DUP2 MLOAD DUP2 LT PUSH2 0x4DDD JUMPI PUSH2 0x4DDD PUSH2 0x5989 JUMP JUMPDEST PUSH1 0x20 MUL PUSH1 0x20 ADD ADD DUP2 DUP2 MSTORE POP POP PUSH2 0x4DF4 DUP3 PUSH1 0xC PUSH2 0x5642 JUMP JUMPDEST PUSH32 0x144DB2A929F0858153BAF614D5BDD6C38BB20112E16DEDF1B06059FB78178955 PUSH32 0x1DE5ACFF4DB61A1678D93E560FD48E4F8249392C0E2431C567BED61B67EF85F8 DUP4 PUSH1 0xE DUP2 MLOAD DUP2 LT PUSH2 0x4E49 JUMPI PUSH2 0x4E49 PUSH2 0x5989 JUMP JUMPDEST PUSH1 0x20 MUL PUSH1 0x20 ADD ADD DUP5 PUSH1 0xF DUP2 MLOAD DUP2 LT PUSH2 0x4E63 JUMPI PUSH2 0x4E63 PUSH2 0x5989 JUMP JUMPDEST PUSH1 0x20 SWAP1 DUP2 MUL SWAP2 SWAP1 SWAP2 ADD ADD SWAP2 SWAP1 SWAP2 MSTORE MSTORE PUSH0 DUP1 MLOAD PUSH1 0x20 PUSH2 0x5A0E DUP4 CODECOPY DUP2 MLOAD SWAP2 MSTORE DUP3 PUSH1 0x20 DUP2 MLOAD DUP2 LT PUSH2 0x4E93 JUMPI PUSH2 0x4E93 PUSH2 0x5989 JUMP JUMPDEST PUSH1 0x20 MUL PUSH1 0x20 ADD ADD MLOAD DUP4 PUSH1 0x15 DUP2 MLOAD DUP2 LT PUSH2 0x4EAE JUMPI PUSH2 0x4EAE PUSH2 0x5989 JUMP JUMPDEST PUSH1 0x20 MUL PUSH1 0x20 ADD ADD MLOAD MULMOD DUP3 PUSH1 0x10 DUP2 MLOAD DUP2 LT PUSH2 0x4ECA JUMPI PUSH2 0x4ECA PUSH2 0x5989 JUMP JUMPDEST PUSH1 0x20 MUL PUSH1 0x20 ADD ADD DUP2 DUP2 MSTORE POP POP PUSH2 0x4EE1 DUP3 PUSH1 0xC PUSH2 0x5642 JUMP JUMPDEST PUSH32 0x3E1E272F39D3711B00FC0C25CA22AE55BA2859B57A64B61F5DB599518C02EA1 PUSH32 0x37D965A4A481D31ED348A473F77CFA7195F9DDF89A090860A81B72CE238A6B2 DUP4 PUSH1 0xE DUP2 MLOAD DUP2 LT PUSH2 0x4F36 JUMPI PUSH2 0x4F36 PUSH2 0x5989 JUMP JUMPDEST PUSH1 0x20 MUL PUSH1 0x20 ADD ADD DUP5 PUSH1 0xF DUP2 MLOAD DUP2 LT PUSH2 0x4F50 JUMPI PUSH2 0x4F50 PUSH2 0x5989 JUMP JUMPDEST PUSH1 0x20 SWAP1 DUP2 MUL SWAP2 SWAP1 SWAP2 ADD ADD SWAP2 SWAP1 SWAP2 MSTORE MSTORE PUSH0 DUP1 MLOAD PUSH1 0x20 PUSH2 0x5A0E DUP4 CODECOPY DUP2 MLOAD SWAP2 MSTORE DUP3 PUSH1 0x1B DUP2 MLOAD DUP2 LT PUSH2 0x4F80 JUMPI PUSH2 0x4F80 PUSH2 0x5989 JUMP JUMPDEST PUSH1 0x20 MUL PUSH1 0x20 ADD ADD MLOAD DUP4 PUSH1 0x15 DUP2 MLOAD DUP2 LT PUSH2 0x4F9B JUMPI PUSH2 0x4F9B PUSH2 0x5989 JUMP JUMPDEST PUSH1 0x20 MUL PUSH1 0x20 ADD ADD MLOAD MULMOD DUP3 PUSH1 0x10 DUP2 MLOAD DUP2 LT PUSH2 0x4FB7 JUMPI PUSH2 0x4FB7 PUSH2 0x5989 JUMP JUMPDEST PUSH1 0x20 MUL PUSH1 0x20 ADD ADD DUP2 DUP2 MSTORE POP POP PUSH2 0x4FCE DUP3 PUSH1 0xC PUSH2 0x5642 JUMP JUMPDEST PUSH0 DUP1 MLOAD PUSH1 0x20 PUSH2 0x5A0E DUP4 CODECOPY DUP2 MLOAD SWAP2 MSTORE DUP3 PUSH1 0x18 DUP2 MLOAD DUP2 LT PUSH2 0x4FEF JUMPI PUSH2 0x4FEF PUSH2 0x5989 JUMP JUMPDEST PUSH1 0x20 MUL PUSH1 0x20 ADD ADD MLOAD DUP4 PUSH1 0x1A DUP2 MLOAD DUP2 LT PUSH2 0x500A JUMPI PUSH2 0x500A PUSH2 0x5989 JUMP JUMPDEST PUSH1 0x20 MUL PUSH1 0x20 ADD ADD MLOAD MULMOD DUP3 PUSH1 0x20 DUP2 MLOAD DUP2 LT PUSH2 0x5026 JUMPI PUSH2 0x5026 PUSH2 0x5989 JUMP JUMPDEST PUSH1 0x20 SWAP1 DUP2 MUL SWAP2 SWAP1 SWAP2 ADD ADD MSTORE PUSH0 DUP1 MLOAD PUSH1 0x20 PUSH2 0x5A0E DUP4 CODECOPY DUP2 MLOAD SWAP2 MSTORE DUP3 PUSH1 0x17 DUP2 MLOAD DUP2 LT PUSH2 0x5052 JUMPI PUSH2 0x5052 PUSH2 0x5989 JUMP JUMPDEST PUSH1 0x20 MUL PUSH1 0x20 ADD ADD MLOAD DUP4 PUSH1 0x20 DUP2 MLOAD DUP2 LT PUSH2 0x506D JUMPI PUSH2 0x506D PUSH2 0x5989 JUMP JUMPDEST PUSH1 0x20 MUL PUSH1 0x20 ADD ADD MLOAD MULMOD DUP3 PUSH1 0x21 DUP2 MLOAD DUP2 LT PUSH2 0x5089 JUMPI PUSH2 0x5089 PUSH2 0x5989 JUMP JUMPDEST PUSH1 0x20 MUL PUSH1 0x20 ADD ADD DUP2 DUP2 MSTORE POP POP PUSH32 0x2691E18CBBEF75012A178C19867F83AE474340123B29A9DC8480D8EE97281E8C PUSH32 0x13F576026CCCFEDBD91A2318C29B258634E4B74D9F5D6C49FC598CB6F4F3497B DUP4 PUSH1 0xE DUP2 MLOAD DUP2 LT PUSH2 0x50EA JUMPI PUSH2 0x50EA PUSH2 0x5989 JUMP JUMPDEST PUSH1 0x20 MUL PUSH1 0x20 ADD ADD DUP5 PUSH1 0xF DUP2 MLOAD DUP2 LT PUSH2 0x5104 JUMPI PUSH2 0x5104 PUSH2 0x5989 JUMP JUMPDEST PUSH1 0x20 SWAP1 DUP2 MUL SWAP2 SWAP1 SWAP2 ADD ADD SWAP2 SWAP1 SWAP2 MSTORE MSTORE PUSH0 DUP1 MLOAD PUSH1 0x20 PUSH2 0x5A0E DUP4 CODECOPY DUP2 MLOAD SWAP2 MSTORE DUP1 DUP4 PUSH1 0x7 DUP2 MLOAD DUP2 LT PUSH2 0x5135 JUMPI PUSH2 0x5135 PUSH2 0x5989 JUMP JUMPDEST PUSH1 0x20 MUL PUSH1 0x20 ADD ADD MLOAD DUP5 PUSH1 0x21 DUP2 MLOAD DUP2 LT PUSH2 0x5150 JUMPI PUSH2 0x5150 PUSH2 0x5989 JUMP JUMPDEST PUSH1 0x20 MUL PUSH1 0x20 ADD ADD MLOAD MULMOD DUP4 PUSH1 0x15 DUP2 MLOAD DUP2 LT PUSH2 0x516C JUMPI PUSH2 0x516C PUSH2 0x5989 JUMP JUMPDEST PUSH1 0x20 MUL PUSH1 0x20 ADD ADD MLOAD MULMOD DUP3 PUSH1 0x10 DUP2 MLOAD DUP2 LT PUSH2 0x5188 JUMPI PUSH2 0x5188 PUSH2 0x5989 JUMP JUMPDEST PUSH1 0x20 MUL PUSH1 0x20 ADD ADD DUP2 DUP2 MSTORE POP POP PUSH2 0x519F DUP3 PUSH1 0xC PUSH2 0x5642 JUMP JUMPDEST PUSH32 0x1687E2DCE8C8969473015AB9F452649C3FD2F418E949AC81F3E708D54B2787A8 PUSH32 0x10444780CE25BC0466468DA858270215DD9D662A53BB2D44B8510361B4207A99 DUP4 PUSH1 0xE DUP2 MLOAD DUP2 LT PUSH2 0x51F4 JUMPI PUSH2 0x51F4 PUSH2 0x5989 JUMP JUMPDEST PUSH1 0x20 MUL PUSH1 0x20 ADD ADD DUP5 PUSH1 0xF DUP2 MLOAD DUP2 LT PUSH2 0x520E JUMPI PUSH2 0x520E PUSH2 0x5989 JUMP JUMPDEST PUSH1 0x20 SWAP1 DUP2 MUL SWAP2 SWAP1 SWAP2 ADD ADD SWAP2 SWAP1 SWAP2 MSTORE MSTORE PUSH0 DUP1 MLOAD PUSH1 0x20 PUSH2 0x5A0E DUP4 CODECOPY DUP2 MLOAD SWAP2 MSTORE DUP3 PUSH1 0x21 DUP2 MLOAD DUP2 LT PUSH2 0x523E JUMPI PUSH2 0x523E PUSH2 0x5989 JUMP JUMPDEST PUSH1 0x20 MUL PUSH1 0x20 ADD ADD MLOAD DUP4 PUSH1 0x15 DUP2 MLOAD DUP2 LT PUSH2 0x5259 JUMPI PUSH2 0x5259 PUSH2 0x5989 JUMP JUMPDEST PUSH1 0x20 MUL PUSH1 0x20 ADD ADD MLOAD MULMOD DUP3 PUSH1 0x10 DUP2 MLOAD DUP2 LT PUSH2 0x5275 JUMPI PUSH2 0x5275 PUSH2 0x5989 JUMP JUMPDEST PUSH1 0x20 MUL PUSH1 0x20 ADD ADD DUP2 DUP2 MSTORE POP POP PUSH2 0x528C DUP3 PUSH1 0xC PUSH2 0x5642 JUMP JUMPDEST PUSH32 0x2B2A56D6EB93B6117385603F59CB0CC8617BDF5C1109E888E13D61E4C4E335A6 PUSH32 0x1AD9EE5B40A8090AD1942526AE4B47A08066B5DCC8F11D704E3917FE4DD7C69E DUP4 PUSH1 0xE DUP2 MLOAD DUP2 LT PUSH2 0x52E1 JUMPI PUSH2 0x52E1 PUSH2 0x5989 JUMP JUMPDEST PUSH1 0x20 MUL PUSH1 0x20 ADD ADD DUP5 PUSH1 0xF DUP2 MLOAD DUP2 LT PUSH2 0x52FB JUMPI PUSH2 0x52FB PUSH2 0x5989 JUMP JUMPDEST PUSH1 0x20 SWAP1 DUP2 MUL SWAP2 SWAP1 SWAP2 ADD ADD SWAP2 SWAP1 SWAP2 MSTORE MSTORE PUSH0 DUP1 MLOAD PUSH1 0x20 PUSH2 0x5A0E DUP4 CODECOPY DUP2 MLOAD SWAP2 MSTORE DUP3 PUSH1 0x20 DUP2 MLOAD DUP2 LT PUSH2 0x532B JUMPI PUSH2 0x532B PUSH2 0x5989 JUMP JUMPDEST PUSH1 0x20 MUL PUSH1 0x20 ADD ADD MLOAD DUP4 PUSH1 0x15 DUP2 MLOAD DUP2 LT PUSH2 0x5346 JUMPI PUSH2 0x5346 PUSH2 0x5989 JUMP JUMPDEST PUSH1 0x20 MUL PUSH1 0x20 ADD ADD MLOAD MULMOD DUP3 PUSH1 0x10 DUP2 MLOAD DUP2 LT PUSH2 0x5362 JUMPI PUSH2 0x5362 PUSH2 0x5989 JUMP JUMPDEST PUSH1 0x20 MUL PUSH1 0x20 ADD ADD DUP2 DUP2 MSTORE POP POP PUSH2 0x5379 DUP3 PUSH1 0xC PUSH2 0x5642 JUMP JUMPDEST PUSH0 DUP1 MLOAD PUSH1 0x20 PUSH2 0x5A0E DUP4 CODECOPY DUP2 MLOAD SWAP2 MSTORE DUP3 PUSH1 0x17 DUP2 MLOAD DUP2 LT PUSH2 0x539A JUMPI PUSH2 0x539A PUSH2 0x5989 JUMP JUMPDEST PUSH1 0x20 MUL PUSH1 0x20 ADD ADD MLOAD DUP4 PUSH1 0x1A DUP2 MLOAD DUP2 LT PUSH2 0x53B5 JUMPI PUSH2 0x53B5 PUSH2 0x5989 JUMP JUMPDEST PUSH1 0x20 MUL PUSH1 0x20 ADD ADD MLOAD MULMOD DUP3 PUSH1 0x21 DUP2 MLOAD DUP2 LT PUSH2 0x53D1 JUMPI PUSH2 0x53D1 PUSH2 0x5989 JUMP JUMPDEST PUSH1 0x20 MUL PUSH1 0x20 ADD ADD DUP2 DUP2 MSTORE POP POP PUSH32 0x130B0AF8CB2226D79CDBE8C26420B915ED3F9AA76E849B369F5961B83C11E7B0 PUSH32 0x217A16827BF5635BEA2191712D8B913324160913266C8A902321F74198A2731A DUP4 PUSH1 0xE DUP2 MLOAD DUP2 LT PUSH2 0x5432 JUMPI PUSH2 0x5432 PUSH2 0x5989 JUMP JUMPDEST PUSH1 0x20 MUL PUSH1 0x20 ADD ADD DUP5 PUSH1 0xF DUP2 MLOAD DUP2 LT PUSH2 0x544C JUMPI PUSH2 0x544C PUSH2 0x5989 JUMP JUMPDEST PUSH1 0x20 SWAP1 DUP2 MUL SWAP2 SWAP1 SWAP2 ADD ADD SWAP2 SWAP1 SWAP2 MSTORE MSTORE PUSH0 DUP1 MLOAD PUSH1 0x20 PUSH2 0x5A0E DUP4 CODECOPY DUP2 MLOAD SWAP2 MSTORE DUP1 DUP4 PUSH1 0x7 DUP2 MLOAD DUP2 LT PUSH2 0x547D JUMPI PUSH2 0x547D PUSH2 0x5989 JUMP JUMPDEST PUSH1 0x20 MUL PUSH1 0x20 ADD ADD MLOAD DUP5 PUSH1 0x21 DUP2 MLOAD DUP2 LT PUSH2 0x5498 JUMPI PUSH2 0x5498 PUSH2 0x5989 JUMP JUMPDEST PUSH1 0x20 MUL PUSH1 0x20 ADD ADD MLOAD MULMOD DUP4 PUSH1 0x15 DUP2 MLOAD DUP2 LT PUSH2 0x54B4 JUMPI PUSH2 0x54B4 PUSH2 0x5989 JUMP JUMPDEST PUSH1 0x20 MUL PUSH1 0x20 ADD ADD MLOAD MULMOD DUP3 PUSH1 0x10 DUP2 MLOAD DUP2 LT PUSH2 0x54D0 JUMPI PUSH2 0x54D0 PUSH2 0x5989 JUMP JUMPDEST PUSH1 0x20 MUL PUSH1 0x20 ADD ADD DUP2 DUP2 MSTORE POP POP PUSH2 0x54E7 DUP3 PUSH1 0xC PUSH2 0x5642 JUMP JUMPDEST POP SWAP5 SWAP4 POP POP POP POP JUMP JUMPDEST PUSH0 PUSH2 0x54F9 PUSH2 0x5794 JUMP JUMPDEST PUSH2 0x5501 PUSH2 0x57B2 JUMP JUMPDEST PUSH1 0x20 DUP1 DUP4 MSTORE DUP3 DUP2 ADD DUP2 SWAP1 MSTORE PUSH1 0x40 DUP4 ADD DUP2 SWAP1 MSTORE PUSH1 0x60 DUP4 ADD DUP7 SWAP1 MSTORE PUSH1 0x80 DUP4 ADD DUP6 SWAP1 MSTORE PUSH0 DUP1 MLOAD PUSH1 0x20 PUSH2 0x5A0E DUP4 CODECOPY DUP2 MLOAD SWAP2 MSTORE PUSH1 0xA0 DUP5 ADD MSTORE PUSH0 SWAP1 DUP3 PUSH1 0xC0 DUP6 PUSH1 0x5 GAS STATICCALL SWAP1 POP DUP1 PUSH2 0x5549 JUMPI PUSH0 DUP1 REVERT JUMPDEST POP MLOAD SWAP2 POP POP JUMPDEST SWAP3 SWAP2 POP POP JUMP JUMPDEST PUSH0 DUP1 PUSH0 DUP1 MLOAD PUSH1 0x20 PUSH2 0x5A0E DUP4 CODECOPY DUP2 MLOAD SWAP2 MSTORE DUP4 DUP6 MULMOD SWAP1 POP DUP1 DUP6 EQ PUSH2 0x55A9 JUMPI PUSH1 0x40 MLOAD PUSH3 0x461BCD PUSH1 0xE5 SHL DUP2 MSTORE PUSH1 0x20 PUSH1 0x4 DUP3 ADD MSTORE PUSH1 0x8 PUSH1 0x24 DUP3 ADD MSTORE PUSH8 0x191A5D8819985A5B PUSH1 0xC2 SHL PUSH1 0x44 DUP3 ADD MSTORE PUSH1 0x64 ADD JUMPDEST PUSH1 0x40 MLOAD DUP1 SWAP2 SUB SWAP1 REVERT JUMPDEST DUP4 PUSH0 SUB PUSH2 0x55E3 JUMPI PUSH1 0x40 MLOAD PUSH3 0x461BCD PUSH1 0xE5 SHL DUP2 MSTORE PUSH1 0x20 PUSH1 0x4 DUP3 ADD MSTORE PUSH1 0x8 PUSH1 0x24 DUP3 ADD MSTORE PUSH8 0x646976207A65726F PUSH1 0xC0 SHL PUSH1 0x44 DUP3 ADD MSTORE PUSH1 0x64 ADD PUSH2 0x55A0 JUMP JUMPDEST PUSH2 0x55FA PUSH0 DUP1 MLOAD PUSH1 0x20 PUSH2 0x5A0E DUP4 CODECOPY DUP2 MLOAD SWAP2 MSTORE DUP5 PUSH2 0x59C4 JUMP JUMPDEST SWAP6 SWAP5 POP POP POP POP POP JUMP JUMPDEST DUP2 PUSH2 0x560F DUP3 PUSH1 0x2 PUSH2 0x59E3 JUMP JUMPDEST DUP2 MLOAD DUP2 LT PUSH2 0x561F JUMPI PUSH2 0x561F PUSH2 0x5989 JUMP JUMPDEST PUSH1 0x20 MUL PUSH1 0x20 ADD ADD MLOAD PUSH1 0x1 SUB PUSH2 0x5632 JUMPI POP POP JUMP JUMPDEST PUSH2 0x563E DUP3 DUP3 PUSH1 0x1 PUSH2 0x569F JUMP JUMPDEST POP POP JUMP JUMPDEST PUSH0 DUP1 PUSH2 0x564F DUP4 PUSH1 0x20 PUSH2 0x59F6 JUMP JUMPDEST PUSH2 0x565A SWAP1 PUSH1 0x20 PUSH2 0x59E3 JUMP JUMPDEST SWAP1 POP PUSH0 PUSH2 0x5668 DUP3 PUSH1 0x40 PUSH2 0x59E3 JUMP JUMPDEST SWAP1 POP PUSH1 0x40 DUP6 DUP3 ADD PUSH1 0x60 DUP2 PUSH1 0x7 GAS STATICCALL SWAP3 POP DUP3 PUSH2 0x5681 JUMPI PUSH0 DUP1 REVERT JUMPDEST PUSH1 0x40 DUP6 DUP4 ADD PUSH1 0x80 DUP2 PUSH1 0x6 GAS STATICCALL SWAP3 POP DUP3 PUSH2 0x5698 JUMPI PUSH0 DUP1 REVERT JUMPDEST POP POP POP POP POP JUMP JUMPDEST DUP1 PUSH0 SUB PUSH2 0x56F2 JUMPI PUSH0 DUP4 DUP4 DUP2 MLOAD DUP2 LT PUSH2 0x56B9 JUMPI PUSH2 0x56B9 PUSH2 0x5989 JUMP JUMPDEST PUSH1 0x20 SWAP1 DUP2 MUL SWAP2 SWAP1 SWAP2 ADD ADD MSTORE PUSH0 DUP4 PUSH2 0x56D1 DUP5 PUSH1 0x1 PUSH2 0x59E3 JUMP JUMPDEST DUP2 MLOAD DUP2 LT PUSH2 0x56E1 JUMPI PUSH2 0x56E1 PUSH2 0x5989 JUMP JUMPDEST PUSH1 0x20 MUL PUSH1 0x20 ADD ADD DUP2 DUP2 MSTORE POP POP POP POP POP JUMP JUMPDEST PUSH0 PUSH2 0x56FE DUP4 PUSH1 0x20 PUSH2 0x59F6 JUMP JUMPDEST PUSH2 0x5709 SWAP1 PUSH1 0x20 PUSH2 0x59E3 JUMP JUMPDEST SWAP3 POP PUSH0 PUSH1 0x60 PUSH2 0x5718 DUP5 DUP3 PUSH2 0x59F6 JUMP JUMPDEST PUSH2 0x5722 SWAP1 DUP7 PUSH2 0x59E3 JUMP JUMPDEST PUSH2 0x572C SWAP2 SWAP1 PUSH2 0x59B1 JUMP JUMPDEST SWAP1 POP PUSH1 0x40 DUP6 DUP3 ADD PUSH1 0x60 DUP2 PUSH1 0x7 GAS STATICCALL SWAP2 POP DUP2 PUSH2 0x5745 JUMPI PUSH0 DUP1 REVERT JUMPDEST DUP4 DUP2 EQ PUSH2 0x5698 JUMPI PUSH2 0x5757 PUSH1 0x60 DUP3 PUSH2 0x59B1 JUMP JUMPDEST SWAP1 POP PUSH1 0x40 PUSH1 0x20 DUP3 ADD DUP7 ADD PUSH1 0x60 DUP4 DUP9 ADD PUSH1 0x7 GAS STATICCALL SWAP2 POP DUP2 PUSH2 0x5775 JUMPI PUSH0 DUP1 REVERT JUMPDEST PUSH1 0x40 DUP6 DUP3 ADD PUSH1 0x80 PUSH1 0x20 DUP3 ADD PUSH1 0x6 GAS STATICCALL SWAP2 POP DUP2 PUSH2 0x578F JUMPI PUSH0 DUP1 REVERT JUMPDEST PUSH2 0x5745 JUMP JUMPDEST PUSH1 0x40 MLOAD DUP1 PUSH1 0xC0 ADD PUSH1 0x40 MSTORE DUP1 PUSH1 0x6 SWAP1 PUSH1 0x20 DUP3 MUL DUP1 CALLDATASIZE DUP4 CALLDATACOPY POP SWAP2 SWAP3 SWAP2 POP POP JUMP JUMPDEST PUSH1 0x40 MLOAD DUP1 PUSH1 0x20 ADD PUSH1 0x40 MSTORE DUP1 PUSH1 0x1 SWAP1 PUSH1 0x20 DUP3 MUL DUP1 CALLDATASIZE DUP4 CALLDATACOPY POP SWAP2 SWAP3 SWAP2 POP POP JUMP JUMPDEST PUSH0 DUP1 DUP4 PUSH1 0x1F DUP5 ADD SLT PUSH2 0x57E0 JUMPI PUSH0 DUP1 REVERT JUMPDEST POP DUP2 CALLDATALOAD PUSH1 0x1 PUSH1 0x1 PUSH1 0x40 SHL SUB DUP2 GT ISZERO PUSH2 0x57F6 JUMPI PUSH0 DUP1 REVERT JUMPDEST PUSH1 0x20 DUP4 ADD SWAP2 POP DUP4 PUSH1 0x20 DUP3 PUSH1 0x5 SHL DUP6 ADD ADD GT ISZERO PUSH2 0x5810 JUMPI PUSH0 DUP1 REVERT JUMPDEST SWAP3 POP SWAP3 SWAP1 POP JUMP JUMPDEST PUSH4 0x4E487B71 PUSH1 0xE0 SHL PUSH0 MSTORE PUSH1 0x41 PUSH1 0x4 MSTORE PUSH1 0x24 PUSH0 REVERT JUMPDEST PUSH0 DUP1 PUSH0 DUP1 PUSH0 PUSH1 0x60 DUP7 DUP9 SUB SLT ISZERO PUSH2 0x583F JUMPI PUSH0 DUP1 REVERT JUMPDEST DUP6 CALLDATALOAD PUSH1 0x1 PUSH1 0x1 PUSH1 0x40 SHL SUB DUP1 DUP3 GT ISZERO PUSH2 0x5855 JUMPI PUSH0 DUP1 REVERT JUMPDEST PUSH2 0x5861 DUP10 DUP4 DUP11 ADD PUSH2 0x57D0 JUMP JUMPDEST SWAP1 SWAP8 POP SWAP6 POP PUSH1 0x20 SWAP2 POP DUP8 DUP3 ADD CALLDATALOAD DUP2 DUP2 GT ISZERO PUSH2 0x587A JUMPI PUSH0 DUP1 REVERT JUMPDEST PUSH2 0x5886 DUP11 DUP3 DUP12 ADD PUSH2 0x57D0 JUMP JUMPDEST SWAP1 SWAP7 POP SWAP5 POP POP PUSH1 0x40 DUP9 ADD CALLDATALOAD DUP2 DUP2 GT ISZERO PUSH2 0x589D JUMPI PUSH0 DUP1 REVERT JUMPDEST DUP9 ADD PUSH1 0x1F DUP2 ADD DUP11 SGT PUSH2 0x58AD JUMPI PUSH0 DUP1 REVERT JUMPDEST DUP1 CALLDATALOAD DUP3 DUP2 GT ISZERO PUSH2 0x58BF JUMPI PUSH2 0x58BF PUSH2 0x5817 JUMP JUMPDEST DUP1 PUSH1 0x5 SHL PUSH1 0x40 MLOAD PUSH1 0x1F NOT PUSH1 0x3F DUP4 ADD AND DUP2 ADD DUP2 DUP2 LT DUP7 DUP3 GT OR ISZERO PUSH2 0x58E4 JUMPI PUSH2 0x58E4 PUSH2 0x5817 JUMP JUMPDEST PUSH1 0x40 MSTORE SWAP2 DUP3 MSTORE DUP5 DUP3 ADD SWAP4 POP DUP3 DUP2 ADD DUP6 ADD SWAP2 DUP13 DUP4 GT ISZERO PUSH2 0x5901 JUMPI PUSH0 DUP1 REVERT JUMPDEST SWAP3 DUP6 ADD SWAP3 JUMPDEST DUP3 DUP5 LT ISZERO PUSH2 0x591F JUMPI DUP4 CALLDATALOAD DUP6 MSTORE SWAP4 DUP6 ADD SWAP4 SWAP3 DUP6 ADD SWAP3 PUSH2 0x5906 JUMP JUMPDEST DUP1 SWAP7 POP POP POP POP POP POP POP SWAP3 SWAP6 POP SWAP3 SWAP6 SWAP1 SWAP4 POP JUMP JUMPDEST PUSH1 0x20 DUP1 DUP3 MSTORE DUP3 MLOAD DUP3 DUP3 ADD DUP2 SWAP1 MSTORE PUSH0 SWAP2 SWAP1 DUP5 DUP3 ADD SWAP1 PUSH1 0x40 DUP6 ADD SWAP1 DUP5 JUMPDEST DUP2 DUP2 LT ISZERO PUSH2 0x5969 JUMPI DUP4 MLOAD DUP4 MSTORE SWAP3 DUP5 ADD SWAP3 SWAP2 DUP5 ADD SWAP2 PUSH1 0x1 ADD PUSH2 0x594D JUMP JUMPDEST POP SWAP1 SWAP7 SWAP6 POP POP POP POP POP POP JUMP JUMPDEST PUSH4 0x4E487B71 PUSH1 0xE0 SHL PUSH0 MSTORE PUSH1 0x12 PUSH1 0x4 MSTORE PUSH1 0x24 PUSH0 REVERT JUMPDEST PUSH4 0x4E487B71 PUSH1 0xE0 SHL PUSH0 MSTORE PUSH1 0x32 PUSH1 0x4 MSTORE PUSH1 0x24 PUSH0 REVERT JUMPDEST PUSH4 0x4E487B71 PUSH1 0xE0 SHL PUSH0 MSTORE PUSH1 0x11 PUSH1 0x4 MSTORE PUSH1 0x24 PUSH0 REVERT JUMPDEST DUP2 DUP2 SUB DUP2 DUP2 GT ISZERO PUSH2 0x554F JUMPI PUSH2 0x554F PUSH2 0x599D JUMP JUMPDEST PUSH0 DUP3 PUSH2 0x59DE JUMPI PUSH4 0x4E487B71 PUSH1 0xE0 SHL PUSH0 MSTORE PUSH1 0x12 PUSH1 0x4 MSTORE PUSH1 0x24 PUSH0 REVERT JUMPDEST POP MOD SWAP1 JUMP JUMPDEST DUP1 DUP3 ADD DUP1 DUP3 GT ISZERO PUSH2 0x554F JUMPI PUSH2 0x554F PUSH2 0x599D JUMP JUMPDEST DUP1 DUP3 MUL DUP2 ISZERO DUP3 DUP3 DIV DUP5 EQ OR PUSH2 0x554F JUMPI PUSH2 0x554F PUSH2 0x599D JUMP INVALID ADDRESS PUSH5 0x4E72E131A0 0x29 0xB8 POP GASLIMIT 0xB6 DUP2 DUP2 PC TSTORE 0x28 CALLER 0xE8 BASEFEE PUSH26 0xB9709143E1F593F000000109226B6E22C6F0CA64EC26AAD4C86E PUSH18 0x5B5F898E5E963F25870E56BBE533E9A2A264 PUSH10 0x70667358221220BCC836 CALLVALUE BLOBHASH AND 0xAE LOG0 EQ PC RETURNDATASIZE 0xB0 PUSH15 0x27E9353C06C2D60E3E008E20C01B10 CALLDATALOAD 0xCA CALLDATACOPY DUP5 PUSH5 0x736F6C6343 STOP ADDMOD XOR STOP CALLER "
		},
		"gasEstimates": {
			"creation": {
				"codeDepositCost": "4634200",
				"executionCost": "5425",
				"totalCost": "4639625"
			},
			"external": {
				"verify_proof(uint256[],uint256[],uint256[])": "infinite"
			}
		},
		"methodIdentifiers": {
			"verify_proof(uint256[],uint256[],uint256[])": "96675190"
		}
	},
	"abi": [
		{
			"inputs": [
				{
					"internalType": "uint256[]",
					"name": "transcript",
					"type": "uint256[]"
				},
				{
					"internalType": "uint256[]",
					"name": "aux",
					"type": "uint256[]"
				},
				{
					"internalType": "uint256[]",
					"name": "buf",
					"type": "uint256[]"
				}
			],
			"name": "verify_proof",
			"outputs": [
				{
					"internalType": "uint256[]",
					"name": "",
					"type": "uint256[]"
				}
			],
			"stateMutability": "view",
			"type": "function"
		}
	]
}