{
	"data": {
		"bytecode": {
			"linkReferences": {},
			"object": "608060405234801562000010575f80fd5b5060405162001801380380620018018339810160408190526200003391620000fd565b805162000047905f9060208401906200004f565b5050620001ca565b828054828255905f5260205f20908101928215620000a5579160200282015b82811115620000a557825182546001600160a01b0319166001600160a01b039091161782556020909201916001909101906200006e565b50620000b3929150620000b7565b5090565b5b80821115620000b3575f8155600101620000b8565b634e487b7160e01b5f52604160045260245ffd5b80516001600160a01b0381168114620000f8575f80fd5b919050565b5f60208083850312156200010f575f80fd5b82516001600160401b038082111562000126575f80fd5b818501915085601f8301126200013a575f80fd5b8151818111156200014f576200014f620000cd565b8060051b604051601f19603f83011681018181108582111715620001775762000177620000cd565b60405291825284820192508381018501918883111562000195575f80fd5b938501935b82851015620001be57620001ae85620000e1565b845293850193928501926200019a565b98975050505050505050565b61162980620001d85f395ff3fe608060405234801561000f575f80fd5b5060043610610029575f3560e01c8063ae022ccd1461002d575b5f80fd5b61004061003b3660046112ba565b610042565b005b60408051602b80825261058082019092525f9160208201610560803683370190505090505f805b83811015610115575f5b85858381811061008557610085611388565b9050602002810190610097919061139c565b905081101561010c578585838181106100b2576100b2611388565b90506020028101906100c4919061139c565b828181106100d4576100d4611388565b905060200201358484806100e7906113f5565b9550815181106100f9576100f9611388565b6020908102919091010152600101610073565b50600101610069565b505f5b8781101561016a5788888281811061013257610132611388565b90506020020135838380610145906113f5565b94508151811061015757610157611388565b6020908102919091010152600101610118565b5061017582826104df565b8260028151811061018857610188611388565b602090810291909101015260408051600c8082526101a082019092525f918160200160208202803683370190505090506101c1836105be565b6101cc8b8b8561064c565b5f5b5f54811015610274575f81815481106101e9576101e9611388565b5f91825260209091200154604051630966751960e41b81526001600160a01b0390911690639667519090610229908f908f908d908d908b9060040161143d565b5f60405180830381865afa158015610243573d5f803e3d5ffd5b505050506040513d5f823e601f3d908101601f1916820160405261026a91908101906114ab565b93506001016101ce565b50825f8151811061028757610287611388565b6020026020010151815f815181106102a1576102a1611388565b602002602001018181525050826001815181106102c0576102c0611388565b6020026020010151816001815181106102db576102db611388565b602002602001018181525050826002815181106102fa576102fa611388565b60200260200101518160068151811061031557610315611388565b6020026020010181815250508260038151811061033457610334611388565b60200260200101518160078151811061034f5761034f611388565b602002602001018181525050805f8151811061036d5761036d611388565b60200260200101515f1415801561039e57508060018151811061039257610392611388565b60200260200101515f14155b6103e15760405162461bcd60e51b815260206004820152600f60248201526e1a5b9d985b1a59081dc81c1bda5b9d608a1b60448201526064015b60405180910390fd5b806006815181106103f4576103f4611388565b60200260200101515f1415801561042557508060078151811061041957610419611388565b60200260200101515f14155b6104635760405162461bcd60e51b815260206004820152600f60248201526e1a5b9d985b1a590819c81c1bda5b9d608a1b60448201526064016103d8565b5f61046d8261065c565b6104768261085f565b9050806104d15760405162461bcd60e51b815260206004820152602360248201527f76657269667920636972637569742070616972696e6720636865636b206661696044820152621b195960ea1b60648201526084016103d8565b505050505050505050505050565b5f806104ec836020611563565b6001600160401b0381111561050357610503611374565b6040519080825280601f01601f19166020018201604052801561052d576020820181803683370190505b5090505f5b83811015610581575f610546826020611563565b61055190602061157a565b90505f86838151811061056657610566611388565b60209081029190910101519184019190915250600101610532565b50805160208201206105b4907f30644e72e131a029b85045b68181585d2833e84879b9709143e1f593f00000019061158d565b9150505b92915050565b7f1f644f44662151be4e966903e77997736831faa8a01b019d5027956a32a3d4c1815f815181106105f1576105f1611388565b6020026020010181815250507f110a2a0f4dce758fe088aec3c7f63543a5743fa7262b0813bb93bada3396134d8160018151811061063157610631611388565b602002602001018181525050610649815f600161089c565b50565b610657838383610998565b505050565b7f1cf8359165a1fdc5500c8a23fd069b8503dd47310bca4cfdbd629a8b080eaa968160028151811061069057610690611388565b6020026020010181815250507f1f3709212166ad69ad84c263ba89d7869f6d8a91117c802e5b77ba6119c0f190816003815181106106d0576106d0611388565b6020026020010181815250507f1c27684a094edbfa3b952ed37a7f455d43d362f124b0bf5bbf7aa3e8689494948160048151811061071057610710611388565b6020026020010181815250507f0f28774c907c6d8f5cab87e83e1f88fbc87bfa4cecb3a834d9d0e1a72959377e8160058151811061075057610750611388565b6020026020010181815250507f198e9393920d483a7260bfb731fb5d25f1aa493335a9e71297e485b7aef312c28160088151811061079057610790611388565b6020026020010181815250507f1800deef121f1e76426a00665e5c4479674322d4f75edadd46debd5cd992f6ed816009815181106107d0576107d0611388565b6020026020010181815250507f275dc4a288d1afb3cbb1ac09187524c7db36395df7be3b99e673b13a075a65ec81600a8151811061081057610810611388565b6020026020010181815250507f1d9befcd05a5323e6da4d435f3b617cdb3af83285c2df711ef39c01571827f9d81600b8151811061085057610850611388565b60200260200101818152505050565b5f610868611255565b5f80845160206108789190611563565b9050602083826020880160085afa915081610891575f80fd5b505051151592915050565b805f036108ef575f8383815181106108b6576108b6611388565b60209081029190910101525f836108ce84600161157a565b815181106108de576108de611388565b602002602001018181525050505050565b5f6108fb836020611563565b61090690602061157a565b92505f60606109158482611563565b61091f908661157a565b61092991906115ac565b9050604085820160608160075afa915081610942575f80fd5b838114610991576109546060826115ac565b90506040602082018601606083880160075afa915081610972575f80fd5b604085820160806020820160065afa91508161098c575f80fd5b610942565b5050505050565b60408051608c8082526111a082019092525f9160208201611180803683370190505090507f0107b6732f83b23855c7231098a43e13a66f93c56cdb6283db1868bca3dd6ab4815f815181106109ef576109ef611388565b602002602001018181525050815f81518110610a0d57610a0d611388565b602002602001015181600181518110610a2857610a28611388565b60200260200101818152505081600181518110610a4757610a47611388565b602002602001015181600281518110610a6257610a62611388565b602090810291909101015260035f805b600a811015610b6357610ac1878784818110610a9057610a90611388565b905060200201358888856001610aa6919061157a565b818110610ab557610ab5611388565b90506020020135611051565b868683610acd816113f5565b9450818110610ade57610ade611388565b90506020020135848480610af1906113f5565b955081518110610b0357610b03611388565b6020908102919091010152868683610b1a816113f5565b9450818110610b2b57610b2b611388565b90506020020135848480610b3e906113f5565b955081518110610b5057610b50611388565b6020908102919091010152600101610a72565b50610b6e83836110c9565b84600281518110610b8157610b81611388565b602002602001018181525050600191505f5b6006811015610c5357610bb1878784818110610a9057610a90611388565b868683610bbd816113f5565b9450818110610bce57610bce611388565b90506020020135848480610be1906113f5565b955081518110610bf357610bf3611388565b6020908102919091010152868683610c0a816113f5565b9450818110610c1b57610c1b611388565b90506020020135848480610c2e906113f5565b955081518110610c4057610c40611388565b6020908102919091010152600101610b93565b50610c5e83836110c9565b84600381518110610c7157610c71611388565b60200260200101818152505060019150610c8b83836110c9565b84600481518110610c9e57610c9e611388565b602002602001018181525050600191505f5b6009811015610d7057610cce878784818110610a9057610a90611388565b868683610cda816113f5565b9450818110610ceb57610ceb611388565b90506020020135848480610cfe906113f5565b955081518110610d1057610d10611388565b6020908102919091010152868683610d27816113f5565b9450818110610d3857610d38611388565b90506020020135848480610d4b906113f5565b955081518110610d5d57610d5d611388565b6020908102919091010152600101610cb0565b50610d7b83836110c9565b84600581518110610d8e57610d8e611388565b602002602001018181525050600191505f5b6003811015610e6057610dbe878784818110610a9057610a90611388565b868683610dca816113f5565b9450818110610ddb57610ddb611388565b90506020020135848480610dee906113f5565b955081518110610e0057610e00611388565b6020908102919091010152868683610e17816113f5565b9450818110610e2857610e28611388565b90506020020135848480610e3b906113f5565b955081518110610e4d57610e4d611388565b6020908102919091010152600101610da0565b50610e6b83836110c9565b84600681518110610e7e57610e7e611388565b602002602001018181525050600191505f5b6046811015610eee57868683610ea5816113f5565b9450818110610eb657610eb6611388565b90506020020135848480610ec9906113f5565b955081518110610edb57610edb611388565b6020908102919091010152600101610e90565b50610ef983836110c9565b84600781518110610f0c57610f0c611388565b60200260200101818152505060019150610f2683836110c9565b84600881518110610f3957610f39611388565b602002602001018181525050610f70868683818110610f5a57610f5a611388565b905060200201358787846001610aa6919061157a565b858582610f7c816113f5565b9350818110610f8d57610f8d611388565b90506020020135838380610fa0906113f5565b945081518110610fb257610fb2611388565b6020908102919091010152858582610fc9816113f5565b9350818110610fda57610fda611388565b90506020020135838380610fed906113f5565b945081518110610fff57610fff611388565b60200260200101818152505061101583836110c9565b8460098151811061102857611028611388565b602002602001018181525050611049868683818110610f5a57610f5a611388565b505050505050565b811580159061105f57508015155b156110c5575f5f805160206115d483398151915282830990505f5f805160206115d483398151915284850990505f805160206115d483398151915284820990505f805160206115d48339815191526003820890508082146110c2576110c26115bf565b50505b5050565b5f808383815181106110dd576110dd611388565b6020026020010181815250505f6110f4848461115d565b518451909150819085905f9061110c5761110c611388565b6020026020010181815250507f30644e72e131a029b85045b68181585d2833e84879b9709143e1f593f0000001845f8151811061114b5761114b611388565b60200260200101516105b4919061158d565b611165611255565b5f611171836020611563565b61117c90600161157a565b6001600160401b0381111561119357611193611374565b6040519080825280601f01601f1916602001820160405280156111bd576020820181803683370190505b5090505f816111cd856020611563565b815181106111dd576111dd611388565b60200101906001600160f81b03191690815f1a9053505f5b83811015611244575f611209826020611563565b61121490602061157a565b90505f86838151811061122957611229611388565b602090810291909101015191840191909152506001016111f5565b508051602090910120815292915050565b60405180602001604052806001906020820280368337509192915050565b5f8083601f840112611283575f80fd5b5081356001600160401b03811115611299575f80fd5b6020830191508360208260051b85010111156112b3575f80fd5b9250929050565b5f805f805f805f806080898b0312156112d1575f80fd5b88356001600160401b03808211156112e7575f80fd5b6112f38c838d01611273565b909a50985060208b013591508082111561130b575f80fd5b6113178c838d01611273565b909850965060408b013591508082111561132f575f80fd5b61133b8c838d01611273565b909650945060608b0135915080821115611353575f80fd5b506113608b828c01611273565b999c989b5096995094979396929594505050565b634e487b7160e01b5f52604160045260245ffd5b634e487b7160e01b5f52603260045260245ffd5b5f808335601e198436030181126113b1575f80fd5b8301803591506001600160401b038211156113ca575f80fd5b6020019150600581901b36038213156112b3575f80fd5b634e487b7160e01b5f52601160045260245ffd5b5f60018201611406576114066113e1565b5060010190565b8183525f6001600160fb1b03831115611424575f80fd5b8260051b80836020870137939093016020019392505050565b606081525f61145060608301878961140d565b6020838203602085015261146582878961140d565b8481036040860152855180825260208088019450909101905f5b8181101561149b5784518352938301939183019160010161147f565b50909a9950505050505050505050565b5f60208083850312156114bc575f80fd5b82516001600160401b03808211156114d2575f80fd5b818501915085601f8301126114e5575f80fd5b8151818111156114f7576114f7611374565b8060051b604051601f19603f8301168101818110858211171561151c5761151c611374565b604052918252848201925083810185019188831115611539575f80fd5b938501935b828510156115575784518452938501939285019261153e565b98975050505050505050565b80820281158282048414176105b8576105b86113e1565b808201808211156105b8576105b86113e1565b5f826115a757634e487b7160e01b5f52601260045260245ffd5b500690565b818103818111156105b8576105b86113e1565b634e487b7160e01b5f52600160045260245ffdfe30644e72e131a029b85045b68181585d97816a916871ca8d3c208c16d87cfd47a2646970667358221220da5a1dc7c84c7a71c37d103d3da8eed4e6d429b1fdde3691a55c81fe3dac6bbd64736f6c63430008180033",
			"opcodes": "PUSH1 0x80 PUSH1 0x40 MSTORE CALLVALUE DUP1 ISZERO PUSH3 0x10 JUMPI PUSH0 DUP1 REVERT JUMPDEST POP PUSH1 0x40 MLOAD PUSH3 0x1801 CODESIZE SUB DUP1 PUSH3 0x1801 DUP4 CODECOPY DUP2 ADD PUSH1 0x40 DUP2 SWAP1 MSTORE PUSH3 0x33 SWAP2 PUSH3 0xFD JUMP JUMPDEST DUP1 MLOAD PUSH3 0x47 SWAP1 PUSH0 SWAP1 PUSH1 0x20 DUP5 ADD SWAP1 PUSH3 0x4F JUMP JUMPDEST POP POP PUSH3 0x1CA JUMP JUMPDEST DUP3 DUP1 SLOAD DUP3 DUP3 SSTORE SWAP1 PUSH0 MSTORE PUSH1 0x20 PUSH0 KECCAK256 SWAP1 DUP2 ADD SWAP3 DUP3 ISZERO PUSH3 0xA5 JUMPI SWAP2 PUSH1 0x20 MUL DUP3 ADD JUMPDEST DUP3 DUP2 GT ISZERO PUSH3 0xA5 JUMPI DUP3 MLOAD DUP3 SLOAD PUSH1 0x1 PUSH1 0x1 PUSH1 0xA0 SHL SUB NOT AND PUSH1 0x1 PUSH1 0x1 PUSH1 0xA0 SHL SUB SWAP1 SWAP2 AND OR DUP3 SSTORE PUSH1 0x20 SWAP1 SWAP3 ADD SWAP2 PUSH1 0x1 SWAP1 SWAP2 ADD SWAP1 PUSH3 0x6E JUMP JUMPDEST POP PUSH3 0xB3 SWAP3 SWAP2 POP PUSH3 0xB7 JUMP JUMPDEST POP SWAP1 JUMP JUMPDEST JUMPDEST DUP1 DUP3 GT ISZERO PUSH3 0xB3 JUMPI PUSH0 DUP2 SSTORE PUSH1 0x1 ADD PUSH3 0xB8 JUMP JUMPDEST PUSH4 0x4E487B71 PUSH1 0xE0 SHL PUSH0 MSTORE PUSH1 0x41 PUSH1 0x4 MSTORE PUSH1 0x24 PUSH0 REVERT JUMPDEST DUP1 MLOAD PUSH1 0x1 PUSH1 0x1 PUSH1 0xA0 SHL SUB DUP2 AND DUP2 EQ PUSH3 0xF8 JUMPI PUSH0 DUP1 REVERT JUMPDEST SWAP2 SWAP1 POP JUMP JUMPDEST PUSH0 PUSH1 0x20 DUP1 DUP4 DUP6 SUB SLT ISZERO PUSH3 0x10F JUMPI PUSH0 DUP1 REVERT JUMPDEST DUP3 MLOAD PUSH1 0x1 PUSH1 0x1 PUSH1 0x40 SHL SUB DUP1 DUP3 GT ISZERO PUSH3 0x126 JUMPI PUSH0 DUP1 REVERT JUMPDEST DUP2 DUP6 ADD SWAP2 POP DUP6 PUSH1 0x1F DUP4 ADD SLT PUSH3 0x13A JUMPI PUSH0 DUP1 REVERT JUMPDEST DUP2 MLOAD DUP2 DUP2 GT ISZERO PUSH3 0x14F JUMPI PUSH3 0x14F PUSH3 0xCD JUMP JUMPDEST DUP1 PUSH1 0x5 SHL PUSH1 0x40 MLOAD PUSH1 0x1F NOT PUSH1 0x3F DUP4 ADD AND DUP2 ADD DUP2 DUP2 LT DUP6 DUP3 GT OR ISZERO PUSH3 0x177 JUMPI PUSH3 0x177 PUSH3 0xCD JUMP JUMPDEST PUSH1 0x40 MSTORE SWAP2 DUP3 MSTORE DUP5 DUP3 ADD SWAP3 POP DUP4 DUP2 ADD DUP6 ADD SWAP2 DUP9 DUP4 GT ISZERO PUSH3 0x195 JUMPI PUSH0 DUP1 REVERT JUMPDEST SWAP4 DUP6 ADD SWAP4 JUMPDEST DUP3 DUP6 LT ISZERO PUSH3 0x1BE JUMPI PUSH3 0x1AE DUP6 PUSH3 0xE1 JUMP JUMPDEST DUP5 MSTORE SWAP4 DUP6 ADD SWAP4 SWAP3 DUP6 ADD SWAP3 PUSH3 0x19A JUMP JUMPDEST SWAP9 SWAP8 POP POP POP POP POP POP POP POP JUMP JUMPDEST PUSH2 0x1629 DUP1 PUSH3 0x1D8 PUSH0 CODECOPY PUSH0 RETURN INVALID PUSH1 0x80 PUSH1 0x40 MSTORE CALLVALUE DUP1 ISZERO PUSH2 0xF JUMPI PUSH0 DUP1 REVERT JUMPDEST POP PUSH1 0x4 CALLDATASIZE LT PUSH2 0x29 JUMPI PUSH0 CALLDATALOAD PUSH1 0xE0 SHR DUP1 PUSH4 0xAE022CCD EQ PUSH2 0x2D JUMPI JUMPDEST PUSH0 DUP1 REVERT JUMPDEST PUSH2 0x40 PUSH2 0x3B CALLDATASIZE PUSH1 0x4 PUSH2 0x12BA JUMP JUMPDEST PUSH2 0x42 JUMP JUMPDEST STOP JUMPDEST PUSH1 0x40 DUP1 MLOAD PUSH1 0x2B DUP1 DUP3 MSTORE PUSH2 0x580 DUP3 ADD SWAP1 SWAP3 MSTORE PUSH0 SWAP2 PUSH1 0x20 DUP3 ADD PUSH2 0x560 DUP1 CALLDATASIZE DUP4 CALLDATACOPY ADD SWAP1 POP POP SWAP1 POP PUSH0 DUP1 JUMPDEST DUP4 DUP2 LT ISZERO PUSH2 0x115 JUMPI PUSH0 JUMPDEST DUP6 DUP6 DUP4 DUP2 DUP2 LT PUSH2 0x85 JUMPI PUSH2 0x85 PUSH2 0x1388 JUMP JUMPDEST SWAP1 POP PUSH1 0x20 MUL DUP2 ADD SWAP1 PUSH2 0x97 SWAP2 SWAP1 PUSH2 0x139C JUMP JUMPDEST SWAP1 POP DUP2 LT ISZERO PUSH2 0x10C JUMPI DUP6 DUP6 DUP4 DUP2 DUP2 LT PUSH2 0xB2 JUMPI PUSH2 0xB2 PUSH2 0x1388 JUMP JUMPDEST SWAP1 POP PUSH1 0x20 MUL DUP2 ADD SWAP1 PUSH2 0xC4 SWAP2 SWAP1 PUSH2 0x139C JUMP JUMPDEST DUP3 DUP2 DUP2 LT PUSH2 0xD4 JUMPI PUSH2 0xD4 PUSH2 0x1388 JUMP JUMPDEST SWAP1 POP PUSH1 0x20 MUL ADD CALLDATALOAD DUP5 DUP5 DUP1 PUSH2 0xE7 SWAP1 PUSH2 0x13F5 JUMP JUMPDEST SWAP6 POP DUP2 MLOAD DUP2 LT PUSH2 0xF9 JUMPI PUSH2 0xF9 PUSH2 0x1388 JUMP JUMPDEST PUSH1 0x20 SWAP1 DUP2 MUL SWAP2 SWAP1 SWAP2 ADD ADD MSTORE PUSH1 0x1 ADD PUSH2 0x73 JUMP JUMPDEST POP PUSH1 0x1 ADD PUSH2 0x69 JUMP JUMPDEST POP PUSH0 JUMPDEST DUP8 DUP2 LT ISZERO PUSH2 0x16A JUMPI DUP9 DUP9 DUP3 DUP2 DUP2 LT PUSH2 0x132 JUMPI PUSH2 0x132 PUSH2 0x1388 JUMP JUMPDEST SWAP1 POP PUSH1 0x20 MUL ADD CALLDATALOAD DUP4 DUP4 DUP1 PUSH2 0x145 SWAP1 PUSH2 0x13F5 JUMP JUMPDEST SWAP5 POP DUP2 MLOAD DUP2 LT PUSH2 0x157 JUMPI PUSH2 0x157 PUSH2 0x1388 JUMP JUMPDEST PUSH1 0x20 SWAP1 DUP2 MUL SWAP2 SWAP1 SWAP2 ADD ADD MSTORE PUSH1 0x1 ADD PUSH2 0x118 JUMP JUMPDEST POP PUSH2 0x175 DUP3 DUP3 PUSH2 0x4DF JUMP JUMPDEST DUP3 PUSH1 0x2 DUP2 MLOAD DUP2 LT PUSH2 0x188 JUMPI PUSH2 0x188 PUSH2 0x1388 JUMP JUMPDEST PUSH1 0x20 SWAP1 DUP2 MUL SWAP2 SWAP1 SWAP2 ADD ADD MSTORE PUSH1 0x40 DUP1 MLOAD PUSH1 0xC DUP1 DUP3 MSTORE PUSH2 0x1A0 DUP3 ADD SWAP1 SWAP3 MSTORE PUSH0 SWAP2 DUP2 PUSH1 0x20 ADD PUSH1 0x20 DUP3 MUL DUP1 CALLDATASIZE DUP4 CALLDATACOPY ADD SWAP1 POP POP SWAP1 POP PUSH2 0x1C1 DUP4 PUSH2 0x5BE JUMP JUMPDEST PUSH2 0x1CC DUP12 DUP12 DUP6 PUSH2 0x64C JUMP JUMPDEST PUSH0 JUMPDEST PUSH0 SLOAD DUP2 LT ISZERO PUSH2 0x274 JUMPI PUSH0 DUP2 DUP2 SLOAD DUP2 LT PUSH2 0x1E9 JUMPI PUSH2 0x1E9 PUSH2 0x1388 JUMP JUMPDEST PUSH0 SWAP2 DUP3 MSTORE PUSH1 0x20 SWAP1 SWAP2 KECCAK256 ADD SLOAD PUSH1 0x40 MLOAD PUSH4 0x9667519 PUSH1 0xE4 SHL DUP2 MSTORE PUSH1 0x1 PUSH1 0x1 PUSH1 0xA0 SHL SUB SWAP1 SWAP2 AND SWAP1 PUSH4 0x96675190 SWAP1 PUSH2 0x229 SWAP1 DUP16 SWAP1 DUP16 SWAP1 DUP14 SWAP1 DUP14 SWAP1 DUP12 SWAP1 PUSH1 0x4 ADD PUSH2 0x143D JUMP JUMPDEST PUSH0 PUSH1 0x40 MLOAD DUP1 DUP4 SUB DUP2 DUP7 GAS STATICCALL ISZERO DUP1 ISZERO PUSH2 0x243 JUMPI RETURNDATASIZE PUSH0 DUP1 RETURNDATACOPY RETURNDATASIZE PUSH0 REVERT JUMPDEST POP POP POP POP PUSH1 0x40 MLOAD RETURNDATASIZE PUSH0 DUP3 RETURNDATACOPY PUSH1 0x1F RETURNDATASIZE SWAP1 DUP2 ADD PUSH1 0x1F NOT AND DUP3 ADD PUSH1 0x40 MSTORE PUSH2 0x26A SWAP2 SWAP1 DUP2 ADD SWAP1 PUSH2 0x14AB JUMP JUMPDEST SWAP4 POP PUSH1 0x1 ADD PUSH2 0x1CE JUMP JUMPDEST POP DUP3 PUSH0 DUP2 MLOAD DUP2 LT PUSH2 0x287 JUMPI PUSH2 0x287 PUSH2 0x1388 JUMP JUMPDEST PUSH1 0x20 MUL PUSH1 0x20 ADD ADD MLOAD DUP2 PUSH0 DUP2 MLOAD DUP2 LT PUSH2 0x2A1 JUMPI PUSH2 0x2A1 PUSH2 0x1388 JUMP JUMPDEST PUSH1 0x20 MUL PUSH1 0x20 ADD ADD DUP2 DUP2 MSTORE POP POP DUP3 PUSH1 0x1 DUP2 MLOAD DUP2 LT PUSH2 0x2C0 JUMPI PUSH2 0x2C0 PUSH2 0x1388 JUMP JUMPDEST PUSH1 0x20 MUL PUSH1 0x20 ADD ADD MLOAD DUP2 PUSH1 0x1 DUP2 MLOAD DUP2 LT PUSH2 0x2DB JUMPI PUSH2 0x2DB PUSH2 0x1388 JUMP JUMPDEST PUSH1 0x20 MUL PUSH1 0x20 ADD ADD DUP2 DUP2 MSTORE POP POP DUP3 PUSH1 0x2 DUP2 MLOAD DUP2 LT PUSH2 0x2FA JUMPI PUSH2 0x2FA PUSH2 0x1388 JUMP JUMPDEST PUSH1 0x20 MUL PUSH1 0x20 ADD ADD MLOAD DUP2 PUSH1 0x6 DUP2 MLOAD DUP2 LT PUSH2 0x315 JUMPI PUSH2 0x315 PUSH2 0x1388 JUMP JUMPDEST PUSH1 0x20 MUL PUSH1 0x20 ADD ADD DUP2 DUP2 MSTORE POP POP DUP3 PUSH1 0x3 DUP2 MLOAD DUP2 LT PUSH2 0x334 JUMPI PUSH2 0x334 PUSH2 0x1388 JUMP JUMPDEST PUSH1 0x20 MUL PUSH1 0x20 ADD ADD MLOAD DUP2 PUSH1 0x7 DUP2 MLOAD DUP2 LT PUSH2 0x34F JUMPI PUSH2 0x34F PUSH2 0x1388 JUMP JUMPDEST PUSH1 0x20 MUL PUSH1 0x20 ADD ADD DUP2 DUP2 MSTORE POP POP DUP1 PUSH0 DUP2 MLOAD DUP2 LT PUSH2 0x36D JUMPI PUSH2 0x36D PUSH2 0x1388 JUMP JUMPDEST PUSH1 0x20 MUL PUSH1 0x20 ADD ADD MLOAD PUSH0 EQ ISZERO DUP1 ISZERO PUSH2 0x39E JUMPI POP DUP1 PUSH1 0x1 DUP2 MLOAD DUP2 LT PUSH2 0x392 JUMPI PUSH2 0x392 PUSH2 0x1388 JUMP JUMPDEST PUSH1 0x20 MUL PUSH1 0x20 ADD ADD MLOAD PUSH0 EQ ISZERO JUMPDEST PUSH2 0x3E1 JUMPI PUSH1 0x40 MLOAD PUSH3 0x461BCD PUSH1 0xE5 SHL DUP2 MSTORE PUSH1 0x20 PUSH1 0x4 DUP3 ADD MSTORE PUSH1 0xF PUSH1 0x24 DUP3 ADD MSTORE PUSH15 0x1A5B9D985B1A59081DC81C1BDA5B9D PUSH1 0x8A SHL PUSH1 0x44 DUP3 ADD MSTORE PUSH1 0x64 ADD JUMPDEST PUSH1 0x40 MLOAD DUP1 SWAP2 SUB SWAP1 REVERT JUMPDEST DUP1 PUSH1 0x6 DUP2 MLOAD DUP2 LT PUSH2 0x3F4 JUMPI PUSH2 0x3F4 PUSH2 0x1388 JUMP JUMPDEST PUSH1 0x20 MUL PUSH1 0x20 ADD ADD MLOAD PUSH0 EQ ISZERO DUP1 ISZERO PUSH2 0x425 JUMPI POP DUP1 PUSH1 0x7 DUP2 MLOAD DUP2 LT PUSH2 0x419 JUMPI PUSH2 0x419 PUSH2 0x1388 JUMP JUMPDEST PUSH1 0x20 MUL PUSH1 0x20 ADD ADD MLOAD PUSH0 EQ ISZERO JUMPDEST PUSH2 0x463 JUMPI PUSH1 0x40 MLOAD PUSH3 0x461BCD PUSH1 0xE5 SHL DUP2 MSTORE PUSH1 0x20 PUSH1 0x4 DUP3 ADD MSTORE PUSH1 0xF PUSH1 0x24 DUP3 ADD MSTORE PUSH15 0x1A5B9D985B1A590819C81C1BDA5B9D PUSH1 0x8A SHL PUSH1 0x44 DUP3 ADD MSTORE PUSH1 0x64 ADD PUSH2 0x3D8 JUMP JUMPDEST PUSH0 PUSH2 0x46D DUP3 PUSH2 0x65C JUMP JUMPDEST PUSH2 0x476 DUP3 PUSH2 0x85F JUMP JUMPDEST SWAP1 POP DUP1 PUSH2 0x4D1 JUMPI PUSH1 0x40 MLOAD PUSH3 0x461BCD PUSH1 0xE5 SHL DUP2 MSTORE PUSH1 0x20 PUSH1 0x4 DUP3 ADD MSTORE PUSH1 0x23 PUSH1 0x24 DUP3 ADD MSTORE PUSH32 0x76657269667920636972637569742070616972696E6720636865636B20666169 PUSH1 0x44 DUP3 ADD MSTORE PUSH3 0x1B1959 PUSH1 0xEA SHL PUSH1 0x64 DUP3 ADD MSTORE PUSH1 0x84 ADD PUSH2 0x3D8 JUMP JUMPDEST POP POP POP POP POP POP POP POP POP POP POP POP JUMP JUMPDEST PUSH0 DUP1 PUSH2 0x4EC DUP4 PUSH1 0x20 PUSH2 0x1563 JUMP JUMPDEST PUSH1 0x1 PUSH1 0x1 PUSH1 0x40 SHL SUB DUP2 GT ISZERO PUSH2 0x503 JUMPI PUSH2 0x503 PUSH2 0x1374 JUMP JUMPDEST PUSH1 0x40 MLOAD SWAP1 DUP1 DUP3 MSTORE DUP1 PUSH1 0x1F ADD PUSH1 0x1F NOT AND PUSH1 0x20 ADD DUP3 ADD PUSH1 0x40 MSTORE DUP1 ISZERO PUSH2 0x52D JUMPI PUSH1 0x20 DUP3 ADD DUP2 DUP1 CALLDATASIZE DUP4 CALLDATACOPY ADD SWAP1 POP JUMPDEST POP SWAP1 POP PUSH0 JUMPDEST DUP4 DUP2 LT ISZERO PUSH2 0x581 JUMPI PUSH0 PUSH2 0x546 DUP3 PUSH1 0x20 PUSH2 0x1563 JUMP JUMPDEST PUSH2 0x551 SWAP1 PUSH1 0x20 PUSH2 0x157A JUMP JUMPDEST SWAP1 POP PUSH0 DUP7 DUP4 DUP2 MLOAD DUP2 LT PUSH2 0x566 JUMPI PUSH2 0x566 PUSH2 0x1388 JUMP JUMPDEST PUSH1 0x20 SWAP1 DUP2 MUL SWAP2 SWAP1 SWAP2 ADD ADD MLOAD SWAP2 DUP5 ADD SWAP2 SWAP1 SWAP2 MSTORE POP PUSH1 0x1 ADD PUSH2 0x532 JUMP JUMPDEST POP DUP1 MLOAD PUSH1 0x20 DUP3 ADD KECCAK256 PUSH2 0x5B4 SWAP1 PUSH32 0x30644E72E131A029B85045B68181585D2833E84879B9709143E1F593F0000001 SWAP1 PUSH2 0x158D JUMP JUMPDEST SWAP2 POP POP JUMPDEST SWAP3 SWAP2 POP POP JUMP JUMPDEST PUSH32 0x1F644F44662151BE4E966903E77997736831FAA8A01B019D5027956A32A3D4C1 DUP2 PUSH0 DUP2 MLOAD DUP2 LT PUSH2 0x5F1 JUMPI PUSH2 0x5F1 PUSH2 0x1388 JUMP JUMPDEST PUSH1 0x20 MUL PUSH1 0x20 ADD ADD DUP2 DUP2 MSTORE POP POP PUSH32 0x110A2A0F4DCE758FE088AEC3C7F63543A5743FA7262B0813BB93BADA3396134D DUP2 PUSH1 0x1 DUP2 MLOAD DUP2 LT PUSH2 0x631 JUMPI PUSH2 0x631 PUSH2 0x1388 JUMP JUMPDEST PUSH1 0x20 MUL PUSH1 0x20 ADD ADD DUP2 DUP2 MSTORE POP POP PUSH2 0x649 DUP2 PUSH0 PUSH1 0x1 PUSH2 0x89C JUMP JUMPDEST POP JUMP JUMPDEST PUSH2 0x657 DUP4 DUP4 DUP4 PUSH2 0x998 JUMP JUMPDEST POP POP POP JUMP JUMPDEST PUSH32 0x1CF8359165A1FDC5500C8A23FD069B8503DD47310BCA4CFDBD629A8B080EAA96 DUP2 PUSH1 0x2 DUP2 MLOAD DUP2 LT PUSH2 0x690 JUMPI PUSH2 0x690 PUSH2 0x1388 JUMP JUMPDEST PUSH1 0x20 MUL PUSH1 0x20 ADD ADD DUP2 DUP2 MSTORE POP POP PUSH32 0x1F3709212166AD69AD84C263BA89D7869F6D8A91117C802E5B77BA6119C0F190 DUP2 PUSH1 0x3 DUP2 MLOAD DUP2 LT PUSH2 0x6D0 JUMPI PUSH2 0x6D0 PUSH2 0x1388 JUMP JUMPDEST PUSH1 0x20 MUL PUSH1 0x20 ADD ADD DUP2 DUP2 MSTORE POP POP PUSH32 0x1C27684A094EDBFA3B952ED37A7F455D43D362F124B0BF5BBF7AA3E868949494 DUP2 PUSH1 0x4 DUP2 MLOAD DUP2 LT PUSH2 0x710 JUMPI PUSH2 0x710 PUSH2 0x1388 JUMP JUMPDEST PUSH1 0x20 MUL PUSH1 0x20 ADD ADD DUP2 DUP2 MSTORE POP POP PUSH32 0xF28774C907C6D8F5CAB87E83E1F88FBC87BFA4CECB3A834D9D0E1A72959377E DUP2 PUSH1 0x5 DUP2 MLOAD DUP2 LT PUSH2 0x750 JUMPI PUSH2 0x750 PUSH2 0x1388 JUMP JUMPDEST PUSH1 0x20 MUL PUSH1 0x20 ADD ADD DUP2 DUP2 MSTORE POP POP PUSH32 0x198E9393920D483A7260BFB731FB5D25F1AA493335A9E71297E485B7AEF312C2 DUP2 PUSH1 0x8 DUP2 MLOAD DUP2 LT PUSH2 0x790 JUMPI PUSH2 0x790 PUSH2 0x1388 JUMP JUMPDEST PUSH1 0x20 MUL PUSH1 0x20 ADD ADD DUP2 DUP2 MSTORE POP POP PUSH32 0x1800DEEF121F1E76426A00665E5C4479674322D4F75EDADD46DEBD5CD992F6ED DUP2 PUSH1 0x9 DUP2 MLOAD DUP2 LT PUSH2 0x7D0 JUMPI PUSH2 0x7D0 PUSH2 0x1388 JUMP JUMPDEST PUSH1 0x20 MUL PUSH1 0x20 ADD ADD DUP2 DUP2 MSTORE POP POP PUSH32 0x275DC4A288D1AFB3CBB1AC09187524C7DB36395DF7BE3B99E673B13A075A65EC DUP2 PUSH1 0xA DUP2 MLOAD DUP2 LT PUSH2 0x810 JUMPI PUSH2 0x810 PUSH2 0x1388 JUMP JUMPDEST PUSH1 0x20 MUL PUSH1 0x20 ADD ADD DUP2 DUP2 MSTORE POP POP PUSH32 0x1D9BEFCD05A5323E6DA4D435F3B617CDB3AF83285C2DF711EF39C01571827F9D DUP2 PUSH1 0xB DUP2 MLOAD DUP2 LT PUSH2 0x850 JUMPI PUSH2 0x850 PUSH2 0x1388 JUMP JUMPDEST PUSH1 0x20 MUL PUSH1 0x20 ADD ADD DUP2 DUP2 MSTORE POP POP POP JUMP JUMPDEST PUSH0 PUSH2 0x868 PUSH2 0x1255 JUMP JUMPDEST PUSH0 DUP1 DUP5 MLOAD PUSH1 0x20 PUSH2 0x878 SWAP2 SWAP1 PUSH2 0x1563 JUMP JUMPDEST SWAP1 POP PUSH1 0x20 DUP4 DUP3 PUSH1 0x20 DUP9 ADD PUSH1 0x8 GAS STATICCALL SWAP2 POP DUP2 PUSH2 0x891 JUMPI PUSH0 DUP1 REVERT JUMPDEST POP POP MLOAD ISZERO ISZERO SWAP3 SWAP2 POP POP JUMP JUMPDEST DUP1 PUSH0 SUB PUSH2 0x8EF JUMPI PUSH0 DUP4 DUP4 DUP2 MLOAD DUP2 LT PUSH2 0x8B6 JUMPI PUSH2 0x8B6 PUSH2 0x1388 JUMP JUMPDEST PUSH1 0x20 SWAP1 DUP2 MUL SWAP2 SWAP1 SWAP2 ADD ADD MSTORE PUSH0 DUP4 PUSH2 0x8CE DUP5 PUSH1 0x1 PUSH2 0x157A JUMP JUMPDEST DUP2 MLOAD DUP2 LT PUSH2 0x8DE JUMPI PUSH2 0x8DE PUSH2 0x1388 JUMP JUMPDEST PUSH1 0x20 MUL PUSH1 0x20 ADD ADD DUP2 DUP2 MSTORE POP POP POP POP POP JUMP JUMPDEST PUSH0 PUSH2 0x8FB DUP4 PUSH1 0x20 PUSH2 0x1563 JUMP JUMPDEST PUSH2 0x906 SWAP1 PUSH1 0x20 PUSH2 0x157A JUMP JUMPDEST SWAP3 POP PUSH0 PUSH1 0x60 PUSH2 0x915 DUP5 DUP3 PUSH2 0x1563 JUMP JUMPDEST PUSH2 0x91F SWAP1 DUP7 PUSH2 0x157A JUMP JUMPDEST PUSH2 0x929 SWAP2 SWAP1 PUSH2 0x15AC JUMP JUMPDEST SWAP1 POP PUSH1 0x40 DUP6 DUP3 ADD PUSH1 0x60 DUP2 PUSH1 0x7 GAS STATICCALL SWAP2 POP DUP2 PUSH2 0x942 JUMPI PUSH0 DUP1 REVERT JUMPDEST DUP4 DUP2 EQ PUSH2 0x991 JUMPI PUSH2 0x954 PUSH1 0x60 DUP3 PUSH2 0x15AC JUMP JUMPDEST SWAP1 POP PUSH1 0x40 PUSH1 0x20 DUP3 ADD DUP7 ADD PUSH1 0x60 DUP4 DUP9 ADD PUSH1 0x7 GAS STATICCALL SWAP2 POP DUP2 PUSH2 0x972 JUMPI PUSH0 DUP1 REVERT JUMPDEST PUSH1 0x40 DUP6 DUP3 ADD PUSH1 0x80 PUSH1 0x20 DUP3 ADD PUSH1 0x6 GAS STATICCALL SWAP2 POP DUP2 PUSH2 0x98C JUMPI PUSH0 DUP1 REVERT JUMPDEST PUSH2 0x942 JUMP JUMPDEST POP POP POP POP POP JUMP JUMPDEST PUSH1 0x40 DUP1 MLOAD PUSH1 0x8C DUP1 DUP3 MSTORE PUSH2 0x11A0 DUP3 ADD SWAP1 SWAP3 MSTORE PUSH0 SWAP2 PUSH1 0x20 DUP3 ADD PUSH2 0x1180 DUP1 CALLDATASIZE DUP4 CALLDATACOPY ADD SWAP1 POP POP SWAP1 POP PUSH32 0x107B6732F83B23855C7231098A43E13A66F93C56CDB6283DB1868BCA3DD6AB4 DUP2 PUSH0 DUP2 MLOAD DUP2 LT PUSH2 0x9EF JUMPI PUSH2 0x9EF PUSH2 0x1388 JUMP JUMPDEST PUSH1 0x20 MUL PUSH1 0x20 ADD ADD DUP2 DUP2 MSTORE POP POP DUP2 PUSH0 DUP2 MLOAD DUP2 LT PUSH2 0xA0D JUMPI PUSH2 0xA0D PUSH2 0x1388 JUMP JUMPDEST PUSH1 0x20 MUL PUSH1 0x20 ADD ADD MLOAD DUP2 PUSH1 0x1 DUP2 MLOAD DUP2 LT PUSH2 0xA28 JUMPI PUSH2 0xA28 PUSH2 0x1388 JUMP JUMPDEST PUSH1 0x20 MUL PUSH1 0x20 ADD ADD DUP2 DUP2 MSTORE POP POP DUP2 PUSH1 0x1 DUP2 MLOAD DUP2 LT PUSH2 0xA47 JUMPI PUSH2 0xA47 PUSH2 0x1388 JUMP JUMPDEST PUSH1 0x20 MUL PUSH1 0x20 ADD ADD MLOAD DUP2 PUSH1 0x2 DUP2 MLOAD DUP2 LT PUSH2 0xA62 JUMPI PUSH2 0xA62 PUSH2 0x1388 JUMP JUMPDEST PUSH1 0x20 SWAP1 DUP2 MUL SWAP2 SWAP1 SWAP2 ADD ADD MSTORE PUSH1 0x3 PUSH0 DUP1 JUMPDEST PUSH1 0xA DUP2 LT ISZERO PUSH2 0xB63 JUMPI PUSH2 0xAC1 DUP8 DUP8 DUP5 DUP2 DUP2 LT PUSH2 0xA90 JUMPI PUSH2 0xA90 PUSH2 0x1388 JUMP JUMPDEST SWAP1 POP PUSH1 0x20 MUL ADD CALLDATALOAD DUP9 DUP9 DUP6 PUSH1 0x1 PUSH2 0xAA6 SWAP2 SWAP1 PUSH2 0x157A JUMP JUMPDEST DUP2 DUP2 LT PUSH2 0xAB5 JUMPI PUSH2 0xAB5 PUSH2 0x1388 JUMP JUMPDEST SWAP1 POP PUSH1 0x20 MUL ADD CALLDATALOAD PUSH2 0x1051 JUMP JUMPDEST DUP7 DUP7 DUP4 PUSH2 0xACD DUP2 PUSH2 0x13F5 JUMP JUMPDEST SWAP5 POP DUP2 DUP2 LT PUSH2 0xADE JUMPI PUSH2 0xADE PUSH2 0x1388 JUMP JUMPDEST SWAP1 POP PUSH1 0x20 MUL ADD CALLDATALOAD DUP5 DUP5 DUP1 PUSH2 0xAF1 SWAP1 PUSH2 0x13F5 JUMP JUMPDEST SWAP6 POP DUP2 MLOAD DUP2 LT PUSH2 0xB03 JUMPI PUSH2 0xB03 PUSH2 0x1388 JUMP JUMPDEST PUSH1 0x20 SWAP1 DUP2 MUL SWAP2 SWAP1 SWAP2 ADD ADD MSTORE DUP7 DUP7 DUP4 PUSH2 0xB1A DUP2 PUSH2 0x13F5 JUMP JUMPDEST SWAP5 POP DUP2 DUP2 LT PUSH2 0xB2B JUMPI PUSH2 0xB2B PUSH2 0x1388 JUMP JUMPDEST SWAP1 POP PUSH1 0x20 MUL ADD CALLDATALOAD DUP5 DUP5 DUP1 PUSH2 0xB3E SWAP1 PUSH2 0x13F5 JUMP JUMPDEST SWAP6 POP DUP2 MLOAD DUP2 LT PUSH2 0xB50 JUMPI PUSH2 0xB50 PUSH2 0x1388 JUMP JUMPDEST PUSH1 0x20 SWAP1 DUP2 MUL SWAP2 SWAP1 SWAP2 ADD ADD MSTORE PUSH1 0x1 ADD PUSH2 0xA72 JUMP JUMPDEST POP PUSH2 0xB6E DUP4 DUP4 PUSH2 0x10C9 JUMP JUMPDEST DUP5 PUSH1 0x2 DUP2 MLOAD DUP2 LT PUSH2 0xB81 JUMPI PUSH2 0xB81 PUSH2 0x1388 JUMP JUMPDEST PUSH1 0x20 MUL PUSH1 0x20 ADD ADD DUP2 DUP2 MSTORE POP POP PUSH1 0x1 SWAP2 POP PUSH0 JUMPDEST PUSH1 0x6 DUP2 LT ISZERO PUSH2 0xC53 JUMPI PUSH2 0xBB1 DUP8 DUP8 DUP5 DUP2 DUP2 LT PUSH2 0xA90 JUMPI PUSH2 0xA90 PUSH2 0x1388 JUMP JUMPDEST DUP7 DUP7 DUP4 PUSH2 0xBBD DUP2 PUSH2 0x13F5 JUMP JUMPDEST SWAP5 POP DUP2 DUP2 LT PUSH2 0xBCE JUMPI PUSH2 0xBCE PUSH2 0x1388 JUMP JUMPDEST SWAP1 POP PUSH1 0x20 MUL ADD CALLDATALOAD DUP5 DUP5 DUP1 PUSH2 0xBE1 SWAP1 PUSH2 0x13F5 JUMP JUMPDEST SWAP6 POP DUP2 MLOAD DUP2 LT PUSH2 0xBF3 JUMPI PUSH2 0xBF3 PUSH2 0x1388 JUMP JUMPDEST PUSH1 0x20 SWAP1 DUP2 MUL SWAP2 SWAP1 SWAP2 ADD ADD MSTORE DUP7 DUP7 DUP4 PUSH2 0xC0A DUP2 PUSH2 0x13F5 JUMP JUMPDEST SWAP5 POP DUP2 DUP2 LT PUSH2 0xC1B JUMPI PUSH2 0xC1B PUSH2 0x1388 JUMP JUMPDEST SWAP1 POP PUSH1 0x20 MUL ADD CALLDATALOAD DUP5 DUP5 DUP1 PUSH2 0xC2E SWAP1 PUSH2 0x13F5 JUMP JUMPDEST SWAP6 POP DUP2 MLOAD DUP2 LT PUSH2 0xC40 JUMPI PUSH2 0xC40 PUSH2 0x1388 JUMP JUMPDEST PUSH1 0x20 SWAP1 DUP2 MUL SWAP2 SWAP1 SWAP2 ADD ADD MSTORE PUSH1 0x1 ADD PUSH2 0xB93 JUMP JUMPDEST POP PUSH2 0xC5E DUP4 DUP4 PUSH2 0x10C9 JUMP JUMPDEST DUP5 PUSH1 0x3 DUP2 MLOAD DUP2 LT PUSH2 0xC71 JUMPI PUSH2 0xC71 PUSH2 0x1388 JUMP JUMPDEST PUSH1 0x20 MUL PUSH1 0x20 ADD ADD DUP2 DUP2 MSTORE POP POP PUSH1 0x1 SWAP2 POP PUSH2 0xC8B DUP4 DUP4 PUSH2 0x10C9 JUMP JUMPDEST DUP5 PUSH1 0x4 DUP2 MLOAD DUP2 LT PUSH2 0xC9E JUMPI PUSH2 0xC9E PUSH2 0x1388 JUMP JUMPDEST PUSH1 0x20 MUL PUSH1 0x20 ADD ADD DUP2 DUP2 MSTORE POP POP PUSH1 0x1 SWAP2 POP PUSH0 JUMPDEST PUSH1 0x9 DUP2 LT ISZERO PUSH2 0xD70 JUMPI PUSH2 0xCCE DUP8 DUP8 DUP5 DUP2 DUP2 LT PUSH2 0xA90 JUMPI PUSH2 0xA90 PUSH2 0x1388 JUMP JUMPDEST DUP7 DUP7 DUP4 PUSH2 0xCDA DUP2 PUSH2 0x13F5 JUMP JUMPDEST SWAP5 POP DUP2 DUP2 LT PUSH2 0xCEB JUMPI PUSH2 0xCEB PUSH2 0x1388 JUMP JUMPDEST SWAP1 POP PUSH1 0x20 MUL ADD CALLDATALOAD DUP5 DUP5 DUP1 PUSH2 0xCFE SWAP1 PUSH2 0x13F5 JUMP JUMPDEST SWAP6 POP DUP2 MLOAD DUP2 LT PUSH2 0xD10 JUMPI PUSH2 0xD10 PUSH2 0x1388 JUMP JUMPDEST PUSH1 0x20 SWAP1 DUP2 MUL SWAP2 SWAP1 SWAP2 ADD ADD MSTORE DUP7 DUP7 DUP4 PUSH2 0xD27 DUP2 PUSH2 0x13F5 JUMP JUMPDEST SWAP5 POP DUP2 DUP2 LT PUSH2 0xD38 JUMPI PUSH2 0xD38 PUSH2 0x1388 JUMP JUMPDEST SWAP1 POP PUSH1 0x20 MUL ADD CALLDATALOAD DUP5 DUP5 DUP1 PUSH2 0xD4B SWAP1 PUSH2 0x13F5 JUMP JUMPDEST SWAP6 POP DUP2 MLOAD DUP2 LT PUSH2 0xD5D JUMPI PUSH2 0xD5D PUSH2 0x1388 JUMP JUMPDEST PUSH1 0x20 SWAP1 DUP2 MUL SWAP2 SWAP1 SWAP2 ADD ADD MSTORE PUSH1 0x1 ADD PUSH2 0xCB0 JUMP JUMPDEST POP PUSH2 0xD7B DUP4 DUP4 PUSH2 0x10C9 JUMP JUMPDEST DUP5 PUSH1 0x5 DUP2 MLOAD DUP2 LT PUSH2 0xD8E JUMPI PUSH2 0xD8E PUSH2 0x1388 JUMP JUMPDEST PUSH1 0x20 MUL PUSH1 0x20 ADD ADD DUP2 DUP2 MSTORE POP POP PUSH1 0x1 SWAP2 POP PUSH0 JUMPDEST PUSH1 0x3 DUP2 LT ISZERO PUSH2 0xE60 JUMPI PUSH2 0xDBE DUP8 DUP8 DUP5 DUP2 DUP2 LT PUSH2 0xA90 JUMPI PUSH2 0xA90 PUSH2 0x1388 JUMP JUMPDEST DUP7 DUP7 DUP4 PUSH2 0xDCA DUP2 PUSH2 0x13F5 JUMP JUMPDEST SWAP5 POP DUP2 DUP2 LT PUSH2 0xDDB JUMPI PUSH2 0xDDB PUSH2 0x1388 JUMP JUMPDEST SWAP1 POP PUSH1 0x20 MUL ADD CALLDATALOAD DUP5 DUP5 DUP1 PUSH2 0xDEE SWAP1 PUSH2 0x13F5 JUMP JUMPDEST SWAP6 POP DUP2 MLOAD DUP2 LT PUSH2 0xE00 JUMPI PUSH2 0xE00 PUSH2 0x1388 JUMP JUMPDEST PUSH1 0x20 SWAP1 DUP2 MUL SWAP2 SWAP1 SWAP2 ADD ADD MSTORE DUP7 DUP7 DUP4 PUSH2 0xE17 DUP2 PUSH2 0x13F5 JUMP JUMPDEST SWAP5 POP DUP2 DUP2 LT PUSH2 0xE28 JUMPI PUSH2 0xE28 PUSH2 0x1388 JUMP JUMPDEST SWAP1 POP PUSH1 0x20 MUL ADD CALLDATALOAD DUP5 DUP5 DUP1 PUSH2 0xE3B SWAP1 PUSH2 0x13F5 JUMP JUMPDEST SWAP6 POP DUP2 MLOAD DUP2 LT PUSH2 0xE4D JUMPI PUSH2 0xE4D PUSH2 0x1388 JUMP JUMPDEST PUSH1 0x20 SWAP1 DUP2 MUL SWAP2 SWAP1 SWAP2 ADD ADD MSTORE PUSH1 0x1 ADD PUSH2 0xDA0 JUMP JUMPDEST POP PUSH2 0xE6B DUP4 DUP4 PUSH2 0x10C9 JUMP JUMPDEST DUP5 PUSH1 0x6 DUP2 MLOAD DUP2 LT PUSH2 0xE7E JUMPI PUSH2 0xE7E PUSH2 0x1388 JUMP JUMPDEST PUSH1 0x20 MUL PUSH1 0x20 ADD ADD DUP2 DUP2 MSTORE POP POP PUSH1 0x1 SWAP2 POP PUSH0 JUMPDEST PUSH1 0x46 DUP2 LT ISZERO PUSH2 0xEEE JUMPI DUP7 DUP7 DUP4 PUSH2 0xEA5 DUP2 PUSH2 0x13F5 JUMP JUMPDEST SWAP5 POP DUP2 DUP2 LT PUSH2 0xEB6 JUMPI PUSH2 0xEB6 PUSH2 0x1388 JUMP JUMPDEST SWAP1 POP PUSH1 0x20 MUL ADD CALLDATALOAD DUP5 DUP5 DUP1 PUSH2 0xEC9 SWAP1 PUSH2 0x13F5 JUMP JUMPDEST SWAP6 POP DUP2 MLOAD DUP2 LT PUSH2 0xEDB JUMPI PUSH2 0xEDB PUSH2 0x1388 JUMP JUMPDEST PUSH1 0x20 SWAP1 DUP2 MUL SWAP2 SWAP1 SWAP2 ADD ADD MSTORE PUSH1 0x1 ADD PUSH2 0xE90 JUMP JUMPDEST POP PUSH2 0xEF9 DUP4 DUP4 PUSH2 0x10C9 JUMP JUMPDEST DUP5 PUSH1 0x7 DUP2 MLOAD DUP2 LT PUSH2 0xF0C JUMPI PUSH2 0xF0C PUSH2 0x1388 JUMP JUMPDEST PUSH1 0x20 MUL PUSH1 0x20 ADD ADD DUP2 DUP2 MSTORE POP POP PUSH1 0x1 SWAP2 POP PUSH2 0xF26 DUP4 DUP4 PUSH2 0x10C9 JUMP JUMPDEST DUP5 PUSH1 0x8 DUP2 MLOAD DUP2 LT PUSH2 0xF39 JUMPI PUSH2 0xF39 PUSH2 0x1388 JUMP JUMPDEST PUSH1 0x20 MUL PUSH1 0x20 ADD ADD DUP2 DUP2 MSTORE POP POP PUSH2 0xF70 DUP7 DUP7 DUP4 DUP2 DUP2 LT PUSH2 0xF5A JUMPI PUSH2 0xF5A PUSH2 0x1388 JUMP JUMPDEST SWAP1 POP PUSH1 0x20 MUL ADD CALLDATALOAD DUP8 DUP8 DUP5 PUSH1 0x1 PUSH2 0xAA6 SWAP2 SWAP1 PUSH2 0x157A JUMP JUMPDEST DUP6 DUP6 DUP3 PUSH2 0xF7C DUP2 PUSH2 0x13F5 JUMP JUMPDEST SWAP4 POP DUP2 DUP2 LT PUSH2 0xF8D JUMPI PUSH2 0xF8D PUSH2 0x1388 JUMP JUMPDEST SWAP1 POP PUSH1 0x20 MUL ADD CALLDATALOAD DUP4 DUP4 DUP1 PUSH2 0xFA0 SWAP1 PUSH2 0x13F5 JUMP JUMPDEST SWAP5 POP DUP2 MLOAD DUP2 LT PUSH2 0xFB2 JUMPI PUSH2 0xFB2 PUSH2 0x1388 JUMP JUMPDEST PUSH1 0x20 SWAP1 DUP2 MUL SWAP2 SWAP1 SWAP2 ADD ADD MSTORE DUP6 DUP6 DUP3 PUSH2 0xFC9 DUP2 PUSH2 0x13F5 JUMP JUMPDEST SWAP4 POP DUP2 DUP2 LT PUSH2 0xFDA JUMPI PUSH2 0xFDA PUSH2 0x1388 JUMP JUMPDEST SWAP1 POP PUSH1 0x20 MUL ADD CALLDATALOAD DUP4 DUP4 DUP1 PUSH2 0xFED SWAP1 PUSH2 0x13F5 JUMP JUMPDEST SWAP5 POP DUP2 MLOAD DUP2 LT PUSH2 0xFFF JUMPI PUSH2 0xFFF PUSH2 0x1388 JUMP JUMPDEST PUSH1 0x20 MUL PUSH1 0x20 ADD ADD DUP2 DUP2 MSTORE POP POP PUSH2 0x1015 DUP4 DUP4 PUSH2 0x10C9 JUMP JUMPDEST DUP5 PUSH1 0x9 DUP2 MLOAD DUP2 LT PUSH2 0x1028 JUMPI PUSH2 0x1028 PUSH2 0x1388 JUMP JUMPDEST PUSH1 0x20 MUL PUSH1 0x20 ADD ADD DUP2 DUP2 MSTORE POP POP PUSH2 0x1049 DUP7 DUP7 DUP4 DUP2 DUP2 LT PUSH2 0xF5A JUMPI PUSH2 0xF5A PUSH2 0x1388 JUMP JUMPDEST POP POP POP POP POP POP JUMP JUMPDEST DUP2 ISZERO DUP1 ISZERO SWAP1 PUSH2 0x105F JUMPI POP DUP1 ISZERO ISZERO JUMPDEST ISZERO PUSH2 0x10C5 JUMPI PUSH0 PUSH0 DUP1 MLOAD PUSH1 0x20 PUSH2 0x15D4 DUP4 CODECOPY DUP2 MLOAD SWAP2 MSTORE DUP3 DUP4 MULMOD SWAP1 POP PUSH0 PUSH0 DUP1 MLOAD PUSH1 0x20 PUSH2 0x15D4 DUP4 CODECOPY DUP2 MLOAD SWAP2 MSTORE DUP5 DUP6 MULMOD SWAP1 POP PUSH0 DUP1 MLOAD PUSH1 0x20 PUSH2 0x15D4 DUP4 CODECOPY DUP2 MLOAD SWAP2 MSTORE DUP5 DUP3 MULMOD SWAP1 POP PUSH0 DUP1 MLOAD PUSH1 0x20 PUSH2 0x15D4 DUP4 CODECOPY DUP2 MLOAD SWAP2 MSTORE PUSH1 0x3 DUP3 ADDMOD SWAP1 POP DUP1 DUP3 EQ PUSH2 0x10C2 JUMPI PUSH2 0x10C2 PUSH2 0x15BF JUMP JUMPDEST POP POP JUMPDEST POP POP JUMP JUMPDEST PUSH0 DUP1 DUP4 DUP4 DUP2 MLOAD DUP2 LT PUSH2 0x10DD JUMPI PUSH2 0x10DD PUSH2 0x1388 JUMP JUMPDEST PUSH1 0x20 MUL PUSH1 0x20 ADD ADD DUP2 DUP2 MSTORE POP POP PUSH0 PUSH2 0x10F4 DUP5 DUP5 PUSH2 0x115D JUMP JUMPDEST MLOAD DUP5 MLOAD SWAP1 SWAP2 POP DUP2 SWAP1 DUP6 SWAP1 PUSH0 SWAP1 PUSH2 0x110C JUMPI PUSH2 0x110C PUSH2 0x1388 JUMP JUMPDEST PUSH1 0x20 MUL PUSH1 0x20 ADD ADD DUP2 DUP2 MSTORE POP POP PUSH32 0x30644E72E131A029B85045B68181585D2833E84879B9709143E1F593F0000001 DUP5 PUSH0 DUP2 MLOAD DUP2 LT PUSH2 0x114B JUMPI PUSH2 0x114B PUSH2 0x1388 JUMP JUMPDEST PUSH1 0x20 MUL PUSH1 0x20 ADD ADD MLOAD PUSH2 0x5B4 SWAP2 SWAP1 PUSH2 0x158D JUMP JUMPDEST PUSH2 0x1165 PUSH2 0x1255 JUMP JUMPDEST PUSH0 PUSH2 0x1171 DUP4 PUSH1 0x20 PUSH2 0x1563 JUMP JUMPDEST PUSH2 0x117C SWAP1 PUSH1 0x1 PUSH2 0x157A JUMP JUMPDEST PUSH1 0x1 PUSH1 0x1 PUSH1 0x40 SHL SUB DUP2 GT ISZERO PUSH2 0x1193 JUMPI PUSH2 0x1193 PUSH2 0x1374 JUMP JUMPDEST PUSH1 0x40 MLOAD SWAP1 DUP1 DUP3 MSTORE DUP1 PUSH1 0x1F ADD PUSH1 0x1F NOT AND PUSH1 0x20 ADD DUP3 ADD PUSH1 0x40 MSTORE DUP1 ISZERO PUSH2 0x11BD JUMPI PUSH1 0x20 DUP3 ADD DUP2 DUP1 CALLDATASIZE DUP4 CALLDATACOPY ADD SWAP1 POP JUMPDEST POP SWAP1 POP PUSH0 DUP2 PUSH2 0x11CD DUP6 PUSH1 0x20 PUSH2 0x1563 JUMP JUMPDEST DUP2 MLOAD DUP2 LT PUSH2 0x11DD JUMPI PUSH2 0x11DD PUSH2 0x1388 JUMP JUMPDEST PUSH1 0x20 ADD ADD SWAP1 PUSH1 0x1 PUSH1 0x1 PUSH1 0xF8 SHL SUB NOT AND SWAP1 DUP2 PUSH0 BYTE SWAP1 MSTORE8 POP PUSH0 JUMPDEST DUP4 DUP2 LT ISZERO PUSH2 0x1244 JUMPI PUSH0 PUSH2 0x1209 DUP3 PUSH1 0x20 PUSH2 0x1563 JUMP JUMPDEST PUSH2 0x1214 SWAP1 PUSH1 0x20 PUSH2 0x157A JUMP JUMPDEST SWAP1 POP PUSH0 DUP7 DUP4 DUP2 MLOAD DUP2 LT PUSH2 0x1229 JUMPI PUSH2 0x1229 PUSH2 0x1388 JUMP JUMPDEST PUSH1 0x20 SWAP1 DUP2 MUL SWAP2 SWAP1 SWAP2 ADD ADD MLOAD SWAP2 DUP5 ADD SWAP2 SWAP1 SWAP2 MSTORE POP PUSH1 0x1 ADD PUSH2 0x11F5 JUMP JUMPDEST POP DUP1 MLOAD PUSH1 0x20 SWAP1 SWAP2 ADD KECCAK256 DUP2 MSTORE SWAP3 SWAP2 POP POP JUMP JUMPDEST PUSH1 0x40 MLOAD DUP1 PUSH1 0x20 ADD PUSH1 0x40 MSTORE DUP1 PUSH1 0x1 SWAP1 PUSH1 0x20 DUP3 MUL DUP1 CALLDATASIZE DUP4 CALLDATACOPY POP SWAP2 SWAP3 SWAP2 POP POP JUMP JUMPDEST PUSH0 DUP1 DUP4 PUSH1 0x1F DUP5 ADD SLT PUSH2 0x1283 JUMPI PUSH0 DUP1 REVERT JUMPDEST POP DUP2 CALLDATALOAD PUSH1 0x1 PUSH1 0x1 PUSH1 0x40 SHL SUB DUP2 GT ISZERO PUSH2 0x1299 JUMPI PUSH0 DUP1 REVERT JUMPDEST PUSH1 0x20 DUP4 ADD SWAP2 POP DUP4 PUSH1 0x20 DUP3 PUSH1 0x5 SHL DUP6 ADD ADD GT ISZERO PUSH2 0x12B3 JUMPI PUSH0 DUP1 REVERT JUMPDEST SWAP3 POP SWAP3 SWAP1 POP JUMP JUMPDEST PUSH0 DUP1 PUSH0 DUP1 PUSH0 DUP1 PUSH0 DUP1 PUSH1 0x80 DUP10 DUP12 SUB SLT ISZERO PUSH2 0x12D1 JUMPI PUSH0 DUP1 REVERT JUMPDEST DUP9 CALLDATALOAD PUSH1 0x1 PUSH1 0x1 PUSH1 0x40 SHL SUB DUP1 DUP3 GT ISZERO PUSH2 0x12E7 JUMPI PUSH0 DUP1 REVERT JUMPDEST PUSH2 0x12F3 DUP13 DUP4 DUP14 ADD PUSH2 0x1273 JUMP JUMPDEST SWAP1 SWAP11 POP SWAP9 POP PUSH1 0x20 DUP12 ADD CALLDATALOAD SWAP2 POP DUP1 DUP3 GT ISZERO PUSH2 0x130B JUMPI PUSH0 DUP1 REVERT JUMPDEST PUSH2 0x1317 DUP13 DUP4 DUP14 ADD PUSH2 0x1273 JUMP JUMPDEST SWAP1 SWAP9 POP SWAP7 POP PUSH1 0x40 DUP12 ADD CALLDATALOAD SWAP2 POP DUP1 DUP3 GT ISZERO PUSH2 0x132F JUMPI PUSH0 DUP1 REVERT JUMPDEST PUSH2 0x133B DUP13 DUP4 DUP14 ADD PUSH2 0x1273 JUMP JUMPDEST SWAP1 SWAP7 POP SWAP5 POP PUSH1 0x60 DUP12 ADD CALLDATALOAD SWAP2 POP DUP1 DUP3 GT ISZERO PUSH2 0x1353 JUMPI PUSH0 DUP1 REVERT JUMPDEST POP PUSH2 0x1360 DUP12 DUP3 DUP13 ADD PUSH2 0x1273 JUMP JUMPDEST SWAP10 SWAP13 SWAP9 SWAP12 POP SWAP7 SWAP10 POP SWAP5 SWAP8 SWAP4 SWAP7 SWAP3 SWAP6 SWAP5 POP POP POP JUMP JUMPDEST PUSH4 0x4E487B71 PUSH1 0xE0 SHL PUSH0 MSTORE PUSH1 0x41 PUSH1 0x4 MSTORE PUSH1 0x24 PUSH0 REVERT JUMPDEST PUSH4 0x4E487B71 PUSH1 0xE0 SHL PUSH0 MSTORE PUSH1 0x32 PUSH1 0x4 MSTORE PUSH1 0x24 PUSH0 REVERT JUMPDEST PUSH0 DUP1 DUP4 CALLDATALOAD PUSH1 0x1E NOT DUP5 CALLDATASIZE SUB ADD DUP2 SLT PUSH2 0x13B1 JUMPI PUSH0 DUP1 REVERT JUMPDEST DUP4 ADD DUP1 CALLDATALOAD SWAP2 POP PUSH1 0x1 PUSH1 0x1 PUSH1 0x40 SHL SUB DUP3 GT ISZERO PUSH2 0x13CA JUMPI PUSH0 DUP1 REVERT JUMPDEST PUSH1 0x20 ADD SWAP2 POP PUSH1 0x5 DUP2 SWAP1 SHL CALLDATASIZE SUB DUP3 SGT ISZERO PUSH2 0x12B3 JUMPI PUSH0 DUP1 REVERT JUMPDEST PUSH4 0x4E487B71 PUSH1 0xE0 SHL PUSH0 MSTORE PUSH1 0x11 PUSH1 0x4 MSTORE PUSH1 0x24 PUSH0 REVERT JUMPDEST PUSH0 PUSH1 0x1 DUP3 ADD PUSH2 0x1406 JUMPI PUSH2 0x1406 PUSH2 0x13E1 JUMP JUMPDEST POP PUSH1 0x1 ADD SWAP1 JUMP JUMPDEST DUP2 DUP4 MSTORE PUSH0 PUSH1 0x1 PUSH1 0x1 PUSH1 0xFB SHL SUB DUP4 GT ISZERO PUSH2 0x1424 JUMPI PUSH0 DUP1 REVERT JUMPDEST DUP3 PUSH1 0x5 SHL DUP1 DUP4 PUSH1 0x20 DUP8 ADD CALLDATACOPY SWAP4 SWAP1 SWAP4 ADD PUSH1 0x20 ADD SWAP4 SWAP3 POP POP POP JUMP JUMPDEST PUSH1 0x60 DUP2 MSTORE PUSH0 PUSH2 0x1450 PUSH1 0x60 DUP4 ADD DUP8 DUP10 PUSH2 0x140D JUMP JUMPDEST PUSH1 0x20 DUP4 DUP3 SUB PUSH1 0x20 DUP6 ADD MSTORE PUSH2 0x1465 DUP3 DUP8 DUP10 PUSH2 0x140D JUMP JUMPDEST DUP5 DUP2 SUB PUSH1 0x40 DUP7 ADD MSTORE DUP6 MLOAD DUP1 DUP3 MSTORE PUSH1 0x20 DUP1 DUP9 ADD SWAP5 POP SWAP1 SWAP2 ADD SWAP1 PUSH0 JUMPDEST DUP2 DUP2 LT ISZERO PUSH2 0x149B JUMPI DUP5 MLOAD DUP4 MSTORE SWAP4 DUP4 ADD SWAP4 SWAP2 DUP4 ADD SWAP2 PUSH1 0x1 ADD PUSH2 0x147F JUMP JUMPDEST POP SWAP1 SWAP11 SWAP10 POP POP POP POP POP POP POP POP POP POP JUMP JUMPDEST PUSH0 PUSH1 0x20 DUP1 DUP4 DUP6 SUB SLT ISZERO PUSH2 0x14BC JUMPI PUSH0 DUP1 REVERT JUMPDEST DUP3 MLOAD PUSH1 0x1 PUSH1 0x1 PUSH1 0x40 SHL SUB DUP1 DUP3 GT ISZERO PUSH2 0x14D2 JUMPI PUSH0 DUP1 REVERT JUMPDEST DUP2 DUP6 ADD SWAP2 POP DUP6 PUSH1 0x1F DUP4 ADD SLT PUSH2 0x14E5 JUMPI PUSH0 DUP1 REVERT JUMPDEST DUP2 MLOAD DUP2 DUP2 GT ISZERO PUSH2 0x14F7 JUMPI PUSH2 0x14F7 PUSH2 0x1374 JUMP JUMPDEST DUP1 PUSH1 0x5 SHL PUSH1 0x40 MLOAD PUSH1 0x1F NOT PUSH1 0x3F DUP4 ADD AND DUP2 ADD DUP2 DUP2 LT DUP6 DUP3 GT OR ISZERO PUSH2 0x151C JUMPI PUSH2 0x151C PUSH2 0x1374 JUMP JUMPDEST PUSH1 0x40 MSTORE SWAP2 DUP3 MSTORE DUP5 DUP3 ADD SWAP3 POP DUP4 DUP2 ADD DUP6 ADD SWAP2 DUP9 DUP4 GT ISZERO PUSH2 0x1539 JUMPI PUSH0 DUP1 REVERT JUMPDEST SWAP4 DUP6 ADD SWAP4 JUMPDEST DUP3 DUP6 LT ISZERO PUSH2 0x1557 JUMPI DUP5 MLOAD DUP5 MSTORE SWAP4 DUP6 ADD SWAP4 SWAP3 DUP6 ADD SWAP3 PUSH2 0x153E JUMP JUMPDEST SWAP9 SWAP8 POP POP POP POP POP POP POP POP JUMP JUMPDEST DUP1 DUP3 MUL DUP2 ISZERO DUP3 DUP3 DIV DUP5 EQ OR PUSH2 0x5B8 JUMPI PUSH2 0x5B8 PUSH2 0x13E1 JUMP JUMPDEST DUP1 DUP3 ADD DUP1 DUP3 GT ISZERO PUSH2 0x5B8 JUMPI PUSH2 0x5B8 PUSH2 0x13E1 JUMP JUMPDEST PUSH0 DUP3 PUSH2 0x15A7 JUMPI PUSH4 0x4E487B71 PUSH1 0xE0 SHL PUSH0 MSTORE PUSH1 0x12 PUSH1 0x4 MSTORE PUSH1 0x24 PUSH0 REVERT JUMPDEST POP MOD SWAP1 JUMP JUMPDEST DUP2 DUP2 SUB DUP2 DUP2 GT ISZERO PUSH2 0x5B8 JUMPI PUSH2 0x5B8 PUSH2 0x13E1 JUMP JUMPDEST PUSH4 0x4E487B71 PUSH1 0xE0 SHL PUSH0 MSTORE PUSH1 0x1 PUSH1 0x4 MSTORE PUSH1 0x24 PUSH0 REVERT INVALID ADDRESS PUSH5 0x4E72E131A0 0x29 0xB8 POP GASLIMIT 0xB6 DUP2 DUP2 PC TSTORE SWAP8 DUP2 PUSH11 0x916871CA8D3C208C16D87C REVERT SELFBALANCE LOG2 PUSH5 0x6970667358 0x22 SLT KECCAK256 0xDA GAS SAR 0xC7 0xC8 0x4C PUSH27 0x71C37D103D3DA8EED4E6D429B1FDDE3691A55C81FE3DAC6BBD6473 PUSH16 0x6C634300081800330000000000000000 "
		},
		"gasEstimates": {
			"creation": {
				"codeDepositCost": "1134600",
				"executionCost": "infinite",
				"totalCost": "infinite"
			},
			"external": {
				"verify(uint256[],uint256[],uint256[],uint256[][])": "infinite"
			},
			"internal": {
				"encoding_scalars_to_point(uint256,uint256,uint256)": "infinite"
			}
		},
		"methodIdentifiers": {
			"verify(uint256[],uint256[],uint256[],uint256[][])": "ae022ccd"
		}
	},
	"abi": [
		{
			"inputs": [
				{
					"internalType": "contract AggregatorVerifierCoreStep[]",
					"name": "_steps",
					"type": "address[]"
				}
			],
			"stateMutability": "nonpayable",
			"type": "constructor"
		},
		{
			"inputs": [
				{
					"internalType": "uint256[]",
					"name": "proof",
					"type": "uint256[]"
				},
				{
					"internalType": "uint256[]",
					"name": "verify_instance",
					"type": "uint256[]"
				},
				{
					"internalType": "uint256[]",
					"name": "aux",
					"type": "uint256[]"
				},
				{
					"internalType": "uint256[][]",
					"name": "target_instance",
					"type": "uint256[][]"
				}
			],
			"name": "verify",
			"outputs": [],
			"stateMutability": "view",
			"type": "function"
		}
	]
}