{
	"data": {
		"bytecode": {
			"linkReferences": {},
			"object": "608060405234801561000f575f80fd5b50612a578061001d5f395ff3fe608060405234801561000f575f80fd5b5060043610610029575f3560e01c8063966751901461002d575b5f80fd5b61004061003b366004612838565b610056565b60405161004d919061293f565b60405180910390f35b60607f1c48c0ea276647a5c1c105fb335bf3d955f0b719b0fca4a5f9705382582f77347f26d929b6e85e205eeaf2900c16b5b2bda852b24bc2fdc14861b03e3c617f908983600e815181106100ad576100ad612982565b6020026020010184600f815181106100c7576100c7612982565b6020908102919091010191909152525f80516020612a0283398151915280836007815181106100f8576100f8612982565b60200260200101518460148151811061011357610113612982565b6020026020010151098360158151811061012f5761012f612982565b6020026020010151098260108151811061014b5761014b612982565b60200260200101818152505061016282600c612780565b7f2d2b06d9cb3a00c6717095ae1dbd56c44c070e3cc8019bb6561931e62c3152d57f094ea08674f88a88873a3f6a65e1280068f7cf699adf5ae8d077cc4856f45d3283600e815181106101b7576101b7612982565b6020026020010184600f815181106101d1576101d1612982565b6020908102919091010191909152525f80516020612a028339815191528260148151811061020157610201612982565b60200260200101518360158151811061021c5761021c612982565b6020026020010151098260108151811061023857610238612982565b60200260200101818152505061024f82600c612780565b5f80516020612a028339815191528260178151811061027057610270612982565b602002602001015183601b8151811061028b5761028b612982565b602002602001015109826014815181106102a7576102a7612982565b6020026020010181815250507f1f7ad35e4ebb414326280310d9e81561aa46b52f42fbd274f18ef34f174558467f02e3885e9af4338b8931b5b1b0e0f2e55432cd10919b3a5aed73f12297302f2483600e8151811061030857610308612982565b6020026020010184600f8151811061032257610322612982565b6020908102919091010191909152525f80516020612a02833981519152808360078151811061035357610353612982565b60200260200101518460148151811061036e5761036e612982565b6020026020010151098360158151811061038a5761038a612982565b602002602001015109826010815181106103a6576103a6612982565b6020026020010181815250506103bd82600c612780565b7f0be9b3a5950af048778dbfef6e2c2152ba531174881c2b338dcab3dc2f01561e7f10e6414341ba4740c8efd22fe345021a8ee6452796bf1946418ed05bdb128cb883600e8151811061041257610412612982565b6020026020010184600f8151811061042c5761042c612982565b6020908102919091010191909152525f80516020612a028339815191528260148151811061045c5761045c612982565b60200260200101518360158151811061047757610477612982565b6020026020010151098260108151811061049357610493612982565b6020026020010181815250506104aa82600c612780565b7f03fa2d1fc08270af280b83e485a97295d4014a057a1159f45302b98b2b94eb857f05ca0fcccbae7c1647b2f5361fba0dc5bf909d0e8ba4c0d8d72654b2cd4ba38483600e815181106104ff576104ff612982565b6020026020010184600f8151811061051957610519612982565b6020908102919091010191909152525f80516020612a02833981519152808360078151811061054a5761054a612982565b602002602001015184601b8151811061056557610565612982565b6020026020010151098360158151811061058157610581612982565b6020026020010151098260108151811061059d5761059d612982565b6020026020010181815250506105b482600c612780565b7f026e38da774fd6ae82b1435daba8b9a8d5b42d0cee69607cc380e534cb411e957f15799253ad6bb04874c9c5665e8aa165ed26028b00b75bdf8fcd461e3cfafa5183600e8151811061060957610609612982565b6020026020010184600f8151811061062357610623612982565b6020908102919091010191909152525f80516020612a0283398151915282601e8151811061065357610653612982565b60200260200101518360158151811061066e5761066e612982565b6020026020010151098260108151811061068a5761068a612982565b6020026020010181815250506106a182600c612780565b7f2565c7a065643cd65821818ac5b760093191dc1bce845e00e701d3acd2b9f0287f30520214e2f62312654696fbf74be1fbd28bee8e2eb9788d33e2a944f901c1ce83600e815181106106f6576106f6612982565b6020026020010184600f8151811061071057610710612982565b6020908102919091010191909152525f80516020612a02833981519152808360078151811061074157610741612982565b602002602001015184601e8151811061075c5761075c612982565b6020026020010151098360158151811061077857610778612982565b6020026020010151098260108151811061079457610794612982565b6020026020010181815250506107ab82600c612780565b7f080319b89adc6e14f3413130822d9fe19b83a527f16958ea8a32da2c354b7eea7f015ba496188fe57049d0c83833339df9d5d42da93b37576de96c0b76e91798b183600e8151811061080057610800612982565b6020026020010184600f8151811061081a5761081a612982565b6020908102919091010191909152525f80516020612a02833981519152808360078151811061084b5761084b612982565b60200260200101518460208151811061086657610866612982565b6020026020010151098360158151811061088257610882612982565b6020026020010151098260108151811061089e5761089e612982565b6020026020010181815250506108b582600c612780565b8585607e8181106108c8576108c8612982565b905060200201358686607f8181106108e2576108e2612982565b9050602002013583600e815181106108fc576108fc612982565b6020026020010184600f8151811061091657610916612982565b6020908102919091010191909152525f80516020612a028339815191528260168151811061094657610946612982565b60200260200101515f80516020612a028339815191528061096957610969612996565b5f80516020612a028339815191528560068151811061098a5761098a612982565b60200260200101515f80516020612a028339815191526109aa91906129be565b866009815181106109bd576109bd612982565b602002602001015108856011815181106109d9576109d9612982565b602002602001015109096109fa905f80516020612a028339815191526129be565b82601081518110610a0d57610a0d612982565b602002602001018181525050610a2482600c612780565b85856080818110610a3757610a37612982565b9050602002013586866081818110610a5157610a51612982565b9050602002013583600e81518110610a6b57610a6b612982565b6020026020010184600f81518110610a8557610a85612982565b602002602001018281525082815250505081600981518110610aa957610aa9612982565b602002602001015182601081518110610ac457610ac4612982565b602002602001018181525050610adb82600c612780565b5f80516020612a0283398151915282600781518110610afc57610afc612982565b602002602001015183601581518110610b1757610b17612982565b60200260200101510982601181518110610b3357610b33612982565b60200260200101818152505085856036818110610b5257610b52612982565b9050602002013586866037818110610b6c57610b6c612982565b9050602002013583600e81518110610b8657610b86612982565b6020026020010184600f81518110610ba057610ba0612982565b6020908102919091010191909152525f80516020612a028339815191528083602381518110610bd157610bd1612982565b602002602001015184602381518110610bec57610bec612982565b60200260200101510983601181518110610c0857610c08612982565b60200260200101510982601081518110610c2457610c24612982565b602002602001018181525050610c3b82600c612780565b85856034818110610c4e57610c4e612982565b9050602002013586866035818110610c6857610c68612982565b9050602002013583600e81518110610c8257610c82612982565b6020026020010184600f81518110610c9c57610c9c612982565b6020908102919091010191909152525f80516020612a0283398151915282602381518110610ccc57610ccc612982565b602002602001015183601181518110610ce757610ce7612982565b60200260200101510982601081518110610d0357610d03612982565b602002602001018181525050610d1a82600c612780565b85856032818110610d2d57610d2d612982565b9050602002013586866033818110610d4757610d47612982565b9050602002013583600e81518110610d6157610d61612982565b6020026020010184600f81518110610d7b57610d7b612982565b602002602001018281525082815250505081601181518110610d9f57610d9f612982565b602002602001015182601081518110610dba57610dba612982565b602002602001018181525050610dd182600c612780565b815f81518110610de357610de3612982565b602002602001015182600181518110610dfe57610dfe612982565b602002602001015183600e81518110610e1957610e19612982565b6020026020010184600f81518110610e3357610e33612982565b6020908102919091010191909152525f80516020612a028339815191528083601881518110610e6457610e64612982565b602002602001015184601d81518110610e7f57610e7f612982565b60200260200101510983601581518110610e9b57610e9b612982565b60200260200101510982601081518110610eb757610eb7612982565b602002602001018181525050610ece82600c612780565b5f80516020612a0283398151915282601c81518110610eef57610eef612982565b60200260200101515f80516020612a0283398151915280610f1257610f12612996565b84600881518110610f2557610f25612982565b602002602001015185601381518110610f4057610f40612982565b6020026020010151090982601181518110610f5d57610f5d612982565b60200260200101818152505085856014818110610f7c57610f7c612982565b9050602002013586866015818110610f9657610f96612982565b9050602002013583600e81518110610fb057610fb0612982565b6020026020010184600f81518110610fca57610fca612982565b6020908102919091010191909152525f80516020612a0283398151915282601781518110610ffa57610ffa612982565b60200260200101518360118151811061101557611015612982565b6020026020010151098260108151811061103157611031612982565b60200260200101818152505061104882600c612780565b8585601681811061105b5761105b612982565b905060200201358686601781811061107557611075612982565b9050602002013583600e8151811061108f5761108f612982565b6020026020010184600f815181106110a9576110a9612982565b6020908102919091010191909152525f80516020612a0283398151915282601f815181106110d9576110d9612982565b6020026020010151836015815181106110f4576110f4612982565b6020026020010151098260108151811061111057611110612982565b60200260200101818152505061112782600c612780565b8585602a81811061113a5761113a612982565b905060200201358686602b81811061115457611154612982565b9050602002013583600e8151811061116e5761116e612982565b6020026020010184600f8151811061118857611188612982565b6020908102919091010191909152525f80516020612a02833981519152826017815181106111b8576111b8612982565b6020026020010151836019815181106111d3576111d3612982565b602002602001015109826010815181106111ef576111ef612982565b60200260200101818152505061120682600c612780565b8585601881811061121957611219612982565b905060200201358686601981811061123357611233612982565b9050602002013583600e8151811061124d5761124d612982565b6020026020010184600f8151811061126757611267612982565b6020908102919091010191909152525f80516020612a028339815191528260078151811061129757611297612982565b6020026020010151836011815181106112b2576112b2612982565b602002602001015109826010815181106112ce576112ce612982565b6020026020010181815250506112e582600c612780565b5f80516020612a028339815191528260178151811061130657611306612982565b602002602001015183601e8151811061132157611321612982565b6020026020010151098260148151811061133d5761133d612982565b6020026020010181815250508585601a81811061135c5761135c612982565b905060200201358686601b81811061137657611376612982565b9050602002013583600e8151811061139057611390612982565b6020026020010184600f815181106113aa576113aa612982565b6020908102919091010191909152525f80516020612a0283398151915280836007815181106113db576113db612982565b6020026020010151846014815181106113f6576113f6612982565b6020026020010151098360158151811061141257611412612982565b6020026020010151098260108151811061142e5761142e612982565b60200260200101818152505061144582600c612780565b8585602c81811061145857611458612982565b905060200201358686602d81811061147257611472612982565b9050602002013583600e8151811061148c5761148c612982565b6020026020010184600f815181106114a6576114a6612982565b6020908102919091010191909152525f80516020612a02833981519152826007815181106114d6576114d6612982565b6020026020010151836019815181106114f1576114f1612982565b6020026020010151098260108151811061150d5761150d612982565b60200260200101818152505061152482600c612780565b8585601c81811061153757611537612982565b905060200201358686601d81811061155157611551612982565b9050602002013583600e8151811061156b5761156b612982565b6020026020010184600f8151811061158557611585612982565b6020026020010182815250828152505050816011815181106115a9576115a9612982565b6020026020010151826010815181106115c4576115c4612982565b6020026020010181815250506115db82600c612780565b8585601e8181106115ee576115ee612982565b905060200201358686601f81811061160857611608612982565b9050602002013583600e8151811061162257611622612982565b6020026020010184600f8151811061163c5761163c612982565b6020908102919091010191909152525f80516020612a028339815191528260148151811061166c5761166c612982565b60200260200101518360158151811061168757611687612982565b602002602001015109826010815181106116a3576116a3612982565b6020026020010181815250506116ba82600c612780565b8585602e8181106116cd576116cd612982565b905060200201358686602f8181106116e7576116e7612982565b9050602002013583600e8151811061170157611701612982565b6020026020010184600f8151811061171b5761171b612982565b60200260200101828152508281525050508160198151811061173f5761173f612982565b60200260200101518260108151811061175a5761175a612982565b60200260200101818152505061177182600c612780565b7f122c4b2c663b815420306938f8be0ddf18b39b75b3c3c56bf872c9e5887767787f2601cec54204146dfc83cb8e79a02ffb69f0aedca727a5b57fde7bd9fa7f182383600e815181106117c6576117c6612982565b6020026020010184600f815181106117e0576117e0612982565b6020908102919091010191909152525f80516020612a028339815191528260218151811061181057611810612982565b60200260200101518360158151811061182b5761182b612982565b6020026020010151098260108151811061184757611847612982565b60200260200101818152505061185e82600c612780565b7f156d3d1a9708a90b0555e0541f0b5b166b588c8992d27d2554229afe81ab4a0a7f235a8d41c50ffc0c07768c72e4668e30487413468aca2e0b3c4e1c9a45fb7db983600e815181106118b3576118b3612982565b6020026020010184600f815181106118cd576118cd612982565b6020908102919091010191909152525f80516020612a0283398151915280836007815181106118fe576118fe612982565b602002602001015184601a8151811061191957611919612982565b6020026020010151098360158151811061193557611935612982565b6020026020010151098260108151811061195157611951612982565b60200260200101818152505061196882600c612780565b7f0278bbbefe5ff51facaed3fa35628af1e32fc79ae2fbbfa59ca82b15f3b5b7e47f0e40799a014835571072c5db3143ac9b9af83a29caa225c41e74b9d8f25db75e83600e815181106119bd576119bd612982565b6020026020010184600f815181106119d7576119d7612982565b6020908102919091010191909152525f80516020612a0283398151915282601a81518110611a0757611a07612982565b602002602001015183601581518110611a2257611a22612982565b60200260200101510982601081518110611a3e57611a3e612982565b602002602001018181525050611a5582600c612780565b5f80516020612a0283398151915282601781518110611a7657611a76612982565b602002602001015183601881518110611a9157611a91612982565b60200260200101510982601181518110611aad57611aad612982565b6020026020010181815250507f1ea4805cfd4e0d73993d1c8e976019e03c36bb59ee4eb5040057877c30a80e897f2f3acbab68e399fac4606aed2ae6615b10502dc39ca7a4e8a736f9ba6444c4dd83600e81518110611b0e57611b0e612982565b6020026020010184600f81518110611b2857611b28612982565b6020908102919091010191909152525f80516020612a028339815191528083600781518110611b5957611b59612982565b602002602001015184601181518110611b7457611b74612982565b60200260200101510983601581518110611b9057611b90612982565b60200260200101510982601081518110611bac57611bac612982565b602002602001018181525050611bc382600c612780565b7f21eac21319033bf3744c814d37ba065334d18bbe9dd73a074bc5529539b329f97f264592032337e2b0639e36f2dbdafdf5ca2d09aa78c7df964f184a658942656a83600e81518110611c1857611c18612982565b6020026020010184600f81518110611c3257611c32612982565b6020908102919091010191909152525f80516020612a0283398151915282601181518110611c6257611c62612982565b602002602001015183601581518110611c7d57611c7d612982565b60200260200101510982601081518110611c9957611c99612982565b602002602001018181525050611cb082600c612780565b7f2d322f070d02cc3bc0627c447cb71fa3f96420dc10fd06e8775b571b002cf4217f12c152158fa2061d331678ac9fb61522ee7d5ffd6686b1907c242792792d256d83600e81518110611d0557611d05612982565b6020026020010184600f81518110611d1f57611d1f612982565b6020908102919091010191909152525f80516020612a028339815191528083600781518110611d5057611d50612982565b602002602001015184601881518110611d6b57611d6b612982565b60200260200101510983601581518110611d8757611d87612982565b60200260200101510982601081518110611da357611da3612982565b602002602001018181525050611dba82600c612780565b7f17e239fdf40b337ad130934fa551040f37879059e6f2ca6328ca4ba5ced5cffc7f1f168b3232146ea9801b7ae828440461ede6b420f008fa1f8ca7fb8a2551294b83600e81518110611e0f57611e0f612982565b6020026020010184600f81518110611e2957611e29612982565b6020908102919091010191909152525f80516020612a0283398151915282601881518110611e5957611e59612982565b602002602001015183601581518110611e7457611e74612982565b60200260200101510982601081518110611e9057611e90612982565b602002602001018181525050611ea782600c612780565b5f80516020612a0283398151915282600781518110611ec857611ec8612982565b602002602001015183601781518110611ee357611ee3612982565b60200260200101510982601181518110611eff57611eff612982565b6020026020010181815250507f13f5958f2ef2a5f8cfe306165b9ff30c01218ad561e25b7cdca822454f90e5e17f13ab619fe2a1acf2a6412d106c18e625d16df35da7ab9d214cee86d60c00e93483600e81518110611f6057611f60612982565b6020026020010184600f81518110611f7a57611f7a612982565b6020908102919091010191909152525f80516020612a0283398151915282601181518110611faa57611faa612982565b602002602001015183601581518110611fc557611fc5612982565b60200260200101510982601081518110611fe157611fe1612982565b602002602001018181525050611ff882600c612780565b7f0ab167115fcfa344b12422e3057429e49a4068e4cf5c9d4805f83806cc7c7d6b7f0afdc709f2aeff4d6c30deca1cddf7d245b57db1c4ce56e38ebaec86b98a7ab883600e8151811061204d5761204d612982565b6020026020010184600f8151811061206757612067612982565b6020908102919091010191909152525f80516020612a028339815191528260178151811061209757612097612982565b6020026020010151836015815181106120b2576120b2612982565b602002602001015109826010815181106120ce576120ce612982565b6020026020010181815250506120e582600c612780565b5f80516020612a028339815191528260138151811061210657612106612982565b60200260200101518360138151811061212157612121612982565b6020026020010151098260138151811061213d5761213d612982565b60209081029190910101525f80516020612a028339815191528260178151811061216957612169612982565b60200260200101518360138151811061218457612184612982565b602002602001015109826014815181106121a0576121a0612982565b602002602001018181525050858560208181106121bf576121bf612982565b90506020020135868660218181106121d9576121d9612982565b9050602002013583600e815181106121f3576121f3612982565b6020026020010184600f8151811061220d5761220d612982565b6020908102919091010191909152525f80516020612a028339815191528260078151811061223d5761223d612982565b60200260200101518360148151811061225857612258612982565b6020026020010151098260108151811061227457612274612982565b60200260200101818152505061228b82600c612780565b8585602281811061229e5761229e612982565b90506020020135868660238181106122b8576122b8612982565b9050602002013583600e815181106122d2576122d2612982565b6020026020010184600f815181106122ec576122ec612982565b60200260200101828152508281525050508160148151811061231057612310612982565b60200260200101518260108151811061232b5761232b612982565b60200260200101818152505061234282600c612780565b8585602481811061235557612355612982565b905060200201358686602581811061236f5761236f612982565b9050602002013583600e8151811061238957612389612982565b6020026020010184600f815181106123a3576123a3612982565b6020908102919091010191909152525f80516020612a02833981519152826007815181106123d3576123d3612982565b6020026020010151836013815181106123ee576123ee612982565b6020026020010151098260108151811061240a5761240a612982565b60200260200101818152505061242182600c612780565b8585602681811061243457612434612982565b905060200201358686602781811061244e5761244e612982565b9050602002013583600e8151811061246857612468612982565b6020026020010184600f8151811061248257612482612982565b6020026020010182815250828152505050816013815181106124a6576124a6612982565b6020026020010151826010815181106124c1576124c1612982565b6020026020010181815250506124d882600c612780565b858560288181106124eb576124eb612982565b905060200201358686602981811061250557612505612982565b9050602002013583600e8151811061251f5761251f612982565b6020026020010184600f8151811061253957612539612982565b6020908102919091010191909152525f80516020612a028339815191528260118151811061256957612569612982565b60200260200101518360198151811061258457612584612982565b602002602001015109826010815181106125a0576125a0612982565b6020026020010181815250506125b782600c612780565b858560308181106125ca576125ca612982565b90506020020135868660318181106125e4576125e4612982565b9050602002013583600e815181106125fe576125fe612982565b6020026020010184600f8151811061261857612618612982565b60200260200101828152508281525050508160158151811061263c5761263c612982565b60200260200101518260108151811061265757612657612982565b60200260200101818152505061266e82600c612780565b60408051600480825260a082019092525f916020820160808036833701905050905082600a815181106126a3576126a3612982565b6020026020010151815f815181106126bd576126bd612982565b60200260200101818152505082600b815181106126dc576126dc612982565b6020026020010151816001815181106126f7576126f7612982565b60200260200101818152505082600c8151811061271657612716612982565b60200260200101518160028151811061273157612731612982565b60200260200101818152505082600d8151811061275057612750612982565b60200260200101518160038151811061276b5761276b612982565b60209081029190910101529695505050505050565b5f8061278d8360206129d7565b6127989060206129ee565b90505f6127a68260406129ee565b9050604085820160608160075afa9250826127bf575f80fd5b604085830160808160065afa9250826127d6575f80fd5b5050505050565b5f8083601f8401126127ed575f80fd5b5081356001600160401b03811115612803575f80fd5b6020830191508360208260051b850101111561281d575f80fd5b9250929050565b634e487b7160e01b5f52604160045260245ffd5b5f805f805f6060868803121561284c575f80fd5b85356001600160401b0380821115612862575f80fd5b61286e89838a016127dd565b9097509550602091508782013581811115612887575f80fd5b6128938a828b016127dd565b9096509450506040880135818111156128aa575f80fd5b8801601f81018a136128ba575f80fd5b8035828111156128cc576128cc612824565b8060051b604051601f19603f830116810181811086821117156128f1576128f1612824565b60405291825284820193508281018501918c83111561290e575f80fd5b928501925b8284101561292c57833585529385019392850192612913565b8096505050505050509295509295909350565b602080825282518282018190525f9190848201906040850190845b818110156129765783518352928401929184019160010161295a565b50909695505050505050565b634e487b7160e01b5f52603260045260245ffd5b634e487b7160e01b5f52601260045260245ffd5b634e487b7160e01b5f52601160045260245ffd5b818103818111156129d1576129d16129aa565b92915050565b80820281158282048414176129d1576129d16129aa565b808201808211156129d1576129d16129aa56fe30644e72e131a029b85045b68181585d2833e84879b9709143e1f593f0000001a2646970667358221220667b61c81f5cd01f59d9306c3d27e137250deac8307f13f20dd34b3cae5283e564736f6c63430008180033",
			"opcodes": "PUSH1 0x80 PUSH1 0x40 MSTORE CALLVALUE DUP1 ISZERO PUSH2 0xF JUMPI PUSH0 DUP1 REVERT JUMPDEST POP PUSH2 0x2A57 DUP1 PUSH2 0x1D PUSH0 CODECOPY PUSH0 RETURN INVALID PUSH1 0x80 PUSH1 0x40 MSTORE CALLVALUE DUP1 ISZERO PUSH2 0xF JUMPI PUSH0 DUP1 REVERT JUMPDEST POP PUSH1 0x4 CALLDATASIZE LT PUSH2 0x29 JUMPI PUSH0 CALLDATALOAD PUSH1 0xE0 SHR DUP1 PUSH4 0x96675190 EQ PUSH2 0x2D JUMPI JUMPDEST PUSH0 DUP1 REVERT JUMPDEST PUSH2 0x40 PUSH2 0x3B CALLDATASIZE PUSH1 0x4 PUSH2 0x2838 JUMP JUMPDEST PUSH2 0x56 JUMP JUMPDEST PUSH1 0x40 MLOAD PUSH2 0x4D SWAP2 SWAP1 PUSH2 0x293F JUMP JUMPDEST PUSH1 0x40 MLOAD DUP1 SWAP2 SUB SWAP1 RETURN JUMPDEST PUSH1 0x60 PUSH32 0x1C48C0EA276647A5C1C105FB335BF3D955F0B719B0FCA4A5F9705382582F7734 PUSH32 0x26D929B6E85E205EEAF2900C16B5B2BDA852B24BC2FDC14861B03E3C617F9089 DUP4 PUSH1 0xE DUP2 MLOAD DUP2 LT PUSH2 0xAD JUMPI PUSH2 0xAD PUSH2 0x2982 JUMP JUMPDEST PUSH1 0x20 MUL PUSH1 0x20 ADD ADD DUP5 PUSH1 0xF DUP2 MLOAD DUP2 LT PUSH2 0xC7 JUMPI PUSH2 0xC7 PUSH2 0x2982 JUMP JUMPDEST PUSH1 0x20 SWAP1 DUP2 MUL SWAP2 SWAP1 SWAP2 ADD ADD SWAP2 SWAP1 SWAP2 MSTORE MSTORE PUSH0 DUP1 MLOAD PUSH1 0x20 PUSH2 0x2A02 DUP4 CODECOPY DUP2 MLOAD SWAP2 MSTORE DUP1 DUP4 PUSH1 0x7 DUP2 MLOAD DUP2 LT PUSH2 0xF8 JUMPI PUSH2 0xF8 PUSH2 0x2982 JUMP JUMPDEST PUSH1 0x20 MUL PUSH1 0x20 ADD ADD MLOAD DUP5 PUSH1 0x14 DUP2 MLOAD DUP2 LT PUSH2 0x113 JUMPI PUSH2 0x113 PUSH2 0x2982 JUMP JUMPDEST PUSH1 0x20 MUL PUSH1 0x20 ADD ADD MLOAD MULMOD DUP4 PUSH1 0x15 DUP2 MLOAD DUP2 LT PUSH2 0x12F JUMPI PUSH2 0x12F PUSH2 0x2982 JUMP JUMPDEST PUSH1 0x20 MUL PUSH1 0x20 ADD ADD MLOAD MULMOD DUP3 PUSH1 0x10 DUP2 MLOAD DUP2 LT PUSH2 0x14B JUMPI PUSH2 0x14B PUSH2 0x2982 JUMP JUMPDEST PUSH1 0x20 MUL PUSH1 0x20 ADD ADD DUP2 DUP2 MSTORE POP POP PUSH2 0x162 DUP3 PUSH1 0xC PUSH2 0x2780 JUMP JUMPDEST PUSH32 0x2D2B06D9CB3A00C6717095AE1DBD56C44C070E3CC8019BB6561931E62C3152D5 PUSH32 0x94EA08674F88A88873A3F6A65E1280068F7CF699ADF5AE8D077CC4856F45D32 DUP4 PUSH1 0xE DUP2 MLOAD DUP2 LT PUSH2 0x1B7 JUMPI PUSH2 0x1B7 PUSH2 0x2982 JUMP JUMPDEST PUSH1 0x20 MUL PUSH1 0x20 ADD ADD DUP5 PUSH1 0xF DUP2 MLOAD DUP2 LT PUSH2 0x1D1 JUMPI PUSH2 0x1D1 PUSH2 0x2982 JUMP JUMPDEST PUSH1 0x20 SWAP1 DUP2 MUL SWAP2 SWAP1 SWAP2 ADD ADD SWAP2 SWAP1 SWAP2 MSTORE MSTORE PUSH0 DUP1 MLOAD PUSH1 0x20 PUSH2 0x2A02 DUP4 CODECOPY DUP2 MLOAD SWAP2 MSTORE DUP3 PUSH1 0x14 DUP2 MLOAD DUP2 LT PUSH2 0x201 JUMPI PUSH2 0x201 PUSH2 0x2982 JUMP JUMPDEST PUSH1 0x20 MUL PUSH1 0x20 ADD ADD MLOAD DUP4 PUSH1 0x15 DUP2 MLOAD DUP2 LT PUSH2 0x21C JUMPI PUSH2 0x21C PUSH2 0x2982 JUMP JUMPDEST PUSH1 0x20 MUL PUSH1 0x20 ADD ADD MLOAD MULMOD DUP3 PUSH1 0x10 DUP2 MLOAD DUP2 LT PUSH2 0x238 JUMPI PUSH2 0x238 PUSH2 0x2982 JUMP JUMPDEST PUSH1 0x20 MUL PUSH1 0x20 ADD ADD DUP2 DUP2 MSTORE POP POP PUSH2 0x24F DUP3 PUSH1 0xC PUSH2 0x2780 JUMP JUMPDEST PUSH0 DUP1 MLOAD PUSH1 0x20 PUSH2 0x2A02 DUP4 CODECOPY DUP2 MLOAD SWAP2 MSTORE DUP3 PUSH1 0x17 DUP2 MLOAD DUP2 LT PUSH2 0x270 JUMPI PUSH2 0x270 PUSH2 0x2982 JUMP JUMPDEST PUSH1 0x20 MUL PUSH1 0x20 ADD ADD MLOAD DUP4 PUSH1 0x1B DUP2 MLOAD DUP2 LT PUSH2 0x28B JUMPI PUSH2 0x28B PUSH2 0x2982 JUMP JUMPDEST PUSH1 0x20 MUL PUSH1 0x20 ADD ADD MLOAD MULMOD DUP3 PUSH1 0x14 DUP2 MLOAD DUP2 LT PUSH2 0x2A7 JUMPI PUSH2 0x2A7 PUSH2 0x2982 JUMP JUMPDEST PUSH1 0x20 MUL PUSH1 0x20 ADD ADD DUP2 DUP2 MSTORE POP POP PUSH32 0x1F7AD35E4EBB414326280310D9E81561AA46B52F42FBD274F18EF34F17455846 PUSH32 0x2E3885E9AF4338B8931B5B1B0E0F2E55432CD10919B3A5AED73F12297302F24 DUP4 PUSH1 0xE DUP2 MLOAD DUP2 LT PUSH2 0x308 JUMPI PUSH2 0x308 PUSH2 0x2982 JUMP JUMPDEST PUSH1 0x20 MUL PUSH1 0x20 ADD ADD DUP5 PUSH1 0xF DUP2 MLOAD DUP2 LT PUSH2 0x322 JUMPI PUSH2 0x322 PUSH2 0x2982 JUMP JUMPDEST PUSH1 0x20 SWAP1 DUP2 MUL SWAP2 SWAP1 SWAP2 ADD ADD SWAP2 SWAP1 SWAP2 MSTORE MSTORE PUSH0 DUP1 MLOAD PUSH1 0x20 PUSH2 0x2A02 DUP4 CODECOPY DUP2 MLOAD SWAP2 MSTORE DUP1 DUP4 PUSH1 0x7 DUP2 MLOAD DUP2 LT PUSH2 0x353 JUMPI PUSH2 0x353 PUSH2 0x2982 JUMP JUMPDEST PUSH1 0x20 MUL PUSH1 0x20 ADD ADD MLOAD DUP5 PUSH1 0x14 DUP2 MLOAD DUP2 LT PUSH2 0x36E JUMPI PUSH2 0x36E PUSH2 0x2982 JUMP JUMPDEST PUSH1 0x20 MUL PUSH1 0x20 ADD ADD MLOAD MULMOD DUP4 PUSH1 0x15 DUP2 MLOAD DUP2 LT PUSH2 0x38A JUMPI PUSH2 0x38A PUSH2 0x2982 JUMP JUMPDEST PUSH1 0x20 MUL PUSH1 0x20 ADD ADD MLOAD MULMOD DUP3 PUSH1 0x10 DUP2 MLOAD DUP2 LT PUSH2 0x3A6 JUMPI PUSH2 0x3A6 PUSH2 0x2982 JUMP JUMPDEST PUSH1 0x20 MUL PUSH1 0x20 ADD ADD DUP2 DUP2 MSTORE POP POP PUSH2 0x3BD DUP3 PUSH1 0xC PUSH2 0x2780 JUMP JUMPDEST PUSH32 0xBE9B3A5950AF048778DBFEF6E2C2152BA531174881C2B338DCAB3DC2F01561E PUSH32 0x10E6414341BA4740C8EFD22FE345021A8EE6452796BF1946418ED05BDB128CB8 DUP4 PUSH1 0xE DUP2 MLOAD DUP2 LT PUSH2 0x412 JUMPI PUSH2 0x412 PUSH2 0x2982 JUMP JUMPDEST PUSH1 0x20 MUL PUSH1 0x20 ADD ADD DUP5 PUSH1 0xF DUP2 MLOAD DUP2 LT PUSH2 0x42C JUMPI PUSH2 0x42C PUSH2 0x2982 JUMP JUMPDEST PUSH1 0x20 SWAP1 DUP2 MUL SWAP2 SWAP1 SWAP2 ADD ADD SWAP2 SWAP1 SWAP2 MSTORE MSTORE PUSH0 DUP1 MLOAD PUSH1 0x20 PUSH2 0x2A02 DUP4 CODECOPY DUP2 MLOAD SWAP2 MSTORE DUP3 PUSH1 0x14 DUP2 MLOAD DUP2 LT PUSH2 0x45C JUMPI PUSH2 0x45C PUSH2 0x2982 JUMP JUMPDEST PUSH1 0x20 MUL PUSH1 0x20 ADD ADD MLOAD DUP4 PUSH1 0x15 DUP2 MLOAD DUP2 LT PUSH2 0x477 JUMPI PUSH2 0x477 PUSH2 0x2982 JUMP JUMPDEST PUSH1 0x20 MUL PUSH1 0x20 ADD ADD MLOAD MULMOD DUP3 PUSH1 0x10 DUP2 MLOAD DUP2 LT PUSH2 0x493 JUMPI PUSH2 0x493 PUSH2 0x2982 JUMP JUMPDEST PUSH1 0x20 MUL PUSH1 0x20 ADD ADD DUP2 DUP2 MSTORE POP POP PUSH2 0x4AA DUP3 PUSH1 0xC PUSH2 0x2780 JUMP JUMPDEST PUSH32 0x3FA2D1FC08270AF280B83E485A97295D4014A057A1159F45302B98B2B94EB85 PUSH32 0x5CA0FCCCBAE7C1647B2F5361FBA0DC5BF909D0E8BA4C0D8D72654B2CD4BA384 DUP4 PUSH1 0xE DUP2 MLOAD DUP2 LT PUSH2 0x4FF JUMPI PUSH2 0x4FF PUSH2 0x2982 JUMP JUMPDEST PUSH1 0x20 MUL PUSH1 0x20 ADD ADD DUP5 PUSH1 0xF DUP2 MLOAD DUP2 LT PUSH2 0x519 JUMPI PUSH2 0x519 PUSH2 0x2982 JUMP JUMPDEST PUSH1 0x20 SWAP1 DUP2 MUL SWAP2 SWAP1 SWAP2 ADD ADD SWAP2 SWAP1 SWAP2 MSTORE MSTORE PUSH0 DUP1 MLOAD PUSH1 0x20 PUSH2 0x2A02 DUP4 CODECOPY DUP2 MLOAD SWAP2 MSTORE DUP1 DUP4 PUSH1 0x7 DUP2 MLOAD DUP2 LT PUSH2 0x54A JUMPI PUSH2 0x54A PUSH2 0x2982 JUMP JUMPDEST PUSH1 0x20 MUL PUSH1 0x20 ADD ADD MLOAD DUP5 PUSH1 0x1B DUP2 MLOAD DUP2 LT PUSH2 0x565 JUMPI PUSH2 0x565 PUSH2 0x2982 JUMP JUMPDEST PUSH1 0x20 MUL PUSH1 0x20 ADD ADD MLOAD MULMOD DUP4 PUSH1 0x15 DUP2 MLOAD DUP2 LT PUSH2 0x581 JUMPI PUSH2 0x581 PUSH2 0x2982 JUMP JUMPDEST PUSH1 0x20 MUL PUSH1 0x20 ADD ADD MLOAD MULMOD DUP3 PUSH1 0x10 DUP2 MLOAD DUP2 LT PUSH2 0x59D JUMPI PUSH2 0x59D PUSH2 0x2982 JUMP JUMPDEST PUSH1 0x20 MUL PUSH1 0x20 ADD ADD DUP2 DUP2 MSTORE POP POP PUSH2 0x5B4 DUP3 PUSH1 0xC PUSH2 0x2780 JUMP JUMPDEST PUSH32 0x26E38DA774FD6AE82B1435DABA8B9A8D5B42D0CEE69607CC380E534CB411E95 PUSH32 0x15799253AD6BB04874C9C5665E8AA165ED26028B00B75BDF8FCD461E3CFAFA51 DUP4 PUSH1 0xE DUP2 MLOAD DUP2 LT PUSH2 0x609 JUMPI PUSH2 0x609 PUSH2 0x2982 JUMP JUMPDEST PUSH1 0x20 MUL PUSH1 0x20 ADD ADD DUP5 PUSH1 0xF DUP2 MLOAD DUP2 LT PUSH2 0x623 JUMPI PUSH2 0x623 PUSH2 0x2982 JUMP JUMPDEST PUSH1 0x20 SWAP1 DUP2 MUL SWAP2 SWAP1 SWAP2 ADD ADD SWAP2 SWAP1 SWAP2 MSTORE MSTORE PUSH0 DUP1 MLOAD PUSH1 0x20 PUSH2 0x2A02 DUP4 CODECOPY DUP2 MLOAD SWAP2 MSTORE DUP3 PUSH1 0x1E DUP2 MLOAD DUP2 LT PUSH2 0x653 JUMPI PUSH2 0x653 PUSH2 0x2982 JUMP JUMPDEST PUSH1 0x20 MUL PUSH1 0x20 ADD ADD MLOAD DUP4 PUSH1 0x15 DUP2 MLOAD DUP2 LT PUSH2 0x66E JUMPI PUSH2 0x66E PUSH2 0x2982 JUMP JUMPDEST PUSH1 0x20 MUL PUSH1 0x20 ADD ADD MLOAD MULMOD DUP3 PUSH1 0x10 DUP2 MLOAD DUP2 LT PUSH2 0x68A JUMPI PUSH2 0x68A PUSH2 0x2982 JUMP JUMPDEST PUSH1 0x20 MUL PUSH1 0x20 ADD ADD DUP2 DUP2 MSTORE POP POP PUSH2 0x6A1 DUP3 PUSH1 0xC PUSH2 0x2780 JUMP JUMPDEST PUSH32 0x2565C7A065643CD65821818AC5B760093191DC1BCE845E00E701D3ACD2B9F028 PUSH32 0x30520214E2F62312654696FBF74BE1FBD28BEE8E2EB9788D33E2A944F901C1CE DUP4 PUSH1 0xE DUP2 MLOAD DUP2 LT PUSH2 0x6F6 JUMPI PUSH2 0x6F6 PUSH2 0x2982 JUMP JUMPDEST PUSH1 0x20 MUL PUSH1 0x20 ADD ADD DUP5 PUSH1 0xF DUP2 MLOAD DUP2 LT PUSH2 0x710 JUMPI PUSH2 0x710 PUSH2 0x2982 JUMP JUMPDEST PUSH1 0x20 SWAP1 DUP2 MUL SWAP2 SWAP1 SWAP2 ADD ADD SWAP2 SWAP1 SWAP2 MSTORE MSTORE PUSH0 DUP1 MLOAD PUSH1 0x20 PUSH2 0x2A02 DUP4 CODECOPY DUP2 MLOAD SWAP2 MSTORE DUP1 DUP4 PUSH1 0x7 DUP2 MLOAD DUP2 LT PUSH2 0x741 JUMPI PUSH2 0x741 PUSH2 0x2982 JUMP JUMPDEST PUSH1 0x20 MUL PUSH1 0x20 ADD ADD MLOAD DUP5 PUSH1 0x1E DUP2 MLOAD DUP2 LT PUSH2 0x75C JUMPI PUSH2 0x75C PUSH2 0x2982 JUMP JUMPDEST PUSH1 0x20 MUL PUSH1 0x20 ADD ADD MLOAD MULMOD DUP4 PUSH1 0x15 DUP2 MLOAD DUP2 LT PUSH2 0x778 JUMPI PUSH2 0x778 PUSH2 0x2982 JUMP JUMPDEST PUSH1 0x20 MUL PUSH1 0x20 ADD ADD MLOAD MULMOD DUP3 PUSH1 0x10 DUP2 MLOAD DUP2 LT PUSH2 0x794 JUMPI PUSH2 0x794 PUSH2 0x2982 JUMP JUMPDEST PUSH1 0x20 MUL PUSH1 0x20 ADD ADD DUP2 DUP2 MSTORE POP POP PUSH2 0x7AB DUP3 PUSH1 0xC PUSH2 0x2780 JUMP JUMPDEST PUSH32 0x80319B89ADC6E14F3413130822D9FE19B83A527F16958EA8A32DA2C354B7EEA PUSH32 0x15BA496188FE57049D0C83833339DF9D5D42DA93B37576DE96C0B76E91798B1 DUP4 PUSH1 0xE DUP2 MLOAD DUP2 LT PUSH2 0x800 JUMPI PUSH2 0x800 PUSH2 0x2982 JUMP JUMPDEST PUSH1 0x20 MUL PUSH1 0x20 ADD ADD DUP5 PUSH1 0xF DUP2 MLOAD DUP2 LT PUSH2 0x81A JUMPI PUSH2 0x81A PUSH2 0x2982 JUMP JUMPDEST PUSH1 0x20 SWAP1 DUP2 MUL SWAP2 SWAP1 SWAP2 ADD ADD SWAP2 SWAP1 SWAP2 MSTORE MSTORE PUSH0 DUP1 MLOAD PUSH1 0x20 PUSH2 0x2A02 DUP4 CODECOPY DUP2 MLOAD SWAP2 MSTORE DUP1 DUP4 PUSH1 0x7 DUP2 MLOAD DUP2 LT PUSH2 0x84B JUMPI PUSH2 0x84B PUSH2 0x2982 JUMP JUMPDEST PUSH1 0x20 MUL PUSH1 0x20 ADD ADD MLOAD DUP5 PUSH1 0x20 DUP2 MLOAD DUP2 LT PUSH2 0x866 JUMPI PUSH2 0x866 PUSH2 0x2982 JUMP JUMPDEST PUSH1 0x20 MUL PUSH1 0x20 ADD ADD MLOAD MULMOD DUP4 PUSH1 0x15 DUP2 MLOAD DUP2 LT PUSH2 0x882 JUMPI PUSH2 0x882 PUSH2 0x2982 JUMP JUMPDEST PUSH1 0x20 MUL PUSH1 0x20 ADD ADD MLOAD MULMOD DUP3 PUSH1 0x10 DUP2 MLOAD DUP2 LT PUSH2 0x89E JUMPI PUSH2 0x89E PUSH2 0x2982 JUMP JUMPDEST PUSH1 0x20 MUL PUSH1 0x20 ADD ADD DUP2 DUP2 MSTORE POP POP PUSH2 0x8B5 DUP3 PUSH1 0xC PUSH2 0x2780 JUMP JUMPDEST DUP6 DUP6 PUSH1 0x7E DUP2 DUP2 LT PUSH2 0x8C8 JUMPI PUSH2 0x8C8 PUSH2 0x2982 JUMP JUMPDEST SWAP1 POP PUSH1 0x20 MUL ADD CALLDATALOAD DUP7 DUP7 PUSH1 0x7F DUP2 DUP2 LT PUSH2 0x8E2 JUMPI PUSH2 0x8E2 PUSH2 0x2982 JUMP JUMPDEST SWAP1 POP PUSH1 0x20 MUL ADD CALLDATALOAD DUP4 PUSH1 0xE DUP2 MLOAD DUP2 LT PUSH2 0x8FC JUMPI PUSH2 0x8FC PUSH2 0x2982 JUMP JUMPDEST PUSH1 0x20 MUL PUSH1 0x20 ADD ADD DUP5 PUSH1 0xF DUP2 MLOAD DUP2 LT PUSH2 0x916 JUMPI PUSH2 0x916 PUSH2 0x2982 JUMP JUMPDEST PUSH1 0x20 SWAP1 DUP2 MUL SWAP2 SWAP1 SWAP2 ADD ADD SWAP2 SWAP1 SWAP2 MSTORE MSTORE PUSH0 DUP1 MLOAD PUSH1 0x20 PUSH2 0x2A02 DUP4 CODECOPY DUP2 MLOAD SWAP2 MSTORE DUP3 PUSH1 0x16 DUP2 MLOAD DUP2 LT PUSH2 0x946 JUMPI PUSH2 0x946 PUSH2 0x2982 JUMP JUMPDEST PUSH1 0x20 MUL PUSH1 0x20 ADD ADD MLOAD PUSH0 DUP1 MLOAD PUSH1 0x20 PUSH2 0x2A02 DUP4 CODECOPY DUP2 MLOAD SWAP2 MSTORE DUP1 PUSH2 0x969 JUMPI PUSH2 0x969 PUSH2 0x2996 JUMP JUMPDEST PUSH0 DUP1 MLOAD PUSH1 0x20 PUSH2 0x2A02 DUP4 CODECOPY DUP2 MLOAD SWAP2 MSTORE DUP6 PUSH1 0x6 DUP2 MLOAD DUP2 LT PUSH2 0x98A JUMPI PUSH2 0x98A PUSH2 0x2982 JUMP JUMPDEST PUSH1 0x20 MUL PUSH1 0x20 ADD ADD MLOAD PUSH0 DUP1 MLOAD PUSH1 0x20 PUSH2 0x2A02 DUP4 CODECOPY DUP2 MLOAD SWAP2 MSTORE PUSH2 0x9AA SWAP2 SWAP1 PUSH2 0x29BE JUMP JUMPDEST DUP7 PUSH1 0x9 DUP2 MLOAD DUP2 LT PUSH2 0x9BD JUMPI PUSH2 0x9BD PUSH2 0x2982 JUMP JUMPDEST PUSH1 0x20 MUL PUSH1 0x20 ADD ADD MLOAD ADDMOD DUP6 PUSH1 0x11 DUP2 MLOAD DUP2 LT PUSH2 0x9D9 JUMPI PUSH2 0x9D9 PUSH2 0x2982 JUMP JUMPDEST PUSH1 0x20 MUL PUSH1 0x20 ADD ADD MLOAD MULMOD MULMOD PUSH2 0x9FA SWAP1 PUSH0 DUP1 MLOAD PUSH1 0x20 PUSH2 0x2A02 DUP4 CODECOPY DUP2 MLOAD SWAP2 MSTORE PUSH2 0x29BE JUMP JUMPDEST DUP3 PUSH1 0x10 DUP2 MLOAD DUP2 LT PUSH2 0xA0D JUMPI PUSH2 0xA0D PUSH2 0x2982 JUMP JUMPDEST PUSH1 0x20 MUL PUSH1 0x20 ADD ADD DUP2 DUP2 MSTORE POP POP PUSH2 0xA24 DUP3 PUSH1 0xC PUSH2 0x2780 JUMP JUMPDEST DUP6 DUP6 PUSH1 0x80 DUP2 DUP2 LT PUSH2 0xA37 JUMPI PUSH2 0xA37 PUSH2 0x2982 JUMP JUMPDEST SWAP1 POP PUSH1 0x20 MUL ADD CALLDATALOAD DUP7 DUP7 PUSH1 0x81 DUP2 DUP2 LT PUSH2 0xA51 JUMPI PUSH2 0xA51 PUSH2 0x2982 JUMP JUMPDEST SWAP1 POP PUSH1 0x20 MUL ADD CALLDATALOAD DUP4 PUSH1 0xE DUP2 MLOAD DUP2 LT PUSH2 0xA6B JUMPI PUSH2 0xA6B PUSH2 0x2982 JUMP JUMPDEST PUSH1 0x20 MUL PUSH1 0x20 ADD ADD DUP5 PUSH1 0xF DUP2 MLOAD DUP2 LT PUSH2 0xA85 JUMPI PUSH2 0xA85 PUSH2 0x2982 JUMP JUMPDEST PUSH1 0x20 MUL PUSH1 0x20 ADD ADD DUP3 DUP2 MSTORE POP DUP3 DUP2 MSTORE POP POP POP DUP2 PUSH1 0x9 DUP2 MLOAD DUP2 LT PUSH2 0xAA9 JUMPI PUSH2 0xAA9 PUSH2 0x2982 JUMP JUMPDEST PUSH1 0x20 MUL PUSH1 0x20 ADD ADD MLOAD DUP3 PUSH1 0x10 DUP2 MLOAD DUP2 LT PUSH2 0xAC4 JUMPI PUSH2 0xAC4 PUSH2 0x2982 JUMP JUMPDEST PUSH1 0x20 MUL PUSH1 0x20 ADD ADD DUP2 DUP2 MSTORE POP POP PUSH2 0xADB DUP3 PUSH1 0xC PUSH2 0x2780 JUMP JUMPDEST PUSH0 DUP1 MLOAD PUSH1 0x20 PUSH2 0x2A02 DUP4 CODECOPY DUP2 MLOAD SWAP2 MSTORE DUP3 PUSH1 0x7 DUP2 MLOAD DUP2 LT PUSH2 0xAFC JUMPI PUSH2 0xAFC PUSH2 0x2982 JUMP JUMPDEST PUSH1 0x20 MUL PUSH1 0x20 ADD ADD MLOAD DUP4 PUSH1 0x15 DUP2 MLOAD DUP2 LT PUSH2 0xB17 JUMPI PUSH2 0xB17 PUSH2 0x2982 JUMP JUMPDEST PUSH1 0x20 MUL PUSH1 0x20 ADD ADD MLOAD MULMOD DUP3 PUSH1 0x11 DUP2 MLOAD DUP2 LT PUSH2 0xB33 JUMPI PUSH2 0xB33 PUSH2 0x2982 JUMP JUMPDEST PUSH1 0x20 MUL PUSH1 0x20 ADD ADD DUP2 DUP2 MSTORE POP POP DUP6 DUP6 PUSH1 0x36 DUP2 DUP2 LT PUSH2 0xB52 JUMPI PUSH2 0xB52 PUSH2 0x2982 JUMP JUMPDEST SWAP1 POP PUSH1 0x20 MUL ADD CALLDATALOAD DUP7 DUP7 PUSH1 0x37 DUP2 DUP2 LT PUSH2 0xB6C JUMPI PUSH2 0xB6C PUSH2 0x2982 JUMP JUMPDEST SWAP1 POP PUSH1 0x20 MUL ADD CALLDATALOAD DUP4 PUSH1 0xE DUP2 MLOAD DUP2 LT PUSH2 0xB86 JUMPI PUSH2 0xB86 PUSH2 0x2982 JUMP JUMPDEST PUSH1 0x20 MUL PUSH1 0x20 ADD ADD DUP5 PUSH1 0xF DUP2 MLOAD DUP2 LT PUSH2 0xBA0 JUMPI PUSH2 0xBA0 PUSH2 0x2982 JUMP JUMPDEST PUSH1 0x20 SWAP1 DUP2 MUL SWAP2 SWAP1 SWAP2 ADD ADD SWAP2 SWAP1 SWAP2 MSTORE MSTORE PUSH0 DUP1 MLOAD PUSH1 0x20 PUSH2 0x2A02 DUP4 CODECOPY DUP2 MLOAD SWAP2 MSTORE DUP1 DUP4 PUSH1 0x23 DUP2 MLOAD DUP2 LT PUSH2 0xBD1 JUMPI PUSH2 0xBD1 PUSH2 0x2982 JUMP JUMPDEST PUSH1 0x20 MUL PUSH1 0x20 ADD ADD MLOAD DUP5 PUSH1 0x23 DUP2 MLOAD DUP2 LT PUSH2 0xBEC JUMPI PUSH2 0xBEC PUSH2 0x2982 JUMP JUMPDEST PUSH1 0x20 MUL PUSH1 0x20 ADD ADD MLOAD MULMOD DUP4 PUSH1 0x11 DUP2 MLOAD DUP2 LT PUSH2 0xC08 JUMPI PUSH2 0xC08 PUSH2 0x2982 JUMP JUMPDEST PUSH1 0x20 MUL PUSH1 0x20 ADD ADD MLOAD MULMOD DUP3 PUSH1 0x10 DUP2 MLOAD DUP2 LT PUSH2 0xC24 JUMPI PUSH2 0xC24 PUSH2 0x2982 JUMP JUMPDEST PUSH1 0x20 MUL PUSH1 0x20 ADD ADD DUP2 DUP2 MSTORE POP POP PUSH2 0xC3B DUP3 PUSH1 0xC PUSH2 0x2780 JUMP JUMPDEST DUP6 DUP6 PUSH1 0x34 DUP2 DUP2 LT PUSH2 0xC4E JUMPI PUSH2 0xC4E PUSH2 0x2982 JUMP JUMPDEST SWAP1 POP PUSH1 0x20 MUL ADD CALLDATALOAD DUP7 DUP7 PUSH1 0x35 DUP2 DUP2 LT PUSH2 0xC68 JUMPI PUSH2 0xC68 PUSH2 0x2982 JUMP JUMPDEST SWAP1 POP PUSH1 0x20 MUL ADD CALLDATALOAD DUP4 PUSH1 0xE DUP2 MLOAD DUP2 LT PUSH2 0xC82 JUMPI PUSH2 0xC82 PUSH2 0x2982 JUMP JUMPDEST PUSH1 0x20 MUL PUSH1 0x20 ADD ADD DUP5 PUSH1 0xF DUP2 MLOAD DUP2 LT PUSH2 0xC9C JUMPI PUSH2 0xC9C PUSH2 0x2982 JUMP JUMPDEST PUSH1 0x20 SWAP1 DUP2 MUL SWAP2 SWAP1 SWAP2 ADD ADD SWAP2 SWAP1 SWAP2 MSTORE MSTORE PUSH0 DUP1 MLOAD PUSH1 0x20 PUSH2 0x2A02 DUP4 CODECOPY DUP2 MLOAD SWAP2 MSTORE DUP3 PUSH1 0x23 DUP2 MLOAD DUP2 LT PUSH2 0xCCC JUMPI PUSH2 0xCCC PUSH2 0x2982 JUMP JUMPDEST PUSH1 0x20 MUL PUSH1 0x20 ADD ADD MLOAD DUP4 PUSH1 0x11 DUP2 MLOAD DUP2 LT PUSH2 0xCE7 JUMPI PUSH2 0xCE7 PUSH2 0x2982 JUMP JUMPDEST PUSH1 0x20 MUL PUSH1 0x20 ADD ADD MLOAD MULMOD DUP3 PUSH1 0x10 DUP2 MLOAD DUP2 LT PUSH2 0xD03 JUMPI PUSH2 0xD03 PUSH2 0x2982 JUMP JUMPDEST PUSH1 0x20 MUL PUSH1 0x20 ADD ADD DUP2 DUP2 MSTORE POP POP PUSH2 0xD1A DUP3 PUSH1 0xC PUSH2 0x2780 JUMP JUMPDEST DUP6 DUP6 PUSH1 0x32 DUP2 DUP2 LT PUSH2 0xD2D JUMPI PUSH2 0xD2D PUSH2 0x2982 JUMP JUMPDEST SWAP1 POP PUSH1 0x20 MUL ADD CALLDATALOAD DUP7 DUP7 PUSH1 0x33 DUP2 DUP2 LT PUSH2 0xD47 JUMPI PUSH2 0xD47 PUSH2 0x2982 JUMP JUMPDEST SWAP1 POP PUSH1 0x20 MUL ADD CALLDATALOAD DUP4 PUSH1 0xE DUP2 MLOAD DUP2 LT PUSH2 0xD61 JUMPI PUSH2 0xD61 PUSH2 0x2982 JUMP JUMPDEST PUSH1 0x20 MUL PUSH1 0x20 ADD ADD DUP5 PUSH1 0xF DUP2 MLOAD DUP2 LT PUSH2 0xD7B JUMPI PUSH2 0xD7B PUSH2 0x2982 JUMP JUMPDEST PUSH1 0x20 MUL PUSH1 0x20 ADD ADD DUP3 DUP2 MSTORE POP DUP3 DUP2 MSTORE POP POP POP DUP2 PUSH1 0x11 DUP2 MLOAD DUP2 LT PUSH2 0xD9F JUMPI PUSH2 0xD9F PUSH2 0x2982 JUMP JUMPDEST PUSH1 0x20 MUL PUSH1 0x20 ADD ADD MLOAD DUP3 PUSH1 0x10 DUP2 MLOAD DUP2 LT PUSH2 0xDBA JUMPI PUSH2 0xDBA PUSH2 0x2982 JUMP JUMPDEST PUSH1 0x20 MUL PUSH1 0x20 ADD ADD DUP2 DUP2 MSTORE POP POP PUSH2 0xDD1 DUP3 PUSH1 0xC PUSH2 0x2780 JUMP JUMPDEST DUP2 PUSH0 DUP2 MLOAD DUP2 LT PUSH2 0xDE3 JUMPI PUSH2 0xDE3 PUSH2 0x2982 JUMP JUMPDEST PUSH1 0x20 MUL PUSH1 0x20 ADD ADD MLOAD DUP3 PUSH1 0x1 DUP2 MLOAD DUP2 LT PUSH2 0xDFE JUMPI PUSH2 0xDFE PUSH2 0x2982 JUMP JUMPDEST PUSH1 0x20 MUL PUSH1 0x20 ADD ADD MLOAD DUP4 PUSH1 0xE DUP2 MLOAD DUP2 LT PUSH2 0xE19 JUMPI PUSH2 0xE19 PUSH2 0x2982 JUMP JUMPDEST PUSH1 0x20 MUL PUSH1 0x20 ADD ADD DUP5 PUSH1 0xF DUP2 MLOAD DUP2 LT PUSH2 0xE33 JUMPI PUSH2 0xE33 PUSH2 0x2982 JUMP JUMPDEST PUSH1 0x20 SWAP1 DUP2 MUL SWAP2 SWAP1 SWAP2 ADD ADD SWAP2 SWAP1 SWAP2 MSTORE MSTORE PUSH0 DUP1 MLOAD PUSH1 0x20 PUSH2 0x2A02 DUP4 CODECOPY DUP2 MLOAD SWAP2 MSTORE DUP1 DUP4 PUSH1 0x18 DUP2 MLOAD DUP2 LT PUSH2 0xE64 JUMPI PUSH2 0xE64 PUSH2 0x2982 JUMP JUMPDEST PUSH1 0x20 MUL PUSH1 0x20 ADD ADD MLOAD DUP5 PUSH1 0x1D DUP2 MLOAD DUP2 LT PUSH2 0xE7F JUMPI PUSH2 0xE7F PUSH2 0x2982 JUMP JUMPDEST PUSH1 0x20 MUL PUSH1 0x20 ADD ADD MLOAD MULMOD DUP4 PUSH1 0x15 DUP2 MLOAD DUP2 LT PUSH2 0xE9B JUMPI PUSH2 0xE9B PUSH2 0x2982 JUMP JUMPDEST PUSH1 0x20 MUL PUSH1 0x20 ADD ADD MLOAD MULMOD DUP3 PUSH1 0x10 DUP2 MLOAD DUP2 LT PUSH2 0xEB7 JUMPI PUSH2 0xEB7 PUSH2 0x2982 JUMP JUMPDEST PUSH1 0x20 MUL PUSH1 0x20 ADD ADD DUP2 DUP2 MSTORE POP POP PUSH2 0xECE DUP3 PUSH1 0xC PUSH2 0x2780 JUMP JUMPDEST PUSH0 DUP1 MLOAD PUSH1 0x20 PUSH2 0x2A02 DUP4 CODECOPY DUP2 MLOAD SWAP2 MSTORE DUP3 PUSH1 0x1C DUP2 MLOAD DUP2 LT PUSH2 0xEEF JUMPI PUSH2 0xEEF PUSH2 0x2982 JUMP JUMPDEST PUSH1 0x20 MUL PUSH1 0x20 ADD ADD MLOAD PUSH0 DUP1 MLOAD PUSH1 0x20 PUSH2 0x2A02 DUP4 CODECOPY DUP2 MLOAD SWAP2 MSTORE DUP1 PUSH2 0xF12 JUMPI PUSH2 0xF12 PUSH2 0x2996 JUMP JUMPDEST DUP5 PUSH1 0x8 DUP2 MLOAD DUP2 LT PUSH2 0xF25 JUMPI PUSH2 0xF25 PUSH2 0x2982 JUMP JUMPDEST PUSH1 0x20 MUL PUSH1 0x20 ADD ADD MLOAD DUP6 PUSH1 0x13 DUP2 MLOAD DUP2 LT PUSH2 0xF40 JUMPI PUSH2 0xF40 PUSH2 0x2982 JUMP JUMPDEST PUSH1 0x20 MUL PUSH1 0x20 ADD ADD MLOAD MULMOD MULMOD DUP3 PUSH1 0x11 DUP2 MLOAD DUP2 LT PUSH2 0xF5D JUMPI PUSH2 0xF5D PUSH2 0x2982 JUMP JUMPDEST PUSH1 0x20 MUL PUSH1 0x20 ADD ADD DUP2 DUP2 MSTORE POP POP DUP6 DUP6 PUSH1 0x14 DUP2 DUP2 LT PUSH2 0xF7C JUMPI PUSH2 0xF7C PUSH2 0x2982 JUMP JUMPDEST SWAP1 POP PUSH1 0x20 MUL ADD CALLDATALOAD DUP7 DUP7 PUSH1 0x15 DUP2 DUP2 LT PUSH2 0xF96 JUMPI PUSH2 0xF96 PUSH2 0x2982 JUMP JUMPDEST SWAP1 POP PUSH1 0x20 MUL ADD CALLDATALOAD DUP4 PUSH1 0xE DUP2 MLOAD DUP2 LT PUSH2 0xFB0 JUMPI PUSH2 0xFB0 PUSH2 0x2982 JUMP JUMPDEST PUSH1 0x20 MUL PUSH1 0x20 ADD ADD DUP5 PUSH1 0xF DUP2 MLOAD DUP2 LT PUSH2 0xFCA JUMPI PUSH2 0xFCA PUSH2 0x2982 JUMP JUMPDEST PUSH1 0x20 SWAP1 DUP2 MUL SWAP2 SWAP1 SWAP2 ADD ADD SWAP2 SWAP1 SWAP2 MSTORE MSTORE PUSH0 DUP1 MLOAD PUSH1 0x20 PUSH2 0x2A02 DUP4 CODECOPY DUP2 MLOAD SWAP2 MSTORE DUP3 PUSH1 0x17 DUP2 MLOAD DUP2 LT PUSH2 0xFFA JUMPI PUSH2 0xFFA PUSH2 0x2982 JUMP JUMPDEST PUSH1 0x20 MUL PUSH1 0x20 ADD ADD MLOAD DUP4 PUSH1 0x11 DUP2 MLOAD DUP2 LT PUSH2 0x1015 JUMPI PUSH2 0x1015 PUSH2 0x2982 JUMP JUMPDEST PUSH1 0x20 MUL PUSH1 0x20 ADD ADD MLOAD MULMOD DUP3 PUSH1 0x10 DUP2 MLOAD DUP2 LT PUSH2 0x1031 JUMPI PUSH2 0x1031 PUSH2 0x2982 JUMP JUMPDEST PUSH1 0x20 MUL PUSH1 0x20 ADD ADD DUP2 DUP2 MSTORE POP POP PUSH2 0x1048 DUP3 PUSH1 0xC PUSH2 0x2780 JUMP JUMPDEST DUP6 DUP6 PUSH1 0x16 DUP2 DUP2 LT PUSH2 0x105B JUMPI PUSH2 0x105B PUSH2 0x2982 JUMP JUMPDEST SWAP1 POP PUSH1 0x20 MUL ADD CALLDATALOAD DUP7 DUP7 PUSH1 0x17 DUP2 DUP2 LT PUSH2 0x1075 JUMPI PUSH2 0x1075 PUSH2 0x2982 JUMP JUMPDEST SWAP1 POP PUSH1 0x20 MUL ADD CALLDATALOAD DUP4 PUSH1 0xE DUP2 MLOAD DUP2 LT PUSH2 0x108F JUMPI PUSH2 0x108F PUSH2 0x2982 JUMP JUMPDEST PUSH1 0x20 MUL PUSH1 0x20 ADD ADD DUP5 PUSH1 0xF DUP2 MLOAD DUP2 LT PUSH2 0x10A9 JUMPI PUSH2 0x10A9 PUSH2 0x2982 JUMP JUMPDEST PUSH1 0x20 SWAP1 DUP2 MUL SWAP2 SWAP1 SWAP2 ADD ADD SWAP2 SWAP1 SWAP2 MSTORE MSTORE PUSH0 DUP1 MLOAD PUSH1 0x20 PUSH2 0x2A02 DUP4 CODECOPY DUP2 MLOAD SWAP2 MSTORE DUP3 PUSH1 0x1F DUP2 MLOAD DUP2 LT PUSH2 0x10D9 JUMPI PUSH2 0x10D9 PUSH2 0x2982 JUMP JUMPDEST PUSH1 0x20 MUL PUSH1 0x20 ADD ADD MLOAD DUP4 PUSH1 0x15 DUP2 MLOAD DUP2 LT PUSH2 0x10F4 JUMPI PUSH2 0x10F4 PUSH2 0x2982 JUMP JUMPDEST PUSH1 0x20 MUL PUSH1 0x20 ADD ADD MLOAD MULMOD DUP3 PUSH1 0x10 DUP2 MLOAD DUP2 LT PUSH2 0x1110 JUMPI PUSH2 0x1110 PUSH2 0x2982 JUMP JUMPDEST PUSH1 0x20 MUL PUSH1 0x20 ADD ADD DUP2 DUP2 MSTORE POP POP PUSH2 0x1127 DUP3 PUSH1 0xC PUSH2 0x2780 JUMP JUMPDEST DUP6 DUP6 PUSH1 0x2A DUP2 DUP2 LT PUSH2 0x113A JUMPI PUSH2 0x113A PUSH2 0x2982 JUMP JUMPDEST SWAP1 POP PUSH1 0x20 MUL ADD CALLDATALOAD DUP7 DUP7 PUSH1 0x2B DUP2 DUP2 LT PUSH2 0x1154 JUMPI PUSH2 0x1154 PUSH2 0x2982 JUMP JUMPDEST SWAP1 POP PUSH1 0x20 MUL ADD CALLDATALOAD DUP4 PUSH1 0xE DUP2 MLOAD DUP2 LT PUSH2 0x116E JUMPI PUSH2 0x116E PUSH2 0x2982 JUMP JUMPDEST PUSH1 0x20 MUL PUSH1 0x20 ADD ADD DUP5 PUSH1 0xF DUP2 MLOAD DUP2 LT PUSH2 0x1188 JUMPI PUSH2 0x1188 PUSH2 0x2982 JUMP JUMPDEST PUSH1 0x20 SWAP1 DUP2 MUL SWAP2 SWAP1 SWAP2 ADD ADD SWAP2 SWAP1 SWAP2 MSTORE MSTORE PUSH0 DUP1 MLOAD PUSH1 0x20 PUSH2 0x2A02 DUP4 CODECOPY DUP2 MLOAD SWAP2 MSTORE DUP3 PUSH1 0x17 DUP2 MLOAD DUP2 LT PUSH2 0x11B8 JUMPI PUSH2 0x11B8 PUSH2 0x2982 JUMP JUMPDEST PUSH1 0x20 MUL PUSH1 0x20 ADD ADD MLOAD DUP4 PUSH1 0x19 DUP2 MLOAD DUP2 LT PUSH2 0x11D3 JUMPI PUSH2 0x11D3 PUSH2 0x2982 JUMP JUMPDEST PUSH1 0x20 MUL PUSH1 0x20 ADD ADD MLOAD MULMOD DUP3 PUSH1 0x10 DUP2 MLOAD DUP2 LT PUSH2 0x11EF JUMPI PUSH2 0x11EF PUSH2 0x2982 JUMP JUMPDEST PUSH1 0x20 MUL PUSH1 0x20 ADD ADD DUP2 DUP2 MSTORE POP POP PUSH2 0x1206 DUP3 PUSH1 0xC PUSH2 0x2780 JUMP JUMPDEST DUP6 DUP6 PUSH1 0x18 DUP2 DUP2 LT PUSH2 0x1219 JUMPI PUSH2 0x1219 PUSH2 0x2982 JUMP JUMPDEST SWAP1 POP PUSH1 0x20 MUL ADD CALLDATALOAD DUP7 DUP7 PUSH1 0x19 DUP2 DUP2 LT PUSH2 0x1233 JUMPI PUSH2 0x1233 PUSH2 0x2982 JUMP JUMPDEST SWAP1 POP PUSH1 0x20 MUL ADD CALLDATALOAD DUP4 PUSH1 0xE DUP2 MLOAD DUP2 LT PUSH2 0x124D JUMPI PUSH2 0x124D PUSH2 0x2982 JUMP JUMPDEST PUSH1 0x20 MUL PUSH1 0x20 ADD ADD DUP5 PUSH1 0xF DUP2 MLOAD DUP2 LT PUSH2 0x1267 JUMPI PUSH2 0x1267 PUSH2 0x2982 JUMP JUMPDEST PUSH1 0x20 SWAP1 DUP2 MUL SWAP2 SWAP1 SWAP2 ADD ADD SWAP2 SWAP1 SWAP2 MSTORE MSTORE PUSH0 DUP1 MLOAD PUSH1 0x20 PUSH2 0x2A02 DUP4 CODECOPY DUP2 MLOAD SWAP2 MSTORE DUP3 PUSH1 0x7 DUP2 MLOAD DUP2 LT PUSH2 0x1297 JUMPI PUSH2 0x1297 PUSH2 0x2982 JUMP JUMPDEST PUSH1 0x20 MUL PUSH1 0x20 ADD ADD MLOAD DUP4 PUSH1 0x11 DUP2 MLOAD DUP2 LT PUSH2 0x12B2 JUMPI PUSH2 0x12B2 PUSH2 0x2982 JUMP JUMPDEST PUSH1 0x20 MUL PUSH1 0x20 ADD ADD MLOAD MULMOD DUP3 PUSH1 0x10 DUP2 MLOAD DUP2 LT PUSH2 0x12CE JUMPI PUSH2 0x12CE PUSH2 0x2982 JUMP JUMPDEST PUSH1 0x20 MUL PUSH1 0x20 ADD ADD DUP2 DUP2 MSTORE POP POP PUSH2 0x12E5 DUP3 PUSH1 0xC PUSH2 0x2780 JUMP JUMPDEST PUSH0 DUP1 MLOAD PUSH1 0x20 PUSH2 0x2A02 DUP4 CODECOPY DUP2 MLOAD SWAP2 MSTORE DUP3 PUSH1 0x17 DUP2 MLOAD DUP2 LT PUSH2 0x1306 JUMPI PUSH2 0x1306 PUSH2 0x2982 JUMP JUMPDEST PUSH1 0x20 MUL PUSH1 0x20 ADD ADD MLOAD DUP4 PUSH1 0x1E DUP2 MLOAD DUP2 LT PUSH2 0x1321 JUMPI PUSH2 0x1321 PUSH2 0x2982 JUMP JUMPDEST PUSH1 0x20 MUL PUSH1 0x20 ADD ADD MLOAD MULMOD DUP3 PUSH1 0x14 DUP2 MLOAD DUP2 LT PUSH2 0x133D JUMPI PUSH2 0x133D PUSH2 0x2982 JUMP JUMPDEST PUSH1 0x20 MUL PUSH1 0x20 ADD ADD DUP2 DUP2 MSTORE POP POP DUP6 DUP6 PUSH1 0x1A DUP2 DUP2 LT PUSH2 0x135C JUMPI PUSH2 0x135C PUSH2 0x2982 JUMP JUMPDEST SWAP1 POP PUSH1 0x20 MUL ADD CALLDATALOAD DUP7 DUP7 PUSH1 0x1B DUP2 DUP2 LT PUSH2 0x1376 JUMPI PUSH2 0x1376 PUSH2 0x2982 JUMP JUMPDEST SWAP1 POP PUSH1 0x20 MUL ADD CALLDATALOAD DUP4 PUSH1 0xE DUP2 MLOAD DUP2 LT PUSH2 0x1390 JUMPI PUSH2 0x1390 PUSH2 0x2982 JUMP JUMPDEST PUSH1 0x20 MUL PUSH1 0x20 ADD ADD DUP5 PUSH1 0xF DUP2 MLOAD DUP2 LT PUSH2 0x13AA JUMPI PUSH2 0x13AA PUSH2 0x2982 JUMP JUMPDEST PUSH1 0x20 SWAP1 DUP2 MUL SWAP2 SWAP1 SWAP2 ADD ADD SWAP2 SWAP1 SWAP2 MSTORE MSTORE PUSH0 DUP1 MLOAD PUSH1 0x20 PUSH2 0x2A02 DUP4 CODECOPY DUP2 MLOAD SWAP2 MSTORE DUP1 DUP4 PUSH1 0x7 DUP2 MLOAD DUP2 LT PUSH2 0x13DB JUMPI PUSH2 0x13DB PUSH2 0x2982 JUMP JUMPDEST PUSH1 0x20 MUL PUSH1 0x20 ADD ADD MLOAD DUP5 PUSH1 0x14 DUP2 MLOAD DUP2 LT PUSH2 0x13F6 JUMPI PUSH2 0x13F6 PUSH2 0x2982 JUMP JUMPDEST PUSH1 0x20 MUL PUSH1 0x20 ADD ADD MLOAD MULMOD DUP4 PUSH1 0x15 DUP2 MLOAD DUP2 LT PUSH2 0x1412 JUMPI PUSH2 0x1412 PUSH2 0x2982 JUMP JUMPDEST PUSH1 0x20 MUL PUSH1 0x20 ADD ADD MLOAD MULMOD DUP3 PUSH1 0x10 DUP2 MLOAD DUP2 LT PUSH2 0x142E JUMPI PUSH2 0x142E PUSH2 0x2982 JUMP JUMPDEST PUSH1 0x20 MUL PUSH1 0x20 ADD ADD DUP2 DUP2 MSTORE POP POP PUSH2 0x1445 DUP3 PUSH1 0xC PUSH2 0x2780 JUMP JUMPDEST DUP6 DUP6 PUSH1 0x2C DUP2 DUP2 LT PUSH2 0x1458 JUMPI PUSH2 0x1458 PUSH2 0x2982 JUMP JUMPDEST SWAP1 POP PUSH1 0x20 MUL ADD CALLDATALOAD DUP7 DUP7 PUSH1 0x2D DUP2 DUP2 LT PUSH2 0x1472 JUMPI PUSH2 0x1472 PUSH2 0x2982 JUMP JUMPDEST SWAP1 POP PUSH1 0x20 MUL ADD CALLDATALOAD DUP4 PUSH1 0xE DUP2 MLOAD DUP2 LT PUSH2 0x148C JUMPI PUSH2 0x148C PUSH2 0x2982 JUMP JUMPDEST PUSH1 0x20 MUL PUSH1 0x20 ADD ADD DUP5 PUSH1 0xF DUP2 MLOAD DUP2 LT PUSH2 0x14A6 JUMPI PUSH2 0x14A6 PUSH2 0x2982 JUMP JUMPDEST PUSH1 0x20 SWAP1 DUP2 MUL SWAP2 SWAP1 SWAP2 ADD ADD SWAP2 SWAP1 SWAP2 MSTORE MSTORE PUSH0 DUP1 MLOAD PUSH1 0x20 PUSH2 0x2A02 DUP4 CODECOPY DUP2 MLOAD SWAP2 MSTORE DUP3 PUSH1 0x7 DUP2 MLOAD DUP2 LT PUSH2 0x14D6 JUMPI PUSH2 0x14D6 PUSH2 0x2982 JUMP JUMPDEST PUSH1 0x20 MUL PUSH1 0x20 ADD ADD MLOAD DUP4 PUSH1 0x19 DUP2 MLOAD DUP2 LT PUSH2 0x14F1 JUMPI PUSH2 0x14F1 PUSH2 0x2982 JUMP JUMPDEST PUSH1 0x20 MUL PUSH1 0x20 ADD ADD MLOAD MULMOD DUP3 PUSH1 0x10 DUP2 MLOAD DUP2 LT PUSH2 0x150D JUMPI PUSH2 0x150D PUSH2 0x2982 JUMP JUMPDEST PUSH1 0x20 MUL PUSH1 0x20 ADD ADD DUP2 DUP2 MSTORE POP POP PUSH2 0x1524 DUP3 PUSH1 0xC PUSH2 0x2780 JUMP JUMPDEST DUP6 DUP6 PUSH1 0x1C DUP2 DUP2 LT PUSH2 0x1537 JUMPI PUSH2 0x1537 PUSH2 0x2982 JUMP JUMPDEST SWAP1 POP PUSH1 0x20 MUL ADD CALLDATALOAD DUP7 DUP7 PUSH1 0x1D DUP2 DUP2 LT PUSH2 0x1551 JUMPI PUSH2 0x1551 PUSH2 0x2982 JUMP JUMPDEST SWAP1 POP PUSH1 0x20 MUL ADD CALLDATALOAD DUP4 PUSH1 0xE DUP2 MLOAD DUP2 LT PUSH2 0x156B JUMPI PUSH2 0x156B PUSH2 0x2982 JUMP JUMPDEST PUSH1 0x20 MUL PUSH1 0x20 ADD ADD DUP5 PUSH1 0xF DUP2 MLOAD DUP2 LT PUSH2 0x1585 JUMPI PUSH2 0x1585 PUSH2 0x2982 JUMP JUMPDEST PUSH1 0x20 MUL PUSH1 0x20 ADD ADD DUP3 DUP2 MSTORE POP DUP3 DUP2 MSTORE POP POP POP DUP2 PUSH1 0x11 DUP2 MLOAD DUP2 LT PUSH2 0x15A9 JUMPI PUSH2 0x15A9 PUSH2 0x2982 JUMP JUMPDEST PUSH1 0x20 MUL PUSH1 0x20 ADD ADD MLOAD DUP3 PUSH1 0x10 DUP2 MLOAD DUP2 LT PUSH2 0x15C4 JUMPI PUSH2 0x15C4 PUSH2 0x2982 JUMP JUMPDEST PUSH1 0x20 MUL PUSH1 0x20 ADD ADD DUP2 DUP2 MSTORE POP POP PUSH2 0x15DB DUP3 PUSH1 0xC PUSH2 0x2780 JUMP JUMPDEST DUP6 DUP6 PUSH1 0x1E DUP2 DUP2 LT PUSH2 0x15EE JUMPI PUSH2 0x15EE PUSH2 0x2982 JUMP JUMPDEST SWAP1 POP PUSH1 0x20 MUL ADD CALLDATALOAD DUP7 DUP7 PUSH1 0x1F DUP2 DUP2 LT PUSH2 0x1608 JUMPI PUSH2 0x1608 PUSH2 0x2982 JUMP JUMPDEST SWAP1 POP PUSH1 0x20 MUL ADD CALLDATALOAD DUP4 PUSH1 0xE DUP2 MLOAD DUP2 LT PUSH2 0x1622 JUMPI PUSH2 0x1622 PUSH2 0x2982 JUMP JUMPDEST PUSH1 0x20 MUL PUSH1 0x20 ADD ADD DUP5 PUSH1 0xF DUP2 MLOAD DUP2 LT PUSH2 0x163C JUMPI PUSH2 0x163C PUSH2 0x2982 JUMP JUMPDEST PUSH1 0x20 SWAP1 DUP2 MUL SWAP2 SWAP1 SWAP2 ADD ADD SWAP2 SWAP1 SWAP2 MSTORE MSTORE PUSH0 DUP1 MLOAD PUSH1 0x20 PUSH2 0x2A02 DUP4 CODECOPY DUP2 MLOAD SWAP2 MSTORE DUP3 PUSH1 0x14 DUP2 MLOAD DUP2 LT PUSH2 0x166C JUMPI PUSH2 0x166C PUSH2 0x2982 JUMP JUMPDEST PUSH1 0x20 MUL PUSH1 0x20 ADD ADD MLOAD DUP4 PUSH1 0x15 DUP2 MLOAD DUP2 LT PUSH2 0x1687 JUMPI PUSH2 0x1687 PUSH2 0x2982 JUMP JUMPDEST PUSH1 0x20 MUL PUSH1 0x20 ADD ADD MLOAD MULMOD DUP3 PUSH1 0x10 DUP2 MLOAD DUP2 LT PUSH2 0x16A3 JUMPI PUSH2 0x16A3 PUSH2 0x2982 JUMP JUMPDEST PUSH1 0x20 MUL PUSH1 0x20 ADD ADD DUP2 DUP2 MSTORE POP POP PUSH2 0x16BA DUP3 PUSH1 0xC PUSH2 0x2780 JUMP JUMPDEST DUP6 DUP6 PUSH1 0x2E DUP2 DUP2 LT PUSH2 0x16CD JUMPI PUSH2 0x16CD PUSH2 0x2982 JUMP JUMPDEST SWAP1 POP PUSH1 0x20 MUL ADD CALLDATALOAD DUP7 DUP7 PUSH1 0x2F DUP2 DUP2 LT PUSH2 0x16E7 JUMPI PUSH2 0x16E7 PUSH2 0x2982 JUMP JUMPDEST SWAP1 POP PUSH1 0x20 MUL ADD CALLDATALOAD DUP4 PUSH1 0xE DUP2 MLOAD DUP2 LT PUSH2 0x1701 JUMPI PUSH2 0x1701 PUSH2 0x2982 JUMP JUMPDEST PUSH1 0x20 MUL PUSH1 0x20 ADD ADD DUP5 PUSH1 0xF DUP2 MLOAD DUP2 LT PUSH2 0x171B JUMPI PUSH2 0x171B PUSH2 0x2982 JUMP JUMPDEST PUSH1 0x20 MUL PUSH1 0x20 ADD ADD DUP3 DUP2 MSTORE POP DUP3 DUP2 MSTORE POP POP POP DUP2 PUSH1 0x19 DUP2 MLOAD DUP2 LT PUSH2 0x173F JUMPI PUSH2 0x173F PUSH2 0x2982 JUMP JUMPDEST PUSH1 0x20 MUL PUSH1 0x20 ADD ADD MLOAD DUP3 PUSH1 0x10 DUP2 MLOAD DUP2 LT PUSH2 0x175A JUMPI PUSH2 0x175A PUSH2 0x2982 JUMP JUMPDEST PUSH1 0x20 MUL PUSH1 0x20 ADD ADD DUP2 DUP2 MSTORE POP POP PUSH2 0x1771 DUP3 PUSH1 0xC PUSH2 0x2780 JUMP JUMPDEST PUSH32 0x122C4B2C663B815420306938F8BE0DDF18B39B75B3C3C56BF872C9E588776778 PUSH32 0x2601CEC54204146DFC83CB8E79A02FFB69F0AEDCA727A5B57FDE7BD9FA7F1823 DUP4 PUSH1 0xE DUP2 MLOAD DUP2 LT PUSH2 0x17C6 JUMPI PUSH2 0x17C6 PUSH2 0x2982 JUMP JUMPDEST PUSH1 0x20 MUL PUSH1 0x20 ADD ADD DUP5 PUSH1 0xF DUP2 MLOAD DUP2 LT PUSH2 0x17E0 JUMPI PUSH2 0x17E0 PUSH2 0x2982 JUMP JUMPDEST PUSH1 0x20 SWAP1 DUP2 MUL SWAP2 SWAP1 SWAP2 ADD ADD SWAP2 SWAP1 SWAP2 MSTORE MSTORE PUSH0 DUP1 MLOAD PUSH1 0x20 PUSH2 0x2A02 DUP4 CODECOPY DUP2 MLOAD SWAP2 MSTORE DUP3 PUSH1 0x21 DUP2 MLOAD DUP2 LT PUSH2 0x1810 JUMPI PUSH2 0x1810 PUSH2 0x2982 JUMP JUMPDEST PUSH1 0x20 MUL PUSH1 0x20 ADD ADD MLOAD DUP4 PUSH1 0x15 DUP2 MLOAD DUP2 LT PUSH2 0x182B JUMPI PUSH2 0x182B PUSH2 0x2982 JUMP JUMPDEST PUSH1 0x20 MUL PUSH1 0x20 ADD ADD MLOAD MULMOD DUP3 PUSH1 0x10 DUP2 MLOAD DUP2 LT PUSH2 0x1847 JUMPI PUSH2 0x1847 PUSH2 0x2982 JUMP JUMPDEST PUSH1 0x20 MUL PUSH1 0x20 ADD ADD DUP2 DUP2 MSTORE POP POP PUSH2 0x185E DUP3 PUSH1 0xC PUSH2 0x2780 JUMP JUMPDEST PUSH32 0x156D3D1A9708A90B0555E0541F0B5B166B588C8992D27D2554229AFE81AB4A0A PUSH32 0x235A8D41C50FFC0C07768C72E4668E30487413468ACA2E0B3C4E1C9A45FB7DB9 DUP4 PUSH1 0xE DUP2 MLOAD DUP2 LT PUSH2 0x18B3 JUMPI PUSH2 0x18B3 PUSH2 0x2982 JUMP JUMPDEST PUSH1 0x20 MUL PUSH1 0x20 ADD ADD DUP5 PUSH1 0xF DUP2 MLOAD DUP2 LT PUSH2 0x18CD JUMPI PUSH2 0x18CD PUSH2 0x2982 JUMP JUMPDEST PUSH1 0x20 SWAP1 DUP2 MUL SWAP2 SWAP1 SWAP2 ADD ADD SWAP2 SWAP1 SWAP2 MSTORE MSTORE PUSH0 DUP1 MLOAD PUSH1 0x20 PUSH2 0x2A02 DUP4 CODECOPY DUP2 MLOAD SWAP2 MSTORE DUP1 DUP4 PUSH1 0x7 DUP2 MLOAD DUP2 LT PUSH2 0x18FE JUMPI PUSH2 0x18FE PUSH2 0x2982 JUMP JUMPDEST PUSH1 0x20 MUL PUSH1 0x20 ADD ADD MLOAD DUP5 PUSH1 0x1A DUP2 MLOAD DUP2 LT PUSH2 0x1919 JUMPI PUSH2 0x1919 PUSH2 0x2982 JUMP JUMPDEST PUSH1 0x20 MUL PUSH1 0x20 ADD ADD MLOAD MULMOD DUP4 PUSH1 0x15 DUP2 MLOAD DUP2 LT PUSH2 0x1935 JUMPI PUSH2 0x1935 PUSH2 0x2982 JUMP JUMPDEST PUSH1 0x20 MUL PUSH1 0x20 ADD ADD MLOAD MULMOD DUP3 PUSH1 0x10 DUP2 MLOAD DUP2 LT PUSH2 0x1951 JUMPI PUSH2 0x1951 PUSH2 0x2982 JUMP JUMPDEST PUSH1 0x20 MUL PUSH1 0x20 ADD ADD DUP2 DUP2 MSTORE POP POP PUSH2 0x1968 DUP3 PUSH1 0xC PUSH2 0x2780 JUMP JUMPDEST PUSH32 0x278BBBEFE5FF51FACAED3FA35628AF1E32FC79AE2FBBFA59CA82B15F3B5B7E4 PUSH32 0xE40799A014835571072C5DB3143AC9B9AF83A29CAA225C41E74B9D8F25DB75E DUP4 PUSH1 0xE DUP2 MLOAD DUP2 LT PUSH2 0x19BD JUMPI PUSH2 0x19BD PUSH2 0x2982 JUMP JUMPDEST PUSH1 0x20 MUL PUSH1 0x20 ADD ADD DUP5 PUSH1 0xF DUP2 MLOAD DUP2 LT PUSH2 0x19D7 JUMPI PUSH2 0x19D7 PUSH2 0x2982 JUMP JUMPDEST PUSH1 0x20 SWAP1 DUP2 MUL SWAP2 SWAP1 SWAP2 ADD ADD SWAP2 SWAP1 SWAP2 MSTORE MSTORE PUSH0 DUP1 MLOAD PUSH1 0x20 PUSH2 0x2A02 DUP4 CODECOPY DUP2 MLOAD SWAP2 MSTORE DUP3 PUSH1 0x1A DUP2 MLOAD DUP2 LT PUSH2 0x1A07 JUMPI PUSH2 0x1A07 PUSH2 0x2982 JUMP JUMPDEST PUSH1 0x20 MUL PUSH1 0x20 ADD ADD MLOAD DUP4 PUSH1 0x15 DUP2 MLOAD DUP2 LT PUSH2 0x1A22 JUMPI PUSH2 0x1A22 PUSH2 0x2982 JUMP JUMPDEST PUSH1 0x20 MUL PUSH1 0x20 ADD ADD MLOAD MULMOD DUP3 PUSH1 0x10 DUP2 MLOAD DUP2 LT PUSH2 0x1A3E JUMPI PUSH2 0x1A3E PUSH2 0x2982 JUMP JUMPDEST PUSH1 0x20 MUL PUSH1 0x20 ADD ADD DUP2 DUP2 MSTORE POP POP PUSH2 0x1A55 DUP3 PUSH1 0xC PUSH2 0x2780 JUMP JUMPDEST PUSH0 DUP1 MLOAD PUSH1 0x20 PUSH2 0x2A02 DUP4 CODECOPY DUP2 MLOAD SWAP2 MSTORE DUP3 PUSH1 0x17 DUP2 MLOAD DUP2 LT PUSH2 0x1A76 JUMPI PUSH2 0x1A76 PUSH2 0x2982 JUMP JUMPDEST PUSH1 0x20 MUL PUSH1 0x20 ADD ADD MLOAD DUP4 PUSH1 0x18 DUP2 MLOAD DUP2 LT PUSH2 0x1A91 JUMPI PUSH2 0x1A91 PUSH2 0x2982 JUMP JUMPDEST PUSH1 0x20 MUL PUSH1 0x20 ADD ADD MLOAD MULMOD DUP3 PUSH1 0x11 DUP2 MLOAD DUP2 LT PUSH2 0x1AAD JUMPI PUSH2 0x1AAD PUSH2 0x2982 JUMP JUMPDEST PUSH1 0x20 MUL PUSH1 0x20 ADD ADD DUP2 DUP2 MSTORE POP POP PUSH32 0x1EA4805CFD4E0D73993D1C8E976019E03C36BB59EE4EB5040057877C30A80E89 PUSH32 0x2F3ACBAB68E399FAC4606AED2AE6615B10502DC39CA7A4E8A736F9BA6444C4DD DUP4 PUSH1 0xE DUP2 MLOAD DUP2 LT PUSH2 0x1B0E JUMPI PUSH2 0x1B0E PUSH2 0x2982 JUMP JUMPDEST PUSH1 0x20 MUL PUSH1 0x20 ADD ADD DUP5 PUSH1 0xF DUP2 MLOAD DUP2 LT PUSH2 0x1B28 JUMPI PUSH2 0x1B28 PUSH2 0x2982 JUMP JUMPDEST PUSH1 0x20 SWAP1 DUP2 MUL SWAP2 SWAP1 SWAP2 ADD ADD SWAP2 SWAP1 SWAP2 MSTORE MSTORE PUSH0 DUP1 MLOAD PUSH1 0x20 PUSH2 0x2A02 DUP4 CODECOPY DUP2 MLOAD SWAP2 MSTORE DUP1 DUP4 PUSH1 0x7 DUP2 MLOAD DUP2 LT PUSH2 0x1B59 JUMPI PUSH2 0x1B59 PUSH2 0x2982 JUMP JUMPDEST PUSH1 0x20 MUL PUSH1 0x20 ADD ADD MLOAD DUP5 PUSH1 0x11 DUP2 MLOAD DUP2 LT PUSH2 0x1B74 JUMPI PUSH2 0x1B74 PUSH2 0x2982 JUMP JUMPDEST PUSH1 0x20 MUL PUSH1 0x20 ADD ADD MLOAD MULMOD DUP4 PUSH1 0x15 DUP2 MLOAD DUP2 LT PUSH2 0x1B90 JUMPI PUSH2 0x1B90 PUSH2 0x2982 JUMP JUMPDEST PUSH1 0x20 MUL PUSH1 0x20 ADD ADD MLOAD MULMOD DUP3 PUSH1 0x10 DUP2 MLOAD DUP2 LT PUSH2 0x1BAC JUMPI PUSH2 0x1BAC PUSH2 0x2982 JUMP JUMPDEST PUSH1 0x20 MUL PUSH1 0x20 ADD ADD DUP2 DUP2 MSTORE POP POP PUSH2 0x1BC3 DUP3 PUSH1 0xC PUSH2 0x2780 JUMP JUMPDEST PUSH32 0x21EAC21319033BF3744C814D37BA065334D18BBE9DD73A074BC5529539B329F9 PUSH32 0x264592032337E2B0639E36F2DBDAFDF5CA2D09AA78C7DF964F184A658942656A DUP4 PUSH1 0xE DUP2 MLOAD DUP2 LT PUSH2 0x1C18 JUMPI PUSH2 0x1C18 PUSH2 0x2982 JUMP JUMPDEST PUSH1 0x20 MUL PUSH1 0x20 ADD ADD DUP5 PUSH1 0xF DUP2 MLOAD DUP2 LT PUSH2 0x1C32 JUMPI PUSH2 0x1C32 PUSH2 0x2982 JUMP JUMPDEST PUSH1 0x20 SWAP1 DUP2 MUL SWAP2 SWAP1 SWAP2 ADD ADD SWAP2 SWAP1 SWAP2 MSTORE MSTORE PUSH0 DUP1 MLOAD PUSH1 0x20 PUSH2 0x2A02 DUP4 CODECOPY DUP2 MLOAD SWAP2 MSTORE DUP3 PUSH1 0x11 DUP2 MLOAD DUP2 LT PUSH2 0x1C62 JUMPI PUSH2 0x1C62 PUSH2 0x2982 JUMP JUMPDEST PUSH1 0x20 MUL PUSH1 0x20 ADD ADD MLOAD DUP4 PUSH1 0x15 DUP2 MLOAD DUP2 LT PUSH2 0x1C7D JUMPI PUSH2 0x1C7D PUSH2 0x2982 JUMP JUMPDEST PUSH1 0x20 MUL PUSH1 0x20 ADD ADD MLOAD MULMOD DUP3 PUSH1 0x10 DUP2 MLOAD DUP2 LT PUSH2 0x1C99 JUMPI PUSH2 0x1C99 PUSH2 0x2982 JUMP JUMPDEST PUSH1 0x20 MUL PUSH1 0x20 ADD ADD DUP2 DUP2 MSTORE POP POP PUSH2 0x1CB0 DUP3 PUSH1 0xC PUSH2 0x2780 JUMP JUMPDEST PUSH32 0x2D322F070D02CC3BC0627C447CB71FA3F96420DC10FD06E8775B571B002CF421 PUSH32 0x12C152158FA2061D331678AC9FB61522EE7D5FFD6686B1907C242792792D256D DUP4 PUSH1 0xE DUP2 MLOAD DUP2 LT PUSH2 0x1D05 JUMPI PUSH2 0x1D05 PUSH2 0x2982 JUMP JUMPDEST PUSH1 0x20 MUL PUSH1 0x20 ADD ADD DUP5 PUSH1 0xF DUP2 MLOAD DUP2 LT PUSH2 0x1D1F JUMPI PUSH2 0x1D1F PUSH2 0x2982 JUMP JUMPDEST PUSH1 0x20 SWAP1 DUP2 MUL SWAP2 SWAP1 SWAP2 ADD ADD SWAP2 SWAP1 SWAP2 MSTORE MSTORE PUSH0 DUP1 MLOAD PUSH1 0x20 PUSH2 0x2A02 DUP4 CODECOPY DUP2 MLOAD SWAP2 MSTORE DUP1 DUP4 PUSH1 0x7 DUP2 MLOAD DUP2 LT PUSH2 0x1D50 JUMPI PUSH2 0x1D50 PUSH2 0x2982 JUMP JUMPDEST PUSH1 0x20 MUL PUSH1 0x20 ADD ADD MLOAD DUP5 PUSH1 0x18 DUP2 MLOAD DUP2 LT PUSH2 0x1D6B JUMPI PUSH2 0x1D6B PUSH2 0x2982 JUMP JUMPDEST PUSH1 0x20 MUL PUSH1 0x20 ADD ADD MLOAD MULMOD DUP4 PUSH1 0x15 DUP2 MLOAD DUP2 LT PUSH2 0x1D87 JUMPI PUSH2 0x1D87 PUSH2 0x2982 JUMP JUMPDEST PUSH1 0x20 MUL PUSH1 0x20 ADD ADD MLOAD MULMOD DUP3 PUSH1 0x10 DUP2 MLOAD DUP2 LT PUSH2 0x1DA3 JUMPI PUSH2 0x1DA3 PUSH2 0x2982 JUMP JUMPDEST PUSH1 0x20 MUL PUSH1 0x20 ADD ADD DUP2 DUP2 MSTORE POP POP PUSH2 0x1DBA DUP3 PUSH1 0xC PUSH2 0x2780 JUMP JUMPDEST PUSH32 0x17E239FDF40B337AD130934FA551040F37879059E6F2CA6328CA4BA5CED5CFFC PUSH32 0x1F168B3232146EA9801B7AE828440461EDE6B420F008FA1F8CA7FB8A2551294B DUP4 PUSH1 0xE DUP2 MLOAD DUP2 LT PUSH2 0x1E0F JUMPI PUSH2 0x1E0F PUSH2 0x2982 JUMP JUMPDEST PUSH1 0x20 MUL PUSH1 0x20 ADD ADD DUP5 PUSH1 0xF DUP2 MLOAD DUP2 LT PUSH2 0x1E29 JUMPI PUSH2 0x1E29 PUSH2 0x2982 JUMP JUMPDEST PUSH1 0x20 SWAP1 DUP2 MUL SWAP2 SWAP1 SWAP2 ADD ADD SWAP2 SWAP1 SWAP2 MSTORE MSTORE PUSH0 DUP1 MLOAD PUSH1 0x20 PUSH2 0x2A02 DUP4 CODECOPY DUP2 MLOAD SWAP2 MSTORE DUP3 PUSH1 0x18 DUP2 MLOAD DUP2 LT PUSH2 0x1E59 JUMPI PUSH2 0x1E59 PUSH2 0x2982 JUMP JUMPDEST PUSH1 0x20 MUL PUSH1 0x20 ADD ADD MLOAD DUP4 PUSH1 0x15 DUP2 MLOAD DUP2 LT PUSH2 0x1E74 JUMPI PUSH2 0x1E74 PUSH2 0x2982 JUMP JUMPDEST PUSH1 0x20 MUL PUSH1 0x20 ADD ADD MLOAD MULMOD DUP3 PUSH1 0x10 DUP2 MLOAD DUP2 LT PUSH2 0x1E90 JUMPI PUSH2 0x1E90 PUSH2 0x2982 JUMP JUMPDEST PUSH1 0x20 MUL PUSH1 0x20 ADD ADD DUP2 DUP2 MSTORE POP POP PUSH2 0x1EA7 DUP3 PUSH1 0xC PUSH2 0x2780 JUMP JUMPDEST PUSH0 DUP1 MLOAD PUSH1 0x20 PUSH2 0x2A02 DUP4 CODECOPY DUP2 MLOAD SWAP2 MSTORE DUP3 PUSH1 0x7 DUP2 MLOAD DUP2 LT PUSH2 0x1EC8 JUMPI PUSH2 0x1EC8 PUSH2 0x2982 JUMP JUMPDEST PUSH1 0x20 MUL PUSH1 0x20 ADD ADD MLOAD DUP4 PUSH1 0x17 DUP2 MLOAD DUP2 LT PUSH2 0x1EE3 JUMPI PUSH2 0x1EE3 PUSH2 0x2982 JUMP JUMPDEST PUSH1 0x20 MUL PUSH1 0x20 ADD ADD MLOAD MULMOD DUP3 PUSH1 0x11 DUP2 MLOAD DUP2 LT PUSH2 0x1EFF JUMPI PUSH2 0x1EFF PUSH2 0x2982 JUMP JUMPDEST PUSH1 0x20 MUL PUSH1 0x20 ADD ADD DUP2 DUP2 MSTORE POP POP PUSH32 0x13F5958F2EF2A5F8CFE306165B9FF30C01218AD561E25B7CDCA822454F90E5E1 PUSH32 0x13AB619FE2A1ACF2A6412D106C18E625D16DF35DA7AB9D214CEE86D60C00E934 DUP4 PUSH1 0xE DUP2 MLOAD DUP2 LT PUSH2 0x1F60 JUMPI PUSH2 0x1F60 PUSH2 0x2982 JUMP JUMPDEST PUSH1 0x20 MUL PUSH1 0x20 ADD ADD DUP5 PUSH1 0xF DUP2 MLOAD DUP2 LT PUSH2 0x1F7A JUMPI PUSH2 0x1F7A PUSH2 0x2982 JUMP JUMPDEST PUSH1 0x20 SWAP1 DUP2 MUL SWAP2 SWAP1 SWAP2 ADD ADD SWAP2 SWAP1 SWAP2 MSTORE MSTORE PUSH0 DUP1 MLOAD PUSH1 0x20 PUSH2 0x2A02 DUP4 CODECOPY DUP2 MLOAD SWAP2 MSTORE DUP3 PUSH1 0x11 DUP2 MLOAD DUP2 LT PUSH2 0x1FAA JUMPI PUSH2 0x1FAA PUSH2 0x2982 JUMP JUMPDEST PUSH1 0x20 MUL PUSH1 0x20 ADD ADD MLOAD DUP4 PUSH1 0x15 DUP2 MLOAD DUP2 LT PUSH2 0x1FC5 JUMPI PUSH2 0x1FC5 PUSH2 0x2982 JUMP JUMPDEST PUSH1 0x20 MUL PUSH1 0x20 ADD ADD MLOAD MULMOD DUP3 PUSH1 0x10 DUP2 MLOAD DUP2 LT PUSH2 0x1FE1 JUMPI PUSH2 0x1FE1 PUSH2 0x2982 JUMP JUMPDEST PUSH1 0x20 MUL PUSH1 0x20 ADD ADD DUP2 DUP2 MSTORE POP POP PUSH2 0x1FF8 DUP3 PUSH1 0xC PUSH2 0x2780 JUMP JUMPDEST PUSH32 0xAB167115FCFA344B12422E3057429E49A4068E4CF5C9D4805F83806CC7C7D6B PUSH32 0xAFDC709F2AEFF4D6C30DECA1CDDF7D245B57DB1C4CE56E38EBAEC86B98A7AB8 DUP4 PUSH1 0xE DUP2 MLOAD DUP2 LT PUSH2 0x204D JUMPI PUSH2 0x204D PUSH2 0x2982 JUMP JUMPDEST PUSH1 0x20 MUL PUSH1 0x20 ADD ADD DUP5 PUSH1 0xF DUP2 MLOAD DUP2 LT PUSH2 0x2067 JUMPI PUSH2 0x2067 PUSH2 0x2982 JUMP JUMPDEST PUSH1 0x20 SWAP1 DUP2 MUL SWAP2 SWAP1 SWAP2 ADD ADD SWAP2 SWAP1 SWAP2 MSTORE MSTORE PUSH0 DUP1 MLOAD PUSH1 0x20 PUSH2 0x2A02 DUP4 CODECOPY DUP2 MLOAD SWAP2 MSTORE DUP3 PUSH1 0x17 DUP2 MLOAD DUP2 LT PUSH2 0x2097 JUMPI PUSH2 0x2097 PUSH2 0x2982 JUMP JUMPDEST PUSH1 0x20 MUL PUSH1 0x20 ADD ADD MLOAD DUP4 PUSH1 0x15 DUP2 MLOAD DUP2 LT PUSH2 0x20B2 JUMPI PUSH2 0x20B2 PUSH2 0x2982 JUMP JUMPDEST PUSH1 0x20 MUL PUSH1 0x20 ADD ADD MLOAD MULMOD DUP3 PUSH1 0x10 DUP2 MLOAD DUP2 LT PUSH2 0x20CE JUMPI PUSH2 0x20CE PUSH2 0x2982 JUMP JUMPDEST PUSH1 0x20 MUL PUSH1 0x20 ADD ADD DUP2 DUP2 MSTORE POP POP PUSH2 0x20E5 DUP3 PUSH1 0xC PUSH2 0x2780 JUMP JUMPDEST PUSH0 DUP1 MLOAD PUSH1 0x20 PUSH2 0x2A02 DUP4 CODECOPY DUP2 MLOAD SWAP2 MSTORE DUP3 PUSH1 0x13 DUP2 MLOAD DUP2 LT PUSH2 0x2106 JUMPI PUSH2 0x2106 PUSH2 0x2982 JUMP JUMPDEST PUSH1 0x20 MUL PUSH1 0x20 ADD ADD MLOAD DUP4 PUSH1 0x13 DUP2 MLOAD DUP2 LT PUSH2 0x2121 JUMPI PUSH2 0x2121 PUSH2 0x2982 JUMP JUMPDEST PUSH1 0x20 MUL PUSH1 0x20 ADD ADD MLOAD MULMOD DUP3 PUSH1 0x13 DUP2 MLOAD DUP2 LT PUSH2 0x213D JUMPI PUSH2 0x213D PUSH2 0x2982 JUMP JUMPDEST PUSH1 0x20 SWAP1 DUP2 MUL SWAP2 SWAP1 SWAP2 ADD ADD MSTORE PUSH0 DUP1 MLOAD PUSH1 0x20 PUSH2 0x2A02 DUP4 CODECOPY DUP2 MLOAD SWAP2 MSTORE DUP3 PUSH1 0x17 DUP2 MLOAD DUP2 LT PUSH2 0x2169 JUMPI PUSH2 0x2169 PUSH2 0x2982 JUMP JUMPDEST PUSH1 0x20 MUL PUSH1 0x20 ADD ADD MLOAD DUP4 PUSH1 0x13 DUP2 MLOAD DUP2 LT PUSH2 0x2184 JUMPI PUSH2 0x2184 PUSH2 0x2982 JUMP JUMPDEST PUSH1 0x20 MUL PUSH1 0x20 ADD ADD MLOAD MULMOD DUP3 PUSH1 0x14 DUP2 MLOAD DUP2 LT PUSH2 0x21A0 JUMPI PUSH2 0x21A0 PUSH2 0x2982 JUMP JUMPDEST PUSH1 0x20 MUL PUSH1 0x20 ADD ADD DUP2 DUP2 MSTORE POP POP DUP6 DUP6 PUSH1 0x20 DUP2 DUP2 LT PUSH2 0x21BF JUMPI PUSH2 0x21BF PUSH2 0x2982 JUMP JUMPDEST SWAP1 POP PUSH1 0x20 MUL ADD CALLDATALOAD DUP7 DUP7 PUSH1 0x21 DUP2 DUP2 LT PUSH2 0x21D9 JUMPI PUSH2 0x21D9 PUSH2 0x2982 JUMP JUMPDEST SWAP1 POP PUSH1 0x20 MUL ADD CALLDATALOAD DUP4 PUSH1 0xE DUP2 MLOAD DUP2 LT PUSH2 0x21F3 JUMPI PUSH2 0x21F3 PUSH2 0x2982 JUMP JUMPDEST PUSH1 0x20 MUL PUSH1 0x20 ADD ADD DUP5 PUSH1 0xF DUP2 MLOAD DUP2 LT PUSH2 0x220D JUMPI PUSH2 0x220D PUSH2 0x2982 JUMP JUMPDEST PUSH1 0x20 SWAP1 DUP2 MUL SWAP2 SWAP1 SWAP2 ADD ADD SWAP2 SWAP1 SWAP2 MSTORE MSTORE PUSH0 DUP1 MLOAD PUSH1 0x20 PUSH2 0x2A02 DUP4 CODECOPY DUP2 MLOAD SWAP2 MSTORE DUP3 PUSH1 0x7 DUP2 MLOAD DUP2 LT PUSH2 0x223D JUMPI PUSH2 0x223D PUSH2 0x2982 JUMP JUMPDEST PUSH1 0x20 MUL PUSH1 0x20 ADD ADD MLOAD DUP4 PUSH1 0x14 DUP2 MLOAD DUP2 LT PUSH2 0x2258 JUMPI PUSH2 0x2258 PUSH2 0x2982 JUMP JUMPDEST PUSH1 0x20 MUL PUSH1 0x20 ADD ADD MLOAD MULMOD DUP3 PUSH1 0x10 DUP2 MLOAD DUP2 LT PUSH2 0x2274 JUMPI PUSH2 0x2274 PUSH2 0x2982 JUMP JUMPDEST PUSH1 0x20 MUL PUSH1 0x20 ADD ADD DUP2 DUP2 MSTORE POP POP PUSH2 0x228B DUP3 PUSH1 0xC PUSH2 0x2780 JUMP JUMPDEST DUP6 DUP6 PUSH1 0x22 DUP2 DUP2 LT PUSH2 0x229E JUMPI PUSH2 0x229E PUSH2 0x2982 JUMP JUMPDEST SWAP1 POP PUSH1 0x20 MUL ADD CALLDATALOAD DUP7 DUP7 PUSH1 0x23 DUP2 DUP2 LT PUSH2 0x22B8 JUMPI PUSH2 0x22B8 PUSH2 0x2982 JUMP JUMPDEST SWAP1 POP PUSH1 0x20 MUL ADD CALLDATALOAD DUP4 PUSH1 0xE DUP2 MLOAD DUP2 LT PUSH2 0x22D2 JUMPI PUSH2 0x22D2 PUSH2 0x2982 JUMP JUMPDEST PUSH1 0x20 MUL PUSH1 0x20 ADD ADD DUP5 PUSH1 0xF DUP2 MLOAD DUP2 LT PUSH2 0x22EC JUMPI PUSH2 0x22EC PUSH2 0x2982 JUMP JUMPDEST PUSH1 0x20 MUL PUSH1 0x20 ADD ADD DUP3 DUP2 MSTORE POP DUP3 DUP2 MSTORE POP POP POP DUP2 PUSH1 0x14 DUP2 MLOAD DUP2 LT PUSH2 0x2310 JUMPI PUSH2 0x2310 PUSH2 0x2982 JUMP JUMPDEST PUSH1 0x20 MUL PUSH1 0x20 ADD ADD MLOAD DUP3 PUSH1 0x10 DUP2 MLOAD DUP2 LT PUSH2 0x232B JUMPI PUSH2 0x232B PUSH2 0x2982 JUMP JUMPDEST PUSH1 0x20 MUL PUSH1 0x20 ADD ADD DUP2 DUP2 MSTORE POP POP PUSH2 0x2342 DUP3 PUSH1 0xC PUSH2 0x2780 JUMP JUMPDEST DUP6 DUP6 PUSH1 0x24 DUP2 DUP2 LT PUSH2 0x2355 JUMPI PUSH2 0x2355 PUSH2 0x2982 JUMP JUMPDEST SWAP1 POP PUSH1 0x20 MUL ADD CALLDATALOAD DUP7 DUP7 PUSH1 0x25 DUP2 DUP2 LT PUSH2 0x236F JUMPI PUSH2 0x236F PUSH2 0x2982 JUMP JUMPDEST SWAP1 POP PUSH1 0x20 MUL ADD CALLDATALOAD DUP4 PUSH1 0xE DUP2 MLOAD DUP2 LT PUSH2 0x2389 JUMPI PUSH2 0x2389 PUSH2 0x2982 JUMP JUMPDEST PUSH1 0x20 MUL PUSH1 0x20 ADD ADD DUP5 PUSH1 0xF DUP2 MLOAD DUP2 LT PUSH2 0x23A3 JUMPI PUSH2 0x23A3 PUSH2 0x2982 JUMP JUMPDEST PUSH1 0x20 SWAP1 DUP2 MUL SWAP2 SWAP1 SWAP2 ADD ADD SWAP2 SWAP1 SWAP2 MSTORE MSTORE PUSH0 DUP1 MLOAD PUSH1 0x20 PUSH2 0x2A02 DUP4 CODECOPY DUP2 MLOAD SWAP2 MSTORE DUP3 PUSH1 0x7 DUP2 MLOAD DUP2 LT PUSH2 0x23D3 JUMPI PUSH2 0x23D3 PUSH2 0x2982 JUMP JUMPDEST PUSH1 0x20 MUL PUSH1 0x20 ADD ADD MLOAD DUP4 PUSH1 0x13 DUP2 MLOAD DUP2 LT PUSH2 0x23EE JUMPI PUSH2 0x23EE PUSH2 0x2982 JUMP JUMPDEST PUSH1 0x20 MUL PUSH1 0x20 ADD ADD MLOAD MULMOD DUP3 PUSH1 0x10 DUP2 MLOAD DUP2 LT PUSH2 0x240A JUMPI PUSH2 0x240A PUSH2 0x2982 JUMP JUMPDEST PUSH1 0x20 MUL PUSH1 0x20 ADD ADD DUP2 DUP2 MSTORE POP POP PUSH2 0x2421 DUP3 PUSH1 0xC PUSH2 0x2780 JUMP JUMPDEST DUP6 DUP6 PUSH1 0x26 DUP2 DUP2 LT PUSH2 0x2434 JUMPI PUSH2 0x2434 PUSH2 0x2982 JUMP JUMPDEST SWAP1 POP PUSH1 0x20 MUL ADD CALLDATALOAD DUP7 DUP7 PUSH1 0x27 DUP2 DUP2 LT PUSH2 0x244E JUMPI PUSH2 0x244E PUSH2 0x2982 JUMP JUMPDEST SWAP1 POP PUSH1 0x20 MUL ADD CALLDATALOAD DUP4 PUSH1 0xE DUP2 MLOAD DUP2 LT PUSH2 0x2468 JUMPI PUSH2 0x2468 PUSH2 0x2982 JUMP JUMPDEST PUSH1 0x20 MUL PUSH1 0x20 ADD ADD DUP5 PUSH1 0xF DUP2 MLOAD DUP2 LT PUSH2 0x2482 JUMPI PUSH2 0x2482 PUSH2 0x2982 JUMP JUMPDEST PUSH1 0x20 MUL PUSH1 0x20 ADD ADD DUP3 DUP2 MSTORE POP DUP3 DUP2 MSTORE POP POP POP DUP2 PUSH1 0x13 DUP2 MLOAD DUP2 LT PUSH2 0x24A6 JUMPI PUSH2 0x24A6 PUSH2 0x2982 JUMP JUMPDEST PUSH1 0x20 MUL PUSH1 0x20 ADD ADD MLOAD DUP3 PUSH1 0x10 DUP2 MLOAD DUP2 LT PUSH2 0x24C1 JUMPI PUSH2 0x24C1 PUSH2 0x2982 JUMP JUMPDEST PUSH1 0x20 MUL PUSH1 0x20 ADD ADD DUP2 DUP2 MSTORE POP POP PUSH2 0x24D8 DUP3 PUSH1 0xC PUSH2 0x2780 JUMP JUMPDEST DUP6 DUP6 PUSH1 0x28 DUP2 DUP2 LT PUSH2 0x24EB JUMPI PUSH2 0x24EB PUSH2 0x2982 JUMP JUMPDEST SWAP1 POP PUSH1 0x20 MUL ADD CALLDATALOAD DUP7 DUP7 PUSH1 0x29 DUP2 DUP2 LT PUSH2 0x2505 JUMPI PUSH2 0x2505 PUSH2 0x2982 JUMP JUMPDEST SWAP1 POP PUSH1 0x20 MUL ADD CALLDATALOAD DUP4 PUSH1 0xE DUP2 MLOAD DUP2 LT PUSH2 0x251F JUMPI PUSH2 0x251F PUSH2 0x2982 JUMP JUMPDEST PUSH1 0x20 MUL PUSH1 0x20 ADD ADD DUP5 PUSH1 0xF DUP2 MLOAD DUP2 LT PUSH2 0x2539 JUMPI PUSH2 0x2539 PUSH2 0x2982 JUMP JUMPDEST PUSH1 0x20 SWAP1 DUP2 MUL SWAP2 SWAP1 SWAP2 ADD ADD SWAP2 SWAP1 SWAP2 MSTORE MSTORE PUSH0 DUP1 MLOAD PUSH1 0x20 PUSH2 0x2A02 DUP4 CODECOPY DUP2 MLOAD SWAP2 MSTORE DUP3 PUSH1 0x11 DUP2 MLOAD DUP2 LT PUSH2 0x2569 JUMPI PUSH2 0x2569 PUSH2 0x2982 JUMP JUMPDEST PUSH1 0x20 MUL PUSH1 0x20 ADD ADD MLOAD DUP4 PUSH1 0x19 DUP2 MLOAD DUP2 LT PUSH2 0x2584 JUMPI PUSH2 0x2584 PUSH2 0x2982 JUMP JUMPDEST PUSH1 0x20 MUL PUSH1 0x20 ADD ADD MLOAD MULMOD DUP3 PUSH1 0x10 DUP2 MLOAD DUP2 LT PUSH2 0x25A0 JUMPI PUSH2 0x25A0 PUSH2 0x2982 JUMP JUMPDEST PUSH1 0x20 MUL PUSH1 0x20 ADD ADD DUP2 DUP2 MSTORE POP POP PUSH2 0x25B7 DUP3 PUSH1 0xC PUSH2 0x2780 JUMP JUMPDEST DUP6 DUP6 PUSH1 0x30 DUP2 DUP2 LT PUSH2 0x25CA JUMPI PUSH2 0x25CA PUSH2 0x2982 JUMP JUMPDEST SWAP1 POP PUSH1 0x20 MUL ADD CALLDATALOAD DUP7 DUP7 PUSH1 0x31 DUP2 DUP2 LT PUSH2 0x25E4 JUMPI PUSH2 0x25E4 PUSH2 0x2982 JUMP JUMPDEST SWAP1 POP PUSH1 0x20 MUL ADD CALLDATALOAD DUP4 PUSH1 0xE DUP2 MLOAD DUP2 LT PUSH2 0x25FE JUMPI PUSH2 0x25FE PUSH2 0x2982 JUMP JUMPDEST PUSH1 0x20 MUL PUSH1 0x20 ADD ADD DUP5 PUSH1 0xF DUP2 MLOAD DUP2 LT PUSH2 0x2618 JUMPI PUSH2 0x2618 PUSH2 0x2982 JUMP JUMPDEST PUSH1 0x20 MUL PUSH1 0x20 ADD ADD DUP3 DUP2 MSTORE POP DUP3 DUP2 MSTORE POP POP POP DUP2 PUSH1 0x15 DUP2 MLOAD DUP2 LT PUSH2 0x263C JUMPI PUSH2 0x263C PUSH2 0x2982 JUMP JUMPDEST PUSH1 0x20 MUL PUSH1 0x20 ADD ADD MLOAD DUP3 PUSH1 0x10 DUP2 MLOAD DUP2 LT PUSH2 0x2657 JUMPI PUSH2 0x2657 PUSH2 0x2982 JUMP JUMPDEST PUSH1 0x20 MUL PUSH1 0x20 ADD ADD DUP2 DUP2 MSTORE POP POP PUSH2 0x266E DUP3 PUSH1 0xC PUSH2 0x2780 JUMP JUMPDEST PUSH1 0x40 DUP1 MLOAD PUSH1 0x4 DUP1 DUP3 MSTORE PUSH1 0xA0 DUP3 ADD SWAP1 SWAP3 MSTORE PUSH0 SWAP2 PUSH1 0x20 DUP3 ADD PUSH1 0x80 DUP1 CALLDATASIZE DUP4 CALLDATACOPY ADD SWAP1 POP POP SWAP1 POP DUP3 PUSH1 0xA DUP2 MLOAD DUP2 LT PUSH2 0x26A3 JUMPI PUSH2 0x26A3 PUSH2 0x2982 JUMP JUMPDEST PUSH1 0x20 MUL PUSH1 0x20 ADD ADD MLOAD DUP2 PUSH0 DUP2 MLOAD DUP2 LT PUSH2 0x26BD JUMPI PUSH2 0x26BD PUSH2 0x2982 JUMP JUMPDEST PUSH1 0x20 MUL PUSH1 0x20 ADD ADD DUP2 DUP2 MSTORE POP POP DUP3 PUSH1 0xB DUP2 MLOAD DUP2 LT PUSH2 0x26DC JUMPI PUSH2 0x26DC PUSH2 0x2982 JUMP JUMPDEST PUSH1 0x20 MUL PUSH1 0x20 ADD ADD MLOAD DUP2 PUSH1 0x1 DUP2 MLOAD DUP2 LT PUSH2 0x26F7 JUMPI PUSH2 0x26F7 PUSH2 0x2982 JUMP JUMPDEST PUSH1 0x20 MUL PUSH1 0x20 ADD ADD DUP2 DUP2 MSTORE POP POP DUP3 PUSH1 0xC DUP2 MLOAD DUP2 LT PUSH2 0x2716 JUMPI PUSH2 0x2716 PUSH2 0x2982 JUMP JUMPDEST PUSH1 0x20 MUL PUSH1 0x20 ADD ADD MLOAD DUP2 PUSH1 0x2 DUP2 MLOAD DUP2 LT PUSH2 0x2731 JUMPI PUSH2 0x2731 PUSH2 0x2982 JUMP JUMPDEST PUSH1 0x20 MUL PUSH1 0x20 ADD ADD DUP2 DUP2 MSTORE POP POP DUP3 PUSH1 0xD DUP2 MLOAD DUP2 LT PUSH2 0x2750 JUMPI PUSH2 0x2750 PUSH2 0x2982 JUMP JUMPDEST PUSH1 0x20 MUL PUSH1 0x20 ADD ADD MLOAD DUP2 PUSH1 0x3 DUP2 MLOAD DUP2 LT PUSH2 0x276B JUMPI PUSH2 0x276B PUSH2 0x2982 JUMP JUMPDEST PUSH1 0x20 SWAP1 DUP2 MUL SWAP2 SWAP1 SWAP2 ADD ADD MSTORE SWAP7 SWAP6 POP POP POP POP POP POP JUMP JUMPDEST PUSH0 DUP1 PUSH2 0x278D DUP4 PUSH1 0x20 PUSH2 0x29D7 JUMP JUMPDEST PUSH2 0x2798 SWAP1 PUSH1 0x20 PUSH2 0x29EE JUMP JUMPDEST SWAP1 POP PUSH0 PUSH2 0x27A6 DUP3 PUSH1 0x40 PUSH2 0x29EE JUMP JUMPDEST SWAP1 POP PUSH1 0x40 DUP6 DUP3 ADD PUSH1 0x60 DUP2 PUSH1 0x7 GAS STATICCALL SWAP3 POP DUP3 PUSH2 0x27BF JUMPI PUSH0 DUP1 REVERT JUMPDEST PUSH1 0x40 DUP6 DUP4 ADD PUSH1 0x80 DUP2 PUSH1 0x6 GAS STATICCALL SWAP3 POP DUP3 PUSH2 0x27D6 JUMPI PUSH0 DUP1 REVERT JUMPDEST POP POP POP POP POP JUMP JUMPDEST PUSH0 DUP1 DUP4 PUSH1 0x1F DUP5 ADD SLT PUSH2 0x27ED JUMPI PUSH0 DUP1 REVERT JUMPDEST POP DUP2 CALLDATALOAD PUSH1 0x1 PUSH1 0x1 PUSH1 0x40 SHL SUB DUP2 GT ISZERO PUSH2 0x2803 JUMPI PUSH0 DUP1 REVERT JUMPDEST PUSH1 0x20 DUP4 ADD SWAP2 POP DUP4 PUSH1 0x20 DUP3 PUSH1 0x5 SHL DUP6 ADD ADD GT ISZERO PUSH2 0x281D JUMPI PUSH0 DUP1 REVERT JUMPDEST SWAP3 POP SWAP3 SWAP1 POP JUMP JUMPDEST PUSH4 0x4E487B71 PUSH1 0xE0 SHL PUSH0 MSTORE PUSH1 0x41 PUSH1 0x4 MSTORE PUSH1 0x24 PUSH0 REVERT JUMPDEST PUSH0 DUP1 PUSH0 DUP1 PUSH0 PUSH1 0x60 DUP7 DUP9 SUB SLT ISZERO PUSH2 0x284C JUMPI PUSH0 DUP1 REVERT JUMPDEST DUP6 CALLDATALOAD PUSH1 0x1 PUSH1 0x1 PUSH1 0x40 SHL SUB DUP1 DUP3 GT ISZERO PUSH2 0x2862 JUMPI PUSH0 DUP1 REVERT JUMPDEST PUSH2 0x286E DUP10 DUP4 DUP11 ADD PUSH2 0x27DD JUMP JUMPDEST SWAP1 SWAP8 POP SWAP6 POP PUSH1 0x20 SWAP2 POP DUP8 DUP3 ADD CALLDATALOAD DUP2 DUP2 GT ISZERO PUSH2 0x2887 JUMPI PUSH0 DUP1 REVERT JUMPDEST PUSH2 0x2893 DUP11 DUP3 DUP12 ADD PUSH2 0x27DD JUMP JUMPDEST SWAP1 SWAP7 POP SWAP5 POP POP PUSH1 0x40 DUP9 ADD CALLDATALOAD DUP2 DUP2 GT ISZERO PUSH2 0x28AA JUMPI PUSH0 DUP1 REVERT JUMPDEST DUP9 ADD PUSH1 0x1F DUP2 ADD DUP11 SGT PUSH2 0x28BA JUMPI PUSH0 DUP1 REVERT JUMPDEST DUP1 CALLDATALOAD DUP3 DUP2 GT ISZERO PUSH2 0x28CC JUMPI PUSH2 0x28CC PUSH2 0x2824 JUMP JUMPDEST DUP1 PUSH1 0x5 SHL PUSH1 0x40 MLOAD PUSH1 0x1F NOT PUSH1 0x3F DUP4 ADD AND DUP2 ADD DUP2 DUP2 LT DUP7 DUP3 GT OR ISZERO PUSH2 0x28F1 JUMPI PUSH2 0x28F1 PUSH2 0x2824 JUMP JUMPDEST PUSH1 0x40 MSTORE SWAP2 DUP3 MSTORE DUP5 DUP3 ADD SWAP4 POP DUP3 DUP2 ADD DUP6 ADD SWAP2 DUP13 DUP4 GT ISZERO PUSH2 0x290E JUMPI PUSH0 DUP1 REVERT JUMPDEST SWAP3 DUP6 ADD SWAP3 JUMPDEST DUP3 DUP5 LT ISZERO PUSH2 0x292C JUMPI DUP4 CALLDATALOAD DUP6 MSTORE SWAP4 DUP6 ADD SWAP4 SWAP3 DUP6 ADD SWAP3 PUSH2 0x2913 JUMP JUMPDEST DUP1 SWAP7 POP POP POP POP POP POP POP SWAP3 SWAP6 POP SWAP3 SWAP6 SWAP1 SWAP4 POP JUMP JUMPDEST PUSH1 0x20 DUP1 DUP3 MSTORE DUP3 MLOAD DUP3 DUP3 ADD DUP2 SWAP1 MSTORE PUSH0 SWAP2 SWAP1 DUP5 DUP3 ADD SWAP1 PUSH1 0x40 DUP6 ADD SWAP1 DUP5 JUMPDEST DUP2 DUP2 LT ISZERO PUSH2 0x2976 JUMPI DUP4 MLOAD DUP4 MSTORE SWAP3 DUP5 ADD SWAP3 SWAP2 DUP5 ADD SWAP2 PUSH1 0x1 ADD PUSH2 0x295A JUMP JUMPDEST POP SWAP1 SWAP7 SWAP6 POP POP POP POP POP POP JUMP JUMPDEST PUSH4 0x4E487B71 PUSH1 0xE0 SHL PUSH0 MSTORE PUSH1 0x32 PUSH1 0x4 MSTORE PUSH1 0x24 PUSH0 REVERT JUMPDEST PUSH4 0x4E487B71 PUSH1 0xE0 SHL PUSH0 MSTORE PUSH1 0x12 PUSH1 0x4 MSTORE PUSH1 0x24 PUSH0 REVERT JUMPDEST PUSH4 0x4E487B71 PUSH1 0xE0 SHL PUSH0 MSTORE PUSH1 0x11 PUSH1 0x4 MSTORE PUSH1 0x24 PUSH0 REVERT JUMPDEST DUP2 DUP2 SUB DUP2 DUP2 GT ISZERO PUSH2 0x29D1 JUMPI PUSH2 0x29D1 PUSH2 0x29AA JUMP JUMPDEST SWAP3 SWAP2 POP POP JUMP JUMPDEST DUP1 DUP3 MUL DUP2 ISZERO DUP3 DUP3 DIV DUP5 EQ OR PUSH2 0x29D1 JUMPI PUSH2 0x29D1 PUSH2 0x29AA JUMP JUMPDEST DUP1 DUP3 ADD DUP1 DUP3 GT ISZERO PUSH2 0x29D1 JUMPI PUSH2 0x29D1 PUSH2 0x29AA JUMP INVALID ADDRESS PUSH5 0x4E72E131A0 0x29 0xB8 POP GASLIMIT 0xB6 DUP2 DUP2 PC TSTORE 0x28 CALLER 0xE8 BASEFEE PUSH26 0xB9709143E1F593F0000001A2646970667358221220667B61C81F TLOAD 0xD0 0x1F MSIZE 0xD9 ADDRESS PUSH13 0x3D27E137250DEAC8307F13F20D 0xD3 0x4B EXTCODECOPY 0xAE MSTORE DUP4 0xE5 PUSH5 0x736F6C6343 STOP ADDMOD XOR STOP CALLER "
		},
		"gasEstimates": {
			"creation": {
				"codeDepositCost": "2167800",
				"executionCost": "2307",
				"totalCost": "2170107"
			},
			"external": {
				"verify_proof(uint256[],uint256[],uint256[])": "infinite"
			}
		},
		"methodIdentifiers": {
			"verify_proof(uint256[],uint256[],uint256[])": "96675190"
		}
	},
	"abi": [
		{
			"inputs": [
				{
					"internalType": "uint256[]",
					"name": "transcript",
					"type": "uint256[]"
				},
				{
					"internalType": "uint256[]",
					"name": "aux",
					"type": "uint256[]"
				},
				{
					"internalType": "uint256[]",
					"name": "buf",
					"type": "uint256[]"
				}
			],
			"name": "verify_proof",
			"outputs": [
				{
					"internalType": "uint256[]",
					"name": "",
					"type": "uint256[]"
				}
			],
			"stateMutability": "view",
			"type": "function"
		}
	]
}