{
	"data": {
		"bytecode": {
			"linkReferences": {},
			"object": "608060405234801562000010575f80fd5b5060405162000c9238038062000c928339810160408190526200003391620000da565b80516200004890600290602084019062000062565b5050600380546001600160a01b031916331790556200019e565b828054828255905f5260205f209081019282156200009e579160200282015b828111156200009e57825182559160200191906001019062000081565b50620000ac929150620000b0565b5090565b5b80821115620000ac575f8155600101620000b1565b634e487b7160e01b5f52604160045260245ffd5b5f6020808385031215620000ec575f80fd5b82516001600160401b038082111562000103575f80fd5b818501915085601f83011262000117575f80fd5b8151818111156200012c576200012c620000c6565b8060051b604051601f19603f83011681018181108582111715620001545762000154620000c6565b60405291825284820192508381018501918883111562000172575f80fd5b938501935b82851015620001925784518452938501939285019262000177565b98975050505050505050565b610ae680620001ac5f395ff3fe608060405234801561000f575f80fd5b506004361061004a575f3560e01c80638f636faf1461004e578063bc8ccf6f14610063578063cf571fbe14610076578063e37c66d114610089575b5f80fd5b61006161005c36600461070c565b6100b8565b005b6100616100713660046107c6565b61024b565b610061610084366004610804565b61025c565b610061610097366004610896565b5f80546001600160a01b0319166001600160a01b0392909216919091179055565b5f5460405163ae022ccd60e01b81526001600160a01b039091169063ae022ccd906100f5908b908b908b908b908b908b908b908b906004016108f3565b5f6040518083038186803b15801561010b575f80fd5b505afa15801561011d573d5f803e3d5ffd5b505050505f5b81811015610240575f5b83838381811061013f5761013f6109ce565b905060200281019061015191906109e2565b9050811015610237576001805f868686818110610170576101706109ce565b905060200281019061018291906109e2565b85818110610192576101926109ce565b9050602002013581526020019081526020015f205f6101000a81548160ff0219169083151502179055507f4a79fd41fe5c867d15b85d1569074c79cff704fd3e07086cf293fd56011f52858484848181106101ef576101ef6109ce565b905060200281019061020191906109e2565b83818110610211576102116109ce565b9050602002013560405161022791815260200190565b60405180910390a160010161012d565b50600101610123565b505050505050505050565b61025760028383610668565b505050565b6040805160248082526104a082019092525f9160208201610480803683370190505090505f805b8381101561032f575f5b85858381811061029f5761029f6109ce565b90506020028101906102b191906109e2565b9050811015610326578585838181106102cc576102cc6109ce565b90506020028101906102de91906109e2565b828181106102ee576102ee6109ce565b9050602002013584848061030190610a4f565b955081518110610313576103136109ce565b602090810291909101015260010161028d565b50600101610283565b505f5b878110156103845788888281811061034c5761034c6109ce565b9050602002013583838061035f90610a4f565b945081518110610371576103716109ce565b6020908102919091010152600101610332565b505f6103908383610589565b90505f5b86811015610569575f805b8989848181106103b1576103b16109ce565b90506020028101906103c391906109e2565b905081101561041a578989848181106103de576103de6109ce565b90506020028101906103f091906109e2565b82818110610400576104006109ce565b90506020020135840361041257600191505b60010161039f565b508060011461046f5760405162461bcd60e51b815260206004820181905260248201527f7369626c696e6720696e7374616e63657320646f6573206e6f74206d61746368604482015260640160405180910390fd5b5f93505f5b898984818110610486576104866109ce565b905060200281019061049891906109e2565b905081101561050d578989848181106104b3576104b36109ce565b90506020028101906104c591906109e2565b828181106104d5576104d56109ce565b905060200201358686806104e890610a4f565b9750815181106104fa576104fa6109ce565b6020908102919091010152600101610474565b5060028281548110610521576105216109ce565b905f5260205f20015485858061053690610a4f565b965081518110610548576105486109ce565b60200260200101818152505061055e8585610589565b925050600101610394565b505f8181526001602081905260409091205460ff16151514610240575f80fd5b5f80610596836020610a67565b6001600160401b038111156105ad576105ad610a27565b6040519080825280601f01601f1916602001820160405280156105d7576020820181803683370190505b5090505f5b8381101561062b575f6105f0826020610a67565b6105fb906020610a7e565b90505f868381518110610610576106106109ce565b602090810291909101015191840191909152506001016105dc565b508051602082012061065e907f30644e72e131a029b85045b68181585d2833e84879b9709143e1f593f000000190610a91565b9150505b92915050565b828054828255905f5260205f209081019282156106a1579160200282015b828111156106a1578235825591602001919060010190610686565b506106ad9291506106b1565b5090565b5b808211156106ad575f81556001016106b2565b5f8083601f8401126106d5575f80fd5b5081356001600160401b038111156106eb575f80fd5b6020830191508360208260051b8501011115610705575f80fd5b9250929050565b5f805f805f805f806080898b031215610723575f80fd5b88356001600160401b0380821115610739575f80fd5b6107458c838d016106c5565b909a50985060208b013591508082111561075d575f80fd5b6107698c838d016106c5565b909850965060408b0135915080821115610781575f80fd5b61078d8c838d016106c5565b909650945060608b01359150808211156107a5575f80fd5b506107b28b828c016106c5565b999c989b5096995094979396929594505050565b5f80602083850312156107d7575f80fd5b82356001600160401b038111156107ec575f80fd5b6107f8858286016106c5565b90969095509350505050565b5f805f805f8060608789031215610819575f80fd5b86356001600160401b038082111561082f575f80fd5b61083b8a838b016106c5565b90985096506020890135915080821115610853575f80fd5b61085f8a838b016106c5565b90965094506040890135915080821115610877575f80fd5b5061088489828a016106c5565b979a9699509497509295939492505050565b5f602082840312156108a6575f80fd5b81356001600160a01b03811681146108bc575f80fd5b9392505050565b8183525f6001600160fb1b038311156108da575f80fd5b8260051b80836020870137939093016020019392505050565b608081525f610906608083018a8c6108c3565b60208382038185015261091a828a8c6108c3565b9150838203604085015261092f82888a6108c3565b84810360608601528581529150808201600586811b84018301885f5b898110156109b957868303601f190185528135368c9003601e19018112610970575f80fd5b8b0186810190356001600160401b0381111561098a575f80fd5b80861b360382131561099a575f80fd5b6109a58582846108c3565b96880196945050509085019060010161094b565b50909f9e505050505050505050505050505050565b634e487b7160e01b5f52603260045260245ffd5b5f808335601e198436030181126109f7575f80fd5b8301803591506001600160401b03821115610a10575f80fd5b6020019150600581901b3603821315610705575f80fd5b634e487b7160e01b5f52604160045260245ffd5b634e487b7160e01b5f52601160045260245ffd5b5f60018201610a6057610a60610a3b565b5060010190565b808202811582820484141761066257610662610a3b565b8082018082111561066257610662610a3b565b5f82610aab57634e487b7160e01b5f52601260045260245ffd5b50069056fea264697066735822122043d8e54c237760639e068558962eefa40d7531f3c333997852ab243688fd750564736f6c63430008180033",
			"opcodes": "PUSH1 0x80 PUSH1 0x40 MSTORE CALLVALUE DUP1 ISZERO PUSH3 0x10 JUMPI PUSH0 DUP1 REVERT JUMPDEST POP PUSH1 0x40 MLOAD PUSH3 0xC92 CODESIZE SUB DUP1 PUSH3 0xC92 DUP4 CODECOPY DUP2 ADD PUSH1 0x40 DUP2 SWAP1 MSTORE PUSH3 0x33 SWAP2 PUSH3 0xDA JUMP JUMPDEST DUP1 MLOAD PUSH3 0x48 SWAP1 PUSH1 0x2 SWAP1 PUSH1 0x20 DUP5 ADD SWAP1 PUSH3 0x62 JUMP JUMPDEST POP POP PUSH1 0x3 DUP1 SLOAD PUSH1 0x1 PUSH1 0x1 PUSH1 0xA0 SHL SUB NOT AND CALLER OR SWAP1 SSTORE PUSH3 0x19E JUMP JUMPDEST DUP3 DUP1 SLOAD DUP3 DUP3 SSTORE SWAP1 PUSH0 MSTORE PUSH1 0x20 PUSH0 KECCAK256 SWAP1 DUP2 ADD SWAP3 DUP3 ISZERO PUSH3 0x9E JUMPI SWAP2 PUSH1 0x20 MUL DUP3 ADD JUMPDEST DUP3 DUP2 GT ISZERO PUSH3 0x9E JUMPI DUP3 MLOAD DUP3 SSTORE SWAP2 PUSH1 0x20 ADD SWAP2 SWAP1 PUSH1 0x1 ADD SWAP1 PUSH3 0x81 JUMP JUMPDEST POP PUSH3 0xAC SWAP3 SWAP2 POP PUSH3 0xB0 JUMP JUMPDEST POP SWAP1 JUMP JUMPDEST JUMPDEST DUP1 DUP3 GT ISZERO PUSH3 0xAC JUMPI PUSH0 DUP2 SSTORE PUSH1 0x1 ADD PUSH3 0xB1 JUMP JUMPDEST PUSH4 0x4E487B71 PUSH1 0xE0 SHL PUSH0 MSTORE PUSH1 0x41 PUSH1 0x4 MSTORE PUSH1 0x24 PUSH0 REVERT JUMPDEST PUSH0 PUSH1 0x20 DUP1 DUP4 DUP6 SUB SLT ISZERO PUSH3 0xEC JUMPI PUSH0 DUP1 REVERT JUMPDEST DUP3 MLOAD PUSH1 0x1 PUSH1 0x1 PUSH1 0x40 SHL SUB DUP1 DUP3 GT ISZERO PUSH3 0x103 JUMPI PUSH0 DUP1 REVERT JUMPDEST DUP2 DUP6 ADD SWAP2 POP DUP6 PUSH1 0x1F DUP4 ADD SLT PUSH3 0x117 JUMPI PUSH0 DUP1 REVERT JUMPDEST DUP2 MLOAD DUP2 DUP2 GT ISZERO PUSH3 0x12C JUMPI PUSH3 0x12C PUSH3 0xC6 JUMP JUMPDEST DUP1 PUSH1 0x5 SHL PUSH1 0x40 MLOAD PUSH1 0x1F NOT PUSH1 0x3F DUP4 ADD AND DUP2 ADD DUP2 DUP2 LT DUP6 DUP3 GT OR ISZERO PUSH3 0x154 JUMPI PUSH3 0x154 PUSH3 0xC6 JUMP JUMPDEST PUSH1 0x40 MSTORE SWAP2 DUP3 MSTORE DUP5 DUP3 ADD SWAP3 POP DUP4 DUP2 ADD DUP6 ADD SWAP2 DUP9 DUP4 GT ISZERO PUSH3 0x172 JUMPI PUSH0 DUP1 REVERT JUMPDEST SWAP4 DUP6 ADD SWAP4 JUMPDEST DUP3 DUP6 LT ISZERO PUSH3 0x192 JUMPI DUP5 MLOAD DUP5 MSTORE SWAP4 DUP6 ADD SWAP4 SWAP3 DUP6 ADD SWAP3 PUSH3 0x177 JUMP JUMPDEST SWAP9 SWAP8 POP POP POP POP POP POP POP POP JUMP JUMPDEST PUSH2 0xAE6 DUP1 PUSH3 0x1AC PUSH0 CODECOPY PUSH0 RETURN INVALID PUSH1 0x80 PUSH1 0x40 MSTORE CALLVALUE DUP1 ISZERO PUSH2 0xF JUMPI PUSH0 DUP1 REVERT JUMPDEST POP PUSH1 0x4 CALLDATASIZE LT PUSH2 0x4A JUMPI PUSH0 CALLDATALOAD PUSH1 0xE0 SHR DUP1 PUSH4 0x8F636FAF EQ PUSH2 0x4E JUMPI DUP1 PUSH4 0xBC8CCF6F EQ PUSH2 0x63 JUMPI DUP1 PUSH4 0xCF571FBE EQ PUSH2 0x76 JUMPI DUP1 PUSH4 0xE37C66D1 EQ PUSH2 0x89 JUMPI JUMPDEST PUSH0 DUP1 REVERT JUMPDEST PUSH2 0x61 PUSH2 0x5C CALLDATASIZE PUSH1 0x4 PUSH2 0x70C JUMP JUMPDEST PUSH2 0xB8 JUMP JUMPDEST STOP JUMPDEST PUSH2 0x61 PUSH2 0x71 CALLDATASIZE PUSH1 0x4 PUSH2 0x7C6 JUMP JUMPDEST PUSH2 0x24B JUMP JUMPDEST PUSH2 0x61 PUSH2 0x84 CALLDATASIZE PUSH1 0x4 PUSH2 0x804 JUMP JUMPDEST PUSH2 0x25C JUMP JUMPDEST PUSH2 0x61 PUSH2 0x97 CALLDATASIZE PUSH1 0x4 PUSH2 0x896 JUMP JUMPDEST PUSH0 DUP1 SLOAD PUSH1 0x1 PUSH1 0x1 PUSH1 0xA0 SHL SUB NOT AND PUSH1 0x1 PUSH1 0x1 PUSH1 0xA0 SHL SUB SWAP3 SWAP1 SWAP3 AND SWAP2 SWAP1 SWAP2 OR SWAP1 SSTORE JUMP JUMPDEST PUSH0 SLOAD PUSH1 0x40 MLOAD PUSH4 0xAE022CCD PUSH1 0xE0 SHL DUP2 MSTORE PUSH1 0x1 PUSH1 0x1 PUSH1 0xA0 SHL SUB SWAP1 SWAP2 AND SWAP1 PUSH4 0xAE022CCD SWAP1 PUSH2 0xF5 SWAP1 DUP12 SWAP1 DUP12 SWAP1 DUP12 SWAP1 DUP12 SWAP1 DUP12 SWAP1 DUP12 SWAP1 DUP12 SWAP1 DUP12 SWAP1 PUSH1 0x4 ADD PUSH2 0x8F3 JUMP JUMPDEST PUSH0 PUSH1 0x40 MLOAD DUP1 DUP4 SUB DUP2 DUP7 DUP1 EXTCODESIZE ISZERO DUP1 ISZERO PUSH2 0x10B JUMPI PUSH0 DUP1 REVERT JUMPDEST POP GAS STATICCALL ISZERO DUP1 ISZERO PUSH2 0x11D JUMPI RETURNDATASIZE PUSH0 DUP1 RETURNDATACOPY RETURNDATASIZE PUSH0 REVERT JUMPDEST POP POP POP POP PUSH0 JUMPDEST DUP2 DUP2 LT ISZERO PUSH2 0x240 JUMPI PUSH0 JUMPDEST DUP4 DUP4 DUP4 DUP2 DUP2 LT PUSH2 0x13F JUMPI PUSH2 0x13F PUSH2 0x9CE JUMP JUMPDEST SWAP1 POP PUSH1 0x20 MUL DUP2 ADD SWAP1 PUSH2 0x151 SWAP2 SWAP1 PUSH2 0x9E2 JUMP JUMPDEST SWAP1 POP DUP2 LT ISZERO PUSH2 0x237 JUMPI PUSH1 0x1 DUP1 PUSH0 DUP7 DUP7 DUP7 DUP2 DUP2 LT PUSH2 0x170 JUMPI PUSH2 0x170 PUSH2 0x9CE JUMP JUMPDEST SWAP1 POP PUSH1 0x20 MUL DUP2 ADD SWAP1 PUSH2 0x182 SWAP2 SWAP1 PUSH2 0x9E2 JUMP JUMPDEST DUP6 DUP2 DUP2 LT PUSH2 0x192 JUMPI PUSH2 0x192 PUSH2 0x9CE JUMP JUMPDEST SWAP1 POP PUSH1 0x20 MUL ADD CALLDATALOAD DUP2 MSTORE PUSH1 0x20 ADD SWAP1 DUP2 MSTORE PUSH1 0x20 ADD PUSH0 KECCAK256 PUSH0 PUSH2 0x100 EXP DUP2 SLOAD DUP2 PUSH1 0xFF MUL NOT AND SWAP1 DUP4 ISZERO ISZERO MUL OR SWAP1 SSTORE POP PUSH32 0x4A79FD41FE5C867D15B85D1569074C79CFF704FD3E07086CF293FD56011F5285 DUP5 DUP5 DUP5 DUP2 DUP2 LT PUSH2 0x1EF JUMPI PUSH2 0x1EF PUSH2 0x9CE JUMP JUMPDEST SWAP1 POP PUSH1 0x20 MUL DUP2 ADD SWAP1 PUSH2 0x201 SWAP2 SWAP1 PUSH2 0x9E2 JUMP JUMPDEST DUP4 DUP2 DUP2 LT PUSH2 0x211 JUMPI PUSH2 0x211 PUSH2 0x9CE JUMP JUMPDEST SWAP1 POP PUSH1 0x20 MUL ADD CALLDATALOAD PUSH1 0x40 MLOAD PUSH2 0x227 SWAP2 DUP2 MSTORE PUSH1 0x20 ADD SWAP1 JUMP JUMPDEST PUSH1 0x40 MLOAD DUP1 SWAP2 SUB SWAP1 LOG1 PUSH1 0x1 ADD PUSH2 0x12D JUMP JUMPDEST POP PUSH1 0x1 ADD PUSH2 0x123 JUMP JUMPDEST POP POP POP POP POP POP POP POP POP JUMP JUMPDEST PUSH2 0x257 PUSH1 0x2 DUP4 DUP4 PUSH2 0x668 JUMP JUMPDEST POP POP POP JUMP JUMPDEST PUSH1 0x40 DUP1 MLOAD PUSH1 0x24 DUP1 DUP3 MSTORE PUSH2 0x4A0 DUP3 ADD SWAP1 SWAP3 MSTORE PUSH0 SWAP2 PUSH1 0x20 DUP3 ADD PUSH2 0x480 DUP1 CALLDATASIZE DUP4 CALLDATACOPY ADD SWAP1 POP POP SWAP1 POP PUSH0 DUP1 JUMPDEST DUP4 DUP2 LT ISZERO PUSH2 0x32F JUMPI PUSH0 JUMPDEST DUP6 DUP6 DUP4 DUP2 DUP2 LT PUSH2 0x29F JUMPI PUSH2 0x29F PUSH2 0x9CE JUMP JUMPDEST SWAP1 POP PUSH1 0x20 MUL DUP2 ADD SWAP1 PUSH2 0x2B1 SWAP2 SWAP1 PUSH2 0x9E2 JUMP JUMPDEST SWAP1 POP DUP2 LT ISZERO PUSH2 0x326 JUMPI DUP6 DUP6 DUP4 DUP2 DUP2 LT PUSH2 0x2CC JUMPI PUSH2 0x2CC PUSH2 0x9CE JUMP JUMPDEST SWAP1 POP PUSH1 0x20 MUL DUP2 ADD SWAP1 PUSH2 0x2DE SWAP2 SWAP1 PUSH2 0x9E2 JUMP JUMPDEST DUP3 DUP2 DUP2 LT PUSH2 0x2EE JUMPI PUSH2 0x2EE PUSH2 0x9CE JUMP JUMPDEST SWAP1 POP PUSH1 0x20 MUL ADD CALLDATALOAD DUP5 DUP5 DUP1 PUSH2 0x301 SWAP1 PUSH2 0xA4F JUMP JUMPDEST SWAP6 POP DUP2 MLOAD DUP2 LT PUSH2 0x313 JUMPI PUSH2 0x313 PUSH2 0x9CE JUMP JUMPDEST PUSH1 0x20 SWAP1 DUP2 MUL SWAP2 SWAP1 SWAP2 ADD ADD MSTORE PUSH1 0x1 ADD PUSH2 0x28D JUMP JUMPDEST POP PUSH1 0x1 ADD PUSH2 0x283 JUMP JUMPDEST POP PUSH0 JUMPDEST DUP8 DUP2 LT ISZERO PUSH2 0x384 JUMPI DUP9 DUP9 DUP3 DUP2 DUP2 LT PUSH2 0x34C JUMPI PUSH2 0x34C PUSH2 0x9CE JUMP JUMPDEST SWAP1 POP PUSH1 0x20 MUL ADD CALLDATALOAD DUP4 DUP4 DUP1 PUSH2 0x35F SWAP1 PUSH2 0xA4F JUMP JUMPDEST SWAP5 POP DUP2 MLOAD DUP2 LT PUSH2 0x371 JUMPI PUSH2 0x371 PUSH2 0x9CE JUMP JUMPDEST PUSH1 0x20 SWAP1 DUP2 MUL SWAP2 SWAP1 SWAP2 ADD ADD MSTORE PUSH1 0x1 ADD PUSH2 0x332 JUMP JUMPDEST POP PUSH0 PUSH2 0x390 DUP4 DUP4 PUSH2 0x589 JUMP JUMPDEST SWAP1 POP PUSH0 JUMPDEST DUP7 DUP2 LT ISZERO PUSH2 0x569 JUMPI PUSH0 DUP1 JUMPDEST DUP10 DUP10 DUP5 DUP2 DUP2 LT PUSH2 0x3B1 JUMPI PUSH2 0x3B1 PUSH2 0x9CE JUMP JUMPDEST SWAP1 POP PUSH1 0x20 MUL DUP2 ADD SWAP1 PUSH2 0x3C3 SWAP2 SWAP1 PUSH2 0x9E2 JUMP JUMPDEST SWAP1 POP DUP2 LT ISZERO PUSH2 0x41A JUMPI DUP10 DUP10 DUP5 DUP2 DUP2 LT PUSH2 0x3DE JUMPI PUSH2 0x3DE PUSH2 0x9CE JUMP JUMPDEST SWAP1 POP PUSH1 0x20 MUL DUP2 ADD SWAP1 PUSH2 0x3F0 SWAP2 SWAP1 PUSH2 0x9E2 JUMP JUMPDEST DUP3 DUP2 DUP2 LT PUSH2 0x400 JUMPI PUSH2 0x400 PUSH2 0x9CE JUMP JUMPDEST SWAP1 POP PUSH1 0x20 MUL ADD CALLDATALOAD DUP5 SUB PUSH2 0x412 JUMPI PUSH1 0x1 SWAP2 POP JUMPDEST PUSH1 0x1 ADD PUSH2 0x39F JUMP JUMPDEST POP DUP1 PUSH1 0x1 EQ PUSH2 0x46F JUMPI PUSH1 0x40 MLOAD PUSH3 0x461BCD PUSH1 0xE5 SHL DUP2 MSTORE PUSH1 0x20 PUSH1 0x4 DUP3 ADD DUP2 SWAP1 MSTORE PUSH1 0x24 DUP3 ADD MSTORE PUSH32 0x7369626C696E6720696E7374616E63657320646F6573206E6F74206D61746368 PUSH1 0x44 DUP3 ADD MSTORE PUSH1 0x64 ADD PUSH1 0x40 MLOAD DUP1 SWAP2 SUB SWAP1 REVERT JUMPDEST PUSH0 SWAP4 POP PUSH0 JUMPDEST DUP10 DUP10 DUP5 DUP2 DUP2 LT PUSH2 0x486 JUMPI PUSH2 0x486 PUSH2 0x9CE JUMP JUMPDEST SWAP1 POP PUSH1 0x20 MUL DUP2 ADD SWAP1 PUSH2 0x498 SWAP2 SWAP1 PUSH2 0x9E2 JUMP JUMPDEST SWAP1 POP DUP2 LT ISZERO PUSH2 0x50D JUMPI DUP10 DUP10 DUP5 DUP2 DUP2 LT PUSH2 0x4B3 JUMPI PUSH2 0x4B3 PUSH2 0x9CE JUMP JUMPDEST SWAP1 POP PUSH1 0x20 MUL DUP2 ADD SWAP1 PUSH2 0x4C5 SWAP2 SWAP1 PUSH2 0x9E2 JUMP JUMPDEST DUP3 DUP2 DUP2 LT PUSH2 0x4D5 JUMPI PUSH2 0x4D5 PUSH2 0x9CE JUMP JUMPDEST SWAP1 POP PUSH1 0x20 MUL ADD CALLDATALOAD DUP7 DUP7 DUP1 PUSH2 0x4E8 SWAP1 PUSH2 0xA4F JUMP JUMPDEST SWAP8 POP DUP2 MLOAD DUP2 LT PUSH2 0x4FA JUMPI PUSH2 0x4FA PUSH2 0x9CE JUMP JUMPDEST PUSH1 0x20 SWAP1 DUP2 MUL SWAP2 SWAP1 SWAP2 ADD ADD MSTORE PUSH1 0x1 ADD PUSH2 0x474 JUMP JUMPDEST POP PUSH1 0x2 DUP3 DUP2 SLOAD DUP2 LT PUSH2 0x521 JUMPI PUSH2 0x521 PUSH2 0x9CE JUMP JUMPDEST SWAP1 PUSH0 MSTORE PUSH1 0x20 PUSH0 KECCAK256 ADD SLOAD DUP6 DUP6 DUP1 PUSH2 0x536 SWAP1 PUSH2 0xA4F JUMP JUMPDEST SWAP7 POP DUP2 MLOAD DUP2 LT PUSH2 0x548 JUMPI PUSH2 0x548 PUSH2 0x9CE JUMP JUMPDEST PUSH1 0x20 MUL PUSH1 0x20 ADD ADD DUP2 DUP2 MSTORE POP POP PUSH2 0x55E DUP6 DUP6 PUSH2 0x589 JUMP JUMPDEST SWAP3 POP POP PUSH1 0x1 ADD PUSH2 0x394 JUMP JUMPDEST POP PUSH0 DUP2 DUP2 MSTORE PUSH1 0x1 PUSH1 0x20 DUP2 SWAP1 MSTORE PUSH1 0x40 SWAP1 SWAP2 KECCAK256 SLOAD PUSH1 0xFF AND ISZERO ISZERO EQ PUSH2 0x240 JUMPI PUSH0 DUP1 REVERT JUMPDEST PUSH0 DUP1 PUSH2 0x596 DUP4 PUSH1 0x20 PUSH2 0xA67 JUMP JUMPDEST PUSH1 0x1 PUSH1 0x1 PUSH1 0x40 SHL SUB DUP2 GT ISZERO PUSH2 0x5AD JUMPI PUSH2 0x5AD PUSH2 0xA27 JUMP JUMPDEST PUSH1 0x40 MLOAD SWAP1 DUP1 DUP3 MSTORE DUP1 PUSH1 0x1F ADD PUSH1 0x1F NOT AND PUSH1 0x20 ADD DUP3 ADD PUSH1 0x40 MSTORE DUP1 ISZERO PUSH2 0x5D7 JUMPI PUSH1 0x20 DUP3 ADD DUP2 DUP1 CALLDATASIZE DUP4 CALLDATACOPY ADD SWAP1 POP JUMPDEST POP SWAP1 POP PUSH0 JUMPDEST DUP4 DUP2 LT ISZERO PUSH2 0x62B JUMPI PUSH0 PUSH2 0x5F0 DUP3 PUSH1 0x20 PUSH2 0xA67 JUMP JUMPDEST PUSH2 0x5FB SWAP1 PUSH1 0x20 PUSH2 0xA7E JUMP JUMPDEST SWAP1 POP PUSH0 DUP7 DUP4 DUP2 MLOAD DUP2 LT PUSH2 0x610 JUMPI PUSH2 0x610 PUSH2 0x9CE JUMP JUMPDEST PUSH1 0x20 SWAP1 DUP2 MUL SWAP2 SWAP1 SWAP2 ADD ADD MLOAD SWAP2 DUP5 ADD SWAP2 SWAP1 SWAP2 MSTORE POP PUSH1 0x1 ADD PUSH2 0x5DC JUMP JUMPDEST POP DUP1 MLOAD PUSH1 0x20 DUP3 ADD KECCAK256 PUSH2 0x65E SWAP1 PUSH32 0x30644E72E131A029B85045B68181585D2833E84879B9709143E1F593F0000001 SWAP1 PUSH2 0xA91 JUMP JUMPDEST SWAP2 POP POP JUMPDEST SWAP3 SWAP2 POP POP JUMP JUMPDEST DUP3 DUP1 SLOAD DUP3 DUP3 SSTORE SWAP1 PUSH0 MSTORE PUSH1 0x20 PUSH0 KECCAK256 SWAP1 DUP2 ADD SWAP3 DUP3 ISZERO PUSH2 0x6A1 JUMPI SWAP2 PUSH1 0x20 MUL DUP3 ADD JUMPDEST DUP3 DUP2 GT ISZERO PUSH2 0x6A1 JUMPI DUP3 CALLDATALOAD DUP3 SSTORE SWAP2 PUSH1 0x20 ADD SWAP2 SWAP1 PUSH1 0x1 ADD SWAP1 PUSH2 0x686 JUMP JUMPDEST POP PUSH2 0x6AD SWAP3 SWAP2 POP PUSH2 0x6B1 JUMP JUMPDEST POP SWAP1 JUMP JUMPDEST JUMPDEST DUP1 DUP3 GT ISZERO PUSH2 0x6AD JUMPI PUSH0 DUP2 SSTORE PUSH1 0x1 ADD PUSH2 0x6B2 JUMP JUMPDEST PUSH0 DUP1 DUP4 PUSH1 0x1F DUP5 ADD SLT PUSH2 0x6D5 JUMPI PUSH0 DUP1 REVERT JUMPDEST POP DUP2 CALLDATALOAD PUSH1 0x1 PUSH1 0x1 PUSH1 0x40 SHL SUB DUP2 GT ISZERO PUSH2 0x6EB JUMPI PUSH0 DUP1 REVERT JUMPDEST PUSH1 0x20 DUP4 ADD SWAP2 POP DUP4 PUSH1 0x20 DUP3 PUSH1 0x5 SHL DUP6 ADD ADD GT ISZERO PUSH2 0x705 JUMPI PUSH0 DUP1 REVERT JUMPDEST SWAP3 POP SWAP3 SWAP1 POP JUMP JUMPDEST PUSH0 DUP1 PUSH0 DUP1 PUSH0 DUP1 PUSH0 DUP1 PUSH1 0x80 DUP10 DUP12 SUB SLT ISZERO PUSH2 0x723 JUMPI PUSH0 DUP1 REVERT JUMPDEST DUP9 CALLDATALOAD PUSH1 0x1 PUSH1 0x1 PUSH1 0x40 SHL SUB DUP1 DUP3 GT ISZERO PUSH2 0x739 JUMPI PUSH0 DUP1 REVERT JUMPDEST PUSH2 0x745 DUP13 DUP4 DUP14 ADD PUSH2 0x6C5 JUMP JUMPDEST SWAP1 SWAP11 POP SWAP9 POP PUSH1 0x20 DUP12 ADD CALLDATALOAD SWAP2 POP DUP1 DUP3 GT ISZERO PUSH2 0x75D JUMPI PUSH0 DUP1 REVERT JUMPDEST PUSH2 0x769 DUP13 DUP4 DUP14 ADD PUSH2 0x6C5 JUMP JUMPDEST SWAP1 SWAP9 POP SWAP7 POP PUSH1 0x40 DUP12 ADD CALLDATALOAD SWAP2 POP DUP1 DUP3 GT ISZERO PUSH2 0x781 JUMPI PUSH0 DUP1 REVERT JUMPDEST PUSH2 0x78D DUP13 DUP4 DUP14 ADD PUSH2 0x6C5 JUMP JUMPDEST SWAP1 SWAP7 POP SWAP5 POP PUSH1 0x60 DUP12 ADD CALLDATALOAD SWAP2 POP DUP1 DUP3 GT ISZERO PUSH2 0x7A5 JUMPI PUSH0 DUP1 REVERT JUMPDEST POP PUSH2 0x7B2 DUP12 DUP3 DUP13 ADD PUSH2 0x6C5 JUMP JUMPDEST SWAP10 SWAP13 SWAP9 SWAP12 POP SWAP7 SWAP10 POP SWAP5 SWAP8 SWAP4 SWAP7 SWAP3 SWAP6 SWAP5 POP POP POP JUMP JUMPDEST PUSH0 DUP1 PUSH1 0x20 DUP4 DUP6 SUB SLT ISZERO PUSH2 0x7D7 JUMPI PUSH0 DUP1 REVERT JUMPDEST DUP3 CALLDATALOAD PUSH1 0x1 PUSH1 0x1 PUSH1 0x40 SHL SUB DUP2 GT ISZERO PUSH2 0x7EC JUMPI PUSH0 DUP1 REVERT JUMPDEST PUSH2 0x7F8 DUP6 DUP3 DUP7 ADD PUSH2 0x6C5 JUMP JUMPDEST SWAP1 SWAP7 SWAP1 SWAP6 POP SWAP4 POP POP POP POP JUMP JUMPDEST PUSH0 DUP1 PUSH0 DUP1 PUSH0 DUP1 PUSH1 0x60 DUP8 DUP10 SUB SLT ISZERO PUSH2 0x819 JUMPI PUSH0 DUP1 REVERT JUMPDEST DUP7 CALLDATALOAD PUSH1 0x1 PUSH1 0x1 PUSH1 0x40 SHL SUB DUP1 DUP3 GT ISZERO PUSH2 0x82F JUMPI PUSH0 DUP1 REVERT JUMPDEST PUSH2 0x83B DUP11 DUP4 DUP12 ADD PUSH2 0x6C5 JUMP JUMPDEST SWAP1 SWAP9 POP SWAP7 POP PUSH1 0x20 DUP10 ADD CALLDATALOAD SWAP2 POP DUP1 DUP3 GT ISZERO PUSH2 0x853 JUMPI PUSH0 DUP1 REVERT JUMPDEST PUSH2 0x85F DUP11 DUP4 DUP12 ADD PUSH2 0x6C5 JUMP JUMPDEST SWAP1 SWAP7 POP SWAP5 POP PUSH1 0x40 DUP10 ADD CALLDATALOAD SWAP2 POP DUP1 DUP3 GT ISZERO PUSH2 0x877 JUMPI PUSH0 DUP1 REVERT JUMPDEST POP PUSH2 0x884 DUP10 DUP3 DUP11 ADD PUSH2 0x6C5 JUMP JUMPDEST SWAP8 SWAP11 SWAP7 SWAP10 POP SWAP5 SWAP8 POP SWAP3 SWAP6 SWAP4 SWAP5 SWAP3 POP POP POP JUMP JUMPDEST PUSH0 PUSH1 0x20 DUP3 DUP5 SUB SLT ISZERO PUSH2 0x8A6 JUMPI PUSH0 DUP1 REVERT JUMPDEST DUP2 CALLDATALOAD PUSH1 0x1 PUSH1 0x1 PUSH1 0xA0 SHL SUB DUP2 AND DUP2 EQ PUSH2 0x8BC JUMPI PUSH0 DUP1 REVERT JUMPDEST SWAP4 SWAP3 POP POP POP JUMP JUMPDEST DUP2 DUP4 MSTORE PUSH0 PUSH1 0x1 PUSH1 0x1 PUSH1 0xFB SHL SUB DUP4 GT ISZERO PUSH2 0x8DA JUMPI PUSH0 DUP1 REVERT JUMPDEST DUP3 PUSH1 0x5 SHL DUP1 DUP4 PUSH1 0x20 DUP8 ADD CALLDATACOPY SWAP4 SWAP1 SWAP4 ADD PUSH1 0x20 ADD SWAP4 SWAP3 POP POP POP JUMP JUMPDEST PUSH1 0x80 DUP2 MSTORE PUSH0 PUSH2 0x906 PUSH1 0x80 DUP4 ADD DUP11 DUP13 PUSH2 0x8C3 JUMP JUMPDEST PUSH1 0x20 DUP4 DUP3 SUB DUP2 DUP6 ADD MSTORE PUSH2 0x91A DUP3 DUP11 DUP13 PUSH2 0x8C3 JUMP JUMPDEST SWAP2 POP DUP4 DUP3 SUB PUSH1 0x40 DUP6 ADD MSTORE PUSH2 0x92F DUP3 DUP9 DUP11 PUSH2 0x8C3 JUMP JUMPDEST DUP5 DUP2 SUB PUSH1 0x60 DUP7 ADD MSTORE DUP6 DUP2 MSTORE SWAP2 POP DUP1 DUP3 ADD PUSH1 0x5 DUP7 DUP2 SHL DUP5 ADD DUP4 ADD DUP9 PUSH0 JUMPDEST DUP10 DUP2 LT ISZERO PUSH2 0x9B9 JUMPI DUP7 DUP4 SUB PUSH1 0x1F NOT ADD DUP6 MSTORE DUP2 CALLDATALOAD CALLDATASIZE DUP13 SWAP1 SUB PUSH1 0x1E NOT ADD DUP2 SLT PUSH2 0x970 JUMPI PUSH0 DUP1 REVERT JUMPDEST DUP12 ADD DUP7 DUP2 ADD SWAP1 CALLDATALOAD PUSH1 0x1 PUSH1 0x1 PUSH1 0x40 SHL SUB DUP2 GT ISZERO PUSH2 0x98A JUMPI PUSH0 DUP1 REVERT JUMPDEST DUP1 DUP7 SHL CALLDATASIZE SUB DUP3 SGT ISZERO PUSH2 0x99A JUMPI PUSH0 DUP1 REVERT JUMPDEST PUSH2 0x9A5 DUP6 DUP3 DUP5 PUSH2 0x8C3 JUMP JUMPDEST SWAP7 DUP9 ADD SWAP7 SWAP5 POP POP POP SWAP1 DUP6 ADD SWAP1 PUSH1 0x1 ADD PUSH2 0x94B JUMP JUMPDEST POP SWAP1 SWAP16 SWAP15 POP POP POP POP POP POP POP POP POP POP POP POP POP POP POP JUMP JUMPDEST PUSH4 0x4E487B71 PUSH1 0xE0 SHL PUSH0 MSTORE PUSH1 0x32 PUSH1 0x4 MSTORE PUSH1 0x24 PUSH0 REVERT JUMPDEST PUSH0 DUP1 DUP4 CALLDATALOAD PUSH1 0x1E NOT DUP5 CALLDATASIZE SUB ADD DUP2 SLT PUSH2 0x9F7 JUMPI PUSH0 DUP1 REVERT JUMPDEST DUP4 ADD DUP1 CALLDATALOAD SWAP2 POP PUSH1 0x1 PUSH1 0x1 PUSH1 0x40 SHL SUB DUP3 GT ISZERO PUSH2 0xA10 JUMPI PUSH0 DUP1 REVERT JUMPDEST PUSH1 0x20 ADD SWAP2 POP PUSH1 0x5 DUP2 SWAP1 SHL CALLDATASIZE SUB DUP3 SGT ISZERO PUSH2 0x705 JUMPI PUSH0 DUP1 REVERT JUMPDEST PUSH4 0x4E487B71 PUSH1 0xE0 SHL PUSH0 MSTORE PUSH1 0x41 PUSH1 0x4 MSTORE PUSH1 0x24 PUSH0 REVERT JUMPDEST PUSH4 0x4E487B71 PUSH1 0xE0 SHL PUSH0 MSTORE PUSH1 0x11 PUSH1 0x4 MSTORE PUSH1 0x24 PUSH0 REVERT JUMPDEST PUSH0 PUSH1 0x1 DUP3 ADD PUSH2 0xA60 JUMPI PUSH2 0xA60 PUSH2 0xA3B JUMP JUMPDEST POP PUSH1 0x1 ADD SWAP1 JUMP JUMPDEST DUP1 DUP3 MUL DUP2 ISZERO DUP3 DUP3 DIV DUP5 EQ OR PUSH2 0x662 JUMPI PUSH2 0x662 PUSH2 0xA3B JUMP JUMPDEST DUP1 DUP3 ADD DUP1 DUP3 GT ISZERO PUSH2 0x662 JUMPI PUSH2 0x662 PUSH2 0xA3B JUMP JUMPDEST PUSH0 DUP3 PUSH2 0xAAB JUMPI PUSH4 0x4E487B71 PUSH1 0xE0 SHL PUSH0 MSTORE PUSH1 0x12 PUSH1 0x4 MSTORE PUSH1 0x24 PUSH0 REVERT JUMPDEST POP MOD SWAP1 JUMP INVALID LOG2 PUSH5 0x6970667358 0x22 SLT KECCAK256 NUMBER 0xD8 0xE5 0x4C 0x23 PUSH24 0x60639E068558962EEFA40D7531F3C333997852AB243688FD PUSH22 0x564736F6C6343000818003300000000000000000000 "
		},
		"gasEstimates": {
			"creation": {
				"codeDepositCost": "558000",
				"executionCost": "infinite",
				"totalCost": "infinite"
			},
			"external": {
				"check_verified_proof(uint256[],uint256[][],uint256[][])": "infinite",
				"register_proofs(uint256[],uint256[],uint256[],uint256[][])": "infinite",
				"set_round1_verifier_instances(uint256[])": "infinite",
				"set_verifier(address)": "24565"
			}
		},
		"methodIdentifiers": {
			"check_verified_proof(uint256[],uint256[][],uint256[][])": "cf571fbe",
			"register_proofs(uint256[],uint256[],uint256[],uint256[][])": "8f636faf",
			"set_round1_verifier_instances(uint256[])": "bc8ccf6f",
			"set_verifier(address)": "e37c66d1"
		}
	},
	"abi": [
		{
			"inputs": [
				{
					"internalType": "uint256[]",
					"name": "round1_verifier_instances",
					"type": "uint256[]"
				}
			],
			"stateMutability": "nonpayable",
			"type": "constructor"
		},
		{
			"anonymous": false,
			"inputs": [
				{
					"indexed": false,
					"internalType": "uint256",
					"name": "hash",
					"type": "uint256"
				}
			],
			"name": "ProofAck",
			"type": "event"
		},
		{
			"inputs": [
				{
					"internalType": "uint256[]",
					"name": "verify_instance",
					"type": "uint256[]"
				},
				{
					"internalType": "uint256[][]",
					"name": "sibling_instances",
					"type": "uint256[][]"
				},
				{
					"internalType": "uint256[][]",
					"name": "target_instances",
					"type": "uint256[][]"
				}
			],
			"name": "check_verified_proof",
			"outputs": [],
			"stateMutability": "view",
			"type": "function"
		},
		{
			"inputs": [
				{
					"internalType": "uint256[]",
					"name": "proof",
					"type": "uint256[]"
				},
				{
					"internalType": "uint256[]",
					"name": "verify_instance",
					"type": "uint256[]"
				},
				{
					"internalType": "uint256[]",
					"name": "aux",
					"type": "uint256[]"
				},
				{
					"internalType": "uint256[][]",
					"name": "instances",
					"type": "uint256[][]"
				}
			],
			"name": "register_proofs",
			"outputs": [],
			"stateMutability": "nonpayable",
			"type": "function"
		},
		{
			"inputs": [
				{
					"internalType": "uint256[]",
					"name": "verify_instance",
					"type": "uint256[]"
				}
			],
			"name": "set_round1_verifier_instances",
			"outputs": [],
			"stateMutability": "nonpayable",
			"type": "function"
		},
		{
			"inputs": [
				{
					"internalType": "address",
					"name": "vaddr",
					"type": "address"
				}
			],
			"name": "set_verifier",
			"outputs": [],
			"stateMutability": "nonpayable",
			"type": "function"
		}
	]
}