{
	"continuation-batcher/sol/contracts/AggregatorVerifierStep3.sol": {
		"AggregatorVerifierCoreStep3": {
			"abi": [
				{
					"inputs": [
						{
							"internalType": "uint256[]",
							"name": "transcript",
							"type": "uint256[]"
						},
						{
							"internalType": "uint256[]",
							"name": "aux",
							"type": "uint256[]"
						},
						{
							"internalType": "uint256[]",
							"name": "buf",
							"type": "uint256[]"
						}
					],
					"name": "verify_proof",
					"outputs": [
						{
							"internalType": "uint256[]",
							"name": "",
							"type": "uint256[]"
						}
					],
					"stateMutability": "view",
					"type": "function"
				}
			],
			"devdoc": {
				"kind": "dev",
				"methods": {},
				"version": 1
			},
			"evm": {
				"assembly": "    /* \"continuation-batcher/sol/contracts/AggregatorVerifierStep3.sol\":159:9045  contract AggregatorVerifierCoreStep3 {... */\n  mstore(0x40, 0x80)\n  callvalue\n  dup1\n  iszero\n  tag_1\n  jumpi\n  0x00\n  dup1\n  revert\ntag_1:\n  pop\n  dataSize(sub_0)\n  dup1\n  dataOffset(sub_0)\n  0x00\n  codecopy\n  0x00\n  return\nstop\n\nsub_0: assembly {\n        /* \"continuation-batcher/sol/contracts/AggregatorVerifierStep3.sol\":159:9045  contract AggregatorVerifierCoreStep3 {... */\n      mstore(0x40, 0x80)\n      callvalue\n      dup1\n      iszero\n      tag_1\n      jumpi\n      0x00\n      dup1\n      revert\n    tag_1:\n      pop\n      jumpi(tag_2, lt(calldatasize, 0x04))\n      shr(0xe0, calldataload(0x00))\n      dup1\n      0x96675190\n      eq\n      tag_3\n      jumpi\n    tag_2:\n      0x00\n      dup1\n      revert\n        /* \"continuation-batcher/sol/contracts/AggregatorVerifierStep3.sol\":202:9043  function verify_proof(... */\n    tag_3:\n      tag_4\n      tag_5\n      calldatasize\n      0x04\n      tag_6\n      jump\t// in\n    tag_5:\n      tag_7\n      jump\t// in\n    tag_4:\n      mload(0x40)\n      tag_8\n      swap2\n      swap1\n      tag_9\n      jump\t// in\n    tag_8:\n      mload(0x40)\n      dup1\n      swap2\n      sub\n      swap1\n      return\n    tag_7:\n        /* \"continuation-batcher/sol/contracts/AggregatorVerifierStep3.sol\":352:368  uint256[] memory */\n      0x60\n        /* \"continuation-batcher/sol/contracts/AggregatorVerifierStep3.sol\":403:480  12793304197070861322039157288499237384046564344843827632975863181383635531572 */\n      0x1c48c0ea276647a5c1c105fb335bf3d955f0b719b0fca4a5f9705382582f7734\n        /* \"continuation-batcher/sol/contracts/AggregatorVerifierStep3.sol\":482:559  17571581962002717034265812363741369648688853534557805980083744653945037885577 */\n      0x26d929b6e85e205eeaf2900c16b5b2bda852b24bc2fdc14861b03e3c617f9089\n        /* \"continuation-batcher/sol/contracts/AggregatorVerifierStep3.sol\":382:385  buf */\n      dup4\n        /* \"continuation-batcher/sol/contracts/AggregatorVerifierStep3.sol\":386:388  14 */\n      0x0e\n        /* \"continuation-batcher/sol/contracts/AggregatorVerifierStep3.sol\":382:389  buf[14] */\n      dup2\n      mload\n      dup2\n      lt\n      tag_12\n      jumpi\n      tag_12\n      tag_13\n      jump\t// in\n    tag_12:\n      0x20\n      mul\n      0x20\n      add\n      add\n        /* \"continuation-batcher/sol/contracts/AggregatorVerifierStep3.sol\":391:394  buf */\n      dup5\n        /* \"continuation-batcher/sol/contracts/AggregatorVerifierStep3.sol\":395:397  15 */\n      0x0f\n        /* \"continuation-batcher/sol/contracts/AggregatorVerifierStep3.sol\":391:398  buf[15] */\n      dup2\n      mload\n      dup2\n      lt\n      tag_15\n      jumpi\n      tag_15\n      tag_13\n      jump\t// in\n    tag_15:\n      0x20\n      swap1\n      dup2\n      mul\n      swap2\n      swap1\n      swap2\n      add\n      add\n        /* \"continuation-batcher/sol/contracts/AggregatorVerifierStep3.sol\":381:560  (buf[14], buf[15]) = (12793304197070861322039157288499237384046564344843827632975863181383635531572, 17571581962002717034265812363741369648688853534557805980083744653945037885577) */\n      swap2\n      swap1\n      swap2\n      mstore\n      mstore\n      0x00\n      dup1\n      mload\n      0x20\n      data_848f50338cc074da8d5d8c20099d6f9a52cdd4e857863a722476f697bca98a91\n      dup4\n      codecopy\n      dup2\n      mload\n      swap2\n      mstore\n        /* \"continuation-batcher/sol/contracts/AggregatorLib.sol\":289:366  21888242871839275222246405745257275088548364400416034343698204186575808495617 */\n      dup1\n        /* \"continuation-batcher/sol/contracts/AggregatorVerifierStep3.sol\":604:607  buf */\n      dup4\n        /* \"continuation-batcher/sol/contracts/AggregatorVerifierStep3.sol\":608:609  7 */\n      0x07\n        /* \"continuation-batcher/sol/contracts/AggregatorVerifierStep3.sol\":604:610  buf[7] */\n      dup2\n      mload\n      dup2\n      lt\n      tag_22\n      jumpi\n      tag_22\n      tag_13\n      jump\t// in\n    tag_22:\n      0x20\n      mul\n      0x20\n      add\n      add\n      mload\n        /* \"continuation-batcher/sol/contracts/AggregatorVerifierStep3.sol\":595:598  buf */\n      dup5\n        /* \"continuation-batcher/sol/contracts/AggregatorVerifierStep3.sol\":599:601  20 */\n      0x14\n        /* \"continuation-batcher/sol/contracts/AggregatorVerifierStep3.sol\":595:602  buf[20] */\n      dup2\n      mload\n      dup2\n      lt\n      tag_24\n      jumpi\n      tag_24\n      tag_13\n      jump\t// in\n    tag_24:\n      0x20\n      mul\n      0x20\n      add\n      add\n      mload\n        /* \"continuation-batcher/sol/contracts/AggregatorVerifierStep3.sol\":588:632  mulmod(buf[20], buf[7], AggregatorLib.q_mod) */\n      mulmod\n        /* \"continuation-batcher/sol/contracts/AggregatorVerifierStep3.sol\":579:582  buf */\n      dup4\n        /* \"continuation-batcher/sol/contracts/AggregatorVerifierStep3.sol\":583:585  21 */\n      0x15\n        /* \"continuation-batcher/sol/contracts/AggregatorVerifierStep3.sol\":579:586  buf[21] */\n      dup2\n      mload\n      dup2\n      lt\n      tag_26\n      jumpi\n      tag_26\n      tag_13\n      jump\t// in\n    tag_26:\n      0x20\n      mul\n      0x20\n      add\n      add\n      mload\n        /* \"continuation-batcher/sol/contracts/AggregatorVerifierStep3.sol\":572:654  mulmod(buf[21], mulmod(buf[20], buf[7], AggregatorLib.q_mod), AggregatorLib.q_mod) */\n      mulmod\n        /* \"continuation-batcher/sol/contracts/AggregatorVerifierStep3.sol\":562:565  buf */\n      dup3\n        /* \"continuation-batcher/sol/contracts/AggregatorVerifierStep3.sol\":566:568  16 */\n      0x10\n        /* \"continuation-batcher/sol/contracts/AggregatorVerifierStep3.sol\":562:569  buf[16] */\n      dup2\n      mload\n      dup2\n      lt\n      tag_28\n      jumpi\n      tag_28\n      tag_13\n      jump\t// in\n    tag_28:\n      0x20\n      mul\n      0x20\n      add\n      add\n        /* \"continuation-batcher/sol/contracts/AggregatorVerifierStep3.sol\":562:654  buf[16] = mulmod(buf[21], mulmod(buf[20], buf[7], AggregatorLib.q_mod), AggregatorLib.q_mod) */\n      dup2\n      dup2\n      mstore\n      pop\n      pop\n        /* \"continuation-batcher/sol/contracts/AggregatorVerifierStep3.sol\":656:690  AggregatorLib.ecc_mul_add(buf, 12) */\n      tag_29\n        /* \"continuation-batcher/sol/contracts/AggregatorVerifierStep3.sol\":682:685  buf */\n      dup3\n        /* \"continuation-batcher/sol/contracts/AggregatorVerifierStep3.sol\":687:689  12 */\n      0x0c\n        /* \"continuation-batcher/sol/contracts/AggregatorVerifierStep3.sol\":656:681  AggregatorLib.ecc_mul_add */\n      tag_30\n        /* \"continuation-batcher/sol/contracts/AggregatorVerifierStep3.sol\":656:690  AggregatorLib.ecc_mul_add(buf, 12) */\n      jump\t// in\n    tag_29:\n        /* \"continuation-batcher/sol/contracts/AggregatorVerifierStep3.sol\":714:791  20430099892221221788489174454880322911452077551124738711834177490405184066261 */\n      0x2d2b06d9cb3a00c6717095ae1dbd56c44c070e3cc8019bb6561931e62c3152d5\n        /* \"continuation-batcher/sol/contracts/AggregatorVerifierStep3.sol\":793:869  4209737612668921092017398269111494293661793177666451625745910475390664858930 */\n      0x094ea08674f88a88873a3f6a65e1280068f7cf699adf5ae8d077cc4856f45d32\n        /* \"continuation-batcher/sol/contracts/AggregatorVerifierStep3.sol\":693:696  buf */\n      dup4\n        /* \"continuation-batcher/sol/contracts/AggregatorVerifierStep3.sol\":697:699  14 */\n      0x0e\n        /* \"continuation-batcher/sol/contracts/AggregatorVerifierStep3.sol\":693:700  buf[14] */\n      dup2\n      mload\n      dup2\n      lt\n      tag_32\n      jumpi\n      tag_32\n      tag_13\n      jump\t// in\n    tag_32:\n      0x20\n      mul\n      0x20\n      add\n      add\n        /* \"continuation-batcher/sol/contracts/AggregatorVerifierStep3.sol\":702:705  buf */\n      dup5\n        /* \"continuation-batcher/sol/contracts/AggregatorVerifierStep3.sol\":706:708  15 */\n      0x0f\n        /* \"continuation-batcher/sol/contracts/AggregatorVerifierStep3.sol\":702:709  buf[15] */\n      dup2\n      mload\n      dup2\n      lt\n      tag_34\n      jumpi\n      tag_34\n      tag_13\n      jump\t// in\n    tag_34:\n      0x20\n      swap1\n      dup2\n      mul\n      swap2\n      swap1\n      swap2\n      add\n      add\n        /* \"continuation-batcher/sol/contracts/AggregatorVerifierStep3.sol\":692:870  (buf[14], buf[15]) = (20430099892221221788489174454880322911452077551124738711834177490405184066261, 4209737612668921092017398269111494293661793177666451625745910475390664858930) */\n      swap2\n      swap1\n      swap2\n      mstore\n      mstore\n      0x00\n      dup1\n      mload\n      0x20\n      data_848f50338cc074da8d5d8c20099d6f9a52cdd4e857863a722476f697bca98a91\n      dup4\n      codecopy\n      dup2\n      mload\n      swap2\n      mstore\n        /* \"continuation-batcher/sol/contracts/AggregatorVerifierStep3.sol\":898:901  buf */\n      dup3\n        /* \"continuation-batcher/sol/contracts/AggregatorVerifierStep3.sol\":902:904  20 */\n      0x14\n        /* \"continuation-batcher/sol/contracts/AggregatorVerifierStep3.sol\":898:905  buf[20] */\n      dup2\n      mload\n      dup2\n      lt\n      tag_38\n      jumpi\n      tag_38\n      tag_13\n      jump\t// in\n    tag_38:\n      0x20\n      mul\n      0x20\n      add\n      add\n      mload\n        /* \"continuation-batcher/sol/contracts/AggregatorVerifierStep3.sol\":889:892  buf */\n      dup4\n        /* \"continuation-batcher/sol/contracts/AggregatorVerifierStep3.sol\":893:895  21 */\n      0x15\n        /* \"continuation-batcher/sol/contracts/AggregatorVerifierStep3.sol\":889:896  buf[21] */\n      dup2\n      mload\n      dup2\n      lt\n      tag_40\n      jumpi\n      tag_40\n      tag_13\n      jump\t// in\n    tag_40:\n      0x20\n      mul\n      0x20\n      add\n      add\n      mload\n        /* \"continuation-batcher/sol/contracts/AggregatorVerifierStep3.sol\":882:927  mulmod(buf[21], buf[20], AggregatorLib.q_mod) */\n      mulmod\n        /* \"continuation-batcher/sol/contracts/AggregatorVerifierStep3.sol\":872:875  buf */\n      dup3\n        /* \"continuation-batcher/sol/contracts/AggregatorVerifierStep3.sol\":876:878  16 */\n      0x10\n        /* \"continuation-batcher/sol/contracts/AggregatorVerifierStep3.sol\":872:879  buf[16] */\n      dup2\n      mload\n      dup2\n      lt\n      tag_42\n      jumpi\n      tag_42\n      tag_13\n      jump\t// in\n    tag_42:\n      0x20\n      mul\n      0x20\n      add\n      add\n        /* \"continuation-batcher/sol/contracts/AggregatorVerifierStep3.sol\":872:927  buf[16] = mulmod(buf[21], buf[20], AggregatorLib.q_mod) */\n      dup2\n      dup2\n      mstore\n      pop\n      pop\n        /* \"continuation-batcher/sol/contracts/AggregatorVerifierStep3.sol\":929:963  AggregatorLib.ecc_mul_add(buf, 12) */\n      tag_43\n        /* \"continuation-batcher/sol/contracts/AggregatorVerifierStep3.sol\":955:958  buf */\n      dup3\n        /* \"continuation-batcher/sol/contracts/AggregatorVerifierStep3.sol\":960:962  12 */\n      0x0c\n        /* \"continuation-batcher/sol/contracts/AggregatorVerifierStep3.sol\":929:954  AggregatorLib.ecc_mul_add */\n      tag_30\n        /* \"continuation-batcher/sol/contracts/AggregatorVerifierStep3.sol\":929:963  AggregatorLib.ecc_mul_add(buf, 12) */\n      jump\t// in\n    tag_43:\n      0x00\n      dup1\n      mload\n      0x20\n      data_848f50338cc074da8d5d8c20099d6f9a52cdd4e857863a722476f697bca98a91\n      dup4\n      codecopy\n      dup2\n      mload\n      swap2\n      mstore\n        /* \"continuation-batcher/sol/contracts/AggregatorVerifierStep3.sol\":991:994  buf */\n      dup3\n        /* \"continuation-batcher/sol/contracts/AggregatorVerifierStep3.sol\":995:997  23 */\n      0x17\n        /* \"continuation-batcher/sol/contracts/AggregatorVerifierStep3.sol\":991:998  buf[23] */\n      dup2\n      mload\n      dup2\n      lt\n      tag_47\n      jumpi\n      tag_47\n      tag_13\n      jump\t// in\n    tag_47:\n      0x20\n      mul\n      0x20\n      add\n      add\n      mload\n        /* \"continuation-batcher/sol/contracts/AggregatorVerifierStep3.sol\":982:985  buf */\n      dup4\n        /* \"continuation-batcher/sol/contracts/AggregatorVerifierStep3.sol\":986:988  27 */\n      0x1b\n        /* \"continuation-batcher/sol/contracts/AggregatorVerifierStep3.sol\":982:989  buf[27] */\n      dup2\n      mload\n      dup2\n      lt\n      tag_49\n      jumpi\n      tag_49\n      tag_13\n      jump\t// in\n    tag_49:\n      0x20\n      mul\n      0x20\n      add\n      add\n      mload\n        /* \"continuation-batcher/sol/contracts/AggregatorVerifierStep3.sol\":975:1020  mulmod(buf[27], buf[23], AggregatorLib.q_mod) */\n      mulmod\n        /* \"continuation-batcher/sol/contracts/AggregatorVerifierStep3.sol\":965:968  buf */\n      dup3\n        /* \"continuation-batcher/sol/contracts/AggregatorVerifierStep3.sol\":969:971  20 */\n      0x14\n        /* \"continuation-batcher/sol/contracts/AggregatorVerifierStep3.sol\":965:972  buf[20] */\n      dup2\n      mload\n      dup2\n      lt\n      tag_51\n      jumpi\n      tag_51\n      tag_13\n      jump\t// in\n    tag_51:\n      0x20\n      mul\n      0x20\n      add\n      add\n        /* \"continuation-batcher/sol/contracts/AggregatorVerifierStep3.sol\":965:1020  buf[20] = mulmod(buf[27], buf[23], AggregatorLib.q_mod) */\n      dup2\n      dup2\n      mstore\n      pop\n      pop\n        /* \"continuation-batcher/sol/contracts/AggregatorVerifierStep3.sol\":1044:1121  14238712458989771409578010418116603854100580200684952529603773615205255567430 */\n      0x1f7ad35e4ebb414326280310d9e81561aa46b52f42fbd274f18ef34f17455846\n        /* \"continuation-batcher/sol/contracts/AggregatorVerifierStep3.sol\":1123:1199  1306641168927927773073078898856599071402908037270650984853389030764923858724 */\n      0x02e3885e9af4338b8931b5b1b0e0f2e55432cd10919b3a5aed73f12297302f24\n        /* \"continuation-batcher/sol/contracts/AggregatorVerifierStep3.sol\":1023:1026  buf */\n      dup4\n        /* \"continuation-batcher/sol/contracts/AggregatorVerifierStep3.sol\":1027:1029  14 */\n      0x0e\n        /* \"continuation-batcher/sol/contracts/AggregatorVerifierStep3.sol\":1023:1030  buf[14] */\n      dup2\n      mload\n      dup2\n      lt\n      tag_53\n      jumpi\n      tag_53\n      tag_13\n      jump\t// in\n    tag_53:\n      0x20\n      mul\n      0x20\n      add\n      add\n        /* \"continuation-batcher/sol/contracts/AggregatorVerifierStep3.sol\":1032:1035  buf */\n      dup5\n        /* \"continuation-batcher/sol/contracts/AggregatorVerifierStep3.sol\":1036:1038  15 */\n      0x0f\n        /* \"continuation-batcher/sol/contracts/AggregatorVerifierStep3.sol\":1032:1039  buf[15] */\n      dup2\n      mload\n      dup2\n      lt\n      tag_55\n      jumpi\n      tag_55\n      tag_13\n      jump\t// in\n    tag_55:\n      0x20\n      swap1\n      dup2\n      mul\n      swap2\n      swap1\n      swap2\n      add\n      add\n        /* \"continuation-batcher/sol/contracts/AggregatorVerifierStep3.sol\":1022:1200  (buf[14], buf[15]) = (14238712458989771409578010418116603854100580200684952529603773615205255567430, 1306641168927927773073078898856599071402908037270650984853389030764923858724) */\n      swap2\n      swap1\n      swap2\n      mstore\n      mstore\n      0x00\n      dup1\n      mload\n      0x20\n      data_848f50338cc074da8d5d8c20099d6f9a52cdd4e857863a722476f697bca98a91\n      dup4\n      codecopy\n      dup2\n      mload\n      swap2\n      mstore\n        /* \"continuation-batcher/sol/contracts/AggregatorLib.sol\":289:366  21888242871839275222246405745257275088548364400416034343698204186575808495617 */\n      dup1\n        /* \"continuation-batcher/sol/contracts/AggregatorVerifierStep3.sol\":1244:1247  buf */\n      dup4\n        /* \"continuation-batcher/sol/contracts/AggregatorVerifierStep3.sol\":1248:1249  7 */\n      0x07\n        /* \"continuation-batcher/sol/contracts/AggregatorVerifierStep3.sol\":1244:1250  buf[7] */\n      dup2\n      mload\n      dup2\n      lt\n      tag_61\n      jumpi\n      tag_61\n      tag_13\n      jump\t// in\n    tag_61:\n      0x20\n      mul\n      0x20\n      add\n      add\n      mload\n        /* \"continuation-batcher/sol/contracts/AggregatorVerifierStep3.sol\":1235:1238  buf */\n      dup5\n        /* \"continuation-batcher/sol/contracts/AggregatorVerifierStep3.sol\":1239:1241  20 */\n      0x14\n        /* \"continuation-batcher/sol/contracts/AggregatorVerifierStep3.sol\":1235:1242  buf[20] */\n      dup2\n      mload\n      dup2\n      lt\n      tag_63\n      jumpi\n      tag_63\n      tag_13\n      jump\t// in\n    tag_63:\n      0x20\n      mul\n      0x20\n      add\n      add\n      mload\n        /* \"continuation-batcher/sol/contracts/AggregatorVerifierStep3.sol\":1228:1272  mulmod(buf[20], buf[7], AggregatorLib.q_mod) */\n      mulmod\n        /* \"continuation-batcher/sol/contracts/AggregatorVerifierStep3.sol\":1219:1222  buf */\n      dup4\n        /* \"continuation-batcher/sol/contracts/AggregatorVerifierStep3.sol\":1223:1225  21 */\n      0x15\n        /* \"continuation-batcher/sol/contracts/AggregatorVerifierStep3.sol\":1219:1226  buf[21] */\n      dup2\n      mload\n      dup2\n      lt\n      tag_65\n      jumpi\n      tag_65\n      tag_13\n      jump\t// in\n    tag_65:\n      0x20\n      mul\n      0x20\n      add\n      add\n      mload\n        /* \"continuation-batcher/sol/contracts/AggregatorVerifierStep3.sol\":1212:1294  mulmod(buf[21], mulmod(buf[20], buf[7], AggregatorLib.q_mod), AggregatorLib.q_mod) */\n      mulmod\n        /* \"continuation-batcher/sol/contracts/AggregatorVerifierStep3.sol\":1202:1205  buf */\n      dup3\n        /* \"continuation-batcher/sol/contracts/AggregatorVerifierStep3.sol\":1206:1208  16 */\n      0x10\n        /* \"continuation-batcher/sol/contracts/AggregatorVerifierStep3.sol\":1202:1209  buf[16] */\n      dup2\n      mload\n      dup2\n      lt\n      tag_67\n      jumpi\n      tag_67\n      tag_13\n      jump\t// in\n    tag_67:\n      0x20\n      mul\n      0x20\n      add\n      add\n        /* \"continuation-batcher/sol/contracts/AggregatorVerifierStep3.sol\":1202:1294  buf[16] = mulmod(buf[21], mulmod(buf[20], buf[7], AggregatorLib.q_mod), AggregatorLib.q_mod) */\n      dup2\n      dup2\n      mstore\n      pop\n      pop\n        /* \"continuation-batcher/sol/contracts/AggregatorVerifierStep3.sol\":1296:1330  AggregatorLib.ecc_mul_add(buf, 12) */\n      tag_68\n        /* \"continuation-batcher/sol/contracts/AggregatorVerifierStep3.sol\":1322:1325  buf */\n      dup3\n        /* \"continuation-batcher/sol/contracts/AggregatorVerifierStep3.sol\":1327:1329  12 */\n      0x0c\n        /* \"continuation-batcher/sol/contracts/AggregatorVerifierStep3.sol\":1296:1321  AggregatorLib.ecc_mul_add */\n      tag_30\n        /* \"continuation-batcher/sol/contracts/AggregatorVerifierStep3.sol\":1296:1330  AggregatorLib.ecc_mul_add(buf, 12) */\n      jump\t// in\n    tag_68:\n        /* \"continuation-batcher/sol/contracts/AggregatorVerifierStep3.sol\":1354:1430  5388356577192600751694710397998770521684413305466003676796426721151588324894 */\n      0x0be9b3a5950af048778dbfef6e2c2152ba531174881c2b338dcab3dc2f01561e\n        /* \"continuation-batcher/sol/contracts/AggregatorVerifierStep3.sol\":1432:1508  7643830828982188115150657182645542832785261676734263018085050085190036262072 */\n      0x10e6414341ba4740c8efd22fe345021a8ee6452796bf1946418ed05bdb128cb8\n        /* \"continuation-batcher/sol/contracts/AggregatorVerifierStep3.sol\":1333:1336  buf */\n      dup4\n        /* \"continuation-batcher/sol/contracts/AggregatorVerifierStep3.sol\":1337:1339  14 */\n      0x0e\n        /* \"continuation-batcher/sol/contracts/AggregatorVerifierStep3.sol\":1333:1340  buf[14] */\n      dup2\n      mload\n      dup2\n      lt\n      tag_70\n      jumpi\n      tag_70\n      tag_13\n      jump\t// in\n    tag_70:\n      0x20\n      mul\n      0x20\n      add\n      add\n        /* \"continuation-batcher/sol/contracts/AggregatorVerifierStep3.sol\":1342:1345  buf */\n      dup5\n        /* \"continuation-batcher/sol/contracts/AggregatorVerifierStep3.sol\":1346:1348  15 */\n      0x0f\n        /* \"continuation-batcher/sol/contracts/AggregatorVerifierStep3.sol\":1342:1349  buf[15] */\n      dup2\n      mload\n      dup2\n      lt\n      tag_72\n      jumpi\n      tag_72\n      tag_13\n      jump\t// in\n    tag_72:\n      0x20\n      swap1\n      dup2\n      mul\n      swap2\n      swap1\n      swap2\n      add\n      add\n        /* \"continuation-batcher/sol/contracts/AggregatorVerifierStep3.sol\":1332:1509  (buf[14], buf[15]) = (5388356577192600751694710397998770521684413305466003676796426721151588324894, 7643830828982188115150657182645542832785261676734263018085050085190036262072) */\n      swap2\n      swap1\n      swap2\n      mstore\n      mstore\n      0x00\n      dup1\n      mload\n      0x20\n      data_848f50338cc074da8d5d8c20099d6f9a52cdd4e857863a722476f697bca98a91\n      dup4\n      codecopy\n      dup2\n      mload\n      swap2\n      mstore\n        /* \"continuation-batcher/sol/contracts/AggregatorVerifierStep3.sol\":1537:1540  buf */\n      dup3\n        /* \"continuation-batcher/sol/contracts/AggregatorVerifierStep3.sol\":1541:1543  20 */\n      0x14\n        /* \"continuation-batcher/sol/contracts/AggregatorVerifierStep3.sol\":1537:1544  buf[20] */\n      dup2\n      mload\n      dup2\n      lt\n      tag_76\n      jumpi\n      tag_76\n      tag_13\n      jump\t// in\n    tag_76:\n      0x20\n      mul\n      0x20\n      add\n      add\n      mload\n        /* \"continuation-batcher/sol/contracts/AggregatorVerifierStep3.sol\":1528:1531  buf */\n      dup4\n        /* \"continuation-batcher/sol/contracts/AggregatorVerifierStep3.sol\":1532:1534  21 */\n      0x15\n        /* \"continuation-batcher/sol/contracts/AggregatorVerifierStep3.sol\":1528:1535  buf[21] */\n      dup2\n      mload\n      dup2\n      lt\n      tag_78\n      jumpi\n      tag_78\n      tag_13\n      jump\t// in\n    tag_78:\n      0x20\n      mul\n      0x20\n      add\n      add\n      mload\n        /* \"continuation-batcher/sol/contracts/AggregatorVerifierStep3.sol\":1521:1566  mulmod(buf[21], buf[20], AggregatorLib.q_mod) */\n      mulmod\n        /* \"continuation-batcher/sol/contracts/AggregatorVerifierStep3.sol\":1511:1514  buf */\n      dup3\n        /* \"continuation-batcher/sol/contracts/AggregatorVerifierStep3.sol\":1515:1517  16 */\n      0x10\n        /* \"continuation-batcher/sol/contracts/AggregatorVerifierStep3.sol\":1511:1518  buf[16] */\n      dup2\n      mload\n      dup2\n      lt\n      tag_80\n      jumpi\n      tag_80\n      tag_13\n      jump\t// in\n    tag_80:\n      0x20\n      mul\n      0x20\n      add\n      add\n        /* \"continuation-batcher/sol/contracts/AggregatorVerifierStep3.sol\":1511:1566  buf[16] = mulmod(buf[21], buf[20], AggregatorLib.q_mod) */\n      dup2\n      dup2\n      mstore\n      pop\n      pop\n        /* \"continuation-batcher/sol/contracts/AggregatorVerifierStep3.sol\":1568:1602  AggregatorLib.ecc_mul_add(buf, 12) */\n      tag_81\n        /* \"continuation-batcher/sol/contracts/AggregatorVerifierStep3.sol\":1594:1597  buf */\n      dup3\n        /* \"continuation-batcher/sol/contracts/AggregatorVerifierStep3.sol\":1599:1601  12 */\n      0x0c\n        /* \"continuation-batcher/sol/contracts/AggregatorVerifierStep3.sol\":1568:1593  AggregatorLib.ecc_mul_add */\n      tag_30\n        /* \"continuation-batcher/sol/contracts/AggregatorVerifierStep3.sol\":1568:1602  AggregatorLib.ecc_mul_add(buf, 12) */\n      jump\t// in\n    tag_81:\n        /* \"continuation-batcher/sol/contracts/AggregatorVerifierStep3.sol\":1626:1702  1798961746561967479567644880140724986369805900696929724081637178131982117765 */\n      0x03fa2d1fc08270af280b83e485a97295d4014a057a1159f45302b98b2b94eb85\n        /* \"continuation-batcher/sol/contracts/AggregatorVerifierStep3.sol\":1704:1780  2618576397476061590762139877122954353752484138743931086624817505233231651716 */\n      0x05ca0fcccbae7c1647b2f5361fba0dc5bf909d0e8ba4c0d8d72654b2cd4ba384\n        /* \"continuation-batcher/sol/contracts/AggregatorVerifierStep3.sol\":1605:1608  buf */\n      dup4\n        /* \"continuation-batcher/sol/contracts/AggregatorVerifierStep3.sol\":1609:1611  14 */\n      0x0e\n        /* \"continuation-batcher/sol/contracts/AggregatorVerifierStep3.sol\":1605:1612  buf[14] */\n      dup2\n      mload\n      dup2\n      lt\n      tag_83\n      jumpi\n      tag_83\n      tag_13\n      jump\t// in\n    tag_83:\n      0x20\n      mul\n      0x20\n      add\n      add\n        /* \"continuation-batcher/sol/contracts/AggregatorVerifierStep3.sol\":1614:1617  buf */\n      dup5\n        /* \"continuation-batcher/sol/contracts/AggregatorVerifierStep3.sol\":1618:1620  15 */\n      0x0f\n        /* \"continuation-batcher/sol/contracts/AggregatorVerifierStep3.sol\":1614:1621  buf[15] */\n      dup2\n      mload\n      dup2\n      lt\n      tag_85\n      jumpi\n      tag_85\n      tag_13\n      jump\t// in\n    tag_85:\n      0x20\n      swap1\n      dup2\n      mul\n      swap2\n      swap1\n      swap2\n      add\n      add\n        /* \"continuation-batcher/sol/contracts/AggregatorVerifierStep3.sol\":1604:1781  (buf[14], buf[15]) = (1798961746561967479567644880140724986369805900696929724081637178131982117765, 2618576397476061590762139877122954353752484138743931086624817505233231651716) */\n      swap2\n      swap1\n      swap2\n      mstore\n      mstore\n      0x00\n      dup1\n      mload\n      0x20\n      data_848f50338cc074da8d5d8c20099d6f9a52cdd4e857863a722476f697bca98a91\n      dup4\n      codecopy\n      dup2\n      mload\n      swap2\n      mstore\n        /* \"continuation-batcher/sol/contracts/AggregatorLib.sol\":289:366  21888242871839275222246405745257275088548364400416034343698204186575808495617 */\n      dup1\n        /* \"continuation-batcher/sol/contracts/AggregatorVerifierStep3.sol\":1825:1828  buf */\n      dup4\n        /* \"continuation-batcher/sol/contracts/AggregatorVerifierStep3.sol\":1829:1830  7 */\n      0x07\n        /* \"continuation-batcher/sol/contracts/AggregatorVerifierStep3.sol\":1825:1831  buf[7] */\n      dup2\n      mload\n      dup2\n      lt\n      tag_91\n      jumpi\n      tag_91\n      tag_13\n      jump\t// in\n    tag_91:\n      0x20\n      mul\n      0x20\n      add\n      add\n      mload\n        /* \"continuation-batcher/sol/contracts/AggregatorVerifierStep3.sol\":1816:1819  buf */\n      dup5\n        /* \"continuation-batcher/sol/contracts/AggregatorVerifierStep3.sol\":1820:1822  27 */\n      0x1b\n        /* \"continuation-batcher/sol/contracts/AggregatorVerifierStep3.sol\":1816:1823  buf[27] */\n      dup2\n      mload\n      dup2\n      lt\n      tag_93\n      jumpi\n      tag_93\n      tag_13\n      jump\t// in\n    tag_93:\n      0x20\n      mul\n      0x20\n      add\n      add\n      mload\n        /* \"continuation-batcher/sol/contracts/AggregatorVerifierStep3.sol\":1809:1853  mulmod(buf[27], buf[7], AggregatorLib.q_mod) */\n      mulmod\n        /* \"continuation-batcher/sol/contracts/AggregatorVerifierStep3.sol\":1800:1803  buf */\n      dup4\n        /* \"continuation-batcher/sol/contracts/AggregatorVerifierStep3.sol\":1804:1806  21 */\n      0x15\n        /* \"continuation-batcher/sol/contracts/AggregatorVerifierStep3.sol\":1800:1807  buf[21] */\n      dup2\n      mload\n      dup2\n      lt\n      tag_95\n      jumpi\n      tag_95\n      tag_13\n      jump\t// in\n    tag_95:\n      0x20\n      mul\n      0x20\n      add\n      add\n      mload\n        /* \"continuation-batcher/sol/contracts/AggregatorVerifierStep3.sol\":1793:1875  mulmod(buf[21], mulmod(buf[27], buf[7], AggregatorLib.q_mod), AggregatorLib.q_mod) */\n      mulmod\n        /* \"continuation-batcher/sol/contracts/AggregatorVerifierStep3.sol\":1783:1786  buf */\n      dup3\n        /* \"continuation-batcher/sol/contracts/AggregatorVerifierStep3.sol\":1787:1789  16 */\n      0x10\n        /* \"continuation-batcher/sol/contracts/AggregatorVerifierStep3.sol\":1783:1790  buf[16] */\n      dup2\n      mload\n      dup2\n      lt\n      tag_97\n      jumpi\n      tag_97\n      tag_13\n      jump\t// in\n    tag_97:\n      0x20\n      mul\n      0x20\n      add\n      add\n        /* \"continuation-batcher/sol/contracts/AggregatorVerifierStep3.sol\":1783:1875  buf[16] = mulmod(buf[21], mulmod(buf[27], buf[7], AggregatorLib.q_mod), AggregatorLib.q_mod) */\n      dup2\n      dup2\n      mstore\n      pop\n      pop\n        /* \"continuation-batcher/sol/contracts/AggregatorVerifierStep3.sol\":1877:1911  AggregatorLib.ecc_mul_add(buf, 12) */\n      tag_98\n        /* \"continuation-batcher/sol/contracts/AggregatorVerifierStep3.sol\":1903:1906  buf */\n      dup3\n        /* \"continuation-batcher/sol/contracts/AggregatorVerifierStep3.sol\":1908:1910  12 */\n      0x0c\n        /* \"continuation-batcher/sol/contracts/AggregatorVerifierStep3.sol\":1877:1902  AggregatorLib.ecc_mul_add */\n      tag_30\n        /* \"continuation-batcher/sol/contracts/AggregatorVerifierStep3.sol\":1877:1911  AggregatorLib.ecc_mul_add(buf, 12) */\n      jump\t// in\n    tag_98:\n        /* \"continuation-batcher/sol/contracts/AggregatorVerifierStep3.sol\":1935:2011  1099371261920955167139524208283510236107330129179431156913881909079488667285 */\n      0x026e38da774fd6ae82b1435daba8b9a8d5b42d0cee69607cc380e534cb411e95\n        /* \"continuation-batcher/sol/contracts/AggregatorVerifierStep3.sol\":2013:2089  9713368225992310437014942438941637371063471117139600223739723215028298119761 */\n      0x15799253ad6bb04874c9c5665e8aa165ed26028b00b75bdf8fcd461e3cfafa51\n        /* \"continuation-batcher/sol/contracts/AggregatorVerifierStep3.sol\":1914:1917  buf */\n      dup4\n        /* \"continuation-batcher/sol/contracts/AggregatorVerifierStep3.sol\":1918:1920  14 */\n      0x0e\n        /* \"continuation-batcher/sol/contracts/AggregatorVerifierStep3.sol\":1914:1921  buf[14] */\n      dup2\n      mload\n      dup2\n      lt\n      tag_100\n      jumpi\n      tag_100\n      tag_13\n      jump\t// in\n    tag_100:\n      0x20\n      mul\n      0x20\n      add\n      add\n        /* \"continuation-batcher/sol/contracts/AggregatorVerifierStep3.sol\":1923:1926  buf */\n      dup5\n        /* \"continuation-batcher/sol/contracts/AggregatorVerifierStep3.sol\":1927:1929  15 */\n      0x0f\n        /* \"continuation-batcher/sol/contracts/AggregatorVerifierStep3.sol\":1923:1930  buf[15] */\n      dup2\n      mload\n      dup2\n      lt\n      tag_102\n      jumpi\n      tag_102\n      tag_13\n      jump\t// in\n    tag_102:\n      0x20\n      swap1\n      dup2\n      mul\n      swap2\n      swap1\n      swap2\n      add\n      add\n        /* \"continuation-batcher/sol/contracts/AggregatorVerifierStep3.sol\":1913:2090  (buf[14], buf[15]) = (1099371261920955167139524208283510236107330129179431156913881909079488667285, 9713368225992310437014942438941637371063471117139600223739723215028298119761) */\n      swap2\n      swap1\n      swap2\n      mstore\n      mstore\n      0x00\n      dup1\n      mload\n      0x20\n      data_848f50338cc074da8d5d8c20099d6f9a52cdd4e857863a722476f697bca98a91\n      dup4\n      codecopy\n      dup2\n      mload\n      swap2\n      mstore\n        /* \"continuation-batcher/sol/contracts/AggregatorVerifierStep3.sol\":2118:2121  buf */\n      dup3\n        /* \"continuation-batcher/sol/contracts/AggregatorVerifierStep3.sol\":2122:2124  30 */\n      0x1e\n        /* \"continuation-batcher/sol/contracts/AggregatorVerifierStep3.sol\":2118:2125  buf[30] */\n      dup2\n      mload\n      dup2\n      lt\n      tag_106\n      jumpi\n      tag_106\n      tag_13\n      jump\t// in\n    tag_106:\n      0x20\n      mul\n      0x20\n      add\n      add\n      mload\n        /* \"continuation-batcher/sol/contracts/AggregatorVerifierStep3.sol\":2109:2112  buf */\n      dup4\n        /* \"continuation-batcher/sol/contracts/AggregatorVerifierStep3.sol\":2113:2115  21 */\n      0x15\n        /* \"continuation-batcher/sol/contracts/AggregatorVerifierStep3.sol\":2109:2116  buf[21] */\n      dup2\n      mload\n      dup2\n      lt\n      tag_108\n      jumpi\n      tag_108\n      tag_13\n      jump\t// in\n    tag_108:\n      0x20\n      mul\n      0x20\n      add\n      add\n      mload\n        /* \"continuation-batcher/sol/contracts/AggregatorVerifierStep3.sol\":2102:2147  mulmod(buf[21], buf[30], AggregatorLib.q_mod) */\n      mulmod\n        /* \"continuation-batcher/sol/contracts/AggregatorVerifierStep3.sol\":2092:2095  buf */\n      dup3\n        /* \"continuation-batcher/sol/contracts/AggregatorVerifierStep3.sol\":2096:2098  16 */\n      0x10\n        /* \"continuation-batcher/sol/contracts/AggregatorVerifierStep3.sol\":2092:2099  buf[16] */\n      dup2\n      mload\n      dup2\n      lt\n      tag_110\n      jumpi\n      tag_110\n      tag_13\n      jump\t// in\n    tag_110:\n      0x20\n      mul\n      0x20\n      add\n      add\n        /* \"continuation-batcher/sol/contracts/AggregatorVerifierStep3.sol\":2092:2147  buf[16] = mulmod(buf[21], buf[30], AggregatorLib.q_mod) */\n      dup2\n      dup2\n      mstore\n      pop\n      pop\n        /* \"continuation-batcher/sol/contracts/AggregatorVerifierStep3.sol\":2149:2183  AggregatorLib.ecc_mul_add(buf, 12) */\n      tag_111\n        /* \"continuation-batcher/sol/contracts/AggregatorVerifierStep3.sol\":2175:2178  buf */\n      dup3\n        /* \"continuation-batcher/sol/contracts/AggregatorVerifierStep3.sol\":2180:2182  12 */\n      0x0c\n        /* \"continuation-batcher/sol/contracts/AggregatorVerifierStep3.sol\":2149:2174  AggregatorLib.ecc_mul_add */\n      tag_30\n        /* \"continuation-batcher/sol/contracts/AggregatorVerifierStep3.sol\":2149:2183  AggregatorLib.ecc_mul_add(buf, 12) */\n      jump\t// in\n    tag_111:\n        /* \"continuation-batcher/sol/contracts/AggregatorVerifierStep3.sol\":2207:2284  16915404722915728087597669518499042167294571296768252770914454265905156845608 */\n      0x2565c7a065643cd65821818ac5b760093191dc1bce845e00e701d3acd2b9f028\n        /* \"continuation-batcher/sol/contracts/AggregatorVerifierStep3.sol\":2286:2363  21855912557902073886757593465925993012013279901897969935079125078362497860046 */\n      0x30520214e2f62312654696fbf74be1fbd28bee8e2eb9788d33e2a944f901c1ce\n        /* \"continuation-batcher/sol/contracts/AggregatorVerifierStep3.sol\":2186:2189  buf */\n      dup4\n        /* \"continuation-batcher/sol/contracts/AggregatorVerifierStep3.sol\":2190:2192  14 */\n      0x0e\n        /* \"continuation-batcher/sol/contracts/AggregatorVerifierStep3.sol\":2186:2193  buf[14] */\n      dup2\n      mload\n      dup2\n      lt\n      tag_113\n      jumpi\n      tag_113\n      tag_13\n      jump\t// in\n    tag_113:\n      0x20\n      mul\n      0x20\n      add\n      add\n        /* \"continuation-batcher/sol/contracts/AggregatorVerifierStep3.sol\":2195:2198  buf */\n      dup5\n        /* \"continuation-batcher/sol/contracts/AggregatorVerifierStep3.sol\":2199:2201  15 */\n      0x0f\n        /* \"continuation-batcher/sol/contracts/AggregatorVerifierStep3.sol\":2195:2202  buf[15] */\n      dup2\n      mload\n      dup2\n      lt\n      tag_115\n      jumpi\n      tag_115\n      tag_13\n      jump\t// in\n    tag_115:\n      0x20\n      swap1\n      dup2\n      mul\n      swap2\n      swap1\n      swap2\n      add\n      add\n        /* \"continuation-batcher/sol/contracts/AggregatorVerifierStep3.sol\":2185:2364  (buf[14], buf[15]) = (16915404722915728087597669518499042167294571296768252770914454265905156845608, 21855912557902073886757593465925993012013279901897969935079125078362497860046) */\n      swap2\n      swap1\n      swap2\n      mstore\n      mstore\n      0x00\n      dup1\n      mload\n      0x20\n      data_848f50338cc074da8d5d8c20099d6f9a52cdd4e857863a722476f697bca98a91\n      dup4\n      codecopy\n      dup2\n      mload\n      swap2\n      mstore\n        /* \"continuation-batcher/sol/contracts/AggregatorLib.sol\":289:366  21888242871839275222246405745257275088548364400416034343698204186575808495617 */\n      dup1\n        /* \"continuation-batcher/sol/contracts/AggregatorVerifierStep3.sol\":2408:2411  buf */\n      dup4\n        /* \"continuation-batcher/sol/contracts/AggregatorVerifierStep3.sol\":2412:2413  7 */\n      0x07\n        /* \"continuation-batcher/sol/contracts/AggregatorVerifierStep3.sol\":2408:2414  buf[7] */\n      dup2\n      mload\n      dup2\n      lt\n      tag_121\n      jumpi\n      tag_121\n      tag_13\n      jump\t// in\n    tag_121:\n      0x20\n      mul\n      0x20\n      add\n      add\n      mload\n        /* \"continuation-batcher/sol/contracts/AggregatorVerifierStep3.sol\":2399:2402  buf */\n      dup5\n        /* \"continuation-batcher/sol/contracts/AggregatorVerifierStep3.sol\":2403:2405  30 */\n      0x1e\n        /* \"continuation-batcher/sol/contracts/AggregatorVerifierStep3.sol\":2399:2406  buf[30] */\n      dup2\n      mload\n      dup2\n      lt\n      tag_123\n      jumpi\n      tag_123\n      tag_13\n      jump\t// in\n    tag_123:\n      0x20\n      mul\n      0x20\n      add\n      add\n      mload\n        /* \"continuation-batcher/sol/contracts/AggregatorVerifierStep3.sol\":2392:2436  mulmod(buf[30], buf[7], AggregatorLib.q_mod) */\n      mulmod\n        /* \"continuation-batcher/sol/contracts/AggregatorVerifierStep3.sol\":2383:2386  buf */\n      dup4\n        /* \"continuation-batcher/sol/contracts/AggregatorVerifierStep3.sol\":2387:2389  21 */\n      0x15\n        /* \"continuation-batcher/sol/contracts/AggregatorVerifierStep3.sol\":2383:2390  buf[21] */\n      dup2\n      mload\n      dup2\n      lt\n      tag_125\n      jumpi\n      tag_125\n      tag_13\n      jump\t// in\n    tag_125:\n      0x20\n      mul\n      0x20\n      add\n      add\n      mload\n        /* \"continuation-batcher/sol/contracts/AggregatorVerifierStep3.sol\":2376:2458  mulmod(buf[21], mulmod(buf[30], buf[7], AggregatorLib.q_mod), AggregatorLib.q_mod) */\n      mulmod\n        /* \"continuation-batcher/sol/contracts/AggregatorVerifierStep3.sol\":2366:2369  buf */\n      dup3\n        /* \"continuation-batcher/sol/contracts/AggregatorVerifierStep3.sol\":2370:2372  16 */\n      0x10\n        /* \"continuation-batcher/sol/contracts/AggregatorVerifierStep3.sol\":2366:2373  buf[16] */\n      dup2\n      mload\n      dup2\n      lt\n      tag_127\n      jumpi\n      tag_127\n      tag_13\n      jump\t// in\n    tag_127:\n      0x20\n      mul\n      0x20\n      add\n      add\n        /* \"continuation-batcher/sol/contracts/AggregatorVerifierStep3.sol\":2366:2458  buf[16] = mulmod(buf[21], mulmod(buf[30], buf[7], AggregatorLib.q_mod), AggregatorLib.q_mod) */\n      dup2\n      dup2\n      mstore\n      pop\n      pop\n        /* \"continuation-batcher/sol/contracts/AggregatorVerifierStep3.sol\":2460:2494  AggregatorLib.ecc_mul_add(buf, 12) */\n      tag_128\n        /* \"continuation-batcher/sol/contracts/AggregatorVerifierStep3.sol\":2486:2489  buf */\n      dup3\n        /* \"continuation-batcher/sol/contracts/AggregatorVerifierStep3.sol\":2491:2493  12 */\n      0x0c\n        /* \"continuation-batcher/sol/contracts/AggregatorVerifierStep3.sol\":2460:2485  AggregatorLib.ecc_mul_add */\n      tag_30\n        /* \"continuation-batcher/sol/contracts/AggregatorVerifierStep3.sol\":2460:2494  AggregatorLib.ecc_mul_add(buf, 12) */\n      jump\t// in\n    tag_128:\n        /* \"continuation-batcher/sol/contracts/AggregatorVerifierStep3.sol\":2518:2594  3623980850458095342089714372106030360960994196811262330980778763245467696874 */\n      0x080319b89adc6e14f3413130822d9fe19b83a527f16958ea8a32da2c354b7eea\n        /* \"continuation-batcher/sol/contracts/AggregatorVerifierStep3.sol\":2596:2671  614231864457663569049600146392734085164769191835495434090907579949742790833 */\n      0x015ba496188fe57049d0c83833339df9d5d42da93b37576de96c0b76e91798b1\n        /* \"continuation-batcher/sol/contracts/AggregatorVerifierStep3.sol\":2497:2500  buf */\n      dup4\n        /* \"continuation-batcher/sol/contracts/AggregatorVerifierStep3.sol\":2501:2503  14 */\n      0x0e\n        /* \"continuation-batcher/sol/contracts/AggregatorVerifierStep3.sol\":2497:2504  buf[14] */\n      dup2\n      mload\n      dup2\n      lt\n      tag_130\n      jumpi\n      tag_130\n      tag_13\n      jump\t// in\n    tag_130:\n      0x20\n      mul\n      0x20\n      add\n      add\n        /* \"continuation-batcher/sol/contracts/AggregatorVerifierStep3.sol\":2506:2509  buf */\n      dup5\n        /* \"continuation-batcher/sol/contracts/AggregatorVerifierStep3.sol\":2510:2512  15 */\n      0x0f\n        /* \"continuation-batcher/sol/contracts/AggregatorVerifierStep3.sol\":2506:2513  buf[15] */\n      dup2\n      mload\n      dup2\n      lt\n      tag_132\n      jumpi\n      tag_132\n      tag_13\n      jump\t// in\n    tag_132:\n      0x20\n      swap1\n      dup2\n      mul\n      swap2\n      swap1\n      swap2\n      add\n      add\n        /* \"continuation-batcher/sol/contracts/AggregatorVerifierStep3.sol\":2496:2672  (buf[14], buf[15]) = (3623980850458095342089714372106030360960994196811262330980778763245467696874, 614231864457663569049600146392734085164769191835495434090907579949742790833) */\n      swap2\n      swap1\n      swap2\n      mstore\n      mstore\n      0x00\n      dup1\n      mload\n      0x20\n      data_848f50338cc074da8d5d8c20099d6f9a52cdd4e857863a722476f697bca98a91\n      dup4\n      codecopy\n      dup2\n      mload\n      swap2\n      mstore\n        /* \"continuation-batcher/sol/contracts/AggregatorLib.sol\":289:366  21888242871839275222246405745257275088548364400416034343698204186575808495617 */\n      dup1\n        /* \"continuation-batcher/sol/contracts/AggregatorVerifierStep3.sol\":2716:2719  buf */\n      dup4\n        /* \"continuation-batcher/sol/contracts/AggregatorVerifierStep3.sol\":2720:2721  7 */\n      0x07\n        /* \"continuation-batcher/sol/contracts/AggregatorVerifierStep3.sol\":2716:2722  buf[7] */\n      dup2\n      mload\n      dup2\n      lt\n      tag_138\n      jumpi\n      tag_138\n      tag_13\n      jump\t// in\n    tag_138:\n      0x20\n      mul\n      0x20\n      add\n      add\n      mload\n        /* \"continuation-batcher/sol/contracts/AggregatorVerifierStep3.sol\":2707:2710  buf */\n      dup5\n        /* \"continuation-batcher/sol/contracts/AggregatorVerifierStep3.sol\":2711:2713  32 */\n      0x20\n        /* \"continuation-batcher/sol/contracts/AggregatorVerifierStep3.sol\":2707:2714  buf[32] */\n      dup2\n      mload\n      dup2\n      lt\n      tag_140\n      jumpi\n      tag_140\n      tag_13\n      jump\t// in\n    tag_140:\n      0x20\n      mul\n      0x20\n      add\n      add\n      mload\n        /* \"continuation-batcher/sol/contracts/AggregatorVerifierStep3.sol\":2700:2744  mulmod(buf[32], buf[7], AggregatorLib.q_mod) */\n      mulmod\n        /* \"continuation-batcher/sol/contracts/AggregatorVerifierStep3.sol\":2691:2694  buf */\n      dup4\n        /* \"continuation-batcher/sol/contracts/AggregatorVerifierStep3.sol\":2695:2697  21 */\n      0x15\n        /* \"continuation-batcher/sol/contracts/AggregatorVerifierStep3.sol\":2691:2698  buf[21] */\n      dup2\n      mload\n      dup2\n      lt\n      tag_142\n      jumpi\n      tag_142\n      tag_13\n      jump\t// in\n    tag_142:\n      0x20\n      mul\n      0x20\n      add\n      add\n      mload\n        /* \"continuation-batcher/sol/contracts/AggregatorVerifierStep3.sol\":2684:2766  mulmod(buf[21], mulmod(buf[32], buf[7], AggregatorLib.q_mod), AggregatorLib.q_mod) */\n      mulmod\n        /* \"continuation-batcher/sol/contracts/AggregatorVerifierStep3.sol\":2674:2677  buf */\n      dup3\n        /* \"continuation-batcher/sol/contracts/AggregatorVerifierStep3.sol\":2678:2680  16 */\n      0x10\n        /* \"continuation-batcher/sol/contracts/AggregatorVerifierStep3.sol\":2674:2681  buf[16] */\n      dup2\n      mload\n      dup2\n      lt\n      tag_144\n      jumpi\n      tag_144\n      tag_13\n      jump\t// in\n    tag_144:\n      0x20\n      mul\n      0x20\n      add\n      add\n        /* \"continuation-batcher/sol/contracts/AggregatorVerifierStep3.sol\":2674:2766  buf[16] = mulmod(buf[21], mulmod(buf[32], buf[7], AggregatorLib.q_mod), AggregatorLib.q_mod) */\n      dup2\n      dup2\n      mstore\n      pop\n      pop\n        /* \"continuation-batcher/sol/contracts/AggregatorVerifierStep3.sol\":2768:2802  AggregatorLib.ecc_mul_add(buf, 12) */\n      tag_145\n        /* \"continuation-batcher/sol/contracts/AggregatorVerifierStep3.sol\":2794:2797  buf */\n      dup3\n        /* \"continuation-batcher/sol/contracts/AggregatorVerifierStep3.sol\":2799:2801  12 */\n      0x0c\n        /* \"continuation-batcher/sol/contracts/AggregatorVerifierStep3.sol\":2768:2793  AggregatorLib.ecc_mul_add */\n      tag_30\n        /* \"continuation-batcher/sol/contracts/AggregatorVerifierStep3.sol\":2768:2802  AggregatorLib.ecc_mul_add(buf, 12) */\n      jump\t// in\n    tag_145:\n        /* \"continuation-batcher/sol/contracts/AggregatorVerifierStep3.sol\":2826:2836  transcript */\n      dup6\n      dup6\n        /* \"continuation-batcher/sol/contracts/AggregatorVerifierStep3.sol\":2837:2840  126 */\n      0x7e\n        /* \"continuation-batcher/sol/contracts/AggregatorVerifierStep3.sol\":2826:2841  transcript[126] */\n      dup2\n      dup2\n      lt\n      tag_147\n      jumpi\n      tag_147\n      tag_13\n      jump\t// in\n    tag_147:\n      swap1\n      pop\n      0x20\n      mul\n      add\n      calldataload\n        /* \"continuation-batcher/sol/contracts/AggregatorVerifierStep3.sol\":2843:2853  transcript */\n      dup7\n      dup7\n        /* \"continuation-batcher/sol/contracts/AggregatorVerifierStep3.sol\":2854:2857  127 */\n      0x7f\n        /* \"continuation-batcher/sol/contracts/AggregatorVerifierStep3.sol\":2843:2858  transcript[127] */\n      dup2\n      dup2\n      lt\n      tag_149\n      jumpi\n      tag_149\n      tag_13\n      jump\t// in\n    tag_149:\n      swap1\n      pop\n      0x20\n      mul\n      add\n      calldataload\n        /* \"continuation-batcher/sol/contracts/AggregatorVerifierStep3.sol\":2805:2808  buf */\n      dup4\n        /* \"continuation-batcher/sol/contracts/AggregatorVerifierStep3.sol\":2809:2811  14 */\n      0x0e\n        /* \"continuation-batcher/sol/contracts/AggregatorVerifierStep3.sol\":2805:2812  buf[14] */\n      dup2\n      mload\n      dup2\n      lt\n      tag_151\n      jumpi\n      tag_151\n      tag_13\n      jump\t// in\n    tag_151:\n      0x20\n      mul\n      0x20\n      add\n      add\n        /* \"continuation-batcher/sol/contracts/AggregatorVerifierStep3.sol\":2814:2817  buf */\n      dup5\n        /* \"continuation-batcher/sol/contracts/AggregatorVerifierStep3.sol\":2818:2820  15 */\n      0x0f\n        /* \"continuation-batcher/sol/contracts/AggregatorVerifierStep3.sol\":2814:2821  buf[15] */\n      dup2\n      mload\n      dup2\n      lt\n      tag_153\n      jumpi\n      tag_153\n      tag_13\n      jump\t// in\n    tag_153:\n      0x20\n      swap1\n      dup2\n      mul\n      swap2\n      swap1\n      swap2\n      add\n      add\n        /* \"continuation-batcher/sol/contracts/AggregatorVerifierStep3.sol\":2804:2859  (buf[14], buf[15]) = (transcript[126], transcript[127]) */\n      swap2\n      swap1\n      swap2\n      mstore\n      mstore\n      0x00\n      dup1\n      mload\n      0x20\n      data_848f50338cc074da8d5d8c20099d6f9a52cdd4e857863a722476f697bca98a91\n      dup4\n      codecopy\n      dup2\n      mload\n      swap2\n      mstore\n        /* \"continuation-batcher/sol/contracts/AggregatorVerifierStep3.sol\":3005:3008  buf */\n      dup3\n        /* \"continuation-batcher/sol/contracts/AggregatorVerifierStep3.sol\":3009:3011  22 */\n      0x16\n        /* \"continuation-batcher/sol/contracts/AggregatorVerifierStep3.sol\":3005:3012  buf[22] */\n      dup2\n      mload\n      dup2\n      lt\n      tag_157\n      jumpi\n      tag_157\n      tag_13\n      jump\t// in\n    tag_157:\n      0x20\n      mul\n      0x20\n      add\n      add\n      mload\n      0x00\n      dup1\n      mload\n      0x20\n      data_848f50338cc074da8d5d8c20099d6f9a52cdd4e857863a722476f697bca98a91\n      dup4\n      codecopy\n      dup2\n      mload\n      swap2\n      mstore\n        /* \"continuation-batcher/sol/contracts/AggregatorVerifierStep3.sol\":2900:3003  mulmod(buf[17], addmod(buf[9], AggregatorLib.q_mod - buf[6], AggregatorLib.q_mod), AggregatorLib.q_mod) */\n      dup1\n      tag_159\n      jumpi\n      tag_159\n      tag_18\n      jump\t// in\n    tag_159:\n      0x00\n      dup1\n      mload\n      0x20\n      data_848f50338cc074da8d5d8c20099d6f9a52cdd4e857863a722476f697bca98a91\n      dup4\n      codecopy\n      dup2\n      mload\n      swap2\n      mstore\n        /* \"continuation-batcher/sol/contracts/AggregatorVerifierStep3.sol\":2953:2956  buf */\n      dup6\n        /* \"continuation-batcher/sol/contracts/AggregatorVerifierStep3.sol\":2957:2958  6 */\n      0x06\n        /* \"continuation-batcher/sol/contracts/AggregatorVerifierStep3.sol\":2953:2959  buf[6] */\n      dup2\n      mload\n      dup2\n      lt\n      tag_163\n      jumpi\n      tag_163\n      tag_13\n      jump\t// in\n    tag_163:\n      0x20\n      mul\n      0x20\n      add\n      add\n      mload\n      0x00\n      dup1\n      mload\n      0x20\n      data_848f50338cc074da8d5d8c20099d6f9a52cdd4e857863a722476f697bca98a91\n      dup4\n      codecopy\n      dup2\n      mload\n      swap2\n      mstore\n        /* \"continuation-batcher/sol/contracts/AggregatorVerifierStep3.sol\":2931:2959  AggregatorLib.q_mod - buf[6] */\n      tag_164\n      swap2\n      swap1\n      tag_165\n      jump\t// in\n    tag_164:\n        /* \"continuation-batcher/sol/contracts/AggregatorVerifierStep3.sol\":2923:2926  buf */\n      dup7\n        /* \"continuation-batcher/sol/contracts/AggregatorVerifierStep3.sol\":2927:2928  9 */\n      0x09\n        /* \"continuation-batcher/sol/contracts/AggregatorVerifierStep3.sol\":2923:2929  buf[9] */\n      dup2\n      mload\n      dup2\n      lt\n      tag_167\n      jumpi\n      tag_167\n      tag_13\n      jump\t// in\n    tag_167:\n      0x20\n      mul\n      0x20\n      add\n      add\n      mload\n        /* \"continuation-batcher/sol/contracts/AggregatorVerifierStep3.sol\":2916:2981  addmod(buf[9], AggregatorLib.q_mod - buf[6], AggregatorLib.q_mod) */\n      addmod\n        /* \"continuation-batcher/sol/contracts/AggregatorVerifierStep3.sol\":2907:2910  buf */\n      dup6\n        /* \"continuation-batcher/sol/contracts/AggregatorVerifierStep3.sol\":2911:2913  17 */\n      0x11\n        /* \"continuation-batcher/sol/contracts/AggregatorVerifierStep3.sol\":2907:2914  buf[17] */\n      dup2\n      mload\n      dup2\n      lt\n      tag_169\n      jumpi\n      tag_169\n      tag_13\n      jump\t// in\n    tag_169:\n      0x20\n      mul\n      0x20\n      add\n      add\n      mload\n        /* \"continuation-batcher/sol/contracts/AggregatorVerifierStep3.sol\":2900:3003  mulmod(buf[17], addmod(buf[9], AggregatorLib.q_mod - buf[6], AggregatorLib.q_mod), AggregatorLib.q_mod) */\n      mulmod\n        /* \"continuation-batcher/sol/contracts/AggregatorVerifierStep3.sol\":2893:3034  mulmod(mulmod(buf[17], addmod(buf[9], AggregatorLib.q_mod - buf[6], AggregatorLib.q_mod), AggregatorLib.q_mod), buf[22], AggregatorLib.q_mod) */\n      mulmod\n        /* \"continuation-batcher/sol/contracts/AggregatorVerifierStep3.sol\":2871:3034  AggregatorLib.q_mod - mulmod(mulmod(buf[17], addmod(buf[9], AggregatorLib.q_mod - buf[6], AggregatorLib.q_mod), AggregatorLib.q_mod), buf[22], AggregatorLib.q_mod) */\n      tag_170\n      swap1\n      0x00\n      dup1\n      mload\n      0x20\n      data_848f50338cc074da8d5d8c20099d6f9a52cdd4e857863a722476f697bca98a91\n      dup4\n      codecopy\n      dup2\n      mload\n      swap2\n      mstore\n      tag_165\n      jump\t// in\n    tag_170:\n        /* \"continuation-batcher/sol/contracts/AggregatorVerifierStep3.sol\":2861:2864  buf */\n      dup3\n        /* \"continuation-batcher/sol/contracts/AggregatorVerifierStep3.sol\":2865:2867  16 */\n      0x10\n        /* \"continuation-batcher/sol/contracts/AggregatorVerifierStep3.sol\":2861:2868  buf[16] */\n      dup2\n      mload\n      dup2\n      lt\n      tag_172\n      jumpi\n      tag_172\n      tag_13\n      jump\t// in\n    tag_172:\n      0x20\n      mul\n      0x20\n      add\n      add\n        /* \"continuation-batcher/sol/contracts/AggregatorVerifierStep3.sol\":2861:3034  buf[16] = AggregatorLib.q_mod - mulmod(mulmod(buf[17], addmod(buf[9], AggregatorLib.q_mod - buf[6], AggregatorLib.q_mod), AggregatorLib.q_mod), buf[22], AggregatorLib.q_mod) */\n      dup2\n      dup2\n      mstore\n      pop\n      pop\n        /* \"continuation-batcher/sol/contracts/AggregatorVerifierStep3.sol\":3036:3070  AggregatorLib.ecc_mul_add(buf, 12) */\n      tag_173\n        /* \"continuation-batcher/sol/contracts/AggregatorVerifierStep3.sol\":3062:3065  buf */\n      dup3\n        /* \"continuation-batcher/sol/contracts/AggregatorVerifierStep3.sol\":3067:3069  12 */\n      0x0c\n        /* \"continuation-batcher/sol/contracts/AggregatorVerifierStep3.sol\":3036:3061  AggregatorLib.ecc_mul_add */\n      tag_30\n        /* \"continuation-batcher/sol/contracts/AggregatorVerifierStep3.sol\":3036:3070  AggregatorLib.ecc_mul_add(buf, 12) */\n      jump\t// in\n    tag_173:\n        /* \"continuation-batcher/sol/contracts/AggregatorVerifierStep3.sol\":3094:3104  transcript */\n      dup6\n      dup6\n        /* \"continuation-batcher/sol/contracts/AggregatorVerifierStep3.sol\":3105:3108  128 */\n      0x80\n        /* \"continuation-batcher/sol/contracts/AggregatorVerifierStep3.sol\":3094:3109  transcript[128] */\n      dup2\n      dup2\n      lt\n      tag_175\n      jumpi\n      tag_175\n      tag_13\n      jump\t// in\n    tag_175:\n      swap1\n      pop\n      0x20\n      mul\n      add\n      calldataload\n        /* \"continuation-batcher/sol/contracts/AggregatorVerifierStep3.sol\":3111:3121  transcript */\n      dup7\n      dup7\n        /* \"continuation-batcher/sol/contracts/AggregatorVerifierStep3.sol\":3122:3125  129 */\n      0x81\n        /* \"continuation-batcher/sol/contracts/AggregatorVerifierStep3.sol\":3111:3126  transcript[129] */\n      dup2\n      dup2\n      lt\n      tag_177\n      jumpi\n      tag_177\n      tag_13\n      jump\t// in\n    tag_177:\n      swap1\n      pop\n      0x20\n      mul\n      add\n      calldataload\n        /* \"continuation-batcher/sol/contracts/AggregatorVerifierStep3.sol\":3073:3076  buf */\n      dup4\n        /* \"continuation-batcher/sol/contracts/AggregatorVerifierStep3.sol\":3077:3079  14 */\n      0x0e\n        /* \"continuation-batcher/sol/contracts/AggregatorVerifierStep3.sol\":3073:3080  buf[14] */\n      dup2\n      mload\n      dup2\n      lt\n      tag_179\n      jumpi\n      tag_179\n      tag_13\n      jump\t// in\n    tag_179:\n      0x20\n      mul\n      0x20\n      add\n      add\n        /* \"continuation-batcher/sol/contracts/AggregatorVerifierStep3.sol\":3082:3085  buf */\n      dup5\n        /* \"continuation-batcher/sol/contracts/AggregatorVerifierStep3.sol\":3086:3088  15 */\n      0x0f\n        /* \"continuation-batcher/sol/contracts/AggregatorVerifierStep3.sol\":3082:3089  buf[15] */\n      dup2\n      mload\n      dup2\n      lt\n      tag_181\n      jumpi\n      tag_181\n      tag_13\n      jump\t// in\n    tag_181:\n      0x20\n      mul\n      0x20\n      add\n      add\n        /* \"continuation-batcher/sol/contracts/AggregatorVerifierStep3.sol\":3072:3127  (buf[14], buf[15]) = (transcript[128], transcript[129]) */\n      dup3\n      dup2\n      mstore\n      pop\n      dup3\n      dup2\n      mstore\n      pop\n      pop\n      pop\n        /* \"continuation-batcher/sol/contracts/AggregatorVerifierStep3.sol\":3139:3142  buf */\n      dup2\n        /* \"continuation-batcher/sol/contracts/AggregatorVerifierStep3.sol\":3143:3144  9 */\n      0x09\n        /* \"continuation-batcher/sol/contracts/AggregatorVerifierStep3.sol\":3139:3145  buf[9] */\n      dup2\n      mload\n      dup2\n      lt\n      tag_183\n      jumpi\n      tag_183\n      tag_13\n      jump\t// in\n    tag_183:\n      0x20\n      mul\n      0x20\n      add\n      add\n      mload\n        /* \"continuation-batcher/sol/contracts/AggregatorVerifierStep3.sol\":3129:3132  buf */\n      dup3\n        /* \"continuation-batcher/sol/contracts/AggregatorVerifierStep3.sol\":3133:3135  16 */\n      0x10\n        /* \"continuation-batcher/sol/contracts/AggregatorVerifierStep3.sol\":3129:3136  buf[16] */\n      dup2\n      mload\n      dup2\n      lt\n      tag_185\n      jumpi\n      tag_185\n      tag_13\n      jump\t// in\n    tag_185:\n      0x20\n      mul\n      0x20\n      add\n      add\n        /* \"continuation-batcher/sol/contracts/AggregatorVerifierStep3.sol\":3129:3145  buf[16] = buf[9] */\n      dup2\n      dup2\n      mstore\n      pop\n      pop\n        /* \"continuation-batcher/sol/contracts/AggregatorVerifierStep3.sol\":3147:3181  AggregatorLib.ecc_mul_add(buf, 12) */\n      tag_186\n        /* \"continuation-batcher/sol/contracts/AggregatorVerifierStep3.sol\":3173:3176  buf */\n      dup3\n        /* \"continuation-batcher/sol/contracts/AggregatorVerifierStep3.sol\":3178:3180  12 */\n      0x0c\n        /* \"continuation-batcher/sol/contracts/AggregatorVerifierStep3.sol\":3147:3172  AggregatorLib.ecc_mul_add */\n      tag_30\n        /* \"continuation-batcher/sol/contracts/AggregatorVerifierStep3.sol\":3147:3181  AggregatorLib.ecc_mul_add(buf, 12) */\n      jump\t// in\n    tag_186:\n      0x00\n      dup1\n      mload\n      0x20\n      data_848f50338cc074da8d5d8c20099d6f9a52cdd4e857863a722476f697bca98a91\n      dup4\n      codecopy\n      dup2\n      mload\n      swap2\n      mstore\n        /* \"continuation-batcher/sol/contracts/AggregatorVerifierStep3.sol\":3209:3212  buf */\n      dup3\n        /* \"continuation-batcher/sol/contracts/AggregatorVerifierStep3.sol\":3213:3214  7 */\n      0x07\n        /* \"continuation-batcher/sol/contracts/AggregatorVerifierStep3.sol\":3209:3215  buf[7] */\n      dup2\n      mload\n      dup2\n      lt\n      tag_190\n      jumpi\n      tag_190\n      tag_13\n      jump\t// in\n    tag_190:\n      0x20\n      mul\n      0x20\n      add\n      add\n      mload\n        /* \"continuation-batcher/sol/contracts/AggregatorVerifierStep3.sol\":3200:3203  buf */\n      dup4\n        /* \"continuation-batcher/sol/contracts/AggregatorVerifierStep3.sol\":3204:3206  21 */\n      0x15\n        /* \"continuation-batcher/sol/contracts/AggregatorVerifierStep3.sol\":3200:3207  buf[21] */\n      dup2\n      mload\n      dup2\n      lt\n      tag_192\n      jumpi\n      tag_192\n      tag_13\n      jump\t// in\n    tag_192:\n      0x20\n      mul\n      0x20\n      add\n      add\n      mload\n        /* \"continuation-batcher/sol/contracts/AggregatorVerifierStep3.sol\":3193:3237  mulmod(buf[21], buf[7], AggregatorLib.q_mod) */\n      mulmod\n        /* \"continuation-batcher/sol/contracts/AggregatorVerifierStep3.sol\":3183:3186  buf */\n      dup3\n        /* \"continuation-batcher/sol/contracts/AggregatorVerifierStep3.sol\":3187:3189  17 */\n      0x11\n        /* \"continuation-batcher/sol/contracts/AggregatorVerifierStep3.sol\":3183:3190  buf[17] */\n      dup2\n      mload\n      dup2\n      lt\n      tag_194\n      jumpi\n      tag_194\n      tag_13\n      jump\t// in\n    tag_194:\n      0x20\n      mul\n      0x20\n      add\n      add\n        /* \"continuation-batcher/sol/contracts/AggregatorVerifierStep3.sol\":3183:3237  buf[17] = mulmod(buf[21], buf[7], AggregatorLib.q_mod) */\n      dup2\n      dup2\n      mstore\n      pop\n      pop\n        /* \"continuation-batcher/sol/contracts/AggregatorVerifierStep3.sol\":3261:3271  transcript */\n      dup6\n      dup6\n        /* \"continuation-batcher/sol/contracts/AggregatorVerifierStep3.sol\":3272:3274  54 */\n      0x36\n        /* \"continuation-batcher/sol/contracts/AggregatorVerifierStep3.sol\":3261:3275  transcript[54] */\n      dup2\n      dup2\n      lt\n      tag_196\n      jumpi\n      tag_196\n      tag_13\n      jump\t// in\n    tag_196:\n      swap1\n      pop\n      0x20\n      mul\n      add\n      calldataload\n        /* \"continuation-batcher/sol/contracts/AggregatorVerifierStep3.sol\":3277:3287  transcript */\n      dup7\n      dup7\n        /* \"continuation-batcher/sol/contracts/AggregatorVerifierStep3.sol\":3288:3290  55 */\n      0x37\n        /* \"continuation-batcher/sol/contracts/AggregatorVerifierStep3.sol\":3277:3291  transcript[55] */\n      dup2\n      dup2\n      lt\n      tag_198\n      jumpi\n      tag_198\n      tag_13\n      jump\t// in\n    tag_198:\n      swap1\n      pop\n      0x20\n      mul\n      add\n      calldataload\n        /* \"continuation-batcher/sol/contracts/AggregatorVerifierStep3.sol\":3240:3243  buf */\n      dup4\n        /* \"continuation-batcher/sol/contracts/AggregatorVerifierStep3.sol\":3244:3246  14 */\n      0x0e\n        /* \"continuation-batcher/sol/contracts/AggregatorVerifierStep3.sol\":3240:3247  buf[14] */\n      dup2\n      mload\n      dup2\n      lt\n      tag_200\n      jumpi\n      tag_200\n      tag_13\n      jump\t// in\n    tag_200:\n      0x20\n      mul\n      0x20\n      add\n      add\n        /* \"continuation-batcher/sol/contracts/AggregatorVerifierStep3.sol\":3249:3252  buf */\n      dup5\n        /* \"continuation-batcher/sol/contracts/AggregatorVerifierStep3.sol\":3253:3255  15 */\n      0x0f\n        /* \"continuation-batcher/sol/contracts/AggregatorVerifierStep3.sol\":3249:3256  buf[15] */\n      dup2\n      mload\n      dup2\n      lt\n      tag_202\n      jumpi\n      tag_202\n      tag_13\n      jump\t// in\n    tag_202:\n      0x20\n      swap1\n      dup2\n      mul\n      swap2\n      swap1\n      swap2\n      add\n      add\n        /* \"continuation-batcher/sol/contracts/AggregatorVerifierStep3.sol\":3239:3292  (buf[14], buf[15]) = (transcript[54], transcript[55]) */\n      swap2\n      swap1\n      swap2\n      mstore\n      mstore\n      0x00\n      dup1\n      mload\n      0x20\n      data_848f50338cc074da8d5d8c20099d6f9a52cdd4e857863a722476f697bca98a91\n      dup4\n      codecopy\n      dup2\n      mload\n      swap2\n      mstore\n        /* \"continuation-batcher/sol/contracts/AggregatorLib.sol\":289:366  21888242871839275222246405745257275088548364400416034343698204186575808495617 */\n      dup1\n        /* \"continuation-batcher/sol/contracts/AggregatorVerifierStep3.sol\":3336:3339  buf */\n      dup4\n        /* \"continuation-batcher/sol/contracts/AggregatorVerifierStep3.sol\":3340:3342  35 */\n      0x23\n        /* \"continuation-batcher/sol/contracts/AggregatorVerifierStep3.sol\":3336:3343  buf[35] */\n      dup2\n      mload\n      dup2\n      lt\n      tag_208\n      jumpi\n      tag_208\n      tag_13\n      jump\t// in\n    tag_208:\n      0x20\n      mul\n      0x20\n      add\n      add\n      mload\n        /* \"continuation-batcher/sol/contracts/AggregatorVerifierStep3.sol\":3327:3330  buf */\n      dup5\n        /* \"continuation-batcher/sol/contracts/AggregatorVerifierStep3.sol\":3331:3333  35 */\n      0x23\n        /* \"continuation-batcher/sol/contracts/AggregatorVerifierStep3.sol\":3327:3334  buf[35] */\n      dup2\n      mload\n      dup2\n      lt\n      tag_210\n      jumpi\n      tag_210\n      tag_13\n      jump\t// in\n    tag_210:\n      0x20\n      mul\n      0x20\n      add\n      add\n      mload\n        /* \"continuation-batcher/sol/contracts/AggregatorVerifierStep3.sol\":3320:3365  mulmod(buf[35], buf[35], AggregatorLib.q_mod) */\n      mulmod\n        /* \"continuation-batcher/sol/contracts/AggregatorVerifierStep3.sol\":3311:3314  buf */\n      dup4\n        /* \"continuation-batcher/sol/contracts/AggregatorVerifierStep3.sol\":3315:3317  17 */\n      0x11\n        /* \"continuation-batcher/sol/contracts/AggregatorVerifierStep3.sol\":3311:3318  buf[17] */\n      dup2\n      mload\n      dup2\n      lt\n      tag_212\n      jumpi\n      tag_212\n      tag_13\n      jump\t// in\n    tag_212:\n      0x20\n      mul\n      0x20\n      add\n      add\n      mload\n        /* \"continuation-batcher/sol/contracts/AggregatorVerifierStep3.sol\":3304:3387  mulmod(buf[17], mulmod(buf[35], buf[35], AggregatorLib.q_mod), AggregatorLib.q_mod) */\n      mulmod\n        /* \"continuation-batcher/sol/contracts/AggregatorVerifierStep3.sol\":3294:3297  buf */\n      dup3\n        /* \"continuation-batcher/sol/contracts/AggregatorVerifierStep3.sol\":3298:3300  16 */\n      0x10\n        /* \"continuation-batcher/sol/contracts/AggregatorVerifierStep3.sol\":3294:3301  buf[16] */\n      dup2\n      mload\n      dup2\n      lt\n      tag_214\n      jumpi\n      tag_214\n      tag_13\n      jump\t// in\n    tag_214:\n      0x20\n      mul\n      0x20\n      add\n      add\n        /* \"continuation-batcher/sol/contracts/AggregatorVerifierStep3.sol\":3294:3387  buf[16] = mulmod(buf[17], mulmod(buf[35], buf[35], AggregatorLib.q_mod), AggregatorLib.q_mod) */\n      dup2\n      dup2\n      mstore\n      pop\n      pop\n        /* \"continuation-batcher/sol/contracts/AggregatorVerifierStep3.sol\":3389:3423  AggregatorLib.ecc_mul_add(buf, 12) */\n      tag_215\n        /* \"continuation-batcher/sol/contracts/AggregatorVerifierStep3.sol\":3415:3418  buf */\n      dup3\n        /* \"continuation-batcher/sol/contracts/AggregatorVerifierStep3.sol\":3420:3422  12 */\n      0x0c\n        /* \"continuation-batcher/sol/contracts/AggregatorVerifierStep3.sol\":3389:3414  AggregatorLib.ecc_mul_add */\n      tag_30\n        /* \"continuation-batcher/sol/contracts/AggregatorVerifierStep3.sol\":3389:3423  AggregatorLib.ecc_mul_add(buf, 12) */\n      jump\t// in\n    tag_215:\n        /* \"continuation-batcher/sol/contracts/AggregatorVerifierStep3.sol\":3447:3457  transcript */\n      dup6\n      dup6\n        /* \"continuation-batcher/sol/contracts/AggregatorVerifierStep3.sol\":3458:3460  52 */\n      0x34\n        /* \"continuation-batcher/sol/contracts/AggregatorVerifierStep3.sol\":3447:3461  transcript[52] */\n      dup2\n      dup2\n      lt\n      tag_217\n      jumpi\n      tag_217\n      tag_13\n      jump\t// in\n    tag_217:\n      swap1\n      pop\n      0x20\n      mul\n      add\n      calldataload\n        /* \"continuation-batcher/sol/contracts/AggregatorVerifierStep3.sol\":3463:3473  transcript */\n      dup7\n      dup7\n        /* \"continuation-batcher/sol/contracts/AggregatorVerifierStep3.sol\":3474:3476  53 */\n      0x35\n        /* \"continuation-batcher/sol/contracts/AggregatorVerifierStep3.sol\":3463:3477  transcript[53] */\n      dup2\n      dup2\n      lt\n      tag_219\n      jumpi\n      tag_219\n      tag_13\n      jump\t// in\n    tag_219:\n      swap1\n      pop\n      0x20\n      mul\n      add\n      calldataload\n        /* \"continuation-batcher/sol/contracts/AggregatorVerifierStep3.sol\":3426:3429  buf */\n      dup4\n        /* \"continuation-batcher/sol/contracts/AggregatorVerifierStep3.sol\":3430:3432  14 */\n      0x0e\n        /* \"continuation-batcher/sol/contracts/AggregatorVerifierStep3.sol\":3426:3433  buf[14] */\n      dup2\n      mload\n      dup2\n      lt\n      tag_221\n      jumpi\n      tag_221\n      tag_13\n      jump\t// in\n    tag_221:\n      0x20\n      mul\n      0x20\n      add\n      add\n        /* \"continuation-batcher/sol/contracts/AggregatorVerifierStep3.sol\":3435:3438  buf */\n      dup5\n        /* \"continuation-batcher/sol/contracts/AggregatorVerifierStep3.sol\":3439:3441  15 */\n      0x0f\n        /* \"continuation-batcher/sol/contracts/AggregatorVerifierStep3.sol\":3435:3442  buf[15] */\n      dup2\n      mload\n      dup2\n      lt\n      tag_223\n      jumpi\n      tag_223\n      tag_13\n      jump\t// in\n    tag_223:\n      0x20\n      swap1\n      dup2\n      mul\n      swap2\n      swap1\n      swap2\n      add\n      add\n        /* \"continuation-batcher/sol/contracts/AggregatorVerifierStep3.sol\":3425:3478  (buf[14], buf[15]) = (transcript[52], transcript[53]) */\n      swap2\n      swap1\n      swap2\n      mstore\n      mstore\n      0x00\n      dup1\n      mload\n      0x20\n      data_848f50338cc074da8d5d8c20099d6f9a52cdd4e857863a722476f697bca98a91\n      dup4\n      codecopy\n      dup2\n      mload\n      swap2\n      mstore\n        /* \"continuation-batcher/sol/contracts/AggregatorVerifierStep3.sol\":3506:3509  buf */\n      dup3\n        /* \"continuation-batcher/sol/contracts/AggregatorVerifierStep3.sol\":3510:3512  35 */\n      0x23\n        /* \"continuation-batcher/sol/contracts/AggregatorVerifierStep3.sol\":3506:3513  buf[35] */\n      dup2\n      mload\n      dup2\n      lt\n      tag_227\n      jumpi\n      tag_227\n      tag_13\n      jump\t// in\n    tag_227:\n      0x20\n      mul\n      0x20\n      add\n      add\n      mload\n        /* \"continuation-batcher/sol/contracts/AggregatorVerifierStep3.sol\":3497:3500  buf */\n      dup4\n        /* \"continuation-batcher/sol/contracts/AggregatorVerifierStep3.sol\":3501:3503  17 */\n      0x11\n        /* \"continuation-batcher/sol/contracts/AggregatorVerifierStep3.sol\":3497:3504  buf[17] */\n      dup2\n      mload\n      dup2\n      lt\n      tag_229\n      jumpi\n      tag_229\n      tag_13\n      jump\t// in\n    tag_229:\n      0x20\n      mul\n      0x20\n      add\n      add\n      mload\n        /* \"continuation-batcher/sol/contracts/AggregatorVerifierStep3.sol\":3490:3535  mulmod(buf[17], buf[35], AggregatorLib.q_mod) */\n      mulmod\n        /* \"continuation-batcher/sol/contracts/AggregatorVerifierStep3.sol\":3480:3483  buf */\n      dup3\n        /* \"continuation-batcher/sol/contracts/AggregatorVerifierStep3.sol\":3484:3486  16 */\n      0x10\n        /* \"continuation-batcher/sol/contracts/AggregatorVerifierStep3.sol\":3480:3487  buf[16] */\n      dup2\n      mload\n      dup2\n      lt\n      tag_231\n      jumpi\n      tag_231\n      tag_13\n      jump\t// in\n    tag_231:\n      0x20\n      mul\n      0x20\n      add\n      add\n        /* \"continuation-batcher/sol/contracts/AggregatorVerifierStep3.sol\":3480:3535  buf[16] = mulmod(buf[17], buf[35], AggregatorLib.q_mod) */\n      dup2\n      dup2\n      mstore\n      pop\n      pop\n        /* \"continuation-batcher/sol/contracts/AggregatorVerifierStep3.sol\":3537:3571  AggregatorLib.ecc_mul_add(buf, 12) */\n      tag_232\n        /* \"continuation-batcher/sol/contracts/AggregatorVerifierStep3.sol\":3563:3566  buf */\n      dup3\n        /* \"continuation-batcher/sol/contracts/AggregatorVerifierStep3.sol\":3568:3570  12 */\n      0x0c\n        /* \"continuation-batcher/sol/contracts/AggregatorVerifierStep3.sol\":3537:3562  AggregatorLib.ecc_mul_add */\n      tag_30\n        /* \"continuation-batcher/sol/contracts/AggregatorVerifierStep3.sol\":3537:3571  AggregatorLib.ecc_mul_add(buf, 12) */\n      jump\t// in\n    tag_232:\n        /* \"continuation-batcher/sol/contracts/AggregatorVerifierStep3.sol\":3595:3605  transcript */\n      dup6\n      dup6\n        /* \"continuation-batcher/sol/contracts/AggregatorVerifierStep3.sol\":3606:3608  50 */\n      0x32\n        /* \"continuation-batcher/sol/contracts/AggregatorVerifierStep3.sol\":3595:3609  transcript[50] */\n      dup2\n      dup2\n      lt\n      tag_234\n      jumpi\n      tag_234\n      tag_13\n      jump\t// in\n    tag_234:\n      swap1\n      pop\n      0x20\n      mul\n      add\n      calldataload\n        /* \"continuation-batcher/sol/contracts/AggregatorVerifierStep3.sol\":3611:3621  transcript */\n      dup7\n      dup7\n        /* \"continuation-batcher/sol/contracts/AggregatorVerifierStep3.sol\":3622:3624  51 */\n      0x33\n        /* \"continuation-batcher/sol/contracts/AggregatorVerifierStep3.sol\":3611:3625  transcript[51] */\n      dup2\n      dup2\n      lt\n      tag_236\n      jumpi\n      tag_236\n      tag_13\n      jump\t// in\n    tag_236:\n      swap1\n      pop\n      0x20\n      mul\n      add\n      calldataload\n        /* \"continuation-batcher/sol/contracts/AggregatorVerifierStep3.sol\":3574:3577  buf */\n      dup4\n        /* \"continuation-batcher/sol/contracts/AggregatorVerifierStep3.sol\":3578:3580  14 */\n      0x0e\n        /* \"continuation-batcher/sol/contracts/AggregatorVerifierStep3.sol\":3574:3581  buf[14] */\n      dup2\n      mload\n      dup2\n      lt\n      tag_238\n      jumpi\n      tag_238\n      tag_13\n      jump\t// in\n    tag_238:\n      0x20\n      mul\n      0x20\n      add\n      add\n        /* \"continuation-batcher/sol/contracts/AggregatorVerifierStep3.sol\":3583:3586  buf */\n      dup5\n        /* \"continuation-batcher/sol/contracts/AggregatorVerifierStep3.sol\":3587:3589  15 */\n      0x0f\n        /* \"continuation-batcher/sol/contracts/AggregatorVerifierStep3.sol\":3583:3590  buf[15] */\n      dup2\n      mload\n      dup2\n      lt\n      tag_240\n      jumpi\n      tag_240\n      tag_13\n      jump\t// in\n    tag_240:\n      0x20\n      mul\n      0x20\n      add\n      add\n        /* \"continuation-batcher/sol/contracts/AggregatorVerifierStep3.sol\":3573:3626  (buf[14], buf[15]) = (transcript[50], transcript[51]) */\n      dup3\n      dup2\n      mstore\n      pop\n      dup3\n      dup2\n      mstore\n      pop\n      pop\n      pop\n        /* \"continuation-batcher/sol/contracts/AggregatorVerifierStep3.sol\":3638:3641  buf */\n      dup2\n        /* \"continuation-batcher/sol/contracts/AggregatorVerifierStep3.sol\":3642:3644  17 */\n      0x11\n        /* \"continuation-batcher/sol/contracts/AggregatorVerifierStep3.sol\":3638:3645  buf[17] */\n      dup2\n      mload\n      dup2\n      lt\n      tag_242\n      jumpi\n      tag_242\n      tag_13\n      jump\t// in\n    tag_242:\n      0x20\n      mul\n      0x20\n      add\n      add\n      mload\n        /* \"continuation-batcher/sol/contracts/AggregatorVerifierStep3.sol\":3628:3631  buf */\n      dup3\n        /* \"continuation-batcher/sol/contracts/AggregatorVerifierStep3.sol\":3632:3634  16 */\n      0x10\n        /* \"continuation-batcher/sol/contracts/AggregatorVerifierStep3.sol\":3628:3635  buf[16] */\n      dup2\n      mload\n      dup2\n      lt\n      tag_244\n      jumpi\n      tag_244\n      tag_13\n      jump\t// in\n    tag_244:\n      0x20\n      mul\n      0x20\n      add\n      add\n        /* \"continuation-batcher/sol/contracts/AggregatorVerifierStep3.sol\":3628:3645  buf[16] = buf[17] */\n      dup2\n      dup2\n      mstore\n      pop\n      pop\n        /* \"continuation-batcher/sol/contracts/AggregatorVerifierStep3.sol\":3647:3681  AggregatorLib.ecc_mul_add(buf, 12) */\n      tag_245\n        /* \"continuation-batcher/sol/contracts/AggregatorVerifierStep3.sol\":3673:3676  buf */\n      dup3\n        /* \"continuation-batcher/sol/contracts/AggregatorVerifierStep3.sol\":3678:3680  12 */\n      0x0c\n        /* \"continuation-batcher/sol/contracts/AggregatorVerifierStep3.sol\":3647:3672  AggregatorLib.ecc_mul_add */\n      tag_30\n        /* \"continuation-batcher/sol/contracts/AggregatorVerifierStep3.sol\":3647:3681  AggregatorLib.ecc_mul_add(buf, 12) */\n      jump\t// in\n    tag_245:\n        /* \"continuation-batcher/sol/contracts/AggregatorVerifierStep3.sol\":3705:3708  buf */\n      dup2\n        /* \"continuation-batcher/sol/contracts/AggregatorVerifierStep3.sol\":3709:3710  0 */\n      0x00\n        /* \"continuation-batcher/sol/contracts/AggregatorVerifierStep3.sol\":3705:3711  buf[0] */\n      dup2\n      mload\n      dup2\n      lt\n      tag_247\n      jumpi\n      tag_247\n      tag_13\n      jump\t// in\n    tag_247:\n      0x20\n      mul\n      0x20\n      add\n      add\n      mload\n        /* \"continuation-batcher/sol/contracts/AggregatorVerifierStep3.sol\":3713:3716  buf */\n      dup3\n        /* \"continuation-batcher/sol/contracts/AggregatorVerifierStep3.sol\":3717:3718  1 */\n      0x01\n        /* \"continuation-batcher/sol/contracts/AggregatorVerifierStep3.sol\":3713:3719  buf[1] */\n      dup2\n      mload\n      dup2\n      lt\n      tag_249\n      jumpi\n      tag_249\n      tag_13\n      jump\t// in\n    tag_249:\n      0x20\n      mul\n      0x20\n      add\n      add\n      mload\n        /* \"continuation-batcher/sol/contracts/AggregatorVerifierStep3.sol\":3684:3687  buf */\n      dup4\n        /* \"continuation-batcher/sol/contracts/AggregatorVerifierStep3.sol\":3688:3690  14 */\n      0x0e\n        /* \"continuation-batcher/sol/contracts/AggregatorVerifierStep3.sol\":3684:3691  buf[14] */\n      dup2\n      mload\n      dup2\n      lt\n      tag_251\n      jumpi\n      tag_251\n      tag_13\n      jump\t// in\n    tag_251:\n      0x20\n      mul\n      0x20\n      add\n      add\n        /* \"continuation-batcher/sol/contracts/AggregatorVerifierStep3.sol\":3693:3696  buf */\n      dup5\n        /* \"continuation-batcher/sol/contracts/AggregatorVerifierStep3.sol\":3697:3699  15 */\n      0x0f\n        /* \"continuation-batcher/sol/contracts/AggregatorVerifierStep3.sol\":3693:3700  buf[15] */\n      dup2\n      mload\n      dup2\n      lt\n      tag_253\n      jumpi\n      tag_253\n      tag_13\n      jump\t// in\n    tag_253:\n      0x20\n      swap1\n      dup2\n      mul\n      swap2\n      swap1\n      swap2\n      add\n      add\n        /* \"continuation-batcher/sol/contracts/AggregatorVerifierStep3.sol\":3683:3720  (buf[14], buf[15]) = (buf[0], buf[1]) */\n      swap2\n      swap1\n      swap2\n      mstore\n      mstore\n      0x00\n      dup1\n      mload\n      0x20\n      data_848f50338cc074da8d5d8c20099d6f9a52cdd4e857863a722476f697bca98a91\n      dup4\n      codecopy\n      dup2\n      mload\n      swap2\n      mstore\n        /* \"continuation-batcher/sol/contracts/AggregatorLib.sol\":289:366  21888242871839275222246405745257275088548364400416034343698204186575808495617 */\n      dup1\n        /* \"continuation-batcher/sol/contracts/AggregatorVerifierStep3.sol\":3764:3767  buf */\n      dup4\n        /* \"continuation-batcher/sol/contracts/AggregatorVerifierStep3.sol\":3768:3770  24 */\n      0x18\n        /* \"continuation-batcher/sol/contracts/AggregatorVerifierStep3.sol\":3764:3771  buf[24] */\n      dup2\n      mload\n      dup2\n      lt\n      tag_259\n      jumpi\n      tag_259\n      tag_13\n      jump\t// in\n    tag_259:\n      0x20\n      mul\n      0x20\n      add\n      add\n      mload\n        /* \"continuation-batcher/sol/contracts/AggregatorVerifierStep3.sol\":3755:3758  buf */\n      dup5\n        /* \"continuation-batcher/sol/contracts/AggregatorVerifierStep3.sol\":3759:3761  29 */\n      0x1d\n        /* \"continuation-batcher/sol/contracts/AggregatorVerifierStep3.sol\":3755:3762  buf[29] */\n      dup2\n      mload\n      dup2\n      lt\n      tag_261\n      jumpi\n      tag_261\n      tag_13\n      jump\t// in\n    tag_261:\n      0x20\n      mul\n      0x20\n      add\n      add\n      mload\n        /* \"continuation-batcher/sol/contracts/AggregatorVerifierStep3.sol\":3748:3793  mulmod(buf[29], buf[24], AggregatorLib.q_mod) */\n      mulmod\n        /* \"continuation-batcher/sol/contracts/AggregatorVerifierStep3.sol\":3739:3742  buf */\n      dup4\n        /* \"continuation-batcher/sol/contracts/AggregatorVerifierStep3.sol\":3743:3745  21 */\n      0x15\n        /* \"continuation-batcher/sol/contracts/AggregatorVerifierStep3.sol\":3739:3746  buf[21] */\n      dup2\n      mload\n      dup2\n      lt\n      tag_263\n      jumpi\n      tag_263\n      tag_13\n      jump\t// in\n    tag_263:\n      0x20\n      mul\n      0x20\n      add\n      add\n      mload\n        /* \"continuation-batcher/sol/contracts/AggregatorVerifierStep3.sol\":3732:3815  mulmod(buf[21], mulmod(buf[29], buf[24], AggregatorLib.q_mod), AggregatorLib.q_mod) */\n      mulmod\n        /* \"continuation-batcher/sol/contracts/AggregatorVerifierStep3.sol\":3722:3725  buf */\n      dup3\n        /* \"continuation-batcher/sol/contracts/AggregatorVerifierStep3.sol\":3726:3728  16 */\n      0x10\n        /* \"continuation-batcher/sol/contracts/AggregatorVerifierStep3.sol\":3722:3729  buf[16] */\n      dup2\n      mload\n      dup2\n      lt\n      tag_265\n      jumpi\n      tag_265\n      tag_13\n      jump\t// in\n    tag_265:\n      0x20\n      mul\n      0x20\n      add\n      add\n        /* \"continuation-batcher/sol/contracts/AggregatorVerifierStep3.sol\":3722:3815  buf[16] = mulmod(buf[21], mulmod(buf[29], buf[24], AggregatorLib.q_mod), AggregatorLib.q_mod) */\n      dup2\n      dup2\n      mstore\n      pop\n      pop\n        /* \"continuation-batcher/sol/contracts/AggregatorVerifierStep3.sol\":3817:3851  AggregatorLib.ecc_mul_add(buf, 12) */\n      tag_266\n        /* \"continuation-batcher/sol/contracts/AggregatorVerifierStep3.sol\":3843:3846  buf */\n      dup3\n        /* \"continuation-batcher/sol/contracts/AggregatorVerifierStep3.sol\":3848:3850  12 */\n      0x0c\n        /* \"continuation-batcher/sol/contracts/AggregatorVerifierStep3.sol\":3817:3842  AggregatorLib.ecc_mul_add */\n      tag_30\n        /* \"continuation-batcher/sol/contracts/AggregatorVerifierStep3.sol\":3817:3851  AggregatorLib.ecc_mul_add(buf, 12) */\n      jump\t// in\n    tag_266:\n      0x00\n      dup1\n      mload\n      0x20\n      data_848f50338cc074da8d5d8c20099d6f9a52cdd4e857863a722476f697bca98a91\n      dup4\n      codecopy\n      dup2\n      mload\n      swap2\n      mstore\n        /* \"continuation-batcher/sol/contracts/AggregatorVerifierStep3.sol\":3916:3919  buf */\n      dup3\n        /* \"continuation-batcher/sol/contracts/AggregatorVerifierStep3.sol\":3920:3922  28 */\n      0x1c\n        /* \"continuation-batcher/sol/contracts/AggregatorVerifierStep3.sol\":3916:3923  buf[28] */\n      dup2\n      mload\n      dup2\n      lt\n      tag_270\n      jumpi\n      tag_270\n      tag_13\n      jump\t// in\n    tag_270:\n      0x20\n      mul\n      0x20\n      add\n      add\n      mload\n      0x00\n      dup1\n      mload\n      0x20\n      data_848f50338cc074da8d5d8c20099d6f9a52cdd4e857863a722476f697bca98a91\n      dup4\n      codecopy\n      dup2\n      mload\n      swap2\n      mstore\n        /* \"continuation-batcher/sol/contracts/AggregatorVerifierStep3.sol\":3870:3914  mulmod(buf[19], buf[8], AggregatorLib.q_mod) */\n      dup1\n      tag_272\n      jumpi\n      tag_272\n      tag_18\n      jump\t// in\n    tag_272:\n        /* \"continuation-batcher/sol/contracts/AggregatorVerifierStep3.sol\":3886:3889  buf */\n      dup5\n        /* \"continuation-batcher/sol/contracts/AggregatorVerifierStep3.sol\":3890:3891  8 */\n      0x08\n        /* \"continuation-batcher/sol/contracts/AggregatorVerifierStep3.sol\":3886:3892  buf[8] */\n      dup2\n      mload\n      dup2\n      lt\n      tag_274\n      jumpi\n      tag_274\n      tag_13\n      jump\t// in\n    tag_274:\n      0x20\n      mul\n      0x20\n      add\n      add\n      mload\n        /* \"continuation-batcher/sol/contracts/AggregatorVerifierStep3.sol\":3877:3880  buf */\n      dup6\n        /* \"continuation-batcher/sol/contracts/AggregatorVerifierStep3.sol\":3881:3883  19 */\n      0x13\n        /* \"continuation-batcher/sol/contracts/AggregatorVerifierStep3.sol\":3877:3884  buf[19] */\n      dup2\n      mload\n      dup2\n      lt\n      tag_276\n      jumpi\n      tag_276\n      tag_13\n      jump\t// in\n    tag_276:\n      0x20\n      mul\n      0x20\n      add\n      add\n      mload\n        /* \"continuation-batcher/sol/contracts/AggregatorVerifierStep3.sol\":3870:3914  mulmod(buf[19], buf[8], AggregatorLib.q_mod) */\n      mulmod\n        /* \"continuation-batcher/sol/contracts/AggregatorVerifierStep3.sol\":3863:3945  mulmod(mulmod(buf[19], buf[8], AggregatorLib.q_mod), buf[28], AggregatorLib.q_mod) */\n      mulmod\n        /* \"continuation-batcher/sol/contracts/AggregatorVerifierStep3.sol\":3853:3856  buf */\n      dup3\n        /* \"continuation-batcher/sol/contracts/AggregatorVerifierStep3.sol\":3857:3859  17 */\n      0x11\n        /* \"continuation-batcher/sol/contracts/AggregatorVerifierStep3.sol\":3853:3860  buf[17] */\n      dup2\n      mload\n      dup2\n      lt\n      tag_278\n      jumpi\n      tag_278\n      tag_13\n      jump\t// in\n    tag_278:\n      0x20\n      mul\n      0x20\n      add\n      add\n        /* \"continuation-batcher/sol/contracts/AggregatorVerifierStep3.sol\":3853:3945  buf[17] = mulmod(mulmod(buf[19], buf[8], AggregatorLib.q_mod), buf[28], AggregatorLib.q_mod) */\n      dup2\n      dup2\n      mstore\n      pop\n      pop\n        /* \"continuation-batcher/sol/contracts/AggregatorVerifierStep3.sol\":3969:3979  transcript */\n      dup6\n      dup6\n        /* \"continuation-batcher/sol/contracts/AggregatorVerifierStep3.sol\":3980:3982  20 */\n      0x14\n        /* \"continuation-batcher/sol/contracts/AggregatorVerifierStep3.sol\":3969:3983  transcript[20] */\n      dup2\n      dup2\n      lt\n      tag_280\n      jumpi\n      tag_280\n      tag_13\n      jump\t// in\n    tag_280:\n      swap1\n      pop\n      0x20\n      mul\n      add\n      calldataload\n        /* \"continuation-batcher/sol/contracts/AggregatorVerifierStep3.sol\":3985:3995  transcript */\n      dup7\n      dup7\n        /* \"continuation-batcher/sol/contracts/AggregatorVerifierStep3.sol\":3996:3998  21 */\n      0x15\n        /* \"continuation-batcher/sol/contracts/AggregatorVerifierStep3.sol\":3985:3999  transcript[21] */\n      dup2\n      dup2\n      lt\n      tag_282\n      jumpi\n      tag_282\n      tag_13\n      jump\t// in\n    tag_282:\n      swap1\n      pop\n      0x20\n      mul\n      add\n      calldataload\n        /* \"continuation-batcher/sol/contracts/AggregatorVerifierStep3.sol\":3948:3951  buf */\n      dup4\n        /* \"continuation-batcher/sol/contracts/AggregatorVerifierStep3.sol\":3952:3954  14 */\n      0x0e\n        /* \"continuation-batcher/sol/contracts/AggregatorVerifierStep3.sol\":3948:3955  buf[14] */\n      dup2\n      mload\n      dup2\n      lt\n      tag_284\n      jumpi\n      tag_284\n      tag_13\n      jump\t// in\n    tag_284:\n      0x20\n      mul\n      0x20\n      add\n      add\n        /* \"continuation-batcher/sol/contracts/AggregatorVerifierStep3.sol\":3957:3960  buf */\n      dup5\n        /* \"continuation-batcher/sol/contracts/AggregatorVerifierStep3.sol\":3961:3963  15 */\n      0x0f\n        /* \"continuation-batcher/sol/contracts/AggregatorVerifierStep3.sol\":3957:3964  buf[15] */\n      dup2\n      mload\n      dup2\n      lt\n      tag_286\n      jumpi\n      tag_286\n      tag_13\n      jump\t// in\n    tag_286:\n      0x20\n      swap1\n      dup2\n      mul\n      swap2\n      swap1\n      swap2\n      add\n      add\n        /* \"continuation-batcher/sol/contracts/AggregatorVerifierStep3.sol\":3947:4000  (buf[14], buf[15]) = (transcript[20], transcript[21]) */\n      swap2\n      swap1\n      swap2\n      mstore\n      mstore\n      0x00\n      dup1\n      mload\n      0x20\n      data_848f50338cc074da8d5d8c20099d6f9a52cdd4e857863a722476f697bca98a91\n      dup4\n      codecopy\n      dup2\n      mload\n      swap2\n      mstore\n        /* \"continuation-batcher/sol/contracts/AggregatorVerifierStep3.sol\":4028:4031  buf */\n      dup3\n        /* \"continuation-batcher/sol/contracts/AggregatorVerifierStep3.sol\":4032:4034  23 */\n      0x17\n        /* \"continuation-batcher/sol/contracts/AggregatorVerifierStep3.sol\":4028:4035  buf[23] */\n      dup2\n      mload\n      dup2\n      lt\n      tag_290\n      jumpi\n      tag_290\n      tag_13\n      jump\t// in\n    tag_290:\n      0x20\n      mul\n      0x20\n      add\n      add\n      mload\n        /* \"continuation-batcher/sol/contracts/AggregatorVerifierStep3.sol\":4019:4022  buf */\n      dup4\n        /* \"continuation-batcher/sol/contracts/AggregatorVerifierStep3.sol\":4023:4025  17 */\n      0x11\n        /* \"continuation-batcher/sol/contracts/AggregatorVerifierStep3.sol\":4019:4026  buf[17] */\n      dup2\n      mload\n      dup2\n      lt\n      tag_292\n      jumpi\n      tag_292\n      tag_13\n      jump\t// in\n    tag_292:\n      0x20\n      mul\n      0x20\n      add\n      add\n      mload\n        /* \"continuation-batcher/sol/contracts/AggregatorVerifierStep3.sol\":4012:4057  mulmod(buf[17], buf[23], AggregatorLib.q_mod) */\n      mulmod\n        /* \"continuation-batcher/sol/contracts/AggregatorVerifierStep3.sol\":4002:4005  buf */\n      dup3\n        /* \"continuation-batcher/sol/contracts/AggregatorVerifierStep3.sol\":4006:4008  16 */\n      0x10\n        /* \"continuation-batcher/sol/contracts/AggregatorVerifierStep3.sol\":4002:4009  buf[16] */\n      dup2\n      mload\n      dup2\n      lt\n      tag_294\n      jumpi\n      tag_294\n      tag_13\n      jump\t// in\n    tag_294:\n      0x20\n      mul\n      0x20\n      add\n      add\n        /* \"continuation-batcher/sol/contracts/AggregatorVerifierStep3.sol\":4002:4057  buf[16] = mulmod(buf[17], buf[23], AggregatorLib.q_mod) */\n      dup2\n      dup2\n      mstore\n      pop\n      pop\n        /* \"continuation-batcher/sol/contracts/AggregatorVerifierStep3.sol\":4059:4093  AggregatorLib.ecc_mul_add(buf, 12) */\n      tag_295\n        /* \"continuation-batcher/sol/contracts/AggregatorVerifierStep3.sol\":4085:4088  buf */\n      dup3\n        /* \"continuation-batcher/sol/contracts/AggregatorVerifierStep3.sol\":4090:4092  12 */\n      0x0c\n        /* \"continuation-batcher/sol/contracts/AggregatorVerifierStep3.sol\":4059:4084  AggregatorLib.ecc_mul_add */\n      tag_30\n        /* \"continuation-batcher/sol/contracts/AggregatorVerifierStep3.sol\":4059:4093  AggregatorLib.ecc_mul_add(buf, 12) */\n      jump\t// in\n    tag_295:\n        /* \"continuation-batcher/sol/contracts/AggregatorVerifierStep3.sol\":4117:4127  transcript */\n      dup6\n      dup6\n        /* \"continuation-batcher/sol/contracts/AggregatorVerifierStep3.sol\":4128:4130  22 */\n      0x16\n        /* \"continuation-batcher/sol/contracts/AggregatorVerifierStep3.sol\":4117:4131  transcript[22] */\n      dup2\n      dup2\n      lt\n      tag_297\n      jumpi\n      tag_297\n      tag_13\n      jump\t// in\n    tag_297:\n      swap1\n      pop\n      0x20\n      mul\n      add\n      calldataload\n        /* \"continuation-batcher/sol/contracts/AggregatorVerifierStep3.sol\":4133:4143  transcript */\n      dup7\n      dup7\n        /* \"continuation-batcher/sol/contracts/AggregatorVerifierStep3.sol\":4144:4146  23 */\n      0x17\n        /* \"continuation-batcher/sol/contracts/AggregatorVerifierStep3.sol\":4133:4147  transcript[23] */\n      dup2\n      dup2\n      lt\n      tag_299\n      jumpi\n      tag_299\n      tag_13\n      jump\t// in\n    tag_299:\n      swap1\n      pop\n      0x20\n      mul\n      add\n      calldataload\n        /* \"continuation-batcher/sol/contracts/AggregatorVerifierStep3.sol\":4096:4099  buf */\n      dup4\n        /* \"continuation-batcher/sol/contracts/AggregatorVerifierStep3.sol\":4100:4102  14 */\n      0x0e\n        /* \"continuation-batcher/sol/contracts/AggregatorVerifierStep3.sol\":4096:4103  buf[14] */\n      dup2\n      mload\n      dup2\n      lt\n      tag_301\n      jumpi\n      tag_301\n      tag_13\n      jump\t// in\n    tag_301:\n      0x20\n      mul\n      0x20\n      add\n      add\n        /* \"continuation-batcher/sol/contracts/AggregatorVerifierStep3.sol\":4105:4108  buf */\n      dup5\n        /* \"continuation-batcher/sol/contracts/AggregatorVerifierStep3.sol\":4109:4111  15 */\n      0x0f\n        /* \"continuation-batcher/sol/contracts/AggregatorVerifierStep3.sol\":4105:4112  buf[15] */\n      dup2\n      mload\n      dup2\n      lt\n      tag_303\n      jumpi\n      tag_303\n      tag_13\n      jump\t// in\n    tag_303:\n      0x20\n      swap1\n      dup2\n      mul\n      swap2\n      swap1\n      swap2\n      add\n      add\n        /* \"continuation-batcher/sol/contracts/AggregatorVerifierStep3.sol\":4095:4148  (buf[14], buf[15]) = (transcript[22], transcript[23]) */\n      swap2\n      swap1\n      swap2\n      mstore\n      mstore\n      0x00\n      dup1\n      mload\n      0x20\n      data_848f50338cc074da8d5d8c20099d6f9a52cdd4e857863a722476f697bca98a91\n      dup4\n      codecopy\n      dup2\n      mload\n      swap2\n      mstore\n        /* \"continuation-batcher/sol/contracts/AggregatorVerifierStep3.sol\":4176:4179  buf */\n      dup3\n        /* \"continuation-batcher/sol/contracts/AggregatorVerifierStep3.sol\":4180:4182  31 */\n      0x1f\n        /* \"continuation-batcher/sol/contracts/AggregatorVerifierStep3.sol\":4176:4183  buf[31] */\n      dup2\n      mload\n      dup2\n      lt\n      tag_307\n      jumpi\n      tag_307\n      tag_13\n      jump\t// in\n    tag_307:\n      0x20\n      mul\n      0x20\n      add\n      add\n      mload\n        /* \"continuation-batcher/sol/contracts/AggregatorVerifierStep3.sol\":4167:4170  buf */\n      dup4\n        /* \"continuation-batcher/sol/contracts/AggregatorVerifierStep3.sol\":4171:4173  21 */\n      0x15\n        /* \"continuation-batcher/sol/contracts/AggregatorVerifierStep3.sol\":4167:4174  buf[21] */\n      dup2\n      mload\n      dup2\n      lt\n      tag_309\n      jumpi\n      tag_309\n      tag_13\n      jump\t// in\n    tag_309:\n      0x20\n      mul\n      0x20\n      add\n      add\n      mload\n        /* \"continuation-batcher/sol/contracts/AggregatorVerifierStep3.sol\":4160:4205  mulmod(buf[21], buf[31], AggregatorLib.q_mod) */\n      mulmod\n        /* \"continuation-batcher/sol/contracts/AggregatorVerifierStep3.sol\":4150:4153  buf */\n      dup3\n        /* \"continuation-batcher/sol/contracts/AggregatorVerifierStep3.sol\":4154:4156  16 */\n      0x10\n        /* \"continuation-batcher/sol/contracts/AggregatorVerifierStep3.sol\":4150:4157  buf[16] */\n      dup2\n      mload\n      dup2\n      lt\n      tag_311\n      jumpi\n      tag_311\n      tag_13\n      jump\t// in\n    tag_311:\n      0x20\n      mul\n      0x20\n      add\n      add\n        /* \"continuation-batcher/sol/contracts/AggregatorVerifierStep3.sol\":4150:4205  buf[16] = mulmod(buf[21], buf[31], AggregatorLib.q_mod) */\n      dup2\n      dup2\n      mstore\n      pop\n      pop\n        /* \"continuation-batcher/sol/contracts/AggregatorVerifierStep3.sol\":4207:4241  AggregatorLib.ecc_mul_add(buf, 12) */\n      tag_312\n        /* \"continuation-batcher/sol/contracts/AggregatorVerifierStep3.sol\":4233:4236  buf */\n      dup3\n        /* \"continuation-batcher/sol/contracts/AggregatorVerifierStep3.sol\":4238:4240  12 */\n      0x0c\n        /* \"continuation-batcher/sol/contracts/AggregatorVerifierStep3.sol\":4207:4232  AggregatorLib.ecc_mul_add */\n      tag_30\n        /* \"continuation-batcher/sol/contracts/AggregatorVerifierStep3.sol\":4207:4241  AggregatorLib.ecc_mul_add(buf, 12) */\n      jump\t// in\n    tag_312:\n        /* \"continuation-batcher/sol/contracts/AggregatorVerifierStep3.sol\":4265:4275  transcript */\n      dup6\n      dup6\n        /* \"continuation-batcher/sol/contracts/AggregatorVerifierStep3.sol\":4276:4278  42 */\n      0x2a\n        /* \"continuation-batcher/sol/contracts/AggregatorVerifierStep3.sol\":4265:4279  transcript[42] */\n      dup2\n      dup2\n      lt\n      tag_314\n      jumpi\n      tag_314\n      tag_13\n      jump\t// in\n    tag_314:\n      swap1\n      pop\n      0x20\n      mul\n      add\n      calldataload\n        /* \"continuation-batcher/sol/contracts/AggregatorVerifierStep3.sol\":4281:4291  transcript */\n      dup7\n      dup7\n        /* \"continuation-batcher/sol/contracts/AggregatorVerifierStep3.sol\":4292:4294  43 */\n      0x2b\n        /* \"continuation-batcher/sol/contracts/AggregatorVerifierStep3.sol\":4281:4295  transcript[43] */\n      dup2\n      dup2\n      lt\n      tag_316\n      jumpi\n      tag_316\n      tag_13\n      jump\t// in\n    tag_316:\n      swap1\n      pop\n      0x20\n      mul\n      add\n      calldataload\n        /* \"continuation-batcher/sol/contracts/AggregatorVerifierStep3.sol\":4244:4247  buf */\n      dup4\n        /* \"continuation-batcher/sol/contracts/AggregatorVerifierStep3.sol\":4248:4250  14 */\n      0x0e\n        /* \"continuation-batcher/sol/contracts/AggregatorVerifierStep3.sol\":4244:4251  buf[14] */\n      dup2\n      mload\n      dup2\n      lt\n      tag_318\n      jumpi\n      tag_318\n      tag_13\n      jump\t// in\n    tag_318:\n      0x20\n      mul\n      0x20\n      add\n      add\n        /* \"continuation-batcher/sol/contracts/AggregatorVerifierStep3.sol\":4253:4256  buf */\n      dup5\n        /* \"continuation-batcher/sol/contracts/AggregatorVerifierStep3.sol\":4257:4259  15 */\n      0x0f\n        /* \"continuation-batcher/sol/contracts/AggregatorVerifierStep3.sol\":4253:4260  buf[15] */\n      dup2\n      mload\n      dup2\n      lt\n      tag_320\n      jumpi\n      tag_320\n      tag_13\n      jump\t// in\n    tag_320:\n      0x20\n      swap1\n      dup2\n      mul\n      swap2\n      swap1\n      swap2\n      add\n      add\n        /* \"continuation-batcher/sol/contracts/AggregatorVerifierStep3.sol\":4243:4296  (buf[14], buf[15]) = (transcript[42], transcript[43]) */\n      swap2\n      swap1\n      swap2\n      mstore\n      mstore\n      0x00\n      dup1\n      mload\n      0x20\n      data_848f50338cc074da8d5d8c20099d6f9a52cdd4e857863a722476f697bca98a91\n      dup4\n      codecopy\n      dup2\n      mload\n      swap2\n      mstore\n        /* \"continuation-batcher/sol/contracts/AggregatorVerifierStep3.sol\":4324:4327  buf */\n      dup3\n        /* \"continuation-batcher/sol/contracts/AggregatorVerifierStep3.sol\":4328:4330  23 */\n      0x17\n        /* \"continuation-batcher/sol/contracts/AggregatorVerifierStep3.sol\":4324:4331  buf[23] */\n      dup2\n      mload\n      dup2\n      lt\n      tag_324\n      jumpi\n      tag_324\n      tag_13\n      jump\t// in\n    tag_324:\n      0x20\n      mul\n      0x20\n      add\n      add\n      mload\n        /* \"continuation-batcher/sol/contracts/AggregatorVerifierStep3.sol\":4315:4318  buf */\n      dup4\n        /* \"continuation-batcher/sol/contracts/AggregatorVerifierStep3.sol\":4319:4321  25 */\n      0x19\n        /* \"continuation-batcher/sol/contracts/AggregatorVerifierStep3.sol\":4315:4322  buf[25] */\n      dup2\n      mload\n      dup2\n      lt\n      tag_326\n      jumpi\n      tag_326\n      tag_13\n      jump\t// in\n    tag_326:\n      0x20\n      mul\n      0x20\n      add\n      add\n      mload\n        /* \"continuation-batcher/sol/contracts/AggregatorVerifierStep3.sol\":4308:4353  mulmod(buf[25], buf[23], AggregatorLib.q_mod) */\n      mulmod\n        /* \"continuation-batcher/sol/contracts/AggregatorVerifierStep3.sol\":4298:4301  buf */\n      dup3\n        /* \"continuation-batcher/sol/contracts/AggregatorVerifierStep3.sol\":4302:4304  16 */\n      0x10\n        /* \"continuation-batcher/sol/contracts/AggregatorVerifierStep3.sol\":4298:4305  buf[16] */\n      dup2\n      mload\n      dup2\n      lt\n      tag_328\n      jumpi\n      tag_328\n      tag_13\n      jump\t// in\n    tag_328:\n      0x20\n      mul\n      0x20\n      add\n      add\n        /* \"continuation-batcher/sol/contracts/AggregatorVerifierStep3.sol\":4298:4353  buf[16] = mulmod(buf[25], buf[23], AggregatorLib.q_mod) */\n      dup2\n      dup2\n      mstore\n      pop\n      pop\n        /* \"continuation-batcher/sol/contracts/AggregatorVerifierStep3.sol\":4355:4389  AggregatorLib.ecc_mul_add(buf, 12) */\n      tag_329\n        /* \"continuation-batcher/sol/contracts/AggregatorVerifierStep3.sol\":4381:4384  buf */\n      dup3\n        /* \"continuation-batcher/sol/contracts/AggregatorVerifierStep3.sol\":4386:4388  12 */\n      0x0c\n        /* \"continuation-batcher/sol/contracts/AggregatorVerifierStep3.sol\":4355:4380  AggregatorLib.ecc_mul_add */\n      tag_30\n        /* \"continuation-batcher/sol/contracts/AggregatorVerifierStep3.sol\":4355:4389  AggregatorLib.ecc_mul_add(buf, 12) */\n      jump\t// in\n    tag_329:\n        /* \"continuation-batcher/sol/contracts/AggregatorVerifierStep3.sol\":4413:4423  transcript */\n      dup6\n      dup6\n        /* \"continuation-batcher/sol/contracts/AggregatorVerifierStep3.sol\":4424:4426  24 */\n      0x18\n        /* \"continuation-batcher/sol/contracts/AggregatorVerifierStep3.sol\":4413:4427  transcript[24] */\n      dup2\n      dup2\n      lt\n      tag_331\n      jumpi\n      tag_331\n      tag_13\n      jump\t// in\n    tag_331:\n      swap1\n      pop\n      0x20\n      mul\n      add\n      calldataload\n        /* \"continuation-batcher/sol/contracts/AggregatorVerifierStep3.sol\":4429:4439  transcript */\n      dup7\n      dup7\n        /* \"continuation-batcher/sol/contracts/AggregatorVerifierStep3.sol\":4440:4442  25 */\n      0x19\n        /* \"continuation-batcher/sol/contracts/AggregatorVerifierStep3.sol\":4429:4443  transcript[25] */\n      dup2\n      dup2\n      lt\n      tag_333\n      jumpi\n      tag_333\n      tag_13\n      jump\t// in\n    tag_333:\n      swap1\n      pop\n      0x20\n      mul\n      add\n      calldataload\n        /* \"continuation-batcher/sol/contracts/AggregatorVerifierStep3.sol\":4392:4395  buf */\n      dup4\n        /* \"continuation-batcher/sol/contracts/AggregatorVerifierStep3.sol\":4396:4398  14 */\n      0x0e\n        /* \"continuation-batcher/sol/contracts/AggregatorVerifierStep3.sol\":4392:4399  buf[14] */\n      dup2\n      mload\n      dup2\n      lt\n      tag_335\n      jumpi\n      tag_335\n      tag_13\n      jump\t// in\n    tag_335:\n      0x20\n      mul\n      0x20\n      add\n      add\n        /* \"continuation-batcher/sol/contracts/AggregatorVerifierStep3.sol\":4401:4404  buf */\n      dup5\n        /* \"continuation-batcher/sol/contracts/AggregatorVerifierStep3.sol\":4405:4407  15 */\n      0x0f\n        /* \"continuation-batcher/sol/contracts/AggregatorVerifierStep3.sol\":4401:4408  buf[15] */\n      dup2\n      mload\n      dup2\n      lt\n      tag_337\n      jumpi\n      tag_337\n      tag_13\n      jump\t// in\n    tag_337:\n      0x20\n      swap1\n      dup2\n      mul\n      swap2\n      swap1\n      swap2\n      add\n      add\n        /* \"continuation-batcher/sol/contracts/AggregatorVerifierStep3.sol\":4391:4444  (buf[14], buf[15]) = (transcript[24], transcript[25]) */\n      swap2\n      swap1\n      swap2\n      mstore\n      mstore\n      0x00\n      dup1\n      mload\n      0x20\n      data_848f50338cc074da8d5d8c20099d6f9a52cdd4e857863a722476f697bca98a91\n      dup4\n      codecopy\n      dup2\n      mload\n      swap2\n      mstore\n        /* \"continuation-batcher/sol/contracts/AggregatorVerifierStep3.sol\":4472:4475  buf */\n      dup3\n        /* \"continuation-batcher/sol/contracts/AggregatorVerifierStep3.sol\":4476:4477  7 */\n      0x07\n        /* \"continuation-batcher/sol/contracts/AggregatorVerifierStep3.sol\":4472:4478  buf[7] */\n      dup2\n      mload\n      dup2\n      lt\n      tag_341\n      jumpi\n      tag_341\n      tag_13\n      jump\t// in\n    tag_341:\n      0x20\n      mul\n      0x20\n      add\n      add\n      mload\n        /* \"continuation-batcher/sol/contracts/AggregatorVerifierStep3.sol\":4463:4466  buf */\n      dup4\n        /* \"continuation-batcher/sol/contracts/AggregatorVerifierStep3.sol\":4467:4469  17 */\n      0x11\n        /* \"continuation-batcher/sol/contracts/AggregatorVerifierStep3.sol\":4463:4470  buf[17] */\n      dup2\n      mload\n      dup2\n      lt\n      tag_343\n      jumpi\n      tag_343\n      tag_13\n      jump\t// in\n    tag_343:\n      0x20\n      mul\n      0x20\n      add\n      add\n      mload\n        /* \"continuation-batcher/sol/contracts/AggregatorVerifierStep3.sol\":4456:4500  mulmod(buf[17], buf[7], AggregatorLib.q_mod) */\n      mulmod\n        /* \"continuation-batcher/sol/contracts/AggregatorVerifierStep3.sol\":4446:4449  buf */\n      dup3\n        /* \"continuation-batcher/sol/contracts/AggregatorVerifierStep3.sol\":4450:4452  16 */\n      0x10\n        /* \"continuation-batcher/sol/contracts/AggregatorVerifierStep3.sol\":4446:4453  buf[16] */\n      dup2\n      mload\n      dup2\n      lt\n      tag_345\n      jumpi\n      tag_345\n      tag_13\n      jump\t// in\n    tag_345:\n      0x20\n      mul\n      0x20\n      add\n      add\n        /* \"continuation-batcher/sol/contracts/AggregatorVerifierStep3.sol\":4446:4500  buf[16] = mulmod(buf[17], buf[7], AggregatorLib.q_mod) */\n      dup2\n      dup2\n      mstore\n      pop\n      pop\n        /* \"continuation-batcher/sol/contracts/AggregatorVerifierStep3.sol\":4502:4536  AggregatorLib.ecc_mul_add(buf, 12) */\n      tag_346\n        /* \"continuation-batcher/sol/contracts/AggregatorVerifierStep3.sol\":4528:4531  buf */\n      dup3\n        /* \"continuation-batcher/sol/contracts/AggregatorVerifierStep3.sol\":4533:4535  12 */\n      0x0c\n        /* \"continuation-batcher/sol/contracts/AggregatorVerifierStep3.sol\":4502:4527  AggregatorLib.ecc_mul_add */\n      tag_30\n        /* \"continuation-batcher/sol/contracts/AggregatorVerifierStep3.sol\":4502:4536  AggregatorLib.ecc_mul_add(buf, 12) */\n      jump\t// in\n    tag_346:\n      0x00\n      dup1\n      mload\n      0x20\n      data_848f50338cc074da8d5d8c20099d6f9a52cdd4e857863a722476f697bca98a91\n      dup4\n      codecopy\n      dup2\n      mload\n      swap2\n      mstore\n        /* \"continuation-batcher/sol/contracts/AggregatorVerifierStep3.sol\":4564:4567  buf */\n      dup3\n        /* \"continuation-batcher/sol/contracts/AggregatorVerifierStep3.sol\":4568:4570  23 */\n      0x17\n        /* \"continuation-batcher/sol/contracts/AggregatorVerifierStep3.sol\":4564:4571  buf[23] */\n      dup2\n      mload\n      dup2\n      lt\n      tag_350\n      jumpi\n      tag_350\n      tag_13\n      jump\t// in\n    tag_350:\n      0x20\n      mul\n      0x20\n      add\n      add\n      mload\n        /* \"continuation-batcher/sol/contracts/AggregatorVerifierStep3.sol\":4555:4558  buf */\n      dup4\n        /* \"continuation-batcher/sol/contracts/AggregatorVerifierStep3.sol\":4559:4561  30 */\n      0x1e\n        /* \"continuation-batcher/sol/contracts/AggregatorVerifierStep3.sol\":4555:4562  buf[30] */\n      dup2\n      mload\n      dup2\n      lt\n      tag_352\n      jumpi\n      tag_352\n      tag_13\n      jump\t// in\n    tag_352:\n      0x20\n      mul\n      0x20\n      add\n      add\n      mload\n        /* \"continuation-batcher/sol/contracts/AggregatorVerifierStep3.sol\":4548:4593  mulmod(buf[30], buf[23], AggregatorLib.q_mod) */\n      mulmod\n        /* \"continuation-batcher/sol/contracts/AggregatorVerifierStep3.sol\":4538:4541  buf */\n      dup3\n        /* \"continuation-batcher/sol/contracts/AggregatorVerifierStep3.sol\":4542:4544  20 */\n      0x14\n        /* \"continuation-batcher/sol/contracts/AggregatorVerifierStep3.sol\":4538:4545  buf[20] */\n      dup2\n      mload\n      dup2\n      lt\n      tag_354\n      jumpi\n      tag_354\n      tag_13\n      jump\t// in\n    tag_354:\n      0x20\n      mul\n      0x20\n      add\n      add\n        /* \"continuation-batcher/sol/contracts/AggregatorVerifierStep3.sol\":4538:4593  buf[20] = mulmod(buf[30], buf[23], AggregatorLib.q_mod) */\n      dup2\n      dup2\n      mstore\n      pop\n      pop\n        /* \"continuation-batcher/sol/contracts/AggregatorVerifierStep3.sol\":4617:4627  transcript */\n      dup6\n      dup6\n        /* \"continuation-batcher/sol/contracts/AggregatorVerifierStep3.sol\":4628:4630  26 */\n      0x1a\n        /* \"continuation-batcher/sol/contracts/AggregatorVerifierStep3.sol\":4617:4631  transcript[26] */\n      dup2\n      dup2\n      lt\n      tag_356\n      jumpi\n      tag_356\n      tag_13\n      jump\t// in\n    tag_356:\n      swap1\n      pop\n      0x20\n      mul\n      add\n      calldataload\n        /* \"continuation-batcher/sol/contracts/AggregatorVerifierStep3.sol\":4633:4643  transcript */\n      dup7\n      dup7\n        /* \"continuation-batcher/sol/contracts/AggregatorVerifierStep3.sol\":4644:4646  27 */\n      0x1b\n        /* \"continuation-batcher/sol/contracts/AggregatorVerifierStep3.sol\":4633:4647  transcript[27] */\n      dup2\n      dup2\n      lt\n      tag_358\n      jumpi\n      tag_358\n      tag_13\n      jump\t// in\n    tag_358:\n      swap1\n      pop\n      0x20\n      mul\n      add\n      calldataload\n        /* \"continuation-batcher/sol/contracts/AggregatorVerifierStep3.sol\":4596:4599  buf */\n      dup4\n        /* \"continuation-batcher/sol/contracts/AggregatorVerifierStep3.sol\":4600:4602  14 */\n      0x0e\n        /* \"continuation-batcher/sol/contracts/AggregatorVerifierStep3.sol\":4596:4603  buf[14] */\n      dup2\n      mload\n      dup2\n      lt\n      tag_360\n      jumpi\n      tag_360\n      tag_13\n      jump\t// in\n    tag_360:\n      0x20\n      mul\n      0x20\n      add\n      add\n        /* \"continuation-batcher/sol/contracts/AggregatorVerifierStep3.sol\":4605:4608  buf */\n      dup5\n        /* \"continuation-batcher/sol/contracts/AggregatorVerifierStep3.sol\":4609:4611  15 */\n      0x0f\n        /* \"continuation-batcher/sol/contracts/AggregatorVerifierStep3.sol\":4605:4612  buf[15] */\n      dup2\n      mload\n      dup2\n      lt\n      tag_362\n      jumpi\n      tag_362\n      tag_13\n      jump\t// in\n    tag_362:\n      0x20\n      swap1\n      dup2\n      mul\n      swap2\n      swap1\n      swap2\n      add\n      add\n        /* \"continuation-batcher/sol/contracts/AggregatorVerifierStep3.sol\":4595:4648  (buf[14], buf[15]) = (transcript[26], transcript[27]) */\n      swap2\n      swap1\n      swap2\n      mstore\n      mstore\n      0x00\n      dup1\n      mload\n      0x20\n      data_848f50338cc074da8d5d8c20099d6f9a52cdd4e857863a722476f697bca98a91\n      dup4\n      codecopy\n      dup2\n      mload\n      swap2\n      mstore\n        /* \"continuation-batcher/sol/contracts/AggregatorLib.sol\":289:366  21888242871839275222246405745257275088548364400416034343698204186575808495617 */\n      dup1\n        /* \"continuation-batcher/sol/contracts/AggregatorVerifierStep3.sol\":4692:4695  buf */\n      dup4\n        /* \"continuation-batcher/sol/contracts/AggregatorVerifierStep3.sol\":4696:4697  7 */\n      0x07\n        /* \"continuation-batcher/sol/contracts/AggregatorVerifierStep3.sol\":4692:4698  buf[7] */\n      dup2\n      mload\n      dup2\n      lt\n      tag_368\n      jumpi\n      tag_368\n      tag_13\n      jump\t// in\n    tag_368:\n      0x20\n      mul\n      0x20\n      add\n      add\n      mload\n        /* \"continuation-batcher/sol/contracts/AggregatorVerifierStep3.sol\":4683:4686  buf */\n      dup5\n        /* \"continuation-batcher/sol/contracts/AggregatorVerifierStep3.sol\":4687:4689  20 */\n      0x14\n        /* \"continuation-batcher/sol/contracts/AggregatorVerifierStep3.sol\":4683:4690  buf[20] */\n      dup2\n      mload\n      dup2\n      lt\n      tag_370\n      jumpi\n      tag_370\n      tag_13\n      jump\t// in\n    tag_370:\n      0x20\n      mul\n      0x20\n      add\n      add\n      mload\n        /* \"continuation-batcher/sol/contracts/AggregatorVerifierStep3.sol\":4676:4720  mulmod(buf[20], buf[7], AggregatorLib.q_mod) */\n      mulmod\n        /* \"continuation-batcher/sol/contracts/AggregatorVerifierStep3.sol\":4667:4670  buf */\n      dup4\n        /* \"continuation-batcher/sol/contracts/AggregatorVerifierStep3.sol\":4671:4673  21 */\n      0x15\n        /* \"continuation-batcher/sol/contracts/AggregatorVerifierStep3.sol\":4667:4674  buf[21] */\n      dup2\n      mload\n      dup2\n      lt\n      tag_372\n      jumpi\n      tag_372\n      tag_13\n      jump\t// in\n    tag_372:\n      0x20\n      mul\n      0x20\n      add\n      add\n      mload\n        /* \"continuation-batcher/sol/contracts/AggregatorVerifierStep3.sol\":4660:4742  mulmod(buf[21], mulmod(buf[20], buf[7], AggregatorLib.q_mod), AggregatorLib.q_mod) */\n      mulmod\n        /* \"continuation-batcher/sol/contracts/AggregatorVerifierStep3.sol\":4650:4653  buf */\n      dup3\n        /* \"continuation-batcher/sol/contracts/AggregatorVerifierStep3.sol\":4654:4656  16 */\n      0x10\n        /* \"continuation-batcher/sol/contracts/AggregatorVerifierStep3.sol\":4650:4657  buf[16] */\n      dup2\n      mload\n      dup2\n      lt\n      tag_374\n      jumpi\n      tag_374\n      tag_13\n      jump\t// in\n    tag_374:\n      0x20\n      mul\n      0x20\n      add\n      add\n        /* \"continuation-batcher/sol/contracts/AggregatorVerifierStep3.sol\":4650:4742  buf[16] = mulmod(buf[21], mulmod(buf[20], buf[7], AggregatorLib.q_mod), AggregatorLib.q_mod) */\n      dup2\n      dup2\n      mstore\n      pop\n      pop\n        /* \"continuation-batcher/sol/contracts/AggregatorVerifierStep3.sol\":4744:4778  AggregatorLib.ecc_mul_add(buf, 12) */\n      tag_375\n        /* \"continuation-batcher/sol/contracts/AggregatorVerifierStep3.sol\":4770:4773  buf */\n      dup3\n        /* \"continuation-batcher/sol/contracts/AggregatorVerifierStep3.sol\":4775:4777  12 */\n      0x0c\n        /* \"continuation-batcher/sol/contracts/AggregatorVerifierStep3.sol\":4744:4769  AggregatorLib.ecc_mul_add */\n      tag_30\n        /* \"continuation-batcher/sol/contracts/AggregatorVerifierStep3.sol\":4744:4778  AggregatorLib.ecc_mul_add(buf, 12) */\n      jump\t// in\n    tag_375:\n        /* \"continuation-batcher/sol/contracts/AggregatorVerifierStep3.sol\":4802:4812  transcript */\n      dup6\n      dup6\n        /* \"continuation-batcher/sol/contracts/AggregatorVerifierStep3.sol\":4813:4815  44 */\n      0x2c\n        /* \"continuation-batcher/sol/contracts/AggregatorVerifierStep3.sol\":4802:4816  transcript[44] */\n      dup2\n      dup2\n      lt\n      tag_377\n      jumpi\n      tag_377\n      tag_13\n      jump\t// in\n    tag_377:\n      swap1\n      pop\n      0x20\n      mul\n      add\n      calldataload\n        /* \"continuation-batcher/sol/contracts/AggregatorVerifierStep3.sol\":4818:4828  transcript */\n      dup7\n      dup7\n        /* \"continuation-batcher/sol/contracts/AggregatorVerifierStep3.sol\":4829:4831  45 */\n      0x2d\n        /* \"continuation-batcher/sol/contracts/AggregatorVerifierStep3.sol\":4818:4832  transcript[45] */\n      dup2\n      dup2\n      lt\n      tag_379\n      jumpi\n      tag_379\n      tag_13\n      jump\t// in\n    tag_379:\n      swap1\n      pop\n      0x20\n      mul\n      add\n      calldataload\n        /* \"continuation-batcher/sol/contracts/AggregatorVerifierStep3.sol\":4781:4784  buf */\n      dup4\n        /* \"continuation-batcher/sol/contracts/AggregatorVerifierStep3.sol\":4785:4787  14 */\n      0x0e\n        /* \"continuation-batcher/sol/contracts/AggregatorVerifierStep3.sol\":4781:4788  buf[14] */\n      dup2\n      mload\n      dup2\n      lt\n      tag_381\n      jumpi\n      tag_381\n      tag_13\n      jump\t// in\n    tag_381:\n      0x20\n      mul\n      0x20\n      add\n      add\n        /* \"continuation-batcher/sol/contracts/AggregatorVerifierStep3.sol\":4790:4793  buf */\n      dup5\n        /* \"continuation-batcher/sol/contracts/AggregatorVerifierStep3.sol\":4794:4796  15 */\n      0x0f\n        /* \"continuation-batcher/sol/contracts/AggregatorVerifierStep3.sol\":4790:4797  buf[15] */\n      dup2\n      mload\n      dup2\n      lt\n      tag_383\n      jumpi\n      tag_383\n      tag_13\n      jump\t// in\n    tag_383:\n      0x20\n      swap1\n      dup2\n      mul\n      swap2\n      swap1\n      swap2\n      add\n      add\n        /* \"continuation-batcher/sol/contracts/AggregatorVerifierStep3.sol\":4780:4833  (buf[14], buf[15]) = (transcript[44], transcript[45]) */\n      swap2\n      swap1\n      swap2\n      mstore\n      mstore\n      0x00\n      dup1\n      mload\n      0x20\n      data_848f50338cc074da8d5d8c20099d6f9a52cdd4e857863a722476f697bca98a91\n      dup4\n      codecopy\n      dup2\n      mload\n      swap2\n      mstore\n        /* \"continuation-batcher/sol/contracts/AggregatorVerifierStep3.sol\":4861:4864  buf */\n      dup3\n        /* \"continuation-batcher/sol/contracts/AggregatorVerifierStep3.sol\":4865:4866  7 */\n      0x07\n        /* \"continuation-batcher/sol/contracts/AggregatorVerifierStep3.sol\":4861:4867  buf[7] */\n      dup2\n      mload\n      dup2\n      lt\n      tag_387\n      jumpi\n      tag_387\n      tag_13\n      jump\t// in\n    tag_387:\n      0x20\n      mul\n      0x20\n      add\n      add\n      mload\n        /* \"continuation-batcher/sol/contracts/AggregatorVerifierStep3.sol\":4852:4855  buf */\n      dup4\n        /* \"continuation-batcher/sol/contracts/AggregatorVerifierStep3.sol\":4856:4858  25 */\n      0x19\n        /* \"continuation-batcher/sol/contracts/AggregatorVerifierStep3.sol\":4852:4859  buf[25] */\n      dup2\n      mload\n      dup2\n      lt\n      tag_389\n      jumpi\n      tag_389\n      tag_13\n      jump\t// in\n    tag_389:\n      0x20\n      mul\n      0x20\n      add\n      add\n      mload\n        /* \"continuation-batcher/sol/contracts/AggregatorVerifierStep3.sol\":4845:4889  mulmod(buf[25], buf[7], AggregatorLib.q_mod) */\n      mulmod\n        /* \"continuation-batcher/sol/contracts/AggregatorVerifierStep3.sol\":4835:4838  buf */\n      dup3\n        /* \"continuation-batcher/sol/contracts/AggregatorVerifierStep3.sol\":4839:4841  16 */\n      0x10\n        /* \"continuation-batcher/sol/contracts/AggregatorVerifierStep3.sol\":4835:4842  buf[16] */\n      dup2\n      mload\n      dup2\n      lt\n      tag_391\n      jumpi\n      tag_391\n      tag_13\n      jump\t// in\n    tag_391:\n      0x20\n      mul\n      0x20\n      add\n      add\n        /* \"continuation-batcher/sol/contracts/AggregatorVerifierStep3.sol\":4835:4889  buf[16] = mulmod(buf[25], buf[7], AggregatorLib.q_mod) */\n      dup2\n      dup2\n      mstore\n      pop\n      pop\n        /* \"continuation-batcher/sol/contracts/AggregatorVerifierStep3.sol\":4891:4925  AggregatorLib.ecc_mul_add(buf, 12) */\n      tag_392\n        /* \"continuation-batcher/sol/contracts/AggregatorVerifierStep3.sol\":4917:4920  buf */\n      dup3\n        /* \"continuation-batcher/sol/contracts/AggregatorVerifierStep3.sol\":4922:4924  12 */\n      0x0c\n        /* \"continuation-batcher/sol/contracts/AggregatorVerifierStep3.sol\":4891:4916  AggregatorLib.ecc_mul_add */\n      tag_30\n        /* \"continuation-batcher/sol/contracts/AggregatorVerifierStep3.sol\":4891:4925  AggregatorLib.ecc_mul_add(buf, 12) */\n      jump\t// in\n    tag_392:\n        /* \"continuation-batcher/sol/contracts/AggregatorVerifierStep3.sol\":4949:4959  transcript */\n      dup6\n      dup6\n        /* \"continuation-batcher/sol/contracts/AggregatorVerifierStep3.sol\":4960:4962  28 */\n      0x1c\n        /* \"continuation-batcher/sol/contracts/AggregatorVerifierStep3.sol\":4949:4963  transcript[28] */\n      dup2\n      dup2\n      lt\n      tag_394\n      jumpi\n      tag_394\n      tag_13\n      jump\t// in\n    tag_394:\n      swap1\n      pop\n      0x20\n      mul\n      add\n      calldataload\n        /* \"continuation-batcher/sol/contracts/AggregatorVerifierStep3.sol\":4965:4975  transcript */\n      dup7\n      dup7\n        /* \"continuation-batcher/sol/contracts/AggregatorVerifierStep3.sol\":4976:4978  29 */\n      0x1d\n        /* \"continuation-batcher/sol/contracts/AggregatorVerifierStep3.sol\":4965:4979  transcript[29] */\n      dup2\n      dup2\n      lt\n      tag_396\n      jumpi\n      tag_396\n      tag_13\n      jump\t// in\n    tag_396:\n      swap1\n      pop\n      0x20\n      mul\n      add\n      calldataload\n        /* \"continuation-batcher/sol/contracts/AggregatorVerifierStep3.sol\":4928:4931  buf */\n      dup4\n        /* \"continuation-batcher/sol/contracts/AggregatorVerifierStep3.sol\":4932:4934  14 */\n      0x0e\n        /* \"continuation-batcher/sol/contracts/AggregatorVerifierStep3.sol\":4928:4935  buf[14] */\n      dup2\n      mload\n      dup2\n      lt\n      tag_398\n      jumpi\n      tag_398\n      tag_13\n      jump\t// in\n    tag_398:\n      0x20\n      mul\n      0x20\n      add\n      add\n        /* \"continuation-batcher/sol/contracts/AggregatorVerifierStep3.sol\":4937:4940  buf */\n      dup5\n        /* \"continuation-batcher/sol/contracts/AggregatorVerifierStep3.sol\":4941:4943  15 */\n      0x0f\n        /* \"continuation-batcher/sol/contracts/AggregatorVerifierStep3.sol\":4937:4944  buf[15] */\n      dup2\n      mload\n      dup2\n      lt\n      tag_400\n      jumpi\n      tag_400\n      tag_13\n      jump\t// in\n    tag_400:\n      0x20\n      mul\n      0x20\n      add\n      add\n        /* \"continuation-batcher/sol/contracts/AggregatorVerifierStep3.sol\":4927:4980  (buf[14], buf[15]) = (transcript[28], transcript[29]) */\n      dup3\n      dup2\n      mstore\n      pop\n      dup3\n      dup2\n      mstore\n      pop\n      pop\n      pop\n        /* \"continuation-batcher/sol/contracts/AggregatorVerifierStep3.sol\":4992:4995  buf */\n      dup2\n        /* \"continuation-batcher/sol/contracts/AggregatorVerifierStep3.sol\":4996:4998  17 */\n      0x11\n        /* \"continuation-batcher/sol/contracts/AggregatorVerifierStep3.sol\":4992:4999  buf[17] */\n      dup2\n      mload\n      dup2\n      lt\n      tag_402\n      jumpi\n      tag_402\n      tag_13\n      jump\t// in\n    tag_402:\n      0x20\n      mul\n      0x20\n      add\n      add\n      mload\n        /* \"continuation-batcher/sol/contracts/AggregatorVerifierStep3.sol\":4982:4985  buf */\n      dup3\n        /* \"continuation-batcher/sol/contracts/AggregatorVerifierStep3.sol\":4986:4988  16 */\n      0x10\n        /* \"continuation-batcher/sol/contracts/AggregatorVerifierStep3.sol\":4982:4989  buf[16] */\n      dup2\n      mload\n      dup2\n      lt\n      tag_404\n      jumpi\n      tag_404\n      tag_13\n      jump\t// in\n    tag_404:\n      0x20\n      mul\n      0x20\n      add\n      add\n        /* \"continuation-batcher/sol/contracts/AggregatorVerifierStep3.sol\":4982:4999  buf[16] = buf[17] */\n      dup2\n      dup2\n      mstore\n      pop\n      pop\n        /* \"continuation-batcher/sol/contracts/AggregatorVerifierStep3.sol\":5001:5035  AggregatorLib.ecc_mul_add(buf, 12) */\n      tag_405\n        /* \"continuation-batcher/sol/contracts/AggregatorVerifierStep3.sol\":5027:5030  buf */\n      dup3\n        /* \"continuation-batcher/sol/contracts/AggregatorVerifierStep3.sol\":5032:5034  12 */\n      0x0c\n        /* \"continuation-batcher/sol/contracts/AggregatorVerifierStep3.sol\":5001:5026  AggregatorLib.ecc_mul_add */\n      tag_30\n        /* \"continuation-batcher/sol/contracts/AggregatorVerifierStep3.sol\":5001:5035  AggregatorLib.ecc_mul_add(buf, 12) */\n      jump\t// in\n    tag_405:\n        /* \"continuation-batcher/sol/contracts/AggregatorVerifierStep3.sol\":5059:5069  transcript */\n      dup6\n      dup6\n        /* \"continuation-batcher/sol/contracts/AggregatorVerifierStep3.sol\":5070:5072  30 */\n      0x1e\n        /* \"continuation-batcher/sol/contracts/AggregatorVerifierStep3.sol\":5059:5073  transcript[30] */\n      dup2\n      dup2\n      lt\n      tag_407\n      jumpi\n      tag_407\n      tag_13\n      jump\t// in\n    tag_407:\n      swap1\n      pop\n      0x20\n      mul\n      add\n      calldataload\n        /* \"continuation-batcher/sol/contracts/AggregatorVerifierStep3.sol\":5075:5085  transcript */\n      dup7\n      dup7\n        /* \"continuation-batcher/sol/contracts/AggregatorVerifierStep3.sol\":5086:5088  31 */\n      0x1f\n        /* \"continuation-batcher/sol/contracts/AggregatorVerifierStep3.sol\":5075:5089  transcript[31] */\n      dup2\n      dup2\n      lt\n      tag_409\n      jumpi\n      tag_409\n      tag_13\n      jump\t// in\n    tag_409:\n      swap1\n      pop\n      0x20\n      mul\n      add\n      calldataload\n        /* \"continuation-batcher/sol/contracts/AggregatorVerifierStep3.sol\":5038:5041  buf */\n      dup4\n        /* \"continuation-batcher/sol/contracts/AggregatorVerifierStep3.sol\":5042:5044  14 */\n      0x0e\n        /* \"continuation-batcher/sol/contracts/AggregatorVerifierStep3.sol\":5038:5045  buf[14] */\n      dup2\n      mload\n      dup2\n      lt\n      tag_411\n      jumpi\n      tag_411\n      tag_13\n      jump\t// in\n    tag_411:\n      0x20\n      mul\n      0x20\n      add\n      add\n        /* \"continuation-batcher/sol/contracts/AggregatorVerifierStep3.sol\":5047:5050  buf */\n      dup5\n        /* \"continuation-batcher/sol/contracts/AggregatorVerifierStep3.sol\":5051:5053  15 */\n      0x0f\n        /* \"continuation-batcher/sol/contracts/AggregatorVerifierStep3.sol\":5047:5054  buf[15] */\n      dup2\n      mload\n      dup2\n      lt\n      tag_413\n      jumpi\n      tag_413\n      tag_13\n      jump\t// in\n    tag_413:\n      0x20\n      swap1\n      dup2\n      mul\n      swap2\n      swap1\n      swap2\n      add\n      add\n        /* \"continuation-batcher/sol/contracts/AggregatorVerifierStep3.sol\":5037:5090  (buf[14], buf[15]) = (transcript[30], transcript[31]) */\n      swap2\n      swap1\n      swap2\n      mstore\n      mstore\n      0x00\n      dup1\n      mload\n      0x20\n      data_848f50338cc074da8d5d8c20099d6f9a52cdd4e857863a722476f697bca98a91\n      dup4\n      codecopy\n      dup2\n      mload\n      swap2\n      mstore\n        /* \"continuation-batcher/sol/contracts/AggregatorVerifierStep3.sol\":5118:5121  buf */\n      dup3\n        /* \"continuation-batcher/sol/contracts/AggregatorVerifierStep3.sol\":5122:5124  20 */\n      0x14\n        /* \"continuation-batcher/sol/contracts/AggregatorVerifierStep3.sol\":5118:5125  buf[20] */\n      dup2\n      mload\n      dup2\n      lt\n      tag_417\n      jumpi\n      tag_417\n      tag_13\n      jump\t// in\n    tag_417:\n      0x20\n      mul\n      0x20\n      add\n      add\n      mload\n        /* \"continuation-batcher/sol/contracts/AggregatorVerifierStep3.sol\":5109:5112  buf */\n      dup4\n        /* \"continuation-batcher/sol/contracts/AggregatorVerifierStep3.sol\":5113:5115  21 */\n      0x15\n        /* \"continuation-batcher/sol/contracts/AggregatorVerifierStep3.sol\":5109:5116  buf[21] */\n      dup2\n      mload\n      dup2\n      lt\n      tag_419\n      jumpi\n      tag_419\n      tag_13\n      jump\t// in\n    tag_419:\n      0x20\n      mul\n      0x20\n      add\n      add\n      mload\n        /* \"continuation-batcher/sol/contracts/AggregatorVerifierStep3.sol\":5102:5147  mulmod(buf[21], buf[20], AggregatorLib.q_mod) */\n      mulmod\n        /* \"continuation-batcher/sol/contracts/AggregatorVerifierStep3.sol\":5092:5095  buf */\n      dup3\n        /* \"continuation-batcher/sol/contracts/AggregatorVerifierStep3.sol\":5096:5098  16 */\n      0x10\n        /* \"continuation-batcher/sol/contracts/AggregatorVerifierStep3.sol\":5092:5099  buf[16] */\n      dup2\n      mload\n      dup2\n      lt\n      tag_421\n      jumpi\n      tag_421\n      tag_13\n      jump\t// in\n    tag_421:\n      0x20\n      mul\n      0x20\n      add\n      add\n        /* \"continuation-batcher/sol/contracts/AggregatorVerifierStep3.sol\":5092:5147  buf[16] = mulmod(buf[21], buf[20], AggregatorLib.q_mod) */\n      dup2\n      dup2\n      mstore\n      pop\n      pop\n        /* \"continuation-batcher/sol/contracts/AggregatorVerifierStep3.sol\":5149:5183  AggregatorLib.ecc_mul_add(buf, 12) */\n      tag_422\n        /* \"continuation-batcher/sol/contracts/AggregatorVerifierStep3.sol\":5175:5178  buf */\n      dup3\n        /* \"continuation-batcher/sol/contracts/AggregatorVerifierStep3.sol\":5180:5182  12 */\n      0x0c\n        /* \"continuation-batcher/sol/contracts/AggregatorVerifierStep3.sol\":5149:5174  AggregatorLib.ecc_mul_add */\n      tag_30\n        /* \"continuation-batcher/sol/contracts/AggregatorVerifierStep3.sol\":5149:5183  AggregatorLib.ecc_mul_add(buf, 12) */\n      jump\t// in\n    tag_422:\n        /* \"continuation-batcher/sol/contracts/AggregatorVerifierStep3.sol\":5207:5217  transcript */\n      dup6\n      dup6\n        /* \"continuation-batcher/sol/contracts/AggregatorVerifierStep3.sol\":5218:5220  46 */\n      0x2e\n        /* \"continuation-batcher/sol/contracts/AggregatorVerifierStep3.sol\":5207:5221  transcript[46] */\n      dup2\n      dup2\n      lt\n      tag_424\n      jumpi\n      tag_424\n      tag_13\n      jump\t// in\n    tag_424:\n      swap1\n      pop\n      0x20\n      mul\n      add\n      calldataload\n        /* \"continuation-batcher/sol/contracts/AggregatorVerifierStep3.sol\":5223:5233  transcript */\n      dup7\n      dup7\n        /* \"continuation-batcher/sol/contracts/AggregatorVerifierStep3.sol\":5234:5236  47 */\n      0x2f\n        /* \"continuation-batcher/sol/contracts/AggregatorVerifierStep3.sol\":5223:5237  transcript[47] */\n      dup2\n      dup2\n      lt\n      tag_426\n      jumpi\n      tag_426\n      tag_13\n      jump\t// in\n    tag_426:\n      swap1\n      pop\n      0x20\n      mul\n      add\n      calldataload\n        /* \"continuation-batcher/sol/contracts/AggregatorVerifierStep3.sol\":5186:5189  buf */\n      dup4\n        /* \"continuation-batcher/sol/contracts/AggregatorVerifierStep3.sol\":5190:5192  14 */\n      0x0e\n        /* \"continuation-batcher/sol/contracts/AggregatorVerifierStep3.sol\":5186:5193  buf[14] */\n      dup2\n      mload\n      dup2\n      lt\n      tag_428\n      jumpi\n      tag_428\n      tag_13\n      jump\t// in\n    tag_428:\n      0x20\n      mul\n      0x20\n      add\n      add\n        /* \"continuation-batcher/sol/contracts/AggregatorVerifierStep3.sol\":5195:5198  buf */\n      dup5\n        /* \"continuation-batcher/sol/contracts/AggregatorVerifierStep3.sol\":5199:5201  15 */\n      0x0f\n        /* \"continuation-batcher/sol/contracts/AggregatorVerifierStep3.sol\":5195:5202  buf[15] */\n      dup2\n      mload\n      dup2\n      lt\n      tag_430\n      jumpi\n      tag_430\n      tag_13\n      jump\t// in\n    tag_430:\n      0x20\n      mul\n      0x20\n      add\n      add\n        /* \"continuation-batcher/sol/contracts/AggregatorVerifierStep3.sol\":5185:5238  (buf[14], buf[15]) = (transcript[46], transcript[47]) */\n      dup3\n      dup2\n      mstore\n      pop\n      dup3\n      dup2\n      mstore\n      pop\n      pop\n      pop\n        /* \"continuation-batcher/sol/contracts/AggregatorVerifierStep3.sol\":5250:5253  buf */\n      dup2\n        /* \"continuation-batcher/sol/contracts/AggregatorVerifierStep3.sol\":5254:5256  25 */\n      0x19\n        /* \"continuation-batcher/sol/contracts/AggregatorVerifierStep3.sol\":5250:5257  buf[25] */\n      dup2\n      mload\n      dup2\n      lt\n      tag_432\n      jumpi\n      tag_432\n      tag_13\n      jump\t// in\n    tag_432:\n      0x20\n      mul\n      0x20\n      add\n      add\n      mload\n        /* \"continuation-batcher/sol/contracts/AggregatorVerifierStep3.sol\":5240:5243  buf */\n      dup3\n        /* \"continuation-batcher/sol/contracts/AggregatorVerifierStep3.sol\":5244:5246  16 */\n      0x10\n        /* \"continuation-batcher/sol/contracts/AggregatorVerifierStep3.sol\":5240:5247  buf[16] */\n      dup2\n      mload\n      dup2\n      lt\n      tag_434\n      jumpi\n      tag_434\n      tag_13\n      jump\t// in\n    tag_434:\n      0x20\n      mul\n      0x20\n      add\n      add\n        /* \"continuation-batcher/sol/contracts/AggregatorVerifierStep3.sol\":5240:5257  buf[16] = buf[25] */\n      dup2\n      dup2\n      mstore\n      pop\n      pop\n        /* \"continuation-batcher/sol/contracts/AggregatorVerifierStep3.sol\":5259:5293  AggregatorLib.ecc_mul_add(buf, 12) */\n      tag_435\n        /* \"continuation-batcher/sol/contracts/AggregatorVerifierStep3.sol\":5285:5288  buf */\n      dup3\n        /* \"continuation-batcher/sol/contracts/AggregatorVerifierStep3.sol\":5290:5292  12 */\n      0x0c\n        /* \"continuation-batcher/sol/contracts/AggregatorVerifierStep3.sol\":5259:5284  AggregatorLib.ecc_mul_add */\n      tag_30\n        /* \"continuation-batcher/sol/contracts/AggregatorVerifierStep3.sol\":5259:5293  AggregatorLib.ecc_mul_add(buf, 12) */\n      jump\t// in\n    tag_435:\n        /* \"continuation-batcher/sol/contracts/AggregatorVerifierStep3.sol\":5317:5393  8219891373329039313620559132004649204278572593599738452452488319990448482168 */\n      0x122c4b2c663b815420306938f8be0ddf18b39b75b3c3c56bf872c9e588776778\n        /* \"continuation-batcher/sol/contracts/AggregatorVerifierStep3.sol\":5395:5472  17191082171038123011170867846452699181854051087326502731374243304734055143459 */\n      0x2601cec54204146dfc83cb8e79a02ffb69f0aedca727a5b57fde7bd9fa7f1823\n        /* \"continuation-batcher/sol/contracts/AggregatorVerifierStep3.sol\":5296:5299  buf */\n      dup4\n        /* \"continuation-batcher/sol/contracts/AggregatorVerifierStep3.sol\":5300:5302  14 */\n      0x0e\n        /* \"continuation-batcher/sol/contracts/AggregatorVerifierStep3.sol\":5296:5303  buf[14] */\n      dup2\n      mload\n      dup2\n      lt\n      tag_437\n      jumpi\n      tag_437\n      tag_13\n      jump\t// in\n    tag_437:\n      0x20\n      mul\n      0x20\n      add\n      add\n        /* \"continuation-batcher/sol/contracts/AggregatorVerifierStep3.sol\":5305:5308  buf */\n      dup5\n        /* \"continuation-batcher/sol/contracts/AggregatorVerifierStep3.sol\":5309:5311  15 */\n      0x0f\n        /* \"continuation-batcher/sol/contracts/AggregatorVerifierStep3.sol\":5305:5312  buf[15] */\n      dup2\n      mload\n      dup2\n      lt\n      tag_439\n      jumpi\n      tag_439\n      tag_13\n      jump\t// in\n    tag_439:\n      0x20\n      swap1\n      dup2\n      mul\n      swap2\n      swap1\n      swap2\n      add\n      add\n        /* \"continuation-batcher/sol/contracts/AggregatorVerifierStep3.sol\":5295:5473  (buf[14], buf[15]) = (8219891373329039313620559132004649204278572593599738452452488319990448482168, 17191082171038123011170867846452699181854051087326502731374243304734055143459) */\n      swap2\n      swap1\n      swap2\n      mstore\n      mstore\n      0x00\n      dup1\n      mload\n      0x20\n      data_848f50338cc074da8d5d8c20099d6f9a52cdd4e857863a722476f697bca98a91\n      dup4\n      codecopy\n      dup2\n      mload\n      swap2\n      mstore\n        /* \"continuation-batcher/sol/contracts/AggregatorVerifierStep3.sol\":5501:5504  buf */\n      dup3\n        /* \"continuation-batcher/sol/contracts/AggregatorVerifierStep3.sol\":5505:5507  33 */\n      0x21\n        /* \"continuation-batcher/sol/contracts/AggregatorVerifierStep3.sol\":5501:5508  buf[33] */\n      dup2\n      mload\n      dup2\n      lt\n      tag_443\n      jumpi\n      tag_443\n      tag_13\n      jump\t// in\n    tag_443:\n      0x20\n      mul\n      0x20\n      add\n      add\n      mload\n        /* \"continuation-batcher/sol/contracts/AggregatorVerifierStep3.sol\":5492:5495  buf */\n      dup4\n        /* \"continuation-batcher/sol/contracts/AggregatorVerifierStep3.sol\":5496:5498  21 */\n      0x15\n        /* \"continuation-batcher/sol/contracts/AggregatorVerifierStep3.sol\":5492:5499  buf[21] */\n      dup2\n      mload\n      dup2\n      lt\n      tag_445\n      jumpi\n      tag_445\n      tag_13\n      jump\t// in\n    tag_445:\n      0x20\n      mul\n      0x20\n      add\n      add\n      mload\n        /* \"continuation-batcher/sol/contracts/AggregatorVerifierStep3.sol\":5485:5530  mulmod(buf[21], buf[33], AggregatorLib.q_mod) */\n      mulmod\n        /* \"continuation-batcher/sol/contracts/AggregatorVerifierStep3.sol\":5475:5478  buf */\n      dup3\n        /* \"continuation-batcher/sol/contracts/AggregatorVerifierStep3.sol\":5479:5481  16 */\n      0x10\n        /* \"continuation-batcher/sol/contracts/AggregatorVerifierStep3.sol\":5475:5482  buf[16] */\n      dup2\n      mload\n      dup2\n      lt\n      tag_447\n      jumpi\n      tag_447\n      tag_13\n      jump\t// in\n    tag_447:\n      0x20\n      mul\n      0x20\n      add\n      add\n        /* \"continuation-batcher/sol/contracts/AggregatorVerifierStep3.sol\":5475:5530  buf[16] = mulmod(buf[21], buf[33], AggregatorLib.q_mod) */\n      dup2\n      dup2\n      mstore\n      pop\n      pop\n        /* \"continuation-batcher/sol/contracts/AggregatorVerifierStep3.sol\":5532:5566  AggregatorLib.ecc_mul_add(buf, 12) */\n      tag_448\n        /* \"continuation-batcher/sol/contracts/AggregatorVerifierStep3.sol\":5558:5561  buf */\n      dup3\n        /* \"continuation-batcher/sol/contracts/AggregatorVerifierStep3.sol\":5563:5565  12 */\n      0x0c\n        /* \"continuation-batcher/sol/contracts/AggregatorVerifierStep3.sol\":5532:5557  AggregatorLib.ecc_mul_add */\n      tag_30\n        /* \"continuation-batcher/sol/contracts/AggregatorVerifierStep3.sol\":5532:5566  AggregatorLib.ecc_mul_add(buf, 12) */\n      jump\t// in\n    tag_448:\n        /* \"continuation-batcher/sol/contracts/AggregatorVerifierStep3.sol\":5590:5666  9691577873700924310847256392228268072024510474127897562348890244214648687114 */\n      0x156d3d1a9708a90b0555e0541f0b5b166b588c8992d27d2554229afe81ab4a0a\n        /* \"continuation-batcher/sol/contracts/AggregatorVerifierStep3.sol\":5668:5745  15990940855628906141705545931318183649580524284170685036741911600016454811065 */\n      0x235a8d41c50ffc0c07768c72e4668e30487413468aca2e0b3c4e1c9a45fb7db9\n        /* \"continuation-batcher/sol/contracts/AggregatorVerifierStep3.sol\":5569:5572  buf */\n      dup4\n        /* \"continuation-batcher/sol/contracts/AggregatorVerifierStep3.sol\":5573:5575  14 */\n      0x0e\n        /* \"continuation-batcher/sol/contracts/AggregatorVerifierStep3.sol\":5569:5576  buf[14] */\n      dup2\n      mload\n      dup2\n      lt\n      tag_450\n      jumpi\n      tag_450\n      tag_13\n      jump\t// in\n    tag_450:\n      0x20\n      mul\n      0x20\n      add\n      add\n        /* \"continuation-batcher/sol/contracts/AggregatorVerifierStep3.sol\":5578:5581  buf */\n      dup5\n        /* \"continuation-batcher/sol/contracts/AggregatorVerifierStep3.sol\":5582:5584  15 */\n      0x0f\n        /* \"continuation-batcher/sol/contracts/AggregatorVerifierStep3.sol\":5578:5585  buf[15] */\n      dup2\n      mload\n      dup2\n      lt\n      tag_452\n      jumpi\n      tag_452\n      tag_13\n      jump\t// in\n    tag_452:\n      0x20\n      swap1\n      dup2\n      mul\n      swap2\n      swap1\n      swap2\n      add\n      add\n        /* \"continuation-batcher/sol/contracts/AggregatorVerifierStep3.sol\":5568:5746  (buf[14], buf[15]) = (9691577873700924310847256392228268072024510474127897562348890244214648687114, 15990940855628906141705545931318183649580524284170685036741911600016454811065) */\n      swap2\n      swap1\n      swap2\n      mstore\n      mstore\n      0x00\n      dup1\n      mload\n      0x20\n      data_848f50338cc074da8d5d8c20099d6f9a52cdd4e857863a722476f697bca98a91\n      dup4\n      codecopy\n      dup2\n      mload\n      swap2\n      mstore\n        /* \"continuation-batcher/sol/contracts/AggregatorLib.sol\":289:366  21888242871839275222246405745257275088548364400416034343698204186575808495617 */\n      dup1\n        /* \"continuation-batcher/sol/contracts/AggregatorVerifierStep3.sol\":5790:5793  buf */\n      dup4\n        /* \"continuation-batcher/sol/contracts/AggregatorVerifierStep3.sol\":5794:5795  7 */\n      0x07\n        /* \"continuation-batcher/sol/contracts/AggregatorVerifierStep3.sol\":5790:5796  buf[7] */\n      dup2\n      mload\n      dup2\n      lt\n      tag_458\n      jumpi\n      tag_458\n      tag_13\n      jump\t// in\n    tag_458:\n      0x20\n      mul\n      0x20\n      add\n      add\n      mload\n        /* \"continuation-batcher/sol/contracts/AggregatorVerifierStep3.sol\":5781:5784  buf */\n      dup5\n        /* \"continuation-batcher/sol/contracts/AggregatorVerifierStep3.sol\":5785:5787  26 */\n      0x1a\n        /* \"continuation-batcher/sol/contracts/AggregatorVerifierStep3.sol\":5781:5788  buf[26] */\n      dup2\n      mload\n      dup2\n      lt\n      tag_460\n      jumpi\n      tag_460\n      tag_13\n      jump\t// in\n    tag_460:\n      0x20\n      mul\n      0x20\n      add\n      add\n      mload\n        /* \"continuation-batcher/sol/contracts/AggregatorVerifierStep3.sol\":5774:5818  mulmod(buf[26], buf[7], AggregatorLib.q_mod) */\n      mulmod\n        /* \"continuation-batcher/sol/contracts/AggregatorVerifierStep3.sol\":5765:5768  buf */\n      dup4\n        /* \"continuation-batcher/sol/contracts/AggregatorVerifierStep3.sol\":5769:5771  21 */\n      0x15\n        /* \"continuation-batcher/sol/contracts/AggregatorVerifierStep3.sol\":5765:5772  buf[21] */\n      dup2\n      mload\n      dup2\n      lt\n      tag_462\n      jumpi\n      tag_462\n      tag_13\n      jump\t// in\n    tag_462:\n      0x20\n      mul\n      0x20\n      add\n      add\n      mload\n        /* \"continuation-batcher/sol/contracts/AggregatorVerifierStep3.sol\":5758:5840  mulmod(buf[21], mulmod(buf[26], buf[7], AggregatorLib.q_mod), AggregatorLib.q_mod) */\n      mulmod\n        /* \"continuation-batcher/sol/contracts/AggregatorVerifierStep3.sol\":5748:5751  buf */\n      dup3\n        /* \"continuation-batcher/sol/contracts/AggregatorVerifierStep3.sol\":5752:5754  16 */\n      0x10\n        /* \"continuation-batcher/sol/contracts/AggregatorVerifierStep3.sol\":5748:5755  buf[16] */\n      dup2\n      mload\n      dup2\n      lt\n      tag_464\n      jumpi\n      tag_464\n      tag_13\n      jump\t// in\n    tag_464:\n      0x20\n      mul\n      0x20\n      add\n      add\n        /* \"continuation-batcher/sol/contracts/AggregatorVerifierStep3.sol\":5748:5840  buf[16] = mulmod(buf[21], mulmod(buf[26], buf[7], AggregatorLib.q_mod), AggregatorLib.q_mod) */\n      dup2\n      dup2\n      mstore\n      pop\n      pop\n        /* \"continuation-batcher/sol/contracts/AggregatorVerifierStep3.sol\":5842:5876  AggregatorLib.ecc_mul_add(buf, 12) */\n      tag_465\n        /* \"continuation-batcher/sol/contracts/AggregatorVerifierStep3.sol\":5868:5871  buf */\n      dup3\n        /* \"continuation-batcher/sol/contracts/AggregatorVerifierStep3.sol\":5873:5875  12 */\n      0x0c\n        /* \"continuation-batcher/sol/contracts/AggregatorVerifierStep3.sol\":5842:5867  AggregatorLib.ecc_mul_add */\n      tag_30\n        /* \"continuation-batcher/sol/contracts/AggregatorVerifierStep3.sol\":5842:5876  AggregatorLib.ecc_mul_add(buf, 12) */\n      jump\t// in\n    tag_465:\n        /* \"continuation-batcher/sol/contracts/AggregatorVerifierStep3.sol\":5900:5976  1117943120685452206041529548548076014855717391006498247726776082332745316324 */\n      0x0278bbbefe5ff51facaed3fa35628af1e32fc79ae2fbbfa59ca82b15f3b5b7e4\n        /* \"continuation-batcher/sol/contracts/AggregatorVerifierStep3.sol\":5978:6054  6446297355586311521664524783463382504896665023169424234428350123887283779422 */\n      0x0e40799a014835571072c5db3143ac9b9af83a29caa225c41e74b9d8f25db75e\n        /* \"continuation-batcher/sol/contracts/AggregatorVerifierStep3.sol\":5879:5882  buf */\n      dup4\n        /* \"continuation-batcher/sol/contracts/AggregatorVerifierStep3.sol\":5883:5885  14 */\n      0x0e\n        /* \"continuation-batcher/sol/contracts/AggregatorVerifierStep3.sol\":5879:5886  buf[14] */\n      dup2\n      mload\n      dup2\n      lt\n      tag_467\n      jumpi\n      tag_467\n      tag_13\n      jump\t// in\n    tag_467:\n      0x20\n      mul\n      0x20\n      add\n      add\n        /* \"continuation-batcher/sol/contracts/AggregatorVerifierStep3.sol\":5888:5891  buf */\n      dup5\n        /* \"continuation-batcher/sol/contracts/AggregatorVerifierStep3.sol\":5892:5894  15 */\n      0x0f\n        /* \"continuation-batcher/sol/contracts/AggregatorVerifierStep3.sol\":5888:5895  buf[15] */\n      dup2\n      mload\n      dup2\n      lt\n      tag_469\n      jumpi\n      tag_469\n      tag_13\n      jump\t// in\n    tag_469:\n      0x20\n      swap1\n      dup2\n      mul\n      swap2\n      swap1\n      swap2\n      add\n      add\n        /* \"continuation-batcher/sol/contracts/AggregatorVerifierStep3.sol\":5878:6055  (buf[14], buf[15]) = (1117943120685452206041529548548076014855717391006498247726776082332745316324, 6446297355586311521664524783463382504896665023169424234428350123887283779422) */\n      swap2\n      swap1\n      swap2\n      mstore\n      mstore\n      0x00\n      dup1\n      mload\n      0x20\n      data_848f50338cc074da8d5d8c20099d6f9a52cdd4e857863a722476f697bca98a91\n      dup4\n      codecopy\n      dup2\n      mload\n      swap2\n      mstore\n        /* \"continuation-batcher/sol/contracts/AggregatorVerifierStep3.sol\":6083:6086  buf */\n      dup3\n        /* \"continuation-batcher/sol/contracts/AggregatorVerifierStep3.sol\":6087:6089  26 */\n      0x1a\n        /* \"continuation-batcher/sol/contracts/AggregatorVerifierStep3.sol\":6083:6090  buf[26] */\n      dup2\n      mload\n      dup2\n      lt\n      tag_473\n      jumpi\n      tag_473\n      tag_13\n      jump\t// in\n    tag_473:\n      0x20\n      mul\n      0x20\n      add\n      add\n      mload\n        /* \"continuation-batcher/sol/contracts/AggregatorVerifierStep3.sol\":6074:6077  buf */\n      dup4\n        /* \"continuation-batcher/sol/contracts/AggregatorVerifierStep3.sol\":6078:6080  21 */\n      0x15\n        /* \"continuation-batcher/sol/contracts/AggregatorVerifierStep3.sol\":6074:6081  buf[21] */\n      dup2\n      mload\n      dup2\n      lt\n      tag_475\n      jumpi\n      tag_475\n      tag_13\n      jump\t// in\n    tag_475:\n      0x20\n      mul\n      0x20\n      add\n      add\n      mload\n        /* \"continuation-batcher/sol/contracts/AggregatorVerifierStep3.sol\":6067:6112  mulmod(buf[21], buf[26], AggregatorLib.q_mod) */\n      mulmod\n        /* \"continuation-batcher/sol/contracts/AggregatorVerifierStep3.sol\":6057:6060  buf */\n      dup3\n        /* \"continuation-batcher/sol/contracts/AggregatorVerifierStep3.sol\":6061:6063  16 */\n      0x10\n        /* \"continuation-batcher/sol/contracts/AggregatorVerifierStep3.sol\":6057:6064  buf[16] */\n      dup2\n      mload\n      dup2\n      lt\n      tag_477\n      jumpi\n      tag_477\n      tag_13\n      jump\t// in\n    tag_477:\n      0x20\n      mul\n      0x20\n      add\n      add\n        /* \"continuation-batcher/sol/contracts/AggregatorVerifierStep3.sol\":6057:6112  buf[16] = mulmod(buf[21], buf[26], AggregatorLib.q_mod) */\n      dup2\n      dup2\n      mstore\n      pop\n      pop\n        /* \"continuation-batcher/sol/contracts/AggregatorVerifierStep3.sol\":6114:6148  AggregatorLib.ecc_mul_add(buf, 12) */\n      tag_478\n        /* \"continuation-batcher/sol/contracts/AggregatorVerifierStep3.sol\":6140:6143  buf */\n      dup3\n        /* \"continuation-batcher/sol/contracts/AggregatorVerifierStep3.sol\":6145:6147  12 */\n      0x0c\n        /* \"continuation-batcher/sol/contracts/AggregatorVerifierStep3.sol\":6114:6139  AggregatorLib.ecc_mul_add */\n      tag_30\n        /* \"continuation-batcher/sol/contracts/AggregatorVerifierStep3.sol\":6114:6148  AggregatorLib.ecc_mul_add(buf, 12) */\n      jump\t// in\n    tag_478:\n      0x00\n      dup1\n      mload\n      0x20\n      data_848f50338cc074da8d5d8c20099d6f9a52cdd4e857863a722476f697bca98a91\n      dup4\n      codecopy\n      dup2\n      mload\n      swap2\n      mstore\n        /* \"continuation-batcher/sol/contracts/AggregatorVerifierStep3.sol\":6176:6179  buf */\n      dup3\n        /* \"continuation-batcher/sol/contracts/AggregatorVerifierStep3.sol\":6180:6182  23 */\n      0x17\n        /* \"continuation-batcher/sol/contracts/AggregatorVerifierStep3.sol\":6176:6183  buf[23] */\n      dup2\n      mload\n      dup2\n      lt\n      tag_482\n      jumpi\n      tag_482\n      tag_13\n      jump\t// in\n    tag_482:\n      0x20\n      mul\n      0x20\n      add\n      add\n      mload\n        /* \"continuation-batcher/sol/contracts/AggregatorVerifierStep3.sol\":6167:6170  buf */\n      dup4\n        /* \"continuation-batcher/sol/contracts/AggregatorVerifierStep3.sol\":6171:6173  24 */\n      0x18\n        /* \"continuation-batcher/sol/contracts/AggregatorVerifierStep3.sol\":6167:6174  buf[24] */\n      dup2\n      mload\n      dup2\n      lt\n      tag_484\n      jumpi\n      tag_484\n      tag_13\n      jump\t// in\n    tag_484:\n      0x20\n      mul\n      0x20\n      add\n      add\n      mload\n        /* \"continuation-batcher/sol/contracts/AggregatorVerifierStep3.sol\":6160:6205  mulmod(buf[24], buf[23], AggregatorLib.q_mod) */\n      mulmod\n        /* \"continuation-batcher/sol/contracts/AggregatorVerifierStep3.sol\":6150:6153  buf */\n      dup3\n        /* \"continuation-batcher/sol/contracts/AggregatorVerifierStep3.sol\":6154:6156  17 */\n      0x11\n        /* \"continuation-batcher/sol/contracts/AggregatorVerifierStep3.sol\":6150:6157  buf[17] */\n      dup2\n      mload\n      dup2\n      lt\n      tag_486\n      jumpi\n      tag_486\n      tag_13\n      jump\t// in\n    tag_486:\n      0x20\n      mul\n      0x20\n      add\n      add\n        /* \"continuation-batcher/sol/contracts/AggregatorVerifierStep3.sol\":6150:6205  buf[17] = mulmod(buf[24], buf[23], AggregatorLib.q_mod) */\n      dup2\n      dup2\n      mstore\n      pop\n      pop\n        /* \"continuation-batcher/sol/contracts/AggregatorVerifierStep3.sol\":6229:6306  13860034306645247998106447450410781840344143064612552407102965258710143209097 */\n      0x1ea4805cfd4e0d73993d1c8e976019e03c36bb59ee4eb5040057877c30a80e89\n        /* \"continuation-batcher/sol/contracts/AggregatorVerifierStep3.sol\":6308:6385  21362586688876053264639593254469481948654196064965445330465535680514441397469 */\n      0x2f3acbab68e399fac4606aed2ae6615b10502dc39ca7a4e8a736f9ba6444c4dd\n        /* \"continuation-batcher/sol/contracts/AggregatorVerifierStep3.sol\":6208:6211  buf */\n      dup4\n        /* \"continuation-batcher/sol/contracts/AggregatorVerifierStep3.sol\":6212:6214  14 */\n      0x0e\n        /* \"continuation-batcher/sol/contracts/AggregatorVerifierStep3.sol\":6208:6215  buf[14] */\n      dup2\n      mload\n      dup2\n      lt\n      tag_488\n      jumpi\n      tag_488\n      tag_13\n      jump\t// in\n    tag_488:\n      0x20\n      mul\n      0x20\n      add\n      add\n        /* \"continuation-batcher/sol/contracts/AggregatorVerifierStep3.sol\":6217:6220  buf */\n      dup5\n        /* \"continuation-batcher/sol/contracts/AggregatorVerifierStep3.sol\":6221:6223  15 */\n      0x0f\n        /* \"continuation-batcher/sol/contracts/AggregatorVerifierStep3.sol\":6217:6224  buf[15] */\n      dup2\n      mload\n      dup2\n      lt\n      tag_490\n      jumpi\n      tag_490\n      tag_13\n      jump\t// in\n    tag_490:\n      0x20\n      swap1\n      dup2\n      mul\n      swap2\n      swap1\n      swap2\n      add\n      add\n        /* \"continuation-batcher/sol/contracts/AggregatorVerifierStep3.sol\":6207:6386  (buf[14], buf[15]) = (13860034306645247998106447450410781840344143064612552407102965258710143209097, 21362586688876053264639593254469481948654196064965445330465535680514441397469) */\n      swap2\n      swap1\n      swap2\n      mstore\n      mstore\n      0x00\n      dup1\n      mload\n      0x20\n      data_848f50338cc074da8d5d8c20099d6f9a52cdd4e857863a722476f697bca98a91\n      dup4\n      codecopy\n      dup2\n      mload\n      swap2\n      mstore\n        /* \"continuation-batcher/sol/contracts/AggregatorLib.sol\":289:366  21888242871839275222246405745257275088548364400416034343698204186575808495617 */\n      dup1\n        /* \"continuation-batcher/sol/contracts/AggregatorVerifierStep3.sol\":6430:6433  buf */\n      dup4\n        /* \"continuation-batcher/sol/contracts/AggregatorVerifierStep3.sol\":6434:6435  7 */\n      0x07\n        /* \"continuation-batcher/sol/contracts/AggregatorVerifierStep3.sol\":6430:6436  buf[7] */\n      dup2\n      mload\n      dup2\n      lt\n      tag_496\n      jumpi\n      tag_496\n      tag_13\n      jump\t// in\n    tag_496:\n      0x20\n      mul\n      0x20\n      add\n      add\n      mload\n        /* \"continuation-batcher/sol/contracts/AggregatorVerifierStep3.sol\":6421:6424  buf */\n      dup5\n        /* \"continuation-batcher/sol/contracts/AggregatorVerifierStep3.sol\":6425:6427  17 */\n      0x11\n        /* \"continuation-batcher/sol/contracts/AggregatorVerifierStep3.sol\":6421:6428  buf[17] */\n      dup2\n      mload\n      dup2\n      lt\n      tag_498\n      jumpi\n      tag_498\n      tag_13\n      jump\t// in\n    tag_498:\n      0x20\n      mul\n      0x20\n      add\n      add\n      mload\n        /* \"continuation-batcher/sol/contracts/AggregatorVerifierStep3.sol\":6414:6458  mulmod(buf[17], buf[7], AggregatorLib.q_mod) */\n      mulmod\n        /* \"continuation-batcher/sol/contracts/AggregatorVerifierStep3.sol\":6405:6408  buf */\n      dup4\n        /* \"continuation-batcher/sol/contracts/AggregatorVerifierStep3.sol\":6409:6411  21 */\n      0x15\n        /* \"continuation-batcher/sol/contracts/AggregatorVerifierStep3.sol\":6405:6412  buf[21] */\n      dup2\n      mload\n      dup2\n      lt\n      tag_500\n      jumpi\n      tag_500\n      tag_13\n      jump\t// in\n    tag_500:\n      0x20\n      mul\n      0x20\n      add\n      add\n      mload\n        /* \"continuation-batcher/sol/contracts/AggregatorVerifierStep3.sol\":6398:6480  mulmod(buf[21], mulmod(buf[17], buf[7], AggregatorLib.q_mod), AggregatorLib.q_mod) */\n      mulmod\n        /* \"continuation-batcher/sol/contracts/AggregatorVerifierStep3.sol\":6388:6391  buf */\n      dup3\n        /* \"continuation-batcher/sol/contracts/AggregatorVerifierStep3.sol\":6392:6394  16 */\n      0x10\n        /* \"continuation-batcher/sol/contracts/AggregatorVerifierStep3.sol\":6388:6395  buf[16] */\n      dup2\n      mload\n      dup2\n      lt\n      tag_502\n      jumpi\n      tag_502\n      tag_13\n      jump\t// in\n    tag_502:\n      0x20\n      mul\n      0x20\n      add\n      add\n        /* \"continuation-batcher/sol/contracts/AggregatorVerifierStep3.sol\":6388:6480  buf[16] = mulmod(buf[21], mulmod(buf[17], buf[7], AggregatorLib.q_mod), AggregatorLib.q_mod) */\n      dup2\n      dup2\n      mstore\n      pop\n      pop\n        /* \"continuation-batcher/sol/contracts/AggregatorVerifierStep3.sol\":6482:6516  AggregatorLib.ecc_mul_add(buf, 12) */\n      tag_503\n        /* \"continuation-batcher/sol/contracts/AggregatorVerifierStep3.sol\":6508:6511  buf */\n      dup3\n        /* \"continuation-batcher/sol/contracts/AggregatorVerifierStep3.sol\":6513:6515  12 */\n      0x0c\n        /* \"continuation-batcher/sol/contracts/AggregatorVerifierStep3.sol\":6482:6507  AggregatorLib.ecc_mul_add */\n      tag_30\n        /* \"continuation-batcher/sol/contracts/AggregatorVerifierStep3.sol\":6482:6516  AggregatorLib.ecc_mul_add(buf, 12) */\n      jump\t// in\n    tag_503:\n        /* \"continuation-batcher/sol/contracts/AggregatorVerifierStep3.sol\":6540:6617  15341105670070334552343000349279879422961317781687562225903001585237319952889 */\n      0x21eac21319033bf3744c814d37ba065334d18bbe9dd73a074bc5529539b329f9\n        /* \"continuation-batcher/sol/contracts/AggregatorVerifierStep3.sol\":6619:6696  17310808433189222871965653439434961084963562796523444730447726724835566577002 */\n      0x264592032337e2b0639e36f2dbdafdf5ca2d09aa78c7df964f184a658942656a\n        /* \"continuation-batcher/sol/contracts/AggregatorVerifierStep3.sol\":6519:6522  buf */\n      dup4\n        /* \"continuation-batcher/sol/contracts/AggregatorVerifierStep3.sol\":6523:6525  14 */\n      0x0e\n        /* \"continuation-batcher/sol/contracts/AggregatorVerifierStep3.sol\":6519:6526  buf[14] */\n      dup2\n      mload\n      dup2\n      lt\n      tag_505\n      jumpi\n      tag_505\n      tag_13\n      jump\t// in\n    tag_505:\n      0x20\n      mul\n      0x20\n      add\n      add\n        /* \"continuation-batcher/sol/contracts/AggregatorVerifierStep3.sol\":6528:6531  buf */\n      dup5\n        /* \"continuation-batcher/sol/contracts/AggregatorVerifierStep3.sol\":6532:6534  15 */\n      0x0f\n        /* \"continuation-batcher/sol/contracts/AggregatorVerifierStep3.sol\":6528:6535  buf[15] */\n      dup2\n      mload\n      dup2\n      lt\n      tag_507\n      jumpi\n      tag_507\n      tag_13\n      jump\t// in\n    tag_507:\n      0x20\n      swap1\n      dup2\n      mul\n      swap2\n      swap1\n      swap2\n      add\n      add\n        /* \"continuation-batcher/sol/contracts/AggregatorVerifierStep3.sol\":6518:6697  (buf[14], buf[15]) = (15341105670070334552343000349279879422961317781687562225903001585237319952889, 17310808433189222871965653439434961084963562796523444730447726724835566577002) */\n      swap2\n      swap1\n      swap2\n      mstore\n      mstore\n      0x00\n      dup1\n      mload\n      0x20\n      data_848f50338cc074da8d5d8c20099d6f9a52cdd4e857863a722476f697bca98a91\n      dup4\n      codecopy\n      dup2\n      mload\n      swap2\n      mstore\n        /* \"continuation-batcher/sol/contracts/AggregatorVerifierStep3.sol\":6725:6728  buf */\n      dup3\n        /* \"continuation-batcher/sol/contracts/AggregatorVerifierStep3.sol\":6729:6731  17 */\n      0x11\n        /* \"continuation-batcher/sol/contracts/AggregatorVerifierStep3.sol\":6725:6732  buf[17] */\n      dup2\n      mload\n      dup2\n      lt\n      tag_511\n      jumpi\n      tag_511\n      tag_13\n      jump\t// in\n    tag_511:\n      0x20\n      mul\n      0x20\n      add\n      add\n      mload\n        /* \"continuation-batcher/sol/contracts/AggregatorVerifierStep3.sol\":6716:6719  buf */\n      dup4\n        /* \"continuation-batcher/sol/contracts/AggregatorVerifierStep3.sol\":6720:6722  21 */\n      0x15\n        /* \"continuation-batcher/sol/contracts/AggregatorVerifierStep3.sol\":6716:6723  buf[21] */\n      dup2\n      mload\n      dup2\n      lt\n      tag_513\n      jumpi\n      tag_513\n      tag_13\n      jump\t// in\n    tag_513:\n      0x20\n      mul\n      0x20\n      add\n      add\n      mload\n        /* \"continuation-batcher/sol/contracts/AggregatorVerifierStep3.sol\":6709:6754  mulmod(buf[21], buf[17], AggregatorLib.q_mod) */\n      mulmod\n        /* \"continuation-batcher/sol/contracts/AggregatorVerifierStep3.sol\":6699:6702  buf */\n      dup3\n        /* \"continuation-batcher/sol/contracts/AggregatorVerifierStep3.sol\":6703:6705  16 */\n      0x10\n        /* \"continuation-batcher/sol/contracts/AggregatorVerifierStep3.sol\":6699:6706  buf[16] */\n      dup2\n      mload\n      dup2\n      lt\n      tag_515\n      jumpi\n      tag_515\n      tag_13\n      jump\t// in\n    tag_515:\n      0x20\n      mul\n      0x20\n      add\n      add\n        /* \"continuation-batcher/sol/contracts/AggregatorVerifierStep3.sol\":6699:6754  buf[16] = mulmod(buf[21], buf[17], AggregatorLib.q_mod) */\n      dup2\n      dup2\n      mstore\n      pop\n      pop\n        /* \"continuation-batcher/sol/contracts/AggregatorVerifierStep3.sol\":6756:6790  AggregatorLib.ecc_mul_add(buf, 12) */\n      tag_516\n        /* \"continuation-batcher/sol/contracts/AggregatorVerifierStep3.sol\":6782:6785  buf */\n      dup3\n        /* \"continuation-batcher/sol/contracts/AggregatorVerifierStep3.sol\":6787:6789  12 */\n      0x0c\n        /* \"continuation-batcher/sol/contracts/AggregatorVerifierStep3.sol\":6756:6781  AggregatorLib.ecc_mul_add */\n      tag_30\n        /* \"continuation-batcher/sol/contracts/AggregatorVerifierStep3.sol\":6756:6790  AggregatorLib.ecc_mul_add(buf, 12) */\n      jump\t// in\n    tag_516:\n        /* \"continuation-batcher/sol/contracts/AggregatorVerifierStep3.sol\":6814:6891  20442745111654043254228434662444486889564871869652203548511841340183790023713 */\n      0x2d322f070d02cc3bc0627c447cb71fa3f96420dc10fd06e8775b571b002cf421\n        /* \"continuation-batcher/sol/contracts/AggregatorVerifierStep3.sol\":6893:6969  8483199282486650470815487754055351392941325559867585662349857066750613202285 */\n      0x12c152158fa2061d331678ac9fb61522ee7d5ffd6686b1907c242792792d256d\n        /* \"continuation-batcher/sol/contracts/AggregatorVerifierStep3.sol\":6793:6796  buf */\n      dup4\n        /* \"continuation-batcher/sol/contracts/AggregatorVerifierStep3.sol\":6797:6799  14 */\n      0x0e\n        /* \"continuation-batcher/sol/contracts/AggregatorVerifierStep3.sol\":6793:6800  buf[14] */\n      dup2\n      mload\n      dup2\n      lt\n      tag_518\n      jumpi\n      tag_518\n      tag_13\n      jump\t// in\n    tag_518:\n      0x20\n      mul\n      0x20\n      add\n      add\n        /* \"continuation-batcher/sol/contracts/AggregatorVerifierStep3.sol\":6802:6805  buf */\n      dup5\n        /* \"continuation-batcher/sol/contracts/AggregatorVerifierStep3.sol\":6806:6808  15 */\n      0x0f\n        /* \"continuation-batcher/sol/contracts/AggregatorVerifierStep3.sol\":6802:6809  buf[15] */\n      dup2\n      mload\n      dup2\n      lt\n      tag_520\n      jumpi\n      tag_520\n      tag_13\n      jump\t// in\n    tag_520:\n      0x20\n      swap1\n      dup2\n      mul\n      swap2\n      swap1\n      swap2\n      add\n      add\n        /* \"continuation-batcher/sol/contracts/AggregatorVerifierStep3.sol\":6792:6970  (buf[14], buf[15]) = (20442745111654043254228434662444486889564871869652203548511841340183790023713, 8483199282486650470815487754055351392941325559867585662349857066750613202285) */\n      swap2\n      swap1\n      swap2\n      mstore\n      mstore\n      0x00\n      dup1\n      mload\n      0x20\n      data_848f50338cc074da8d5d8c20099d6f9a52cdd4e857863a722476f697bca98a91\n      dup4\n      codecopy\n      dup2\n      mload\n      swap2\n      mstore\n        /* \"continuation-batcher/sol/contracts/AggregatorLib.sol\":289:366  21888242871839275222246405745257275088548364400416034343698204186575808495617 */\n      dup1\n        /* \"continuation-batcher/sol/contracts/AggregatorVerifierStep3.sol\":7014:7017  buf */\n      dup4\n        /* \"continuation-batcher/sol/contracts/AggregatorVerifierStep3.sol\":7018:7019  7 */\n      0x07\n        /* \"continuation-batcher/sol/contracts/AggregatorVerifierStep3.sol\":7014:7020  buf[7] */\n      dup2\n      mload\n      dup2\n      lt\n      tag_526\n      jumpi\n      tag_526\n      tag_13\n      jump\t// in\n    tag_526:\n      0x20\n      mul\n      0x20\n      add\n      add\n      mload\n        /* \"continuation-batcher/sol/contracts/AggregatorVerifierStep3.sol\":7005:7008  buf */\n      dup5\n        /* \"continuation-batcher/sol/contracts/AggregatorVerifierStep3.sol\":7009:7011  24 */\n      0x18\n        /* \"continuation-batcher/sol/contracts/AggregatorVerifierStep3.sol\":7005:7012  buf[24] */\n      dup2\n      mload\n      dup2\n      lt\n      tag_528\n      jumpi\n      tag_528\n      tag_13\n      jump\t// in\n    tag_528:\n      0x20\n      mul\n      0x20\n      add\n      add\n      mload\n        /* \"continuation-batcher/sol/contracts/AggregatorVerifierStep3.sol\":6998:7042  mulmod(buf[24], buf[7], AggregatorLib.q_mod) */\n      mulmod\n        /* \"continuation-batcher/sol/contracts/AggregatorVerifierStep3.sol\":6989:6992  buf */\n      dup4\n        /* \"continuation-batcher/sol/contracts/AggregatorVerifierStep3.sol\":6993:6995  21 */\n      0x15\n        /* \"continuation-batcher/sol/contracts/AggregatorVerifierStep3.sol\":6989:6996  buf[21] */\n      dup2\n      mload\n      dup2\n      lt\n      tag_530\n      jumpi\n      tag_530\n      tag_13\n      jump\t// in\n    tag_530:\n      0x20\n      mul\n      0x20\n      add\n      add\n      mload\n        /* \"continuation-batcher/sol/contracts/AggregatorVerifierStep3.sol\":6982:7064  mulmod(buf[21], mulmod(buf[24], buf[7], AggregatorLib.q_mod), AggregatorLib.q_mod) */\n      mulmod\n        /* \"continuation-batcher/sol/contracts/AggregatorVerifierStep3.sol\":6972:6975  buf */\n      dup3\n        /* \"continuation-batcher/sol/contracts/AggregatorVerifierStep3.sol\":6976:6978  16 */\n      0x10\n        /* \"continuation-batcher/sol/contracts/AggregatorVerifierStep3.sol\":6972:6979  buf[16] */\n      dup2\n      mload\n      dup2\n      lt\n      tag_532\n      jumpi\n      tag_532\n      tag_13\n      jump\t// in\n    tag_532:\n      0x20\n      mul\n      0x20\n      add\n      add\n        /* \"continuation-batcher/sol/contracts/AggregatorVerifierStep3.sol\":6972:7064  buf[16] = mulmod(buf[21], mulmod(buf[24], buf[7], AggregatorLib.q_mod), AggregatorLib.q_mod) */\n      dup2\n      dup2\n      mstore\n      pop\n      pop\n        /* \"continuation-batcher/sol/contracts/AggregatorVerifierStep3.sol\":7066:7100  AggregatorLib.ecc_mul_add(buf, 12) */\n      tag_533\n        /* \"continuation-batcher/sol/contracts/AggregatorVerifierStep3.sol\":7092:7095  buf */\n      dup3\n        /* \"continuation-batcher/sol/contracts/AggregatorVerifierStep3.sol\":7097:7099  12 */\n      0x0c\n        /* \"continuation-batcher/sol/contracts/AggregatorVerifierStep3.sol\":7066:7091  AggregatorLib.ecc_mul_add */\n      tag_30\n        /* \"continuation-batcher/sol/contracts/AggregatorVerifierStep3.sol\":7066:7100  AggregatorLib.ecc_mul_add(buf, 12) */\n      jump\t// in\n    tag_533:\n        /* \"continuation-batcher/sol/contracts/AggregatorVerifierStep3.sol\":7124:7201  10802903200164122671756606238878366946066764958726269228146428104706880819196 */\n      0x17e239fdf40b337ad130934fa551040f37879059e6f2ca6328ca4ba5ced5cffc\n        /* \"continuation-batcher/sol/contracts/AggregatorVerifierStep3.sol\":7203:7280  14061529637519939674093034748549736352824424337180597543726586783999957477707 */\n      0x1f168b3232146ea9801b7ae828440461ede6b420f008fa1f8ca7fb8a2551294b\n        /* \"continuation-batcher/sol/contracts/AggregatorVerifierStep3.sol\":7103:7106  buf */\n      dup4\n        /* \"continuation-batcher/sol/contracts/AggregatorVerifierStep3.sol\":7107:7109  14 */\n      0x0e\n        /* \"continuation-batcher/sol/contracts/AggregatorVerifierStep3.sol\":7103:7110  buf[14] */\n      dup2\n      mload\n      dup2\n      lt\n      tag_535\n      jumpi\n      tag_535\n      tag_13\n      jump\t// in\n    tag_535:\n      0x20\n      mul\n      0x20\n      add\n      add\n        /* \"continuation-batcher/sol/contracts/AggregatorVerifierStep3.sol\":7112:7115  buf */\n      dup5\n        /* \"continuation-batcher/sol/contracts/AggregatorVerifierStep3.sol\":7116:7118  15 */\n      0x0f\n        /* \"continuation-batcher/sol/contracts/AggregatorVerifierStep3.sol\":7112:7119  buf[15] */\n      dup2\n      mload\n      dup2\n      lt\n      tag_537\n      jumpi\n      tag_537\n      tag_13\n      jump\t// in\n    tag_537:\n      0x20\n      swap1\n      dup2\n      mul\n      swap2\n      swap1\n      swap2\n      add\n      add\n        /* \"continuation-batcher/sol/contracts/AggregatorVerifierStep3.sol\":7102:7281  (buf[14], buf[15]) = (10802903200164122671756606238878366946066764958726269228146428104706880819196, 14061529637519939674093034748549736352824424337180597543726586783999957477707) */\n      swap2\n      swap1\n      swap2\n      mstore\n      mstore\n      0x00\n      dup1\n      mload\n      0x20\n      data_848f50338cc074da8d5d8c20099d6f9a52cdd4e857863a722476f697bca98a91\n      dup4\n      codecopy\n      dup2\n      mload\n      swap2\n      mstore\n        /* \"continuation-batcher/sol/contracts/AggregatorVerifierStep3.sol\":7309:7312  buf */\n      dup3\n        /* \"continuation-batcher/sol/contracts/AggregatorVerifierStep3.sol\":7313:7315  24 */\n      0x18\n        /* \"continuation-batcher/sol/contracts/AggregatorVerifierStep3.sol\":7309:7316  buf[24] */\n      dup2\n      mload\n      dup2\n      lt\n      tag_541\n      jumpi\n      tag_541\n      tag_13\n      jump\t// in\n    tag_541:\n      0x20\n      mul\n      0x20\n      add\n      add\n      mload\n        /* \"continuation-batcher/sol/contracts/AggregatorVerifierStep3.sol\":7300:7303  buf */\n      dup4\n        /* \"continuation-batcher/sol/contracts/AggregatorVerifierStep3.sol\":7304:7306  21 */\n      0x15\n        /* \"continuation-batcher/sol/contracts/AggregatorVerifierStep3.sol\":7300:7307  buf[21] */\n      dup2\n      mload\n      dup2\n      lt\n      tag_543\n      jumpi\n      tag_543\n      tag_13\n      jump\t// in\n    tag_543:\n      0x20\n      mul\n      0x20\n      add\n      add\n      mload\n        /* \"continuation-batcher/sol/contracts/AggregatorVerifierStep3.sol\":7293:7338  mulmod(buf[21], buf[24], AggregatorLib.q_mod) */\n      mulmod\n        /* \"continuation-batcher/sol/contracts/AggregatorVerifierStep3.sol\":7283:7286  buf */\n      dup3\n        /* \"continuation-batcher/sol/contracts/AggregatorVerifierStep3.sol\":7287:7289  16 */\n      0x10\n        /* \"continuation-batcher/sol/contracts/AggregatorVerifierStep3.sol\":7283:7290  buf[16] */\n      dup2\n      mload\n      dup2\n      lt\n      tag_545\n      jumpi\n      tag_545\n      tag_13\n      jump\t// in\n    tag_545:\n      0x20\n      mul\n      0x20\n      add\n      add\n        /* \"continuation-batcher/sol/contracts/AggregatorVerifierStep3.sol\":7283:7338  buf[16] = mulmod(buf[21], buf[24], AggregatorLib.q_mod) */\n      dup2\n      dup2\n      mstore\n      pop\n      pop\n        /* \"continuation-batcher/sol/contracts/AggregatorVerifierStep3.sol\":7340:7374  AggregatorLib.ecc_mul_add(buf, 12) */\n      tag_546\n        /* \"continuation-batcher/sol/contracts/AggregatorVerifierStep3.sol\":7366:7369  buf */\n      dup3\n        /* \"continuation-batcher/sol/contracts/AggregatorVerifierStep3.sol\":7371:7373  12 */\n      0x0c\n        /* \"continuation-batcher/sol/contracts/AggregatorVerifierStep3.sol\":7340:7365  AggregatorLib.ecc_mul_add */\n      tag_30\n        /* \"continuation-batcher/sol/contracts/AggregatorVerifierStep3.sol\":7340:7374  AggregatorLib.ecc_mul_add(buf, 12) */\n      jump\t// in\n    tag_546:\n      0x00\n      dup1\n      mload\n      0x20\n      data_848f50338cc074da8d5d8c20099d6f9a52cdd4e857863a722476f697bca98a91\n      dup4\n      codecopy\n      dup2\n      mload\n      swap2\n      mstore\n        /* \"continuation-batcher/sol/contracts/AggregatorVerifierStep3.sol\":7402:7405  buf */\n      dup3\n        /* \"continuation-batcher/sol/contracts/AggregatorVerifierStep3.sol\":7406:7407  7 */\n      0x07\n        /* \"continuation-batcher/sol/contracts/AggregatorVerifierStep3.sol\":7402:7408  buf[7] */\n      dup2\n      mload\n      dup2\n      lt\n      tag_550\n      jumpi\n      tag_550\n      tag_13\n      jump\t// in\n    tag_550:\n      0x20\n      mul\n      0x20\n      add\n      add\n      mload\n        /* \"continuation-batcher/sol/contracts/AggregatorVerifierStep3.sol\":7393:7396  buf */\n      dup4\n        /* \"continuation-batcher/sol/contracts/AggregatorVerifierStep3.sol\":7397:7399  23 */\n      0x17\n        /* \"continuation-batcher/sol/contracts/AggregatorVerifierStep3.sol\":7393:7400  buf[23] */\n      dup2\n      mload\n      dup2\n      lt\n      tag_552\n      jumpi\n      tag_552\n      tag_13\n      jump\t// in\n    tag_552:\n      0x20\n      mul\n      0x20\n      add\n      add\n      mload\n        /* \"continuation-batcher/sol/contracts/AggregatorVerifierStep3.sol\":7386:7430  mulmod(buf[23], buf[7], AggregatorLib.q_mod) */\n      mulmod\n        /* \"continuation-batcher/sol/contracts/AggregatorVerifierStep3.sol\":7376:7379  buf */\n      dup3\n        /* \"continuation-batcher/sol/contracts/AggregatorVerifierStep3.sol\":7380:7382  17 */\n      0x11\n        /* \"continuation-batcher/sol/contracts/AggregatorVerifierStep3.sol\":7376:7383  buf[17] */\n      dup2\n      mload\n      dup2\n      lt\n      tag_554\n      jumpi\n      tag_554\n      tag_13\n      jump\t// in\n    tag_554:\n      0x20\n      mul\n      0x20\n      add\n      add\n        /* \"continuation-batcher/sol/contracts/AggregatorVerifierStep3.sol\":7376:7430  buf[17] = mulmod(buf[23], buf[7], AggregatorLib.q_mod) */\n      dup2\n      dup2\n      mstore\n      pop\n      pop\n        /* \"continuation-batcher/sol/contracts/AggregatorVerifierStep3.sol\":7454:7530  9027853874374995885454351799625600991586249553994299875905943671198429799905 */\n      0x13f5958f2ef2a5f8cfe306165b9ff30c01218ad561e25b7cdca822454f90e5e1\n        /* \"continuation-batcher/sol/contracts/AggregatorVerifierStep3.sol\":7532:7608  8896748751053411253095897466619567267041166163407308145675214446150679587124 */\n      0x13ab619fe2a1acf2a6412d106c18e625d16df35da7ab9d214cee86d60c00e934\n        /* \"continuation-batcher/sol/contracts/AggregatorVerifierStep3.sol\":7433:7436  buf */\n      dup4\n        /* \"continuation-batcher/sol/contracts/AggregatorVerifierStep3.sol\":7437:7439  14 */\n      0x0e\n        /* \"continuation-batcher/sol/contracts/AggregatorVerifierStep3.sol\":7433:7440  buf[14] */\n      dup2\n      mload\n      dup2\n      lt\n      tag_556\n      jumpi\n      tag_556\n      tag_13\n      jump\t// in\n    tag_556:\n      0x20\n      mul\n      0x20\n      add\n      add\n        /* \"continuation-batcher/sol/contracts/AggregatorVerifierStep3.sol\":7442:7445  buf */\n      dup5\n        /* \"continuation-batcher/sol/contracts/AggregatorVerifierStep3.sol\":7446:7448  15 */\n      0x0f\n        /* \"continuation-batcher/sol/contracts/AggregatorVerifierStep3.sol\":7442:7449  buf[15] */\n      dup2\n      mload\n      dup2\n      lt\n      tag_558\n      jumpi\n      tag_558\n      tag_13\n      jump\t// in\n    tag_558:\n      0x20\n      swap1\n      dup2\n      mul\n      swap2\n      swap1\n      swap2\n      add\n      add\n        /* \"continuation-batcher/sol/contracts/AggregatorVerifierStep3.sol\":7432:7609  (buf[14], buf[15]) = (9027853874374995885454351799625600991586249553994299875905943671198429799905, 8896748751053411253095897466619567267041166163407308145675214446150679587124) */\n      swap2\n      swap1\n      swap2\n      mstore\n      mstore\n      0x00\n      dup1\n      mload\n      0x20\n      data_848f50338cc074da8d5d8c20099d6f9a52cdd4e857863a722476f697bca98a91\n      dup4\n      codecopy\n      dup2\n      mload\n      swap2\n      mstore\n        /* \"continuation-batcher/sol/contracts/AggregatorVerifierStep3.sol\":7637:7640  buf */\n      dup3\n        /* \"continuation-batcher/sol/contracts/AggregatorVerifierStep3.sol\":7641:7643  17 */\n      0x11\n        /* \"continuation-batcher/sol/contracts/AggregatorVerifierStep3.sol\":7637:7644  buf[17] */\n      dup2\n      mload\n      dup2\n      lt\n      tag_562\n      jumpi\n      tag_562\n      tag_13\n      jump\t// in\n    tag_562:\n      0x20\n      mul\n      0x20\n      add\n      add\n      mload\n        /* \"continuation-batcher/sol/contracts/AggregatorVerifierStep3.sol\":7628:7631  buf */\n      dup4\n        /* \"continuation-batcher/sol/contracts/AggregatorVerifierStep3.sol\":7632:7634  21 */\n      0x15\n        /* \"continuation-batcher/sol/contracts/AggregatorVerifierStep3.sol\":7628:7635  buf[21] */\n      dup2\n      mload\n      dup2\n      lt\n      tag_564\n      jumpi\n      tag_564\n      tag_13\n      jump\t// in\n    tag_564:\n      0x20\n      mul\n      0x20\n      add\n      add\n      mload\n        /* \"continuation-batcher/sol/contracts/AggregatorVerifierStep3.sol\":7621:7666  mulmod(buf[21], buf[17], AggregatorLib.q_mod) */\n      mulmod\n        /* \"continuation-batcher/sol/contracts/AggregatorVerifierStep3.sol\":7611:7614  buf */\n      dup3\n        /* \"continuation-batcher/sol/contracts/AggregatorVerifierStep3.sol\":7615:7617  16 */\n      0x10\n        /* \"continuation-batcher/sol/contracts/AggregatorVerifierStep3.sol\":7611:7618  buf[16] */\n      dup2\n      mload\n      dup2\n      lt\n      tag_566\n      jumpi\n      tag_566\n      tag_13\n      jump\t// in\n    tag_566:\n      0x20\n      mul\n      0x20\n      add\n      add\n        /* \"continuation-batcher/sol/contracts/AggregatorVerifierStep3.sol\":7611:7666  buf[16] = mulmod(buf[21], buf[17], AggregatorLib.q_mod) */\n      dup2\n      dup2\n      mstore\n      pop\n      pop\n        /* \"continuation-batcher/sol/contracts/AggregatorVerifierStep3.sol\":7668:7702  AggregatorLib.ecc_mul_add(buf, 12) */\n      tag_567\n        /* \"continuation-batcher/sol/contracts/AggregatorVerifierStep3.sol\":7694:7697  buf */\n      dup3\n        /* \"continuation-batcher/sol/contracts/AggregatorVerifierStep3.sol\":7699:7701  12 */\n      0x0c\n        /* \"continuation-batcher/sol/contracts/AggregatorVerifierStep3.sol\":7668:7693  AggregatorLib.ecc_mul_add */\n      tag_30\n        /* \"continuation-batcher/sol/contracts/AggregatorVerifierStep3.sol\":7668:7702  AggregatorLib.ecc_mul_add(buf, 12) */\n      jump\t// in\n    tag_567:\n        /* \"continuation-batcher/sol/contracts/AggregatorVerifierStep3.sol\":7726:7802  4836571764581335611142393458820780545362308383065865183633539167903876414827 */\n      0x0ab167115fcfa344b12422e3057429e49a4068e4cf5c9d4805f83806cc7c7d6b\n        /* \"continuation-batcher/sol/contracts/AggregatorVerifierStep3.sol\":7804:7880  4971514508941690732892537985722183509937107579278985672256416232177442388664 */\n      0x0afdc709f2aeff4d6c30deca1cddf7d245b57db1c4ce56e38ebaec86b98a7ab8\n        /* \"continuation-batcher/sol/contracts/AggregatorVerifierStep3.sol\":7705:7708  buf */\n      dup4\n        /* \"continuation-batcher/sol/contracts/AggregatorVerifierStep3.sol\":7709:7711  14 */\n      0x0e\n        /* \"continuation-batcher/sol/contracts/AggregatorVerifierStep3.sol\":7705:7712  buf[14] */\n      dup2\n      mload\n      dup2\n      lt\n      tag_569\n      jumpi\n      tag_569\n      tag_13\n      jump\t// in\n    tag_569:\n      0x20\n      mul\n      0x20\n      add\n      add\n        /* \"continuation-batcher/sol/contracts/AggregatorVerifierStep3.sol\":7714:7717  buf */\n      dup5\n        /* \"continuation-batcher/sol/contracts/AggregatorVerifierStep3.sol\":7718:7720  15 */\n      0x0f\n        /* \"continuation-batcher/sol/contracts/AggregatorVerifierStep3.sol\":7714:7721  buf[15] */\n      dup2\n      mload\n      dup2\n      lt\n      tag_571\n      jumpi\n      tag_571\n      tag_13\n      jump\t// in\n    tag_571:\n      0x20\n      swap1\n      dup2\n      mul\n      swap2\n      swap1\n      swap2\n      add\n      add\n        /* \"continuation-batcher/sol/contracts/AggregatorVerifierStep3.sol\":7704:7881  (buf[14], buf[15]) = (4836571764581335611142393458820780545362308383065865183633539167903876414827, 4971514508941690732892537985722183509937107579278985672256416232177442388664) */\n      swap2\n      swap1\n      swap2\n      mstore\n      mstore\n      0x00\n      dup1\n      mload\n      0x20\n      data_848f50338cc074da8d5d8c20099d6f9a52cdd4e857863a722476f697bca98a91\n      dup4\n      codecopy\n      dup2\n      mload\n      swap2\n      mstore\n        /* \"continuation-batcher/sol/contracts/AggregatorVerifierStep3.sol\":7909:7912  buf */\n      dup3\n        /* \"continuation-batcher/sol/contracts/AggregatorVerifierStep3.sol\":7913:7915  23 */\n      0x17\n        /* \"continuation-batcher/sol/contracts/AggregatorVerifierStep3.sol\":7909:7916  buf[23] */\n      dup2\n      mload\n      dup2\n      lt\n      tag_575\n      jumpi\n      tag_575\n      tag_13\n      jump\t// in\n    tag_575:\n      0x20\n      mul\n      0x20\n      add\n      add\n      mload\n        /* \"continuation-batcher/sol/contracts/AggregatorVerifierStep3.sol\":7900:7903  buf */\n      dup4\n        /* \"continuation-batcher/sol/contracts/AggregatorVerifierStep3.sol\":7904:7906  21 */\n      0x15\n        /* \"continuation-batcher/sol/contracts/AggregatorVerifierStep3.sol\":7900:7907  buf[21] */\n      dup2\n      mload\n      dup2\n      lt\n      tag_577\n      jumpi\n      tag_577\n      tag_13\n      jump\t// in\n    tag_577:\n      0x20\n      mul\n      0x20\n      add\n      add\n      mload\n        /* \"continuation-batcher/sol/contracts/AggregatorVerifierStep3.sol\":7893:7938  mulmod(buf[21], buf[23], AggregatorLib.q_mod) */\n      mulmod\n        /* \"continuation-batcher/sol/contracts/AggregatorVerifierStep3.sol\":7883:7886  buf */\n      dup3\n        /* \"continuation-batcher/sol/contracts/AggregatorVerifierStep3.sol\":7887:7889  16 */\n      0x10\n        /* \"continuation-batcher/sol/contracts/AggregatorVerifierStep3.sol\":7883:7890  buf[16] */\n      dup2\n      mload\n      dup2\n      lt\n      tag_579\n      jumpi\n      tag_579\n      tag_13\n      jump\t// in\n    tag_579:\n      0x20\n      mul\n      0x20\n      add\n      add\n        /* \"continuation-batcher/sol/contracts/AggregatorVerifierStep3.sol\":7883:7938  buf[16] = mulmod(buf[21], buf[23], AggregatorLib.q_mod) */\n      dup2\n      dup2\n      mstore\n      pop\n      pop\n        /* \"continuation-batcher/sol/contracts/AggregatorVerifierStep3.sol\":7940:7974  AggregatorLib.ecc_mul_add(buf, 12) */\n      tag_580\n        /* \"continuation-batcher/sol/contracts/AggregatorVerifierStep3.sol\":7966:7969  buf */\n      dup3\n        /* \"continuation-batcher/sol/contracts/AggregatorVerifierStep3.sol\":7971:7973  12 */\n      0x0c\n        /* \"continuation-batcher/sol/contracts/AggregatorVerifierStep3.sol\":7940:7965  AggregatorLib.ecc_mul_add */\n      tag_30\n        /* \"continuation-batcher/sol/contracts/AggregatorVerifierStep3.sol\":7940:7974  AggregatorLib.ecc_mul_add(buf, 12) */\n      jump\t// in\n    tag_580:\n      0x00\n      dup1\n      mload\n      0x20\n      data_848f50338cc074da8d5d8c20099d6f9a52cdd4e857863a722476f697bca98a91\n      dup4\n      codecopy\n      dup2\n      mload\n      swap2\n      mstore\n        /* \"continuation-batcher/sol/contracts/AggregatorVerifierStep3.sol\":8002:8005  buf */\n      dup3\n        /* \"continuation-batcher/sol/contracts/AggregatorVerifierStep3.sol\":8006:8008  19 */\n      0x13\n        /* \"continuation-batcher/sol/contracts/AggregatorVerifierStep3.sol\":8002:8009  buf[19] */\n      dup2\n      mload\n      dup2\n      lt\n      tag_584\n      jumpi\n      tag_584\n      tag_13\n      jump\t// in\n    tag_584:\n      0x20\n      mul\n      0x20\n      add\n      add\n      mload\n        /* \"continuation-batcher/sol/contracts/AggregatorVerifierStep3.sol\":7993:7996  buf */\n      dup4\n        /* \"continuation-batcher/sol/contracts/AggregatorVerifierStep3.sol\":7997:7999  19 */\n      0x13\n        /* \"continuation-batcher/sol/contracts/AggregatorVerifierStep3.sol\":7993:8000  buf[19] */\n      dup2\n      mload\n      dup2\n      lt\n      tag_586\n      jumpi\n      tag_586\n      tag_13\n      jump\t// in\n    tag_586:\n      0x20\n      mul\n      0x20\n      add\n      add\n      mload\n        /* \"continuation-batcher/sol/contracts/AggregatorVerifierStep3.sol\":7986:8031  mulmod(buf[19], buf[19], AggregatorLib.q_mod) */\n      mulmod\n        /* \"continuation-batcher/sol/contracts/AggregatorVerifierStep3.sol\":7976:7979  buf */\n      dup3\n        /* \"continuation-batcher/sol/contracts/AggregatorVerifierStep3.sol\":7980:7982  19 */\n      0x13\n        /* \"continuation-batcher/sol/contracts/AggregatorVerifierStep3.sol\":7976:7983  buf[19] */\n      dup2\n      mload\n      dup2\n      lt\n      tag_588\n      jumpi\n      tag_588\n      tag_13\n      jump\t// in\n    tag_588:\n      0x20\n      swap1\n      dup2\n      mul\n      swap2\n      swap1\n      swap2\n      add\n      add\n        /* \"continuation-batcher/sol/contracts/AggregatorVerifierStep3.sol\":7976:8031  buf[19] = mulmod(buf[19], buf[19], AggregatorLib.q_mod) */\n      mstore\n      0x00\n      dup1\n      mload\n      0x20\n      data_848f50338cc074da8d5d8c20099d6f9a52cdd4e857863a722476f697bca98a91\n      dup4\n      codecopy\n      dup2\n      mload\n      swap2\n      mstore\n        /* \"continuation-batcher/sol/contracts/AggregatorVerifierStep3.sol\":8059:8062  buf */\n      dup3\n        /* \"continuation-batcher/sol/contracts/AggregatorVerifierStep3.sol\":8063:8065  23 */\n      0x17\n        /* \"continuation-batcher/sol/contracts/AggregatorVerifierStep3.sol\":8059:8066  buf[23] */\n      dup2\n      mload\n      dup2\n      lt\n      tag_592\n      jumpi\n      tag_592\n      tag_13\n      jump\t// in\n    tag_592:\n      0x20\n      mul\n      0x20\n      add\n      add\n      mload\n        /* \"continuation-batcher/sol/contracts/AggregatorVerifierStep3.sol\":8050:8053  buf */\n      dup4\n        /* \"continuation-batcher/sol/contracts/AggregatorVerifierStep3.sol\":8054:8056  19 */\n      0x13\n        /* \"continuation-batcher/sol/contracts/AggregatorVerifierStep3.sol\":8050:8057  buf[19] */\n      dup2\n      mload\n      dup2\n      lt\n      tag_594\n      jumpi\n      tag_594\n      tag_13\n      jump\t// in\n    tag_594:\n      0x20\n      mul\n      0x20\n      add\n      add\n      mload\n        /* \"continuation-batcher/sol/contracts/AggregatorVerifierStep3.sol\":8043:8088  mulmod(buf[19], buf[23], AggregatorLib.q_mod) */\n      mulmod\n        /* \"continuation-batcher/sol/contracts/AggregatorVerifierStep3.sol\":8033:8036  buf */\n      dup3\n        /* \"continuation-batcher/sol/contracts/AggregatorVerifierStep3.sol\":8037:8039  20 */\n      0x14\n        /* \"continuation-batcher/sol/contracts/AggregatorVerifierStep3.sol\":8033:8040  buf[20] */\n      dup2\n      mload\n      dup2\n      lt\n      tag_596\n      jumpi\n      tag_596\n      tag_13\n      jump\t// in\n    tag_596:\n      0x20\n      mul\n      0x20\n      add\n      add\n        /* \"continuation-batcher/sol/contracts/AggregatorVerifierStep3.sol\":8033:8088  buf[20] = mulmod(buf[19], buf[23], AggregatorLib.q_mod) */\n      dup2\n      dup2\n      mstore\n      pop\n      pop\n        /* \"continuation-batcher/sol/contracts/AggregatorVerifierStep3.sol\":8112:8122  transcript */\n      dup6\n      dup6\n        /* \"continuation-batcher/sol/contracts/AggregatorVerifierStep3.sol\":8123:8125  32 */\n      0x20\n        /* \"continuation-batcher/sol/contracts/AggregatorVerifierStep3.sol\":8112:8126  transcript[32] */\n      dup2\n      dup2\n      lt\n      tag_598\n      jumpi\n      tag_598\n      tag_13\n      jump\t// in\n    tag_598:\n      swap1\n      pop\n      0x20\n      mul\n      add\n      calldataload\n        /* \"continuation-batcher/sol/contracts/AggregatorVerifierStep3.sol\":8128:8138  transcript */\n      dup7\n      dup7\n        /* \"continuation-batcher/sol/contracts/AggregatorVerifierStep3.sol\":8139:8141  33 */\n      0x21\n        /* \"continuation-batcher/sol/contracts/AggregatorVerifierStep3.sol\":8128:8142  transcript[33] */\n      dup2\n      dup2\n      lt\n      tag_600\n      jumpi\n      tag_600\n      tag_13\n      jump\t// in\n    tag_600:\n      swap1\n      pop\n      0x20\n      mul\n      add\n      calldataload\n        /* \"continuation-batcher/sol/contracts/AggregatorVerifierStep3.sol\":8091:8094  buf */\n      dup4\n        /* \"continuation-batcher/sol/contracts/AggregatorVerifierStep3.sol\":8095:8097  14 */\n      0x0e\n        /* \"continuation-batcher/sol/contracts/AggregatorVerifierStep3.sol\":8091:8098  buf[14] */\n      dup2\n      mload\n      dup2\n      lt\n      tag_602\n      jumpi\n      tag_602\n      tag_13\n      jump\t// in\n    tag_602:\n      0x20\n      mul\n      0x20\n      add\n      add\n        /* \"continuation-batcher/sol/contracts/AggregatorVerifierStep3.sol\":8100:8103  buf */\n      dup5\n        /* \"continuation-batcher/sol/contracts/AggregatorVerifierStep3.sol\":8104:8106  15 */\n      0x0f\n        /* \"continuation-batcher/sol/contracts/AggregatorVerifierStep3.sol\":8100:8107  buf[15] */\n      dup2\n      mload\n      dup2\n      lt\n      tag_604\n      jumpi\n      tag_604\n      tag_13\n      jump\t// in\n    tag_604:\n      0x20\n      swap1\n      dup2\n      mul\n      swap2\n      swap1\n      swap2\n      add\n      add\n        /* \"continuation-batcher/sol/contracts/AggregatorVerifierStep3.sol\":8090:8143  (buf[14], buf[15]) = (transcript[32], transcript[33]) */\n      swap2\n      swap1\n      swap2\n      mstore\n      mstore\n      0x00\n      dup1\n      mload\n      0x20\n      data_848f50338cc074da8d5d8c20099d6f9a52cdd4e857863a722476f697bca98a91\n      dup4\n      codecopy\n      dup2\n      mload\n      swap2\n      mstore\n        /* \"continuation-batcher/sol/contracts/AggregatorVerifierStep3.sol\":8171:8174  buf */\n      dup3\n        /* \"continuation-batcher/sol/contracts/AggregatorVerifierStep3.sol\":8175:8176  7 */\n      0x07\n        /* \"continuation-batcher/sol/contracts/AggregatorVerifierStep3.sol\":8171:8177  buf[7] */\n      dup2\n      mload\n      dup2\n      lt\n      tag_608\n      jumpi\n      tag_608\n      tag_13\n      jump\t// in\n    tag_608:\n      0x20\n      mul\n      0x20\n      add\n      add\n      mload\n        /* \"continuation-batcher/sol/contracts/AggregatorVerifierStep3.sol\":8162:8165  buf */\n      dup4\n        /* \"continuation-batcher/sol/contracts/AggregatorVerifierStep3.sol\":8166:8168  20 */\n      0x14\n        /* \"continuation-batcher/sol/contracts/AggregatorVerifierStep3.sol\":8162:8169  buf[20] */\n      dup2\n      mload\n      dup2\n      lt\n      tag_610\n      jumpi\n      tag_610\n      tag_13\n      jump\t// in\n    tag_610:\n      0x20\n      mul\n      0x20\n      add\n      add\n      mload\n        /* \"continuation-batcher/sol/contracts/AggregatorVerifierStep3.sol\":8155:8199  mulmod(buf[20], buf[7], AggregatorLib.q_mod) */\n      mulmod\n        /* \"continuation-batcher/sol/contracts/AggregatorVerifierStep3.sol\":8145:8148  buf */\n      dup3\n        /* \"continuation-batcher/sol/contracts/AggregatorVerifierStep3.sol\":8149:8151  16 */\n      0x10\n        /* \"continuation-batcher/sol/contracts/AggregatorVerifierStep3.sol\":8145:8152  buf[16] */\n      dup2\n      mload\n      dup2\n      lt\n      tag_612\n      jumpi\n      tag_612\n      tag_13\n      jump\t// in\n    tag_612:\n      0x20\n      mul\n      0x20\n      add\n      add\n        /* \"continuation-batcher/sol/contracts/AggregatorVerifierStep3.sol\":8145:8199  buf[16] = mulmod(buf[20], buf[7], AggregatorLib.q_mod) */\n      dup2\n      dup2\n      mstore\n      pop\n      pop\n        /* \"continuation-batcher/sol/contracts/AggregatorVerifierStep3.sol\":8201:8235  AggregatorLib.ecc_mul_add(buf, 12) */\n      tag_613\n        /* \"continuation-batcher/sol/contracts/AggregatorVerifierStep3.sol\":8227:8230  buf */\n      dup3\n        /* \"continuation-batcher/sol/contracts/AggregatorVerifierStep3.sol\":8232:8234  12 */\n      0x0c\n        /* \"continuation-batcher/sol/contracts/AggregatorVerifierStep3.sol\":8201:8226  AggregatorLib.ecc_mul_add */\n      tag_30\n        /* \"continuation-batcher/sol/contracts/AggregatorVerifierStep3.sol\":8201:8235  AggregatorLib.ecc_mul_add(buf, 12) */\n      jump\t// in\n    tag_613:\n        /* \"continuation-batcher/sol/contracts/AggregatorVerifierStep3.sol\":8259:8269  transcript */\n      dup6\n      dup6\n        /* \"continuation-batcher/sol/contracts/AggregatorVerifierStep3.sol\":8270:8272  34 */\n      0x22\n        /* \"continuation-batcher/sol/contracts/AggregatorVerifierStep3.sol\":8259:8273  transcript[34] */\n      dup2\n      dup2\n      lt\n      tag_615\n      jumpi\n      tag_615\n      tag_13\n      jump\t// in\n    tag_615:\n      swap1\n      pop\n      0x20\n      mul\n      add\n      calldataload\n        /* \"continuation-batcher/sol/contracts/AggregatorVerifierStep3.sol\":8275:8285  transcript */\n      dup7\n      dup7\n        /* \"continuation-batcher/sol/contracts/AggregatorVerifierStep3.sol\":8286:8288  35 */\n      0x23\n        /* \"continuation-batcher/sol/contracts/AggregatorVerifierStep3.sol\":8275:8289  transcript[35] */\n      dup2\n      dup2\n      lt\n      tag_617\n      jumpi\n      tag_617\n      tag_13\n      jump\t// in\n    tag_617:\n      swap1\n      pop\n      0x20\n      mul\n      add\n      calldataload\n        /* \"continuation-batcher/sol/contracts/AggregatorVerifierStep3.sol\":8238:8241  buf */\n      dup4\n        /* \"continuation-batcher/sol/contracts/AggregatorVerifierStep3.sol\":8242:8244  14 */\n      0x0e\n        /* \"continuation-batcher/sol/contracts/AggregatorVerifierStep3.sol\":8238:8245  buf[14] */\n      dup2\n      mload\n      dup2\n      lt\n      tag_619\n      jumpi\n      tag_619\n      tag_13\n      jump\t// in\n    tag_619:\n      0x20\n      mul\n      0x20\n      add\n      add\n        /* \"continuation-batcher/sol/contracts/AggregatorVerifierStep3.sol\":8247:8250  buf */\n      dup5\n        /* \"continuation-batcher/sol/contracts/AggregatorVerifierStep3.sol\":8251:8253  15 */\n      0x0f\n        /* \"continuation-batcher/sol/contracts/AggregatorVerifierStep3.sol\":8247:8254  buf[15] */\n      dup2\n      mload\n      dup2\n      lt\n      tag_621\n      jumpi\n      tag_621\n      tag_13\n      jump\t// in\n    tag_621:\n      0x20\n      mul\n      0x20\n      add\n      add\n        /* \"continuation-batcher/sol/contracts/AggregatorVerifierStep3.sol\":8237:8290  (buf[14], buf[15]) = (transcript[34], transcript[35]) */\n      dup3\n      dup2\n      mstore\n      pop\n      dup3\n      dup2\n      mstore\n      pop\n      pop\n      pop\n        /* \"continuation-batcher/sol/contracts/AggregatorVerifierStep3.sol\":8302:8305  buf */\n      dup2\n        /* \"continuation-batcher/sol/contracts/AggregatorVerifierStep3.sol\":8306:8308  20 */\n      0x14\n        /* \"continuation-batcher/sol/contracts/AggregatorVerifierStep3.sol\":8302:8309  buf[20] */\n      dup2\n      mload\n      dup2\n      lt\n      tag_623\n      jumpi\n      tag_623\n      tag_13\n      jump\t// in\n    tag_623:\n      0x20\n      mul\n      0x20\n      add\n      add\n      mload\n        /* \"continuation-batcher/sol/contracts/AggregatorVerifierStep3.sol\":8292:8295  buf */\n      dup3\n        /* \"continuation-batcher/sol/contracts/AggregatorVerifierStep3.sol\":8296:8298  16 */\n      0x10\n        /* \"continuation-batcher/sol/contracts/AggregatorVerifierStep3.sol\":8292:8299  buf[16] */\n      dup2\n      mload\n      dup2\n      lt\n      tag_625\n      jumpi\n      tag_625\n      tag_13\n      jump\t// in\n    tag_625:\n      0x20\n      mul\n      0x20\n      add\n      add\n        /* \"continuation-batcher/sol/contracts/AggregatorVerifierStep3.sol\":8292:8309  buf[16] = buf[20] */\n      dup2\n      dup2\n      mstore\n      pop\n      pop\n        /* \"continuation-batcher/sol/contracts/AggregatorVerifierStep3.sol\":8311:8345  AggregatorLib.ecc_mul_add(buf, 12) */\n      tag_626\n        /* \"continuation-batcher/sol/contracts/AggregatorVerifierStep3.sol\":8337:8340  buf */\n      dup3\n        /* \"continuation-batcher/sol/contracts/AggregatorVerifierStep3.sol\":8342:8344  12 */\n      0x0c\n        /* \"continuation-batcher/sol/contracts/AggregatorVerifierStep3.sol\":8311:8336  AggregatorLib.ecc_mul_add */\n      tag_30\n        /* \"continuation-batcher/sol/contracts/AggregatorVerifierStep3.sol\":8311:8345  AggregatorLib.ecc_mul_add(buf, 12) */\n      jump\t// in\n    tag_626:\n        /* \"continuation-batcher/sol/contracts/AggregatorVerifierStep3.sol\":8369:8379  transcript */\n      dup6\n      dup6\n        /* \"continuation-batcher/sol/contracts/AggregatorVerifierStep3.sol\":8380:8382  36 */\n      0x24\n        /* \"continuation-batcher/sol/contracts/AggregatorVerifierStep3.sol\":8369:8383  transcript[36] */\n      dup2\n      dup2\n      lt\n      tag_628\n      jumpi\n      tag_628\n      tag_13\n      jump\t// in\n    tag_628:\n      swap1\n      pop\n      0x20\n      mul\n      add\n      calldataload\n        /* \"continuation-batcher/sol/contracts/AggregatorVerifierStep3.sol\":8385:8395  transcript */\n      dup7\n      dup7\n        /* \"continuation-batcher/sol/contracts/AggregatorVerifierStep3.sol\":8396:8398  37 */\n      0x25\n        /* \"continuation-batcher/sol/contracts/AggregatorVerifierStep3.sol\":8385:8399  transcript[37] */\n      dup2\n      dup2\n      lt\n      tag_630\n      jumpi\n      tag_630\n      tag_13\n      jump\t// in\n    tag_630:\n      swap1\n      pop\n      0x20\n      mul\n      add\n      calldataload\n        /* \"continuation-batcher/sol/contracts/AggregatorVerifierStep3.sol\":8348:8351  buf */\n      dup4\n        /* \"continuation-batcher/sol/contracts/AggregatorVerifierStep3.sol\":8352:8354  14 */\n      0x0e\n        /* \"continuation-batcher/sol/contracts/AggregatorVerifierStep3.sol\":8348:8355  buf[14] */\n      dup2\n      mload\n      dup2\n      lt\n      tag_632\n      jumpi\n      tag_632\n      tag_13\n      jump\t// in\n    tag_632:\n      0x20\n      mul\n      0x20\n      add\n      add\n        /* \"continuation-batcher/sol/contracts/AggregatorVerifierStep3.sol\":8357:8360  buf */\n      dup5\n        /* \"continuation-batcher/sol/contracts/AggregatorVerifierStep3.sol\":8361:8363  15 */\n      0x0f\n        /* \"continuation-batcher/sol/contracts/AggregatorVerifierStep3.sol\":8357:8364  buf[15] */\n      dup2\n      mload\n      dup2\n      lt\n      tag_634\n      jumpi\n      tag_634\n      tag_13\n      jump\t// in\n    tag_634:\n      0x20\n      swap1\n      dup2\n      mul\n      swap2\n      swap1\n      swap2\n      add\n      add\n        /* \"continuation-batcher/sol/contracts/AggregatorVerifierStep3.sol\":8347:8400  (buf[14], buf[15]) = (transcript[36], transcript[37]) */\n      swap2\n      swap1\n      swap2\n      mstore\n      mstore\n      0x00\n      dup1\n      mload\n      0x20\n      data_848f50338cc074da8d5d8c20099d6f9a52cdd4e857863a722476f697bca98a91\n      dup4\n      codecopy\n      dup2\n      mload\n      swap2\n      mstore\n        /* \"continuation-batcher/sol/contracts/AggregatorVerifierStep3.sol\":8428:8431  buf */\n      dup3\n        /* \"continuation-batcher/sol/contracts/AggregatorVerifierStep3.sol\":8432:8433  7 */\n      0x07\n        /* \"continuation-batcher/sol/contracts/AggregatorVerifierStep3.sol\":8428:8434  buf[7] */\n      dup2\n      mload\n      dup2\n      lt\n      tag_638\n      jumpi\n      tag_638\n      tag_13\n      jump\t// in\n    tag_638:\n      0x20\n      mul\n      0x20\n      add\n      add\n      mload\n        /* \"continuation-batcher/sol/contracts/AggregatorVerifierStep3.sol\":8419:8422  buf */\n      dup4\n        /* \"continuation-batcher/sol/contracts/AggregatorVerifierStep3.sol\":8423:8425  19 */\n      0x13\n        /* \"continuation-batcher/sol/contracts/AggregatorVerifierStep3.sol\":8419:8426  buf[19] */\n      dup2\n      mload\n      dup2\n      lt\n      tag_640\n      jumpi\n      tag_640\n      tag_13\n      jump\t// in\n    tag_640:\n      0x20\n      mul\n      0x20\n      add\n      add\n      mload\n        /* \"continuation-batcher/sol/contracts/AggregatorVerifierStep3.sol\":8412:8456  mulmod(buf[19], buf[7], AggregatorLib.q_mod) */\n      mulmod\n        /* \"continuation-batcher/sol/contracts/AggregatorVerifierStep3.sol\":8402:8405  buf */\n      dup3\n        /* \"continuation-batcher/sol/contracts/AggregatorVerifierStep3.sol\":8406:8408  16 */\n      0x10\n        /* \"continuation-batcher/sol/contracts/AggregatorVerifierStep3.sol\":8402:8409  buf[16] */\n      dup2\n      mload\n      dup2\n      lt\n      tag_642\n      jumpi\n      tag_642\n      tag_13\n      jump\t// in\n    tag_642:\n      0x20\n      mul\n      0x20\n      add\n      add\n        /* \"continuation-batcher/sol/contracts/AggregatorVerifierStep3.sol\":8402:8456  buf[16] = mulmod(buf[19], buf[7], AggregatorLib.q_mod) */\n      dup2\n      dup2\n      mstore\n      pop\n      pop\n        /* \"continuation-batcher/sol/contracts/AggregatorVerifierStep3.sol\":8458:8492  AggregatorLib.ecc_mul_add(buf, 12) */\n      tag_643\n        /* \"continuation-batcher/sol/contracts/AggregatorVerifierStep3.sol\":8484:8487  buf */\n      dup3\n        /* \"continuation-batcher/sol/contracts/AggregatorVerifierStep3.sol\":8489:8491  12 */\n      0x0c\n        /* \"continuation-batcher/sol/contracts/AggregatorVerifierStep3.sol\":8458:8483  AggregatorLib.ecc_mul_add */\n      tag_30\n        /* \"continuation-batcher/sol/contracts/AggregatorVerifierStep3.sol\":8458:8492  AggregatorLib.ecc_mul_add(buf, 12) */\n      jump\t// in\n    tag_643:\n        /* \"continuation-batcher/sol/contracts/AggregatorVerifierStep3.sol\":8516:8526  transcript */\n      dup6\n      dup6\n        /* \"continuation-batcher/sol/contracts/AggregatorVerifierStep3.sol\":8527:8529  38 */\n      0x26\n        /* \"continuation-batcher/sol/contracts/AggregatorVerifierStep3.sol\":8516:8530  transcript[38] */\n      dup2\n      dup2\n      lt\n      tag_645\n      jumpi\n      tag_645\n      tag_13\n      jump\t// in\n    tag_645:\n      swap1\n      pop\n      0x20\n      mul\n      add\n      calldataload\n        /* \"continuation-batcher/sol/contracts/AggregatorVerifierStep3.sol\":8532:8542  transcript */\n      dup7\n      dup7\n        /* \"continuation-batcher/sol/contracts/AggregatorVerifierStep3.sol\":8543:8545  39 */\n      0x27\n        /* \"continuation-batcher/sol/contracts/AggregatorVerifierStep3.sol\":8532:8546  transcript[39] */\n      dup2\n      dup2\n      lt\n      tag_647\n      jumpi\n      tag_647\n      tag_13\n      jump\t// in\n    tag_647:\n      swap1\n      pop\n      0x20\n      mul\n      add\n      calldataload\n        /* \"continuation-batcher/sol/contracts/AggregatorVerifierStep3.sol\":8495:8498  buf */\n      dup4\n        /* \"continuation-batcher/sol/contracts/AggregatorVerifierStep3.sol\":8499:8501  14 */\n      0x0e\n        /* \"continuation-batcher/sol/contracts/AggregatorVerifierStep3.sol\":8495:8502  buf[14] */\n      dup2\n      mload\n      dup2\n      lt\n      tag_649\n      jumpi\n      tag_649\n      tag_13\n      jump\t// in\n    tag_649:\n      0x20\n      mul\n      0x20\n      add\n      add\n        /* \"continuation-batcher/sol/contracts/AggregatorVerifierStep3.sol\":8504:8507  buf */\n      dup5\n        /* \"continuation-batcher/sol/contracts/AggregatorVerifierStep3.sol\":8508:8510  15 */\n      0x0f\n        /* \"continuation-batcher/sol/contracts/AggregatorVerifierStep3.sol\":8504:8511  buf[15] */\n      dup2\n      mload\n      dup2\n      lt\n      tag_651\n      jumpi\n      tag_651\n      tag_13\n      jump\t// in\n    tag_651:\n      0x20\n      mul\n      0x20\n      add\n      add\n        /* \"continuation-batcher/sol/contracts/AggregatorVerifierStep3.sol\":8494:8547  (buf[14], buf[15]) = (transcript[38], transcript[39]) */\n      dup3\n      dup2\n      mstore\n      pop\n      dup3\n      dup2\n      mstore\n      pop\n      pop\n      pop\n        /* \"continuation-batcher/sol/contracts/AggregatorVerifierStep3.sol\":8559:8562  buf */\n      dup2\n        /* \"continuation-batcher/sol/contracts/AggregatorVerifierStep3.sol\":8563:8565  19 */\n      0x13\n        /* \"continuation-batcher/sol/contracts/AggregatorVerifierStep3.sol\":8559:8566  buf[19] */\n      dup2\n      mload\n      dup2\n      lt\n      tag_653\n      jumpi\n      tag_653\n      tag_13\n      jump\t// in\n    tag_653:\n      0x20\n      mul\n      0x20\n      add\n      add\n      mload\n        /* \"continuation-batcher/sol/contracts/AggregatorVerifierStep3.sol\":8549:8552  buf */\n      dup3\n        /* \"continuation-batcher/sol/contracts/AggregatorVerifierStep3.sol\":8553:8555  16 */\n      0x10\n        /* \"continuation-batcher/sol/contracts/AggregatorVerifierStep3.sol\":8549:8556  buf[16] */\n      dup2\n      mload\n      dup2\n      lt\n      tag_655\n      jumpi\n      tag_655\n      tag_13\n      jump\t// in\n    tag_655:\n      0x20\n      mul\n      0x20\n      add\n      add\n        /* \"continuation-batcher/sol/contracts/AggregatorVerifierStep3.sol\":8549:8566  buf[16] = buf[19] */\n      dup2\n      dup2\n      mstore\n      pop\n      pop\n        /* \"continuation-batcher/sol/contracts/AggregatorVerifierStep3.sol\":8568:8602  AggregatorLib.ecc_mul_add(buf, 12) */\n      tag_656\n        /* \"continuation-batcher/sol/contracts/AggregatorVerifierStep3.sol\":8594:8597  buf */\n      dup3\n        /* \"continuation-batcher/sol/contracts/AggregatorVerifierStep3.sol\":8599:8601  12 */\n      0x0c\n        /* \"continuation-batcher/sol/contracts/AggregatorVerifierStep3.sol\":8568:8593  AggregatorLib.ecc_mul_add */\n      tag_30\n        /* \"continuation-batcher/sol/contracts/AggregatorVerifierStep3.sol\":8568:8602  AggregatorLib.ecc_mul_add(buf, 12) */\n      jump\t// in\n    tag_656:\n        /* \"continuation-batcher/sol/contracts/AggregatorVerifierStep3.sol\":8626:8636  transcript */\n      dup6\n      dup6\n        /* \"continuation-batcher/sol/contracts/AggregatorVerifierStep3.sol\":8637:8639  40 */\n      0x28\n        /* \"continuation-batcher/sol/contracts/AggregatorVerifierStep3.sol\":8626:8640  transcript[40] */\n      dup2\n      dup2\n      lt\n      tag_658\n      jumpi\n      tag_658\n      tag_13\n      jump\t// in\n    tag_658:\n      swap1\n      pop\n      0x20\n      mul\n      add\n      calldataload\n        /* \"continuation-batcher/sol/contracts/AggregatorVerifierStep3.sol\":8642:8652  transcript */\n      dup7\n      dup7\n        /* \"continuation-batcher/sol/contracts/AggregatorVerifierStep3.sol\":8653:8655  41 */\n      0x29\n        /* \"continuation-batcher/sol/contracts/AggregatorVerifierStep3.sol\":8642:8656  transcript[41] */\n      dup2\n      dup2\n      lt\n      tag_660\n      jumpi\n      tag_660\n      tag_13\n      jump\t// in\n    tag_660:\n      swap1\n      pop\n      0x20\n      mul\n      add\n      calldataload\n        /* \"continuation-batcher/sol/contracts/AggregatorVerifierStep3.sol\":8605:8608  buf */\n      dup4\n        /* \"continuation-batcher/sol/contracts/AggregatorVerifierStep3.sol\":8609:8611  14 */\n      0x0e\n        /* \"continuation-batcher/sol/contracts/AggregatorVerifierStep3.sol\":8605:8612  buf[14] */\n      dup2\n      mload\n      dup2\n      lt\n      tag_662\n      jumpi\n      tag_662\n      tag_13\n      jump\t// in\n    tag_662:\n      0x20\n      mul\n      0x20\n      add\n      add\n        /* \"continuation-batcher/sol/contracts/AggregatorVerifierStep3.sol\":8614:8617  buf */\n      dup5\n        /* \"continuation-batcher/sol/contracts/AggregatorVerifierStep3.sol\":8618:8620  15 */\n      0x0f\n        /* \"continuation-batcher/sol/contracts/AggregatorVerifierStep3.sol\":8614:8621  buf[15] */\n      dup2\n      mload\n      dup2\n      lt\n      tag_664\n      jumpi\n      tag_664\n      tag_13\n      jump\t// in\n    tag_664:\n      0x20\n      swap1\n      dup2\n      mul\n      swap2\n      swap1\n      swap2\n      add\n      add\n        /* \"continuation-batcher/sol/contracts/AggregatorVerifierStep3.sol\":8604:8657  (buf[14], buf[15]) = (transcript[40], transcript[41]) */\n      swap2\n      swap1\n      swap2\n      mstore\n      mstore\n      0x00\n      dup1\n      mload\n      0x20\n      data_848f50338cc074da8d5d8c20099d6f9a52cdd4e857863a722476f697bca98a91\n      dup4\n      codecopy\n      dup2\n      mload\n      swap2\n      mstore\n        /* \"continuation-batcher/sol/contracts/AggregatorVerifierStep3.sol\":8685:8688  buf */\n      dup3\n        /* \"continuation-batcher/sol/contracts/AggregatorVerifierStep3.sol\":8689:8691  17 */\n      0x11\n        /* \"continuation-batcher/sol/contracts/AggregatorVerifierStep3.sol\":8685:8692  buf[17] */\n      dup2\n      mload\n      dup2\n      lt\n      tag_668\n      jumpi\n      tag_668\n      tag_13\n      jump\t// in\n    tag_668:\n      0x20\n      mul\n      0x20\n      add\n      add\n      mload\n        /* \"continuation-batcher/sol/contracts/AggregatorVerifierStep3.sol\":8676:8679  buf */\n      dup4\n        /* \"continuation-batcher/sol/contracts/AggregatorVerifierStep3.sol\":8680:8682  25 */\n      0x19\n        /* \"continuation-batcher/sol/contracts/AggregatorVerifierStep3.sol\":8676:8683  buf[25] */\n      dup2\n      mload\n      dup2\n      lt\n      tag_670\n      jumpi\n      tag_670\n      tag_13\n      jump\t// in\n    tag_670:\n      0x20\n      mul\n      0x20\n      add\n      add\n      mload\n        /* \"continuation-batcher/sol/contracts/AggregatorVerifierStep3.sol\":8669:8714  mulmod(buf[25], buf[17], AggregatorLib.q_mod) */\n      mulmod\n        /* \"continuation-batcher/sol/contracts/AggregatorVerifierStep3.sol\":8659:8662  buf */\n      dup3\n        /* \"continuation-batcher/sol/contracts/AggregatorVerifierStep3.sol\":8663:8665  16 */\n      0x10\n        /* \"continuation-batcher/sol/contracts/AggregatorVerifierStep3.sol\":8659:8666  buf[16] */\n      dup2\n      mload\n      dup2\n      lt\n      tag_672\n      jumpi\n      tag_672\n      tag_13\n      jump\t// in\n    tag_672:\n      0x20\n      mul\n      0x20\n      add\n      add\n        /* \"continuation-batcher/sol/contracts/AggregatorVerifierStep3.sol\":8659:8714  buf[16] = mulmod(buf[25], buf[17], AggregatorLib.q_mod) */\n      dup2\n      dup2\n      mstore\n      pop\n      pop\n        /* \"continuation-batcher/sol/contracts/AggregatorVerifierStep3.sol\":8716:8750  AggregatorLib.ecc_mul_add(buf, 12) */\n      tag_673\n        /* \"continuation-batcher/sol/contracts/AggregatorVerifierStep3.sol\":8742:8745  buf */\n      dup3\n        /* \"continuation-batcher/sol/contracts/AggregatorVerifierStep3.sol\":8747:8749  12 */\n      0x0c\n        /* \"continuation-batcher/sol/contracts/AggregatorVerifierStep3.sol\":8716:8741  AggregatorLib.ecc_mul_add */\n      tag_30\n        /* \"continuation-batcher/sol/contracts/AggregatorVerifierStep3.sol\":8716:8750  AggregatorLib.ecc_mul_add(buf, 12) */\n      jump\t// in\n    tag_673:\n        /* \"continuation-batcher/sol/contracts/AggregatorVerifierStep3.sol\":8774:8784  transcript */\n      dup6\n      dup6\n        /* \"continuation-batcher/sol/contracts/AggregatorVerifierStep3.sol\":8785:8787  48 */\n      0x30\n        /* \"continuation-batcher/sol/contracts/AggregatorVerifierStep3.sol\":8774:8788  transcript[48] */\n      dup2\n      dup2\n      lt\n      tag_675\n      jumpi\n      tag_675\n      tag_13\n      jump\t// in\n    tag_675:\n      swap1\n      pop\n      0x20\n      mul\n      add\n      calldataload\n        /* \"continuation-batcher/sol/contracts/AggregatorVerifierStep3.sol\":8790:8800  transcript */\n      dup7\n      dup7\n        /* \"continuation-batcher/sol/contracts/AggregatorVerifierStep3.sol\":8801:8803  49 */\n      0x31\n        /* \"continuation-batcher/sol/contracts/AggregatorVerifierStep3.sol\":8790:8804  transcript[49] */\n      dup2\n      dup2\n      lt\n      tag_677\n      jumpi\n      tag_677\n      tag_13\n      jump\t// in\n    tag_677:\n      swap1\n      pop\n      0x20\n      mul\n      add\n      calldataload\n        /* \"continuation-batcher/sol/contracts/AggregatorVerifierStep3.sol\":8753:8756  buf */\n      dup4\n        /* \"continuation-batcher/sol/contracts/AggregatorVerifierStep3.sol\":8757:8759  14 */\n      0x0e\n        /* \"continuation-batcher/sol/contracts/AggregatorVerifierStep3.sol\":8753:8760  buf[14] */\n      dup2\n      mload\n      dup2\n      lt\n      tag_679\n      jumpi\n      tag_679\n      tag_13\n      jump\t// in\n    tag_679:\n      0x20\n      mul\n      0x20\n      add\n      add\n        /* \"continuation-batcher/sol/contracts/AggregatorVerifierStep3.sol\":8762:8765  buf */\n      dup5\n        /* \"continuation-batcher/sol/contracts/AggregatorVerifierStep3.sol\":8766:8768  15 */\n      0x0f\n        /* \"continuation-batcher/sol/contracts/AggregatorVerifierStep3.sol\":8762:8769  buf[15] */\n      dup2\n      mload\n      dup2\n      lt\n      tag_681\n      jumpi\n      tag_681\n      tag_13\n      jump\t// in\n    tag_681:\n      0x20\n      mul\n      0x20\n      add\n      add\n        /* \"continuation-batcher/sol/contracts/AggregatorVerifierStep3.sol\":8752:8805  (buf[14], buf[15]) = (transcript[48], transcript[49]) */\n      dup3\n      dup2\n      mstore\n      pop\n      dup3\n      dup2\n      mstore\n      pop\n      pop\n      pop\n        /* \"continuation-batcher/sol/contracts/AggregatorVerifierStep3.sol\":8817:8820  buf */\n      dup2\n        /* \"continuation-batcher/sol/contracts/AggregatorVerifierStep3.sol\":8821:8823  21 */\n      0x15\n        /* \"continuation-batcher/sol/contracts/AggregatorVerifierStep3.sol\":8817:8824  buf[21] */\n      dup2\n      mload\n      dup2\n      lt\n      tag_683\n      jumpi\n      tag_683\n      tag_13\n      jump\t// in\n    tag_683:\n      0x20\n      mul\n      0x20\n      add\n      add\n      mload\n        /* \"continuation-batcher/sol/contracts/AggregatorVerifierStep3.sol\":8807:8810  buf */\n      dup3\n        /* \"continuation-batcher/sol/contracts/AggregatorVerifierStep3.sol\":8811:8813  16 */\n      0x10\n        /* \"continuation-batcher/sol/contracts/AggregatorVerifierStep3.sol\":8807:8814  buf[16] */\n      dup2\n      mload\n      dup2\n      lt\n      tag_685\n      jumpi\n      tag_685\n      tag_13\n      jump\t// in\n    tag_685:\n      0x20\n      mul\n      0x20\n      add\n      add\n        /* \"continuation-batcher/sol/contracts/AggregatorVerifierStep3.sol\":8807:8824  buf[16] = buf[21] */\n      dup2\n      dup2\n      mstore\n      pop\n      pop\n        /* \"continuation-batcher/sol/contracts/AggregatorVerifierStep3.sol\":8826:8860  AggregatorLib.ecc_mul_add(buf, 12) */\n      tag_686\n        /* \"continuation-batcher/sol/contracts/AggregatorVerifierStep3.sol\":8852:8855  buf */\n      dup3\n        /* \"continuation-batcher/sol/contracts/AggregatorVerifierStep3.sol\":8857:8859  12 */\n      0x0c\n        /* \"continuation-batcher/sol/contracts/AggregatorVerifierStep3.sol\":8826:8851  AggregatorLib.ecc_mul_add */\n      tag_30\n        /* \"continuation-batcher/sol/contracts/AggregatorVerifierStep3.sol\":8826:8860  AggregatorLib.ecc_mul_add(buf, 12) */\n      jump\t// in\n    tag_686:\n        /* \"continuation-batcher/sol/contracts/AggregatorVerifierStep3.sol\":8895:8911  new uint256[](4) */\n      0x40\n      dup1\n      mload\n        /* \"continuation-batcher/sol/contracts/AggregatorVerifierStep3.sol\":8909:8910  4 */\n      0x04\n        /* \"continuation-batcher/sol/contracts/AggregatorVerifierStep3.sol\":8895:8911  new uint256[](4) */\n      dup1\n      dup3\n      mstore\n      0xa0\n      dup3\n      add\n      swap1\n      swap3\n      mstore\n        /* \"continuation-batcher/sol/contracts/AggregatorVerifierStep3.sol\":8872:8892  uint256[] memory ret */\n      0x00\n      swap2\n        /* \"continuation-batcher/sol/contracts/AggregatorVerifierStep3.sol\":8895:8911  new uint256[](4) */\n      0x20\n      dup3\n      add\n      0x80\n      dup1\n      calldatasize\n      dup4\n      calldatacopy\n      add\n      swap1\n      pop\n      pop\n        /* \"continuation-batcher/sol/contracts/AggregatorVerifierStep3.sol\":8872:8911  uint256[] memory ret = new uint256[](4) */\n      swap1\n      pop\n        /* \"continuation-batcher/sol/contracts/AggregatorVerifierStep3.sol\":8930:8933  buf */\n      dup3\n        /* \"continuation-batcher/sol/contracts/AggregatorVerifierStep3.sol\":8934:8936  10 */\n      0x0a\n        /* \"continuation-batcher/sol/contracts/AggregatorVerifierStep3.sol\":8930:8937  buf[10] */\n      dup2\n      mload\n      dup2\n      lt\n      tag_692\n      jumpi\n      tag_692\n      tag_13\n      jump\t// in\n    tag_692:\n      0x20\n      mul\n      0x20\n      add\n      add\n      mload\n        /* \"continuation-batcher/sol/contracts/AggregatorVerifierStep3.sol\":8921:8924  ret */\n      dup2\n        /* \"continuation-batcher/sol/contracts/AggregatorVerifierStep3.sol\":8925:8926  0 */\n      0x00\n        /* \"continuation-batcher/sol/contracts/AggregatorVerifierStep3.sol\":8921:8927  ret[0] */\n      dup2\n      mload\n      dup2\n      lt\n      tag_694\n      jumpi\n      tag_694\n      tag_13\n      jump\t// in\n    tag_694:\n      0x20\n      mul\n      0x20\n      add\n      add\n        /* \"continuation-batcher/sol/contracts/AggregatorVerifierStep3.sol\":8921:8937  ret[0] = buf[10] */\n      dup2\n      dup2\n      mstore\n      pop\n      pop\n        /* \"continuation-batcher/sol/contracts/AggregatorVerifierStep3.sol\":8956:8959  buf */\n      dup3\n        /* \"continuation-batcher/sol/contracts/AggregatorVerifierStep3.sol\":8960:8962  11 */\n      0x0b\n        /* \"continuation-batcher/sol/contracts/AggregatorVerifierStep3.sol\":8956:8963  buf[11] */\n      dup2\n      mload\n      dup2\n      lt\n      tag_696\n      jumpi\n      tag_696\n      tag_13\n      jump\t// in\n    tag_696:\n      0x20\n      mul\n      0x20\n      add\n      add\n      mload\n        /* \"continuation-batcher/sol/contracts/AggregatorVerifierStep3.sol\":8947:8950  ret */\n      dup2\n        /* \"continuation-batcher/sol/contracts/AggregatorVerifierStep3.sol\":8951:8952  1 */\n      0x01\n        /* \"continuation-batcher/sol/contracts/AggregatorVerifierStep3.sol\":8947:8953  ret[1] */\n      dup2\n      mload\n      dup2\n      lt\n      tag_698\n      jumpi\n      tag_698\n      tag_13\n      jump\t// in\n    tag_698:\n      0x20\n      mul\n      0x20\n      add\n      add\n        /* \"continuation-batcher/sol/contracts/AggregatorVerifierStep3.sol\":8947:8963  ret[1] = buf[11] */\n      dup2\n      dup2\n      mstore\n      pop\n      pop\n        /* \"continuation-batcher/sol/contracts/AggregatorVerifierStep3.sol\":8982:8985  buf */\n      dup3\n        /* \"continuation-batcher/sol/contracts/AggregatorVerifierStep3.sol\":8986:8988  12 */\n      0x0c\n        /* \"continuation-batcher/sol/contracts/AggregatorVerifierStep3.sol\":8982:8989  buf[12] */\n      dup2\n      mload\n      dup2\n      lt\n      tag_700\n      jumpi\n      tag_700\n      tag_13\n      jump\t// in\n    tag_700:\n      0x20\n      mul\n      0x20\n      add\n      add\n      mload\n        /* \"continuation-batcher/sol/contracts/AggregatorVerifierStep3.sol\":8973:8976  ret */\n      dup2\n        /* \"continuation-batcher/sol/contracts/AggregatorVerifierStep3.sol\":8977:8978  2 */\n      0x02\n        /* \"continuation-batcher/sol/contracts/AggregatorVerifierStep3.sol\":8973:8979  ret[2] */\n      dup2\n      mload\n      dup2\n      lt\n      tag_702\n      jumpi\n      tag_702\n      tag_13\n      jump\t// in\n    tag_702:\n      0x20\n      mul\n      0x20\n      add\n      add\n        /* \"continuation-batcher/sol/contracts/AggregatorVerifierStep3.sol\":8973:8989  ret[2] = buf[12] */\n      dup2\n      dup2\n      mstore\n      pop\n      pop\n        /* \"continuation-batcher/sol/contracts/AggregatorVerifierStep3.sol\":9008:9011  buf */\n      dup3\n        /* \"continuation-batcher/sol/contracts/AggregatorVerifierStep3.sol\":9012:9014  13 */\n      0x0d\n        /* \"continuation-batcher/sol/contracts/AggregatorVerifierStep3.sol\":9008:9015  buf[13] */\n      dup2\n      mload\n      dup2\n      lt\n      tag_704\n      jumpi\n      tag_704\n      tag_13\n      jump\t// in\n    tag_704:\n      0x20\n      mul\n      0x20\n      add\n      add\n      mload\n        /* \"continuation-batcher/sol/contracts/AggregatorVerifierStep3.sol\":8999:9002  ret */\n      dup2\n        /* \"continuation-batcher/sol/contracts/AggregatorVerifierStep3.sol\":9003:9004  3 */\n      0x03\n        /* \"continuation-batcher/sol/contracts/AggregatorVerifierStep3.sol\":8999:9005  ret[3] */\n      dup2\n      mload\n      dup2\n      lt\n      tag_706\n      jumpi\n      tag_706\n      tag_13\n      jump\t// in\n    tag_706:\n      0x20\n      swap1\n      dup2\n      mul\n      swap2\n      swap1\n      swap2\n      add\n      add\n        /* \"continuation-batcher/sol/contracts/AggregatorVerifierStep3.sol\":8999:9015  ret[3] = buf[13] */\n      mstore\n        /* \"continuation-batcher/sol/contracts/AggregatorVerifierStep3.sol\":9033:9036  ret */\n      swap7\n        /* \"continuation-batcher/sol/contracts/AggregatorVerifierStep3.sol\":202:9043  function verify_proof(... */\n      swap6\n      pop\n      pop\n      pop\n      pop\n      pop\n      pop\n      jump\t// out\n        /* \"continuation-batcher/sol/contracts/AggregatorLib.sol\":3061:3758  function ecc_mul_add(... */\n    tag_30:\n        /* \"continuation-batcher/sol/contracts/AggregatorLib.sol\":3168:3176  bool ret */\n      0x00\n      dup1\n        /* \"continuation-batcher/sol/contracts/AggregatorLib.sol\":3207:3220  offset * 0x20 */\n      tag_708\n        /* \"continuation-batcher/sol/contracts/AggregatorLib.sol\":3207:3213  offset */\n      dup4\n        /* \"continuation-batcher/sol/contracts/AggregatorLib.sol\":3216:3220  0x20 */\n      0x20\n        /* \"continuation-batcher/sol/contracts/AggregatorLib.sol\":3207:3220  offset * 0x20 */\n      tag_709\n      jump\t// in\n    tag_708:\n        /* \"continuation-batcher/sol/contracts/AggregatorLib.sol\":3207:3227  offset * 0x20 + 0x20 */\n      tag_710\n      swap1\n        /* \"continuation-batcher/sol/contracts/AggregatorLib.sol\":3223:3227  0x20 */\n      0x20\n        /* \"continuation-batcher/sol/contracts/AggregatorLib.sol\":3207:3227  offset * 0x20 + 0x20 */\n      tag_711\n      jump\t// in\n    tag_710:\n        /* \"continuation-batcher/sol/contracts/AggregatorLib.sol\":3194:3227  uint256 p1 = offset * 0x20 + 0x20 */\n      swap1\n      pop\n        /* \"continuation-batcher/sol/contracts/AggregatorLib.sol\":3237:3247  uint256 p2 */\n      0x00\n        /* \"continuation-batcher/sol/contracts/AggregatorLib.sol\":3250:3259  p1 + 0x40 */\n      tag_712\n        /* \"continuation-batcher/sol/contracts/AggregatorLib.sol\":3194:3227  uint256 p1 = offset * 0x20 + 0x20 */\n      dup3\n        /* \"continuation-batcher/sol/contracts/AggregatorLib.sol\":3255:3259  0x40 */\n      0x40\n        /* \"continuation-batcher/sol/contracts/AggregatorLib.sol\":3250:3259  p1 + 0x40 */\n      tag_711\n      jump\t// in\n    tag_712:\n        /* \"continuation-batcher/sol/contracts/AggregatorLib.sol\":3237:3259  uint256 p2 = p1 + 0x40 */\n      swap1\n      pop\n        /* \"continuation-batcher/sol/contracts/AggregatorLib.sol\":3456:3460  0x40 */\n      0x40\n        /* \"continuation-batcher/sol/contracts/AggregatorLib.sol\":3424:3438  add(input, p2) */\n      dup6\n      dup3\n      add\n        /* \"continuation-batcher/sol/contracts/AggregatorLib.sol\":3402:3406  0x60 */\n      0x60\n        /* \"continuation-batcher/sol/contracts/AggregatorLib.sol\":3424:3438  add(input, p2) */\n      dup2\n        /* \"continuation-batcher/sol/contracts/AggregatorLib.sol\":3351:3352  7 */\n      0x07\n        /* \"continuation-batcher/sol/contracts/AggregatorLib.sol\":3328:3333  gas() */\n      gas\n        /* \"continuation-batcher/sol/contracts/AggregatorLib.sol\":3300:3474  staticcall(... */\n      staticcall\n        /* \"continuation-batcher/sol/contracts/AggregatorLib.sol\":3293:3474  ret := staticcall(... */\n      swap3\n      pop\n        /* \"continuation-batcher/sol/contracts/AggregatorLib.sol\":3501:3504  ret */\n      dup3\n        /* \"continuation-batcher/sol/contracts/AggregatorLib.sol\":3493:3505  require(ret) */\n      tag_713\n      jumpi\n      0x00\n      dup1\n      revert\n    tag_713:\n        /* \"continuation-batcher/sol/contracts/AggregatorLib.sol\":3702:3706  0x40 */\n      0x40\n        /* \"continuation-batcher/sol/contracts/AggregatorLib.sol\":3670:3684  add(input, p1) */\n      dup6\n      dup4\n      add\n        /* \"continuation-batcher/sol/contracts/AggregatorLib.sol\":3648:3652  0x80 */\n      0x80\n        /* \"continuation-batcher/sol/contracts/AggregatorLib.sol\":3670:3684  add(input, p1) */\n      dup2\n        /* \"continuation-batcher/sol/contracts/AggregatorLib.sol\":3597:3598  6 */\n      0x06\n        /* \"continuation-batcher/sol/contracts/AggregatorLib.sol\":3574:3579  gas() */\n      gas\n        /* \"continuation-batcher/sol/contracts/AggregatorLib.sol\":3546:3720  staticcall(... */\n      staticcall\n        /* \"continuation-batcher/sol/contracts/AggregatorLib.sol\":3539:3720  ret := staticcall(... */\n      swap3\n      pop\n        /* \"continuation-batcher/sol/contracts/AggregatorLib.sol\":3747:3750  ret */\n      dup3\n        /* \"continuation-batcher/sol/contracts/AggregatorLib.sol\":3739:3751  require(ret) */\n      tag_714\n      jumpi\n      0x00\n      dup1\n      revert\n    tag_714:\n        /* \"continuation-batcher/sol/contracts/AggregatorLib.sol\":3158:3758  {... */\n      pop\n      pop\n      pop\n        /* \"continuation-batcher/sol/contracts/AggregatorLib.sol\":3061:3758  function ecc_mul_add(... */\n      pop\n      pop\n      jump\t// out\n        /* \"#utility.yul\":14:381   */\n    tag_715:\n        /* \"#utility.yul\":77:85   */\n      0x00\n        /* \"#utility.yul\":87:93   */\n      dup1\n        /* \"#utility.yul\":141:144   */\n      dup4\n        /* \"#utility.yul\":134:138   */\n      0x1f\n        /* \"#utility.yul\":126:132   */\n      dup5\n        /* \"#utility.yul\":122:139   */\n      add\n        /* \"#utility.yul\":118:145   */\n      slt\n        /* \"#utility.yul\":108:163   */\n      tag_719\n      jumpi\n        /* \"#utility.yul\":159:160   */\n      0x00\n        /* \"#utility.yul\":156:157   */\n      dup1\n        /* \"#utility.yul\":149:161   */\n      revert\n        /* \"#utility.yul\":108:163   */\n    tag_719:\n      pop\n        /* \"#utility.yul\":182:202   */\n      dup2\n      calldataload\n      sub(shl(0x40, 0x01), 0x01)\n        /* \"#utility.yul\":214:244   */\n      dup2\n      gt\n        /* \"#utility.yul\":211:261   */\n      iszero\n      tag_720\n      jumpi\n        /* \"#utility.yul\":257:258   */\n      0x00\n        /* \"#utility.yul\":254:255   */\n      dup1\n        /* \"#utility.yul\":247:259   */\n      revert\n        /* \"#utility.yul\":211:261   */\n    tag_720:\n        /* \"#utility.yul\":294:298   */\n      0x20\n        /* \"#utility.yul\":286:292   */\n      dup4\n        /* \"#utility.yul\":282:299   */\n      add\n        /* \"#utility.yul\":270:299   */\n      swap2\n      pop\n        /* \"#utility.yul\":354:357   */\n      dup4\n        /* \"#utility.yul\":347:351   */\n      0x20\n        /* \"#utility.yul\":337:343   */\n      dup3\n        /* \"#utility.yul\":334:335   */\n      0x05\n        /* \"#utility.yul\":330:344   */\n      shl\n        /* \"#utility.yul\":322:328   */\n      dup6\n        /* \"#utility.yul\":318:345   */\n      add\n        /* \"#utility.yul\":314:352   */\n      add\n        /* \"#utility.yul\":311:358   */\n      gt\n        /* \"#utility.yul\":308:375   */\n      iszero\n      tag_721\n      jumpi\n        /* \"#utility.yul\":371:372   */\n      0x00\n        /* \"#utility.yul\":368:369   */\n      dup1\n        /* \"#utility.yul\":361:373   */\n      revert\n        /* \"#utility.yul\":308:375   */\n    tag_721:\n        /* \"#utility.yul\":14:381   */\n      swap3\n      pop\n      swap3\n      swap1\n      pop\n      jump\t// out\n        /* \"#utility.yul\":386:513   */\n    tag_689:\n        /* \"#utility.yul\":447:457   */\n      0x4e487b71\n        /* \"#utility.yul\":442:445   */\n      0xe0\n        /* \"#utility.yul\":438:458   */\n      shl\n        /* \"#utility.yul\":435:436   */\n      0x00\n        /* \"#utility.yul\":428:459   */\n      mstore\n        /* \"#utility.yul\":478:482   */\n      0x41\n        /* \"#utility.yul\":475:476   */\n      0x04\n        /* \"#utility.yul\":468:483   */\n      mstore\n        /* \"#utility.yul\":502:506   */\n      0x24\n        /* \"#utility.yul\":499:500   */\n      0x00\n        /* \"#utility.yul\":492:507   */\n      revert\n        /* \"#utility.yul\":518:2263   */\n    tag_6:\n        /* \"#utility.yul\":674:680   */\n      0x00\n        /* \"#utility.yul\":682:688   */\n      dup1\n        /* \"#utility.yul\":690:696   */\n      0x00\n        /* \"#utility.yul\":698:704   */\n      dup1\n        /* \"#utility.yul\":706:712   */\n      0x00\n        /* \"#utility.yul\":759:761   */\n      0x60\n        /* \"#utility.yul\":747:756   */\n      dup7\n        /* \"#utility.yul\":738:745   */\n      dup9\n        /* \"#utility.yul\":734:757   */\n      sub\n        /* \"#utility.yul\":730:762   */\n      slt\n        /* \"#utility.yul\":727:779   */\n      iszero\n      tag_724\n      jumpi\n        /* \"#utility.yul\":775:776   */\n      0x00\n        /* \"#utility.yul\":772:773   */\n      dup1\n        /* \"#utility.yul\":765:777   */\n      revert\n        /* \"#utility.yul\":727:779   */\n    tag_724:\n        /* \"#utility.yul\":815:824   */\n      dup6\n        /* \"#utility.yul\":802:825   */\n      calldataload\n      sub(shl(0x40, 0x01), 0x01)\n        /* \"#utility.yul\":885:887   */\n      dup1\n        /* \"#utility.yul\":877:883   */\n      dup3\n        /* \"#utility.yul\":874:888   */\n      gt\n        /* \"#utility.yul\":871:905   */\n      iszero\n      tag_725\n      jumpi\n        /* \"#utility.yul\":901:902   */\n      0x00\n        /* \"#utility.yul\":898:899   */\n      dup1\n        /* \"#utility.yul\":891:903   */\n      revert\n        /* \"#utility.yul\":871:905   */\n    tag_725:\n        /* \"#utility.yul\":940:1010   */\n      tag_726\n        /* \"#utility.yul\":1002:1009   */\n      dup10\n        /* \"#utility.yul\":993:999   */\n      dup4\n        /* \"#utility.yul\":982:991   */\n      dup11\n        /* \"#utility.yul\":978:1000   */\n      add\n        /* \"#utility.yul\":940:1010   */\n      tag_715\n      jump\t// in\n    tag_726:\n        /* \"#utility.yul\":1029:1037   */\n      swap1\n      swap8\n      pop\n        /* \"#utility.yul\":914:1010   */\n      swap6\n      pop\n        /* \"#utility.yul\":1083:1085   */\n      0x20\n      swap2\n      pop\n        /* \"#utility.yul\":1123:1141   */\n      dup8\n      dup3\n      add\n        /* \"#utility.yul\":1110:1142   */\n      calldataload\n        /* \"#utility.yul\":1154:1170   */\n      dup2\n      dup2\n      gt\n        /* \"#utility.yul\":1151:1187   */\n      iszero\n      tag_727\n      jumpi\n        /* \"#utility.yul\":1183:1184   */\n      0x00\n        /* \"#utility.yul\":1180:1181   */\n      dup1\n        /* \"#utility.yul\":1173:1185   */\n      revert\n        /* \"#utility.yul\":1151:1187   */\n    tag_727:\n        /* \"#utility.yul\":1222:1294   */\n      tag_728\n        /* \"#utility.yul\":1286:1293   */\n      dup11\n        /* \"#utility.yul\":1275:1283   */\n      dup3\n        /* \"#utility.yul\":1264:1273   */\n      dup12\n        /* \"#utility.yul\":1260:1284   */\n      add\n        /* \"#utility.yul\":1222:1294   */\n      tag_715\n      jump\t// in\n    tag_728:\n        /* \"#utility.yul\":1313:1321   */\n      swap1\n      swap7\n      pop\n        /* \"#utility.yul\":1196:1294   */\n      swap5\n      pop\n      pop\n        /* \"#utility.yul\":1401:1403   */\n      0x40\n        /* \"#utility.yul\":1386:1404   */\n      dup9\n      add\n        /* \"#utility.yul\":1373:1405   */\n      calldataload\n        /* \"#utility.yul\":1417:1433   */\n      dup2\n      dup2\n      gt\n        /* \"#utility.yul\":1414:1450   */\n      iszero\n      tag_729\n      jumpi\n        /* \"#utility.yul\":1446:1447   */\n      0x00\n        /* \"#utility.yul\":1443:1444   */\n      dup1\n        /* \"#utility.yul\":1436:1448   */\n      revert\n        /* \"#utility.yul\":1414:1450   */\n    tag_729:\n        /* \"#utility.yul\":1469:1493   */\n      dup9\n      add\n        /* \"#utility.yul\":1524:1528   */\n      0x1f\n        /* \"#utility.yul\":1516:1529   */\n      dup2\n      add\n        /* \"#utility.yul\":1512:1539   */\n      dup11\n      sgt\n        /* \"#utility.yul\":1502:1557   */\n      tag_730\n      jumpi\n        /* \"#utility.yul\":1553:1554   */\n      0x00\n        /* \"#utility.yul\":1550:1551   */\n      dup1\n        /* \"#utility.yul\":1543:1555   */\n      revert\n        /* \"#utility.yul\":1502:1557   */\n    tag_730:\n        /* \"#utility.yul\":1589:1591   */\n      dup1\n        /* \"#utility.yul\":1576:1592   */\n      calldataload\n        /* \"#utility.yul\":1611:1613   */\n      dup3\n        /* \"#utility.yul\":1607:1609   */\n      dup2\n        /* \"#utility.yul\":1604:1614   */\n      gt\n        /* \"#utility.yul\":1601:1637   */\n      iszero\n      tag_732\n      jumpi\n        /* \"#utility.yul\":1617:1635   */\n      tag_732\n      tag_689\n      jump\t// in\n    tag_732:\n        /* \"#utility.yul\":1663:1665   */\n      dup1\n        /* \"#utility.yul\":1660:1661   */\n      0x05\n        /* \"#utility.yul\":1656:1666   */\n      shl\n        /* \"#utility.yul\":1695:1697   */\n      0x40\n        /* \"#utility.yul\":1689:1698   */\n      mload\n        /* \"#utility.yul\":1758:1760   */\n      0x1f\n        /* \"#utility.yul\":1754:1761   */\n      not\n        /* \"#utility.yul\":1749:1751   */\n      0x3f\n        /* \"#utility.yul\":1745:1747   */\n      dup4\n        /* \"#utility.yul\":1741:1752   */\n      add\n        /* \"#utility.yul\":1737:1762   */\n      and\n        /* \"#utility.yul\":1729:1735   */\n      dup2\n        /* \"#utility.yul\":1725:1763   */\n      add\n        /* \"#utility.yul\":1813:1819   */\n      dup2\n        /* \"#utility.yul\":1801:1811   */\n      dup2\n        /* \"#utility.yul\":1798:1820   */\n      lt\n        /* \"#utility.yul\":1793:1795   */\n      dup7\n        /* \"#utility.yul\":1781:1791   */\n      dup3\n        /* \"#utility.yul\":1778:1796   */\n      gt\n        /* \"#utility.yul\":1775:1821   */\n      or\n        /* \"#utility.yul\":1772:1844   */\n      iszero\n      tag_734\n      jumpi\n        /* \"#utility.yul\":1824:1842   */\n      tag_734\n      tag_689\n      jump\t// in\n    tag_734:\n        /* \"#utility.yul\":1860:1862   */\n      0x40\n        /* \"#utility.yul\":1853:1875   */\n      mstore\n        /* \"#utility.yul\":1910:1928   */\n      swap2\n      dup3\n      mstore\n        /* \"#utility.yul\":1944:1959   */\n      dup5\n      dup3\n      add\n      swap4\n      pop\n        /* \"#utility.yul\":1986:1997   */\n      dup3\n      dup2\n      add\n        /* \"#utility.yul\":1982:2002   */\n      dup6\n      add\n      swap2\n        /* \"#utility.yul\":2014:2033   */\n      dup13\n      dup4\n      gt\n        /* \"#utility.yul\":2011:2050   */\n      iszero\n      tag_735\n      jumpi\n        /* \"#utility.yul\":2046:2047   */\n      0x00\n        /* \"#utility.yul\":2043:2044   */\n      dup1\n        /* \"#utility.yul\":2036:2048   */\n      revert\n        /* \"#utility.yul\":2011:2050   */\n    tag_735:\n        /* \"#utility.yul\":2070:2081   */\n      swap3\n      dup6\n      add\n      swap3\n        /* \"#utility.yul\":2090:2232   */\n    tag_736:\n        /* \"#utility.yul\":2106:2112   */\n      dup3\n        /* \"#utility.yul\":2101:2104   */\n      dup5\n        /* \"#utility.yul\":2098:2113   */\n      lt\n        /* \"#utility.yul\":2090:2232   */\n      iszero\n      tag_738\n      jumpi\n        /* \"#utility.yul\":2172:2189   */\n      dup4\n      calldataload\n        /* \"#utility.yul\":2160:2190   */\n      dup6\n      mstore\n        /* \"#utility.yul\":2210:2222   */\n      swap4\n      dup6\n      add\n      swap4\n        /* \"#utility.yul\":2123:2135   */\n      swap3\n      dup6\n      add\n      swap3\n        /* \"#utility.yul\":2090:2232   */\n      jump(tag_736)\n    tag_738:\n        /* \"#utility.yul\":2251:2257   */\n      dup1\n        /* \"#utility.yul\":2241:2257   */\n      swap7\n      pop\n      pop\n      pop\n      pop\n      pop\n      pop\n      pop\n        /* \"#utility.yul\":518:2263   */\n      swap3\n      swap6\n      pop\n      swap3\n      swap6\n      swap1\n      swap4\n      pop\n      jump\t// out\n        /* \"#utility.yul\":2268:2900   */\n    tag_9:\n        /* \"#utility.yul\":2439:2441   */\n      0x20\n        /* \"#utility.yul\":2491:2512   */\n      dup1\n      dup3\n      mstore\n        /* \"#utility.yul\":2561:2574   */\n      dup3\n      mload\n        /* \"#utility.yul\":2464:2482   */\n      dup3\n      dup3\n      add\n        /* \"#utility.yul\":2583:2605   */\n      dup2\n      swap1\n      mstore\n        /* \"#utility.yul\":2410:2414   */\n      0x00\n      swap2\n        /* \"#utility.yul\":2439:2441   */\n      swap1\n        /* \"#utility.yul\":2662:2677   */\n      dup5\n      dup3\n      add\n      swap1\n        /* \"#utility.yul\":2636:2638   */\n      0x40\n        /* \"#utility.yul\":2621:2639   */\n      dup6\n      add\n      swap1\n        /* \"#utility.yul\":2410:2414   */\n      dup5\n        /* \"#utility.yul\":2705:2874   */\n    tag_740:\n        /* \"#utility.yul\":2719:2725   */\n      dup2\n        /* \"#utility.yul\":2716:2717   */\n      dup2\n        /* \"#utility.yul\":2713:2726   */\n      lt\n        /* \"#utility.yul\":2705:2874   */\n      iszero\n      tag_742\n      jumpi\n        /* \"#utility.yul\":2780:2793   */\n      dup4\n      mload\n        /* \"#utility.yul\":2768:2794   */\n      dup4\n      mstore\n        /* \"#utility.yul\":2849:2864   */\n      swap3\n      dup5\n      add\n      swap3\n        /* \"#utility.yul\":2814:2826   */\n      swap2\n      dup5\n      add\n      swap2\n        /* \"#utility.yul\":2741:2742   */\n      0x01\n        /* \"#utility.yul\":2734:2743   */\n      add\n        /* \"#utility.yul\":2705:2874   */\n      jump(tag_740)\n    tag_742:\n      pop\n        /* \"#utility.yul\":2891:2894   */\n      swap1\n      swap7\n        /* \"#utility.yul\":2268:2900   */\n      swap6\n      pop\n      pop\n      pop\n      pop\n      pop\n      pop\n      jump\t// out\n        /* \"#utility.yul\":2905:3032   */\n    tag_13:\n        /* \"#utility.yul\":2966:2976   */\n      0x4e487b71\n        /* \"#utility.yul\":2961:2964   */\n      0xe0\n        /* \"#utility.yul\":2957:2977   */\n      shl\n        /* \"#utility.yul\":2954:2955   */\n      0x00\n        /* \"#utility.yul\":2947:2978   */\n      mstore\n        /* \"#utility.yul\":2997:3001   */\n      0x32\n        /* \"#utility.yul\":2994:2995   */\n      0x04\n        /* \"#utility.yul\":2987:3002   */\n      mstore\n        /* \"#utility.yul\":3021:3025   */\n      0x24\n        /* \"#utility.yul\":3018:3019   */\n      0x00\n        /* \"#utility.yul\":3011:3026   */\n      revert\n        /* \"#utility.yul\":3037:3164   */\n    tag_18:\n        /* \"#utility.yul\":3098:3108   */\n      0x4e487b71\n        /* \"#utility.yul\":3093:3096   */\n      0xe0\n        /* \"#utility.yul\":3089:3109   */\n      shl\n        /* \"#utility.yul\":3086:3087   */\n      0x00\n        /* \"#utility.yul\":3079:3110   */\n      mstore\n        /* \"#utility.yul\":3129:3133   */\n      0x12\n        /* \"#utility.yul\":3126:3127   */\n      0x04\n        /* \"#utility.yul\":3119:3134   */\n      mstore\n        /* \"#utility.yul\":3153:3157   */\n      0x24\n        /* \"#utility.yul\":3150:3151   */\n      0x00\n        /* \"#utility.yul\":3143:3158   */\n      revert\n        /* \"#utility.yul\":3169:3296   */\n    tag_716:\n        /* \"#utility.yul\":3230:3240   */\n      0x4e487b71\n        /* \"#utility.yul\":3225:3228   */\n      0xe0\n        /* \"#utility.yul\":3221:3241   */\n      shl\n        /* \"#utility.yul\":3218:3219   */\n      0x00\n        /* \"#utility.yul\":3211:3242   */\n      mstore\n        /* \"#utility.yul\":3261:3265   */\n      0x11\n        /* \"#utility.yul\":3258:3259   */\n      0x04\n        /* \"#utility.yul\":3251:3266   */\n      mstore\n        /* \"#utility.yul\":3285:3289   */\n      0x24\n        /* \"#utility.yul\":3282:3283   */\n      0x00\n        /* \"#utility.yul\":3275:3290   */\n      revert\n        /* \"#utility.yul\":3301:3429   */\n    tag_165:\n        /* \"#utility.yul\":3368:3377   */\n      dup2\n      dup2\n      sub\n        /* \"#utility.yul\":3389:3400   */\n      dup2\n      dup2\n      gt\n        /* \"#utility.yul\":3386:3423   */\n      iszero\n      tag_748\n      jumpi\n        /* \"#utility.yul\":3403:3421   */\n      tag_748\n      tag_716\n      jump\t// in\n    tag_748:\n        /* \"#utility.yul\":3301:3429   */\n      swap3\n      swap2\n      pop\n      pop\n      jump\t// out\n        /* \"#utility.yul\":3434:3602   */\n    tag_709:\n        /* \"#utility.yul\":3507:3516   */\n      dup1\n      dup3\n      mul\n        /* \"#utility.yul\":3538:3547   */\n      dup2\n      iszero\n        /* \"#utility.yul\":3555:3570   */\n      dup3\n      dup3\n      div\n        /* \"#utility.yul\":3549:3571   */\n      dup5\n      eq\n        /* \"#utility.yul\":3535:3572   */\n      or\n        /* \"#utility.yul\":3525:3596   */\n      tag_748\n      jumpi\n        /* \"#utility.yul\":3576:3594   */\n      tag_748\n      tag_716\n      jump\t// in\n        /* \"#utility.yul\":3607:3732   */\n    tag_711:\n        /* \"#utility.yul\":3672:3681   */\n      dup1\n      dup3\n      add\n        /* \"#utility.yul\":3693:3703   */\n      dup1\n      dup3\n      gt\n        /* \"#utility.yul\":3690:3726   */\n      iszero\n      tag_748\n      jumpi\n        /* \"#utility.yul\":3706:3724   */\n      tag_748\n      tag_716\n      jump\t// in\n    stop\n    data_848f50338cc074da8d5d8c20099d6f9a52cdd4e857863a722476f697bca98a91 30644e72e131a029b85045b68181585d2833e84879b9709143e1f593f0000001\n\n    auxdata: 0xa2646970667358221220667b61c81f5cd01f59d9306c3d27e137250deac8307f13f20dd34b3cae5283e564736f6c63430008180033\n}\n",
				"bytecode": {
					"linkReferences": {},
					"object": "608060405234801561000f575f80fd5b50612a578061001d5f395ff3fe608060405234801561000f575f80fd5b5060043610610029575f3560e01c8063966751901461002d575b5f80fd5b61004061003b366004612838565b610056565b60405161004d919061293f565b60405180910390f35b60607f1c48c0ea276647a5c1c105fb335bf3d955f0b719b0fca4a5f9705382582f77347f26d929b6e85e205eeaf2900c16b5b2bda852b24bc2fdc14861b03e3c617f908983600e815181106100ad576100ad612982565b6020026020010184600f815181106100c7576100c7612982565b6020908102919091010191909152525f80516020612a0283398151915280836007815181106100f8576100f8612982565b60200260200101518460148151811061011357610113612982565b6020026020010151098360158151811061012f5761012f612982565b6020026020010151098260108151811061014b5761014b612982565b60200260200101818152505061016282600c612780565b7f2d2b06d9cb3a00c6717095ae1dbd56c44c070e3cc8019bb6561931e62c3152d57f094ea08674f88a88873a3f6a65e1280068f7cf699adf5ae8d077cc4856f45d3283600e815181106101b7576101b7612982565b6020026020010184600f815181106101d1576101d1612982565b6020908102919091010191909152525f80516020612a028339815191528260148151811061020157610201612982565b60200260200101518360158151811061021c5761021c612982565b6020026020010151098260108151811061023857610238612982565b60200260200101818152505061024f82600c612780565b5f80516020612a028339815191528260178151811061027057610270612982565b602002602001015183601b8151811061028b5761028b612982565b602002602001015109826014815181106102a7576102a7612982565b6020026020010181815250507f1f7ad35e4ebb414326280310d9e81561aa46b52f42fbd274f18ef34f174558467f02e3885e9af4338b8931b5b1b0e0f2e55432cd10919b3a5aed73f12297302f2483600e8151811061030857610308612982565b6020026020010184600f8151811061032257610322612982565b6020908102919091010191909152525f80516020612a02833981519152808360078151811061035357610353612982565b60200260200101518460148151811061036e5761036e612982565b6020026020010151098360158151811061038a5761038a612982565b602002602001015109826010815181106103a6576103a6612982565b6020026020010181815250506103bd82600c612780565b7f0be9b3a5950af048778dbfef6e2c2152ba531174881c2b338dcab3dc2f01561e7f10e6414341ba4740c8efd22fe345021a8ee6452796bf1946418ed05bdb128cb883600e8151811061041257610412612982565b6020026020010184600f8151811061042c5761042c612982565b6020908102919091010191909152525f80516020612a028339815191528260148151811061045c5761045c612982565b60200260200101518360158151811061047757610477612982565b6020026020010151098260108151811061049357610493612982565b6020026020010181815250506104aa82600c612780565b7f03fa2d1fc08270af280b83e485a97295d4014a057a1159f45302b98b2b94eb857f05ca0fcccbae7c1647b2f5361fba0dc5bf909d0e8ba4c0d8d72654b2cd4ba38483600e815181106104ff576104ff612982565b6020026020010184600f8151811061051957610519612982565b6020908102919091010191909152525f80516020612a02833981519152808360078151811061054a5761054a612982565b602002602001015184601b8151811061056557610565612982565b6020026020010151098360158151811061058157610581612982565b6020026020010151098260108151811061059d5761059d612982565b6020026020010181815250506105b482600c612780565b7f026e38da774fd6ae82b1435daba8b9a8d5b42d0cee69607cc380e534cb411e957f15799253ad6bb04874c9c5665e8aa165ed26028b00b75bdf8fcd461e3cfafa5183600e8151811061060957610609612982565b6020026020010184600f8151811061062357610623612982565b6020908102919091010191909152525f80516020612a0283398151915282601e8151811061065357610653612982565b60200260200101518360158151811061066e5761066e612982565b6020026020010151098260108151811061068a5761068a612982565b6020026020010181815250506106a182600c612780565b7f2565c7a065643cd65821818ac5b760093191dc1bce845e00e701d3acd2b9f0287f30520214e2f62312654696fbf74be1fbd28bee8e2eb9788d33e2a944f901c1ce83600e815181106106f6576106f6612982565b6020026020010184600f8151811061071057610710612982565b6020908102919091010191909152525f80516020612a02833981519152808360078151811061074157610741612982565b602002602001015184601e8151811061075c5761075c612982565b6020026020010151098360158151811061077857610778612982565b6020026020010151098260108151811061079457610794612982565b6020026020010181815250506107ab82600c612780565b7f080319b89adc6e14f3413130822d9fe19b83a527f16958ea8a32da2c354b7eea7f015ba496188fe57049d0c83833339df9d5d42da93b37576de96c0b76e91798b183600e8151811061080057610800612982565b6020026020010184600f8151811061081a5761081a612982565b6020908102919091010191909152525f80516020612a02833981519152808360078151811061084b5761084b612982565b60200260200101518460208151811061086657610866612982565b6020026020010151098360158151811061088257610882612982565b6020026020010151098260108151811061089e5761089e612982565b6020026020010181815250506108b582600c612780565b8585607e8181106108c8576108c8612982565b905060200201358686607f8181106108e2576108e2612982565b9050602002013583600e815181106108fc576108fc612982565b6020026020010184600f8151811061091657610916612982565b6020908102919091010191909152525f80516020612a028339815191528260168151811061094657610946612982565b60200260200101515f80516020612a028339815191528061096957610969612996565b5f80516020612a028339815191528560068151811061098a5761098a612982565b60200260200101515f80516020612a028339815191526109aa91906129be565b866009815181106109bd576109bd612982565b602002602001015108856011815181106109d9576109d9612982565b602002602001015109096109fa905f80516020612a028339815191526129be565b82601081518110610a0d57610a0d612982565b602002602001018181525050610a2482600c612780565b85856080818110610a3757610a37612982565b9050602002013586866081818110610a5157610a51612982565b9050602002013583600e81518110610a6b57610a6b612982565b6020026020010184600f81518110610a8557610a85612982565b602002602001018281525082815250505081600981518110610aa957610aa9612982565b602002602001015182601081518110610ac457610ac4612982565b602002602001018181525050610adb82600c612780565b5f80516020612a0283398151915282600781518110610afc57610afc612982565b602002602001015183601581518110610b1757610b17612982565b60200260200101510982601181518110610b3357610b33612982565b60200260200101818152505085856036818110610b5257610b52612982565b9050602002013586866037818110610b6c57610b6c612982565b9050602002013583600e81518110610b8657610b86612982565b6020026020010184600f81518110610ba057610ba0612982565b6020908102919091010191909152525f80516020612a028339815191528083602381518110610bd157610bd1612982565b602002602001015184602381518110610bec57610bec612982565b60200260200101510983601181518110610c0857610c08612982565b60200260200101510982601081518110610c2457610c24612982565b602002602001018181525050610c3b82600c612780565b85856034818110610c4e57610c4e612982565b9050602002013586866035818110610c6857610c68612982565b9050602002013583600e81518110610c8257610c82612982565b6020026020010184600f81518110610c9c57610c9c612982565b6020908102919091010191909152525f80516020612a0283398151915282602381518110610ccc57610ccc612982565b602002602001015183601181518110610ce757610ce7612982565b60200260200101510982601081518110610d0357610d03612982565b602002602001018181525050610d1a82600c612780565b85856032818110610d2d57610d2d612982565b9050602002013586866033818110610d4757610d47612982565b9050602002013583600e81518110610d6157610d61612982565b6020026020010184600f81518110610d7b57610d7b612982565b602002602001018281525082815250505081601181518110610d9f57610d9f612982565b602002602001015182601081518110610dba57610dba612982565b602002602001018181525050610dd182600c612780565b815f81518110610de357610de3612982565b602002602001015182600181518110610dfe57610dfe612982565b602002602001015183600e81518110610e1957610e19612982565b6020026020010184600f81518110610e3357610e33612982565b6020908102919091010191909152525f80516020612a028339815191528083601881518110610e6457610e64612982565b602002602001015184601d81518110610e7f57610e7f612982565b60200260200101510983601581518110610e9b57610e9b612982565b60200260200101510982601081518110610eb757610eb7612982565b602002602001018181525050610ece82600c612780565b5f80516020612a0283398151915282601c81518110610eef57610eef612982565b60200260200101515f80516020612a0283398151915280610f1257610f12612996565b84600881518110610f2557610f25612982565b602002602001015185601381518110610f4057610f40612982565b6020026020010151090982601181518110610f5d57610f5d612982565b60200260200101818152505085856014818110610f7c57610f7c612982565b9050602002013586866015818110610f9657610f96612982565b9050602002013583600e81518110610fb057610fb0612982565b6020026020010184600f81518110610fca57610fca612982565b6020908102919091010191909152525f80516020612a0283398151915282601781518110610ffa57610ffa612982565b60200260200101518360118151811061101557611015612982565b6020026020010151098260108151811061103157611031612982565b60200260200101818152505061104882600c612780565b8585601681811061105b5761105b612982565b905060200201358686601781811061107557611075612982565b9050602002013583600e8151811061108f5761108f612982565b6020026020010184600f815181106110a9576110a9612982565b6020908102919091010191909152525f80516020612a0283398151915282601f815181106110d9576110d9612982565b6020026020010151836015815181106110f4576110f4612982565b6020026020010151098260108151811061111057611110612982565b60200260200101818152505061112782600c612780565b8585602a81811061113a5761113a612982565b905060200201358686602b81811061115457611154612982565b9050602002013583600e8151811061116e5761116e612982565b6020026020010184600f8151811061118857611188612982565b6020908102919091010191909152525f80516020612a02833981519152826017815181106111b8576111b8612982565b6020026020010151836019815181106111d3576111d3612982565b602002602001015109826010815181106111ef576111ef612982565b60200260200101818152505061120682600c612780565b8585601881811061121957611219612982565b905060200201358686601981811061123357611233612982565b9050602002013583600e8151811061124d5761124d612982565b6020026020010184600f8151811061126757611267612982565b6020908102919091010191909152525f80516020612a028339815191528260078151811061129757611297612982565b6020026020010151836011815181106112b2576112b2612982565b602002602001015109826010815181106112ce576112ce612982565b6020026020010181815250506112e582600c612780565b5f80516020612a028339815191528260178151811061130657611306612982565b602002602001015183601e8151811061132157611321612982565b6020026020010151098260148151811061133d5761133d612982565b6020026020010181815250508585601a81811061135c5761135c612982565b905060200201358686601b81811061137657611376612982565b9050602002013583600e8151811061139057611390612982565b6020026020010184600f815181106113aa576113aa612982565b6020908102919091010191909152525f80516020612a0283398151915280836007815181106113db576113db612982565b6020026020010151846014815181106113f6576113f6612982565b6020026020010151098360158151811061141257611412612982565b6020026020010151098260108151811061142e5761142e612982565b60200260200101818152505061144582600c612780565b8585602c81811061145857611458612982565b905060200201358686602d81811061147257611472612982565b9050602002013583600e8151811061148c5761148c612982565b6020026020010184600f815181106114a6576114a6612982565b6020908102919091010191909152525f80516020612a02833981519152826007815181106114d6576114d6612982565b6020026020010151836019815181106114f1576114f1612982565b6020026020010151098260108151811061150d5761150d612982565b60200260200101818152505061152482600c612780565b8585601c81811061153757611537612982565b905060200201358686601d81811061155157611551612982565b9050602002013583600e8151811061156b5761156b612982565b6020026020010184600f8151811061158557611585612982565b6020026020010182815250828152505050816011815181106115a9576115a9612982565b6020026020010151826010815181106115c4576115c4612982565b6020026020010181815250506115db82600c612780565b8585601e8181106115ee576115ee612982565b905060200201358686601f81811061160857611608612982565b9050602002013583600e8151811061162257611622612982565b6020026020010184600f8151811061163c5761163c612982565b6020908102919091010191909152525f80516020612a028339815191528260148151811061166c5761166c612982565b60200260200101518360158151811061168757611687612982565b602002602001015109826010815181106116a3576116a3612982565b6020026020010181815250506116ba82600c612780565b8585602e8181106116cd576116cd612982565b905060200201358686602f8181106116e7576116e7612982565b9050602002013583600e8151811061170157611701612982565b6020026020010184600f8151811061171b5761171b612982565b60200260200101828152508281525050508160198151811061173f5761173f612982565b60200260200101518260108151811061175a5761175a612982565b60200260200101818152505061177182600c612780565b7f122c4b2c663b815420306938f8be0ddf18b39b75b3c3c56bf872c9e5887767787f2601cec54204146dfc83cb8e79a02ffb69f0aedca727a5b57fde7bd9fa7f182383600e815181106117c6576117c6612982565b6020026020010184600f815181106117e0576117e0612982565b6020908102919091010191909152525f80516020612a028339815191528260218151811061181057611810612982565b60200260200101518360158151811061182b5761182b612982565b6020026020010151098260108151811061184757611847612982565b60200260200101818152505061185e82600c612780565b7f156d3d1a9708a90b0555e0541f0b5b166b588c8992d27d2554229afe81ab4a0a7f235a8d41c50ffc0c07768c72e4668e30487413468aca2e0b3c4e1c9a45fb7db983600e815181106118b3576118b3612982565b6020026020010184600f815181106118cd576118cd612982565b6020908102919091010191909152525f80516020612a0283398151915280836007815181106118fe576118fe612982565b602002602001015184601a8151811061191957611919612982565b6020026020010151098360158151811061193557611935612982565b6020026020010151098260108151811061195157611951612982565b60200260200101818152505061196882600c612780565b7f0278bbbefe5ff51facaed3fa35628af1e32fc79ae2fbbfa59ca82b15f3b5b7e47f0e40799a014835571072c5db3143ac9b9af83a29caa225c41e74b9d8f25db75e83600e815181106119bd576119bd612982565b6020026020010184600f815181106119d7576119d7612982565b6020908102919091010191909152525f80516020612a0283398151915282601a81518110611a0757611a07612982565b602002602001015183601581518110611a2257611a22612982565b60200260200101510982601081518110611a3e57611a3e612982565b602002602001018181525050611a5582600c612780565b5f80516020612a0283398151915282601781518110611a7657611a76612982565b602002602001015183601881518110611a9157611a91612982565b60200260200101510982601181518110611aad57611aad612982565b6020026020010181815250507f1ea4805cfd4e0d73993d1c8e976019e03c36bb59ee4eb5040057877c30a80e897f2f3acbab68e399fac4606aed2ae6615b10502dc39ca7a4e8a736f9ba6444c4dd83600e81518110611b0e57611b0e612982565b6020026020010184600f81518110611b2857611b28612982565b6020908102919091010191909152525f80516020612a028339815191528083600781518110611b5957611b59612982565b602002602001015184601181518110611b7457611b74612982565b60200260200101510983601581518110611b9057611b90612982565b60200260200101510982601081518110611bac57611bac612982565b602002602001018181525050611bc382600c612780565b7f21eac21319033bf3744c814d37ba065334d18bbe9dd73a074bc5529539b329f97f264592032337e2b0639e36f2dbdafdf5ca2d09aa78c7df964f184a658942656a83600e81518110611c1857611c18612982565b6020026020010184600f81518110611c3257611c32612982565b6020908102919091010191909152525f80516020612a0283398151915282601181518110611c6257611c62612982565b602002602001015183601581518110611c7d57611c7d612982565b60200260200101510982601081518110611c9957611c99612982565b602002602001018181525050611cb082600c612780565b7f2d322f070d02cc3bc0627c447cb71fa3f96420dc10fd06e8775b571b002cf4217f12c152158fa2061d331678ac9fb61522ee7d5ffd6686b1907c242792792d256d83600e81518110611d0557611d05612982565b6020026020010184600f81518110611d1f57611d1f612982565b6020908102919091010191909152525f80516020612a028339815191528083600781518110611d5057611d50612982565b602002602001015184601881518110611d6b57611d6b612982565b60200260200101510983601581518110611d8757611d87612982565b60200260200101510982601081518110611da357611da3612982565b602002602001018181525050611dba82600c612780565b7f17e239fdf40b337ad130934fa551040f37879059e6f2ca6328ca4ba5ced5cffc7f1f168b3232146ea9801b7ae828440461ede6b420f008fa1f8ca7fb8a2551294b83600e81518110611e0f57611e0f612982565b6020026020010184600f81518110611e2957611e29612982565b6020908102919091010191909152525f80516020612a0283398151915282601881518110611e5957611e59612982565b602002602001015183601581518110611e7457611e74612982565b60200260200101510982601081518110611e9057611e90612982565b602002602001018181525050611ea782600c612780565b5f80516020612a0283398151915282600781518110611ec857611ec8612982565b602002602001015183601781518110611ee357611ee3612982565b60200260200101510982601181518110611eff57611eff612982565b6020026020010181815250507f13f5958f2ef2a5f8cfe306165b9ff30c01218ad561e25b7cdca822454f90e5e17f13ab619fe2a1acf2a6412d106c18e625d16df35da7ab9d214cee86d60c00e93483600e81518110611f6057611f60612982565b6020026020010184600f81518110611f7a57611f7a612982565b6020908102919091010191909152525f80516020612a0283398151915282601181518110611faa57611faa612982565b602002602001015183601581518110611fc557611fc5612982565b60200260200101510982601081518110611fe157611fe1612982565b602002602001018181525050611ff882600c612780565b7f0ab167115fcfa344b12422e3057429e49a4068e4cf5c9d4805f83806cc7c7d6b7f0afdc709f2aeff4d6c30deca1cddf7d245b57db1c4ce56e38ebaec86b98a7ab883600e8151811061204d5761204d612982565b6020026020010184600f8151811061206757612067612982565b6020908102919091010191909152525f80516020612a028339815191528260178151811061209757612097612982565b6020026020010151836015815181106120b2576120b2612982565b602002602001015109826010815181106120ce576120ce612982565b6020026020010181815250506120e582600c612780565b5f80516020612a028339815191528260138151811061210657612106612982565b60200260200101518360138151811061212157612121612982565b6020026020010151098260138151811061213d5761213d612982565b60209081029190910101525f80516020612a028339815191528260178151811061216957612169612982565b60200260200101518360138151811061218457612184612982565b602002602001015109826014815181106121a0576121a0612982565b602002602001018181525050858560208181106121bf576121bf612982565b90506020020135868660218181106121d9576121d9612982565b9050602002013583600e815181106121f3576121f3612982565b6020026020010184600f8151811061220d5761220d612982565b6020908102919091010191909152525f80516020612a028339815191528260078151811061223d5761223d612982565b60200260200101518360148151811061225857612258612982565b6020026020010151098260108151811061227457612274612982565b60200260200101818152505061228b82600c612780565b8585602281811061229e5761229e612982565b90506020020135868660238181106122b8576122b8612982565b9050602002013583600e815181106122d2576122d2612982565b6020026020010184600f815181106122ec576122ec612982565b60200260200101828152508281525050508160148151811061231057612310612982565b60200260200101518260108151811061232b5761232b612982565b60200260200101818152505061234282600c612780565b8585602481811061235557612355612982565b905060200201358686602581811061236f5761236f612982565b9050602002013583600e8151811061238957612389612982565b6020026020010184600f815181106123a3576123a3612982565b6020908102919091010191909152525f80516020612a02833981519152826007815181106123d3576123d3612982565b6020026020010151836013815181106123ee576123ee612982565b6020026020010151098260108151811061240a5761240a612982565b60200260200101818152505061242182600c612780565b8585602681811061243457612434612982565b905060200201358686602781811061244e5761244e612982565b9050602002013583600e8151811061246857612468612982565b6020026020010184600f8151811061248257612482612982565b6020026020010182815250828152505050816013815181106124a6576124a6612982565b6020026020010151826010815181106124c1576124c1612982565b6020026020010181815250506124d882600c612780565b858560288181106124eb576124eb612982565b905060200201358686602981811061250557612505612982565b9050602002013583600e8151811061251f5761251f612982565b6020026020010184600f8151811061253957612539612982565b6020908102919091010191909152525f80516020612a028339815191528260118151811061256957612569612982565b60200260200101518360198151811061258457612584612982565b602002602001015109826010815181106125a0576125a0612982565b6020026020010181815250506125b782600c612780565b858560308181106125ca576125ca612982565b90506020020135868660318181106125e4576125e4612982565b9050602002013583600e815181106125fe576125fe612982565b6020026020010184600f8151811061261857612618612982565b60200260200101828152508281525050508160158151811061263c5761263c612982565b60200260200101518260108151811061265757612657612982565b60200260200101818152505061266e82600c612780565b60408051600480825260a082019092525f916020820160808036833701905050905082600a815181106126a3576126a3612982565b6020026020010151815f815181106126bd576126bd612982565b60200260200101818152505082600b815181106126dc576126dc612982565b6020026020010151816001815181106126f7576126f7612982565b60200260200101818152505082600c8151811061271657612716612982565b60200260200101518160028151811061273157612731612982565b60200260200101818152505082600d8151811061275057612750612982565b60200260200101518160038151811061276b5761276b612982565b60209081029190910101529695505050505050565b5f8061278d8360206129d7565b6127989060206129ee565b90505f6127a68260406129ee565b9050604085820160608160075afa9250826127bf575f80fd5b604085830160808160065afa9250826127d6575f80fd5b5050505050565b5f8083601f8401126127ed575f80fd5b5081356001600160401b03811115612803575f80fd5b6020830191508360208260051b850101111561281d575f80fd5b9250929050565b634e487b7160e01b5f52604160045260245ffd5b5f805f805f6060868803121561284c575f80fd5b85356001600160401b0380821115612862575f80fd5b61286e89838a016127dd565b9097509550602091508782013581811115612887575f80fd5b6128938a828b016127dd565b9096509450506040880135818111156128aa575f80fd5b8801601f81018a136128ba575f80fd5b8035828111156128cc576128cc612824565b8060051b604051601f19603f830116810181811086821117156128f1576128f1612824565b60405291825284820193508281018501918c83111561290e575f80fd5b928501925b8284101561292c57833585529385019392850192612913565b8096505050505050509295509295909350565b602080825282518282018190525f9190848201906040850190845b818110156129765783518352928401929184019160010161295a565b50909695505050505050565b634e487b7160e01b5f52603260045260245ffd5b634e487b7160e01b5f52601260045260245ffd5b634e487b7160e01b5f52601160045260245ffd5b818103818111156129d1576129d16129aa565b92915050565b80820281158282048414176129d1576129d16129aa565b808201808211156129d1576129d16129aa56fe30644e72e131a029b85045b68181585d2833e84879b9709143e1f593f0000001a2646970667358221220667b61c81f5cd01f59d9306c3d27e137250deac8307f13f20dd34b3cae5283e564736f6c63430008180033",
					"opcodes": "PUSH1 0x80 PUSH1 0x40 MSTORE CALLVALUE DUP1 ISZERO PUSH2 0xF JUMPI PUSH0 DUP1 REVERT JUMPDEST POP PUSH2 0x2A57 DUP1 PUSH2 0x1D PUSH0 CODECOPY PUSH0 RETURN INVALID PUSH1 0x80 PUSH1 0x40 MSTORE CALLVALUE DUP1 ISZERO PUSH2 0xF JUMPI PUSH0 DUP1 REVERT JUMPDEST POP PUSH1 0x4 CALLDATASIZE LT PUSH2 0x29 JUMPI PUSH0 CALLDATALOAD PUSH1 0xE0 SHR DUP1 PUSH4 0x96675190 EQ PUSH2 0x2D JUMPI JUMPDEST PUSH0 DUP1 REVERT JUMPDEST PUSH2 0x40 PUSH2 0x3B CALLDATASIZE PUSH1 0x4 PUSH2 0x2838 JUMP JUMPDEST PUSH2 0x56 JUMP JUMPDEST PUSH1 0x40 MLOAD PUSH2 0x4D SWAP2 SWAP1 PUSH2 0x293F JUMP JUMPDEST PUSH1 0x40 MLOAD DUP1 SWAP2 SUB SWAP1 RETURN JUMPDEST PUSH1 0x60 PUSH32 0x1C48C0EA276647A5C1C105FB335BF3D955F0B719B0FCA4A5F9705382582F7734 PUSH32 0x26D929B6E85E205EEAF2900C16B5B2BDA852B24BC2FDC14861B03E3C617F9089 DUP4 PUSH1 0xE DUP2 MLOAD DUP2 LT PUSH2 0xAD JUMPI PUSH2 0xAD PUSH2 0x2982 JUMP JUMPDEST PUSH1 0x20 MUL PUSH1 0x20 ADD ADD DUP5 PUSH1 0xF DUP2 MLOAD DUP2 LT PUSH2 0xC7 JUMPI PUSH2 0xC7 PUSH2 0x2982 JUMP JUMPDEST PUSH1 0x20 SWAP1 DUP2 MUL SWAP2 SWAP1 SWAP2 ADD ADD SWAP2 SWAP1 SWAP2 MSTORE MSTORE PUSH0 DUP1 MLOAD PUSH1 0x20 PUSH2 0x2A02 DUP4 CODECOPY DUP2 MLOAD SWAP2 MSTORE DUP1 DUP4 PUSH1 0x7 DUP2 MLOAD DUP2 LT PUSH2 0xF8 JUMPI PUSH2 0xF8 PUSH2 0x2982 JUMP JUMPDEST PUSH1 0x20 MUL PUSH1 0x20 ADD ADD MLOAD DUP5 PUSH1 0x14 DUP2 MLOAD DUP2 LT PUSH2 0x113 JUMPI PUSH2 0x113 PUSH2 0x2982 JUMP JUMPDEST PUSH1 0x20 MUL PUSH1 0x20 ADD ADD MLOAD MULMOD DUP4 PUSH1 0x15 DUP2 MLOAD DUP2 LT PUSH2 0x12F JUMPI PUSH2 0x12F PUSH2 0x2982 JUMP JUMPDEST PUSH1 0x20 MUL PUSH1 0x20 ADD ADD MLOAD MULMOD DUP3 PUSH1 0x10 DUP2 MLOAD DUP2 LT PUSH2 0x14B JUMPI PUSH2 0x14B PUSH2 0x2982 JUMP JUMPDEST PUSH1 0x20 MUL PUSH1 0x20 ADD ADD DUP2 DUP2 MSTORE POP POP PUSH2 0x162 DUP3 PUSH1 0xC PUSH2 0x2780 JUMP JUMPDEST PUSH32 0x2D2B06D9CB3A00C6717095AE1DBD56C44C070E3CC8019BB6561931E62C3152D5 PUSH32 0x94EA08674F88A88873A3F6A65E1280068F7CF699ADF5AE8D077CC4856F45D32 DUP4 PUSH1 0xE DUP2 MLOAD DUP2 LT PUSH2 0x1B7 JUMPI PUSH2 0x1B7 PUSH2 0x2982 JUMP JUMPDEST PUSH1 0x20 MUL PUSH1 0x20 ADD ADD DUP5 PUSH1 0xF DUP2 MLOAD DUP2 LT PUSH2 0x1D1 JUMPI PUSH2 0x1D1 PUSH2 0x2982 JUMP JUMPDEST PUSH1 0x20 SWAP1 DUP2 MUL SWAP2 SWAP1 SWAP2 ADD ADD SWAP2 SWAP1 SWAP2 MSTORE MSTORE PUSH0 DUP1 MLOAD PUSH1 0x20 PUSH2 0x2A02 DUP4 CODECOPY DUP2 MLOAD SWAP2 MSTORE DUP3 PUSH1 0x14 DUP2 MLOAD DUP2 LT PUSH2 0x201 JUMPI PUSH2 0x201 PUSH2 0x2982 JUMP JUMPDEST PUSH1 0x20 MUL PUSH1 0x20 ADD ADD MLOAD DUP4 PUSH1 0x15 DUP2 MLOAD DUP2 LT PUSH2 0x21C JUMPI PUSH2 0x21C PUSH2 0x2982 JUMP JUMPDEST PUSH1 0x20 MUL PUSH1 0x20 ADD ADD MLOAD MULMOD DUP3 PUSH1 0x10 DUP2 MLOAD DUP2 LT PUSH2 0x238 JUMPI PUSH2 0x238 PUSH2 0x2982 JUMP JUMPDEST PUSH1 0x20 MUL PUSH1 0x20 ADD ADD DUP2 DUP2 MSTORE POP POP PUSH2 0x24F DUP3 PUSH1 0xC PUSH2 0x2780 JUMP JUMPDEST PUSH0 DUP1 MLOAD PUSH1 0x20 PUSH2 0x2A02 DUP4 CODECOPY DUP2 MLOAD SWAP2 MSTORE DUP3 PUSH1 0x17 DUP2 MLOAD DUP2 LT PUSH2 0x270 JUMPI PUSH2 0x270 PUSH2 0x2982 JUMP JUMPDEST PUSH1 0x20 MUL PUSH1 0x20 ADD ADD MLOAD DUP4 PUSH1 0x1B DUP2 MLOAD DUP2 LT PUSH2 0x28B JUMPI PUSH2 0x28B PUSH2 0x2982 JUMP JUMPDEST PUSH1 0x20 MUL PUSH1 0x20 ADD ADD MLOAD MULMOD DUP3 PUSH1 0x14 DUP2 MLOAD DUP2 LT PUSH2 0x2A7 JUMPI PUSH2 0x2A7 PUSH2 0x2982 JUMP JUMPDEST PUSH1 0x20 MUL PUSH1 0x20 ADD ADD DUP2 DUP2 MSTORE POP POP PUSH32 0x1F7AD35E4EBB414326280310D9E81561AA46B52F42FBD274F18EF34F17455846 PUSH32 0x2E3885E9AF4338B8931B5B1B0E0F2E55432CD10919B3A5AED73F12297302F24 DUP4 PUSH1 0xE DUP2 MLOAD DUP2 LT PUSH2 0x308 JUMPI PUSH2 0x308 PUSH2 0x2982 JUMP JUMPDEST PUSH1 0x20 MUL PUSH1 0x20 ADD ADD DUP5 PUSH1 0xF DUP2 MLOAD DUP2 LT PUSH2 0x322 JUMPI PUSH2 0x322 PUSH2 0x2982 JUMP JUMPDEST PUSH1 0x20 SWAP1 DUP2 MUL SWAP2 SWAP1 SWAP2 ADD ADD SWAP2 SWAP1 SWAP2 MSTORE MSTORE PUSH0 DUP1 MLOAD PUSH1 0x20 PUSH2 0x2A02 DUP4 CODECOPY DUP2 MLOAD SWAP2 MSTORE DUP1 DUP4 PUSH1 0x7 DUP2 MLOAD DUP2 LT PUSH2 0x353 JUMPI PUSH2 0x353 PUSH2 0x2982 JUMP JUMPDEST PUSH1 0x20 MUL PUSH1 0x20 ADD ADD MLOAD DUP5 PUSH1 0x14 DUP2 MLOAD DUP2 LT PUSH2 0x36E JUMPI PUSH2 0x36E PUSH2 0x2982 JUMP JUMPDEST PUSH1 0x20 MUL PUSH1 0x20 ADD ADD MLOAD MULMOD DUP4 PUSH1 0x15 DUP2 MLOAD DUP2 LT PUSH2 0x38A JUMPI PUSH2 0x38A PUSH2 0x2982 JUMP JUMPDEST PUSH1 0x20 MUL PUSH1 0x20 ADD ADD MLOAD MULMOD DUP3 PUSH1 0x10 DUP2 MLOAD DUP2 LT PUSH2 0x3A6 JUMPI PUSH2 0x3A6 PUSH2 0x2982 JUMP JUMPDEST PUSH1 0x20 MUL PUSH1 0x20 ADD ADD DUP2 DUP2 MSTORE POP POP PUSH2 0x3BD DUP3 PUSH1 0xC PUSH2 0x2780 JUMP JUMPDEST PUSH32 0xBE9B3A5950AF048778DBFEF6E2C2152BA531174881C2B338DCAB3DC2F01561E PUSH32 0x10E6414341BA4740C8EFD22FE345021A8EE6452796BF1946418ED05BDB128CB8 DUP4 PUSH1 0xE DUP2 MLOAD DUP2 LT PUSH2 0x412 JUMPI PUSH2 0x412 PUSH2 0x2982 JUMP JUMPDEST PUSH1 0x20 MUL PUSH1 0x20 ADD ADD DUP5 PUSH1 0xF DUP2 MLOAD DUP2 LT PUSH2 0x42C JUMPI PUSH2 0x42C PUSH2 0x2982 JUMP JUMPDEST PUSH1 0x20 SWAP1 DUP2 MUL SWAP2 SWAP1 SWAP2 ADD ADD SWAP2 SWAP1 SWAP2 MSTORE MSTORE PUSH0 DUP1 MLOAD PUSH1 0x20 PUSH2 0x2A02 DUP4 CODECOPY DUP2 MLOAD SWAP2 MSTORE DUP3 PUSH1 0x14 DUP2 MLOAD DUP2 LT PUSH2 0x45C JUMPI PUSH2 0x45C PUSH2 0x2982 JUMP JUMPDEST PUSH1 0x20 MUL PUSH1 0x20 ADD ADD MLOAD DUP4 PUSH1 0x15 DUP2 MLOAD DUP2 LT PUSH2 0x477 JUMPI PUSH2 0x477 PUSH2 0x2982 JUMP JUMPDEST PUSH1 0x20 MUL PUSH1 0x20 ADD ADD MLOAD MULMOD DUP3 PUSH1 0x10 DUP2 MLOAD DUP2 LT PUSH2 0x493 JUMPI PUSH2 0x493 PUSH2 0x2982 JUMP JUMPDEST PUSH1 0x20 MUL PUSH1 0x20 ADD ADD DUP2 DUP2 MSTORE POP POP PUSH2 0x4AA DUP3 PUSH1 0xC PUSH2 0x2780 JUMP JUMPDEST PUSH32 0x3FA2D1FC08270AF280B83E485A97295D4014A057A1159F45302B98B2B94EB85 PUSH32 0x5CA0FCCCBAE7C1647B2F5361FBA0DC5BF909D0E8BA4C0D8D72654B2CD4BA384 DUP4 PUSH1 0xE DUP2 MLOAD DUP2 LT PUSH2 0x4FF JUMPI PUSH2 0x4FF PUSH2 0x2982 JUMP JUMPDEST PUSH1 0x20 MUL PUSH1 0x20 ADD ADD DUP5 PUSH1 0xF DUP2 MLOAD DUP2 LT PUSH2 0x519 JUMPI PUSH2 0x519 PUSH2 0x2982 JUMP JUMPDEST PUSH1 0x20 SWAP1 DUP2 MUL SWAP2 SWAP1 SWAP2 ADD ADD SWAP2 SWAP1 SWAP2 MSTORE MSTORE PUSH0 DUP1 MLOAD PUSH1 0x20 PUSH2 0x2A02 DUP4 CODECOPY DUP2 MLOAD SWAP2 MSTORE DUP1 DUP4 PUSH1 0x7 DUP2 MLOAD DUP2 LT PUSH2 0x54A JUMPI PUSH2 0x54A PUSH2 0x2982 JUMP JUMPDEST PUSH1 0x20 MUL PUSH1 0x20 ADD ADD MLOAD DUP5 PUSH1 0x1B DUP2 MLOAD DUP2 LT PUSH2 0x565 JUMPI PUSH2 0x565 PUSH2 0x2982 JUMP JUMPDEST PUSH1 0x20 MUL PUSH1 0x20 ADD ADD MLOAD MULMOD DUP4 PUSH1 0x15 DUP2 MLOAD DUP2 LT PUSH2 0x581 JUMPI PUSH2 0x581 PUSH2 0x2982 JUMP JUMPDEST PUSH1 0x20 MUL PUSH1 0x20 ADD ADD MLOAD MULMOD DUP3 PUSH1 0x10 DUP2 MLOAD DUP2 LT PUSH2 0x59D JUMPI PUSH2 0x59D PUSH2 0x2982 JUMP JUMPDEST PUSH1 0x20 MUL PUSH1 0x20 ADD ADD DUP2 DUP2 MSTORE POP POP PUSH2 0x5B4 DUP3 PUSH1 0xC PUSH2 0x2780 JUMP JUMPDEST PUSH32 0x26E38DA774FD6AE82B1435DABA8B9A8D5B42D0CEE69607CC380E534CB411E95 PUSH32 0x15799253AD6BB04874C9C5665E8AA165ED26028B00B75BDF8FCD461E3CFAFA51 DUP4 PUSH1 0xE DUP2 MLOAD DUP2 LT PUSH2 0x609 JUMPI PUSH2 0x609 PUSH2 0x2982 JUMP JUMPDEST PUSH1 0x20 MUL PUSH1 0x20 ADD ADD DUP5 PUSH1 0xF DUP2 MLOAD DUP2 LT PUSH2 0x623 JUMPI PUSH2 0x623 PUSH2 0x2982 JUMP JUMPDEST PUSH1 0x20 SWAP1 DUP2 MUL SWAP2 SWAP1 SWAP2 ADD ADD SWAP2 SWAP1 SWAP2 MSTORE MSTORE PUSH0 DUP1 MLOAD PUSH1 0x20 PUSH2 0x2A02 DUP4 CODECOPY DUP2 MLOAD SWAP2 MSTORE DUP3 PUSH1 0x1E DUP2 MLOAD DUP2 LT PUSH2 0x653 JUMPI PUSH2 0x653 PUSH2 0x2982 JUMP JUMPDEST PUSH1 0x20 MUL PUSH1 0x20 ADD ADD MLOAD DUP4 PUSH1 0x15 DUP2 MLOAD DUP2 LT PUSH2 0x66E JUMPI PUSH2 0x66E PUSH2 0x2982 JUMP JUMPDEST PUSH1 0x20 MUL PUSH1 0x20 ADD ADD MLOAD MULMOD DUP3 PUSH1 0x10 DUP2 MLOAD DUP2 LT PUSH2 0x68A JUMPI PUSH2 0x68A PUSH2 0x2982 JUMP JUMPDEST PUSH1 0x20 MUL PUSH1 0x20 ADD ADD DUP2 DUP2 MSTORE POP POP PUSH2 0x6A1 DUP3 PUSH1 0xC PUSH2 0x2780 JUMP JUMPDEST PUSH32 0x2565C7A065643CD65821818AC5B760093191DC1BCE845E00E701D3ACD2B9F028 PUSH32 0x30520214E2F62312654696FBF74BE1FBD28BEE8E2EB9788D33E2A944F901C1CE DUP4 PUSH1 0xE DUP2 MLOAD DUP2 LT PUSH2 0x6F6 JUMPI PUSH2 0x6F6 PUSH2 0x2982 JUMP JUMPDEST PUSH1 0x20 MUL PUSH1 0x20 ADD ADD DUP5 PUSH1 0xF DUP2 MLOAD DUP2 LT PUSH2 0x710 JUMPI PUSH2 0x710 PUSH2 0x2982 JUMP JUMPDEST PUSH1 0x20 SWAP1 DUP2 MUL SWAP2 SWAP1 SWAP2 ADD ADD SWAP2 SWAP1 SWAP2 MSTORE MSTORE PUSH0 DUP1 MLOAD PUSH1 0x20 PUSH2 0x2A02 DUP4 CODECOPY DUP2 MLOAD SWAP2 MSTORE DUP1 DUP4 PUSH1 0x7 DUP2 MLOAD DUP2 LT PUSH2 0x741 JUMPI PUSH2 0x741 PUSH2 0x2982 JUMP JUMPDEST PUSH1 0x20 MUL PUSH1 0x20 ADD ADD MLOAD DUP5 PUSH1 0x1E DUP2 MLOAD DUP2 LT PUSH2 0x75C JUMPI PUSH2 0x75C PUSH2 0x2982 JUMP JUMPDEST PUSH1 0x20 MUL PUSH1 0x20 ADD ADD MLOAD MULMOD DUP4 PUSH1 0x15 DUP2 MLOAD DUP2 LT PUSH2 0x778 JUMPI PUSH2 0x778 PUSH2 0x2982 JUMP JUMPDEST PUSH1 0x20 MUL PUSH1 0x20 ADD ADD MLOAD MULMOD DUP3 PUSH1 0x10 DUP2 MLOAD DUP2 LT PUSH2 0x794 JUMPI PUSH2 0x794 PUSH2 0x2982 JUMP JUMPDEST PUSH1 0x20 MUL PUSH1 0x20 ADD ADD DUP2 DUP2 MSTORE POP POP PUSH2 0x7AB DUP3 PUSH1 0xC PUSH2 0x2780 JUMP JUMPDEST PUSH32 0x80319B89ADC6E14F3413130822D9FE19B83A527F16958EA8A32DA2C354B7EEA PUSH32 0x15BA496188FE57049D0C83833339DF9D5D42DA93B37576DE96C0B76E91798B1 DUP4 PUSH1 0xE DUP2 MLOAD DUP2 LT PUSH2 0x800 JUMPI PUSH2 0x800 PUSH2 0x2982 JUMP JUMPDEST PUSH1 0x20 MUL PUSH1 0x20 ADD ADD DUP5 PUSH1 0xF DUP2 MLOAD DUP2 LT PUSH2 0x81A JUMPI PUSH2 0x81A PUSH2 0x2982 JUMP JUMPDEST PUSH1 0x20 SWAP1 DUP2 MUL SWAP2 SWAP1 SWAP2 ADD ADD SWAP2 SWAP1 SWAP2 MSTORE MSTORE PUSH0 DUP1 MLOAD PUSH1 0x20 PUSH2 0x2A02 DUP4 CODECOPY DUP2 MLOAD SWAP2 MSTORE DUP1 DUP4 PUSH1 0x7 DUP2 MLOAD DUP2 LT PUSH2 0x84B JUMPI PUSH2 0x84B PUSH2 0x2982 JUMP JUMPDEST PUSH1 0x20 MUL PUSH1 0x20 ADD ADD MLOAD DUP5 PUSH1 0x20 DUP2 MLOAD DUP2 LT PUSH2 0x866 JUMPI PUSH2 0x866 PUSH2 0x2982 JUMP JUMPDEST PUSH1 0x20 MUL PUSH1 0x20 ADD ADD MLOAD MULMOD DUP4 PUSH1 0x15 DUP2 MLOAD DUP2 LT PUSH2 0x882 JUMPI PUSH2 0x882 PUSH2 0x2982 JUMP JUMPDEST PUSH1 0x20 MUL PUSH1 0x20 ADD ADD MLOAD MULMOD DUP3 PUSH1 0x10 DUP2 MLOAD DUP2 LT PUSH2 0x89E JUMPI PUSH2 0x89E PUSH2 0x2982 JUMP JUMPDEST PUSH1 0x20 MUL PUSH1 0x20 ADD ADD DUP2 DUP2 MSTORE POP POP PUSH2 0x8B5 DUP3 PUSH1 0xC PUSH2 0x2780 JUMP JUMPDEST DUP6 DUP6 PUSH1 0x7E DUP2 DUP2 LT PUSH2 0x8C8 JUMPI PUSH2 0x8C8 PUSH2 0x2982 JUMP JUMPDEST SWAP1 POP PUSH1 0x20 MUL ADD CALLDATALOAD DUP7 DUP7 PUSH1 0x7F DUP2 DUP2 LT PUSH2 0x8E2 JUMPI PUSH2 0x8E2 PUSH2 0x2982 JUMP JUMPDEST SWAP1 POP PUSH1 0x20 MUL ADD CALLDATALOAD DUP4 PUSH1 0xE DUP2 MLOAD DUP2 LT PUSH2 0x8FC JUMPI PUSH2 0x8FC PUSH2 0x2982 JUMP JUMPDEST PUSH1 0x20 MUL PUSH1 0x20 ADD ADD DUP5 PUSH1 0xF DUP2 MLOAD DUP2 LT PUSH2 0x916 JUMPI PUSH2 0x916 PUSH2 0x2982 JUMP JUMPDEST PUSH1 0x20 SWAP1 DUP2 MUL SWAP2 SWAP1 SWAP2 ADD ADD SWAP2 SWAP1 SWAP2 MSTORE MSTORE PUSH0 DUP1 MLOAD PUSH1 0x20 PUSH2 0x2A02 DUP4 CODECOPY DUP2 MLOAD SWAP2 MSTORE DUP3 PUSH1 0x16 DUP2 MLOAD DUP2 LT PUSH2 0x946 JUMPI PUSH2 0x946 PUSH2 0x2982 JUMP JUMPDEST PUSH1 0x20 MUL PUSH1 0x20 ADD ADD MLOAD PUSH0 DUP1 MLOAD PUSH1 0x20 PUSH2 0x2A02 DUP4 CODECOPY DUP2 MLOAD SWAP2 MSTORE DUP1 PUSH2 0x969 JUMPI PUSH2 0x969 PUSH2 0x2996 JUMP JUMPDEST PUSH0 DUP1 MLOAD PUSH1 0x20 PUSH2 0x2A02 DUP4 CODECOPY DUP2 MLOAD SWAP2 MSTORE DUP6 PUSH1 0x6 DUP2 MLOAD DUP2 LT PUSH2 0x98A JUMPI PUSH2 0x98A PUSH2 0x2982 JUMP JUMPDEST PUSH1 0x20 MUL PUSH1 0x20 ADD ADD MLOAD PUSH0 DUP1 MLOAD PUSH1 0x20 PUSH2 0x2A02 DUP4 CODECOPY DUP2 MLOAD SWAP2 MSTORE PUSH2 0x9AA SWAP2 SWAP1 PUSH2 0x29BE JUMP JUMPDEST DUP7 PUSH1 0x9 DUP2 MLOAD DUP2 LT PUSH2 0x9BD JUMPI PUSH2 0x9BD PUSH2 0x2982 JUMP JUMPDEST PUSH1 0x20 MUL PUSH1 0x20 ADD ADD MLOAD ADDMOD DUP6 PUSH1 0x11 DUP2 MLOAD DUP2 LT PUSH2 0x9D9 JUMPI PUSH2 0x9D9 PUSH2 0x2982 JUMP JUMPDEST PUSH1 0x20 MUL PUSH1 0x20 ADD ADD MLOAD MULMOD MULMOD PUSH2 0x9FA SWAP1 PUSH0 DUP1 MLOAD PUSH1 0x20 PUSH2 0x2A02 DUP4 CODECOPY DUP2 MLOAD SWAP2 MSTORE PUSH2 0x29BE JUMP JUMPDEST DUP3 PUSH1 0x10 DUP2 MLOAD DUP2 LT PUSH2 0xA0D JUMPI PUSH2 0xA0D PUSH2 0x2982 JUMP JUMPDEST PUSH1 0x20 MUL PUSH1 0x20 ADD ADD DUP2 DUP2 MSTORE POP POP PUSH2 0xA24 DUP3 PUSH1 0xC PUSH2 0x2780 JUMP JUMPDEST DUP6 DUP6 PUSH1 0x80 DUP2 DUP2 LT PUSH2 0xA37 JUMPI PUSH2 0xA37 PUSH2 0x2982 JUMP JUMPDEST SWAP1 POP PUSH1 0x20 MUL ADD CALLDATALOAD DUP7 DUP7 PUSH1 0x81 DUP2 DUP2 LT PUSH2 0xA51 JUMPI PUSH2 0xA51 PUSH2 0x2982 JUMP JUMPDEST SWAP1 POP PUSH1 0x20 MUL ADD CALLDATALOAD DUP4 PUSH1 0xE DUP2 MLOAD DUP2 LT PUSH2 0xA6B JUMPI PUSH2 0xA6B PUSH2 0x2982 JUMP JUMPDEST PUSH1 0x20 MUL PUSH1 0x20 ADD ADD DUP5 PUSH1 0xF DUP2 MLOAD DUP2 LT PUSH2 0xA85 JUMPI PUSH2 0xA85 PUSH2 0x2982 JUMP JUMPDEST PUSH1 0x20 MUL PUSH1 0x20 ADD ADD DUP3 DUP2 MSTORE POP DUP3 DUP2 MSTORE POP POP POP DUP2 PUSH1 0x9 DUP2 MLOAD DUP2 LT PUSH2 0xAA9 JUMPI PUSH2 0xAA9 PUSH2 0x2982 JUMP JUMPDEST PUSH1 0x20 MUL PUSH1 0x20 ADD ADD MLOAD DUP3 PUSH1 0x10 DUP2 MLOAD DUP2 LT PUSH2 0xAC4 JUMPI PUSH2 0xAC4 PUSH2 0x2982 JUMP JUMPDEST PUSH1 0x20 MUL PUSH1 0x20 ADD ADD DUP2 DUP2 MSTORE POP POP PUSH2 0xADB DUP3 PUSH1 0xC PUSH2 0x2780 JUMP JUMPDEST PUSH0 DUP1 MLOAD PUSH1 0x20 PUSH2 0x2A02 DUP4 CODECOPY DUP2 MLOAD SWAP2 MSTORE DUP3 PUSH1 0x7 DUP2 MLOAD DUP2 LT PUSH2 0xAFC JUMPI PUSH2 0xAFC PUSH2 0x2982 JUMP JUMPDEST PUSH1 0x20 MUL PUSH1 0x20 ADD ADD MLOAD DUP4 PUSH1 0x15 DUP2 MLOAD DUP2 LT PUSH2 0xB17 JUMPI PUSH2 0xB17 PUSH2 0x2982 JUMP JUMPDEST PUSH1 0x20 MUL PUSH1 0x20 ADD ADD MLOAD MULMOD DUP3 PUSH1 0x11 DUP2 MLOAD DUP2 LT PUSH2 0xB33 JUMPI PUSH2 0xB33 PUSH2 0x2982 JUMP JUMPDEST PUSH1 0x20 MUL PUSH1 0x20 ADD ADD DUP2 DUP2 MSTORE POP POP DUP6 DUP6 PUSH1 0x36 DUP2 DUP2 LT PUSH2 0xB52 JUMPI PUSH2 0xB52 PUSH2 0x2982 JUMP JUMPDEST SWAP1 POP PUSH1 0x20 MUL ADD CALLDATALOAD DUP7 DUP7 PUSH1 0x37 DUP2 DUP2 LT PUSH2 0xB6C JUMPI PUSH2 0xB6C PUSH2 0x2982 JUMP JUMPDEST SWAP1 POP PUSH1 0x20 MUL ADD CALLDATALOAD DUP4 PUSH1 0xE DUP2 MLOAD DUP2 LT PUSH2 0xB86 JUMPI PUSH2 0xB86 PUSH2 0x2982 JUMP JUMPDEST PUSH1 0x20 MUL PUSH1 0x20 ADD ADD DUP5 PUSH1 0xF DUP2 MLOAD DUP2 LT PUSH2 0xBA0 JUMPI PUSH2 0xBA0 PUSH2 0x2982 JUMP JUMPDEST PUSH1 0x20 SWAP1 DUP2 MUL SWAP2 SWAP1 SWAP2 ADD ADD SWAP2 SWAP1 SWAP2 MSTORE MSTORE PUSH0 DUP1 MLOAD PUSH1 0x20 PUSH2 0x2A02 DUP4 CODECOPY DUP2 MLOAD SWAP2 MSTORE DUP1 DUP4 PUSH1 0x23 DUP2 MLOAD DUP2 LT PUSH2 0xBD1 JUMPI PUSH2 0xBD1 PUSH2 0x2982 JUMP JUMPDEST PUSH1 0x20 MUL PUSH1 0x20 ADD ADD MLOAD DUP5 PUSH1 0x23 DUP2 MLOAD DUP2 LT PUSH2 0xBEC JUMPI PUSH2 0xBEC PUSH2 0x2982 JUMP JUMPDEST PUSH1 0x20 MUL PUSH1 0x20 ADD ADD MLOAD MULMOD DUP4 PUSH1 0x11 DUP2 MLOAD DUP2 LT PUSH2 0xC08 JUMPI PUSH2 0xC08 PUSH2 0x2982 JUMP JUMPDEST PUSH1 0x20 MUL PUSH1 0x20 ADD ADD MLOAD MULMOD DUP3 PUSH1 0x10 DUP2 MLOAD DUP2 LT PUSH2 0xC24 JUMPI PUSH2 0xC24 PUSH2 0x2982 JUMP JUMPDEST PUSH1 0x20 MUL PUSH1 0x20 ADD ADD DUP2 DUP2 MSTORE POP POP PUSH2 0xC3B DUP3 PUSH1 0xC PUSH2 0x2780 JUMP JUMPDEST DUP6 DUP6 PUSH1 0x34 DUP2 DUP2 LT PUSH2 0xC4E JUMPI PUSH2 0xC4E PUSH2 0x2982 JUMP JUMPDEST SWAP1 POP PUSH1 0x20 MUL ADD CALLDATALOAD DUP7 DUP7 PUSH1 0x35 DUP2 DUP2 LT PUSH2 0xC68 JUMPI PUSH2 0xC68 PUSH2 0x2982 JUMP JUMPDEST SWAP1 POP PUSH1 0x20 MUL ADD CALLDATALOAD DUP4 PUSH1 0xE DUP2 MLOAD DUP2 LT PUSH2 0xC82 JUMPI PUSH2 0xC82 PUSH2 0x2982 JUMP JUMPDEST PUSH1 0x20 MUL PUSH1 0x20 ADD ADD DUP5 PUSH1 0xF DUP2 MLOAD DUP2 LT PUSH2 0xC9C JUMPI PUSH2 0xC9C PUSH2 0x2982 JUMP JUMPDEST PUSH1 0x20 SWAP1 DUP2 MUL SWAP2 SWAP1 SWAP2 ADD ADD SWAP2 SWAP1 SWAP2 MSTORE MSTORE PUSH0 DUP1 MLOAD PUSH1 0x20 PUSH2 0x2A02 DUP4 CODECOPY DUP2 MLOAD SWAP2 MSTORE DUP3 PUSH1 0x23 DUP2 MLOAD DUP2 LT PUSH2 0xCCC JUMPI PUSH2 0xCCC PUSH2 0x2982 JUMP JUMPDEST PUSH1 0x20 MUL PUSH1 0x20 ADD ADD MLOAD DUP4 PUSH1 0x11 DUP2 MLOAD DUP2 LT PUSH2 0xCE7 JUMPI PUSH2 0xCE7 PUSH2 0x2982 JUMP JUMPDEST PUSH1 0x20 MUL PUSH1 0x20 ADD ADD MLOAD MULMOD DUP3 PUSH1 0x10 DUP2 MLOAD DUP2 LT PUSH2 0xD03 JUMPI PUSH2 0xD03 PUSH2 0x2982 JUMP JUMPDEST PUSH1 0x20 MUL PUSH1 0x20 ADD ADD DUP2 DUP2 MSTORE POP POP PUSH2 0xD1A DUP3 PUSH1 0xC PUSH2 0x2780 JUMP JUMPDEST DUP6 DUP6 PUSH1 0x32 DUP2 DUP2 LT PUSH2 0xD2D JUMPI PUSH2 0xD2D PUSH2 0x2982 JUMP JUMPDEST SWAP1 POP PUSH1 0x20 MUL ADD CALLDATALOAD DUP7 DUP7 PUSH1 0x33 DUP2 DUP2 LT PUSH2 0xD47 JUMPI PUSH2 0xD47 PUSH2 0x2982 JUMP JUMPDEST SWAP1 POP PUSH1 0x20 MUL ADD CALLDATALOAD DUP4 PUSH1 0xE DUP2 MLOAD DUP2 LT PUSH2 0xD61 JUMPI PUSH2 0xD61 PUSH2 0x2982 JUMP JUMPDEST PUSH1 0x20 MUL PUSH1 0x20 ADD ADD DUP5 PUSH1 0xF DUP2 MLOAD DUP2 LT PUSH2 0xD7B JUMPI PUSH2 0xD7B PUSH2 0x2982 JUMP JUMPDEST PUSH1 0x20 MUL PUSH1 0x20 ADD ADD DUP3 DUP2 MSTORE POP DUP3 DUP2 MSTORE POP POP POP DUP2 PUSH1 0x11 DUP2 MLOAD DUP2 LT PUSH2 0xD9F JUMPI PUSH2 0xD9F PUSH2 0x2982 JUMP JUMPDEST PUSH1 0x20 MUL PUSH1 0x20 ADD ADD MLOAD DUP3 PUSH1 0x10 DUP2 MLOAD DUP2 LT PUSH2 0xDBA JUMPI PUSH2 0xDBA PUSH2 0x2982 JUMP JUMPDEST PUSH1 0x20 MUL PUSH1 0x20 ADD ADD DUP2 DUP2 MSTORE POP POP PUSH2 0xDD1 DUP3 PUSH1 0xC PUSH2 0x2780 JUMP JUMPDEST DUP2 PUSH0 DUP2 MLOAD DUP2 LT PUSH2 0xDE3 JUMPI PUSH2 0xDE3 PUSH2 0x2982 JUMP JUMPDEST PUSH1 0x20 MUL PUSH1 0x20 ADD ADD MLOAD DUP3 PUSH1 0x1 DUP2 MLOAD DUP2 LT PUSH2 0xDFE JUMPI PUSH2 0xDFE PUSH2 0x2982 JUMP JUMPDEST PUSH1 0x20 MUL PUSH1 0x20 ADD ADD MLOAD DUP4 PUSH1 0xE DUP2 MLOAD DUP2 LT PUSH2 0xE19 JUMPI PUSH2 0xE19 PUSH2 0x2982 JUMP JUMPDEST PUSH1 0x20 MUL PUSH1 0x20 ADD ADD DUP5 PUSH1 0xF DUP2 MLOAD DUP2 LT PUSH2 0xE33 JUMPI PUSH2 0xE33 PUSH2 0x2982 JUMP JUMPDEST PUSH1 0x20 SWAP1 DUP2 MUL SWAP2 SWAP1 SWAP2 ADD ADD SWAP2 SWAP1 SWAP2 MSTORE MSTORE PUSH0 DUP1 MLOAD PUSH1 0x20 PUSH2 0x2A02 DUP4 CODECOPY DUP2 MLOAD SWAP2 MSTORE DUP1 DUP4 PUSH1 0x18 DUP2 MLOAD DUP2 LT PUSH2 0xE64 JUMPI PUSH2 0xE64 PUSH2 0x2982 JUMP JUMPDEST PUSH1 0x20 MUL PUSH1 0x20 ADD ADD MLOAD DUP5 PUSH1 0x1D DUP2 MLOAD DUP2 LT PUSH2 0xE7F JUMPI PUSH2 0xE7F PUSH2 0x2982 JUMP JUMPDEST PUSH1 0x20 MUL PUSH1 0x20 ADD ADD MLOAD MULMOD DUP4 PUSH1 0x15 DUP2 MLOAD DUP2 LT PUSH2 0xE9B JUMPI PUSH2 0xE9B PUSH2 0x2982 JUMP JUMPDEST PUSH1 0x20 MUL PUSH1 0x20 ADD ADD MLOAD MULMOD DUP3 PUSH1 0x10 DUP2 MLOAD DUP2 LT PUSH2 0xEB7 JUMPI PUSH2 0xEB7 PUSH2 0x2982 JUMP JUMPDEST PUSH1 0x20 MUL PUSH1 0x20 ADD ADD DUP2 DUP2 MSTORE POP POP PUSH2 0xECE DUP3 PUSH1 0xC PUSH2 0x2780 JUMP JUMPDEST PUSH0 DUP1 MLOAD PUSH1 0x20 PUSH2 0x2A02 DUP4 CODECOPY DUP2 MLOAD SWAP2 MSTORE DUP3 PUSH1 0x1C DUP2 MLOAD DUP2 LT PUSH2 0xEEF JUMPI PUSH2 0xEEF PUSH2 0x2982 JUMP JUMPDEST PUSH1 0x20 MUL PUSH1 0x20 ADD ADD MLOAD PUSH0 DUP1 MLOAD PUSH1 0x20 PUSH2 0x2A02 DUP4 CODECOPY DUP2 MLOAD SWAP2 MSTORE DUP1 PUSH2 0xF12 JUMPI PUSH2 0xF12 PUSH2 0x2996 JUMP JUMPDEST DUP5 PUSH1 0x8 DUP2 MLOAD DUP2 LT PUSH2 0xF25 JUMPI PUSH2 0xF25 PUSH2 0x2982 JUMP JUMPDEST PUSH1 0x20 MUL PUSH1 0x20 ADD ADD MLOAD DUP6 PUSH1 0x13 DUP2 MLOAD DUP2 LT PUSH2 0xF40 JUMPI PUSH2 0xF40 PUSH2 0x2982 JUMP JUMPDEST PUSH1 0x20 MUL PUSH1 0x20 ADD ADD MLOAD MULMOD MULMOD DUP3 PUSH1 0x11 DUP2 MLOAD DUP2 LT PUSH2 0xF5D JUMPI PUSH2 0xF5D PUSH2 0x2982 JUMP JUMPDEST PUSH1 0x20 MUL PUSH1 0x20 ADD ADD DUP2 DUP2 MSTORE POP POP DUP6 DUP6 PUSH1 0x14 DUP2 DUP2 LT PUSH2 0xF7C JUMPI PUSH2 0xF7C PUSH2 0x2982 JUMP JUMPDEST SWAP1 POP PUSH1 0x20 MUL ADD CALLDATALOAD DUP7 DUP7 PUSH1 0x15 DUP2 DUP2 LT PUSH2 0xF96 JUMPI PUSH2 0xF96 PUSH2 0x2982 JUMP JUMPDEST SWAP1 POP PUSH1 0x20 MUL ADD CALLDATALOAD DUP4 PUSH1 0xE DUP2 MLOAD DUP2 LT PUSH2 0xFB0 JUMPI PUSH2 0xFB0 PUSH2 0x2982 JUMP JUMPDEST PUSH1 0x20 MUL PUSH1 0x20 ADD ADD DUP5 PUSH1 0xF DUP2 MLOAD DUP2 LT PUSH2 0xFCA JUMPI PUSH2 0xFCA PUSH2 0x2982 JUMP JUMPDEST PUSH1 0x20 SWAP1 DUP2 MUL SWAP2 SWAP1 SWAP2 ADD ADD SWAP2 SWAP1 SWAP2 MSTORE MSTORE PUSH0 DUP1 MLOAD PUSH1 0x20 PUSH2 0x2A02 DUP4 CODECOPY DUP2 MLOAD SWAP2 MSTORE DUP3 PUSH1 0x17 DUP2 MLOAD DUP2 LT PUSH2 0xFFA JUMPI PUSH2 0xFFA PUSH2 0x2982 JUMP JUMPDEST PUSH1 0x20 MUL PUSH1 0x20 ADD ADD MLOAD DUP4 PUSH1 0x11 DUP2 MLOAD DUP2 LT PUSH2 0x1015 JUMPI PUSH2 0x1015 PUSH2 0x2982 JUMP JUMPDEST PUSH1 0x20 MUL PUSH1 0x20 ADD ADD MLOAD MULMOD DUP3 PUSH1 0x10 DUP2 MLOAD DUP2 LT PUSH2 0x1031 JUMPI PUSH2 0x1031 PUSH2 0x2982 JUMP JUMPDEST PUSH1 0x20 MUL PUSH1 0x20 ADD ADD DUP2 DUP2 MSTORE POP POP PUSH2 0x1048 DUP3 PUSH1 0xC PUSH2 0x2780 JUMP JUMPDEST DUP6 DUP6 PUSH1 0x16 DUP2 DUP2 LT PUSH2 0x105B JUMPI PUSH2 0x105B PUSH2 0x2982 JUMP JUMPDEST SWAP1 POP PUSH1 0x20 MUL ADD CALLDATALOAD DUP7 DUP7 PUSH1 0x17 DUP2 DUP2 LT PUSH2 0x1075 JUMPI PUSH2 0x1075 PUSH2 0x2982 JUMP JUMPDEST SWAP1 POP PUSH1 0x20 MUL ADD CALLDATALOAD DUP4 PUSH1 0xE DUP2 MLOAD DUP2 LT PUSH2 0x108F JUMPI PUSH2 0x108F PUSH2 0x2982 JUMP JUMPDEST PUSH1 0x20 MUL PUSH1 0x20 ADD ADD DUP5 PUSH1 0xF DUP2 MLOAD DUP2 LT PUSH2 0x10A9 JUMPI PUSH2 0x10A9 PUSH2 0x2982 JUMP JUMPDEST PUSH1 0x20 SWAP1 DUP2 MUL SWAP2 SWAP1 SWAP2 ADD ADD SWAP2 SWAP1 SWAP2 MSTORE MSTORE PUSH0 DUP1 MLOAD PUSH1 0x20 PUSH2 0x2A02 DUP4 CODECOPY DUP2 MLOAD SWAP2 MSTORE DUP3 PUSH1 0x1F DUP2 MLOAD DUP2 LT PUSH2 0x10D9 JUMPI PUSH2 0x10D9 PUSH2 0x2982 JUMP JUMPDEST PUSH1 0x20 MUL PUSH1 0x20 ADD ADD MLOAD DUP4 PUSH1 0x15 DUP2 MLOAD DUP2 LT PUSH2 0x10F4 JUMPI PUSH2 0x10F4 PUSH2 0x2982 JUMP JUMPDEST PUSH1 0x20 MUL PUSH1 0x20 ADD ADD MLOAD MULMOD DUP3 PUSH1 0x10 DUP2 MLOAD DUP2 LT PUSH2 0x1110 JUMPI PUSH2 0x1110 PUSH2 0x2982 JUMP JUMPDEST PUSH1 0x20 MUL PUSH1 0x20 ADD ADD DUP2 DUP2 MSTORE POP POP PUSH2 0x1127 DUP3 PUSH1 0xC PUSH2 0x2780 JUMP JUMPDEST DUP6 DUP6 PUSH1 0x2A DUP2 DUP2 LT PUSH2 0x113A JUMPI PUSH2 0x113A PUSH2 0x2982 JUMP JUMPDEST SWAP1 POP PUSH1 0x20 MUL ADD CALLDATALOAD DUP7 DUP7 PUSH1 0x2B DUP2 DUP2 LT PUSH2 0x1154 JUMPI PUSH2 0x1154 PUSH2 0x2982 JUMP JUMPDEST SWAP1 POP PUSH1 0x20 MUL ADD CALLDATALOAD DUP4 PUSH1 0xE DUP2 MLOAD DUP2 LT PUSH2 0x116E JUMPI PUSH2 0x116E PUSH2 0x2982 JUMP JUMPDEST PUSH1 0x20 MUL PUSH1 0x20 ADD ADD DUP5 PUSH1 0xF DUP2 MLOAD DUP2 LT PUSH2 0x1188 JUMPI PUSH2 0x1188 PUSH2 0x2982 JUMP JUMPDEST PUSH1 0x20 SWAP1 DUP2 MUL SWAP2 SWAP1 SWAP2 ADD ADD SWAP2 SWAP1 SWAP2 MSTORE MSTORE PUSH0 DUP1 MLOAD PUSH1 0x20 PUSH2 0x2A02 DUP4 CODECOPY DUP2 MLOAD SWAP2 MSTORE DUP3 PUSH1 0x17 DUP2 MLOAD DUP2 LT PUSH2 0x11B8 JUMPI PUSH2 0x11B8 PUSH2 0x2982 JUMP JUMPDEST PUSH1 0x20 MUL PUSH1 0x20 ADD ADD MLOAD DUP4 PUSH1 0x19 DUP2 MLOAD DUP2 LT PUSH2 0x11D3 JUMPI PUSH2 0x11D3 PUSH2 0x2982 JUMP JUMPDEST PUSH1 0x20 MUL PUSH1 0x20 ADD ADD MLOAD MULMOD DUP3 PUSH1 0x10 DUP2 MLOAD DUP2 LT PUSH2 0x11EF JUMPI PUSH2 0x11EF PUSH2 0x2982 JUMP JUMPDEST PUSH1 0x20 MUL PUSH1 0x20 ADD ADD DUP2 DUP2 MSTORE POP POP PUSH2 0x1206 DUP3 PUSH1 0xC PUSH2 0x2780 JUMP JUMPDEST DUP6 DUP6 PUSH1 0x18 DUP2 DUP2 LT PUSH2 0x1219 JUMPI PUSH2 0x1219 PUSH2 0x2982 JUMP JUMPDEST SWAP1 POP PUSH1 0x20 MUL ADD CALLDATALOAD DUP7 DUP7 PUSH1 0x19 DUP2 DUP2 LT PUSH2 0x1233 JUMPI PUSH2 0x1233 PUSH2 0x2982 JUMP JUMPDEST SWAP1 POP PUSH1 0x20 MUL ADD CALLDATALOAD DUP4 PUSH1 0xE DUP2 MLOAD DUP2 LT PUSH2 0x124D JUMPI PUSH2 0x124D PUSH2 0x2982 JUMP JUMPDEST PUSH1 0x20 MUL PUSH1 0x20 ADD ADD DUP5 PUSH1 0xF DUP2 MLOAD DUP2 LT PUSH2 0x1267 JUMPI PUSH2 0x1267 PUSH2 0x2982 JUMP JUMPDEST PUSH1 0x20 SWAP1 DUP2 MUL SWAP2 SWAP1 SWAP2 ADD ADD SWAP2 SWAP1 SWAP2 MSTORE MSTORE PUSH0 DUP1 MLOAD PUSH1 0x20 PUSH2 0x2A02 DUP4 CODECOPY DUP2 MLOAD SWAP2 MSTORE DUP3 PUSH1 0x7 DUP2 MLOAD DUP2 LT PUSH2 0x1297 JUMPI PUSH2 0x1297 PUSH2 0x2982 JUMP JUMPDEST PUSH1 0x20 MUL PUSH1 0x20 ADD ADD MLOAD DUP4 PUSH1 0x11 DUP2 MLOAD DUP2 LT PUSH2 0x12B2 JUMPI PUSH2 0x12B2 PUSH2 0x2982 JUMP JUMPDEST PUSH1 0x20 MUL PUSH1 0x20 ADD ADD MLOAD MULMOD DUP3 PUSH1 0x10 DUP2 MLOAD DUP2 LT PUSH2 0x12CE JUMPI PUSH2 0x12CE PUSH2 0x2982 JUMP JUMPDEST PUSH1 0x20 MUL PUSH1 0x20 ADD ADD DUP2 DUP2 MSTORE POP POP PUSH2 0x12E5 DUP3 PUSH1 0xC PUSH2 0x2780 JUMP JUMPDEST PUSH0 DUP1 MLOAD PUSH1 0x20 PUSH2 0x2A02 DUP4 CODECOPY DUP2 MLOAD SWAP2 MSTORE DUP3 PUSH1 0x17 DUP2 MLOAD DUP2 LT PUSH2 0x1306 JUMPI PUSH2 0x1306 PUSH2 0x2982 JUMP JUMPDEST PUSH1 0x20 MUL PUSH1 0x20 ADD ADD MLOAD DUP4 PUSH1 0x1E DUP2 MLOAD DUP2 LT PUSH2 0x1321 JUMPI PUSH2 0x1321 PUSH2 0x2982 JUMP JUMPDEST PUSH1 0x20 MUL PUSH1 0x20 ADD ADD MLOAD MULMOD DUP3 PUSH1 0x14 DUP2 MLOAD DUP2 LT PUSH2 0x133D JUMPI PUSH2 0x133D PUSH2 0x2982 JUMP JUMPDEST PUSH1 0x20 MUL PUSH1 0x20 ADD ADD DUP2 DUP2 MSTORE POP POP DUP6 DUP6 PUSH1 0x1A DUP2 DUP2 LT PUSH2 0x135C JUMPI PUSH2 0x135C PUSH2 0x2982 JUMP JUMPDEST SWAP1 POP PUSH1 0x20 MUL ADD CALLDATALOAD DUP7 DUP7 PUSH1 0x1B DUP2 DUP2 LT PUSH2 0x1376 JUMPI PUSH2 0x1376 PUSH2 0x2982 JUMP JUMPDEST SWAP1 POP PUSH1 0x20 MUL ADD CALLDATALOAD DUP4 PUSH1 0xE DUP2 MLOAD DUP2 LT PUSH2 0x1390 JUMPI PUSH2 0x1390 PUSH2 0x2982 JUMP JUMPDEST PUSH1 0x20 MUL PUSH1 0x20 ADD ADD DUP5 PUSH1 0xF DUP2 MLOAD DUP2 LT PUSH2 0x13AA JUMPI PUSH2 0x13AA PUSH2 0x2982 JUMP JUMPDEST PUSH1 0x20 SWAP1 DUP2 MUL SWAP2 SWAP1 SWAP2 ADD ADD SWAP2 SWAP1 SWAP2 MSTORE MSTORE PUSH0 DUP1 MLOAD PUSH1 0x20 PUSH2 0x2A02 DUP4 CODECOPY DUP2 MLOAD SWAP2 MSTORE DUP1 DUP4 PUSH1 0x7 DUP2 MLOAD DUP2 LT PUSH2 0x13DB JUMPI PUSH2 0x13DB PUSH2 0x2982 JUMP JUMPDEST PUSH1 0x20 MUL PUSH1 0x20 ADD ADD MLOAD DUP5 PUSH1 0x14 DUP2 MLOAD DUP2 LT PUSH2 0x13F6 JUMPI PUSH2 0x13F6 PUSH2 0x2982 JUMP JUMPDEST PUSH1 0x20 MUL PUSH1 0x20 ADD ADD MLOAD MULMOD DUP4 PUSH1 0x15 DUP2 MLOAD DUP2 LT PUSH2 0x1412 JUMPI PUSH2 0x1412 PUSH2 0x2982 JUMP JUMPDEST PUSH1 0x20 MUL PUSH1 0x20 ADD ADD MLOAD MULMOD DUP3 PUSH1 0x10 DUP2 MLOAD DUP2 LT PUSH2 0x142E JUMPI PUSH2 0x142E PUSH2 0x2982 JUMP JUMPDEST PUSH1 0x20 MUL PUSH1 0x20 ADD ADD DUP2 DUP2 MSTORE POP POP PUSH2 0x1445 DUP3 PUSH1 0xC PUSH2 0x2780 JUMP JUMPDEST DUP6 DUP6 PUSH1 0x2C DUP2 DUP2 LT PUSH2 0x1458 JUMPI PUSH2 0x1458 PUSH2 0x2982 JUMP JUMPDEST SWAP1 POP PUSH1 0x20 MUL ADD CALLDATALOAD DUP7 DUP7 PUSH1 0x2D DUP2 DUP2 LT PUSH2 0x1472 JUMPI PUSH2 0x1472 PUSH2 0x2982 JUMP JUMPDEST SWAP1 POP PUSH1 0x20 MUL ADD CALLDATALOAD DUP4 PUSH1 0xE DUP2 MLOAD DUP2 LT PUSH2 0x148C JUMPI PUSH2 0x148C PUSH2 0x2982 JUMP JUMPDEST PUSH1 0x20 MUL PUSH1 0x20 ADD ADD DUP5 PUSH1 0xF DUP2 MLOAD DUP2 LT PUSH2 0x14A6 JUMPI PUSH2 0x14A6 PUSH2 0x2982 JUMP JUMPDEST PUSH1 0x20 SWAP1 DUP2 MUL SWAP2 SWAP1 SWAP2 ADD ADD SWAP2 SWAP1 SWAP2 MSTORE MSTORE PUSH0 DUP1 MLOAD PUSH1 0x20 PUSH2 0x2A02 DUP4 CODECOPY DUP2 MLOAD SWAP2 MSTORE DUP3 PUSH1 0x7 DUP2 MLOAD DUP2 LT PUSH2 0x14D6 JUMPI PUSH2 0x14D6 PUSH2 0x2982 JUMP JUMPDEST PUSH1 0x20 MUL PUSH1 0x20 ADD ADD MLOAD DUP4 PUSH1 0x19 DUP2 MLOAD DUP2 LT PUSH2 0x14F1 JUMPI PUSH2 0x14F1 PUSH2 0x2982 JUMP JUMPDEST PUSH1 0x20 MUL PUSH1 0x20 ADD ADD MLOAD MULMOD DUP3 PUSH1 0x10 DUP2 MLOAD DUP2 LT PUSH2 0x150D JUMPI PUSH2 0x150D PUSH2 0x2982 JUMP JUMPDEST PUSH1 0x20 MUL PUSH1 0x20 ADD ADD DUP2 DUP2 MSTORE POP POP PUSH2 0x1524 DUP3 PUSH1 0xC PUSH2 0x2780 JUMP JUMPDEST DUP6 DUP6 PUSH1 0x1C DUP2 DUP2 LT PUSH2 0x1537 JUMPI PUSH2 0x1537 PUSH2 0x2982 JUMP JUMPDEST SWAP1 POP PUSH1 0x20 MUL ADD CALLDATALOAD DUP7 DUP7 PUSH1 0x1D DUP2 DUP2 LT PUSH2 0x1551 JUMPI PUSH2 0x1551 PUSH2 0x2982 JUMP JUMPDEST SWAP1 POP PUSH1 0x20 MUL ADD CALLDATALOAD DUP4 PUSH1 0xE DUP2 MLOAD DUP2 LT PUSH2 0x156B JUMPI PUSH2 0x156B PUSH2 0x2982 JUMP JUMPDEST PUSH1 0x20 MUL PUSH1 0x20 ADD ADD DUP5 PUSH1 0xF DUP2 MLOAD DUP2 LT PUSH2 0x1585 JUMPI PUSH2 0x1585 PUSH2 0x2982 JUMP JUMPDEST PUSH1 0x20 MUL PUSH1 0x20 ADD ADD DUP3 DUP2 MSTORE POP DUP3 DUP2 MSTORE POP POP POP DUP2 PUSH1 0x11 DUP2 MLOAD DUP2 LT PUSH2 0x15A9 JUMPI PUSH2 0x15A9 PUSH2 0x2982 JUMP JUMPDEST PUSH1 0x20 MUL PUSH1 0x20 ADD ADD MLOAD DUP3 PUSH1 0x10 DUP2 MLOAD DUP2 LT PUSH2 0x15C4 JUMPI PUSH2 0x15C4 PUSH2 0x2982 JUMP JUMPDEST PUSH1 0x20 MUL PUSH1 0x20 ADD ADD DUP2 DUP2 MSTORE POP POP PUSH2 0x15DB DUP3 PUSH1 0xC PUSH2 0x2780 JUMP JUMPDEST DUP6 DUP6 PUSH1 0x1E DUP2 DUP2 LT PUSH2 0x15EE JUMPI PUSH2 0x15EE PUSH2 0x2982 JUMP JUMPDEST SWAP1 POP PUSH1 0x20 MUL ADD CALLDATALOAD DUP7 DUP7 PUSH1 0x1F DUP2 DUP2 LT PUSH2 0x1608 JUMPI PUSH2 0x1608 PUSH2 0x2982 JUMP JUMPDEST SWAP1 POP PUSH1 0x20 MUL ADD CALLDATALOAD DUP4 PUSH1 0xE DUP2 MLOAD DUP2 LT PUSH2 0x1622 JUMPI PUSH2 0x1622 PUSH2 0x2982 JUMP JUMPDEST PUSH1 0x20 MUL PUSH1 0x20 ADD ADD DUP5 PUSH1 0xF DUP2 MLOAD DUP2 LT PUSH2 0x163C JUMPI PUSH2 0x163C PUSH2 0x2982 JUMP JUMPDEST PUSH1 0x20 SWAP1 DUP2 MUL SWAP2 SWAP1 SWAP2 ADD ADD SWAP2 SWAP1 SWAP2 MSTORE MSTORE PUSH0 DUP1 MLOAD PUSH1 0x20 PUSH2 0x2A02 DUP4 CODECOPY DUP2 MLOAD SWAP2 MSTORE DUP3 PUSH1 0x14 DUP2 MLOAD DUP2 LT PUSH2 0x166C JUMPI PUSH2 0x166C PUSH2 0x2982 JUMP JUMPDEST PUSH1 0x20 MUL PUSH1 0x20 ADD ADD MLOAD DUP4 PUSH1 0x15 DUP2 MLOAD DUP2 LT PUSH2 0x1687 JUMPI PUSH2 0x1687 PUSH2 0x2982 JUMP JUMPDEST PUSH1 0x20 MUL PUSH1 0x20 ADD ADD MLOAD MULMOD DUP3 PUSH1 0x10 DUP2 MLOAD DUP2 LT PUSH2 0x16A3 JUMPI PUSH2 0x16A3 PUSH2 0x2982 JUMP JUMPDEST PUSH1 0x20 MUL PUSH1 0x20 ADD ADD DUP2 DUP2 MSTORE POP POP PUSH2 0x16BA DUP3 PUSH1 0xC PUSH2 0x2780 JUMP JUMPDEST DUP6 DUP6 PUSH1 0x2E DUP2 DUP2 LT PUSH2 0x16CD JUMPI PUSH2 0x16CD PUSH2 0x2982 JUMP JUMPDEST SWAP1 POP PUSH1 0x20 MUL ADD CALLDATALOAD DUP7 DUP7 PUSH1 0x2F DUP2 DUP2 LT PUSH2 0x16E7 JUMPI PUSH2 0x16E7 PUSH2 0x2982 JUMP JUMPDEST SWAP1 POP PUSH1 0x20 MUL ADD CALLDATALOAD DUP4 PUSH1 0xE DUP2 MLOAD DUP2 LT PUSH2 0x1701 JUMPI PUSH2 0x1701 PUSH2 0x2982 JUMP JUMPDEST PUSH1 0x20 MUL PUSH1 0x20 ADD ADD DUP5 PUSH1 0xF DUP2 MLOAD DUP2 LT PUSH2 0x171B JUMPI PUSH2 0x171B PUSH2 0x2982 JUMP JUMPDEST PUSH1 0x20 MUL PUSH1 0x20 ADD ADD DUP3 DUP2 MSTORE POP DUP3 DUP2 MSTORE POP POP POP DUP2 PUSH1 0x19 DUP2 MLOAD DUP2 LT PUSH2 0x173F JUMPI PUSH2 0x173F PUSH2 0x2982 JUMP JUMPDEST PUSH1 0x20 MUL PUSH1 0x20 ADD ADD MLOAD DUP3 PUSH1 0x10 DUP2 MLOAD DUP2 LT PUSH2 0x175A JUMPI PUSH2 0x175A PUSH2 0x2982 JUMP JUMPDEST PUSH1 0x20 MUL PUSH1 0x20 ADD ADD DUP2 DUP2 MSTORE POP POP PUSH2 0x1771 DUP3 PUSH1 0xC PUSH2 0x2780 JUMP JUMPDEST PUSH32 0x122C4B2C663B815420306938F8BE0DDF18B39B75B3C3C56BF872C9E588776778 PUSH32 0x2601CEC54204146DFC83CB8E79A02FFB69F0AEDCA727A5B57FDE7BD9FA7F1823 DUP4 PUSH1 0xE DUP2 MLOAD DUP2 LT PUSH2 0x17C6 JUMPI PUSH2 0x17C6 PUSH2 0x2982 JUMP JUMPDEST PUSH1 0x20 MUL PUSH1 0x20 ADD ADD DUP5 PUSH1 0xF DUP2 MLOAD DUP2 LT PUSH2 0x17E0 JUMPI PUSH2 0x17E0 PUSH2 0x2982 JUMP JUMPDEST PUSH1 0x20 SWAP1 DUP2 MUL SWAP2 SWAP1 SWAP2 ADD ADD SWAP2 SWAP1 SWAP2 MSTORE MSTORE PUSH0 DUP1 MLOAD PUSH1 0x20 PUSH2 0x2A02 DUP4 CODECOPY DUP2 MLOAD SWAP2 MSTORE DUP3 PUSH1 0x21 DUP2 MLOAD DUP2 LT PUSH2 0x1810 JUMPI PUSH2 0x1810 PUSH2 0x2982 JUMP JUMPDEST PUSH1 0x20 MUL PUSH1 0x20 ADD ADD MLOAD DUP4 PUSH1 0x15 DUP2 MLOAD DUP2 LT PUSH2 0x182B JUMPI PUSH2 0x182B PUSH2 0x2982 JUMP JUMPDEST PUSH1 0x20 MUL PUSH1 0x20 ADD ADD MLOAD MULMOD DUP3 PUSH1 0x10 DUP2 MLOAD DUP2 LT PUSH2 0x1847 JUMPI PUSH2 0x1847 PUSH2 0x2982 JUMP JUMPDEST PUSH1 0x20 MUL PUSH1 0x20 ADD ADD DUP2 DUP2 MSTORE POP POP PUSH2 0x185E DUP3 PUSH1 0xC PUSH2 0x2780 JUMP JUMPDEST PUSH32 0x156D3D1A9708A90B0555E0541F0B5B166B588C8992D27D2554229AFE81AB4A0A PUSH32 0x235A8D41C50FFC0C07768C72E4668E30487413468ACA2E0B3C4E1C9A45FB7DB9 DUP4 PUSH1 0xE DUP2 MLOAD DUP2 LT PUSH2 0x18B3 JUMPI PUSH2 0x18B3 PUSH2 0x2982 JUMP JUMPDEST PUSH1 0x20 MUL PUSH1 0x20 ADD ADD DUP5 PUSH1 0xF DUP2 MLOAD DUP2 LT PUSH2 0x18CD JUMPI PUSH2 0x18CD PUSH2 0x2982 JUMP JUMPDEST PUSH1 0x20 SWAP1 DUP2 MUL SWAP2 SWAP1 SWAP2 ADD ADD SWAP2 SWAP1 SWAP2 MSTORE MSTORE PUSH0 DUP1 MLOAD PUSH1 0x20 PUSH2 0x2A02 DUP4 CODECOPY DUP2 MLOAD SWAP2 MSTORE DUP1 DUP4 PUSH1 0x7 DUP2 MLOAD DUP2 LT PUSH2 0x18FE JUMPI PUSH2 0x18FE PUSH2 0x2982 JUMP JUMPDEST PUSH1 0x20 MUL PUSH1 0x20 ADD ADD MLOAD DUP5 PUSH1 0x1A DUP2 MLOAD DUP2 LT PUSH2 0x1919 JUMPI PUSH2 0x1919 PUSH2 0x2982 JUMP JUMPDEST PUSH1 0x20 MUL PUSH1 0x20 ADD ADD MLOAD MULMOD DUP4 PUSH1 0x15 DUP2 MLOAD DUP2 LT PUSH2 0x1935 JUMPI PUSH2 0x1935 PUSH2 0x2982 JUMP JUMPDEST PUSH1 0x20 MUL PUSH1 0x20 ADD ADD MLOAD MULMOD DUP3 PUSH1 0x10 DUP2 MLOAD DUP2 LT PUSH2 0x1951 JUMPI PUSH2 0x1951 PUSH2 0x2982 JUMP JUMPDEST PUSH1 0x20 MUL PUSH1 0x20 ADD ADD DUP2 DUP2 MSTORE POP POP PUSH2 0x1968 DUP3 PUSH1 0xC PUSH2 0x2780 JUMP JUMPDEST PUSH32 0x278BBBEFE5FF51FACAED3FA35628AF1E32FC79AE2FBBFA59CA82B15F3B5B7E4 PUSH32 0xE40799A014835571072C5DB3143AC9B9AF83A29CAA225C41E74B9D8F25DB75E DUP4 PUSH1 0xE DUP2 MLOAD DUP2 LT PUSH2 0x19BD JUMPI PUSH2 0x19BD PUSH2 0x2982 JUMP JUMPDEST PUSH1 0x20 MUL PUSH1 0x20 ADD ADD DUP5 PUSH1 0xF DUP2 MLOAD DUP2 LT PUSH2 0x19D7 JUMPI PUSH2 0x19D7 PUSH2 0x2982 JUMP JUMPDEST PUSH1 0x20 SWAP1 DUP2 MUL SWAP2 SWAP1 SWAP2 ADD ADD SWAP2 SWAP1 SWAP2 MSTORE MSTORE PUSH0 DUP1 MLOAD PUSH1 0x20 PUSH2 0x2A02 DUP4 CODECOPY DUP2 MLOAD SWAP2 MSTORE DUP3 PUSH1 0x1A DUP2 MLOAD DUP2 LT PUSH2 0x1A07 JUMPI PUSH2 0x1A07 PUSH2 0x2982 JUMP JUMPDEST PUSH1 0x20 MUL PUSH1 0x20 ADD ADD MLOAD DUP4 PUSH1 0x15 DUP2 MLOAD DUP2 LT PUSH2 0x1A22 JUMPI PUSH2 0x1A22 PUSH2 0x2982 JUMP JUMPDEST PUSH1 0x20 MUL PUSH1 0x20 ADD ADD MLOAD MULMOD DUP3 PUSH1 0x10 DUP2 MLOAD DUP2 LT PUSH2 0x1A3E JUMPI PUSH2 0x1A3E PUSH2 0x2982 JUMP JUMPDEST PUSH1 0x20 MUL PUSH1 0x20 ADD ADD DUP2 DUP2 MSTORE POP POP PUSH2 0x1A55 DUP3 PUSH1 0xC PUSH2 0x2780 JUMP JUMPDEST PUSH0 DUP1 MLOAD PUSH1 0x20 PUSH2 0x2A02 DUP4 CODECOPY DUP2 MLOAD SWAP2 MSTORE DUP3 PUSH1 0x17 DUP2 MLOAD DUP2 LT PUSH2 0x1A76 JUMPI PUSH2 0x1A76 PUSH2 0x2982 JUMP JUMPDEST PUSH1 0x20 MUL PUSH1 0x20 ADD ADD MLOAD DUP4 PUSH1 0x18 DUP2 MLOAD DUP2 LT PUSH2 0x1A91 JUMPI PUSH2 0x1A91 PUSH2 0x2982 JUMP JUMPDEST PUSH1 0x20 MUL PUSH1 0x20 ADD ADD MLOAD MULMOD DUP3 PUSH1 0x11 DUP2 MLOAD DUP2 LT PUSH2 0x1AAD JUMPI PUSH2 0x1AAD PUSH2 0x2982 JUMP JUMPDEST PUSH1 0x20 MUL PUSH1 0x20 ADD ADD DUP2 DUP2 MSTORE POP POP PUSH32 0x1EA4805CFD4E0D73993D1C8E976019E03C36BB59EE4EB5040057877C30A80E89 PUSH32 0x2F3ACBAB68E399FAC4606AED2AE6615B10502DC39CA7A4E8A736F9BA6444C4DD DUP4 PUSH1 0xE DUP2 MLOAD DUP2 LT PUSH2 0x1B0E JUMPI PUSH2 0x1B0E PUSH2 0x2982 JUMP JUMPDEST PUSH1 0x20 MUL PUSH1 0x20 ADD ADD DUP5 PUSH1 0xF DUP2 MLOAD DUP2 LT PUSH2 0x1B28 JUMPI PUSH2 0x1B28 PUSH2 0x2982 JUMP JUMPDEST PUSH1 0x20 SWAP1 DUP2 MUL SWAP2 SWAP1 SWAP2 ADD ADD SWAP2 SWAP1 SWAP2 MSTORE MSTORE PUSH0 DUP1 MLOAD PUSH1 0x20 PUSH2 0x2A02 DUP4 CODECOPY DUP2 MLOAD SWAP2 MSTORE DUP1 DUP4 PUSH1 0x7 DUP2 MLOAD DUP2 LT PUSH2 0x1B59 JUMPI PUSH2 0x1B59 PUSH2 0x2982 JUMP JUMPDEST PUSH1 0x20 MUL PUSH1 0x20 ADD ADD MLOAD DUP5 PUSH1 0x11 DUP2 MLOAD DUP2 LT PUSH2 0x1B74 JUMPI PUSH2 0x1B74 PUSH2 0x2982 JUMP JUMPDEST PUSH1 0x20 MUL PUSH1 0x20 ADD ADD MLOAD MULMOD DUP4 PUSH1 0x15 DUP2 MLOAD DUP2 LT PUSH2 0x1B90 JUMPI PUSH2 0x1B90 PUSH2 0x2982 JUMP JUMPDEST PUSH1 0x20 MUL PUSH1 0x20 ADD ADD MLOAD MULMOD DUP3 PUSH1 0x10 DUP2 MLOAD DUP2 LT PUSH2 0x1BAC JUMPI PUSH2 0x1BAC PUSH2 0x2982 JUMP JUMPDEST PUSH1 0x20 MUL PUSH1 0x20 ADD ADD DUP2 DUP2 MSTORE POP POP PUSH2 0x1BC3 DUP3 PUSH1 0xC PUSH2 0x2780 JUMP JUMPDEST PUSH32 0x21EAC21319033BF3744C814D37BA065334D18BBE9DD73A074BC5529539B329F9 PUSH32 0x264592032337E2B0639E36F2DBDAFDF5CA2D09AA78C7DF964F184A658942656A DUP4 PUSH1 0xE DUP2 MLOAD DUP2 LT PUSH2 0x1C18 JUMPI PUSH2 0x1C18 PUSH2 0x2982 JUMP JUMPDEST PUSH1 0x20 MUL PUSH1 0x20 ADD ADD DUP5 PUSH1 0xF DUP2 MLOAD DUP2 LT PUSH2 0x1C32 JUMPI PUSH2 0x1C32 PUSH2 0x2982 JUMP JUMPDEST PUSH1 0x20 SWAP1 DUP2 MUL SWAP2 SWAP1 SWAP2 ADD ADD SWAP2 SWAP1 SWAP2 MSTORE MSTORE PUSH0 DUP1 MLOAD PUSH1 0x20 PUSH2 0x2A02 DUP4 CODECOPY DUP2 MLOAD SWAP2 MSTORE DUP3 PUSH1 0x11 DUP2 MLOAD DUP2 LT PUSH2 0x1C62 JUMPI PUSH2 0x1C62 PUSH2 0x2982 JUMP JUMPDEST PUSH1 0x20 MUL PUSH1 0x20 ADD ADD MLOAD DUP4 PUSH1 0x15 DUP2 MLOAD DUP2 LT PUSH2 0x1C7D JUMPI PUSH2 0x1C7D PUSH2 0x2982 JUMP JUMPDEST PUSH1 0x20 MUL PUSH1 0x20 ADD ADD MLOAD MULMOD DUP3 PUSH1 0x10 DUP2 MLOAD DUP2 LT PUSH2 0x1C99 JUMPI PUSH2 0x1C99 PUSH2 0x2982 JUMP JUMPDEST PUSH1 0x20 MUL PUSH1 0x20 ADD ADD DUP2 DUP2 MSTORE POP POP PUSH2 0x1CB0 DUP3 PUSH1 0xC PUSH2 0x2780 JUMP JUMPDEST PUSH32 0x2D322F070D02CC3BC0627C447CB71FA3F96420DC10FD06E8775B571B002CF421 PUSH32 0x12C152158FA2061D331678AC9FB61522EE7D5FFD6686B1907C242792792D256D DUP4 PUSH1 0xE DUP2 MLOAD DUP2 LT PUSH2 0x1D05 JUMPI PUSH2 0x1D05 PUSH2 0x2982 JUMP JUMPDEST PUSH1 0x20 MUL PUSH1 0x20 ADD ADD DUP5 PUSH1 0xF DUP2 MLOAD DUP2 LT PUSH2 0x1D1F JUMPI PUSH2 0x1D1F PUSH2 0x2982 JUMP JUMPDEST PUSH1 0x20 SWAP1 DUP2 MUL SWAP2 SWAP1 SWAP2 ADD ADD SWAP2 SWAP1 SWAP2 MSTORE MSTORE PUSH0 DUP1 MLOAD PUSH1 0x20 PUSH2 0x2A02 DUP4 CODECOPY DUP2 MLOAD SWAP2 MSTORE DUP1 DUP4 PUSH1 0x7 DUP2 MLOAD DUP2 LT PUSH2 0x1D50 JUMPI PUSH2 0x1D50 PUSH2 0x2982 JUMP JUMPDEST PUSH1 0x20 MUL PUSH1 0x20 ADD ADD MLOAD DUP5 PUSH1 0x18 DUP2 MLOAD DUP2 LT PUSH2 0x1D6B JUMPI PUSH2 0x1D6B PUSH2 0x2982 JUMP JUMPDEST PUSH1 0x20 MUL PUSH1 0x20 ADD ADD MLOAD MULMOD DUP4 PUSH1 0x15 DUP2 MLOAD DUP2 LT PUSH2 0x1D87 JUMPI PUSH2 0x1D87 PUSH2 0x2982 JUMP JUMPDEST PUSH1 0x20 MUL PUSH1 0x20 ADD ADD MLOAD MULMOD DUP3 PUSH1 0x10 DUP2 MLOAD DUP2 LT PUSH2 0x1DA3 JUMPI PUSH2 0x1DA3 PUSH2 0x2982 JUMP JUMPDEST PUSH1 0x20 MUL PUSH1 0x20 ADD ADD DUP2 DUP2 MSTORE POP POP PUSH2 0x1DBA DUP3 PUSH1 0xC PUSH2 0x2780 JUMP JUMPDEST PUSH32 0x17E239FDF40B337AD130934FA551040F37879059E6F2CA6328CA4BA5CED5CFFC PUSH32 0x1F168B3232146EA9801B7AE828440461EDE6B420F008FA1F8CA7FB8A2551294B DUP4 PUSH1 0xE DUP2 MLOAD DUP2 LT PUSH2 0x1E0F JUMPI PUSH2 0x1E0F PUSH2 0x2982 JUMP JUMPDEST PUSH1 0x20 MUL PUSH1 0x20 ADD ADD DUP5 PUSH1 0xF DUP2 MLOAD DUP2 LT PUSH2 0x1E29 JUMPI PUSH2 0x1E29 PUSH2 0x2982 JUMP JUMPDEST PUSH1 0x20 SWAP1 DUP2 MUL SWAP2 SWAP1 SWAP2 ADD ADD SWAP2 SWAP1 SWAP2 MSTORE MSTORE PUSH0 DUP1 MLOAD PUSH1 0x20 PUSH2 0x2A02 DUP4 CODECOPY DUP2 MLOAD SWAP2 MSTORE DUP3 PUSH1 0x18 DUP2 MLOAD DUP2 LT PUSH2 0x1E59 JUMPI PUSH2 0x1E59 PUSH2 0x2982 JUMP JUMPDEST PUSH1 0x20 MUL PUSH1 0x20 ADD ADD MLOAD DUP4 PUSH1 0x15 DUP2 MLOAD DUP2 LT PUSH2 0x1E74 JUMPI PUSH2 0x1E74 PUSH2 0x2982 JUMP JUMPDEST PUSH1 0x20 MUL PUSH1 0x20 ADD ADD MLOAD MULMOD DUP3 PUSH1 0x10 DUP2 MLOAD DUP2 LT PUSH2 0x1E90 JUMPI PUSH2 0x1E90 PUSH2 0x2982 JUMP JUMPDEST PUSH1 0x20 MUL PUSH1 0x20 ADD ADD DUP2 DUP2 MSTORE POP POP PUSH2 0x1EA7 DUP3 PUSH1 0xC PUSH2 0x2780 JUMP JUMPDEST PUSH0 DUP1 MLOAD PUSH1 0x20 PUSH2 0x2A02 DUP4 CODECOPY DUP2 MLOAD SWAP2 MSTORE DUP3 PUSH1 0x7 DUP2 MLOAD DUP2 LT PUSH2 0x1EC8 JUMPI PUSH2 0x1EC8 PUSH2 0x2982 JUMP JUMPDEST PUSH1 0x20 MUL PUSH1 0x20 ADD ADD MLOAD DUP4 PUSH1 0x17 DUP2 MLOAD DUP2 LT PUSH2 0x1EE3 JUMPI PUSH2 0x1EE3 PUSH2 0x2982 JUMP JUMPDEST PUSH1 0x20 MUL PUSH1 0x20 ADD ADD MLOAD MULMOD DUP3 PUSH1 0x11 DUP2 MLOAD DUP2 LT PUSH2 0x1EFF JUMPI PUSH2 0x1EFF PUSH2 0x2982 JUMP JUMPDEST PUSH1 0x20 MUL PUSH1 0x20 ADD ADD DUP2 DUP2 MSTORE POP POP PUSH32 0x13F5958F2EF2A5F8CFE306165B9FF30C01218AD561E25B7CDCA822454F90E5E1 PUSH32 0x13AB619FE2A1ACF2A6412D106C18E625D16DF35DA7AB9D214CEE86D60C00E934 DUP4 PUSH1 0xE DUP2 MLOAD DUP2 LT PUSH2 0x1F60 JUMPI PUSH2 0x1F60 PUSH2 0x2982 JUMP JUMPDEST PUSH1 0x20 MUL PUSH1 0x20 ADD ADD DUP5 PUSH1 0xF DUP2 MLOAD DUP2 LT PUSH2 0x1F7A JUMPI PUSH2 0x1F7A PUSH2 0x2982 JUMP JUMPDEST PUSH1 0x20 SWAP1 DUP2 MUL SWAP2 SWAP1 SWAP2 ADD ADD SWAP2 SWAP1 SWAP2 MSTORE MSTORE PUSH0 DUP1 MLOAD PUSH1 0x20 PUSH2 0x2A02 DUP4 CODECOPY DUP2 MLOAD SWAP2 MSTORE DUP3 PUSH1 0x11 DUP2 MLOAD DUP2 LT PUSH2 0x1FAA JUMPI PUSH2 0x1FAA PUSH2 0x2982 JUMP JUMPDEST PUSH1 0x20 MUL PUSH1 0x20 ADD ADD MLOAD DUP4 PUSH1 0x15 DUP2 MLOAD DUP2 LT PUSH2 0x1FC5 JUMPI PUSH2 0x1FC5 PUSH2 0x2982 JUMP JUMPDEST PUSH1 0x20 MUL PUSH1 0x20 ADD ADD MLOAD MULMOD DUP3 PUSH1 0x10 DUP2 MLOAD DUP2 LT PUSH2 0x1FE1 JUMPI PUSH2 0x1FE1 PUSH2 0x2982 JUMP JUMPDEST PUSH1 0x20 MUL PUSH1 0x20 ADD ADD DUP2 DUP2 MSTORE POP POP PUSH2 0x1FF8 DUP3 PUSH1 0xC PUSH2 0x2780 JUMP JUMPDEST PUSH32 0xAB167115FCFA344B12422E3057429E49A4068E4CF5C9D4805F83806CC7C7D6B PUSH32 0xAFDC709F2AEFF4D6C30DECA1CDDF7D245B57DB1C4CE56E38EBAEC86B98A7AB8 DUP4 PUSH1 0xE DUP2 MLOAD DUP2 LT PUSH2 0x204D JUMPI PUSH2 0x204D PUSH2 0x2982 JUMP JUMPDEST PUSH1 0x20 MUL PUSH1 0x20 ADD ADD DUP5 PUSH1 0xF DUP2 MLOAD DUP2 LT PUSH2 0x2067 JUMPI PUSH2 0x2067 PUSH2 0x2982 JUMP JUMPDEST PUSH1 0x20 SWAP1 DUP2 MUL SWAP2 SWAP1 SWAP2 ADD ADD SWAP2 SWAP1 SWAP2 MSTORE MSTORE PUSH0 DUP1 MLOAD PUSH1 0x20 PUSH2 0x2A02 DUP4 CODECOPY DUP2 MLOAD SWAP2 MSTORE DUP3 PUSH1 0x17 DUP2 MLOAD DUP2 LT PUSH2 0x2097 JUMPI PUSH2 0x2097 PUSH2 0x2982 JUMP JUMPDEST PUSH1 0x20 MUL PUSH1 0x20 ADD ADD MLOAD DUP4 PUSH1 0x15 DUP2 MLOAD DUP2 LT PUSH2 0x20B2 JUMPI PUSH2 0x20B2 PUSH2 0x2982 JUMP JUMPDEST PUSH1 0x20 MUL PUSH1 0x20 ADD ADD MLOAD MULMOD DUP3 PUSH1 0x10 DUP2 MLOAD DUP2 LT PUSH2 0x20CE JUMPI PUSH2 0x20CE PUSH2 0x2982 JUMP JUMPDEST PUSH1 0x20 MUL PUSH1 0x20 ADD ADD DUP2 DUP2 MSTORE POP POP PUSH2 0x20E5 DUP3 PUSH1 0xC PUSH2 0x2780 JUMP JUMPDEST PUSH0 DUP1 MLOAD PUSH1 0x20 PUSH2 0x2A02 DUP4 CODECOPY DUP2 MLOAD SWAP2 MSTORE DUP3 PUSH1 0x13 DUP2 MLOAD DUP2 LT PUSH2 0x2106 JUMPI PUSH2 0x2106 PUSH2 0x2982 JUMP JUMPDEST PUSH1 0x20 MUL PUSH1 0x20 ADD ADD MLOAD DUP4 PUSH1 0x13 DUP2 MLOAD DUP2 LT PUSH2 0x2121 JUMPI PUSH2 0x2121 PUSH2 0x2982 JUMP JUMPDEST PUSH1 0x20 MUL PUSH1 0x20 ADD ADD MLOAD MULMOD DUP3 PUSH1 0x13 DUP2 MLOAD DUP2 LT PUSH2 0x213D JUMPI PUSH2 0x213D PUSH2 0x2982 JUMP JUMPDEST PUSH1 0x20 SWAP1 DUP2 MUL SWAP2 SWAP1 SWAP2 ADD ADD MSTORE PUSH0 DUP1 MLOAD PUSH1 0x20 PUSH2 0x2A02 DUP4 CODECOPY DUP2 MLOAD SWAP2 MSTORE DUP3 PUSH1 0x17 DUP2 MLOAD DUP2 LT PUSH2 0x2169 JUMPI PUSH2 0x2169 PUSH2 0x2982 JUMP JUMPDEST PUSH1 0x20 MUL PUSH1 0x20 ADD ADD MLOAD DUP4 PUSH1 0x13 DUP2 MLOAD DUP2 LT PUSH2 0x2184 JUMPI PUSH2 0x2184 PUSH2 0x2982 JUMP JUMPDEST PUSH1 0x20 MUL PUSH1 0x20 ADD ADD MLOAD MULMOD DUP3 PUSH1 0x14 DUP2 MLOAD DUP2 LT PUSH2 0x21A0 JUMPI PUSH2 0x21A0 PUSH2 0x2982 JUMP JUMPDEST PUSH1 0x20 MUL PUSH1 0x20 ADD ADD DUP2 DUP2 MSTORE POP POP DUP6 DUP6 PUSH1 0x20 DUP2 DUP2 LT PUSH2 0x21BF JUMPI PUSH2 0x21BF PUSH2 0x2982 JUMP JUMPDEST SWAP1 POP PUSH1 0x20 MUL ADD CALLDATALOAD DUP7 DUP7 PUSH1 0x21 DUP2 DUP2 LT PUSH2 0x21D9 JUMPI PUSH2 0x21D9 PUSH2 0x2982 JUMP JUMPDEST SWAP1 POP PUSH1 0x20 MUL ADD CALLDATALOAD DUP4 PUSH1 0xE DUP2 MLOAD DUP2 LT PUSH2 0x21F3 JUMPI PUSH2 0x21F3 PUSH2 0x2982 JUMP JUMPDEST PUSH1 0x20 MUL PUSH1 0x20 ADD ADD DUP5 PUSH1 0xF DUP2 MLOAD DUP2 LT PUSH2 0x220D JUMPI PUSH2 0x220D PUSH2 0x2982 JUMP JUMPDEST PUSH1 0x20 SWAP1 DUP2 MUL SWAP2 SWAP1 SWAP2 ADD ADD SWAP2 SWAP1 SWAP2 MSTORE MSTORE PUSH0 DUP1 MLOAD PUSH1 0x20 PUSH2 0x2A02 DUP4 CODECOPY DUP2 MLOAD SWAP2 MSTORE DUP3 PUSH1 0x7 DUP2 MLOAD DUP2 LT PUSH2 0x223D JUMPI PUSH2 0x223D PUSH2 0x2982 JUMP JUMPDEST PUSH1 0x20 MUL PUSH1 0x20 ADD ADD MLOAD DUP4 PUSH1 0x14 DUP2 MLOAD DUP2 LT PUSH2 0x2258 JUMPI PUSH2 0x2258 PUSH2 0x2982 JUMP JUMPDEST PUSH1 0x20 MUL PUSH1 0x20 ADD ADD MLOAD MULMOD DUP3 PUSH1 0x10 DUP2 MLOAD DUP2 LT PUSH2 0x2274 JUMPI PUSH2 0x2274 PUSH2 0x2982 JUMP JUMPDEST PUSH1 0x20 MUL PUSH1 0x20 ADD ADD DUP2 DUP2 MSTORE POP POP PUSH2 0x228B DUP3 PUSH1 0xC PUSH2 0x2780 JUMP JUMPDEST DUP6 DUP6 PUSH1 0x22 DUP2 DUP2 LT PUSH2 0x229E JUMPI PUSH2 0x229E PUSH2 0x2982 JUMP JUMPDEST SWAP1 POP PUSH1 0x20 MUL ADD CALLDATALOAD DUP7 DUP7 PUSH1 0x23 DUP2 DUP2 LT PUSH2 0x22B8 JUMPI PUSH2 0x22B8 PUSH2 0x2982 JUMP JUMPDEST SWAP1 POP PUSH1 0x20 MUL ADD CALLDATALOAD DUP4 PUSH1 0xE DUP2 MLOAD DUP2 LT PUSH2 0x22D2 JUMPI PUSH2 0x22D2 PUSH2 0x2982 JUMP JUMPDEST PUSH1 0x20 MUL PUSH1 0x20 ADD ADD DUP5 PUSH1 0xF DUP2 MLOAD DUP2 LT PUSH2 0x22EC JUMPI PUSH2 0x22EC PUSH2 0x2982 JUMP JUMPDEST PUSH1 0x20 MUL PUSH1 0x20 ADD ADD DUP3 DUP2 MSTORE POP DUP3 DUP2 MSTORE POP POP POP DUP2 PUSH1 0x14 DUP2 MLOAD DUP2 LT PUSH2 0x2310 JUMPI PUSH2 0x2310 PUSH2 0x2982 JUMP JUMPDEST PUSH1 0x20 MUL PUSH1 0x20 ADD ADD MLOAD DUP3 PUSH1 0x10 DUP2 MLOAD DUP2 LT PUSH2 0x232B JUMPI PUSH2 0x232B PUSH2 0x2982 JUMP JUMPDEST PUSH1 0x20 MUL PUSH1 0x20 ADD ADD DUP2 DUP2 MSTORE POP POP PUSH2 0x2342 DUP3 PUSH1 0xC PUSH2 0x2780 JUMP JUMPDEST DUP6 DUP6 PUSH1 0x24 DUP2 DUP2 LT PUSH2 0x2355 JUMPI PUSH2 0x2355 PUSH2 0x2982 JUMP JUMPDEST SWAP1 POP PUSH1 0x20 MUL ADD CALLDATALOAD DUP7 DUP7 PUSH1 0x25 DUP2 DUP2 LT PUSH2 0x236F JUMPI PUSH2 0x236F PUSH2 0x2982 JUMP JUMPDEST SWAP1 POP PUSH1 0x20 MUL ADD CALLDATALOAD DUP4 PUSH1 0xE DUP2 MLOAD DUP2 LT PUSH2 0x2389 JUMPI PUSH2 0x2389 PUSH2 0x2982 JUMP JUMPDEST PUSH1 0x20 MUL PUSH1 0x20 ADD ADD DUP5 PUSH1 0xF DUP2 MLOAD DUP2 LT PUSH2 0x23A3 JUMPI PUSH2 0x23A3 PUSH2 0x2982 JUMP JUMPDEST PUSH1 0x20 SWAP1 DUP2 MUL SWAP2 SWAP1 SWAP2 ADD ADD SWAP2 SWAP1 SWAP2 MSTORE MSTORE PUSH0 DUP1 MLOAD PUSH1 0x20 PUSH2 0x2A02 DUP4 CODECOPY DUP2 MLOAD SWAP2 MSTORE DUP3 PUSH1 0x7 DUP2 MLOAD DUP2 LT PUSH2 0x23D3 JUMPI PUSH2 0x23D3 PUSH2 0x2982 JUMP JUMPDEST PUSH1 0x20 MUL PUSH1 0x20 ADD ADD MLOAD DUP4 PUSH1 0x13 DUP2 MLOAD DUP2 LT PUSH2 0x23EE JUMPI PUSH2 0x23EE PUSH2 0x2982 JUMP JUMPDEST PUSH1 0x20 MUL PUSH1 0x20 ADD ADD MLOAD MULMOD DUP3 PUSH1 0x10 DUP2 MLOAD DUP2 LT PUSH2 0x240A JUMPI PUSH2 0x240A PUSH2 0x2982 JUMP JUMPDEST PUSH1 0x20 MUL PUSH1 0x20 ADD ADD DUP2 DUP2 MSTORE POP POP PUSH2 0x2421 DUP3 PUSH1 0xC PUSH2 0x2780 JUMP JUMPDEST DUP6 DUP6 PUSH1 0x26 DUP2 DUP2 LT PUSH2 0x2434 JUMPI PUSH2 0x2434 PUSH2 0x2982 JUMP JUMPDEST SWAP1 POP PUSH1 0x20 MUL ADD CALLDATALOAD DUP7 DUP7 PUSH1 0x27 DUP2 DUP2 LT PUSH2 0x244E JUMPI PUSH2 0x244E PUSH2 0x2982 JUMP JUMPDEST SWAP1 POP PUSH1 0x20 MUL ADD CALLDATALOAD DUP4 PUSH1 0xE DUP2 MLOAD DUP2 LT PUSH2 0x2468 JUMPI PUSH2 0x2468 PUSH2 0x2982 JUMP JUMPDEST PUSH1 0x20 MUL PUSH1 0x20 ADD ADD DUP5 PUSH1 0xF DUP2 MLOAD DUP2 LT PUSH2 0x2482 JUMPI PUSH2 0x2482 PUSH2 0x2982 JUMP JUMPDEST PUSH1 0x20 MUL PUSH1 0x20 ADD ADD DUP3 DUP2 MSTORE POP DUP3 DUP2 MSTORE POP POP POP DUP2 PUSH1 0x13 DUP2 MLOAD DUP2 LT PUSH2 0x24A6 JUMPI PUSH2 0x24A6 PUSH2 0x2982 JUMP JUMPDEST PUSH1 0x20 MUL PUSH1 0x20 ADD ADD MLOAD DUP3 PUSH1 0x10 DUP2 MLOAD DUP2 LT PUSH2 0x24C1 JUMPI PUSH2 0x24C1 PUSH2 0x2982 JUMP JUMPDEST PUSH1 0x20 MUL PUSH1 0x20 ADD ADD DUP2 DUP2 MSTORE POP POP PUSH2 0x24D8 DUP3 PUSH1 0xC PUSH2 0x2780 JUMP JUMPDEST DUP6 DUP6 PUSH1 0x28 DUP2 DUP2 LT PUSH2 0x24EB JUMPI PUSH2 0x24EB PUSH2 0x2982 JUMP JUMPDEST SWAP1 POP PUSH1 0x20 MUL ADD CALLDATALOAD DUP7 DUP7 PUSH1 0x29 DUP2 DUP2 LT PUSH2 0x2505 JUMPI PUSH2 0x2505 PUSH2 0x2982 JUMP JUMPDEST SWAP1 POP PUSH1 0x20 MUL ADD CALLDATALOAD DUP4 PUSH1 0xE DUP2 MLOAD DUP2 LT PUSH2 0x251F JUMPI PUSH2 0x251F PUSH2 0x2982 JUMP JUMPDEST PUSH1 0x20 MUL PUSH1 0x20 ADD ADD DUP5 PUSH1 0xF DUP2 MLOAD DUP2 LT PUSH2 0x2539 JUMPI PUSH2 0x2539 PUSH2 0x2982 JUMP JUMPDEST PUSH1 0x20 SWAP1 DUP2 MUL SWAP2 SWAP1 SWAP2 ADD ADD SWAP2 SWAP1 SWAP2 MSTORE MSTORE PUSH0 DUP1 MLOAD PUSH1 0x20 PUSH2 0x2A02 DUP4 CODECOPY DUP2 MLOAD SWAP2 MSTORE DUP3 PUSH1 0x11 DUP2 MLOAD DUP2 LT PUSH2 0x2569 JUMPI PUSH2 0x2569 PUSH2 0x2982 JUMP JUMPDEST PUSH1 0x20 MUL PUSH1 0x20 ADD ADD MLOAD DUP4 PUSH1 0x19 DUP2 MLOAD DUP2 LT PUSH2 0x2584 JUMPI PUSH2 0x2584 PUSH2 0x2982 JUMP JUMPDEST PUSH1 0x20 MUL PUSH1 0x20 ADD ADD MLOAD MULMOD DUP3 PUSH1 0x10 DUP2 MLOAD DUP2 LT PUSH2 0x25A0 JUMPI PUSH2 0x25A0 PUSH2 0x2982 JUMP JUMPDEST PUSH1 0x20 MUL PUSH1 0x20 ADD ADD DUP2 DUP2 MSTORE POP POP PUSH2 0x25B7 DUP3 PUSH1 0xC PUSH2 0x2780 JUMP JUMPDEST DUP6 DUP6 PUSH1 0x30 DUP2 DUP2 LT PUSH2 0x25CA JUMPI PUSH2 0x25CA PUSH2 0x2982 JUMP JUMPDEST SWAP1 POP PUSH1 0x20 MUL ADD CALLDATALOAD DUP7 DUP7 PUSH1 0x31 DUP2 DUP2 LT PUSH2 0x25E4 JUMPI PUSH2 0x25E4 PUSH2 0x2982 JUMP JUMPDEST SWAP1 POP PUSH1 0x20 MUL ADD CALLDATALOAD DUP4 PUSH1 0xE DUP2 MLOAD DUP2 LT PUSH2 0x25FE JUMPI PUSH2 0x25FE PUSH2 0x2982 JUMP JUMPDEST PUSH1 0x20 MUL PUSH1 0x20 ADD ADD DUP5 PUSH1 0xF DUP2 MLOAD DUP2 LT PUSH2 0x2618 JUMPI PUSH2 0x2618 PUSH2 0x2982 JUMP JUMPDEST PUSH1 0x20 MUL PUSH1 0x20 ADD ADD DUP3 DUP2 MSTORE POP DUP3 DUP2 MSTORE POP POP POP DUP2 PUSH1 0x15 DUP2 MLOAD DUP2 LT PUSH2 0x263C JUMPI PUSH2 0x263C PUSH2 0x2982 JUMP JUMPDEST PUSH1 0x20 MUL PUSH1 0x20 ADD ADD MLOAD DUP3 PUSH1 0x10 DUP2 MLOAD DUP2 LT PUSH2 0x2657 JUMPI PUSH2 0x2657 PUSH2 0x2982 JUMP JUMPDEST PUSH1 0x20 MUL PUSH1 0x20 ADD ADD DUP2 DUP2 MSTORE POP POP PUSH2 0x266E DUP3 PUSH1 0xC PUSH2 0x2780 JUMP JUMPDEST PUSH1 0x40 DUP1 MLOAD PUSH1 0x4 DUP1 DUP3 MSTORE PUSH1 0xA0 DUP3 ADD SWAP1 SWAP3 MSTORE PUSH0 SWAP2 PUSH1 0x20 DUP3 ADD PUSH1 0x80 DUP1 CALLDATASIZE DUP4 CALLDATACOPY ADD SWAP1 POP POP SWAP1 POP DUP3 PUSH1 0xA DUP2 MLOAD DUP2 LT PUSH2 0x26A3 JUMPI PUSH2 0x26A3 PUSH2 0x2982 JUMP JUMPDEST PUSH1 0x20 MUL PUSH1 0x20 ADD ADD MLOAD DUP2 PUSH0 DUP2 MLOAD DUP2 LT PUSH2 0x26BD JUMPI PUSH2 0x26BD PUSH2 0x2982 JUMP JUMPDEST PUSH1 0x20 MUL PUSH1 0x20 ADD ADD DUP2 DUP2 MSTORE POP POP DUP3 PUSH1 0xB DUP2 MLOAD DUP2 LT PUSH2 0x26DC JUMPI PUSH2 0x26DC PUSH2 0x2982 JUMP JUMPDEST PUSH1 0x20 MUL PUSH1 0x20 ADD ADD MLOAD DUP2 PUSH1 0x1 DUP2 MLOAD DUP2 LT PUSH2 0x26F7 JUMPI PUSH2 0x26F7 PUSH2 0x2982 JUMP JUMPDEST PUSH1 0x20 MUL PUSH1 0x20 ADD ADD DUP2 DUP2 MSTORE POP POP DUP3 PUSH1 0xC DUP2 MLOAD DUP2 LT PUSH2 0x2716 JUMPI PUSH2 0x2716 PUSH2 0x2982 JUMP JUMPDEST PUSH1 0x20 MUL PUSH1 0x20 ADD ADD MLOAD DUP2 PUSH1 0x2 DUP2 MLOAD DUP2 LT PUSH2 0x2731 JUMPI PUSH2 0x2731 PUSH2 0x2982 JUMP JUMPDEST PUSH1 0x20 MUL PUSH1 0x20 ADD ADD DUP2 DUP2 MSTORE POP POP DUP3 PUSH1 0xD DUP2 MLOAD DUP2 LT PUSH2 0x2750 JUMPI PUSH2 0x2750 PUSH2 0x2982 JUMP JUMPDEST PUSH1 0x20 MUL PUSH1 0x20 ADD ADD MLOAD DUP2 PUSH1 0x3 DUP2 MLOAD DUP2 LT PUSH2 0x276B JUMPI PUSH2 0x276B PUSH2 0x2982 JUMP JUMPDEST PUSH1 0x20 SWAP1 DUP2 MUL SWAP2 SWAP1 SWAP2 ADD ADD MSTORE SWAP7 SWAP6 POP POP POP POP POP POP JUMP JUMPDEST PUSH0 DUP1 PUSH2 0x278D DUP4 PUSH1 0x20 PUSH2 0x29D7 JUMP JUMPDEST PUSH2 0x2798 SWAP1 PUSH1 0x20 PUSH2 0x29EE JUMP JUMPDEST SWAP1 POP PUSH0 PUSH2 0x27A6 DUP3 PUSH1 0x40 PUSH2 0x29EE JUMP JUMPDEST SWAP1 POP PUSH1 0x40 DUP6 DUP3 ADD PUSH1 0x60 DUP2 PUSH1 0x7 GAS STATICCALL SWAP3 POP DUP3 PUSH2 0x27BF JUMPI PUSH0 DUP1 REVERT JUMPDEST PUSH1 0x40 DUP6 DUP4 ADD PUSH1 0x80 DUP2 PUSH1 0x6 GAS STATICCALL SWAP3 POP DUP3 PUSH2 0x27D6 JUMPI PUSH0 DUP1 REVERT JUMPDEST POP POP POP POP POP JUMP JUMPDEST PUSH0 DUP1 DUP4 PUSH1 0x1F DUP5 ADD SLT PUSH2 0x27ED JUMPI PUSH0 DUP1 REVERT JUMPDEST POP DUP2 CALLDATALOAD PUSH1 0x1 PUSH1 0x1 PUSH1 0x40 SHL SUB DUP2 GT ISZERO PUSH2 0x2803 JUMPI PUSH0 DUP1 REVERT JUMPDEST PUSH1 0x20 DUP4 ADD SWAP2 POP DUP4 PUSH1 0x20 DUP3 PUSH1 0x5 SHL DUP6 ADD ADD GT ISZERO PUSH2 0x281D JUMPI PUSH0 DUP1 REVERT JUMPDEST SWAP3 POP SWAP3 SWAP1 POP JUMP JUMPDEST PUSH4 0x4E487B71 PUSH1 0xE0 SHL PUSH0 MSTORE PUSH1 0x41 PUSH1 0x4 MSTORE PUSH1 0x24 PUSH0 REVERT JUMPDEST PUSH0 DUP1 PUSH0 DUP1 PUSH0 PUSH1 0x60 DUP7 DUP9 SUB SLT ISZERO PUSH2 0x284C JUMPI PUSH0 DUP1 REVERT JUMPDEST DUP6 CALLDATALOAD PUSH1 0x1 PUSH1 0x1 PUSH1 0x40 SHL SUB DUP1 DUP3 GT ISZERO PUSH2 0x2862 JUMPI PUSH0 DUP1 REVERT JUMPDEST PUSH2 0x286E DUP10 DUP4 DUP11 ADD PUSH2 0x27DD JUMP JUMPDEST SWAP1 SWAP8 POP SWAP6 POP PUSH1 0x20 SWAP2 POP DUP8 DUP3 ADD CALLDATALOAD DUP2 DUP2 GT ISZERO PUSH2 0x2887 JUMPI PUSH0 DUP1 REVERT JUMPDEST PUSH2 0x2893 DUP11 DUP3 DUP12 ADD PUSH2 0x27DD JUMP JUMPDEST SWAP1 SWAP7 POP SWAP5 POP POP PUSH1 0x40 DUP9 ADD CALLDATALOAD DUP2 DUP2 GT ISZERO PUSH2 0x28AA JUMPI PUSH0 DUP1 REVERT JUMPDEST DUP9 ADD PUSH1 0x1F DUP2 ADD DUP11 SGT PUSH2 0x28BA JUMPI PUSH0 DUP1 REVERT JUMPDEST DUP1 CALLDATALOAD DUP3 DUP2 GT ISZERO PUSH2 0x28CC JUMPI PUSH2 0x28CC PUSH2 0x2824 JUMP JUMPDEST DUP1 PUSH1 0x5 SHL PUSH1 0x40 MLOAD PUSH1 0x1F NOT PUSH1 0x3F DUP4 ADD AND DUP2 ADD DUP2 DUP2 LT DUP7 DUP3 GT OR ISZERO PUSH2 0x28F1 JUMPI PUSH2 0x28F1 PUSH2 0x2824 JUMP JUMPDEST PUSH1 0x40 MSTORE SWAP2 DUP3 MSTORE DUP5 DUP3 ADD SWAP4 POP DUP3 DUP2 ADD DUP6 ADD SWAP2 DUP13 DUP4 GT ISZERO PUSH2 0x290E JUMPI PUSH0 DUP1 REVERT JUMPDEST SWAP3 DUP6 ADD SWAP3 JUMPDEST DUP3 DUP5 LT ISZERO PUSH2 0x292C JUMPI DUP4 CALLDATALOAD DUP6 MSTORE SWAP4 DUP6 ADD SWAP4 SWAP3 DUP6 ADD SWAP3 PUSH2 0x2913 JUMP JUMPDEST DUP1 SWAP7 POP POP POP POP POP POP POP SWAP3 SWAP6 POP SWAP3 SWAP6 SWAP1 SWAP4 POP JUMP JUMPDEST PUSH1 0x20 DUP1 DUP3 MSTORE DUP3 MLOAD DUP3 DUP3 ADD DUP2 SWAP1 MSTORE PUSH0 SWAP2 SWAP1 DUP5 DUP3 ADD SWAP1 PUSH1 0x40 DUP6 ADD SWAP1 DUP5 JUMPDEST DUP2 DUP2 LT ISZERO PUSH2 0x2976 JUMPI DUP4 MLOAD DUP4 MSTORE SWAP3 DUP5 ADD SWAP3 SWAP2 DUP5 ADD SWAP2 PUSH1 0x1 ADD PUSH2 0x295A JUMP JUMPDEST POP SWAP1 SWAP7 SWAP6 POP POP POP POP POP POP JUMP JUMPDEST PUSH4 0x4E487B71 PUSH1 0xE0 SHL PUSH0 MSTORE PUSH1 0x32 PUSH1 0x4 MSTORE PUSH1 0x24 PUSH0 REVERT JUMPDEST PUSH4 0x4E487B71 PUSH1 0xE0 SHL PUSH0 MSTORE PUSH1 0x12 PUSH1 0x4 MSTORE PUSH1 0x24 PUSH0 REVERT JUMPDEST PUSH4 0x4E487B71 PUSH1 0xE0 SHL PUSH0 MSTORE PUSH1 0x11 PUSH1 0x4 MSTORE PUSH1 0x24 PUSH0 REVERT JUMPDEST DUP2 DUP2 SUB DUP2 DUP2 GT ISZERO PUSH2 0x29D1 JUMPI PUSH2 0x29D1 PUSH2 0x29AA JUMP JUMPDEST SWAP3 SWAP2 POP POP JUMP JUMPDEST DUP1 DUP3 MUL DUP2 ISZERO DUP3 DUP3 DIV DUP5 EQ OR PUSH2 0x29D1 JUMPI PUSH2 0x29D1 PUSH2 0x29AA JUMP JUMPDEST DUP1 DUP3 ADD DUP1 DUP3 GT ISZERO PUSH2 0x29D1 JUMPI PUSH2 0x29D1 PUSH2 0x29AA JUMP INVALID ADDRESS PUSH5 0x4E72E131A0 0x29 0xB8 POP GASLIMIT 0xB6 DUP2 DUP2 PC TSTORE 0x28 CALLER 0xE8 BASEFEE PUSH26 0xB9709143E1F593F0000001A2646970667358221220667B61C81F TLOAD 0xD0 0x1F MSIZE 0xD9 ADDRESS PUSH13 0x3D27E137250DEAC8307F13F20D 0xD3 0x4B EXTCODECOPY 0xAE MSTORE DUP4 0xE5 PUSH5 0x736F6C6343 STOP ADDMOD XOR STOP CALLER "
				},
				"gasEstimates": {
					"creation": {
						"codeDepositCost": "2167800",
						"executionCost": "2307",
						"totalCost": "2170107"
					},
					"external": {
						"verify_proof(uint256[],uint256[],uint256[])": "infinite"
					}
				},
				"methodIdentifiers": {
					"verify_proof(uint256[],uint256[],uint256[])": "96675190"
				}
			},
			"storageLayout": {
				"storage": [],
				"types": null
			},
			"userdoc": {
				"kind": "user",
				"methods": {},
				"version": 1
			}
		}
	}
}